{
	"gestionderisquefin.sol": {
		"GestionnaireDeRisquesFinanciers": {
			"abi": [
				{
					"anonymous": false,
					"inputs": [
						{
							"indexed": true,
							"internalType": "address",
							"name": "portefeuille",
							"type": "address"
						},
						{
							"indexed": false,
							"internalType": "uint256",
							"name": "nouveauCollateral",
							"type": "uint256"
						}
					],
					"name": "CollateralMisAJour",
					"type": "event"
				},
				{
					"anonymous": false,
					"inputs": [
						{
							"indexed": true,
							"internalType": "address",
							"name": "portefeuille",
							"type": "address"
						},
						{
							"indexed": false,
							"internalType": "uint256",
							"name": "limiteExposition",
							"type": "uint256"
						},
						{
							"indexed": false,
							"internalType": "uint256",
							"name": "collateral",
							"type": "uint256"
						}
					],
					"name": "ContrepartieAjoutee",
					"type": "event"
				},
				{
					"anonymous": false,
					"inputs": [
						{
							"indexed": true,
							"internalType": "address",
							"name": "portefeuille",
							"type": "address"
						}
					],
					"name": "ContrepartieDesactivee",
					"type": "event"
				},
				{
					"anonymous": false,
					"inputs": [
						{
							"indexed": true,
							"internalType": "address",
							"name": "portefeuille",
							"type": "address"
						},
						{
							"indexed": false,
							"internalType": "uint256",
							"name": "expositionCourante",
							"type": "uint256"
						},
						{
							"indexed": false,
							"internalType": "uint256",
							"name": "limiteExposition",
							"type": "uint256"
						}
					],
					"name": "LimiteDepassee",
					"type": "event"
				},
				{
					"anonymous": false,
					"inputs": [
						{
							"indexed": true,
							"internalType": "address",
							"name": "portefeuille",
							"type": "address"
						},
						{
							"indexed": false,
							"internalType": "uint256",
							"name": "montantPenalite",
							"type": "uint256"
						}
					],
					"name": "PenaliteAppliquee",
					"type": "event"
				},
				{
					"anonymous": false,
					"inputs": [
						{
							"indexed": true,
							"internalType": "address",
							"name": "portefeuille",
							"type": "address"
						},
						{
							"indexed": false,
							"internalType": "uint256",
							"name": "montant",
							"type": "uint256"
						},
						{
							"indexed": false,
							"internalType": "string",
							"name": "typePosition",
							"type": "string"
						}
					],
					"name": "PositionAjoutee",
					"type": "event"
				},
				{
					"anonymous": false,
					"inputs": [
						{
							"indexed": true,
							"internalType": "address",
							"name": "portefeuille",
							"type": "address"
						},
						{
							"indexed": false,
							"internalType": "uint256",
							"name": "ratioCouverture",
							"type": "uint256"
						}
					],
					"name": "RatioCouvertureInsuffisant",
					"type": "event"
				},
				{
					"inputs": [
						{
							"internalType": "address",
							"name": "_portefeuille",
							"type": "address"
						},
						{
							"internalType": "uint256",
							"name": "montant",
							"type": "uint256"
						}
					],
					"name": "ajouterCollateral",
					"outputs": [],
					"stateMutability": "nonpayable",
					"type": "function"
				},
				{
					"inputs": [
						{
							"internalType": "address",
							"name": "_portefeuille",
							"type": "address"
						},
						{
							"internalType": "uint256",
							"name": "_scoreCredit",
							"type": "uint256"
						},
						{
							"internalType": "uint256",
							"name": "_limiteExposition",
							"type": "uint256"
						},
						{
							"internalType": "uint256",
							"name": "_collateral",
							"type": "uint256"
						}
					],
					"name": "ajouterContrepartie",
					"outputs": [],
					"stateMutability": "nonpayable",
					"type": "function"
				},
				{
					"inputs": [
						{
							"internalType": "address",
							"name": "_portefeuille",
							"type": "address"
						},
						{
							"internalType": "uint256",
							"name": "_montant",
							"type": "uint256"
						},
						{
							"internalType": "string",
							"name": "_typePosition",
							"type": "string"
						}
					],
					"name": "ajouterPosition",
					"outputs": [],
					"stateMutability": "nonpayable",
					"type": "function"
				},
				{
					"inputs": [
						{
							"internalType": "address",
							"name": "_portefeuille",
							"type": "address"
						},
						{
							"internalType": "uint256",
							"name": "PD",
							"type": "uint256"
						},
						{
							"internalType": "uint256",
							"name": "LGD",
							"type": "uint256"
						}
					],
					"name": "calculerPertesAttendues",
					"outputs": [
						{
							"internalType": "uint256",
							"name": "",
							"type": "uint256"
						}
					],
					"stateMutability": "view",
					"type": "function"
				},
				{
					"inputs": [
						{
							"internalType": "address",
							"name": "_portefeuille",
							"type": "address"
						}
					],
					"name": "calculerRatioCouverture",
					"outputs": [
						{
							"internalType": "uint256",
							"name": "",
							"type": "uint256"
						}
					],
					"stateMutability": "view",
					"type": "function"
				},
				{
					"inputs": [
						{
							"internalType": "address",
							"name": "_portefeuille",
							"type": "address"
						}
					],
					"name": "calculerScoreRisque",
					"outputs": [
						{
							"internalType": "uint256",
							"name": "",
							"type": "uint256"
						}
					],
					"stateMutability": "view",
					"type": "function"
				},
				{
					"inputs": [
						{
							"internalType": "address",
							"name": "",
							"type": "address"
						}
					],
					"name": "contreparties",
					"outputs": [
						{
							"internalType": "address",
							"name": "portefeuille",
							"type": "address"
						},
						{
							"internalType": "uint256",
							"name": "scoreCredit",
							"type": "uint256"
						},
						{
							"internalType": "uint256",
							"name": "limiteExposition",
							"type": "uint256"
						},
						{
							"internalType": "uint256",
							"name": "expositionCourante",
							"type": "uint256"
						},
						{
							"internalType": "uint256",
							"name": "collateral",
							"type": "uint256"
						},
						{
							"internalType": "bool",
							"name": "estActif",
							"type": "bool"
						},
						{
							"internalType": "uint256",
							"name": "penalites",
							"type": "uint256"
						}
					],
					"stateMutability": "view",
					"type": "function"
				},
				{
					"inputs": [
						{
							"internalType": "address",
							"name": "_portefeuille",
							"type": "address"
						}
					],
					"name": "desactiverContrepartie",
					"outputs": [],
					"stateMutability": "nonpayable",
					"type": "function"
				},
				{
					"inputs": [
						{
							"internalType": "uint256",
							"name": "",
							"type": "uint256"
						}
					],
					"name": "listeContreparties",
					"outputs": [
						{
							"internalType": "address",
							"name": "",
							"type": "address"
						}
					],
					"stateMutability": "view",
					"type": "function"
				},
				{
					"inputs": [
						{
							"internalType": "address",
							"name": "",
							"type": "address"
						}
					],
					"name": "nombreDepassements",
					"outputs": [
						{
							"internalType": "uint256",
							"name": "",
							"type": "uint256"
						}
					],
					"stateMutability": "view",
					"type": "function"
				},
				{
					"inputs": [
						{
							"internalType": "address",
							"name": "_portefeuille",
							"type": "address"
						},
						{
							"internalType": "uint256",
							"name": "montant",
							"type": "uint256"
						}
					],
					"name": "retirerCollateral",
					"outputs": [],
					"stateMutability": "nonpayable",
					"type": "function"
				},
				{
					"inputs": [],
					"name": "voirToutesLesContreparties",
					"outputs": [
						{
							"internalType": "address[]",
							"name": "",
							"type": "address[]"
						},
						{
							"internalType": "uint256[]",
							"name": "",
							"type": "uint256[]"
						},
						{
							"internalType": "uint256[]",
							"name": "",
							"type": "uint256[]"
						}
					],
					"stateMutability": "view",
					"type": "function"
				}
			],
			"devdoc": {
				"kind": "dev",
				"methods": {
					"ajouterContrepartie(address,uint256,uint256,uint256)": {
						"params": {
							"_collateral": "Montant initial de collatéral",
							"_limiteExposition": "Limite d’exposition autorisée",
							"_portefeuille": "Adresse du portefeuille de la contrepartie",
							"_scoreCredit": "Score de crédit (1-100)"
						}
					},
					"ajouterPosition(address,uint256,string)": {
						"params": {
							"_montant": "Montant de la position",
							"_portefeuille": "Adresse du portefeuille de la contrepartie",
							"_typePosition": "\"LONG\" ou \"SHORT\""
						}
					}
				},
				"version": 1
			},
			"evm": {
				"assembly": "    /* \"gestionderisquefin.sol\":61:10353  contract GestionnaireDeRisquesFinanciers {... */\n  mstore(0x40, 0x80)\n  callvalue\n  dup1\n  iszero\n  tag_1\n  jumpi\n  0x00\n  dup1\n  revert\ntag_1:\n  pop\n  dataSize(sub_0)\n  dup1\n  dataOffset(sub_0)\n  0x00\n  codecopy\n  0x00\n  return\nstop\n\nsub_0: assembly {\n        /* \"gestionderisquefin.sol\":61:10353  contract GestionnaireDeRisquesFinanciers {... */\n      mstore(0x40, 0x80)\n      callvalue\n      dup1\n      iszero\n      tag_1\n      jumpi\n      0x00\n      dup1\n      revert\n    tag_1:\n      pop\n      jumpi(tag_2, lt(calldatasize, 0x04))\n      shr(0xe0, calldataload(0x00))\n      dup1\n      0x52ea5692\n      gt\n      tag_15\n      jumpi\n      dup1\n      0x52ea5692\n      eq\n      tag_9\n      jumpi\n      dup1\n      0x561a9927\n      eq\n      tag_10\n      jumpi\n      dup1\n      0x5e7db763\n      eq\n      tag_11\n      jumpi\n      dup1\n      0x760b1eee\n      eq\n      tag_12\n      jumpi\n      dup1\n      0x786a2d08\n      eq\n      tag_13\n      jumpi\n      dup1\n      0x8564e0f2\n      eq\n      tag_14\n      jumpi\n      jump(tag_2)\n    tag_15:\n      dup1\n      0x0aae162e\n      eq\n      tag_3\n      jumpi\n      dup1\n      0x0f6b6286\n      eq\n      tag_4\n      jumpi\n      dup1\n      0x1411ae6f\n      eq\n      tag_5\n      jumpi\n      dup1\n      0x4b932d38\n      eq\n      tag_6\n      jumpi\n      dup1\n      0x4dd54c2a\n      eq\n      tag_7\n      jumpi\n      dup1\n      0x505b64cd\n      eq\n      tag_8\n      jumpi\n    tag_2:\n      0x00\n      dup1\n      revert\n        /* \"gestionderisquefin.sol\":4851:5142  function calculerRatioCouverture(address _portefeuille) public view returns (uint256) {... */\n    tag_3:\n      tag_16\n      0x04\n      dup1\n      calldatasize\n      sub\n      dup2\n      add\n      swap1\n      tag_17\n      swap2\n      swap1\n      tag_18\n      jump\t// in\n    tag_17:\n      tag_19\n      jump\t// in\n    tag_16:\n      mload(0x40)\n      tag_20\n      swap2\n      swap1\n      tag_21\n      jump\t// in\n    tag_20:\n      mload(0x40)\n      dup1\n      swap2\n      sub\n      swap1\n      return\n        /* \"gestionderisquefin.sol\":676:729  mapping(address => uint256) public nombreDepassements */\n    tag_4:\n      tag_22\n      0x04\n      dup1\n      calldatasize\n      sub\n      dup2\n      add\n      swap1\n      tag_23\n      swap2\n      swap1\n      tag_18\n      jump\t// in\n    tag_23:\n      tag_24\n      jump\t// in\n    tag_22:\n      mload(0x40)\n      tag_25\n      swap2\n      swap1\n      tag_21\n      jump\t// in\n    tag_25:\n      mload(0x40)\n      dup1\n      swap2\n      sub\n      swap1\n      return\n        /* \"gestionderisquefin.sol\":1795:2866  function ajouterContrepartie(address _portefeuille, uint256 _scoreCredit, uint256 _limiteExposition, uint256 _collateral) public {... */\n    tag_5:\n      tag_26\n      0x04\n      dup1\n      calldatasize\n      sub\n      dup2\n      add\n      swap1\n      tag_27\n      swap2\n      swap1\n      tag_28\n      jump\t// in\n    tag_27:\n      tag_29\n      jump\t// in\n    tag_26:\n      stop\n        /* \"gestionderisquefin.sol\":9754:10350  function voirToutesLesContreparties() public view returns (address[] memory, uint256[] memory, uint256[] memory) {... */\n    tag_6:\n      tag_30\n      tag_31\n      jump\t// in\n    tag_30:\n      mload(0x40)\n      tag_32\n      swap4\n      swap3\n      swap2\n      swap1\n      tag_33\n      jump\t// in\n    tag_32:\n      mload(0x40)\n      dup1\n      swap2\n      sub\n      swap1\n      return\n        /* \"gestionderisquefin.sol\":3167:4735  function ajouterPosition(address _portefeuille, uint256 _montant, string memory _typePosition) public {... */\n    tag_7:\n      tag_34\n      0x04\n      dup1\n      calldatasize\n      sub\n      dup2\n      add\n      swap1\n      tag_35\n      swap2\n      swap1\n      tag_36\n      jump\t// in\n    tag_35:\n      tag_37\n      jump\t// in\n    tag_34:\n      stop\n        /* \"gestionderisquefin.sol\":9369:9647  function desactiverContrepartie(address _portefeuille) public {... */\n    tag_8:\n      tag_38\n      0x04\n      dup1\n      calldatasize\n      sub\n      dup2\n      add\n      swap1\n      tag_39\n      swap2\n      swap1\n      tag_18\n      jump\t// in\n    tag_39:\n      tag_40\n      jump\t// in\n    tag_38:\n      stop\n        /* \"gestionderisquefin.sol\":8244:8610  function ajouterCollateral(address _portefeuille, uint256 montant) public {... */\n    tag_9:\n      tag_41\n      0x04\n      dup1\n      calldatasize\n      sub\n      dup2\n      add\n      swap1\n      tag_42\n      swap2\n      swap1\n      tag_43\n      jump\t// in\n    tag_42:\n      tag_44\n      jump\t// in\n    tag_41:\n      stop\n        /* \"gestionderisquefin.sol\":634:669  address[] public listeContreparties */\n    tag_10:\n      tag_45\n      0x04\n      dup1\n      calldatasize\n      sub\n      dup2\n      add\n      swap1\n      tag_46\n      swap2\n      swap1\n      tag_47\n      jump\t// in\n    tag_46:\n      tag_48\n      jump\t// in\n    tag_45:\n      mload(0x40)\n      tag_49\n      swap2\n      swap1\n      tag_50\n      jump\t// in\n    tag_49:\n      mload(0x40)\n      dup1\n      swap2\n      sub\n      swap1\n      return\n        /* \"gestionderisquefin.sol\":5987:6500  function calculerPertesAttendues(address _portefeuille, uint256 PD, uint256 LGD) public view returns (uint256) {... */\n    tag_11:\n      tag_51\n      0x04\n      dup1\n      calldatasize\n      sub\n      dup2\n      add\n      swap1\n      tag_52\n      swap2\n      swap1\n      tag_53\n      jump\t// in\n    tag_52:\n      tag_54\n      jump\t// in\n    tag_51:\n      mload(0x40)\n      tag_55\n      swap2\n      swap1\n      tag_21\n      jump\t// in\n    tag_55:\n      mload(0x40)\n      dup1\n      swap2\n      sub\n      swap1\n      return\n        /* \"gestionderisquefin.sol\":574:627  mapping(address => Contrepartie) public contreparties */\n    tag_12:\n      tag_56\n      0x04\n      dup1\n      calldatasize\n      sub\n      dup2\n      add\n      swap1\n      tag_57\n      swap2\n      swap1\n      tag_18\n      jump\t// in\n    tag_57:\n      tag_58\n      jump\t// in\n    tag_56:\n      mload(0x40)\n      tag_59\n      swap8\n      swap7\n      swap6\n      swap5\n      swap4\n      swap3\n      swap2\n      swap1\n      tag_60\n      jump\t// in\n    tag_59:\n      mload(0x40)\n      dup1\n      swap2\n      sub\n      swap1\n      return\n        /* \"gestionderisquefin.sol\":5336:5745  function calculerScoreRisque(address _portefeuille) public view returns (uint256) {... */\n    tag_13:\n      tag_61\n      0x04\n      dup1\n      calldatasize\n      sub\n      dup2\n      add\n      swap1\n      tag_62\n      swap2\n      swap1\n      tag_18\n      jump\t// in\n    tag_62:\n      tag_63\n      jump\t// in\n    tag_61:\n      mload(0x40)\n      tag_64\n      swap2\n      swap1\n      tag_21\n      jump\t// in\n    tag_64:\n      mload(0x40)\n      dup1\n      swap2\n      sub\n      swap1\n      return\n        /* \"gestionderisquefin.sol\":8710:9297  function retirerCollateral(address _portefeuille, uint256 montant) public {... */\n    tag_14:\n      tag_65\n      0x04\n      dup1\n      calldatasize\n      sub\n      dup2\n      add\n      swap1\n      tag_66\n      swap2\n      swap1\n      tag_43\n      jump\t// in\n    tag_66:\n      tag_67\n      jump\t// in\n    tag_65:\n      stop\n        /* \"gestionderisquefin.sol\":4851:5142  function calculerRatioCouverture(address _portefeuille) public view returns (uint256) {... */\n    tag_19:\n        /* \"gestionderisquefin.sol\":4928:4935  uint256 */\n      0x00\n        /* \"gestionderisquefin.sol\":4948:4969  Contrepartie memory c */\n      dup1\n        /* \"gestionderisquefin.sol\":4972:4985  contreparties */\n      0x00\n        /* \"gestionderisquefin.sol\":4972:5000  contreparties[_portefeuille] */\n      dup1\n        /* \"gestionderisquefin.sol\":4986:4999  _portefeuille */\n      dup5\n        /* \"gestionderisquefin.sol\":4972:5000  contreparties[_portefeuille] */\n      0xffffffffffffffffffffffffffffffffffffffff\n      and\n      0xffffffffffffffffffffffffffffffffffffffff\n      and\n      dup2\n      mstore\n      0x20\n      add\n      swap1\n      dup2\n      mstore\n      0x20\n      add\n      0x00\n      keccak256\n        /* \"gestionderisquefin.sol\":4948:5000  Contrepartie memory c = contreparties[_portefeuille] */\n      mload(0x40)\n      dup1\n      0x0100\n      add\n      0x40\n      mstore\n      swap1\n      dup2\n      0x00\n      dup3\n      add\n      0x00\n      swap1\n      sload\n      swap1\n      0x0100\n      exp\n      swap1\n      div\n      0xffffffffffffffffffffffffffffffffffffffff\n      and\n      0xffffffffffffffffffffffffffffffffffffffff\n      and\n      0xffffffffffffffffffffffffffffffffffffffff\n      and\n      dup2\n      mstore\n      0x20\n      add\n      0x01\n      dup3\n      add\n      sload\n      dup2\n      mstore\n      0x20\n      add\n      0x02\n      dup3\n      add\n      sload\n      dup2\n      mstore\n      0x20\n      add\n      0x03\n      dup3\n      add\n      sload\n      dup2\n      mstore\n      0x20\n      add\n      0x04\n      dup3\n      add\n      sload\n      dup2\n      mstore\n      0x20\n      add\n      0x05\n      dup3\n      add\n      dup1\n      sload\n      dup1\n      0x20\n      mul\n      0x20\n      add\n      mload(0x40)\n      swap1\n      dup2\n      add\n      0x40\n      mstore\n      dup1\n      swap3\n      swap2\n      swap1\n      dup2\n      dup2\n      mstore\n      0x20\n      add\n      0x00\n      swap1\n    tag_69:\n      dup3\n      dup3\n      lt\n      iszero\n      tag_70\n      jumpi\n      dup4\n      dup3\n      swap1\n      0x00\n      mstore\n      keccak256(0x00, 0x20)\n      swap1\n      0x03\n      mul\n      add\n      mload(0x40)\n      dup1\n      0x60\n      add\n      0x40\n      mstore\n      swap1\n      dup2\n      0x00\n      dup3\n      add\n      sload\n      dup2\n      mstore\n      0x20\n      add\n      0x01\n      dup3\n      add\n      dup1\n      sload\n      tag_72\n      swap1\n      tag_73\n      jump\t// in\n    tag_72:\n      dup1\n      0x1f\n      add\n      0x20\n      dup1\n      swap2\n      div\n      mul\n      0x20\n      add\n      mload(0x40)\n      swap1\n      dup2\n      add\n      0x40\n      mstore\n      dup1\n      swap3\n      swap2\n      swap1\n      dup2\n      dup2\n      mstore\n      0x20\n      add\n      dup3\n      dup1\n      sload\n      tag_74\n      swap1\n      tag_73\n      jump\t// in\n    tag_74:\n      dup1\n      iszero\n      tag_75\n      jumpi\n      dup1\n      0x1f\n      lt\n      tag_76\n      jumpi\n      0x0100\n      dup1\n      dup4\n      sload\n      div\n      mul\n      dup4\n      mstore\n      swap2\n      0x20\n      add\n      swap2\n      jump(tag_75)\n    tag_76:\n      dup3\n      add\n      swap2\n      swap1\n      0x00\n      mstore\n      keccak256(0x00, 0x20)\n      swap1\n    tag_77:\n      dup2\n      sload\n      dup2\n      mstore\n      swap1\n      0x01\n      add\n      swap1\n      0x20\n      add\n      dup1\n      dup4\n      gt\n      tag_77\n      jumpi\n      dup3\n      swap1\n      sub\n      0x1f\n      and\n      dup3\n      add\n      swap2\n    tag_75:\n      pop\n      pop\n      pop\n      pop\n      pop\n      dup2\n      mstore\n      0x20\n      add\n      0x02\n      dup3\n      add\n      sload\n      dup2\n      mstore\n      pop\n      pop\n      dup2\n      mstore\n      0x20\n      add\n      swap1\n      0x01\n      add\n      swap1\n      jump(tag_69)\n    tag_70:\n      pop\n      pop\n      pop\n      pop\n      dup2\n      mstore\n      0x20\n      add\n      0x06\n      dup3\n      add\n      0x00\n      swap1\n      sload\n      swap1\n      0x0100\n      exp\n      swap1\n      div\n      0xff\n      and\n      iszero\n      iszero\n      iszero\n      iszero\n      dup2\n      mstore\n      0x20\n      add\n      0x07\n      dup3\n      add\n      sload\n      dup2\n      mstore\n      pop\n      pop\n      swap1\n      pop\n        /* \"gestionderisquefin.sol\":5042:5043  0 */\n      0x00\n        /* \"gestionderisquefin.sol\":5019:5020  c */\n      dup2\n        /* \"gestionderisquefin.sol\":5019:5039  c.expositionCourante */\n      0x60\n      add\n      mload\n        /* \"gestionderisquefin.sol\":5019:5043  c.expositionCourante > 0 */\n      gt\n        /* \"gestionderisquefin.sol\":5011:5073  require(c.expositionCourante > 0, \"Exposition courante nulle\") */\n      tag_78\n      jumpi\n      mload(0x40)\n      0x08c379a000000000000000000000000000000000000000000000000000000000\n      dup2\n      mstore\n      0x04\n      add\n      tag_79\n      swap1\n      tag_80\n      jump\t// in\n    tag_79:\n      mload(0x40)\n      dup1\n      swap2\n      sub\n      swap1\n      revert\n    tag_78:\n        /* \"gestionderisquefin.sol\":5114:5115  c */\n      dup1\n        /* \"gestionderisquefin.sol\":5114:5134  c.expositionCourante */\n      0x60\n      add\n      mload\n        /* \"gestionderisquefin.sol\":5107:5110  100 */\n      0x64\n        /* \"gestionderisquefin.sol\":5092:5093  c */\n      dup3\n        /* \"gestionderisquefin.sol\":5092:5104  c.collateral */\n      0x80\n      add\n      mload\n        /* \"gestionderisquefin.sol\":5092:5110  c.collateral * 100 */\n      tag_81\n      swap2\n      swap1\n      tag_82\n      jump\t// in\n    tag_81:\n        /* \"gestionderisquefin.sol\":5091:5134  (c.collateral * 100) / c.expositionCourante */\n      tag_83\n      swap2\n      swap1\n      tag_84\n      jump\t// in\n    tag_83:\n        /* \"gestionderisquefin.sol\":5084:5134  return (c.collateral * 100) / c.expositionCourante */\n      swap2\n      pop\n      pop\n        /* \"gestionderisquefin.sol\":4851:5142  function calculerRatioCouverture(address _portefeuille) public view returns (uint256) {... */\n      swap2\n      swap1\n      pop\n      jump\t// out\n        /* \"gestionderisquefin.sol\":676:729  mapping(address => uint256) public nombreDepassements */\n    tag_24:\n      mstore(0x20, 0x02)\n      dup1\n      0x00\n      mstore\n      keccak256(0x00, 0x40)\n      0x00\n      swap2\n      pop\n      swap1\n      pop\n      sload\n      dup2\n      jump\t// out\n        /* \"gestionderisquefin.sol\":1795:2866  function ajouterContrepartie(address _portefeuille, uint256 _scoreCredit, uint256 _limiteExposition, uint256 _collateral) public {... */\n    tag_29:\n        /* \"gestionderisquefin.sol\":1968:1969  0 */\n      0x00\n        /* \"gestionderisquefin.sol\":1943:1970  _portefeuille != address(0) */\n      0xffffffffffffffffffffffffffffffffffffffff\n      and\n        /* \"gestionderisquefin.sol\":1943:1956  _portefeuille */\n      dup5\n        /* \"gestionderisquefin.sol\":1943:1970  _portefeuille != address(0) */\n      0xffffffffffffffffffffffffffffffffffffffff\n      and\n      sub\n        /* \"gestionderisquefin.sol\":1935:1991  require(_portefeuille != address(0), \"Adresse invalide\") */\n      tag_86\n      jumpi\n      mload(0x40)\n      0x08c379a000000000000000000000000000000000000000000000000000000000\n      dup2\n      mstore\n      0x04\n      add\n      tag_87\n      swap1\n      tag_88\n      jump\t// in\n    tag_87:\n      mload(0x40)\n      dup1\n      swap2\n      sub\n      swap1\n      revert\n    tag_86:\n        /* \"gestionderisquefin.sol\":2011:2024  contreparties */\n      0x00\n        /* \"gestionderisquefin.sol\":2011:2039  contreparties[_portefeuille] */\n      dup1\n        /* \"gestionderisquefin.sol\":2025:2038  _portefeuille */\n      dup6\n        /* \"gestionderisquefin.sol\":2011:2039  contreparties[_portefeuille] */\n      0xffffffffffffffffffffffffffffffffffffffff\n      and\n      0xffffffffffffffffffffffffffffffffffffffff\n      and\n      dup2\n      mstore\n      0x20\n      add\n      swap1\n      dup2\n      mstore\n      0x20\n      add\n      0x00\n      keccak256\n        /* \"gestionderisquefin.sol\":2011:2048  contreparties[_portefeuille].estActif */\n      0x06\n      add\n      0x00\n      swap1\n      sload\n      swap1\n      0x0100\n      exp\n      swap1\n      div\n      0xff\n      and\n        /* \"gestionderisquefin.sol\":2010:2048  !contreparties[_portefeuille].estActif */\n      iszero\n        /* \"gestionderisquefin.sol\":2002:2077  require(!contreparties[_portefeuille].estActif, \"Contrepartie existe deja\") */\n      tag_89\n      jumpi\n      mload(0x40)\n      0x08c379a000000000000000000000000000000000000000000000000000000000\n      dup2\n      mstore\n      0x04\n      add\n      tag_90\n      swap1\n      tag_91\n      jump\t// in\n    tag_90:\n      mload(0x40)\n      dup1\n      swap2\n      sub\n      swap1\n      revert\n    tag_89:\n        /* \"gestionderisquefin.sol\":2116:2117  0 */\n      0x00\n        /* \"gestionderisquefin.sol\":2096:2113  _limiteExposition */\n      dup3\n        /* \"gestionderisquefin.sol\":2096:2117  _limiteExposition > 0 */\n      gt\n        /* \"gestionderisquefin.sol\":2088:2163  require(_limiteExposition > 0, \"La limite d'exposition doit etre positive\") */\n      tag_92\n      jumpi\n      mload(0x40)\n      0x08c379a000000000000000000000000000000000000000000000000000000000\n      dup2\n      mstore\n      0x04\n      add\n      tag_93\n      swap1\n      tag_94\n      jump\t// in\n    tag_93:\n      mload(0x40)\n      dup1\n      swap2\n      sub\n      swap1\n      revert\n    tag_92:\n        /* \"gestionderisquefin.sol\":2197:2198  0 */\n      0x00\n        /* \"gestionderisquefin.sol\":2182:2194  _scoreCredit */\n      dup4\n        /* \"gestionderisquefin.sol\":2182:2198  _scoreCredit > 0 */\n      gt\n        /* \"gestionderisquefin.sol\":2182:2221  _scoreCredit > 0 && _scoreCredit <= 100 */\n      dup1\n      iszero\n      tag_95\n      jumpi\n      pop\n        /* \"gestionderisquefin.sol\":2218:2221  100 */\n      0x64\n        /* \"gestionderisquefin.sol\":2202:2214  _scoreCredit */\n      dup4\n        /* \"gestionderisquefin.sol\":2202:2221  _scoreCredit <= 100 */\n      gt\n      iszero\n        /* \"gestionderisquefin.sol\":2182:2221  _scoreCredit > 0 && _scoreCredit <= 100 */\n    tag_95:\n        /* \"gestionderisquefin.sol\":2174:2250  require(_scoreCredit > 0 && _scoreCredit <= 100, \"Score de credit invalide\") */\n      tag_96\n      jumpi\n      mload(0x40)\n      0x08c379a000000000000000000000000000000000000000000000000000000000\n      dup2\n      mstore\n      0x04\n      add\n      tag_97\n      swap1\n      tag_98\n      jump\t// in\n    tag_97:\n      mload(0x40)\n      dup1\n      swap2\n      sub\n      swap1\n      revert\n    tag_96:\n        /* \"gestionderisquefin.sol\":2263:2304  Contrepartie storage nouvelleContrepartie */\n      0x00\n        /* \"gestionderisquefin.sol\":2307:2320  contreparties */\n      dup1\n        /* \"gestionderisquefin.sol\":2307:2335  contreparties[_portefeuille] */\n      0x00\n        /* \"gestionderisquefin.sol\":2321:2334  _portefeuille */\n      dup7\n        /* \"gestionderisquefin.sol\":2307:2335  contreparties[_portefeuille] */\n      0xffffffffffffffffffffffffffffffffffffffff\n      and\n      0xffffffffffffffffffffffffffffffffffffffff\n      and\n      dup2\n      mstore\n      0x20\n      add\n      swap1\n      dup2\n      mstore\n      0x20\n      add\n      0x00\n      keccak256\n        /* \"gestionderisquefin.sol\":2263:2335  Contrepartie storage nouvelleContrepartie = contreparties[_portefeuille] */\n      swap1\n      pop\n        /* \"gestionderisquefin.sol\":2382:2395  _portefeuille */\n      dup5\n        /* \"gestionderisquefin.sol\":2346:2366  nouvelleContrepartie */\n      dup2\n        /* \"gestionderisquefin.sol\":2346:2379  nouvelleContrepartie.portefeuille */\n      0x00\n      add\n      0x00\n        /* \"gestionderisquefin.sol\":2346:2395  nouvelleContrepartie.portefeuille = _portefeuille */\n      0x0100\n      exp\n      dup2\n      sload\n      dup2\n      0xffffffffffffffffffffffffffffffffffffffff\n      mul\n      not\n      and\n      swap1\n      dup4\n      0xffffffffffffffffffffffffffffffffffffffff\n      and\n      mul\n      or\n      swap1\n      sstore\n      pop\n        /* \"gestionderisquefin.sol\":2441:2453  _scoreCredit */\n      dup4\n        /* \"gestionderisquefin.sol\":2406:2426  nouvelleContrepartie */\n      dup2\n        /* \"gestionderisquefin.sol\":2406:2438  nouvelleContrepartie.scoreCredit */\n      0x01\n      add\n        /* \"gestionderisquefin.sol\":2406:2453  nouvelleContrepartie.scoreCredit = _scoreCredit */\n      dup2\n      swap1\n      sstore\n      pop\n        /* \"gestionderisquefin.sol\":2504:2521  _limiteExposition */\n      dup3\n        /* \"gestionderisquefin.sol\":2464:2484  nouvelleContrepartie */\n      dup2\n        /* \"gestionderisquefin.sol\":2464:2501  nouvelleContrepartie.limiteExposition */\n      0x02\n      add\n        /* \"gestionderisquefin.sol\":2464:2521  nouvelleContrepartie.limiteExposition = _limiteExposition */\n      dup2\n      swap1\n      sstore\n      pop\n        /* \"gestionderisquefin.sol\":2574:2575  0 */\n      0x00\n        /* \"gestionderisquefin.sol\":2532:2552  nouvelleContrepartie */\n      dup2\n        /* \"gestionderisquefin.sol\":2532:2571  nouvelleContrepartie.expositionCourante */\n      0x03\n      add\n        /* \"gestionderisquefin.sol\":2532:2575  nouvelleContrepartie.expositionCourante = 0 */\n      dup2\n      swap1\n      sstore\n      pop\n        /* \"gestionderisquefin.sol\":2620:2631  _collateral */\n      dup2\n        /* \"gestionderisquefin.sol\":2586:2606  nouvelleContrepartie */\n      dup2\n        /* \"gestionderisquefin.sol\":2586:2617  nouvelleContrepartie.collateral */\n      0x04\n      add\n        /* \"gestionderisquefin.sol\":2586:2631  nouvelleContrepartie.collateral = _collateral */\n      dup2\n      swap1\n      sstore\n      pop\n        /* \"gestionderisquefin.sol\":2674:2678  true */\n      0x01\n        /* \"gestionderisquefin.sol\":2642:2662  nouvelleContrepartie */\n      dup2\n        /* \"gestionderisquefin.sol\":2642:2671  nouvelleContrepartie.estActif */\n      0x06\n      add\n      0x00\n        /* \"gestionderisquefin.sol\":2642:2678  nouvelleContrepartie.estActif = true */\n      0x0100\n      exp\n      dup2\n      sload\n      dup2\n      0xff\n      mul\n      not\n      and\n      swap1\n      dup4\n      iszero\n      iszero\n      mul\n      or\n      swap1\n      sstore\n      pop\n        /* \"gestionderisquefin.sol\":2722:2723  0 */\n      0x00\n        /* \"gestionderisquefin.sol\":2689:2709  nouvelleContrepartie */\n      dup2\n        /* \"gestionderisquefin.sol\":2689:2719  nouvelleContrepartie.penalites */\n      0x07\n      add\n        /* \"gestionderisquefin.sol\":2689:2723  nouvelleContrepartie.penalites = 0 */\n      dup2\n      swap1\n      sstore\n      pop\n        /* \"gestionderisquefin.sol\":2736:2754  listeContreparties */\n      0x01\n        /* \"gestionderisquefin.sol\":2760:2773  _portefeuille */\n      dup6\n        /* \"gestionderisquefin.sol\":2736:2774  listeContreparties.push(_portefeuille) */\n      swap1\n      dup1\n      0x01\n      dup2\n      sload\n      add\n      dup1\n      dup3\n      sstore\n      dup1\n      swap2\n      pop\n      pop\n      0x01\n      swap1\n      sub\n      swap1\n      0x00\n      mstore\n      keccak256(0x00, 0x20)\n      add\n      0x00\n      swap1\n      swap2\n      swap1\n      swap2\n      swap1\n      swap2\n      0x0100\n      exp\n      dup2\n      sload\n      dup2\n      0xffffffffffffffffffffffffffffffffffffffff\n      mul\n      not\n      and\n      swap1\n      dup4\n      0xffffffffffffffffffffffffffffffffffffffff\n      and\n      mul\n      or\n      swap1\n      sstore\n      pop\n        /* \"gestionderisquefin.sol\":2812:2825  _portefeuille */\n      dup5\n        /* \"gestionderisquefin.sol\":2792:2858  ContrepartieAjoutee(_portefeuille, _limiteExposition, _collateral) */\n      0xffffffffffffffffffffffffffffffffffffffff\n      and\n      0xd3f5388c2257f37d0083b7a1edcc31b560eda57385dcd90c8429a7fb80383910\n        /* \"gestionderisquefin.sol\":2827:2844  _limiteExposition */\n      dup5\n        /* \"gestionderisquefin.sol\":2846:2857  _collateral */\n      dup5\n        /* \"gestionderisquefin.sol\":2792:2858  ContrepartieAjoutee(_portefeuille, _limiteExposition, _collateral) */\n      mload(0x40)\n      tag_100\n      swap3\n      swap2\n      swap1\n      tag_101\n      jump\t// in\n    tag_100:\n      mload(0x40)\n      dup1\n      swap2\n      sub\n      swap1\n      log2\n        /* \"gestionderisquefin.sol\":1924:2866  {... */\n      pop\n        /* \"gestionderisquefin.sol\":1795:2866  function ajouterContrepartie(address _portefeuille, uint256 _scoreCredit, uint256 _limiteExposition, uint256 _collateral) public {... */\n      pop\n      pop\n      pop\n      pop\n      jump\t// out\n        /* \"gestionderisquefin.sol\":9754:10350  function voirToutesLesContreparties() public view returns (address[] memory, uint256[] memory, uint256[] memory) {... */\n    tag_31:\n        /* \"gestionderisquefin.sol\":9813:9829  address[] memory */\n      0x60\n        /* \"gestionderisquefin.sol\":9831:9847  uint256[] memory */\n      dup1\n        /* \"gestionderisquefin.sol\":9849:9865  uint256[] memory */\n      0x60\n        /* \"gestionderisquefin.sol\":9878:9902  uint256[] memory limites */\n      0x00\n        /* \"gestionderisquefin.sol\":9919:9937  listeContreparties */\n      0x01\n        /* \"gestionderisquefin.sol\":9919:9944  listeContreparties.length */\n      dup1\n      sload\n      swap1\n      pop\n        /* \"gestionderisquefin.sol\":9905:9945  new uint256[](listeContreparties.length) */\n      0xffffffffffffffff\n      dup2\n      gt\n      iszero\n      tag_103\n      jumpi\n      tag_104\n      tag_105\n      jump\t// in\n    tag_104:\n    tag_103:\n      mload(0x40)\n      swap1\n      dup1\n      dup3\n      mstore\n      dup1\n      0x20\n      mul\n      0x20\n      add\n      dup3\n      add\n      0x40\n      mstore\n      dup1\n      iszero\n      tag_106\n      jumpi\n      dup2\n      0x20\n      add\n      0x20\n      dup3\n      mul\n      dup1\n      calldatasize\n      dup4\n      calldatacopy\n      dup1\n      dup3\n      add\n      swap2\n      pop\n      pop\n      swap1\n      pop\n    tag_106:\n      pop\n        /* \"gestionderisquefin.sol\":9878:9945  uint256[] memory limites = new uint256[](listeContreparties.length) */\n      swap1\n      pop\n        /* \"gestionderisquefin.sol\":9956:9984  uint256[] memory expositions */\n      0x00\n        /* \"gestionderisquefin.sol\":10001:10019  listeContreparties */\n      0x01\n        /* \"gestionderisquefin.sol\":10001:10026  listeContreparties.length */\n      dup1\n      sload\n      swap1\n      pop\n        /* \"gestionderisquefin.sol\":9987:10027  new uint256[](listeContreparties.length) */\n      0xffffffffffffffff\n      dup2\n      gt\n      iszero\n      tag_107\n      jumpi\n      tag_108\n      tag_105\n      jump\t// in\n    tag_108:\n    tag_107:\n      mload(0x40)\n      swap1\n      dup1\n      dup3\n      mstore\n      dup1\n      0x20\n      mul\n      0x20\n      add\n      dup3\n      add\n      0x40\n      mstore\n      dup1\n      iszero\n      tag_109\n      jumpi\n      dup2\n      0x20\n      add\n      0x20\n      dup3\n      mul\n      dup1\n      calldatasize\n      dup4\n      calldatacopy\n      dup1\n      dup3\n      add\n      swap2\n      pop\n      pop\n      swap1\n      pop\n    tag_109:\n      pop\n        /* \"gestionderisquefin.sol\":9956:10027  uint256[] memory expositions = new uint256[](listeContreparties.length) */\n      swap1\n      pop\n        /* \"gestionderisquefin.sol\":10045:10054  uint256 i */\n      0x00\n        /* \"gestionderisquefin.sol\":10040:10281  for (uint256 i = 0; i < listeContreparties.length; i++) {... */\n    tag_110:\n        /* \"gestionderisquefin.sol\":10064:10082  listeContreparties */\n      0x01\n        /* \"gestionderisquefin.sol\":10064:10089  listeContreparties.length */\n      dup1\n      sload\n      swap1\n      pop\n        /* \"gestionderisquefin.sol\":10060:10061  i */\n      dup2\n        /* \"gestionderisquefin.sol\":10060:10089  i < listeContreparties.length */\n      lt\n        /* \"gestionderisquefin.sol\":10040:10281  for (uint256 i = 0; i < listeContreparties.length; i++) {... */\n      iszero\n      tag_111\n      jumpi\n        /* \"gestionderisquefin.sol\":10111:10132  Contrepartie memory c */\n      0x00\n        /* \"gestionderisquefin.sol\":10135:10148  contreparties */\n      dup1\n        /* \"gestionderisquefin.sol\":10135:10171  contreparties[listeContreparties[i]] */\n      0x00\n        /* \"gestionderisquefin.sol\":10149:10167  listeContreparties */\n      0x01\n        /* \"gestionderisquefin.sol\":10168:10169  i */\n      dup5\n        /* \"gestionderisquefin.sol\":10149:10170  listeContreparties[i] */\n      dup2\n      sload\n      dup2\n      lt\n      tag_113\n      jumpi\n      tag_114\n      tag_115\n      jump\t// in\n    tag_114:\n    tag_113:\n      swap1\n      0x00\n      mstore\n      keccak256(0x00, 0x20)\n      add\n      0x00\n      swap1\n      sload\n      swap1\n      0x0100\n      exp\n      swap1\n      div\n      0xffffffffffffffffffffffffffffffffffffffff\n      and\n        /* \"gestionderisquefin.sol\":10135:10171  contreparties[listeContreparties[i]] */\n      0xffffffffffffffffffffffffffffffffffffffff\n      and\n      0xffffffffffffffffffffffffffffffffffffffff\n      and\n      dup2\n      mstore\n      0x20\n      add\n      swap1\n      dup2\n      mstore\n      0x20\n      add\n      0x00\n      keccak256\n        /* \"gestionderisquefin.sol\":10111:10171  Contrepartie memory c = contreparties[listeContreparties[i]] */\n      mload(0x40)\n      dup1\n      0x0100\n      add\n      0x40\n      mstore\n      swap1\n      dup2\n      0x00\n      dup3\n      add\n      0x00\n      swap1\n      sload\n      swap1\n      0x0100\n      exp\n      swap1\n      div\n      0xffffffffffffffffffffffffffffffffffffffff\n      and\n      0xffffffffffffffffffffffffffffffffffffffff\n      and\n      0xffffffffffffffffffffffffffffffffffffffff\n      and\n      dup2\n      mstore\n      0x20\n      add\n      0x01\n      dup3\n      add\n      sload\n      dup2\n      mstore\n      0x20\n      add\n      0x02\n      dup3\n      add\n      sload\n      dup2\n      mstore\n      0x20\n      add\n      0x03\n      dup3\n      add\n      sload\n      dup2\n      mstore\n      0x20\n      add\n      0x04\n      dup3\n      add\n      sload\n      dup2\n      mstore\n      0x20\n      add\n      0x05\n      dup3\n      add\n      dup1\n      sload\n      dup1\n      0x20\n      mul\n      0x20\n      add\n      mload(0x40)\n      swap1\n      dup2\n      add\n      0x40\n      mstore\n      dup1\n      swap3\n      swap2\n      swap1\n      dup2\n      dup2\n      mstore\n      0x20\n      add\n      0x00\n      swap1\n    tag_117:\n      dup3\n      dup3\n      lt\n      iszero\n      tag_118\n      jumpi\n      dup4\n      dup3\n      swap1\n      0x00\n      mstore\n      keccak256(0x00, 0x20)\n      swap1\n      0x03\n      mul\n      add\n      mload(0x40)\n      dup1\n      0x60\n      add\n      0x40\n      mstore\n      swap1\n      dup2\n      0x00\n      dup3\n      add\n      sload\n      dup2\n      mstore\n      0x20\n      add\n      0x01\n      dup3\n      add\n      dup1\n      sload\n      tag_120\n      swap1\n      tag_73\n      jump\t// in\n    tag_120:\n      dup1\n      0x1f\n      add\n      0x20\n      dup1\n      swap2\n      div\n      mul\n      0x20\n      add\n      mload(0x40)\n      swap1\n      dup2\n      add\n      0x40\n      mstore\n      dup1\n      swap3\n      swap2\n      swap1\n      dup2\n      dup2\n      mstore\n      0x20\n      add\n      dup3\n      dup1\n      sload\n      tag_121\n      swap1\n      tag_73\n      jump\t// in\n    tag_121:\n      dup1\n      iszero\n      tag_122\n      jumpi\n      dup1\n      0x1f\n      lt\n      tag_123\n      jumpi\n      0x0100\n      dup1\n      dup4\n      sload\n      div\n      mul\n      dup4\n      mstore\n      swap2\n      0x20\n      add\n      swap2\n      jump(tag_122)\n    tag_123:\n      dup3\n      add\n      swap2\n      swap1\n      0x00\n      mstore\n      keccak256(0x00, 0x20)\n      swap1\n    tag_124:\n      dup2\n      sload\n      dup2\n      mstore\n      swap1\n      0x01\n      add\n      swap1\n      0x20\n      add\n      dup1\n      dup4\n      gt\n      tag_124\n      jumpi\n      dup3\n      swap1\n      sub\n      0x1f\n      and\n      dup3\n      add\n      swap2\n    tag_122:\n      pop\n      pop\n      pop\n      pop\n      pop\n      dup2\n      mstore\n      0x20\n      add\n      0x02\n      dup3\n      add\n      sload\n      dup2\n      mstore\n      pop\n      pop\n      dup2\n      mstore\n      0x20\n      add\n      swap1\n      0x01\n      add\n      swap1\n      jump(tag_117)\n    tag_118:\n      pop\n      pop\n      pop\n      pop\n      dup2\n      mstore\n      0x20\n      add\n      0x06\n      dup3\n      add\n      0x00\n      swap1\n      sload\n      swap1\n      0x0100\n      exp\n      swap1\n      div\n      0xff\n      and\n      iszero\n      iszero\n      iszero\n      iszero\n      dup2\n      mstore\n      0x20\n      add\n      0x07\n      dup3\n      add\n      sload\n      dup2\n      mstore\n      pop\n      pop\n      swap1\n      pop\n        /* \"gestionderisquefin.sol\":10199:10200  c */\n      dup1\n        /* \"gestionderisquefin.sol\":10199:10217  c.limiteExposition */\n      0x40\n      add\n      mload\n        /* \"gestionderisquefin.sol\":10186:10193  limites */\n      dup5\n        /* \"gestionderisquefin.sol\":10194:10195  i */\n      dup4\n        /* \"gestionderisquefin.sol\":10186:10196  limites[i] */\n      dup2\n      mload\n      dup2\n      lt\n      tag_125\n      jumpi\n      tag_126\n      tag_115\n      jump\t// in\n    tag_126:\n    tag_125:\n      0x20\n      mul\n      0x20\n      add\n      add\n        /* \"gestionderisquefin.sol\":10186:10217  limites[i] = c.limiteExposition */\n      dup2\n      dup2\n      mstore\n      pop\n      pop\n        /* \"gestionderisquefin.sol\":10249:10250  c */\n      dup1\n        /* \"gestionderisquefin.sol\":10249:10269  c.expositionCourante */\n      0x60\n      add\n      mload\n        /* \"gestionderisquefin.sol\":10232:10243  expositions */\n      dup4\n        /* \"gestionderisquefin.sol\":10244:10245  i */\n      dup4\n        /* \"gestionderisquefin.sol\":10232:10246  expositions[i] */\n      dup2\n      mload\n      dup2\n      lt\n      tag_127\n      jumpi\n      tag_128\n      tag_115\n      jump\t// in\n    tag_128:\n    tag_127:\n      0x20\n      mul\n      0x20\n      add\n      add\n        /* \"gestionderisquefin.sol\":10232:10269  expositions[i] = c.expositionCourante */\n      dup2\n      dup2\n      mstore\n      pop\n      pop\n        /* \"gestionderisquefin.sol\":10096:10281  {... */\n      pop\n        /* \"gestionderisquefin.sol\":10091:10094  i++ */\n      dup1\n      dup1\n      0x01\n      add\n      swap2\n      pop\n      pop\n        /* \"gestionderisquefin.sol\":10040:10281  for (uint256 i = 0; i < listeContreparties.length; i++) {... */\n      jump(tag_110)\n    tag_111:\n      pop\n        /* \"gestionderisquefin.sol\":10301:10319  listeContreparties */\n      0x01\n        /* \"gestionderisquefin.sol\":10321:10328  limites */\n      dup3\n        /* \"gestionderisquefin.sol\":10330:10341  expositions */\n      dup3\n        /* \"gestionderisquefin.sol\":10293:10342  return (listeContreparties, limites, expositions) */\n      dup3\n      dup1\n      sload\n      dup1\n      0x20\n      mul\n      0x20\n      add\n      mload(0x40)\n      swap1\n      dup2\n      add\n      0x40\n      mstore\n      dup1\n      swap3\n      swap2\n      swap1\n      dup2\n      dup2\n      mstore\n      0x20\n      add\n      dup3\n      dup1\n      sload\n      dup1\n      iszero\n      tag_129\n      jumpi\n      0x20\n      mul\n      dup3\n      add\n      swap2\n      swap1\n      0x00\n      mstore\n      keccak256(0x00, 0x20)\n      swap1\n    tag_130:\n      dup2\n      0x00\n      swap1\n      sload\n      swap1\n      0x0100\n      exp\n      swap1\n      div\n      0xffffffffffffffffffffffffffffffffffffffff\n      and\n      0xffffffffffffffffffffffffffffffffffffffff\n      and\n      dup2\n      mstore\n      0x20\n      add\n      swap1\n      0x01\n      add\n      swap1\n      dup1\n      dup4\n      gt\n      tag_130\n      jumpi\n    tag_129:\n      pop\n      pop\n      pop\n      pop\n      pop\n      swap3\n      pop\n      swap5\n      pop\n      swap5\n      pop\n      swap5\n      pop\n      pop\n      pop\n        /* \"gestionderisquefin.sol\":9754:10350  function voirToutesLesContreparties() public view returns (address[] memory, uint256[] memory, uint256[] memory) {... */\n      swap1\n      swap2\n      swap3\n      jump\t// out\n        /* \"gestionderisquefin.sol\":3167:4735  function ajouterPosition(address _portefeuille, uint256 _montant, string memory _typePosition) public {... */\n    tag_37:\n        /* \"gestionderisquefin.sol\":3288:3301  contreparties */\n      0x00\n        /* \"gestionderisquefin.sol\":3288:3316  contreparties[_portefeuille] */\n      dup1\n        /* \"gestionderisquefin.sol\":3302:3315  _portefeuille */\n      dup5\n        /* \"gestionderisquefin.sol\":3288:3316  contreparties[_portefeuille] */\n      0xffffffffffffffffffffffffffffffffffffffff\n      and\n      0xffffffffffffffffffffffffffffffffffffffff\n      and\n      dup2\n      mstore\n      0x20\n      add\n      swap1\n      dup2\n      mstore\n      0x20\n      add\n      0x00\n      keccak256\n        /* \"gestionderisquefin.sol\":3288:3325  contreparties[_portefeuille].estActif */\n      0x06\n      add\n      0x00\n      swap1\n      sload\n      swap1\n      0x0100\n      exp\n      swap1\n      div\n      0xff\n      and\n        /* \"gestionderisquefin.sol\":3280:3351  require(contreparties[_portefeuille].estActif, \"Contrepartie inactive\") */\n      tag_132\n      jumpi\n      mload(0x40)\n      0x08c379a000000000000000000000000000000000000000000000000000000000\n      dup2\n      mstore\n      0x04\n      add\n      tag_133\n      swap1\n      tag_134\n      jump\t// in\n    tag_133:\n      mload(0x40)\n      dup1\n      swap2\n      sub\n      swap1\n      revert\n    tag_132:\n        /* \"gestionderisquefin.sol\":3400:3401  0 */\n      0x00\n        /* \"gestionderisquefin.sol\":3376:3389  _typePosition */\n      dup2\n        /* \"gestionderisquefin.sol\":3370:3397  bytes(_typePosition).length */\n      mload\n        /* \"gestionderisquefin.sol\":3370:3401  bytes(_typePosition).length > 0 */\n      gt\n        /* \"gestionderisquefin.sol\":3362:3431  require(bytes(_typePosition).length > 0, \"Type de position invalide\") */\n      tag_135\n      jumpi\n      mload(0x40)\n      0x08c379a000000000000000000000000000000000000000000000000000000000\n      dup2\n      mstore\n      0x04\n      add\n      tag_136\n      swap1\n      tag_137\n      jump\t// in\n    tag_136:\n      mload(0x40)\n      dup1\n      swap2\n      sub\n      swap1\n      revert\n    tag_135:\n        /* \"gestionderisquefin.sol\":3461:3462  0 */\n      0x00\n        /* \"gestionderisquefin.sol\":3450:3458  _montant */\n      dup3\n        /* \"gestionderisquefin.sol\":3450:3462  _montant > 0 */\n      gt\n        /* \"gestionderisquefin.sol\":3442:3501  require(_montant > 0, \"Le montant doit etre superieur a 0\") */\n      tag_138\n      jumpi\n      mload(0x40)\n      0x08c379a000000000000000000000000000000000000000000000000000000000\n      dup2\n      mstore\n      0x04\n      add\n      tag_139\n      swap1\n      tag_140\n      jump\t// in\n    tag_139:\n      mload(0x40)\n      dup1\n      swap2\n      sub\n      swap1\n      revert\n    tag_138:\n        /* \"gestionderisquefin.sol\":3514:3536  Contrepartie storage c */\n      0x00\n        /* \"gestionderisquefin.sol\":3539:3552  contreparties */\n      dup1\n        /* \"gestionderisquefin.sol\":3539:3567  contreparties[_portefeuille] */\n      0x00\n        /* \"gestionderisquefin.sol\":3553:3566  _portefeuille */\n      dup6\n        /* \"gestionderisquefin.sol\":3539:3567  contreparties[_portefeuille] */\n      0xffffffffffffffffffffffffffffffffffffffff\n      and\n      0xffffffffffffffffffffffffffffffffffffffff\n      and\n      dup2\n      mstore\n      0x20\n      add\n      swap1\n      dup2\n      mstore\n      0x20\n      add\n      0x00\n      keccak256\n        /* \"gestionderisquefin.sol\":3514:3567  Contrepartie storage c = contreparties[_portefeuille] */\n      swap1\n      pop\n        /* \"gestionderisquefin.sol\":3621:3622  c */\n      dup1\n        /* \"gestionderisquefin.sol\":3621:3642  c.historiquePositions */\n      0x05\n      add\n        /* \"gestionderisquefin.sol\":3648:3784  Position({... */\n      mload(0x40)\n      dup1\n      0x60\n      add\n      0x40\n      mstore\n      dup1\n        /* \"gestionderisquefin.sol\":3681:3689  _montant */\n      dup6\n        /* \"gestionderisquefin.sol\":3648:3784  Position({... */\n      dup2\n      mstore\n      0x20\n      add\n        /* \"gestionderisquefin.sol\":3718:3731  _typePosition */\n      dup5\n        /* \"gestionderisquefin.sol\":3648:3784  Position({... */\n      dup2\n      mstore\n      0x20\n      add\n        /* \"gestionderisquefin.sol\":3757:3772  block.timestamp */\n      timestamp\n        /* \"gestionderisquefin.sol\":3648:3784  Position({... */\n      dup2\n      mstore\n      pop\n        /* \"gestionderisquefin.sol\":3621:3785  c.historiquePositions.push(Position({... */\n      swap1\n      dup1\n      0x01\n      dup2\n      sload\n      add\n      dup1\n      dup3\n      sstore\n      dup1\n      swap2\n      pop\n      pop\n      0x01\n      swap1\n      sub\n      swap1\n      0x00\n      mstore\n      keccak256(0x00, 0x20)\n      swap1\n      0x03\n      mul\n      add\n      0x00\n      swap1\n      swap2\n      swap1\n      swap2\n      swap1\n      swap2\n      pop\n      0x00\n      dup3\n      add\n      mload\n      dup2\n      0x00\n      add\n      sstore\n      0x20\n      dup3\n      add\n      mload\n      dup2\n      0x01\n      add\n      swap1\n      dup2\n      tag_142\n      swap2\n      swap1\n      tag_143\n      jump\t// in\n    tag_142:\n      pop\n      0x40\n      dup3\n      add\n      mload\n      dup2\n      0x02\n      add\n      sstore\n      pop\n      pop\n        /* \"gestionderisquefin.sol\":3967:3982  bytes32 posType */\n      0x00\n        /* \"gestionderisquefin.sol\":4001:4014  _typePosition */\n      dup3\n        /* \"gestionderisquefin.sol\":3985:4016  keccak256(bytes(_typePosition)) */\n      dup1\n      mload\n      swap1\n      0x20\n      add\n      keccak256\n        /* \"gestionderisquefin.sol\":3967:4016  bytes32 posType = keccak256(bytes(_typePosition)) */\n      swap1\n      pop\n        /* \"gestionderisquefin.sol\":4042:4059  keccak256(\"LONG\") */\n      0x26207b3d79cb8a2f4d7984d34034720f053ed770a9f512147f4ea54e18ede2c3\n        /* \"gestionderisquefin.sol\":4031:4038  posType */\n      dup2\n        /* \"gestionderisquefin.sol\":4031:4059  posType == keccak256(\"LONG\") */\n      sub\n        /* \"gestionderisquefin.sol\":4027:4531  if (posType == keccak256(\"LONG\")) {... */\n      tag_144\n      jumpi\n        /* \"gestionderisquefin.sol\":4100:4108  _montant */\n      dup4\n        /* \"gestionderisquefin.sol\":4076:4077  c */\n      dup3\n        /* \"gestionderisquefin.sol\":4076:4096  c.expositionCourante */\n      0x03\n      add\n      0x00\n        /* \"gestionderisquefin.sol\":4076:4108  c.expositionCourante += _montant */\n      dup3\n      dup3\n      sload\n      tag_145\n      swap2\n      swap1\n      tag_146\n      jump\t// in\n    tag_145:\n      swap3\n      pop\n      pop\n      dup2\n      swap1\n      sstore\n      pop\n        /* \"gestionderisquefin.sol\":4027:4531  if (posType == keccak256(\"LONG\")) {... */\n      jump(tag_147)\n    tag_144:\n        /* \"gestionderisquefin.sol\":4141:4159  keccak256(\"SHORT\") */\n      0x67f2240dbdc5a5a1bba6ef58dd6499d8bcf8da14a71dffeedddc7956475ebac4\n        /* \"gestionderisquefin.sol\":4130:4137  posType */\n      dup2\n        /* \"gestionderisquefin.sol\":4130:4159  posType == keccak256(\"SHORT\") */\n      sub\n        /* \"gestionderisquefin.sol\":4126:4531  if (posType == keccak256(\"SHORT\")) {... */\n      tag_148\n      jumpi\n        /* \"gestionderisquefin.sol\":4287:4295  _montant */\n      dup4\n        /* \"gestionderisquefin.sol\":4264:4265  c */\n      dup3\n        /* \"gestionderisquefin.sol\":4264:4284  c.expositionCourante */\n      0x03\n      add\n      sload\n        /* \"gestionderisquefin.sol\":4264:4295  c.expositionCourante > _montant */\n      gt\n        /* \"gestionderisquefin.sol\":4260:4429  if (c.expositionCourante > _montant) {... */\n      iszero\n      tag_149\n      jumpi\n        /* \"gestionderisquefin.sol\":4340:4348  _montant */\n      dup4\n        /* \"gestionderisquefin.sol\":4316:4317  c */\n      dup3\n        /* \"gestionderisquefin.sol\":4316:4336  c.expositionCourante */\n      0x03\n      add\n      0x00\n        /* \"gestionderisquefin.sol\":4316:4348  c.expositionCourante -= _montant */\n      dup3\n      dup3\n      sload\n      tag_150\n      swap2\n      swap1\n      tag_151\n      jump\t// in\n    tag_150:\n      swap3\n      pop\n      pop\n      dup2\n      swap1\n      sstore\n      pop\n        /* \"gestionderisquefin.sol\":4260:4429  if (c.expositionCourante > _montant) {... */\n      jump(tag_152)\n    tag_149:\n        /* \"gestionderisquefin.sol\":4412:4413  0 */\n      0x00\n        /* \"gestionderisquefin.sol\":4389:4390  c */\n      dup3\n        /* \"gestionderisquefin.sol\":4389:4409  c.expositionCourante */\n      0x03\n      add\n        /* \"gestionderisquefin.sol\":4389:4413  c.expositionCourante = 0 */\n      dup2\n      swap1\n      sstore\n      pop\n        /* \"gestionderisquefin.sol\":4260:4429  if (c.expositionCourante > _montant) {... */\n    tag_152:\n        /* \"gestionderisquefin.sol\":4126:4531  if (posType == keccak256(\"SHORT\")) {... */\n      jump(tag_153)\n    tag_148:\n        /* \"gestionderisquefin.sol\":4461:4519  revert(\"Type de position inconnu, utiliser LONG ou SHORT\") */\n      mload(0x40)\n      0x08c379a000000000000000000000000000000000000000000000000000000000\n      dup2\n      mstore\n      0x04\n      add\n      tag_154\n      swap1\n      tag_155\n      jump\t// in\n    tag_154:\n      mload(0x40)\n      dup1\n      swap2\n      sub\n      swap1\n      revert\n        /* \"gestionderisquefin.sol\":4126:4531  if (posType == keccak256(\"SHORT\")) {... */\n    tag_153:\n        /* \"gestionderisquefin.sol\":4027:4531  if (posType == keccak256(\"LONG\")) {... */\n    tag_147:\n        /* \"gestionderisquefin.sol\":4619:4654  verifierDepassements(_portefeuille) */\n      tag_156\n        /* \"gestionderisquefin.sol\":4640:4653  _portefeuille */\n      dup6\n        /* \"gestionderisquefin.sol\":4619:4639  verifierDepassements */\n      tag_157\n        /* \"gestionderisquefin.sol\":4619:4654  verifierDepassements(_portefeuille) */\n      jump\t// in\n    tag_156:\n        /* \"gestionderisquefin.sol\":4688:4701  _portefeuille */\n      dup5\n        /* \"gestionderisquefin.sol\":4672:4727  PositionAjoutee(_portefeuille, _montant, _typePosition) */\n      0xffffffffffffffffffffffffffffffffffffffff\n      and\n      0x59d80496e2d6d2b8a6def9b929b89c4f2e142ab465551a6e2ab7568a700dc51c\n        /* \"gestionderisquefin.sol\":4703:4711  _montant */\n      dup6\n        /* \"gestionderisquefin.sol\":4713:4726  _typePosition */\n      dup6\n        /* \"gestionderisquefin.sol\":4672:4727  PositionAjoutee(_portefeuille, _montant, _typePosition) */\n      mload(0x40)\n      tag_158\n      swap3\n      swap2\n      swap1\n      tag_159\n      jump\t// in\n    tag_158:\n      mload(0x40)\n      dup1\n      swap2\n      sub\n      swap1\n      log2\n        /* \"gestionderisquefin.sol\":3269:4735  {... */\n      pop\n      pop\n        /* \"gestionderisquefin.sol\":3167:4735  function ajouterPosition(address _portefeuille, uint256 _montant, string memory _typePosition) public {... */\n      pop\n      pop\n      pop\n      jump\t// out\n        /* \"gestionderisquefin.sol\":9369:9647  function desactiverContrepartie(address _portefeuille) public {... */\n    tag_40:\n        /* \"gestionderisquefin.sol\":9442:9464  Contrepartie storage c */\n      0x00\n        /* \"gestionderisquefin.sol\":9467:9480  contreparties */\n      dup1\n        /* \"gestionderisquefin.sol\":9467:9495  contreparties[_portefeuille] */\n      0x00\n        /* \"gestionderisquefin.sol\":9481:9494  _portefeuille */\n      dup4\n        /* \"gestionderisquefin.sol\":9467:9495  contreparties[_portefeuille] */\n      0xffffffffffffffffffffffffffffffffffffffff\n      and\n      0xffffffffffffffffffffffffffffffffffffffff\n      and\n      dup2\n      mstore\n      0x20\n      add\n      swap1\n      dup2\n      mstore\n      0x20\n      add\n      0x00\n      keccak256\n        /* \"gestionderisquefin.sol\":9442:9495  Contrepartie storage c = contreparties[_portefeuille] */\n      swap1\n      pop\n        /* \"gestionderisquefin.sol\":9514:9515  c */\n      dup1\n        /* \"gestionderisquefin.sol\":9514:9524  c.estActif */\n      0x06\n      add\n      0x00\n      swap1\n      sload\n      swap1\n      0x0100\n      exp\n      swap1\n      div\n      0xff\n      and\n        /* \"gestionderisquefin.sol\":9506:9555  require(c.estActif, \"Contrepartie deja inactive\") */\n      tag_161\n      jumpi\n      mload(0x40)\n      0x08c379a000000000000000000000000000000000000000000000000000000000\n      dup2\n      mstore\n      0x04\n      add\n      tag_162\n      swap1\n      tag_163\n      jump\t// in\n    tag_162:\n      mload(0x40)\n      dup1\n      swap2\n      sub\n      swap1\n      revert\n    tag_161:\n        /* \"gestionderisquefin.sol\":9579:9584  false */\n      0x00\n        /* \"gestionderisquefin.sol\":9566:9567  c */\n      dup2\n        /* \"gestionderisquefin.sol\":9566:9576  c.estActif */\n      0x06\n      add\n      0x00\n        /* \"gestionderisquefin.sol\":9566:9584  c.estActif = false */\n      0x0100\n      exp\n      dup2\n      sload\n      dup2\n      0xff\n      mul\n      not\n      and\n      swap1\n      dup4\n      iszero\n      iszero\n      mul\n      or\n      swap1\n      sstore\n      pop\n        /* \"gestionderisquefin.sol\":9625:9638  _portefeuille */\n      dup2\n        /* \"gestionderisquefin.sol\":9602:9639  ContrepartieDesactivee(_portefeuille) */\n      0xffffffffffffffffffffffffffffffffffffffff\n      and\n      0xae8857b2966eb8a781a2b3955a5558d92f570a4d7b27e224849fc315c8d4024b\n      mload(0x40)\n      mload(0x40)\n      dup1\n      swap2\n      sub\n      swap1\n      log2\n        /* \"gestionderisquefin.sol\":9431:9647  {... */\n      pop\n        /* \"gestionderisquefin.sol\":9369:9647  function desactiverContrepartie(address _portefeuille) public {... */\n      pop\n      jump\t// out\n        /* \"gestionderisquefin.sol\":8244:8610  function ajouterCollateral(address _portefeuille, uint256 montant) public {... */\n    tag_44:\n        /* \"gestionderisquefin.sol\":8347:8348  0 */\n      0x00\n        /* \"gestionderisquefin.sol\":8337:8344  montant */\n      dup2\n        /* \"gestionderisquefin.sol\":8337:8348  montant > 0 */\n      gt\n        /* \"gestionderisquefin.sol\":8329:8384  require(montant > 0, \"Montant doit etre superieur a 0\") */\n      tag_165\n      jumpi\n      mload(0x40)\n      0x08c379a000000000000000000000000000000000000000000000000000000000\n      dup2\n      mstore\n      0x04\n      add\n      tag_166\n      swap1\n      tag_167\n      jump\t// in\n    tag_166:\n      mload(0x40)\n      dup1\n      swap2\n      sub\n      swap1\n      revert\n    tag_165:\n        /* \"gestionderisquefin.sol\":8395:8417  Contrepartie storage c */\n      0x00\n        /* \"gestionderisquefin.sol\":8420:8433  contreparties */\n      dup1\n        /* \"gestionderisquefin.sol\":8420:8448  contreparties[_portefeuille] */\n      0x00\n        /* \"gestionderisquefin.sol\":8434:8447  _portefeuille */\n      dup5\n        /* \"gestionderisquefin.sol\":8420:8448  contreparties[_portefeuille] */\n      0xffffffffffffffffffffffffffffffffffffffff\n      and\n      0xffffffffffffffffffffffffffffffffffffffff\n      and\n      dup2\n      mstore\n      0x20\n      add\n      swap1\n      dup2\n      mstore\n      0x20\n      add\n      0x00\n      keccak256\n        /* \"gestionderisquefin.sol\":8395:8448  Contrepartie storage c = contreparties[_portefeuille] */\n      swap1\n      pop\n        /* \"gestionderisquefin.sol\":8467:8468  c */\n      dup1\n        /* \"gestionderisquefin.sol\":8467:8477  c.estActif */\n      0x06\n      add\n      0x00\n      swap1\n      sload\n      swap1\n      0x0100\n      exp\n      swap1\n      div\n      0xff\n      and\n        /* \"gestionderisquefin.sol\":8459:8503  require(c.estActif, \"Contrepartie inactive\") */\n      tag_168\n      jumpi\n      mload(0x40)\n      0x08c379a000000000000000000000000000000000000000000000000000000000\n      dup2\n      mstore\n      0x04\n      add\n      tag_169\n      swap1\n      tag_134\n      jump\t// in\n    tag_169:\n      mload(0x40)\n      dup1\n      swap2\n      sub\n      swap1\n      revert\n    tag_168:\n        /* \"gestionderisquefin.sol\":8530:8537  montant */\n      dup2\n        /* \"gestionderisquefin.sol\":8514:8515  c */\n      dup2\n        /* \"gestionderisquefin.sol\":8514:8526  c.collateral */\n      0x04\n      add\n      0x00\n        /* \"gestionderisquefin.sol\":8514:8537  c.collateral += montant */\n      dup3\n      dup3\n      sload\n      tag_170\n      swap2\n      swap1\n      tag_146\n      jump\t// in\n    tag_170:\n      swap3\n      pop\n      pop\n      dup2\n      swap1\n      sstore\n      pop\n        /* \"gestionderisquefin.sol\":8574:8587  _portefeuille */\n      dup3\n        /* \"gestionderisquefin.sol\":8555:8602  CollateralMisAJour(_portefeuille, c.collateral) */\n      0xffffffffffffffffffffffffffffffffffffffff\n      and\n      0xd774cc25cff1cc53f7b2e33e1c2c9ee9ded38f0a9330714f5dbe439d76c23865\n        /* \"gestionderisquefin.sol\":8589:8590  c */\n      dup3\n        /* \"gestionderisquefin.sol\":8589:8601  c.collateral */\n      0x04\n      add\n      sload\n        /* \"gestionderisquefin.sol\":8555:8602  CollateralMisAJour(_portefeuille, c.collateral) */\n      mload(0x40)\n      tag_171\n      swap2\n      swap1\n      tag_21\n      jump\t// in\n    tag_171:\n      mload(0x40)\n      dup1\n      swap2\n      sub\n      swap1\n      log2\n        /* \"gestionderisquefin.sol\":8318:8610  {... */\n      pop\n        /* \"gestionderisquefin.sol\":8244:8610  function ajouterCollateral(address _portefeuille, uint256 montant) public {... */\n      pop\n      pop\n      jump\t// out\n        /* \"gestionderisquefin.sol\":634:669  address[] public listeContreparties */\n    tag_48:\n      0x01\n      dup2\n      dup2\n      sload\n      dup2\n      lt\n      tag_172\n      jumpi\n      0x00\n      dup1\n      revert\n    tag_172:\n      swap1\n      0x00\n      mstore\n      keccak256(0x00, 0x20)\n      add\n      0x00\n      swap2\n      pop\n      sload\n      swap1\n      0x0100\n      exp\n      swap1\n      div\n      0xffffffffffffffffffffffffffffffffffffffff\n      and\n      dup2\n      jump\t// out\n        /* \"gestionderisquefin.sol\":5987:6500  function calculerPertesAttendues(address _portefeuille, uint256 PD, uint256 LGD) public view returns (uint256) {... */\n    tag_54:\n        /* \"gestionderisquefin.sol\":6089:6096  uint256 */\n      0x00\n        /* \"gestionderisquefin.sol\":6123:6126  100 */\n      0x64\n        /* \"gestionderisquefin.sol\":6117:6119  PD */\n      dup4\n        /* \"gestionderisquefin.sol\":6117:6126  PD <= 100 */\n      gt\n      iszero\n        /* \"gestionderisquefin.sol\":6117:6140  PD <= 100 && LGD <= 100 */\n      dup1\n      iszero\n      tag_175\n      jumpi\n      pop\n        /* \"gestionderisquefin.sol\":6137:6140  100 */\n      0x64\n        /* \"gestionderisquefin.sol\":6130:6133  LGD */\n      dup3\n        /* \"gestionderisquefin.sol\":6130:6140  LGD <= 100 */\n      gt\n      iszero\n        /* \"gestionderisquefin.sol\":6117:6140  PD <= 100 && LGD <= 100 */\n    tag_175:\n        /* \"gestionderisquefin.sol\":6109:6192  require(PD <= 100 && LGD <= 100, \"PD et LGD doivent etre des pourcentages (0-100)\") */\n      tag_176\n      jumpi\n      mload(0x40)\n      0x08c379a000000000000000000000000000000000000000000000000000000000\n      dup2\n      mstore\n      0x04\n      add\n      tag_177\n      swap1\n      tag_178\n      jump\t// in\n    tag_177:\n      mload(0x40)\n      dup1\n      swap2\n      sub\n      swap1\n      revert\n    tag_176:\n        /* \"gestionderisquefin.sol\":6203:6224  Contrepartie memory c */\n      0x00\n        /* \"gestionderisquefin.sol\":6227:6240  contreparties */\n      dup1\n        /* \"gestionderisquefin.sol\":6227:6255  contreparties[_portefeuille] */\n      0x00\n        /* \"gestionderisquefin.sol\":6241:6254  _portefeuille */\n      dup7\n        /* \"gestionderisquefin.sol\":6227:6255  contreparties[_portefeuille] */\n      0xffffffffffffffffffffffffffffffffffffffff\n      and\n      0xffffffffffffffffffffffffffffffffffffffff\n      and\n      dup2\n      mstore\n      0x20\n      add\n      swap1\n      dup2\n      mstore\n      0x20\n      add\n      0x00\n      keccak256\n        /* \"gestionderisquefin.sol\":6203:6255  Contrepartie memory c = contreparties[_portefeuille] */\n      mload(0x40)\n      dup1\n      0x0100\n      add\n      0x40\n      mstore\n      swap1\n      dup2\n      0x00\n      dup3\n      add\n      0x00\n      swap1\n      sload\n      swap1\n      0x0100\n      exp\n      swap1\n      div\n      0xffffffffffffffffffffffffffffffffffffffff\n      and\n      0xffffffffffffffffffffffffffffffffffffffff\n      and\n      0xffffffffffffffffffffffffffffffffffffffff\n      and\n      dup2\n      mstore\n      0x20\n      add\n      0x01\n      dup3\n      add\n      sload\n      dup2\n      mstore\n      0x20\n      add\n      0x02\n      dup3\n      add\n      sload\n      dup2\n      mstore\n      0x20\n      add\n      0x03\n      dup3\n      add\n      sload\n      dup2\n      mstore\n      0x20\n      add\n      0x04\n      dup3\n      add\n      sload\n      dup2\n      mstore\n      0x20\n      add\n      0x05\n      dup3\n      add\n      dup1\n      sload\n      dup1\n      0x20\n      mul\n      0x20\n      add\n      mload(0x40)\n      swap1\n      dup2\n      add\n      0x40\n      mstore\n      dup1\n      swap3\n      swap2\n      swap1\n      dup2\n      dup2\n      mstore\n      0x20\n      add\n      0x00\n      swap1\n    tag_179:\n      dup3\n      dup3\n      lt\n      iszero\n      tag_180\n      jumpi\n      dup4\n      dup3\n      swap1\n      0x00\n      mstore\n      keccak256(0x00, 0x20)\n      swap1\n      0x03\n      mul\n      add\n      mload(0x40)\n      dup1\n      0x60\n      add\n      0x40\n      mstore\n      swap1\n      dup2\n      0x00\n      dup3\n      add\n      sload\n      dup2\n      mstore\n      0x20\n      add\n      0x01\n      dup3\n      add\n      dup1\n      sload\n      tag_182\n      swap1\n      tag_73\n      jump\t// in\n    tag_182:\n      dup1\n      0x1f\n      add\n      0x20\n      dup1\n      swap2\n      div\n      mul\n      0x20\n      add\n      mload(0x40)\n      swap1\n      dup2\n      add\n      0x40\n      mstore\n      dup1\n      swap3\n      swap2\n      swap1\n      dup2\n      dup2\n      mstore\n      0x20\n      add\n      dup3\n      dup1\n      sload\n      tag_183\n      swap1\n      tag_73\n      jump\t// in\n    tag_183:\n      dup1\n      iszero\n      tag_184\n      jumpi\n      dup1\n      0x1f\n      lt\n      tag_185\n      jumpi\n      0x0100\n      dup1\n      dup4\n      sload\n      div\n      mul\n      dup4\n      mstore\n      swap2\n      0x20\n      add\n      swap2\n      jump(tag_184)\n    tag_185:\n      dup3\n      add\n      swap2\n      swap1\n      0x00\n      mstore\n      keccak256(0x00, 0x20)\n      swap1\n    tag_186:\n      dup2\n      sload\n      dup2\n      mstore\n      swap1\n      0x01\n      add\n      swap1\n      0x20\n      add\n      dup1\n      dup4\n      gt\n      tag_186\n      jumpi\n      dup3\n      swap1\n      sub\n      0x1f\n      and\n      dup3\n      add\n      swap2\n    tag_184:\n      pop\n      pop\n      pop\n      pop\n      pop\n      dup2\n      mstore\n      0x20\n      add\n      0x02\n      dup3\n      add\n      sload\n      dup2\n      mstore\n      pop\n      pop\n      dup2\n      mstore\n      0x20\n      add\n      swap1\n      0x01\n      add\n      swap1\n      jump(tag_179)\n    tag_180:\n      pop\n      pop\n      pop\n      pop\n      dup2\n      mstore\n      0x20\n      add\n      0x06\n      dup3\n      add\n      0x00\n      swap1\n      sload\n      swap1\n      0x0100\n      exp\n      swap1\n      div\n      0xff\n      and\n      iszero\n      iszero\n      iszero\n      iszero\n      dup2\n      mstore\n      0x20\n      add\n      0x07\n      dup3\n      add\n      sload\n      dup2\n      mstore\n      pop\n      pop\n      swap1\n      pop\n        /* \"gestionderisquefin.sol\":6487:6492  10000 */\n      0x2710\n        /* \"gestionderisquefin.sol\":6480:6483  LGD */\n      dup4\n        /* \"gestionderisquefin.sol\":6475:6477  PD */\n      dup6\n        /* \"gestionderisquefin.sol\":6452:6453  c */\n      dup4\n        /* \"gestionderisquefin.sol\":6452:6472  c.expositionCourante */\n      0x60\n      add\n      mload\n        /* \"gestionderisquefin.sol\":6452:6477  c.expositionCourante * PD */\n      tag_187\n      swap2\n      swap1\n      tag_82\n      jump\t// in\n    tag_187:\n        /* \"gestionderisquefin.sol\":6452:6483  c.expositionCourante * PD * LGD */\n      tag_188\n      swap2\n      swap1\n      tag_82\n      jump\t// in\n    tag_188:\n        /* \"gestionderisquefin.sol\":6451:6492  (c.expositionCourante * PD * LGD) / 10000 */\n      tag_189\n      swap2\n      swap1\n      tag_84\n      jump\t// in\n    tag_189:\n        /* \"gestionderisquefin.sol\":6444:6492  return (c.expositionCourante * PD * LGD) / 10000 */\n      swap2\n      pop\n      pop\n        /* \"gestionderisquefin.sol\":5987:6500  function calculerPertesAttendues(address _portefeuille, uint256 PD, uint256 LGD) public view returns (uint256) {... */\n      swap4\n      swap3\n      pop\n      pop\n      pop\n      jump\t// out\n        /* \"gestionderisquefin.sol\":574:627  mapping(address => Contrepartie) public contreparties */\n    tag_58:\n      mstore(0x20, 0x00)\n      dup1\n      0x00\n      mstore\n      keccak256(0x00, 0x40)\n      0x00\n      swap2\n      pop\n      swap1\n      pop\n      dup1\n      0x00\n      add\n      0x00\n      swap1\n      sload\n      swap1\n      0x0100\n      exp\n      swap1\n      div\n      0xffffffffffffffffffffffffffffffffffffffff\n      and\n      swap1\n      dup1\n      0x01\n      add\n      sload\n      swap1\n      dup1\n      0x02\n      add\n      sload\n      swap1\n      dup1\n      0x03\n      add\n      sload\n      swap1\n      dup1\n      0x04\n      add\n      sload\n      swap1\n      dup1\n      0x06\n      add\n      0x00\n      swap1\n      sload\n      swap1\n      0x0100\n      exp\n      swap1\n      div\n      0xff\n      and\n      swap1\n      dup1\n      0x07\n      add\n      sload\n      swap1\n      pop\n      dup8\n      jump\t// out\n        /* \"gestionderisquefin.sol\":5336:5745  function calculerScoreRisque(address _portefeuille) public view returns (uint256) {... */\n    tag_63:\n        /* \"gestionderisquefin.sol\":5409:5416  uint256 */\n      0x00\n        /* \"gestionderisquefin.sol\":5429:5450  Contrepartie memory c */\n      dup1\n        /* \"gestionderisquefin.sol\":5453:5466  contreparties */\n      0x00\n        /* \"gestionderisquefin.sol\":5453:5481  contreparties[_portefeuille] */\n      dup1\n        /* \"gestionderisquefin.sol\":5467:5480  _portefeuille */\n      dup5\n        /* \"gestionderisquefin.sol\":5453:5481  contreparties[_portefeuille] */\n      0xffffffffffffffffffffffffffffffffffffffff\n      and\n      0xffffffffffffffffffffffffffffffffffffffff\n      and\n      dup2\n      mstore\n      0x20\n      add\n      swap1\n      dup2\n      mstore\n      0x20\n      add\n      0x00\n      keccak256\n        /* \"gestionderisquefin.sol\":5429:5481  Contrepartie memory c = contreparties[_portefeuille] */\n      mload(0x40)\n      dup1\n      0x0100\n      add\n      0x40\n      mstore\n      swap1\n      dup2\n      0x00\n      dup3\n      add\n      0x00\n      swap1\n      sload\n      swap1\n      0x0100\n      exp\n      swap1\n      div\n      0xffffffffffffffffffffffffffffffffffffffff\n      and\n      0xffffffffffffffffffffffffffffffffffffffff\n      and\n      0xffffffffffffffffffffffffffffffffffffffff\n      and\n      dup2\n      mstore\n      0x20\n      add\n      0x01\n      dup3\n      add\n      sload\n      dup2\n      mstore\n      0x20\n      add\n      0x02\n      dup3\n      add\n      sload\n      dup2\n      mstore\n      0x20\n      add\n      0x03\n      dup3\n      add\n      sload\n      dup2\n      mstore\n      0x20\n      add\n      0x04\n      dup3\n      add\n      sload\n      dup2\n      mstore\n      0x20\n      add\n      0x05\n      dup3\n      add\n      dup1\n      sload\n      dup1\n      0x20\n      mul\n      0x20\n      add\n      mload(0x40)\n      swap1\n      dup2\n      add\n      0x40\n      mstore\n      dup1\n      swap3\n      swap2\n      swap1\n      dup2\n      dup2\n      mstore\n      0x20\n      add\n      0x00\n      swap1\n    tag_191:\n      dup3\n      dup3\n      lt\n      iszero\n      tag_192\n      jumpi\n      dup4\n      dup3\n      swap1\n      0x00\n      mstore\n      keccak256(0x00, 0x20)\n      swap1\n      0x03\n      mul\n      add\n      mload(0x40)\n      dup1\n      0x60\n      add\n      0x40\n      mstore\n      swap1\n      dup2\n      0x00\n      dup3\n      add\n      sload\n      dup2\n      mstore\n      0x20\n      add\n      0x01\n      dup3\n      add\n      dup1\n      sload\n      tag_194\n      swap1\n      tag_73\n      jump\t// in\n    tag_194:\n      dup1\n      0x1f\n      add\n      0x20\n      dup1\n      swap2\n      div\n      mul\n      0x20\n      add\n      mload(0x40)\n      swap1\n      dup2\n      add\n      0x40\n      mstore\n      dup1\n      swap3\n      swap2\n      swap1\n      dup2\n      dup2\n      mstore\n      0x20\n      add\n      dup3\n      dup1\n      sload\n      tag_195\n      swap1\n      tag_73\n      jump\t// in\n    tag_195:\n      dup1\n      iszero\n      tag_196\n      jumpi\n      dup1\n      0x1f\n      lt\n      tag_197\n      jumpi\n      0x0100\n      dup1\n      dup4\n      sload\n      div\n      mul\n      dup4\n      mstore\n      swap2\n      0x20\n      add\n      swap2\n      jump(tag_196)\n    tag_197:\n      dup3\n      add\n      swap2\n      swap1\n      0x00\n      mstore\n      keccak256(0x00, 0x20)\n      swap1\n    tag_198:\n      dup2\n      sload\n      dup2\n      mstore\n      swap1\n      0x01\n      add\n      swap1\n      0x20\n      add\n      dup1\n      dup4\n      gt\n      tag_198\n      jumpi\n      dup3\n      swap1\n      sub\n      0x1f\n      and\n      dup3\n      add\n      swap2\n    tag_196:\n      pop\n      pop\n      pop\n      pop\n      pop\n      dup2\n      mstore\n      0x20\n      add\n      0x02\n      dup3\n      add\n      sload\n      dup2\n      mstore\n      pop\n      pop\n      dup2\n      mstore\n      0x20\n      add\n      swap1\n      0x01\n      add\n      swap1\n      jump(tag_191)\n    tag_192:\n      pop\n      pop\n      pop\n      pop\n      dup2\n      mstore\n      0x20\n      add\n      0x06\n      dup3\n      add\n      0x00\n      swap1\n      sload\n      swap1\n      0x0100\n      exp\n      swap1\n      div\n      0xff\n      and\n      iszero\n      iszero\n      iszero\n      iszero\n      dup2\n      mstore\n      0x20\n      add\n      0x07\n      dup3\n      add\n      sload\n      dup2\n      mstore\n      pop\n      pop\n      swap1\n      pop\n        /* \"gestionderisquefin.sol\":5521:5522  0 */\n      0x00\n        /* \"gestionderisquefin.sol\":5500:5501  c */\n      dup2\n        /* \"gestionderisquefin.sol\":5500:5518  c.limiteExposition */\n      0x40\n      add\n      mload\n        /* \"gestionderisquefin.sol\":5500:5522  c.limiteExposition > 0 */\n      gt\n        /* \"gestionderisquefin.sol\":5492:5555  require(c.limiteExposition > 0, \"Limite d'exposition invalide\") */\n      tag_199\n      jumpi\n      mload(0x40)\n      0x08c379a000000000000000000000000000000000000000000000000000000000\n      dup2\n      mstore\n      0x04\n      add\n      tag_200\n      swap1\n      tag_201\n      jump\t// in\n    tag_200:\n      mload(0x40)\n      dup1\n      swap2\n      sub\n      swap1\n      revert\n    tag_199:\n        /* \"gestionderisquefin.sol\":5590:5591  0 */\n      0x00\n        /* \"gestionderisquefin.sol\":5574:5575  c */\n      dup2\n        /* \"gestionderisquefin.sol\":5574:5587  c.scoreCredit */\n      0x20\n      add\n      mload\n        /* \"gestionderisquefin.sol\":5574:5591  c.scoreCredit > 0 */\n      gt\n        /* \"gestionderisquefin.sol\":5566:5620  require(c.scoreCredit > 0, \"Score de credit invalide\") */\n      tag_202\n      jumpi\n      mload(0x40)\n      0x08c379a000000000000000000000000000000000000000000000000000000000\n      dup2\n      mstore\n      0x04\n      add\n      tag_203\n      swap1\n      tag_98\n      jump\t// in\n    tag_203:\n      mload(0x40)\n      dup1\n      swap2\n      sub\n      swap1\n      revert\n    tag_202:\n        /* \"gestionderisquefin.sol\":5633:5646  uint256 ratio */\n      0x00\n        /* \"gestionderisquefin.sol\":5680:5681  c */\n      dup2\n        /* \"gestionderisquefin.sol\":5680:5698  c.limiteExposition */\n      0x40\n      add\n      mload\n        /* \"gestionderisquefin.sol\":5673:5676  100 */\n      0x64\n        /* \"gestionderisquefin.sol\":5650:5651  c */\n      dup4\n        /* \"gestionderisquefin.sol\":5650:5670  c.expositionCourante */\n      0x60\n      add\n      mload\n        /* \"gestionderisquefin.sol\":5650:5676  c.expositionCourante * 100 */\n      tag_204\n      swap2\n      swap1\n      tag_82\n      jump\t// in\n    tag_204:\n        /* \"gestionderisquefin.sol\":5649:5698  (c.expositionCourante * 100) / c.limiteExposition */\n      tag_205\n      swap2\n      swap1\n      tag_84\n      jump\t// in\n    tag_205:\n        /* \"gestionderisquefin.sol\":5633:5698  uint256 ratio = (c.expositionCourante * 100) / c.limiteExposition */\n      swap1\n      pop\n        /* \"gestionderisquefin.sol\":5724:5725  c */\n      dup2\n        /* \"gestionderisquefin.sol\":5724:5737  c.scoreCredit */\n      0x20\n      add\n      mload\n        /* \"gestionderisquefin.sol\":5716:5721  ratio */\n      dup2\n        /* \"gestionderisquefin.sol\":5716:5737  ratio / c.scoreCredit */\n      tag_206\n      swap2\n      swap1\n      tag_84\n      jump\t// in\n    tag_206:\n        /* \"gestionderisquefin.sol\":5709:5737  return ratio / c.scoreCredit */\n      swap3\n      pop\n      pop\n      pop\n        /* \"gestionderisquefin.sol\":5336:5745  function calculerScoreRisque(address _portefeuille) public view returns (uint256) {... */\n      swap2\n      swap1\n      pop\n      jump\t// out\n        /* \"gestionderisquefin.sol\":8710:9297  function retirerCollateral(address _portefeuille, uint256 montant) public {... */\n    tag_67:\n        /* \"gestionderisquefin.sol\":8813:8814  0 */\n      0x00\n        /* \"gestionderisquefin.sol\":8803:8810  montant */\n      dup2\n        /* \"gestionderisquefin.sol\":8803:8814  montant > 0 */\n      gt\n        /* \"gestionderisquefin.sol\":8795:8850  require(montant > 0, \"Montant doit etre superieur a 0\") */\n      tag_208\n      jumpi\n      mload(0x40)\n      0x08c379a000000000000000000000000000000000000000000000000000000000\n      dup2\n      mstore\n      0x04\n      add\n      tag_209\n      swap1\n      tag_167\n      jump\t// in\n    tag_209:\n      mload(0x40)\n      dup1\n      swap2\n      sub\n      swap1\n      revert\n    tag_208:\n        /* \"gestionderisquefin.sol\":8861:8883  Contrepartie storage c */\n      0x00\n        /* \"gestionderisquefin.sol\":8886:8899  contreparties */\n      dup1\n        /* \"gestionderisquefin.sol\":8886:8914  contreparties[_portefeuille] */\n      0x00\n        /* \"gestionderisquefin.sol\":8900:8913  _portefeuille */\n      dup5\n        /* \"gestionderisquefin.sol\":8886:8914  contreparties[_portefeuille] */\n      0xffffffffffffffffffffffffffffffffffffffff\n      and\n      0xffffffffffffffffffffffffffffffffffffffff\n      and\n      dup2\n      mstore\n      0x20\n      add\n      swap1\n      dup2\n      mstore\n      0x20\n      add\n      0x00\n      keccak256\n        /* \"gestionderisquefin.sol\":8861:8914  Contrepartie storage c = contreparties[_portefeuille] */\n      swap1\n      pop\n        /* \"gestionderisquefin.sol\":8933:8934  c */\n      dup1\n        /* \"gestionderisquefin.sol\":8933:8943  c.estActif */\n      0x06\n      add\n      0x00\n      swap1\n      sload\n      swap1\n      0x0100\n      exp\n      swap1\n      div\n      0xff\n      and\n        /* \"gestionderisquefin.sol\":8925:8969  require(c.estActif, \"Contrepartie inactive\") */\n      tag_210\n      jumpi\n      mload(0x40)\n      0x08c379a000000000000000000000000000000000000000000000000000000000\n      dup2\n      mstore\n      0x04\n      add\n      tag_211\n      swap1\n      tag_134\n      jump\t// in\n    tag_211:\n      mload(0x40)\n      dup1\n      swap2\n      sub\n      swap1\n      revert\n    tag_210:\n        /* \"gestionderisquefin.sol\":9030:9033  150 */\n      0x96\n        /* \"gestionderisquefin.sol\":8988:9026  calculerRatioCouverture(_portefeuille) */\n      tag_212\n        /* \"gestionderisquefin.sol\":9012:9025  _portefeuille */\n      dup5\n        /* \"gestionderisquefin.sol\":8988:9011  calculerRatioCouverture */\n      tag_19\n        /* \"gestionderisquefin.sol\":8988:9026  calculerRatioCouverture(_portefeuille) */\n      jump\t// in\n    tag_212:\n        /* \"gestionderisquefin.sol\":8988:9033  calculerRatioCouverture(_portefeuille) >= 150 */\n      lt\n      iszero\n        /* \"gestionderisquefin.sol\":8980:9084  require(calculerRatioCouverture(_portefeuille) >= 150, \"Ratio insuffisant pour retirer des collateraux\") */\n      tag_213\n      jumpi\n      mload(0x40)\n      0x08c379a000000000000000000000000000000000000000000000000000000000\n      dup2\n      mstore\n      0x04\n      add\n      tag_214\n      swap1\n      tag_215\n      jump\t// in\n    tag_214:\n      mload(0x40)\n      dup1\n      swap2\n      sub\n      swap1\n      revert\n    tag_213:\n        /* \"gestionderisquefin.sol\":9117:9124  montant */\n      dup2\n        /* \"gestionderisquefin.sol\":9101:9102  c */\n      dup2\n        /* \"gestionderisquefin.sol\":9101:9113  c.collateral */\n      0x04\n      add\n      sload\n        /* \"gestionderisquefin.sol\":9101:9124  c.collateral >= montant */\n      lt\n        /* \"gestionderisquefin.sol\":9097:9225  if (c.collateral >= montant) {... */\n      tag_216\n      jumpi\n        /* \"gestionderisquefin.sol\":9157:9164  montant */\n      dup2\n        /* \"gestionderisquefin.sol\":9141:9142  c */\n      dup2\n        /* \"gestionderisquefin.sol\":9141:9153  c.collateral */\n      0x04\n      add\n      0x00\n        /* \"gestionderisquefin.sol\":9141:9164  c.collateral -= montant */\n      dup3\n      dup3\n      sload\n      tag_217\n      swap2\n      swap1\n      tag_151\n      jump\t// in\n    tag_217:\n      swap3\n      pop\n      pop\n      dup2\n      swap1\n      sstore\n      pop\n        /* \"gestionderisquefin.sol\":9097:9225  if (c.collateral >= montant) {... */\n      jump(tag_218)\n    tag_216:\n        /* \"gestionderisquefin.sol\":9212:9213  0 */\n      0x00\n        /* \"gestionderisquefin.sol\":9197:9198  c */\n      dup2\n        /* \"gestionderisquefin.sol\":9197:9209  c.collateral */\n      0x04\n      add\n        /* \"gestionderisquefin.sol\":9197:9213  c.collateral = 0 */\n      dup2\n      swap1\n      sstore\n      pop\n        /* \"gestionderisquefin.sol\":9097:9225  if (c.collateral >= montant) {... */\n    tag_218:\n        /* \"gestionderisquefin.sol\":9261:9274  _portefeuille */\n      dup3\n        /* \"gestionderisquefin.sol\":9242:9289  CollateralMisAJour(_portefeuille, c.collateral) */\n      0xffffffffffffffffffffffffffffffffffffffff\n      and\n      0xd774cc25cff1cc53f7b2e33e1c2c9ee9ded38f0a9330714f5dbe439d76c23865\n        /* \"gestionderisquefin.sol\":9276:9277  c */\n      dup3\n        /* \"gestionderisquefin.sol\":9276:9288  c.collateral */\n      0x04\n      add\n      sload\n        /* \"gestionderisquefin.sol\":9242:9289  CollateralMisAJour(_portefeuille, c.collateral) */\n      mload(0x40)\n      tag_219\n      swap2\n      swap1\n      tag_21\n      jump\t// in\n    tag_219:\n      mload(0x40)\n      dup1\n      swap2\n      sub\n      swap1\n      log2\n        /* \"gestionderisquefin.sol\":8784:9297  {... */\n      pop\n        /* \"gestionderisquefin.sol\":8710:9297  function retirerCollateral(address _portefeuille, uint256 montant) public {... */\n      pop\n      pop\n      jump\t// out\n        /* \"gestionderisquefin.sol\":6633:7605  function verifierDepassements(address _portefeuille) internal {... */\n    tag_157:\n        /* \"gestionderisquefin.sol\":6706:6728  Contrepartie storage c */\n      0x00\n        /* \"gestionderisquefin.sol\":6731:6744  contreparties */\n      dup1\n        /* \"gestionderisquefin.sol\":6731:6759  contreparties[_portefeuille] */\n      0x00\n        /* \"gestionderisquefin.sol\":6745:6758  _portefeuille */\n      dup4\n        /* \"gestionderisquefin.sol\":6731:6759  contreparties[_portefeuille] */\n      0xffffffffffffffffffffffffffffffffffffffff\n      and\n      0xffffffffffffffffffffffffffffffffffffffff\n      and\n      dup2\n      mstore\n      0x20\n      add\n      swap1\n      dup2\n      mstore\n      0x20\n      add\n      0x00\n      keccak256\n        /* \"gestionderisquefin.sol\":6706:6759  Contrepartie storage c = contreparties[_portefeuille] */\n      swap1\n      pop\n        /* \"gestionderisquefin.sol\":6799:6800  c */\n      dup1\n        /* \"gestionderisquefin.sol\":6799:6817  c.limiteExposition */\n      0x02\n      add\n      sload\n        /* \"gestionderisquefin.sol\":6776:6777  c */\n      dup2\n        /* \"gestionderisquefin.sol\":6776:6796  c.expositionCourante */\n      0x03\n      add\n      sload\n        /* \"gestionderisquefin.sol\":6776:6817  c.expositionCourante > c.limiteExposition */\n      gt\n        /* \"gestionderisquefin.sol\":6772:7326  if (c.expositionCourante > c.limiteExposition) {... */\n      iszero\n      tag_221\n      jumpi\n        /* \"gestionderisquefin.sol\":6834:6852  nombreDepassements */\n      0x02\n        /* \"gestionderisquefin.sol\":6834:6867  nombreDepassements[_portefeuille] */\n      0x00\n        /* \"gestionderisquefin.sol\":6853:6866  _portefeuille */\n      dup4\n        /* \"gestionderisquefin.sol\":6834:6867  nombreDepassements[_portefeuille] */\n      0xffffffffffffffffffffffffffffffffffffffff\n      and\n      0xffffffffffffffffffffffffffffffffffffffff\n      and\n      dup2\n      mstore\n      0x20\n      add\n      swap1\n      dup2\n      mstore\n      0x20\n      add\n      0x00\n      keccak256\n      0x00\n        /* \"gestionderisquefin.sol\":6834:6869  nombreDepassements[_portefeuille]++ */\n      dup2\n      sload\n      dup1\n      swap3\n      swap2\n      swap1\n      tag_222\n      swap1\n      tag_223\n      jump\t// in\n    tag_222:\n      swap2\n      swap1\n      pop\n      sstore\n      pop\n        /* \"gestionderisquefin.sol\":6904:6917  _portefeuille */\n      dup2\n        /* \"gestionderisquefin.sol\":6889:6960  LimiteDepassee(_portefeuille, c.expositionCourante, c.limiteExposition) */\n      0xffffffffffffffffffffffffffffffffffffffff\n      and\n      0x9a2dd2b852c39cdc36ebfa2bc55459f64fd51881ebfde683d37a31595c27da48\n        /* \"gestionderisquefin.sol\":6919:6920  c */\n      dup3\n        /* \"gestionderisquefin.sol\":6919:6939  c.expositionCourante */\n      0x03\n      add\n      sload\n        /* \"gestionderisquefin.sol\":6941:6942  c */\n      dup4\n        /* \"gestionderisquefin.sol\":6941:6959  c.limiteExposition */\n      0x02\n      add\n      sload\n        /* \"gestionderisquefin.sol\":6889:6960  LimiteDepassee(_portefeuille, c.expositionCourante, c.limiteExposition) */\n      mload(0x40)\n      tag_224\n      swap3\n      swap2\n      swap1\n      tag_101\n      jump\t// in\n    tag_224:\n      mload(0x40)\n      dup1\n      swap2\n      sub\n      swap1\n      log2\n        /* \"gestionderisquefin.sol\":7114:7115  3 */\n      0x03\n        /* \"gestionderisquefin.sol\":7077:7095  nombreDepassements */\n      0x02\n        /* \"gestionderisquefin.sol\":7077:7110  nombreDepassements[_portefeuille] */\n      0x00\n        /* \"gestionderisquefin.sol\":7096:7109  _portefeuille */\n      dup5\n        /* \"gestionderisquefin.sol\":7077:7110  nombreDepassements[_portefeuille] */\n      0xffffffffffffffffffffffffffffffffffffffff\n      and\n      0xffffffffffffffffffffffffffffffffffffffff\n      and\n      dup2\n      mstore\n      0x20\n      add\n      swap1\n      dup2\n      mstore\n      0x20\n      add\n      0x00\n      keccak256\n      sload\n        /* \"gestionderisquefin.sol\":7077:7115  nombreDepassements[_portefeuille] >= 3 */\n      lt\n        /* \"gestionderisquefin.sol\":7073:7315  if (nombreDepassements[_portefeuille] >= 3) {... */\n      tag_225\n      jumpi\n        /* \"gestionderisquefin.sol\":7136:7168  appliquerPenalite(_portefeuille) */\n      tag_226\n        /* \"gestionderisquefin.sol\":7154:7167  _portefeuille */\n      dup3\n        /* \"gestionderisquefin.sol\":7136:7153  appliquerPenalite */\n      tag_227\n        /* \"gestionderisquefin.sol\":7136:7168  appliquerPenalite(_portefeuille) */\n      jump\t// in\n    tag_226:\n        /* \"gestionderisquefin.sol\":7219:7221  10 */\n      0x0a\n        /* \"gestionderisquefin.sol\":7203:7204  c */\n      dup2\n        /* \"gestionderisquefin.sol\":7203:7216  c.scoreCredit */\n      0x01\n      add\n      sload\n        /* \"gestionderisquefin.sol\":7203:7221  c.scoreCredit > 10 */\n      gt\n        /* \"gestionderisquefin.sol\":7203:7246  c.scoreCredit > 10 ? c.scoreCredit - 10 : 1 */\n      tag_228\n      jumpi\n        /* \"gestionderisquefin.sol\":7245:7246  1 */\n      0x01\n        /* \"gestionderisquefin.sol\":7203:7246  c.scoreCredit > 10 ? c.scoreCredit - 10 : 1 */\n      jump(tag_229)\n    tag_228:\n        /* \"gestionderisquefin.sol\":7240:7242  10 */\n      0x0a\n        /* \"gestionderisquefin.sol\":7224:7225  c */\n      dup2\n        /* \"gestionderisquefin.sol\":7224:7237  c.scoreCredit */\n      0x01\n      add\n      sload\n        /* \"gestionderisquefin.sol\":7224:7242  c.scoreCredit - 10 */\n      tag_230\n      swap2\n      swap1\n      tag_151\n      jump\t// in\n    tag_230:\n        /* \"gestionderisquefin.sol\":7203:7246  c.scoreCredit > 10 ? c.scoreCredit - 10 : 1 */\n    tag_229:\n        /* \"gestionderisquefin.sol\":7187:7188  c */\n      dup2\n        /* \"gestionderisquefin.sol\":7187:7200  c.scoreCredit */\n      0x01\n      add\n        /* \"gestionderisquefin.sol\":7187:7246  c.scoreCredit = c.scoreCredit > 10 ? c.scoreCredit - 10 : 1 */\n      dup2\n      swap1\n      sstore\n      pop\n        /* \"gestionderisquefin.sol\":7073:7315  if (nombreDepassements[_portefeuille] >= 3) {... */\n    tag_225:\n        /* \"gestionderisquefin.sol\":6772:7326  if (c.expositionCourante > c.limiteExposition) {... */\n    tag_221:\n        /* \"gestionderisquefin.sol\":7365:7366  0 */\n      0x00\n        /* \"gestionderisquefin.sol\":7342:7343  c */\n      dup2\n        /* \"gestionderisquefin.sol\":7342:7362  c.expositionCourante */\n      0x03\n      add\n      sload\n        /* \"gestionderisquefin.sol\":7342:7366  c.expositionCourante > 0 */\n      gt\n        /* \"gestionderisquefin.sol\":7338:7598  if (c.expositionCourante > 0) {... */\n      iszero\n      tag_231\n      jumpi\n        /* \"gestionderisquefin.sol\":7383:7406  uint256 ratioCouverture */\n      0x00\n        /* \"gestionderisquefin.sol\":7409:7447  calculerRatioCouverture(_portefeuille) */\n      tag_232\n        /* \"gestionderisquefin.sol\":7433:7446  _portefeuille */\n      dup4\n        /* \"gestionderisquefin.sol\":7409:7432  calculerRatioCouverture */\n      tag_19\n        /* \"gestionderisquefin.sol\":7409:7447  calculerRatioCouverture(_portefeuille) */\n      jump\t// in\n    tag_232:\n        /* \"gestionderisquefin.sol\":7383:7447  uint256 ratioCouverture = calculerRatioCouverture(_portefeuille) */\n      swap1\n      pop\n        /* \"gestionderisquefin.sol\":7484:7487  100 */\n      0x64\n        /* \"gestionderisquefin.sol\":7466:7481  ratioCouverture */\n      dup2\n        /* \"gestionderisquefin.sol\":7466:7487  ratioCouverture < 100 */\n      lt\n        /* \"gestionderisquefin.sol\":7462:7587  if (ratioCouverture < 100) {... */\n      iszero\n      tag_233\n      jumpi\n        /* \"gestionderisquefin.sol\":7540:7553  _portefeuille */\n      dup3\n        /* \"gestionderisquefin.sol\":7513:7571  RatioCouvertureInsuffisant(_portefeuille, ratioCouverture) */\n      0xffffffffffffffffffffffffffffffffffffffff\n      and\n      0x674fc74c826dbec5edeac8ecdfd4401967af353ce41c4918c79ebea80e27c367\n        /* \"gestionderisquefin.sol\":7555:7570  ratioCouverture */\n      dup3\n        /* \"gestionderisquefin.sol\":7513:7571  RatioCouvertureInsuffisant(_portefeuille, ratioCouverture) */\n      mload(0x40)\n      tag_234\n      swap2\n      swap1\n      tag_21\n      jump\t// in\n    tag_234:\n      mload(0x40)\n      dup1\n      swap2\n      sub\n      swap1\n      log2\n        /* \"gestionderisquefin.sol\":7462:7587  if (ratioCouverture < 100) {... */\n    tag_233:\n        /* \"gestionderisquefin.sol\":7368:7598  {... */\n      pop\n        /* \"gestionderisquefin.sol\":7338:7598  if (c.expositionCourante > 0) {... */\n    tag_231:\n        /* \"gestionderisquefin.sol\":6695:7605  {... */\n      pop\n        /* \"gestionderisquefin.sol\":6633:7605  function verifierDepassements(address _portefeuille) internal {... */\n      pop\n      jump\t// out\n        /* \"gestionderisquefin.sol\":7707:8156  function appliquerPenalite(address _portefeuille) internal {... */\n    tag_227:\n        /* \"gestionderisquefin.sol\":7777:7799  Contrepartie storage c */\n      0x00\n        /* \"gestionderisquefin.sol\":7802:7815  contreparties */\n      dup1\n        /* \"gestionderisquefin.sol\":7802:7830  contreparties[_portefeuille] */\n      0x00\n        /* \"gestionderisquefin.sol\":7816:7829  _portefeuille */\n      dup4\n        /* \"gestionderisquefin.sol\":7802:7830  contreparties[_portefeuille] */\n      0xffffffffffffffffffffffffffffffffffffffff\n      and\n      0xffffffffffffffffffffffffffffffffffffffff\n      and\n      dup2\n      mstore\n      0x20\n      add\n      swap1\n      dup2\n      mstore\n      0x20\n      add\n      0x00\n      keccak256\n        /* \"gestionderisquefin.sol\":7777:7830  Contrepartie storage c = contreparties[_portefeuille] */\n      swap1\n      pop\n        /* \"gestionderisquefin.sol\":7841:7857  uint256 penalite */\n      0x00\n        /* \"gestionderisquefin.sol\":7890:7893  100 */\n      0x64\n        /* \"gestionderisquefin.sol\":7884:7886  10 */\n      0x0a\n        /* \"gestionderisquefin.sol\":7861:7862  c */\n      dup4\n        /* \"gestionderisquefin.sol\":7861:7881  c.expositionCourante */\n      0x03\n      add\n      sload\n        /* \"gestionderisquefin.sol\":7861:7886  c.expositionCourante * 10 */\n      tag_236\n      swap2\n      swap1\n      tag_82\n      jump\t// in\n    tag_236:\n        /* \"gestionderisquefin.sol\":7860:7893  (c.expositionCourante * 10) / 100 */\n      tag_237\n      swap2\n      swap1\n      tag_84\n      jump\t// in\n    tag_237:\n        /* \"gestionderisquefin.sol\":7841:7893  uint256 penalite = (c.expositionCourante * 10) / 100 */\n      swap1\n      pop\n        /* \"gestionderisquefin.sol\":7945:7953  penalite */\n      dup1\n        /* \"gestionderisquefin.sol\":7929:7930  c */\n      dup3\n        /* \"gestionderisquefin.sol\":7929:7941  c.collateral */\n      0x04\n      add\n      sload\n        /* \"gestionderisquefin.sol\":7929:7953  c.collateral >= penalite */\n      lt\n        /* \"gestionderisquefin.sol\":7925:8055  if (c.collateral >= penalite) {... */\n      tag_238\n      jumpi\n        /* \"gestionderisquefin.sol\":7986:7994  penalite */\n      dup1\n        /* \"gestionderisquefin.sol\":7970:7971  c */\n      dup3\n        /* \"gestionderisquefin.sol\":7970:7982  c.collateral */\n      0x04\n      add\n      0x00\n        /* \"gestionderisquefin.sol\":7970:7994  c.collateral -= penalite */\n      dup3\n      dup3\n      sload\n      tag_239\n      swap2\n      swap1\n      tag_151\n      jump\t// in\n    tag_239:\n      swap3\n      pop\n      pop\n      dup2\n      swap1\n      sstore\n      pop\n        /* \"gestionderisquefin.sol\":7925:8055  if (c.collateral >= penalite) {... */\n      jump(tag_240)\n    tag_238:\n        /* \"gestionderisquefin.sol\":8042:8043  0 */\n      0x00\n        /* \"gestionderisquefin.sol\":8027:8028  c */\n      dup3\n        /* \"gestionderisquefin.sol\":8027:8039  c.collateral */\n      0x04\n      add\n        /* \"gestionderisquefin.sol\":8027:8043  c.collateral = 0 */\n      dup2\n      swap1\n      sstore\n      pop\n        /* \"gestionderisquefin.sol\":7925:8055  if (c.collateral >= penalite) {... */\n    tag_240:\n        /* \"gestionderisquefin.sol\":8080:8088  penalite */\n      dup1\n        /* \"gestionderisquefin.sol\":8065:8066  c */\n      dup3\n        /* \"gestionderisquefin.sol\":8065:8076  c.penalites */\n      0x07\n      add\n      0x00\n        /* \"gestionderisquefin.sol\":8065:8088  c.penalites += penalite */\n      dup3\n      dup3\n      sload\n      tag_241\n      swap2\n      swap1\n      tag_146\n      jump\t// in\n    tag_241:\n      swap3\n      pop\n      pop\n      dup2\n      swap1\n      sstore\n      pop\n        /* \"gestionderisquefin.sol\":8124:8137  _portefeuille */\n      dup3\n        /* \"gestionderisquefin.sol\":8106:8148  PenaliteAppliquee(_portefeuille, penalite) */\n      0xffffffffffffffffffffffffffffffffffffffff\n      and\n      0xa7efd79f8b4f74475645bb98022d7135feab57d5b96cb33512477b288e3ff9c3\n        /* \"gestionderisquefin.sol\":8139:8147  penalite */\n      dup3\n        /* \"gestionderisquefin.sol\":8106:8148  PenaliteAppliquee(_portefeuille, penalite) */\n      mload(0x40)\n      tag_242\n      swap2\n      swap1\n      tag_21\n      jump\t// in\n    tag_242:\n      mload(0x40)\n      dup1\n      swap2\n      sub\n      swap1\n      log2\n        /* \"gestionderisquefin.sol\":7766:8156  {... */\n      pop\n      pop\n        /* \"gestionderisquefin.sol\":7707:8156  function appliquerPenalite(address _portefeuille) internal {... */\n      pop\n      jump\t// out\n        /* \"#utility.yul\":7:82   */\n    tag_243:\n        /* \"#utility.yul\":40:46   */\n      0x00\n        /* \"#utility.yul\":73:75   */\n      0x40\n        /* \"#utility.yul\":67:76   */\n      mload\n        /* \"#utility.yul\":57:76   */\n      swap1\n      pop\n        /* \"#utility.yul\":7:82   */\n      swap1\n      jump\t// out\n        /* \"#utility.yul\":88:205   */\n    tag_244:\n        /* \"#utility.yul\":197:198   */\n      0x00\n        /* \"#utility.yul\":194:195   */\n      dup1\n        /* \"#utility.yul\":187:199   */\n      revert\n        /* \"#utility.yul\":211:328   */\n    tag_245:\n        /* \"#utility.yul\":320:321   */\n      0x00\n        /* \"#utility.yul\":317:318   */\n      dup1\n        /* \"#utility.yul\":310:322   */\n      revert\n        /* \"#utility.yul\":334:460   */\n    tag_246:\n        /* \"#utility.yul\":371:378   */\n      0x00\n        /* \"#utility.yul\":411:453   */\n      0xffffffffffffffffffffffffffffffffffffffff\n        /* \"#utility.yul\":404:409   */\n      dup3\n        /* \"#utility.yul\":400:454   */\n      and\n        /* \"#utility.yul\":389:454   */\n      swap1\n      pop\n        /* \"#utility.yul\":334:460   */\n      swap2\n      swap1\n      pop\n      jump\t// out\n        /* \"#utility.yul\":466:562   */\n    tag_247:\n        /* \"#utility.yul\":503:510   */\n      0x00\n        /* \"#utility.yul\":532:556   */\n      tag_336\n        /* \"#utility.yul\":550:555   */\n      dup3\n        /* \"#utility.yul\":532:556   */\n      tag_246\n      jump\t// in\n    tag_336:\n        /* \"#utility.yul\":521:556   */\n      swap1\n      pop\n        /* \"#utility.yul\":466:562   */\n      swap2\n      swap1\n      pop\n      jump\t// out\n        /* \"#utility.yul\":568:690   */\n    tag_248:\n        /* \"#utility.yul\":641:665   */\n      tag_338\n        /* \"#utility.yul\":659:664   */\n      dup2\n        /* \"#utility.yul\":641:665   */\n      tag_247\n      jump\t// in\n    tag_338:\n        /* \"#utility.yul\":634:639   */\n      dup2\n        /* \"#utility.yul\":631:666   */\n      eq\n        /* \"#utility.yul\":621:684   */\n      tag_339\n      jumpi\n        /* \"#utility.yul\":680:681   */\n      0x00\n        /* \"#utility.yul\":677:678   */\n      dup1\n        /* \"#utility.yul\":670:682   */\n      revert\n        /* \"#utility.yul\":621:684   */\n    tag_339:\n        /* \"#utility.yul\":568:690   */\n      pop\n      jump\t// out\n        /* \"#utility.yul\":696:835   */\n    tag_249:\n        /* \"#utility.yul\":742:747   */\n      0x00\n        /* \"#utility.yul\":780:786   */\n      dup2\n        /* \"#utility.yul\":767:787   */\n      calldataload\n        /* \"#utility.yul\":758:787   */\n      swap1\n      pop\n        /* \"#utility.yul\":796:829   */\n      tag_341\n        /* \"#utility.yul\":823:828   */\n      dup2\n        /* \"#utility.yul\":796:829   */\n      tag_248\n      jump\t// in\n    tag_341:\n        /* \"#utility.yul\":696:835   */\n      swap3\n      swap2\n      pop\n      pop\n      jump\t// out\n        /* \"#utility.yul\":841:1170   */\n    tag_18:\n        /* \"#utility.yul\":900:906   */\n      0x00\n        /* \"#utility.yul\":949:951   */\n      0x20\n        /* \"#utility.yul\":937:946   */\n      dup3\n        /* \"#utility.yul\":928:935   */\n      dup5\n        /* \"#utility.yul\":924:947   */\n      sub\n        /* \"#utility.yul\":920:952   */\n      slt\n        /* \"#utility.yul\":917:1036   */\n      iszero\n      tag_343\n      jumpi\n        /* \"#utility.yul\":955:1034   */\n      tag_344\n      tag_244\n      jump\t// in\n    tag_344:\n        /* \"#utility.yul\":917:1036   */\n    tag_343:\n        /* \"#utility.yul\":1075:1076   */\n      0x00\n        /* \"#utility.yul\":1100:1153   */\n      tag_345\n        /* \"#utility.yul\":1145:1152   */\n      dup5\n        /* \"#utility.yul\":1136:1142   */\n      dup3\n        /* \"#utility.yul\":1125:1134   */\n      dup6\n        /* \"#utility.yul\":1121:1143   */\n      add\n        /* \"#utility.yul\":1100:1153   */\n      tag_249\n      jump\t// in\n    tag_345:\n        /* \"#utility.yul\":1090:1153   */\n      swap2\n      pop\n        /* \"#utility.yul\":1046:1163   */\n      pop\n        /* \"#utility.yul\":841:1170   */\n      swap3\n      swap2\n      pop\n      pop\n      jump\t// out\n        /* \"#utility.yul\":1176:1253   */\n    tag_250:\n        /* \"#utility.yul\":1213:1220   */\n      0x00\n        /* \"#utility.yul\":1242:1247   */\n      dup2\n        /* \"#utility.yul\":1231:1247   */\n      swap1\n      pop\n        /* \"#utility.yul\":1176:1253   */\n      swap2\n      swap1\n      pop\n      jump\t// out\n        /* \"#utility.yul\":1259:1377   */\n    tag_251:\n        /* \"#utility.yul\":1346:1370   */\n      tag_348\n        /* \"#utility.yul\":1364:1369   */\n      dup2\n        /* \"#utility.yul\":1346:1370   */\n      tag_250\n      jump\t// in\n    tag_348:\n        /* \"#utility.yul\":1341:1344   */\n      dup3\n        /* \"#utility.yul\":1334:1371   */\n      mstore\n        /* \"#utility.yul\":1259:1377   */\n      pop\n      pop\n      jump\t// out\n        /* \"#utility.yul\":1383:1605   */\n    tag_21:\n        /* \"#utility.yul\":1476:1480   */\n      0x00\n        /* \"#utility.yul\":1514:1516   */\n      0x20\n        /* \"#utility.yul\":1503:1512   */\n      dup3\n        /* \"#utility.yul\":1499:1517   */\n      add\n        /* \"#utility.yul\":1491:1517   */\n      swap1\n      pop\n        /* \"#utility.yul\":1527:1598   */\n      tag_350\n        /* \"#utility.yul\":1595:1596   */\n      0x00\n        /* \"#utility.yul\":1584:1593   */\n      dup4\n        /* \"#utility.yul\":1580:1597   */\n      add\n        /* \"#utility.yul\":1571:1577   */\n      dup5\n        /* \"#utility.yul\":1527:1598   */\n      tag_251\n      jump\t// in\n    tag_350:\n        /* \"#utility.yul\":1383:1605   */\n      swap3\n      swap2\n      pop\n      pop\n      jump\t// out\n        /* \"#utility.yul\":1611:1733   */\n    tag_252:\n        /* \"#utility.yul\":1684:1708   */\n      tag_352\n        /* \"#utility.yul\":1702:1707   */\n      dup2\n        /* \"#utility.yul\":1684:1708   */\n      tag_250\n      jump\t// in\n    tag_352:\n        /* \"#utility.yul\":1677:1682   */\n      dup2\n        /* \"#utility.yul\":1674:1709   */\n      eq\n        /* \"#utility.yul\":1664:1727   */\n      tag_353\n      jumpi\n        /* \"#utility.yul\":1723:1724   */\n      0x00\n        /* \"#utility.yul\":1720:1721   */\n      dup1\n        /* \"#utility.yul\":1713:1725   */\n      revert\n        /* \"#utility.yul\":1664:1727   */\n    tag_353:\n        /* \"#utility.yul\":1611:1733   */\n      pop\n      jump\t// out\n        /* \"#utility.yul\":1739:1878   */\n    tag_253:\n        /* \"#utility.yul\":1785:1790   */\n      0x00\n        /* \"#utility.yul\":1823:1829   */\n      dup2\n        /* \"#utility.yul\":1810:1830   */\n      calldataload\n        /* \"#utility.yul\":1801:1830   */\n      swap1\n      pop\n        /* \"#utility.yul\":1839:1872   */\n      tag_355\n        /* \"#utility.yul\":1866:1871   */\n      dup2\n        /* \"#utility.yul\":1839:1872   */\n      tag_252\n      jump\t// in\n    tag_355:\n        /* \"#utility.yul\":1739:1878   */\n      swap3\n      swap2\n      pop\n      pop\n      jump\t// out\n        /* \"#utility.yul\":1884:2649   */\n    tag_28:\n        /* \"#utility.yul\":1970:1976   */\n      0x00\n        /* \"#utility.yul\":1978:1984   */\n      dup1\n        /* \"#utility.yul\":1986:1992   */\n      0x00\n        /* \"#utility.yul\":1994:2000   */\n      dup1\n        /* \"#utility.yul\":2043:2046   */\n      0x80\n        /* \"#utility.yul\":2031:2040   */\n      dup6\n        /* \"#utility.yul\":2022:2029   */\n      dup8\n        /* \"#utility.yul\":2018:2041   */\n      sub\n        /* \"#utility.yul\":2014:2047   */\n      slt\n        /* \"#utility.yul\":2011:2131   */\n      iszero\n      tag_357\n      jumpi\n        /* \"#utility.yul\":2050:2129   */\n      tag_358\n      tag_244\n      jump\t// in\n    tag_358:\n        /* \"#utility.yul\":2011:2131   */\n    tag_357:\n        /* \"#utility.yul\":2170:2171   */\n      0x00\n        /* \"#utility.yul\":2195:2248   */\n      tag_359\n        /* \"#utility.yul\":2240:2247   */\n      dup8\n        /* \"#utility.yul\":2231:2237   */\n      dup3\n        /* \"#utility.yul\":2220:2229   */\n      dup9\n        /* \"#utility.yul\":2216:2238   */\n      add\n        /* \"#utility.yul\":2195:2248   */\n      tag_249\n      jump\t// in\n    tag_359:\n        /* \"#utility.yul\":2185:2248   */\n      swap5\n      pop\n        /* \"#utility.yul\":2141:2258   */\n      pop\n        /* \"#utility.yul\":2297:2299   */\n      0x20\n        /* \"#utility.yul\":2323:2376   */\n      tag_360\n        /* \"#utility.yul\":2368:2375   */\n      dup8\n        /* \"#utility.yul\":2359:2365   */\n      dup3\n        /* \"#utility.yul\":2348:2357   */\n      dup9\n        /* \"#utility.yul\":2344:2366   */\n      add\n        /* \"#utility.yul\":2323:2376   */\n      tag_253\n      jump\t// in\n    tag_360:\n        /* \"#utility.yul\":2313:2376   */\n      swap4\n      pop\n        /* \"#utility.yul\":2268:2386   */\n      pop\n        /* \"#utility.yul\":2425:2427   */\n      0x40\n        /* \"#utility.yul\":2451:2504   */\n      tag_361\n        /* \"#utility.yul\":2496:2503   */\n      dup8\n        /* \"#utility.yul\":2487:2493   */\n      dup3\n        /* \"#utility.yul\":2476:2485   */\n      dup9\n        /* \"#utility.yul\":2472:2494   */\n      add\n        /* \"#utility.yul\":2451:2504   */\n      tag_253\n      jump\t// in\n    tag_361:\n        /* \"#utility.yul\":2441:2504   */\n      swap3\n      pop\n        /* \"#utility.yul\":2396:2514   */\n      pop\n        /* \"#utility.yul\":2553:2555   */\n      0x60\n        /* \"#utility.yul\":2579:2632   */\n      tag_362\n        /* \"#utility.yul\":2624:2631   */\n      dup8\n        /* \"#utility.yul\":2615:2621   */\n      dup3\n        /* \"#utility.yul\":2604:2613   */\n      dup9\n        /* \"#utility.yul\":2600:2622   */\n      add\n        /* \"#utility.yul\":2579:2632   */\n      tag_253\n      jump\t// in\n    tag_362:\n        /* \"#utility.yul\":2569:2632   */\n      swap2\n      pop\n        /* \"#utility.yul\":2524:2642   */\n      pop\n        /* \"#utility.yul\":1884:2649   */\n      swap3\n      swap6\n      swap2\n      swap5\n      pop\n      swap3\n      pop\n      jump\t// out\n        /* \"#utility.yul\":2655:2769   */\n    tag_254:\n        /* \"#utility.yul\":2722:2728   */\n      0x00\n        /* \"#utility.yul\":2756:2761   */\n      dup2\n        /* \"#utility.yul\":2750:2762   */\n      mload\n        /* \"#utility.yul\":2740:2762   */\n      swap1\n      pop\n        /* \"#utility.yul\":2655:2769   */\n      swap2\n      swap1\n      pop\n      jump\t// out\n        /* \"#utility.yul\":2775:2959   */\n    tag_255:\n        /* \"#utility.yul\":2874:2885   */\n      0x00\n        /* \"#utility.yul\":2908:2914   */\n      dup3\n        /* \"#utility.yul\":2903:2906   */\n      dup3\n        /* \"#utility.yul\":2896:2915   */\n      mstore\n        /* \"#utility.yul\":2948:2952   */\n      0x20\n        /* \"#utility.yul\":2943:2946   */\n      dup3\n        /* \"#utility.yul\":2939:2953   */\n      add\n        /* \"#utility.yul\":2924:2953   */\n      swap1\n      pop\n        /* \"#utility.yul\":2775:2959   */\n      swap3\n      swap2\n      pop\n      pop\n      jump\t// out\n        /* \"#utility.yul\":2965:3097   */\n    tag_256:\n        /* \"#utility.yul\":3032:3036   */\n      0x00\n        /* \"#utility.yul\":3055:3058   */\n      dup2\n        /* \"#utility.yul\":3047:3058   */\n      swap1\n      pop\n        /* \"#utility.yul\":3085:3089   */\n      0x20\n        /* \"#utility.yul\":3080:3083   */\n      dup3\n        /* \"#utility.yul\":3076:3090   */\n      add\n        /* \"#utility.yul\":3068:3090   */\n      swap1\n      pop\n        /* \"#utility.yul\":2965:3097   */\n      swap2\n      swap1\n      pop\n      jump\t// out\n        /* \"#utility.yul\":3103:3211   */\n    tag_257:\n        /* \"#utility.yul\":3180:3204   */\n      tag_367\n        /* \"#utility.yul\":3198:3203   */\n      dup2\n        /* \"#utility.yul\":3180:3204   */\n      tag_247\n      jump\t// in\n    tag_367:\n        /* \"#utility.yul\":3175:3178   */\n      dup3\n        /* \"#utility.yul\":3168:3205   */\n      mstore\n        /* \"#utility.yul\":3103:3211   */\n      pop\n      pop\n      jump\t// out\n        /* \"#utility.yul\":3217:3396   */\n    tag_258:\n        /* \"#utility.yul\":3286:3296   */\n      0x00\n        /* \"#utility.yul\":3307:3353   */\n      tag_369\n        /* \"#utility.yul\":3349:3352   */\n      dup4\n        /* \"#utility.yul\":3341:3347   */\n      dup4\n        /* \"#utility.yul\":3307:3353   */\n      tag_257\n      jump\t// in\n    tag_369:\n        /* \"#utility.yul\":3385:3389   */\n      0x20\n        /* \"#utility.yul\":3380:3383   */\n      dup4\n        /* \"#utility.yul\":3376:3390   */\n      add\n        /* \"#utility.yul\":3362:3390   */\n      swap1\n      pop\n        /* \"#utility.yul\":3217:3396   */\n      swap3\n      swap2\n      pop\n      pop\n      jump\t// out\n        /* \"#utility.yul\":3402:3515   */\n    tag_259:\n        /* \"#utility.yul\":3472:3476   */\n      0x00\n        /* \"#utility.yul\":3504:3508   */\n      0x20\n        /* \"#utility.yul\":3499:3502   */\n      dup3\n        /* \"#utility.yul\":3495:3509   */\n      add\n        /* \"#utility.yul\":3487:3509   */\n      swap1\n      pop\n        /* \"#utility.yul\":3402:3515   */\n      swap2\n      swap1\n      pop\n      jump\t// out\n        /* \"#utility.yul\":3551:4283   */\n    tag_260:\n        /* \"#utility.yul\":3670:3673   */\n      0x00\n        /* \"#utility.yul\":3699:3753   */\n      tag_372\n        /* \"#utility.yul\":3747:3752   */\n      dup3\n        /* \"#utility.yul\":3699:3753   */\n      tag_254\n      jump\t// in\n    tag_372:\n        /* \"#utility.yul\":3769:3855   */\n      tag_373\n        /* \"#utility.yul\":3848:3854   */\n      dup2\n        /* \"#utility.yul\":3843:3846   */\n      dup6\n        /* \"#utility.yul\":3769:3855   */\n      tag_255\n      jump\t// in\n    tag_373:\n        /* \"#utility.yul\":3762:3855   */\n      swap4\n      pop\n        /* \"#utility.yul\":3879:3935   */\n      tag_374\n        /* \"#utility.yul\":3929:3934   */\n      dup4\n        /* \"#utility.yul\":3879:3935   */\n      tag_256\n      jump\t// in\n    tag_374:\n        /* \"#utility.yul\":3958:3965   */\n      dup1\n        /* \"#utility.yul\":3989:3990   */\n      0x00\n        /* \"#utility.yul\":3974:4258   */\n    tag_375:\n        /* \"#utility.yul\":3999:4005   */\n      dup4\n        /* \"#utility.yul\":3996:3997   */\n      dup2\n        /* \"#utility.yul\":3993:4006   */\n      lt\n        /* \"#utility.yul\":3974:4258   */\n      iszero\n      tag_377\n      jumpi\n        /* \"#utility.yul\":4075:4081   */\n      dup2\n        /* \"#utility.yul\":4069:4082   */\n      mload\n        /* \"#utility.yul\":4102:4165   */\n      tag_378\n        /* \"#utility.yul\":4161:4164   */\n      dup9\n        /* \"#utility.yul\":4146:4159   */\n      dup3\n        /* \"#utility.yul\":4102:4165   */\n      tag_258\n      jump\t// in\n    tag_378:\n        /* \"#utility.yul\":4095:4165   */\n      swap8\n      pop\n        /* \"#utility.yul\":4188:4248   */\n      tag_379\n        /* \"#utility.yul\":4241:4247   */\n      dup4\n        /* \"#utility.yul\":4188:4248   */\n      tag_259\n      jump\t// in\n    tag_379:\n        /* \"#utility.yul\":4178:4248   */\n      swap3\n      pop\n        /* \"#utility.yul\":4034:4258   */\n      pop\n        /* \"#utility.yul\":4021:4022   */\n      0x01\n        /* \"#utility.yul\":4018:4019   */\n      dup2\n        /* \"#utility.yul\":4014:4023   */\n      add\n        /* \"#utility.yul\":4009:4023   */\n      swap1\n      pop\n        /* \"#utility.yul\":3974:4258   */\n      jump(tag_375)\n    tag_377:\n        /* \"#utility.yul\":3978:3992   */\n      pop\n        /* \"#utility.yul\":4274:4277   */\n      dup6\n        /* \"#utility.yul\":4267:4277   */\n      swap4\n      pop\n        /* \"#utility.yul\":3675:4283   */\n      pop\n      pop\n      pop\n        /* \"#utility.yul\":3551:4283   */\n      swap3\n      swap2\n      pop\n      pop\n      jump\t// out\n        /* \"#utility.yul\":4289:4403   */\n    tag_261:\n        /* \"#utility.yul\":4356:4362   */\n      0x00\n        /* \"#utility.yul\":4390:4395   */\n      dup2\n        /* \"#utility.yul\":4384:4396   */\n      mload\n        /* \"#utility.yul\":4374:4396   */\n      swap1\n      pop\n        /* \"#utility.yul\":4289:4403   */\n      swap2\n      swap1\n      pop\n      jump\t// out\n        /* \"#utility.yul\":4409:4593   */\n    tag_262:\n        /* \"#utility.yul\":4508:4519   */\n      0x00\n        /* \"#utility.yul\":4542:4548   */\n      dup3\n        /* \"#utility.yul\":4537:4540   */\n      dup3\n        /* \"#utility.yul\":4530:4549   */\n      mstore\n        /* \"#utility.yul\":4582:4586   */\n      0x20\n        /* \"#utility.yul\":4577:4580   */\n      dup3\n        /* \"#utility.yul\":4573:4587   */\n      add\n        /* \"#utility.yul\":4558:4587   */\n      swap1\n      pop\n        /* \"#utility.yul\":4409:4593   */\n      swap3\n      swap2\n      pop\n      pop\n      jump\t// out\n        /* \"#utility.yul\":4599:4731   */\n    tag_263:\n        /* \"#utility.yul\":4666:4670   */\n      0x00\n        /* \"#utility.yul\":4689:4692   */\n      dup2\n        /* \"#utility.yul\":4681:4692   */\n      swap1\n      pop\n        /* \"#utility.yul\":4719:4723   */\n      0x20\n        /* \"#utility.yul\":4714:4717   */\n      dup3\n        /* \"#utility.yul\":4710:4724   */\n      add\n        /* \"#utility.yul\":4702:4724   */\n      swap1\n      pop\n        /* \"#utility.yul\":4599:4731   */\n      swap2\n      swap1\n      pop\n      jump\t// out\n        /* \"#utility.yul\":4737:4845   */\n    tag_264:\n        /* \"#utility.yul\":4814:4838   */\n      tag_384\n        /* \"#utility.yul\":4832:4837   */\n      dup2\n        /* \"#utility.yul\":4814:4838   */\n      tag_250\n      jump\t// in\n    tag_384:\n        /* \"#utility.yul\":4809:4812   */\n      dup3\n        /* \"#utility.yul\":4802:4839   */\n      mstore\n        /* \"#utility.yul\":4737:4845   */\n      pop\n      pop\n      jump\t// out\n        /* \"#utility.yul\":4851:5030   */\n    tag_265:\n        /* \"#utility.yul\":4920:4930   */\n      0x00\n        /* \"#utility.yul\":4941:4987   */\n      tag_386\n        /* \"#utility.yul\":4983:4986   */\n      dup4\n        /* \"#utility.yul\":4975:4981   */\n      dup4\n        /* \"#utility.yul\":4941:4987   */\n      tag_264\n      jump\t// in\n    tag_386:\n        /* \"#utility.yul\":5019:5023   */\n      0x20\n        /* \"#utility.yul\":5014:5017   */\n      dup4\n        /* \"#utility.yul\":5010:5024   */\n      add\n        /* \"#utility.yul\":4996:5024   */\n      swap1\n      pop\n        /* \"#utility.yul\":4851:5030   */\n      swap3\n      swap2\n      pop\n      pop\n      jump\t// out\n        /* \"#utility.yul\":5036:5149   */\n    tag_266:\n        /* \"#utility.yul\":5106:5110   */\n      0x00\n        /* \"#utility.yul\":5138:5142   */\n      0x20\n        /* \"#utility.yul\":5133:5136   */\n      dup3\n        /* \"#utility.yul\":5129:5143   */\n      add\n        /* \"#utility.yul\":5121:5143   */\n      swap1\n      pop\n        /* \"#utility.yul\":5036:5149   */\n      swap2\n      swap1\n      pop\n      jump\t// out\n        /* \"#utility.yul\":5185:5917   */\n    tag_267:\n        /* \"#utility.yul\":5304:5307   */\n      0x00\n        /* \"#utility.yul\":5333:5387   */\n      tag_389\n        /* \"#utility.yul\":5381:5386   */\n      dup3\n        /* \"#utility.yul\":5333:5387   */\n      tag_261\n      jump\t// in\n    tag_389:\n        /* \"#utility.yul\":5403:5489   */\n      tag_390\n        /* \"#utility.yul\":5482:5488   */\n      dup2\n        /* \"#utility.yul\":5477:5480   */\n      dup6\n        /* \"#utility.yul\":5403:5489   */\n      tag_262\n      jump\t// in\n    tag_390:\n        /* \"#utility.yul\":5396:5489   */\n      swap4\n      pop\n        /* \"#utility.yul\":5513:5569   */\n      tag_391\n        /* \"#utility.yul\":5563:5568   */\n      dup4\n        /* \"#utility.yul\":5513:5569   */\n      tag_263\n      jump\t// in\n    tag_391:\n        /* \"#utility.yul\":5592:5599   */\n      dup1\n        /* \"#utility.yul\":5623:5624   */\n      0x00\n        /* \"#utility.yul\":5608:5892   */\n    tag_392:\n        /* \"#utility.yul\":5633:5639   */\n      dup4\n        /* \"#utility.yul\":5630:5631   */\n      dup2\n        /* \"#utility.yul\":5627:5640   */\n      lt\n        /* \"#utility.yul\":5608:5892   */\n      iszero\n      tag_394\n      jumpi\n        /* \"#utility.yul\":5709:5715   */\n      dup2\n        /* \"#utility.yul\":5703:5716   */\n      mload\n        /* \"#utility.yul\":5736:5799   */\n      tag_395\n        /* \"#utility.yul\":5795:5798   */\n      dup9\n        /* \"#utility.yul\":5780:5793   */\n      dup3\n        /* \"#utility.yul\":5736:5799   */\n      tag_265\n      jump\t// in\n    tag_395:\n        /* \"#utility.yul\":5729:5799   */\n      swap8\n      pop\n        /* \"#utility.yul\":5822:5882   */\n      tag_396\n        /* \"#utility.yul\":5875:5881   */\n      dup4\n        /* \"#utility.yul\":5822:5882   */\n      tag_266\n      jump\t// in\n    tag_396:\n        /* \"#utility.yul\":5812:5882   */\n      swap3\n      pop\n        /* \"#utility.yul\":5668:5892   */\n      pop\n        /* \"#utility.yul\":5655:5656   */\n      0x01\n        /* \"#utility.yul\":5652:5653   */\n      dup2\n        /* \"#utility.yul\":5648:5657   */\n      add\n        /* \"#utility.yul\":5643:5657   */\n      swap1\n      pop\n        /* \"#utility.yul\":5608:5892   */\n      jump(tag_392)\n    tag_394:\n        /* \"#utility.yul\":5612:5626   */\n      pop\n        /* \"#utility.yul\":5908:5911   */\n      dup6\n        /* \"#utility.yul\":5901:5911   */\n      swap4\n      pop\n        /* \"#utility.yul\":5309:5917   */\n      pop\n      pop\n      pop\n        /* \"#utility.yul\":5185:5917   */\n      swap3\n      swap2\n      pop\n      pop\n      jump\t// out\n        /* \"#utility.yul\":5923:6818   */\n    tag_33:\n        /* \"#utility.yul\":6222:6226   */\n      0x00\n        /* \"#utility.yul\":6260:6262   */\n      0x60\n        /* \"#utility.yul\":6249:6258   */\n      dup3\n        /* \"#utility.yul\":6245:6263   */\n      add\n        /* \"#utility.yul\":6237:6263   */\n      swap1\n      pop\n        /* \"#utility.yul\":6309:6318   */\n      dup2\n        /* \"#utility.yul\":6303:6307   */\n      dup2\n        /* \"#utility.yul\":6299:6319   */\n      sub\n        /* \"#utility.yul\":6295:6296   */\n      0x00\n        /* \"#utility.yul\":6284:6293   */\n      dup4\n        /* \"#utility.yul\":6280:6297   */\n      add\n        /* \"#utility.yul\":6273:6320   */\n      mstore\n        /* \"#utility.yul\":6337:6445   */\n      tag_398\n        /* \"#utility.yul\":6440:6444   */\n      dup2\n        /* \"#utility.yul\":6431:6437   */\n      dup7\n        /* \"#utility.yul\":6337:6445   */\n      tag_260\n      jump\t// in\n    tag_398:\n        /* \"#utility.yul\":6329:6445   */\n      swap1\n      pop\n        /* \"#utility.yul\":6492:6501   */\n      dup2\n        /* \"#utility.yul\":6486:6490   */\n      dup2\n        /* \"#utility.yul\":6482:6502   */\n      sub\n        /* \"#utility.yul\":6477:6479   */\n      0x20\n        /* \"#utility.yul\":6466:6475   */\n      dup4\n        /* \"#utility.yul\":6462:6480   */\n      add\n        /* \"#utility.yul\":6455:6503   */\n      mstore\n        /* \"#utility.yul\":6520:6628   */\n      tag_399\n        /* \"#utility.yul\":6623:6627   */\n      dup2\n        /* \"#utility.yul\":6614:6620   */\n      dup6\n        /* \"#utility.yul\":6520:6628   */\n      tag_267\n      jump\t// in\n    tag_399:\n        /* \"#utility.yul\":6512:6628   */\n      swap1\n      pop\n        /* \"#utility.yul\":6675:6684   */\n      dup2\n        /* \"#utility.yul\":6669:6673   */\n      dup2\n        /* \"#utility.yul\":6665:6685   */\n      sub\n        /* \"#utility.yul\":6660:6662   */\n      0x40\n        /* \"#utility.yul\":6649:6658   */\n      dup4\n        /* \"#utility.yul\":6645:6663   */\n      add\n        /* \"#utility.yul\":6638:6686   */\n      mstore\n        /* \"#utility.yul\":6703:6811   */\n      tag_400\n        /* \"#utility.yul\":6806:6810   */\n      dup2\n        /* \"#utility.yul\":6797:6803   */\n      dup5\n        /* \"#utility.yul\":6703:6811   */\n      tag_267\n      jump\t// in\n    tag_400:\n        /* \"#utility.yul\":6695:6811   */\n      swap1\n      pop\n        /* \"#utility.yul\":5923:6818   */\n      swap5\n      swap4\n      pop\n      pop\n      pop\n      pop\n      jump\t// out\n        /* \"#utility.yul\":6824:6941   */\n    tag_268:\n        /* \"#utility.yul\":6933:6934   */\n      0x00\n        /* \"#utility.yul\":6930:6931   */\n      dup1\n        /* \"#utility.yul\":6923:6935   */\n      revert\n        /* \"#utility.yul\":6947:7064   */\n    tag_269:\n        /* \"#utility.yul\":7056:7057   */\n      0x00\n        /* \"#utility.yul\":7053:7054   */\n      dup1\n        /* \"#utility.yul\":7046:7058   */\n      revert\n        /* \"#utility.yul\":7070:7172   */\n    tag_270:\n        /* \"#utility.yul\":7111:7117   */\n      0x00\n        /* \"#utility.yul\":7162:7164   */\n      0x1f\n        /* \"#utility.yul\":7158:7165   */\n      not\n        /* \"#utility.yul\":7153:7155   */\n      0x1f\n        /* \"#utility.yul\":7146:7151   */\n      dup4\n        /* \"#utility.yul\":7142:7156   */\n      add\n        /* \"#utility.yul\":7138:7166   */\n      and\n        /* \"#utility.yul\":7128:7166   */\n      swap1\n      pop\n        /* \"#utility.yul\":7070:7172   */\n      swap2\n      swap1\n      pop\n      jump\t// out\n        /* \"#utility.yul\":7178:7358   */\n    tag_105:\n        /* \"#utility.yul\":7226:7303   */\n      0x4e487b7100000000000000000000000000000000000000000000000000000000\n        /* \"#utility.yul\":7223:7224   */\n      0x00\n        /* \"#utility.yul\":7216:7304   */\n      mstore\n        /* \"#utility.yul\":7323:7327   */\n      0x41\n        /* \"#utility.yul\":7320:7321   */\n      0x04\n        /* \"#utility.yul\":7313:7328   */\n      mstore\n        /* \"#utility.yul\":7347:7351   */\n      0x24\n        /* \"#utility.yul\":7344:7345   */\n      0x00\n        /* \"#utility.yul\":7337:7352   */\n      revert\n        /* \"#utility.yul\":7364:7645   */\n    tag_271:\n        /* \"#utility.yul\":7447:7474   */\n      tag_406\n        /* \"#utility.yul\":7469:7473   */\n      dup3\n        /* \"#utility.yul\":7447:7474   */\n      tag_270\n      jump\t// in\n    tag_406:\n        /* \"#utility.yul\":7439:7445   */\n      dup2\n        /* \"#utility.yul\":7435:7475   */\n      add\n        /* \"#utility.yul\":7577:7583   */\n      dup2\n        /* \"#utility.yul\":7565:7575   */\n      dup2\n        /* \"#utility.yul\":7562:7584   */\n      lt\n        /* \"#utility.yul\":7541:7559   */\n      0xffffffffffffffff\n        /* \"#utility.yul\":7529:7539   */\n      dup3\n        /* \"#utility.yul\":7526:7560   */\n      gt\n        /* \"#utility.yul\":7523:7585   */\n      or\n        /* \"#utility.yul\":7520:7608   */\n      iszero\n      tag_407\n      jumpi\n        /* \"#utility.yul\":7588:7606   */\n      tag_408\n      tag_105\n      jump\t// in\n    tag_408:\n        /* \"#utility.yul\":7520:7608   */\n    tag_407:\n        /* \"#utility.yul\":7628:7638   */\n      dup1\n        /* \"#utility.yul\":7624:7626   */\n      0x40\n        /* \"#utility.yul\":7617:7639   */\n      mstore\n        /* \"#utility.yul\":7407:7645   */\n      pop\n        /* \"#utility.yul\":7364:7645   */\n      pop\n      pop\n      jump\t// out\n        /* \"#utility.yul\":7651:7780   */\n    tag_272:\n        /* \"#utility.yul\":7685:7691   */\n      0x00\n        /* \"#utility.yul\":7712:7732   */\n      tag_410\n      tag_243\n      jump\t// in\n    tag_410:\n        /* \"#utility.yul\":7702:7732   */\n      swap1\n      pop\n        /* \"#utility.yul\":7741:7774   */\n      tag_411\n        /* \"#utility.yul\":7769:7773   */\n      dup3\n        /* \"#utility.yul\":7761:7767   */\n      dup3\n        /* \"#utility.yul\":7741:7774   */\n      tag_271\n      jump\t// in\n    tag_411:\n        /* \"#utility.yul\":7651:7780   */\n      swap2\n      swap1\n      pop\n      jump\t// out\n        /* \"#utility.yul\":7786:8094   */\n    tag_273:\n        /* \"#utility.yul\":7848:7852   */\n      0x00\n        /* \"#utility.yul\":7938:7956   */\n      0xffffffffffffffff\n        /* \"#utility.yul\":7930:7936   */\n      dup3\n        /* \"#utility.yul\":7927:7957   */\n      gt\n        /* \"#utility.yul\":7924:7980   */\n      iszero\n      tag_413\n      jumpi\n        /* \"#utility.yul\":7960:7978   */\n      tag_414\n      tag_105\n      jump\t// in\n    tag_414:\n        /* \"#utility.yul\":7924:7980   */\n    tag_413:\n        /* \"#utility.yul\":7998:8027   */\n      tag_415\n        /* \"#utility.yul\":8020:8026   */\n      dup3\n        /* \"#utility.yul\":7998:8027   */\n      tag_270\n      jump\t// in\n    tag_415:\n        /* \"#utility.yul\":7990:8027   */\n      swap1\n      pop\n        /* \"#utility.yul\":8082:8086   */\n      0x20\n        /* \"#utility.yul\":8076:8080   */\n      dup2\n        /* \"#utility.yul\":8072:8087   */\n      add\n        /* \"#utility.yul\":8064:8087   */\n      swap1\n      pop\n        /* \"#utility.yul\":7786:8094   */\n      swap2\n      swap1\n      pop\n      jump\t// out\n        /* \"#utility.yul\":8100:8248   */\n    tag_274:\n        /* \"#utility.yul\":8198:8204   */\n      dup3\n        /* \"#utility.yul\":8193:8196   */\n      dup2\n        /* \"#utility.yul\":8188:8191   */\n      dup4\n        /* \"#utility.yul\":8175:8205   */\n      calldatacopy\n        /* \"#utility.yul\":8239:8240   */\n      0x00\n        /* \"#utility.yul\":8230:8236   */\n      dup4\n        /* \"#utility.yul\":8225:8228   */\n      dup4\n        /* \"#utility.yul\":8221:8237   */\n      add\n        /* \"#utility.yul\":8214:8241   */\n      mstore\n        /* \"#utility.yul\":8100:8248   */\n      pop\n      pop\n      pop\n      jump\t// out\n        /* \"#utility.yul\":8254:8679   */\n    tag_275:\n        /* \"#utility.yul\":8332:8337   */\n      0x00\n        /* \"#utility.yul\":8357:8423   */\n      tag_418\n        /* \"#utility.yul\":8373:8422   */\n      tag_419\n        /* \"#utility.yul\":8415:8421   */\n      dup5\n        /* \"#utility.yul\":8373:8422   */\n      tag_273\n      jump\t// in\n    tag_419:\n        /* \"#utility.yul\":8357:8423   */\n      tag_272\n      jump\t// in\n    tag_418:\n        /* \"#utility.yul\":8348:8423   */\n      swap1\n      pop\n        /* \"#utility.yul\":8446:8452   */\n      dup3\n        /* \"#utility.yul\":8439:8444   */\n      dup2\n        /* \"#utility.yul\":8432:8453   */\n      mstore\n        /* \"#utility.yul\":8484:8488   */\n      0x20\n        /* \"#utility.yul\":8477:8482   */\n      dup2\n        /* \"#utility.yul\":8473:8489   */\n      add\n        /* \"#utility.yul\":8522:8525   */\n      dup5\n        /* \"#utility.yul\":8513:8519   */\n      dup5\n        /* \"#utility.yul\":8508:8511   */\n      dup5\n        /* \"#utility.yul\":8504:8520   */\n      add\n        /* \"#utility.yul\":8501:8526   */\n      gt\n        /* \"#utility.yul\":8498:8610   */\n      iszero\n      tag_420\n      jumpi\n        /* \"#utility.yul\":8529:8608   */\n      tag_421\n      tag_269\n      jump\t// in\n    tag_421:\n        /* \"#utility.yul\":8498:8610   */\n    tag_420:\n        /* \"#utility.yul\":8619:8673   */\n      tag_422\n        /* \"#utility.yul\":8666:8672   */\n      dup5\n        /* \"#utility.yul\":8661:8664   */\n      dup3\n        /* \"#utility.yul\":8656:8659   */\n      dup6\n        /* \"#utility.yul\":8619:8673   */\n      tag_274\n      jump\t// in\n    tag_422:\n        /* \"#utility.yul\":8338:8679   */\n      pop\n        /* \"#utility.yul\":8254:8679   */\n      swap4\n      swap3\n      pop\n      pop\n      pop\n      jump\t// out\n        /* \"#utility.yul\":8699:9039   */\n    tag_276:\n        /* \"#utility.yul\":8755:8760   */\n      0x00\n        /* \"#utility.yul\":8804:8807   */\n      dup3\n        /* \"#utility.yul\":8797:8801   */\n      0x1f\n        /* \"#utility.yul\":8789:8795   */\n      dup4\n        /* \"#utility.yul\":8785:8802   */\n      add\n        /* \"#utility.yul\":8781:8808   */\n      slt\n        /* \"#utility.yul\":8771:8893   */\n      tag_424\n      jumpi\n        /* \"#utility.yul\":8812:8891   */\n      tag_425\n      tag_268\n      jump\t// in\n    tag_425:\n        /* \"#utility.yul\":8771:8893   */\n    tag_424:\n        /* \"#utility.yul\":8929:8935   */\n      dup2\n        /* \"#utility.yul\":8916:8936   */\n      calldataload\n        /* \"#utility.yul\":8954:9033   */\n      tag_426\n        /* \"#utility.yul\":9029:9032   */\n      dup5\n        /* \"#utility.yul\":9021:9027   */\n      dup3\n        /* \"#utility.yul\":9014:9018   */\n      0x20\n        /* \"#utility.yul\":9006:9012   */\n      dup7\n        /* \"#utility.yul\":9002:9019   */\n      add\n        /* \"#utility.yul\":8954:9033   */\n      tag_275\n      jump\t// in\n    tag_426:\n        /* \"#utility.yul\":8945:9033   */\n      swap2\n      pop\n        /* \"#utility.yul\":8761:9039   */\n      pop\n        /* \"#utility.yul\":8699:9039   */\n      swap3\n      swap2\n      pop\n      pop\n      jump\t// out\n        /* \"#utility.yul\":9045:9844   */\n    tag_36:\n        /* \"#utility.yul\":9132:9138   */\n      0x00\n        /* \"#utility.yul\":9140:9146   */\n      dup1\n        /* \"#utility.yul\":9148:9154   */\n      0x00\n        /* \"#utility.yul\":9197:9199   */\n      0x60\n        /* \"#utility.yul\":9185:9194   */\n      dup5\n        /* \"#utility.yul\":9176:9183   */\n      dup7\n        /* \"#utility.yul\":9172:9195   */\n      sub\n        /* \"#utility.yul\":9168:9200   */\n      slt\n        /* \"#utility.yul\":9165:9284   */\n      iszero\n      tag_428\n      jumpi\n        /* \"#utility.yul\":9203:9282   */\n      tag_429\n      tag_244\n      jump\t// in\n    tag_429:\n        /* \"#utility.yul\":9165:9284   */\n    tag_428:\n        /* \"#utility.yul\":9323:9324   */\n      0x00\n        /* \"#utility.yul\":9348:9401   */\n      tag_430\n        /* \"#utility.yul\":9393:9400   */\n      dup7\n        /* \"#utility.yul\":9384:9390   */\n      dup3\n        /* \"#utility.yul\":9373:9382   */\n      dup8\n        /* \"#utility.yul\":9369:9391   */\n      add\n        /* \"#utility.yul\":9348:9401   */\n      tag_249\n      jump\t// in\n    tag_430:\n        /* \"#utility.yul\":9338:9401   */\n      swap4\n      pop\n        /* \"#utility.yul\":9294:9411   */\n      pop\n        /* \"#utility.yul\":9450:9452   */\n      0x20\n        /* \"#utility.yul\":9476:9529   */\n      tag_431\n        /* \"#utility.yul\":9521:9528   */\n      dup7\n        /* \"#utility.yul\":9512:9518   */\n      dup3\n        /* \"#utility.yul\":9501:9510   */\n      dup8\n        /* \"#utility.yul\":9497:9519   */\n      add\n        /* \"#utility.yul\":9476:9529   */\n      tag_253\n      jump\t// in\n    tag_431:\n        /* \"#utility.yul\":9466:9529   */\n      swap3\n      pop\n        /* \"#utility.yul\":9421:9539   */\n      pop\n        /* \"#utility.yul\":9606:9608   */\n      0x40\n        /* \"#utility.yul\":9595:9604   */\n      dup5\n        /* \"#utility.yul\":9591:9609   */\n      add\n        /* \"#utility.yul\":9578:9610   */\n      calldataload\n        /* \"#utility.yul\":9637:9655   */\n      0xffffffffffffffff\n        /* \"#utility.yul\":9629:9635   */\n      dup2\n        /* \"#utility.yul\":9626:9656   */\n      gt\n        /* \"#utility.yul\":9623:9740   */\n      iszero\n      tag_432\n      jumpi\n        /* \"#utility.yul\":9659:9738   */\n      tag_433\n      tag_245\n      jump\t// in\n    tag_433:\n        /* \"#utility.yul\":9623:9740   */\n    tag_432:\n        /* \"#utility.yul\":9764:9827   */\n      tag_434\n        /* \"#utility.yul\":9819:9826   */\n      dup7\n        /* \"#utility.yul\":9810:9816   */\n      dup3\n        /* \"#utility.yul\":9799:9808   */\n      dup8\n        /* \"#utility.yul\":9795:9817   */\n      add\n        /* \"#utility.yul\":9764:9827   */\n      tag_276\n      jump\t// in\n    tag_434:\n        /* \"#utility.yul\":9754:9827   */\n      swap2\n      pop\n        /* \"#utility.yul\":9549:9837   */\n      pop\n        /* \"#utility.yul\":9045:9844   */\n      swap3\n      pop\n      swap3\n      pop\n      swap3\n      jump\t// out\n        /* \"#utility.yul\":9850:10324   */\n    tag_43:\n        /* \"#utility.yul\":9918:9924   */\n      0x00\n        /* \"#utility.yul\":9926:9932   */\n      dup1\n        /* \"#utility.yul\":9975:9977   */\n      0x40\n        /* \"#utility.yul\":9963:9972   */\n      dup4\n        /* \"#utility.yul\":9954:9961   */\n      dup6\n        /* \"#utility.yul\":9950:9973   */\n      sub\n        /* \"#utility.yul\":9946:9978   */\n      slt\n        /* \"#utility.yul\":9943:10062   */\n      iszero\n      tag_436\n      jumpi\n        /* \"#utility.yul\":9981:10060   */\n      tag_437\n      tag_244\n      jump\t// in\n    tag_437:\n        /* \"#utility.yul\":9943:10062   */\n    tag_436:\n        /* \"#utility.yul\":10101:10102   */\n      0x00\n        /* \"#utility.yul\":10126:10179   */\n      tag_438\n        /* \"#utility.yul\":10171:10178   */\n      dup6\n        /* \"#utility.yul\":10162:10168   */\n      dup3\n        /* \"#utility.yul\":10151:10160   */\n      dup7\n        /* \"#utility.yul\":10147:10169   */\n      add\n        /* \"#utility.yul\":10126:10179   */\n      tag_249\n      jump\t// in\n    tag_438:\n        /* \"#utility.yul\":10116:10179   */\n      swap3\n      pop\n        /* \"#utility.yul\":10072:10189   */\n      pop\n        /* \"#utility.yul\":10228:10230   */\n      0x20\n        /* \"#utility.yul\":10254:10307   */\n      tag_439\n        /* \"#utility.yul\":10299:10306   */\n      dup6\n        /* \"#utility.yul\":10290:10296   */\n      dup3\n        /* \"#utility.yul\":10279:10288   */\n      dup7\n        /* \"#utility.yul\":10275:10297   */\n      add\n        /* \"#utility.yul\":10254:10307   */\n      tag_253\n      jump\t// in\n    tag_439:\n        /* \"#utility.yul\":10244:10307   */\n      swap2\n      pop\n        /* \"#utility.yul\":10199:10317   */\n      pop\n        /* \"#utility.yul\":9850:10324   */\n      swap3\n      pop\n      swap3\n      swap1\n      pop\n      jump\t// out\n        /* \"#utility.yul\":10330:10659   */\n    tag_47:\n        /* \"#utility.yul\":10389:10395   */\n      0x00\n        /* \"#utility.yul\":10438:10440   */\n      0x20\n        /* \"#utility.yul\":10426:10435   */\n      dup3\n        /* \"#utility.yul\":10417:10424   */\n      dup5\n        /* \"#utility.yul\":10413:10436   */\n      sub\n        /* \"#utility.yul\":10409:10441   */\n      slt\n        /* \"#utility.yul\":10406:10525   */\n      iszero\n      tag_441\n      jumpi\n        /* \"#utility.yul\":10444:10523   */\n      tag_442\n      tag_244\n      jump\t// in\n    tag_442:\n        /* \"#utility.yul\":10406:10525   */\n    tag_441:\n        /* \"#utility.yul\":10564:10565   */\n      0x00\n        /* \"#utility.yul\":10589:10642   */\n      tag_443\n        /* \"#utility.yul\":10634:10641   */\n      dup5\n        /* \"#utility.yul\":10625:10631   */\n      dup3\n        /* \"#utility.yul\":10614:10623   */\n      dup6\n        /* \"#utility.yul\":10610:10632   */\n      add\n        /* \"#utility.yul\":10589:10642   */\n      tag_253\n      jump\t// in\n    tag_443:\n        /* \"#utility.yul\":10579:10642   */\n      swap2\n      pop\n        /* \"#utility.yul\":10535:10652   */\n      pop\n        /* \"#utility.yul\":10330:10659   */\n      swap3\n      swap2\n      pop\n      pop\n      jump\t// out\n        /* \"#utility.yul\":10665:10783   */\n    tag_277:\n        /* \"#utility.yul\":10752:10776   */\n      tag_445\n        /* \"#utility.yul\":10770:10775   */\n      dup2\n        /* \"#utility.yul\":10752:10776   */\n      tag_247\n      jump\t// in\n    tag_445:\n        /* \"#utility.yul\":10747:10750   */\n      dup3\n        /* \"#utility.yul\":10740:10777   */\n      mstore\n        /* \"#utility.yul\":10665:10783   */\n      pop\n      pop\n      jump\t// out\n        /* \"#utility.yul\":10789:11011   */\n    tag_50:\n        /* \"#utility.yul\":10882:10886   */\n      0x00\n        /* \"#utility.yul\":10920:10922   */\n      0x20\n        /* \"#utility.yul\":10909:10918   */\n      dup3\n        /* \"#utility.yul\":10905:10923   */\n      add\n        /* \"#utility.yul\":10897:10923   */\n      swap1\n      pop\n        /* \"#utility.yul\":10933:11004   */\n      tag_447\n        /* \"#utility.yul\":11001:11002   */\n      0x00\n        /* \"#utility.yul\":10990:10999   */\n      dup4\n        /* \"#utility.yul\":10986:11003   */\n      add\n        /* \"#utility.yul\":10977:10983   */\n      dup5\n        /* \"#utility.yul\":10933:11004   */\n      tag_277\n      jump\t// in\n    tag_447:\n        /* \"#utility.yul\":10789:11011   */\n      swap3\n      swap2\n      pop\n      pop\n      jump\t// out\n        /* \"#utility.yul\":11017:11636   */\n    tag_53:\n        /* \"#utility.yul\":11094:11100   */\n      0x00\n        /* \"#utility.yul\":11102:11108   */\n      dup1\n        /* \"#utility.yul\":11110:11116   */\n      0x00\n        /* \"#utility.yul\":11159:11161   */\n      0x60\n        /* \"#utility.yul\":11147:11156   */\n      dup5\n        /* \"#utility.yul\":11138:11145   */\n      dup7\n        /* \"#utility.yul\":11134:11157   */\n      sub\n        /* \"#utility.yul\":11130:11162   */\n      slt\n        /* \"#utility.yul\":11127:11246   */\n      iszero\n      tag_449\n      jumpi\n        /* \"#utility.yul\":11165:11244   */\n      tag_450\n      tag_244\n      jump\t// in\n    tag_450:\n        /* \"#utility.yul\":11127:11246   */\n    tag_449:\n        /* \"#utility.yul\":11285:11286   */\n      0x00\n        /* \"#utility.yul\":11310:11363   */\n      tag_451\n        /* \"#utility.yul\":11355:11362   */\n      dup7\n        /* \"#utility.yul\":11346:11352   */\n      dup3\n        /* \"#utility.yul\":11335:11344   */\n      dup8\n        /* \"#utility.yul\":11331:11353   */\n      add\n        /* \"#utility.yul\":11310:11363   */\n      tag_249\n      jump\t// in\n    tag_451:\n        /* \"#utility.yul\":11300:11363   */\n      swap4\n      pop\n        /* \"#utility.yul\":11256:11373   */\n      pop\n        /* \"#utility.yul\":11412:11414   */\n      0x20\n        /* \"#utility.yul\":11438:11491   */\n      tag_452\n        /* \"#utility.yul\":11483:11490   */\n      dup7\n        /* \"#utility.yul\":11474:11480   */\n      dup3\n        /* \"#utility.yul\":11463:11472   */\n      dup8\n        /* \"#utility.yul\":11459:11481   */\n      add\n        /* \"#utility.yul\":11438:11491   */\n      tag_253\n      jump\t// in\n    tag_452:\n        /* \"#utility.yul\":11428:11491   */\n      swap3\n      pop\n        /* \"#utility.yul\":11383:11501   */\n      pop\n        /* \"#utility.yul\":11540:11542   */\n      0x40\n        /* \"#utility.yul\":11566:11619   */\n      tag_453\n        /* \"#utility.yul\":11611:11618   */\n      dup7\n        /* \"#utility.yul\":11602:11608   */\n      dup3\n        /* \"#utility.yul\":11591:11600   */\n      dup8\n        /* \"#utility.yul\":11587:11609   */\n      add\n        /* \"#utility.yul\":11566:11619   */\n      tag_253\n      jump\t// in\n    tag_453:\n        /* \"#utility.yul\":11556:11619   */\n      swap2\n      pop\n        /* \"#utility.yul\":11511:11629   */\n      pop\n        /* \"#utility.yul\":11017:11636   */\n      swap3\n      pop\n      swap3\n      pop\n      swap3\n      jump\t// out\n        /* \"#utility.yul\":11642:11732   */\n    tag_278:\n        /* \"#utility.yul\":11676:11683   */\n      0x00\n        /* \"#utility.yul\":11719:11724   */\n      dup2\n        /* \"#utility.yul\":11712:11725   */\n      iszero\n        /* \"#utility.yul\":11705:11726   */\n      iszero\n        /* \"#utility.yul\":11694:11726   */\n      swap1\n      pop\n        /* \"#utility.yul\":11642:11732   */\n      swap2\n      swap1\n      pop\n      jump\t// out\n        /* \"#utility.yul\":11738:11847   */\n    tag_279:\n        /* \"#utility.yul\":11819:11840   */\n      tag_456\n        /* \"#utility.yul\":11834:11839   */\n      dup2\n        /* \"#utility.yul\":11819:11840   */\n      tag_278\n      jump\t// in\n    tag_456:\n        /* \"#utility.yul\":11814:11817   */\n      dup3\n        /* \"#utility.yul\":11807:11841   */\n      mstore\n        /* \"#utility.yul\":11738:11847   */\n      pop\n      pop\n      jump\t// out\n        /* \"#utility.yul\":11853:12727   */\n    tag_60:\n        /* \"#utility.yul\":12108:12112   */\n      0x00\n        /* \"#utility.yul\":12146:12149   */\n      0xe0\n        /* \"#utility.yul\":12135:12144   */\n      dup3\n        /* \"#utility.yul\":12131:12150   */\n      add\n        /* \"#utility.yul\":12123:12150   */\n      swap1\n      pop\n        /* \"#utility.yul\":12160:12231   */\n      tag_458\n        /* \"#utility.yul\":12228:12229   */\n      0x00\n        /* \"#utility.yul\":12217:12226   */\n      dup4\n        /* \"#utility.yul\":12213:12230   */\n      add\n        /* \"#utility.yul\":12204:12210   */\n      dup11\n        /* \"#utility.yul\":12160:12231   */\n      tag_277\n      jump\t// in\n    tag_458:\n        /* \"#utility.yul\":12241:12313   */\n      tag_459\n        /* \"#utility.yul\":12309:12311   */\n      0x20\n        /* \"#utility.yul\":12298:12307   */\n      dup4\n        /* \"#utility.yul\":12294:12312   */\n      add\n        /* \"#utility.yul\":12285:12291   */\n      dup10\n        /* \"#utility.yul\":12241:12313   */\n      tag_251\n      jump\t// in\n    tag_459:\n        /* \"#utility.yul\":12323:12395   */\n      tag_460\n        /* \"#utility.yul\":12391:12393   */\n      0x40\n        /* \"#utility.yul\":12380:12389   */\n      dup4\n        /* \"#utility.yul\":12376:12394   */\n      add\n        /* \"#utility.yul\":12367:12373   */\n      dup9\n        /* \"#utility.yul\":12323:12395   */\n      tag_251\n      jump\t// in\n    tag_460:\n        /* \"#utility.yul\":12405:12477   */\n      tag_461\n        /* \"#utility.yul\":12473:12475   */\n      0x60\n        /* \"#utility.yul\":12462:12471   */\n      dup4\n        /* \"#utility.yul\":12458:12476   */\n      add\n        /* \"#utility.yul\":12449:12455   */\n      dup8\n        /* \"#utility.yul\":12405:12477   */\n      tag_251\n      jump\t// in\n    tag_461:\n        /* \"#utility.yul\":12487:12560   */\n      tag_462\n        /* \"#utility.yul\":12555:12558   */\n      0x80\n        /* \"#utility.yul\":12544:12553   */\n      dup4\n        /* \"#utility.yul\":12540:12559   */\n      add\n        /* \"#utility.yul\":12531:12537   */\n      dup7\n        /* \"#utility.yul\":12487:12560   */\n      tag_251\n      jump\t// in\n    tag_462:\n        /* \"#utility.yul\":12570:12637   */\n      tag_463\n        /* \"#utility.yul\":12632:12635   */\n      0xa0\n        /* \"#utility.yul\":12621:12630   */\n      dup4\n        /* \"#utility.yul\":12617:12636   */\n      add\n        /* \"#utility.yul\":12608:12614   */\n      dup6\n        /* \"#utility.yul\":12570:12637   */\n      tag_279\n      jump\t// in\n    tag_463:\n        /* \"#utility.yul\":12647:12720   */\n      tag_464\n        /* \"#utility.yul\":12715:12718   */\n      0xc0\n        /* \"#utility.yul\":12704:12713   */\n      dup4\n        /* \"#utility.yul\":12700:12719   */\n      add\n        /* \"#utility.yul\":12691:12697   */\n      dup5\n        /* \"#utility.yul\":12647:12720   */\n      tag_251\n      jump\t// in\n    tag_464:\n        /* \"#utility.yul\":11853:12727   */\n      swap9\n      swap8\n      pop\n      pop\n      pop\n      pop\n      pop\n      pop\n      pop\n      pop\n      jump\t// out\n        /* \"#utility.yul\":12733:12913   */\n    tag_280:\n        /* \"#utility.yul\":12781:12858   */\n      0x4e487b7100000000000000000000000000000000000000000000000000000000\n        /* \"#utility.yul\":12778:12779   */\n      0x00\n        /* \"#utility.yul\":12771:12859   */\n      mstore\n        /* \"#utility.yul\":12878:12882   */\n      0x22\n        /* \"#utility.yul\":12875:12876   */\n      0x04\n        /* \"#utility.yul\":12868:12883   */\n      mstore\n        /* \"#utility.yul\":12902:12906   */\n      0x24\n        /* \"#utility.yul\":12899:12900   */\n      0x00\n        /* \"#utility.yul\":12892:12907   */\n      revert\n        /* \"#utility.yul\":12919:13239   */\n    tag_73:\n        /* \"#utility.yul\":12963:12969   */\n      0x00\n        /* \"#utility.yul\":13000:13001   */\n      0x02\n        /* \"#utility.yul\":12994:12998   */\n      dup3\n        /* \"#utility.yul\":12990:13002   */\n      div\n        /* \"#utility.yul\":12980:13002   */\n      swap1\n      pop\n        /* \"#utility.yul\":13047:13048   */\n      0x01\n        /* \"#utility.yul\":13041:13045   */\n      dup3\n        /* \"#utility.yul\":13037:13049   */\n      and\n        /* \"#utility.yul\":13068:13086   */\n      dup1\n        /* \"#utility.yul\":13058:13139   */\n      tag_467\n      jumpi\n        /* \"#utility.yul\":13124:13128   */\n      0x7f\n        /* \"#utility.yul\":13116:13122   */\n      dup3\n        /* \"#utility.yul\":13112:13129   */\n      and\n        /* \"#utility.yul\":13102:13129   */\n      swap2\n      pop\n        /* \"#utility.yul\":13058:13139   */\n    tag_467:\n        /* \"#utility.yul\":13186:13188   */\n      0x20\n        /* \"#utility.yul\":13178:13184   */\n      dup3\n        /* \"#utility.yul\":13175:13189   */\n      lt\n        /* \"#utility.yul\":13155:13173   */\n      dup2\n        /* \"#utility.yul\":13152:13190   */\n      sub\n        /* \"#utility.yul\":13149:13233   */\n      tag_468\n      jumpi\n        /* \"#utility.yul\":13205:13223   */\n      tag_469\n      tag_280\n      jump\t// in\n    tag_469:\n        /* \"#utility.yul\":13149:13233   */\n    tag_468:\n        /* \"#utility.yul\":12970:13239   */\n      pop\n        /* \"#utility.yul\":12919:13239   */\n      swap2\n      swap1\n      pop\n      jump\t// out\n        /* \"#utility.yul\":13245:13414   */\n    tag_281:\n        /* \"#utility.yul\":13329:13340   */\n      0x00\n        /* \"#utility.yul\":13363:13369   */\n      dup3\n        /* \"#utility.yul\":13358:13361   */\n      dup3\n        /* \"#utility.yul\":13351:13370   */\n      mstore\n        /* \"#utility.yul\":13403:13407   */\n      0x20\n        /* \"#utility.yul\":13398:13401   */\n      dup3\n        /* \"#utility.yul\":13394:13408   */\n      add\n        /* \"#utility.yul\":13379:13408   */\n      swap1\n      pop\n        /* \"#utility.yul\":13245:13414   */\n      swap3\n      swap2\n      pop\n      pop\n      jump\t// out\n        /* \"#utility.yul\":13420:13595   */\n    tag_282:\n        /* \"#utility.yul\":13560:13587   */\n      0x4578706f736974696f6e20636f7572616e7465206e756c6c6500000000000000\n        /* \"#utility.yul\":13556:13557   */\n      0x00\n        /* \"#utility.yul\":13548:13554   */\n      dup3\n        /* \"#utility.yul\":13544:13558   */\n      add\n        /* \"#utility.yul\":13537:13588   */\n      mstore\n        /* \"#utility.yul\":13420:13595   */\n      pop\n      jump\t// out\n        /* \"#utility.yul\":13601:13967   */\n    tag_283:\n        /* \"#utility.yul\":13743:13746   */\n      0x00\n        /* \"#utility.yul\":13764:13831   */\n      tag_473\n        /* \"#utility.yul\":13828:13830   */\n      0x19\n        /* \"#utility.yul\":13823:13826   */\n      dup4\n        /* \"#utility.yul\":13764:13831   */\n      tag_281\n      jump\t// in\n    tag_473:\n        /* \"#utility.yul\":13757:13831   */\n      swap2\n      pop\n        /* \"#utility.yul\":13840:13933   */\n      tag_474\n        /* \"#utility.yul\":13929:13932   */\n      dup3\n        /* \"#utility.yul\":13840:13933   */\n      tag_282\n      jump\t// in\n    tag_474:\n        /* \"#utility.yul\":13958:13960   */\n      0x20\n        /* \"#utility.yul\":13953:13956   */\n      dup3\n        /* \"#utility.yul\":13949:13961   */\n      add\n        /* \"#utility.yul\":13942:13961   */\n      swap1\n      pop\n        /* \"#utility.yul\":13601:13967   */\n      swap2\n      swap1\n      pop\n      jump\t// out\n        /* \"#utility.yul\":13973:14392   */\n    tag_80:\n        /* \"#utility.yul\":14139:14143   */\n      0x00\n        /* \"#utility.yul\":14177:14179   */\n      0x20\n        /* \"#utility.yul\":14166:14175   */\n      dup3\n        /* \"#utility.yul\":14162:14180   */\n      add\n        /* \"#utility.yul\":14154:14180   */\n      swap1\n      pop\n        /* \"#utility.yul\":14226:14235   */\n      dup2\n        /* \"#utility.yul\":14220:14224   */\n      dup2\n        /* \"#utility.yul\":14216:14236   */\n      sub\n        /* \"#utility.yul\":14212:14213   */\n      0x00\n        /* \"#utility.yul\":14201:14210   */\n      dup4\n        /* \"#utility.yul\":14197:14214   */\n      add\n        /* \"#utility.yul\":14190:14237   */\n      mstore\n        /* \"#utility.yul\":14254:14385   */\n      tag_476\n        /* \"#utility.yul\":14380:14384   */\n      dup2\n        /* \"#utility.yul\":14254:14385   */\n      tag_283\n      jump\t// in\n    tag_476:\n        /* \"#utility.yul\":14246:14385   */\n      swap1\n      pop\n        /* \"#utility.yul\":13973:14392   */\n      swap2\n      swap1\n      pop\n      jump\t// out\n        /* \"#utility.yul\":14398:14578   */\n    tag_284:\n        /* \"#utility.yul\":14446:14523   */\n      0x4e487b7100000000000000000000000000000000000000000000000000000000\n        /* \"#utility.yul\":14443:14444   */\n      0x00\n        /* \"#utility.yul\":14436:14524   */\n      mstore\n        /* \"#utility.yul\":14543:14547   */\n      0x11\n        /* \"#utility.yul\":14540:14541   */\n      0x04\n        /* \"#utility.yul\":14533:14548   */\n      mstore\n        /* \"#utility.yul\":14567:14571   */\n      0x24\n        /* \"#utility.yul\":14564:14565   */\n      0x00\n        /* \"#utility.yul\":14557:14572   */\n      revert\n        /* \"#utility.yul\":14584:14994   */\n    tag_82:\n        /* \"#utility.yul\":14624:14631   */\n      0x00\n        /* \"#utility.yul\":14647:14667   */\n      tag_479\n        /* \"#utility.yul\":14665:14666   */\n      dup3\n        /* \"#utility.yul\":14647:14667   */\n      tag_250\n      jump\t// in\n    tag_479:\n        /* \"#utility.yul\":14642:14667   */\n      swap2\n      pop\n        /* \"#utility.yul\":14681:14701   */\n      tag_480\n        /* \"#utility.yul\":14699:14700   */\n      dup4\n        /* \"#utility.yul\":14681:14701   */\n      tag_250\n      jump\t// in\n    tag_480:\n        /* \"#utility.yul\":14676:14701   */\n      swap3\n      pop\n        /* \"#utility.yul\":14736:14737   */\n      dup3\n        /* \"#utility.yul\":14733:14734   */\n      dup3\n        /* \"#utility.yul\":14729:14738   */\n      mul\n        /* \"#utility.yul\":14758:14788   */\n      tag_481\n        /* \"#utility.yul\":14776:14787   */\n      dup2\n        /* \"#utility.yul\":14758:14788   */\n      tag_250\n      jump\t// in\n    tag_481:\n        /* \"#utility.yul\":14747:14788   */\n      swap2\n      pop\n        /* \"#utility.yul\":14937:14938   */\n      dup3\n        /* \"#utility.yul\":14928:14935   */\n      dup3\n        /* \"#utility.yul\":14924:14939   */\n      div\n        /* \"#utility.yul\":14921:14922   */\n      dup5\n        /* \"#utility.yul\":14918:14940   */\n      eq\n        /* \"#utility.yul\":14898:14899   */\n      dup4\n        /* \"#utility.yul\":14891:14900   */\n      iszero\n        /* \"#utility.yul\":14871:14954   */\n      or\n        /* \"#utility.yul\":14848:14987   */\n      tag_482\n      jumpi\n        /* \"#utility.yul\":14967:14985   */\n      tag_483\n      tag_284\n      jump\t// in\n    tag_483:\n        /* \"#utility.yul\":14848:14987   */\n    tag_482:\n        /* \"#utility.yul\":14632:14994   */\n      pop\n        /* \"#utility.yul\":14584:14994   */\n      swap3\n      swap2\n      pop\n      pop\n      jump\t// out\n        /* \"#utility.yul\":15000:15180   */\n    tag_285:\n        /* \"#utility.yul\":15048:15125   */\n      0x4e487b7100000000000000000000000000000000000000000000000000000000\n        /* \"#utility.yul\":15045:15046   */\n      0x00\n        /* \"#utility.yul\":15038:15126   */\n      mstore\n        /* \"#utility.yul\":15145:15149   */\n      0x12\n        /* \"#utility.yul\":15142:15143   */\n      0x04\n        /* \"#utility.yul\":15135:15150   */\n      mstore\n        /* \"#utility.yul\":15169:15173   */\n      0x24\n        /* \"#utility.yul\":15166:15167   */\n      0x00\n        /* \"#utility.yul\":15159:15174   */\n      revert\n        /* \"#utility.yul\":15186:15371   */\n    tag_84:\n        /* \"#utility.yul\":15226:15227   */\n      0x00\n        /* \"#utility.yul\":15243:15263   */\n      tag_486\n        /* \"#utility.yul\":15261:15262   */\n      dup3\n        /* \"#utility.yul\":15243:15263   */\n      tag_250\n      jump\t// in\n    tag_486:\n        /* \"#utility.yul\":15238:15263   */\n      swap2\n      pop\n        /* \"#utility.yul\":15277:15297   */\n      tag_487\n        /* \"#utility.yul\":15295:15296   */\n      dup4\n        /* \"#utility.yul\":15277:15297   */\n      tag_250\n      jump\t// in\n    tag_487:\n        /* \"#utility.yul\":15272:15297   */\n      swap3\n      pop\n        /* \"#utility.yul\":15316:15317   */\n      dup3\n        /* \"#utility.yul\":15306:15341   */\n      tag_488\n      jumpi\n        /* \"#utility.yul\":15321:15339   */\n      tag_489\n      tag_285\n      jump\t// in\n    tag_489:\n        /* \"#utility.yul\":15306:15341   */\n    tag_488:\n        /* \"#utility.yul\":15363:15364   */\n      dup3\n        /* \"#utility.yul\":15360:15361   */\n      dup3\n        /* \"#utility.yul\":15356:15365   */\n      div\n        /* \"#utility.yul\":15351:15365   */\n      swap1\n      pop\n        /* \"#utility.yul\":15186:15371   */\n      swap3\n      swap2\n      pop\n      pop\n      jump\t// out\n        /* \"#utility.yul\":15377:15543   */\n    tag_286:\n        /* \"#utility.yul\":15517:15535   */\n      0x4164726573736520696e76616c69646500000000000000000000000000000000\n        /* \"#utility.yul\":15513:15514   */\n      0x00\n        /* \"#utility.yul\":15505:15511   */\n      dup3\n        /* \"#utility.yul\":15501:15515   */\n      add\n        /* \"#utility.yul\":15494:15536   */\n      mstore\n        /* \"#utility.yul\":15377:15543   */\n      pop\n      jump\t// out\n        /* \"#utility.yul\":15549:15915   */\n    tag_287:\n        /* \"#utility.yul\":15691:15694   */\n      0x00\n        /* \"#utility.yul\":15712:15779   */\n      tag_492\n        /* \"#utility.yul\":15776:15778   */\n      0x10\n        /* \"#utility.yul\":15771:15774   */\n      dup4\n        /* \"#utility.yul\":15712:15779   */\n      tag_281\n      jump\t// in\n    tag_492:\n        /* \"#utility.yul\":15705:15779   */\n      swap2\n      pop\n        /* \"#utility.yul\":15788:15881   */\n      tag_493\n        /* \"#utility.yul\":15877:15880   */\n      dup3\n        /* \"#utility.yul\":15788:15881   */\n      tag_286\n      jump\t// in\n    tag_493:\n        /* \"#utility.yul\":15906:15908   */\n      0x20\n        /* \"#utility.yul\":15901:15904   */\n      dup3\n        /* \"#utility.yul\":15897:15909   */\n      add\n        /* \"#utility.yul\":15890:15909   */\n      swap1\n      pop\n        /* \"#utility.yul\":15549:15915   */\n      swap2\n      swap1\n      pop\n      jump\t// out\n        /* \"#utility.yul\":15921:16340   */\n    tag_88:\n        /* \"#utility.yul\":16087:16091   */\n      0x00\n        /* \"#utility.yul\":16125:16127   */\n      0x20\n        /* \"#utility.yul\":16114:16123   */\n      dup3\n        /* \"#utility.yul\":16110:16128   */\n      add\n        /* \"#utility.yul\":16102:16128   */\n      swap1\n      pop\n        /* \"#utility.yul\":16174:16183   */\n      dup2\n        /* \"#utility.yul\":16168:16172   */\n      dup2\n        /* \"#utility.yul\":16164:16184   */\n      sub\n        /* \"#utility.yul\":16160:16161   */\n      0x00\n        /* \"#utility.yul\":16149:16158   */\n      dup4\n        /* \"#utility.yul\":16145:16162   */\n      add\n        /* \"#utility.yul\":16138:16185   */\n      mstore\n        /* \"#utility.yul\":16202:16333   */\n      tag_495\n        /* \"#utility.yul\":16328:16332   */\n      dup2\n        /* \"#utility.yul\":16202:16333   */\n      tag_287\n      jump\t// in\n    tag_495:\n        /* \"#utility.yul\":16194:16333   */\n      swap1\n      pop\n        /* \"#utility.yul\":15921:16340   */\n      swap2\n      swap1\n      pop\n      jump\t// out\n        /* \"#utility.yul\":16346:16520   */\n    tag_288:\n        /* \"#utility.yul\":16486:16512   */\n      0x436f6e747265706172746965206578697374652064656a610000000000000000\n        /* \"#utility.yul\":16482:16483   */\n      0x00\n        /* \"#utility.yul\":16474:16480   */\n      dup3\n        /* \"#utility.yul\":16470:16484   */\n      add\n        /* \"#utility.yul\":16463:16513   */\n      mstore\n        /* \"#utility.yul\":16346:16520   */\n      pop\n      jump\t// out\n        /* \"#utility.yul\":16526:16892   */\n    tag_289:\n        /* \"#utility.yul\":16668:16671   */\n      0x00\n        /* \"#utility.yul\":16689:16756   */\n      tag_498\n        /* \"#utility.yul\":16753:16755   */\n      0x18\n        /* \"#utility.yul\":16748:16751   */\n      dup4\n        /* \"#utility.yul\":16689:16756   */\n      tag_281\n      jump\t// in\n    tag_498:\n        /* \"#utility.yul\":16682:16756   */\n      swap2\n      pop\n        /* \"#utility.yul\":16765:16858   */\n      tag_499\n        /* \"#utility.yul\":16854:16857   */\n      dup3\n        /* \"#utility.yul\":16765:16858   */\n      tag_288\n      jump\t// in\n    tag_499:\n        /* \"#utility.yul\":16883:16885   */\n      0x20\n        /* \"#utility.yul\":16878:16881   */\n      dup3\n        /* \"#utility.yul\":16874:16886   */\n      add\n        /* \"#utility.yul\":16867:16886   */\n      swap1\n      pop\n        /* \"#utility.yul\":16526:16892   */\n      swap2\n      swap1\n      pop\n      jump\t// out\n        /* \"#utility.yul\":16898:17317   */\n    tag_91:\n        /* \"#utility.yul\":17064:17068   */\n      0x00\n        /* \"#utility.yul\":17102:17104   */\n      0x20\n        /* \"#utility.yul\":17091:17100   */\n      dup3\n        /* \"#utility.yul\":17087:17105   */\n      add\n        /* \"#utility.yul\":17079:17105   */\n      swap1\n      pop\n        /* \"#utility.yul\":17151:17160   */\n      dup2\n        /* \"#utility.yul\":17145:17149   */\n      dup2\n        /* \"#utility.yul\":17141:17161   */\n      sub\n        /* \"#utility.yul\":17137:17138   */\n      0x00\n        /* \"#utility.yul\":17126:17135   */\n      dup4\n        /* \"#utility.yul\":17122:17139   */\n      add\n        /* \"#utility.yul\":17115:17162   */\n      mstore\n        /* \"#utility.yul\":17179:17310   */\n      tag_501\n        /* \"#utility.yul\":17305:17309   */\n      dup2\n        /* \"#utility.yul\":17179:17310   */\n      tag_289\n      jump\t// in\n    tag_501:\n        /* \"#utility.yul\":17171:17310   */\n      swap1\n      pop\n        /* \"#utility.yul\":16898:17317   */\n      swap2\n      swap1\n      pop\n      jump\t// out\n        /* \"#utility.yul\":17323:17551   */\n    tag_290:\n        /* \"#utility.yul\":17463:17497   */\n      0x4c61206c696d6974652064276578706f736974696f6e20646f69742065747265\n        /* \"#utility.yul\":17459:17460   */\n      0x00\n        /* \"#utility.yul\":17451:17457   */\n      dup3\n        /* \"#utility.yul\":17447:17461   */\n      add\n        /* \"#utility.yul\":17440:17498   */\n      mstore\n        /* \"#utility.yul\":17532:17543   */\n      0x20706f7369746976650000000000000000000000000000000000000000000000\n        /* \"#utility.yul\":17527:17529   */\n      0x20\n        /* \"#utility.yul\":17519:17525   */\n      dup3\n        /* \"#utility.yul\":17515:17530   */\n      add\n        /* \"#utility.yul\":17508:17544   */\n      mstore\n        /* \"#utility.yul\":17323:17551   */\n      pop\n      jump\t// out\n        /* \"#utility.yul\":17557:17923   */\n    tag_291:\n        /* \"#utility.yul\":17699:17702   */\n      0x00\n        /* \"#utility.yul\":17720:17787   */\n      tag_504\n        /* \"#utility.yul\":17784:17786   */\n      0x29\n        /* \"#utility.yul\":17779:17782   */\n      dup4\n        /* \"#utility.yul\":17720:17787   */\n      tag_281\n      jump\t// in\n    tag_504:\n        /* \"#utility.yul\":17713:17787   */\n      swap2\n      pop\n        /* \"#utility.yul\":17796:17889   */\n      tag_505\n        /* \"#utility.yul\":17885:17888   */\n      dup3\n        /* \"#utility.yul\":17796:17889   */\n      tag_290\n      jump\t// in\n    tag_505:\n        /* \"#utility.yul\":17914:17916   */\n      0x40\n        /* \"#utility.yul\":17909:17912   */\n      dup3\n        /* \"#utility.yul\":17905:17917   */\n      add\n        /* \"#utility.yul\":17898:17917   */\n      swap1\n      pop\n        /* \"#utility.yul\":17557:17923   */\n      swap2\n      swap1\n      pop\n      jump\t// out\n        /* \"#utility.yul\":17929:18348   */\n    tag_94:\n        /* \"#utility.yul\":18095:18099   */\n      0x00\n        /* \"#utility.yul\":18133:18135   */\n      0x20\n        /* \"#utility.yul\":18122:18131   */\n      dup3\n        /* \"#utility.yul\":18118:18136   */\n      add\n        /* \"#utility.yul\":18110:18136   */\n      swap1\n      pop\n        /* \"#utility.yul\":18182:18191   */\n      dup2\n        /* \"#utility.yul\":18176:18180   */\n      dup2\n        /* \"#utility.yul\":18172:18192   */\n      sub\n        /* \"#utility.yul\":18168:18169   */\n      0x00\n        /* \"#utility.yul\":18157:18166   */\n      dup4\n        /* \"#utility.yul\":18153:18170   */\n      add\n        /* \"#utility.yul\":18146:18193   */\n      mstore\n        /* \"#utility.yul\":18210:18341   */\n      tag_507\n        /* \"#utility.yul\":18336:18340   */\n      dup2\n        /* \"#utility.yul\":18210:18341   */\n      tag_291\n      jump\t// in\n    tag_507:\n        /* \"#utility.yul\":18202:18341   */\n      swap1\n      pop\n        /* \"#utility.yul\":17929:18348   */\n      swap2\n      swap1\n      pop\n      jump\t// out\n        /* \"#utility.yul\":18354:18528   */\n    tag_292:\n        /* \"#utility.yul\":18494:18520   */\n      0x53636f72652064652063726564697420696e76616c6964650000000000000000\n        /* \"#utility.yul\":18490:18491   */\n      0x00\n        /* \"#utility.yul\":18482:18488   */\n      dup3\n        /* \"#utility.yul\":18478:18492   */\n      add\n        /* \"#utility.yul\":18471:18521   */\n      mstore\n        /* \"#utility.yul\":18354:18528   */\n      pop\n      jump\t// out\n        /* \"#utility.yul\":18534:18900   */\n    tag_293:\n        /* \"#utility.yul\":18676:18679   */\n      0x00\n        /* \"#utility.yul\":18697:18764   */\n      tag_510\n        /* \"#utility.yul\":18761:18763   */\n      0x18\n        /* \"#utility.yul\":18756:18759   */\n      dup4\n        /* \"#utility.yul\":18697:18764   */\n      tag_281\n      jump\t// in\n    tag_510:\n        /* \"#utility.yul\":18690:18764   */\n      swap2\n      pop\n        /* \"#utility.yul\":18773:18866   */\n      tag_511\n        /* \"#utility.yul\":18862:18865   */\n      dup3\n        /* \"#utility.yul\":18773:18866   */\n      tag_292\n      jump\t// in\n    tag_511:\n        /* \"#utility.yul\":18891:18893   */\n      0x20\n        /* \"#utility.yul\":18886:18889   */\n      dup3\n        /* \"#utility.yul\":18882:18894   */\n      add\n        /* \"#utility.yul\":18875:18894   */\n      swap1\n      pop\n        /* \"#utility.yul\":18534:18900   */\n      swap2\n      swap1\n      pop\n      jump\t// out\n        /* \"#utility.yul\":18906:19325   */\n    tag_98:\n        /* \"#utility.yul\":19072:19076   */\n      0x00\n        /* \"#utility.yul\":19110:19112   */\n      0x20\n        /* \"#utility.yul\":19099:19108   */\n      dup3\n        /* \"#utility.yul\":19095:19113   */\n      add\n        /* \"#utility.yul\":19087:19113   */\n      swap1\n      pop\n        /* \"#utility.yul\":19159:19168   */\n      dup2\n        /* \"#utility.yul\":19153:19157   */\n      dup2\n        /* \"#utility.yul\":19149:19169   */\n      sub\n        /* \"#utility.yul\":19145:19146   */\n      0x00\n        /* \"#utility.yul\":19134:19143   */\n      dup4\n        /* \"#utility.yul\":19130:19147   */\n      add\n        /* \"#utility.yul\":19123:19170   */\n      mstore\n        /* \"#utility.yul\":19187:19318   */\n      tag_513\n        /* \"#utility.yul\":19313:19317   */\n      dup2\n        /* \"#utility.yul\":19187:19318   */\n      tag_293\n      jump\t// in\n    tag_513:\n        /* \"#utility.yul\":19179:19318   */\n      swap1\n      pop\n        /* \"#utility.yul\":18906:19325   */\n      swap2\n      swap1\n      pop\n      jump\t// out\n        /* \"#utility.yul\":19331:19663   */\n    tag_101:\n        /* \"#utility.yul\":19452:19456   */\n      0x00\n        /* \"#utility.yul\":19490:19492   */\n      0x40\n        /* \"#utility.yul\":19479:19488   */\n      dup3\n        /* \"#utility.yul\":19475:19493   */\n      add\n        /* \"#utility.yul\":19467:19493   */\n      swap1\n      pop\n        /* \"#utility.yul\":19503:19574   */\n      tag_515\n        /* \"#utility.yul\":19571:19572   */\n      0x00\n        /* \"#utility.yul\":19560:19569   */\n      dup4\n        /* \"#utility.yul\":19556:19573   */\n      add\n        /* \"#utility.yul\":19547:19553   */\n      dup6\n        /* \"#utility.yul\":19503:19574   */\n      tag_251\n      jump\t// in\n    tag_515:\n        /* \"#utility.yul\":19584:19656   */\n      tag_516\n        /* \"#utility.yul\":19652:19654   */\n      0x20\n        /* \"#utility.yul\":19641:19650   */\n      dup4\n        /* \"#utility.yul\":19637:19655   */\n      add\n        /* \"#utility.yul\":19628:19634   */\n      dup5\n        /* \"#utility.yul\":19584:19656   */\n      tag_251\n      jump\t// in\n    tag_516:\n        /* \"#utility.yul\":19331:19663   */\n      swap4\n      swap3\n      pop\n      pop\n      pop\n      jump\t// out\n        /* \"#utility.yul\":19669:19849   */\n    tag_115:\n        /* \"#utility.yul\":19717:19794   */\n      0x4e487b7100000000000000000000000000000000000000000000000000000000\n        /* \"#utility.yul\":19714:19715   */\n      0x00\n        /* \"#utility.yul\":19707:19795   */\n      mstore\n        /* \"#utility.yul\":19814:19818   */\n      0x32\n        /* \"#utility.yul\":19811:19812   */\n      0x04\n        /* \"#utility.yul\":19804:19819   */\n      mstore\n        /* \"#utility.yul\":19838:19842   */\n      0x24\n        /* \"#utility.yul\":19835:19836   */\n      0x00\n        /* \"#utility.yul\":19828:19843   */\n      revert\n        /* \"#utility.yul\":19855:20026   */\n    tag_294:\n        /* \"#utility.yul\":19995:20018   */\n      0x436f6e74726570617274696520696e6163746976650000000000000000000000\n        /* \"#utility.yul\":19991:19992   */\n      0x00\n        /* \"#utility.yul\":19983:19989   */\n      dup3\n        /* \"#utility.yul\":19979:19993   */\n      add\n        /* \"#utility.yul\":19972:20019   */\n      mstore\n        /* \"#utility.yul\":19855:20026   */\n      pop\n      jump\t// out\n        /* \"#utility.yul\":20032:20398   */\n    tag_295:\n        /* \"#utility.yul\":20174:20177   */\n      0x00\n        /* \"#utility.yul\":20195:20262   */\n      tag_520\n        /* \"#utility.yul\":20259:20261   */\n      0x15\n        /* \"#utility.yul\":20254:20257   */\n      dup4\n        /* \"#utility.yul\":20195:20262   */\n      tag_281\n      jump\t// in\n    tag_520:\n        /* \"#utility.yul\":20188:20262   */\n      swap2\n      pop\n        /* \"#utility.yul\":20271:20364   */\n      tag_521\n        /* \"#utility.yul\":20360:20363   */\n      dup3\n        /* \"#utility.yul\":20271:20364   */\n      tag_294\n      jump\t// in\n    tag_521:\n        /* \"#utility.yul\":20389:20391   */\n      0x20\n        /* \"#utility.yul\":20384:20387   */\n      dup3\n        /* \"#utility.yul\":20380:20392   */\n      add\n        /* \"#utility.yul\":20373:20392   */\n      swap1\n      pop\n        /* \"#utility.yul\":20032:20398   */\n      swap2\n      swap1\n      pop\n      jump\t// out\n        /* \"#utility.yul\":20404:20823   */\n    tag_134:\n        /* \"#utility.yul\":20570:20574   */\n      0x00\n        /* \"#utility.yul\":20608:20610   */\n      0x20\n        /* \"#utility.yul\":20597:20606   */\n      dup3\n        /* \"#utility.yul\":20593:20611   */\n      add\n        /* \"#utility.yul\":20585:20611   */\n      swap1\n      pop\n        /* \"#utility.yul\":20657:20666   */\n      dup2\n        /* \"#utility.yul\":20651:20655   */\n      dup2\n        /* \"#utility.yul\":20647:20667   */\n      sub\n        /* \"#utility.yul\":20643:20644   */\n      0x00\n        /* \"#utility.yul\":20632:20641   */\n      dup4\n        /* \"#utility.yul\":20628:20645   */\n      add\n        /* \"#utility.yul\":20621:20668   */\n      mstore\n        /* \"#utility.yul\":20685:20816   */\n      tag_523\n        /* \"#utility.yul\":20811:20815   */\n      dup2\n        /* \"#utility.yul\":20685:20816   */\n      tag_295\n      jump\t// in\n    tag_523:\n        /* \"#utility.yul\":20677:20816   */\n      swap1\n      pop\n        /* \"#utility.yul\":20404:20823   */\n      swap2\n      swap1\n      pop\n      jump\t// out\n        /* \"#utility.yul\":20829:21004   */\n    tag_296:\n        /* \"#utility.yul\":20969:20996   */\n      0x5479706520646520706f736974696f6e20696e76616c69646500000000000000\n        /* \"#utility.yul\":20965:20966   */\n      0x00\n        /* \"#utility.yul\":20957:20963   */\n      dup3\n        /* \"#utility.yul\":20953:20967   */\n      add\n        /* \"#utility.yul\":20946:20997   */\n      mstore\n        /* \"#utility.yul\":20829:21004   */\n      pop\n      jump\t// out\n        /* \"#utility.yul\":21010:21376   */\n    tag_297:\n        /* \"#utility.yul\":21152:21155   */\n      0x00\n        /* \"#utility.yul\":21173:21240   */\n      tag_526\n        /* \"#utility.yul\":21237:21239   */\n      0x19\n        /* \"#utility.yul\":21232:21235   */\n      dup4\n        /* \"#utility.yul\":21173:21240   */\n      tag_281\n      jump\t// in\n    tag_526:\n        /* \"#utility.yul\":21166:21240   */\n      swap2\n      pop\n        /* \"#utility.yul\":21249:21342   */\n      tag_527\n        /* \"#utility.yul\":21338:21341   */\n      dup3\n        /* \"#utility.yul\":21249:21342   */\n      tag_296\n      jump\t// in\n    tag_527:\n        /* \"#utility.yul\":21367:21369   */\n      0x20\n        /* \"#utility.yul\":21362:21365   */\n      dup3\n        /* \"#utility.yul\":21358:21370   */\n      add\n        /* \"#utility.yul\":21351:21370   */\n      swap1\n      pop\n        /* \"#utility.yul\":21010:21376   */\n      swap2\n      swap1\n      pop\n      jump\t// out\n        /* \"#utility.yul\":21382:21801   */\n    tag_137:\n        /* \"#utility.yul\":21548:21552   */\n      0x00\n        /* \"#utility.yul\":21586:21588   */\n      0x20\n        /* \"#utility.yul\":21575:21584   */\n      dup3\n        /* \"#utility.yul\":21571:21589   */\n      add\n        /* \"#utility.yul\":21563:21589   */\n      swap1\n      pop\n        /* \"#utility.yul\":21635:21644   */\n      dup2\n        /* \"#utility.yul\":21629:21633   */\n      dup2\n        /* \"#utility.yul\":21625:21645   */\n      sub\n        /* \"#utility.yul\":21621:21622   */\n      0x00\n        /* \"#utility.yul\":21610:21619   */\n      dup4\n        /* \"#utility.yul\":21606:21623   */\n      add\n        /* \"#utility.yul\":21599:21646   */\n      mstore\n        /* \"#utility.yul\":21663:21794   */\n      tag_529\n        /* \"#utility.yul\":21789:21793   */\n      dup2\n        /* \"#utility.yul\":21663:21794   */\n      tag_297\n      jump\t// in\n    tag_529:\n        /* \"#utility.yul\":21655:21794   */\n      swap1\n      pop\n        /* \"#utility.yul\":21382:21801   */\n      swap2\n      swap1\n      pop\n      jump\t// out\n        /* \"#utility.yul\":21807:22028   */\n    tag_298:\n        /* \"#utility.yul\":21947:21981   */\n      0x4c65206d6f6e74616e7420646f69742065747265207375706572696575722061\n        /* \"#utility.yul\":21943:21944   */\n      0x00\n        /* \"#utility.yul\":21935:21941   */\n      dup3\n        /* \"#utility.yul\":21931:21945   */\n      add\n        /* \"#utility.yul\":21924:21982   */\n      mstore\n        /* \"#utility.yul\":22016:22020   */\n      0x2030000000000000000000000000000000000000000000000000000000000000\n        /* \"#utility.yul\":22011:22013   */\n      0x20\n        /* \"#utility.yul\":22003:22009   */\n      dup3\n        /* \"#utility.yul\":21999:22014   */\n      add\n        /* \"#utility.yul\":21992:22021   */\n      mstore\n        /* \"#utility.yul\":21807:22028   */\n      pop\n      jump\t// out\n        /* \"#utility.yul\":22034:22400   */\n    tag_299:\n        /* \"#utility.yul\":22176:22179   */\n      0x00\n        /* \"#utility.yul\":22197:22264   */\n      tag_532\n        /* \"#utility.yul\":22261:22263   */\n      0x22\n        /* \"#utility.yul\":22256:22259   */\n      dup4\n        /* \"#utility.yul\":22197:22264   */\n      tag_281\n      jump\t// in\n    tag_532:\n        /* \"#utility.yul\":22190:22264   */\n      swap2\n      pop\n        /* \"#utility.yul\":22273:22366   */\n      tag_533\n        /* \"#utility.yul\":22362:22365   */\n      dup3\n        /* \"#utility.yul\":22273:22366   */\n      tag_298\n      jump\t// in\n    tag_533:\n        /* \"#utility.yul\":22391:22393   */\n      0x40\n        /* \"#utility.yul\":22386:22389   */\n      dup3\n        /* \"#utility.yul\":22382:22394   */\n      add\n        /* \"#utility.yul\":22375:22394   */\n      swap1\n      pop\n        /* \"#utility.yul\":22034:22400   */\n      swap2\n      swap1\n      pop\n      jump\t// out\n        /* \"#utility.yul\":22406:22825   */\n    tag_140:\n        /* \"#utility.yul\":22572:22576   */\n      0x00\n        /* \"#utility.yul\":22610:22612   */\n      0x20\n        /* \"#utility.yul\":22599:22608   */\n      dup3\n        /* \"#utility.yul\":22595:22613   */\n      add\n        /* \"#utility.yul\":22587:22613   */\n      swap1\n      pop\n        /* \"#utility.yul\":22659:22668   */\n      dup2\n        /* \"#utility.yul\":22653:22657   */\n      dup2\n        /* \"#utility.yul\":22649:22669   */\n      sub\n        /* \"#utility.yul\":22645:22646   */\n      0x00\n        /* \"#utility.yul\":22634:22643   */\n      dup4\n        /* \"#utility.yul\":22630:22647   */\n      add\n        /* \"#utility.yul\":22623:22670   */\n      mstore\n        /* \"#utility.yul\":22687:22818   */\n      tag_535\n        /* \"#utility.yul\":22813:22817   */\n      dup2\n        /* \"#utility.yul\":22687:22818   */\n      tag_299\n      jump\t// in\n    tag_535:\n        /* \"#utility.yul\":22679:22818   */\n      swap1\n      pop\n        /* \"#utility.yul\":22406:22825   */\n      swap2\n      swap1\n      pop\n      jump\t// out\n        /* \"#utility.yul\":22831:22930   */\n    tag_300:\n        /* \"#utility.yul\":22883:22889   */\n      0x00\n        /* \"#utility.yul\":22917:22922   */\n      dup2\n        /* \"#utility.yul\":22911:22923   */\n      mload\n        /* \"#utility.yul\":22901:22923   */\n      swap1\n      pop\n        /* \"#utility.yul\":22831:22930   */\n      swap2\n      swap1\n      pop\n      jump\t// out\n        /* \"#utility.yul\":22936:23077   */\n    tag_301:\n        /* \"#utility.yul\":22985:22989   */\n      0x00\n        /* \"#utility.yul\":23008:23011   */\n      dup2\n        /* \"#utility.yul\":23000:23011   */\n      swap1\n      pop\n        /* \"#utility.yul\":23031:23034   */\n      dup2\n        /* \"#utility.yul\":23028:23029   */\n      0x00\n        /* \"#utility.yul\":23021:23035   */\n      mstore\n        /* \"#utility.yul\":23065:23069   */\n      0x20\n        /* \"#utility.yul\":23062:23063   */\n      0x00\n        /* \"#utility.yul\":23052:23070   */\n      keccak256\n        /* \"#utility.yul\":23044:23070   */\n      swap1\n      pop\n        /* \"#utility.yul\":22936:23077   */\n      swap2\n      swap1\n      pop\n      jump\t// out\n        /* \"#utility.yul\":23083:23176   */\n    tag_302:\n        /* \"#utility.yul\":23120:23126   */\n      0x00\n        /* \"#utility.yul\":23167:23169   */\n      0x20\n        /* \"#utility.yul\":23162:23164   */\n      0x1f\n        /* \"#utility.yul\":23155:23160   */\n      dup4\n        /* \"#utility.yul\":23151:23165   */\n      add\n        /* \"#utility.yul\":23147:23170   */\n      div\n        /* \"#utility.yul\":23137:23170   */\n      swap1\n      pop\n        /* \"#utility.yul\":23083:23176   */\n      swap2\n      swap1\n      pop\n      jump\t// out\n        /* \"#utility.yul\":23182:23289   */\n    tag_303:\n        /* \"#utility.yul\":23226:23234   */\n      0x00\n        /* \"#utility.yul\":23276:23281   */\n      dup3\n        /* \"#utility.yul\":23270:23274   */\n      dup3\n        /* \"#utility.yul\":23266:23282   */\n      shl\n        /* \"#utility.yul\":23245:23282   */\n      swap1\n      pop\n        /* \"#utility.yul\":23182:23289   */\n      swap3\n      swap2\n      pop\n      pop\n      jump\t// out\n        /* \"#utility.yul\":23295:23688   */\n    tag_304:\n        /* \"#utility.yul\":23364:23370   */\n      0x00\n        /* \"#utility.yul\":23414:23415   */\n      0x08\n        /* \"#utility.yul\":23402:23412   */\n      dup4\n        /* \"#utility.yul\":23398:23416   */\n      mul\n        /* \"#utility.yul\":23437:23534   */\n      tag_541\n        /* \"#utility.yul\":23467:23533   */\n      0xffffffffffffffffffffffffffffffffffffffffffffffffffffffffffffffff\n        /* \"#utility.yul\":23456:23465   */\n      dup3\n        /* \"#utility.yul\":23437:23534   */\n      tag_303\n      jump\t// in\n    tag_541:\n        /* \"#utility.yul\":23555:23594   */\n      tag_542\n        /* \"#utility.yul\":23585:23593   */\n      dup7\n        /* \"#utility.yul\":23574:23583   */\n      dup4\n        /* \"#utility.yul\":23555:23594   */\n      tag_303\n      jump\t// in\n    tag_542:\n        /* \"#utility.yul\":23543:23594   */\n      swap6\n      pop\n        /* \"#utility.yul\":23627:23631   */\n      dup1\n        /* \"#utility.yul\":23623:23632   */\n      not\n        /* \"#utility.yul\":23616:23621   */\n      dup5\n        /* \"#utility.yul\":23612:23633   */\n      and\n        /* \"#utility.yul\":23603:23633   */\n      swap4\n      pop\n        /* \"#utility.yul\":23676:23680   */\n      dup1\n        /* \"#utility.yul\":23666:23674   */\n      dup7\n        /* \"#utility.yul\":23662:23681   */\n      and\n        /* \"#utility.yul\":23655:23660   */\n      dup5\n        /* \"#utility.yul\":23652:23682   */\n      or\n        /* \"#utility.yul\":23642:23682   */\n      swap3\n      pop\n        /* \"#utility.yul\":23371:23688   */\n      pop\n      pop\n        /* \"#utility.yul\":23295:23688   */\n      swap4\n      swap3\n      pop\n      pop\n      pop\n      jump\t// out\n        /* \"#utility.yul\":23694:23754   */\n    tag_305:\n        /* \"#utility.yul\":23722:23725   */\n      0x00\n        /* \"#utility.yul\":23743:23748   */\n      dup2\n        /* \"#utility.yul\":23736:23748   */\n      swap1\n      pop\n        /* \"#utility.yul\":23694:23754   */\n      swap2\n      swap1\n      pop\n      jump\t// out\n        /* \"#utility.yul\":23760:23902   */\n    tag_306:\n        /* \"#utility.yul\":23810:23819   */\n      0x00\n        /* \"#utility.yul\":23843:23896   */\n      tag_545\n        /* \"#utility.yul\":23861:23895   */\n      tag_546\n        /* \"#utility.yul\":23870:23894   */\n      tag_547\n        /* \"#utility.yul\":23888:23893   */\n      dup5\n        /* \"#utility.yul\":23870:23894   */\n      tag_250\n      jump\t// in\n    tag_547:\n        /* \"#utility.yul\":23861:23895   */\n      tag_305\n      jump\t// in\n    tag_546:\n        /* \"#utility.yul\":23843:23896   */\n      tag_250\n      jump\t// in\n    tag_545:\n        /* \"#utility.yul\":23830:23896   */\n      swap1\n      pop\n        /* \"#utility.yul\":23760:23902   */\n      swap2\n      swap1\n      pop\n      jump\t// out\n        /* \"#utility.yul\":23908:23983   */\n    tag_307:\n        /* \"#utility.yul\":23951:23954   */\n      0x00\n        /* \"#utility.yul\":23972:23977   */\n      dup2\n        /* \"#utility.yul\":23965:23977   */\n      swap1\n      pop\n        /* \"#utility.yul\":23908:23983   */\n      swap2\n      swap1\n      pop\n      jump\t// out\n        /* \"#utility.yul\":23989:24258   */\n    tag_308:\n        /* \"#utility.yul\":24099:24138   */\n      tag_550\n        /* \"#utility.yul\":24130:24137   */\n      dup4\n        /* \"#utility.yul\":24099:24138   */\n      tag_306\n      jump\t// in\n    tag_550:\n        /* \"#utility.yul\":24160:24251   */\n      tag_551\n        /* \"#utility.yul\":24209:24250   */\n      tag_552\n        /* \"#utility.yul\":24233:24249   */\n      dup3\n        /* \"#utility.yul\":24209:24250   */\n      tag_307\n      jump\t// in\n    tag_552:\n        /* \"#utility.yul\":24201:24207   */\n      dup5\n        /* \"#utility.yul\":24194:24198   */\n      dup5\n        /* \"#utility.yul\":24188:24199   */\n      sload\n        /* \"#utility.yul\":24160:24251   */\n      tag_304\n      jump\t// in\n    tag_551:\n        /* \"#utility.yul\":24154:24158   */\n      dup3\n        /* \"#utility.yul\":24147:24252   */\n      sstore\n        /* \"#utility.yul\":24065:24258   */\n      pop\n        /* \"#utility.yul\":23989:24258   */\n      pop\n      pop\n      pop\n      jump\t// out\n        /* \"#utility.yul\":24264:24337   */\n    tag_309:\n        /* \"#utility.yul\":24309:24312   */\n      0x00\n        /* \"#utility.yul\":24264:24337   */\n      swap1\n      jump\t// out\n        /* \"#utility.yul\":24343:24532   */\n    tag_310:\n        /* \"#utility.yul\":24420:24452   */\n      tag_555\n      tag_309\n      jump\t// in\n    tag_555:\n        /* \"#utility.yul\":24461:24526   */\n      tag_556\n        /* \"#utility.yul\":24519:24525   */\n      dup2\n        /* \"#utility.yul\":24511:24517   */\n      dup5\n        /* \"#utility.yul\":24505:24509   */\n      dup5\n        /* \"#utility.yul\":24461:24526   */\n      tag_308\n      jump\t// in\n    tag_556:\n        /* \"#utility.yul\":24396:24532   */\n      pop\n        /* \"#utility.yul\":24343:24532   */\n      pop\n      pop\n      jump\t// out\n        /* \"#utility.yul\":24538:24724   */\n    tag_311:\n        /* \"#utility.yul\":24598:24718   */\n    tag_558:\n        /* \"#utility.yul\":24615:24618   */\n      dup2\n        /* \"#utility.yul\":24608:24613   */\n      dup2\n        /* \"#utility.yul\":24605:24619   */\n      lt\n        /* \"#utility.yul\":24598:24718   */\n      iszero\n      tag_560\n      jumpi\n        /* \"#utility.yul\":24669:24708   */\n      tag_561\n        /* \"#utility.yul\":24706:24707   */\n      0x00\n        /* \"#utility.yul\":24699:24704   */\n      dup3\n        /* \"#utility.yul\":24669:24708   */\n      tag_310\n      jump\t// in\n    tag_561:\n        /* \"#utility.yul\":24642:24643   */\n      0x01\n        /* \"#utility.yul\":24635:24640   */\n      dup2\n        /* \"#utility.yul\":24631:24644   */\n      add\n        /* \"#utility.yul\":24622:24644   */\n      swap1\n      pop\n        /* \"#utility.yul\":24598:24718   */\n      jump(tag_558)\n    tag_560:\n        /* \"#utility.yul\":24538:24724   */\n      pop\n      pop\n      jump\t// out\n        /* \"#utility.yul\":24730:25273   */\n    tag_312:\n        /* \"#utility.yul\":24831:24833   */\n      0x1f\n        /* \"#utility.yul\":24826:24829   */\n      dup3\n        /* \"#utility.yul\":24823:24834   */\n      gt\n        /* \"#utility.yul\":24820:25266   */\n      iszero\n      tag_563\n      jumpi\n        /* \"#utility.yul\":24865:24903   */\n      tag_564\n        /* \"#utility.yul\":24897:24902   */\n      dup2\n        /* \"#utility.yul\":24865:24903   */\n      tag_301\n      jump\t// in\n    tag_564:\n        /* \"#utility.yul\":24949:24978   */\n      tag_565\n        /* \"#utility.yul\":24967:24977   */\n      dup5\n        /* \"#utility.yul\":24949:24978   */\n      tag_302\n      jump\t// in\n    tag_565:\n        /* \"#utility.yul\":24939:24947   */\n      dup2\n        /* \"#utility.yul\":24935:24979   */\n      add\n        /* \"#utility.yul\":25132:25134   */\n      0x20\n        /* \"#utility.yul\":25120:25130   */\n      dup6\n        /* \"#utility.yul\":25117:25135   */\n      lt\n        /* \"#utility.yul\":25114:25163   */\n      iszero\n      tag_566\n      jumpi\n        /* \"#utility.yul\":25153:25161   */\n      dup2\n        /* \"#utility.yul\":25138:25161   */\n      swap1\n      pop\n        /* \"#utility.yul\":25114:25163   */\n    tag_566:\n        /* \"#utility.yul\":25176:25256   */\n      tag_567\n        /* \"#utility.yul\":25232:25254   */\n      tag_568\n        /* \"#utility.yul\":25250:25253   */\n      dup6\n        /* \"#utility.yul\":25232:25254   */\n      tag_302\n      jump\t// in\n    tag_568:\n        /* \"#utility.yul\":25222:25230   */\n      dup4\n        /* \"#utility.yul\":25218:25255   */\n      add\n        /* \"#utility.yul\":25205:25216   */\n      dup3\n        /* \"#utility.yul\":25176:25256   */\n      tag_311\n      jump\t// in\n    tag_567:\n        /* \"#utility.yul\":24835:25266   */\n      pop\n      pop\n        /* \"#utility.yul\":24820:25266   */\n    tag_563:\n        /* \"#utility.yul\":24730:25273   */\n      pop\n      pop\n      pop\n      jump\t// out\n        /* \"#utility.yul\":25279:25396   */\n    tag_313:\n        /* \"#utility.yul\":25333:25341   */\n      0x00\n        /* \"#utility.yul\":25383:25388   */\n      dup3\n        /* \"#utility.yul\":25377:25381   */\n      dup3\n        /* \"#utility.yul\":25373:25389   */\n      shr\n        /* \"#utility.yul\":25352:25389   */\n      swap1\n      pop\n        /* \"#utility.yul\":25279:25396   */\n      swap3\n      swap2\n      pop\n      pop\n      jump\t// out\n        /* \"#utility.yul\":25402:25571   */\n    tag_314:\n        /* \"#utility.yul\":25446:25452   */\n      0x00\n        /* \"#utility.yul\":25479:25530   */\n      tag_571\n        /* \"#utility.yul\":25527:25528   */\n      0x00\n        /* \"#utility.yul\":25523:25529   */\n      not\n        /* \"#utility.yul\":25515:25520   */\n      dup5\n        /* \"#utility.yul\":25512:25513   */\n      0x08\n        /* \"#utility.yul\":25508:25521   */\n      mul\n        /* \"#utility.yul\":25479:25530   */\n      tag_313\n      jump\t// in\n    tag_571:\n        /* \"#utility.yul\":25475:25531   */\n      not\n        /* \"#utility.yul\":25560:25564   */\n      dup1\n        /* \"#utility.yul\":25554:25558   */\n      dup4\n        /* \"#utility.yul\":25550:25565   */\n      and\n        /* \"#utility.yul\":25540:25565   */\n      swap2\n      pop\n        /* \"#utility.yul\":25453:25571   */\n      pop\n        /* \"#utility.yul\":25402:25571   */\n      swap3\n      swap2\n      pop\n      pop\n      jump\t// out\n        /* \"#utility.yul\":25576:25871   */\n    tag_315:\n        /* \"#utility.yul\":25652:25656   */\n      0x00\n        /* \"#utility.yul\":25798:25827   */\n      tag_573\n        /* \"#utility.yul\":25823:25826   */\n      dup4\n        /* \"#utility.yul\":25817:25821   */\n      dup4\n        /* \"#utility.yul\":25798:25827   */\n      tag_314\n      jump\t// in\n    tag_573:\n        /* \"#utility.yul\":25790:25827   */\n      swap2\n      pop\n        /* \"#utility.yul\":25860:25863   */\n      dup3\n        /* \"#utility.yul\":25857:25858   */\n      0x02\n        /* \"#utility.yul\":25853:25864   */\n      mul\n        /* \"#utility.yul\":25847:25851   */\n      dup3\n        /* \"#utility.yul\":25844:25865   */\n      or\n        /* \"#utility.yul\":25836:25865   */\n      swap1\n      pop\n        /* \"#utility.yul\":25576:25871   */\n      swap3\n      swap2\n      pop\n      pop\n      jump\t// out\n        /* \"#utility.yul\":25876:27271   */\n    tag_143:\n        /* \"#utility.yul\":25993:26030   */\n      tag_575\n        /* \"#utility.yul\":26026:26029   */\n      dup3\n        /* \"#utility.yul\":25993:26030   */\n      tag_300\n      jump\t// in\n    tag_575:\n        /* \"#utility.yul\":26095:26113   */\n      0xffffffffffffffff\n        /* \"#utility.yul\":26087:26093   */\n      dup2\n        /* \"#utility.yul\":26084:26114   */\n      gt\n        /* \"#utility.yul\":26081:26137   */\n      iszero\n      tag_576\n      jumpi\n        /* \"#utility.yul\":26117:26135   */\n      tag_577\n      tag_105\n      jump\t// in\n    tag_577:\n        /* \"#utility.yul\":26081:26137   */\n    tag_576:\n        /* \"#utility.yul\":26161:26199   */\n      tag_578\n        /* \"#utility.yul\":26193:26197   */\n      dup3\n        /* \"#utility.yul\":26187:26198   */\n      sload\n        /* \"#utility.yul\":26161:26199   */\n      tag_73\n      jump\t// in\n    tag_578:\n        /* \"#utility.yul\":26246:26313   */\n      tag_579\n        /* \"#utility.yul\":26306:26312   */\n      dup3\n        /* \"#utility.yul\":26298:26304   */\n      dup3\n        /* \"#utility.yul\":26292:26296   */\n      dup6\n        /* \"#utility.yul\":26246:26313   */\n      tag_312\n      jump\t// in\n    tag_579:\n        /* \"#utility.yul\":26340:26341   */\n      0x00\n        /* \"#utility.yul\":26364:26368   */\n      0x20\n        /* \"#utility.yul\":26351:26368   */\n      swap1\n      pop\n        /* \"#utility.yul\":26396:26398   */\n      0x1f\n        /* \"#utility.yul\":26388:26394   */\n      dup4\n        /* \"#utility.yul\":26385:26399   */\n      gt\n        /* \"#utility.yul\":26413:26414   */\n      0x01\n        /* \"#utility.yul\":26408:27026   */\n      dup2\n      eq\n      tag_581\n      jumpi\n        /* \"#utility.yul\":27070:27071   */\n      0x00\n        /* \"#utility.yul\":27087:27093   */\n      dup5\n        /* \"#utility.yul\":27084:27161   */\n      iszero\n      tag_582\n      jumpi\n        /* \"#utility.yul\":27136:27145   */\n      dup3\n        /* \"#utility.yul\":27131:27134   */\n      dup8\n        /* \"#utility.yul\":27127:27146   */\n      add\n        /* \"#utility.yul\":27121:27147   */\n      mload\n        /* \"#utility.yul\":27112:27147   */\n      swap1\n      pop\n        /* \"#utility.yul\":27084:27161   */\n    tag_582:\n        /* \"#utility.yul\":27187:27254   */\n      tag_583\n        /* \"#utility.yul\":27247:27253   */\n      dup6\n        /* \"#utility.yul\":27240:27245   */\n      dup3\n        /* \"#utility.yul\":27187:27254   */\n      tag_315\n      jump\t// in\n    tag_583:\n        /* \"#utility.yul\":27181:27185   */\n      dup7\n        /* \"#utility.yul\":27174:27255   */\n      sstore\n        /* \"#utility.yul\":27043:27265   */\n      pop\n        /* \"#utility.yul\":26378:27265   */\n      jump(tag_580)\n        /* \"#utility.yul\":26408:27026   */\n    tag_581:\n        /* \"#utility.yul\":26460:26464   */\n      0x1f\n        /* \"#utility.yul\":26456:26465   */\n      not\n        /* \"#utility.yul\":26448:26454   */\n      dup5\n        /* \"#utility.yul\":26444:26466   */\n      and\n        /* \"#utility.yul\":26494:26531   */\n      tag_584\n        /* \"#utility.yul\":26526:26530   */\n      dup7\n        /* \"#utility.yul\":26494:26531   */\n      tag_301\n      jump\t// in\n    tag_584:\n        /* \"#utility.yul\":26553:26554   */\n      0x00\n        /* \"#utility.yul\":26567:26775   */\n    tag_585:\n        /* \"#utility.yul\":26581:26588   */\n      dup3\n        /* \"#utility.yul\":26578:26579   */\n      dup2\n        /* \"#utility.yul\":26575:26589   */\n      lt\n        /* \"#utility.yul\":26567:26775   */\n      iszero\n      tag_587\n      jumpi\n        /* \"#utility.yul\":26660:26669   */\n      dup5\n        /* \"#utility.yul\":26655:26658   */\n      dup10\n        /* \"#utility.yul\":26651:26670   */\n      add\n        /* \"#utility.yul\":26645:26671   */\n      mload\n        /* \"#utility.yul\":26637:26643   */\n      dup3\n        /* \"#utility.yul\":26630:26672   */\n      sstore\n        /* \"#utility.yul\":26711:26712   */\n      0x01\n        /* \"#utility.yul\":26703:26709   */\n      dup3\n        /* \"#utility.yul\":26699:26713   */\n      add\n        /* \"#utility.yul\":26689:26713   */\n      swap2\n      pop\n        /* \"#utility.yul\":26758:26760   */\n      0x20\n        /* \"#utility.yul\":26747:26756   */\n      dup6\n        /* \"#utility.yul\":26743:26761   */\n      add\n        /* \"#utility.yul\":26730:26761   */\n      swap5\n      pop\n        /* \"#utility.yul\":26604:26608   */\n      0x20\n        /* \"#utility.yul\":26601:26602   */\n      dup2\n        /* \"#utility.yul\":26597:26609   */\n      add\n        /* \"#utility.yul\":26592:26609   */\n      swap1\n      pop\n        /* \"#utility.yul\":26567:26775   */\n      jump(tag_585)\n    tag_587:\n        /* \"#utility.yul\":26803:26809   */\n      dup7\n        /* \"#utility.yul\":26794:26801   */\n      dup4\n        /* \"#utility.yul\":26791:26810   */\n      lt\n        /* \"#utility.yul\":26788:26967   */\n      iszero\n      tag_588\n      jumpi\n        /* \"#utility.yul\":26861:26870   */\n      dup5\n        /* \"#utility.yul\":26856:26859   */\n      dup10\n        /* \"#utility.yul\":26852:26871   */\n      add\n        /* \"#utility.yul\":26846:26872   */\n      mload\n        /* \"#utility.yul\":26904:26952   */\n      tag_589\n        /* \"#utility.yul\":26946:26950   */\n      0x1f\n        /* \"#utility.yul\":26938:26944   */\n      dup10\n        /* \"#utility.yul\":26934:26951   */\n      and\n        /* \"#utility.yul\":26923:26932   */\n      dup3\n        /* \"#utility.yul\":26904:26952   */\n      tag_314\n      jump\t// in\n    tag_589:\n        /* \"#utility.yul\":26896:26902   */\n      dup4\n        /* \"#utility.yul\":26889:26953   */\n      sstore\n        /* \"#utility.yul\":26811:26967   */\n      pop\n        /* \"#utility.yul\":26788:26967   */\n    tag_588:\n        /* \"#utility.yul\":27013:27014   */\n      0x01\n        /* \"#utility.yul\":27009:27010   */\n      0x02\n        /* \"#utility.yul\":27001:27007   */\n      dup9\n        /* \"#utility.yul\":26997:27011   */\n      mul\n        /* \"#utility.yul\":26993:27015   */\n      add\n        /* \"#utility.yul\":26987:26991   */\n      dup9\n        /* \"#utility.yul\":26980:27016   */\n      sstore\n        /* \"#utility.yul\":26415:27026   */\n      pop\n      pop\n      pop\n        /* \"#utility.yul\":26378:27265   */\n    tag_580:\n      pop\n        /* \"#utility.yul\":25968:27271   */\n      pop\n      pop\n      pop\n        /* \"#utility.yul\":25876:27271   */\n      pop\n      pop\n      jump\t// out\n        /* \"#utility.yul\":27277:27468   */\n    tag_146:\n        /* \"#utility.yul\":27317:27320   */\n      0x00\n        /* \"#utility.yul\":27336:27356   */\n      tag_591\n        /* \"#utility.yul\":27354:27355   */\n      dup3\n        /* \"#utility.yul\":27336:27356   */\n      tag_250\n      jump\t// in\n    tag_591:\n        /* \"#utility.yul\":27331:27356   */\n      swap2\n      pop\n        /* \"#utility.yul\":27370:27390   */\n      tag_592\n        /* \"#utility.yul\":27388:27389   */\n      dup4\n        /* \"#utility.yul\":27370:27390   */\n      tag_250\n      jump\t// in\n    tag_592:\n        /* \"#utility.yul\":27365:27390   */\n      swap3\n      pop\n        /* \"#utility.yul\":27413:27414   */\n      dup3\n        /* \"#utility.yul\":27410:27411   */\n      dup3\n        /* \"#utility.yul\":27406:27415   */\n      add\n        /* \"#utility.yul\":27399:27415   */\n      swap1\n      pop\n        /* \"#utility.yul\":27434:27437   */\n      dup1\n        /* \"#utility.yul\":27431:27432   */\n      dup3\n        /* \"#utility.yul\":27428:27438   */\n      gt\n        /* \"#utility.yul\":27425:27461   */\n      iszero\n      tag_593\n      jumpi\n        /* \"#utility.yul\":27441:27459   */\n      tag_594\n      tag_284\n      jump\t// in\n    tag_594:\n        /* \"#utility.yul\":27425:27461   */\n    tag_593:\n        /* \"#utility.yul\":27277:27468   */\n      swap3\n      swap2\n      pop\n      pop\n      jump\t// out\n        /* \"#utility.yul\":27474:27668   */\n    tag_151:\n        /* \"#utility.yul\":27514:27518   */\n      0x00\n        /* \"#utility.yul\":27534:27554   */\n      tag_596\n        /* \"#utility.yul\":27552:27553   */\n      dup3\n        /* \"#utility.yul\":27534:27554   */\n      tag_250\n      jump\t// in\n    tag_596:\n        /* \"#utility.yul\":27529:27554   */\n      swap2\n      pop\n        /* \"#utility.yul\":27568:27588   */\n      tag_597\n        /* \"#utility.yul\":27586:27587   */\n      dup4\n        /* \"#utility.yul\":27568:27588   */\n      tag_250\n      jump\t// in\n    tag_597:\n        /* \"#utility.yul\":27563:27588   */\n      swap3\n      pop\n        /* \"#utility.yul\":27612:27613   */\n      dup3\n        /* \"#utility.yul\":27609:27610   */\n      dup3\n        /* \"#utility.yul\":27605:27614   */\n      sub\n        /* \"#utility.yul\":27597:27614   */\n      swap1\n      pop\n        /* \"#utility.yul\":27636:27637   */\n      dup2\n        /* \"#utility.yul\":27630:27634   */\n      dup2\n        /* \"#utility.yul\":27627:27638   */\n      gt\n        /* \"#utility.yul\":27624:27661   */\n      iszero\n      tag_598\n      jumpi\n        /* \"#utility.yul\":27641:27659   */\n      tag_599\n      tag_284\n      jump\t// in\n    tag_599:\n        /* \"#utility.yul\":27624:27661   */\n    tag_598:\n        /* \"#utility.yul\":27474:27668   */\n      swap3\n      swap2\n      pop\n      pop\n      jump\t// out\n        /* \"#utility.yul\":27674:27909   */\n    tag_316:\n        /* \"#utility.yul\":27814:27848   */\n      0x5479706520646520706f736974696f6e20696e636f6e6e752c207574696c6973\n        /* \"#utility.yul\":27810:27811   */\n      0x00\n        /* \"#utility.yul\":27802:27808   */\n      dup3\n        /* \"#utility.yul\":27798:27812   */\n      add\n        /* \"#utility.yul\":27791:27849   */\n      mstore\n        /* \"#utility.yul\":27883:27901   */\n      0x6572204c4f4e47206f752053484f525400000000000000000000000000000000\n        /* \"#utility.yul\":27878:27880   */\n      0x20\n        /* \"#utility.yul\":27870:27876   */\n      dup3\n        /* \"#utility.yul\":27866:27881   */\n      add\n        /* \"#utility.yul\":27859:27902   */\n      mstore\n        /* \"#utility.yul\":27674:27909   */\n      pop\n      jump\t// out\n        /* \"#utility.yul\":27915:28281   */\n    tag_317:\n        /* \"#utility.yul\":28057:28060   */\n      0x00\n        /* \"#utility.yul\":28078:28145   */\n      tag_602\n        /* \"#utility.yul\":28142:28144   */\n      0x30\n        /* \"#utility.yul\":28137:28140   */\n      dup4\n        /* \"#utility.yul\":28078:28145   */\n      tag_281\n      jump\t// in\n    tag_602:\n        /* \"#utility.yul\":28071:28145   */\n      swap2\n      pop\n        /* \"#utility.yul\":28154:28247   */\n      tag_603\n        /* \"#utility.yul\":28243:28246   */\n      dup3\n        /* \"#utility.yul\":28154:28247   */\n      tag_316\n      jump\t// in\n    tag_603:\n        /* \"#utility.yul\":28272:28274   */\n      0x40\n        /* \"#utility.yul\":28267:28270   */\n      dup3\n        /* \"#utility.yul\":28263:28275   */\n      add\n        /* \"#utility.yul\":28256:28275   */\n      swap1\n      pop\n        /* \"#utility.yul\":27915:28281   */\n      swap2\n      swap1\n      pop\n      jump\t// out\n        /* \"#utility.yul\":28287:28706   */\n    tag_155:\n        /* \"#utility.yul\":28453:28457   */\n      0x00\n        /* \"#utility.yul\":28491:28493   */\n      0x20\n        /* \"#utility.yul\":28480:28489   */\n      dup3\n        /* \"#utility.yul\":28476:28494   */\n      add\n        /* \"#utility.yul\":28468:28494   */\n      swap1\n      pop\n        /* \"#utility.yul\":28540:28549   */\n      dup2\n        /* \"#utility.yul\":28534:28538   */\n      dup2\n        /* \"#utility.yul\":28530:28550   */\n      sub\n        /* \"#utility.yul\":28526:28527   */\n      0x00\n        /* \"#utility.yul\":28515:28524   */\n      dup4\n        /* \"#utility.yul\":28511:28528   */\n      add\n        /* \"#utility.yul\":28504:28551   */\n      mstore\n        /* \"#utility.yul\":28568:28699   */\n      tag_605\n        /* \"#utility.yul\":28694:28698   */\n      dup2\n        /* \"#utility.yul\":28568:28699   */\n      tag_317\n      jump\t// in\n    tag_605:\n        /* \"#utility.yul\":28560:28699   */\n      swap1\n      pop\n        /* \"#utility.yul\":28287:28706   */\n      swap2\n      swap1\n      pop\n      jump\t// out\n        /* \"#utility.yul\":28712:28851   */\n    tag_318:\n        /* \"#utility.yul\":28801:28807   */\n      dup3\n        /* \"#utility.yul\":28796:28799   */\n      dup2\n        /* \"#utility.yul\":28791:28794   */\n      dup4\n        /* \"#utility.yul\":28785:28808   */\n      mcopy\n        /* \"#utility.yul\":28842:28843   */\n      0x00\n        /* \"#utility.yul\":28833:28839   */\n      dup4\n        /* \"#utility.yul\":28828:28831   */\n      dup4\n        /* \"#utility.yul\":28824:28840   */\n      add\n        /* \"#utility.yul\":28817:28844   */\n      mstore\n        /* \"#utility.yul\":28712:28851   */\n      pop\n      pop\n      pop\n      jump\t// out\n        /* \"#utility.yul\":28857:29234   */\n    tag_319:\n        /* \"#utility.yul\":28945:28948   */\n      0x00\n        /* \"#utility.yul\":28973:29012   */\n      tag_608\n        /* \"#utility.yul\":29006:29011   */\n      dup3\n        /* \"#utility.yul\":28973:29012   */\n      tag_300\n      jump\t// in\n    tag_608:\n        /* \"#utility.yul\":29028:29099   */\n      tag_609\n        /* \"#utility.yul\":29092:29098   */\n      dup2\n        /* \"#utility.yul\":29087:29090   */\n      dup6\n        /* \"#utility.yul\":29028:29099   */\n      tag_281\n      jump\t// in\n    tag_609:\n        /* \"#utility.yul\":29021:29099   */\n      swap4\n      pop\n        /* \"#utility.yul\":29108:29173   */\n      tag_610\n        /* \"#utility.yul\":29166:29172   */\n      dup2\n        /* \"#utility.yul\":29161:29164   */\n      dup6\n        /* \"#utility.yul\":29154:29158   */\n      0x20\n        /* \"#utility.yul\":29147:29152   */\n      dup7\n        /* \"#utility.yul\":29143:29159   */\n      add\n        /* \"#utility.yul\":29108:29173   */\n      tag_318\n      jump\t// in\n    tag_610:\n        /* \"#utility.yul\":29198:29227   */\n      tag_611\n        /* \"#utility.yul\":29220:29226   */\n      dup2\n        /* \"#utility.yul\":29198:29227   */\n      tag_270\n      jump\t// in\n    tag_611:\n        /* \"#utility.yul\":29193:29196   */\n      dup5\n        /* \"#utility.yul\":29189:29228   */\n      add\n        /* \"#utility.yul\":29182:29228   */\n      swap2\n      pop\n        /* \"#utility.yul\":28949:29234   */\n      pop\n        /* \"#utility.yul\":28857:29234   */\n      swap3\n      swap2\n      pop\n      pop\n      jump\t// out\n        /* \"#utility.yul\":29240:29663   */\n    tag_159:\n        /* \"#utility.yul\":29381:29385   */\n      0x00\n        /* \"#utility.yul\":29419:29421   */\n      0x40\n        /* \"#utility.yul\":29408:29417   */\n      dup3\n        /* \"#utility.yul\":29404:29422   */\n      add\n        /* \"#utility.yul\":29396:29422   */\n      swap1\n      pop\n        /* \"#utility.yul\":29432:29503   */\n      tag_613\n        /* \"#utility.yul\":29500:29501   */\n      0x00\n        /* \"#utility.yul\":29489:29498   */\n      dup4\n        /* \"#utility.yul\":29485:29502   */\n      add\n        /* \"#utility.yul\":29476:29482   */\n      dup6\n        /* \"#utility.yul\":29432:29503   */\n      tag_251\n      jump\t// in\n    tag_613:\n        /* \"#utility.yul\":29550:29559   */\n      dup2\n        /* \"#utility.yul\":29544:29548   */\n      dup2\n        /* \"#utility.yul\":29540:29560   */\n      sub\n        /* \"#utility.yul\":29535:29537   */\n      0x20\n        /* \"#utility.yul\":29524:29533   */\n      dup4\n        /* \"#utility.yul\":29520:29538   */\n      add\n        /* \"#utility.yul\":29513:29561   */\n      mstore\n        /* \"#utility.yul\":29578:29656   */\n      tag_614\n        /* \"#utility.yul\":29651:29655   */\n      dup2\n        /* \"#utility.yul\":29642:29648   */\n      dup5\n        /* \"#utility.yul\":29578:29656   */\n      tag_319\n      jump\t// in\n    tag_614:\n        /* \"#utility.yul\":29570:29656   */\n      swap1\n      pop\n        /* \"#utility.yul\":29240:29663   */\n      swap4\n      swap3\n      pop\n      pop\n      pop\n      jump\t// out\n        /* \"#utility.yul\":29669:29845   */\n    tag_320:\n        /* \"#utility.yul\":29809:29837   */\n      0x436f6e7472657061727469652064656a6120696e616374697665000000000000\n        /* \"#utility.yul\":29805:29806   */\n      0x00\n        /* \"#utility.yul\":29797:29803   */\n      dup3\n        /* \"#utility.yul\":29793:29807   */\n      add\n        /* \"#utility.yul\":29786:29838   */\n      mstore\n        /* \"#utility.yul\":29669:29845   */\n      pop\n      jump\t// out\n        /* \"#utility.yul\":29851:30217   */\n    tag_321:\n        /* \"#utility.yul\":29993:29996   */\n      0x00\n        /* \"#utility.yul\":30014:30081   */\n      tag_617\n        /* \"#utility.yul\":30078:30080   */\n      0x1a\n        /* \"#utility.yul\":30073:30076   */\n      dup4\n        /* \"#utility.yul\":30014:30081   */\n      tag_281\n      jump\t// in\n    tag_617:\n        /* \"#utility.yul\":30007:30081   */\n      swap2\n      pop\n        /* \"#utility.yul\":30090:30183   */\n      tag_618\n        /* \"#utility.yul\":30179:30182   */\n      dup3\n        /* \"#utility.yul\":30090:30183   */\n      tag_320\n      jump\t// in\n    tag_618:\n        /* \"#utility.yul\":30208:30210   */\n      0x20\n        /* \"#utility.yul\":30203:30206   */\n      dup3\n        /* \"#utility.yul\":30199:30211   */\n      add\n        /* \"#utility.yul\":30192:30211   */\n      swap1\n      pop\n        /* \"#utility.yul\":29851:30217   */\n      swap2\n      swap1\n      pop\n      jump\t// out\n        /* \"#utility.yul\":30223:30642   */\n    tag_163:\n        /* \"#utility.yul\":30389:30393   */\n      0x00\n        /* \"#utility.yul\":30427:30429   */\n      0x20\n        /* \"#utility.yul\":30416:30425   */\n      dup3\n        /* \"#utility.yul\":30412:30430   */\n      add\n        /* \"#utility.yul\":30404:30430   */\n      swap1\n      pop\n        /* \"#utility.yul\":30476:30485   */\n      dup2\n        /* \"#utility.yul\":30470:30474   */\n      dup2\n        /* \"#utility.yul\":30466:30486   */\n      sub\n        /* \"#utility.yul\":30462:30463   */\n      0x00\n        /* \"#utility.yul\":30451:30460   */\n      dup4\n        /* \"#utility.yul\":30447:30464   */\n      add\n        /* \"#utility.yul\":30440:30487   */\n      mstore\n        /* \"#utility.yul\":30504:30635   */\n      tag_620\n        /* \"#utility.yul\":30630:30634   */\n      dup2\n        /* \"#utility.yul\":30504:30635   */\n      tag_321\n      jump\t// in\n    tag_620:\n        /* \"#utility.yul\":30496:30635   */\n      swap1\n      pop\n        /* \"#utility.yul\":30223:30642   */\n      swap2\n      swap1\n      pop\n      jump\t// out\n        /* \"#utility.yul\":30648:30829   */\n    tag_322:\n        /* \"#utility.yul\":30788:30821   */\n      0x4d6f6e74616e7420646f69742065747265207375706572696575722061203000\n        /* \"#utility.yul\":30784:30785   */\n      0x00\n        /* \"#utility.yul\":30776:30782   */\n      dup3\n        /* \"#utility.yul\":30772:30786   */\n      add\n        /* \"#utility.yul\":30765:30822   */\n      mstore\n        /* \"#utility.yul\":30648:30829   */\n      pop\n      jump\t// out\n        /* \"#utility.yul\":30835:31201   */\n    tag_323:\n        /* \"#utility.yul\":30977:30980   */\n      0x00\n        /* \"#utility.yul\":30998:31065   */\n      tag_623\n        /* \"#utility.yul\":31062:31064   */\n      0x1f\n        /* \"#utility.yul\":31057:31060   */\n      dup4\n        /* \"#utility.yul\":30998:31065   */\n      tag_281\n      jump\t// in\n    tag_623:\n        /* \"#utility.yul\":30991:31065   */\n      swap2\n      pop\n        /* \"#utility.yul\":31074:31167   */\n      tag_624\n        /* \"#utility.yul\":31163:31166   */\n      dup3\n        /* \"#utility.yul\":31074:31167   */\n      tag_322\n      jump\t// in\n    tag_624:\n        /* \"#utility.yul\":31192:31194   */\n      0x20\n        /* \"#utility.yul\":31187:31190   */\n      dup3\n        /* \"#utility.yul\":31183:31195   */\n      add\n        /* \"#utility.yul\":31176:31195   */\n      swap1\n      pop\n        /* \"#utility.yul\":30835:31201   */\n      swap2\n      swap1\n      pop\n      jump\t// out\n        /* \"#utility.yul\":31207:31626   */\n    tag_167:\n        /* \"#utility.yul\":31373:31377   */\n      0x00\n        /* \"#utility.yul\":31411:31413   */\n      0x20\n        /* \"#utility.yul\":31400:31409   */\n      dup3\n        /* \"#utility.yul\":31396:31414   */\n      add\n        /* \"#utility.yul\":31388:31414   */\n      swap1\n      pop\n        /* \"#utility.yul\":31460:31469   */\n      dup2\n        /* \"#utility.yul\":31454:31458   */\n      dup2\n        /* \"#utility.yul\":31450:31470   */\n      sub\n        /* \"#utility.yul\":31446:31447   */\n      0x00\n        /* \"#utility.yul\":31435:31444   */\n      dup4\n        /* \"#utility.yul\":31431:31448   */\n      add\n        /* \"#utility.yul\":31424:31471   */\n      mstore\n        /* \"#utility.yul\":31488:31619   */\n      tag_626\n        /* \"#utility.yul\":31614:31618   */\n      dup2\n        /* \"#utility.yul\":31488:31619   */\n      tag_323\n      jump\t// in\n    tag_626:\n        /* \"#utility.yul\":31480:31619   */\n      swap1\n      pop\n        /* \"#utility.yul\":31207:31626   */\n      swap2\n      swap1\n      pop\n      jump\t// out\n        /* \"#utility.yul\":31632:31866   */\n    tag_324:\n        /* \"#utility.yul\":31772:31806   */\n      0x5044206574204c474420646f6976656e7420657472652064657320706f757263\n        /* \"#utility.yul\":31768:31769   */\n      0x00\n        /* \"#utility.yul\":31760:31766   */\n      dup3\n        /* \"#utility.yul\":31756:31770   */\n      add\n        /* \"#utility.yul\":31749:31807   */\n      mstore\n        /* \"#utility.yul\":31841:31858   */\n      0x656e74616765732028302d313030290000000000000000000000000000000000\n        /* \"#utility.yul\":31836:31838   */\n      0x20\n        /* \"#utility.yul\":31828:31834   */\n      dup3\n        /* \"#utility.yul\":31824:31839   */\n      add\n        /* \"#utility.yul\":31817:31859   */\n      mstore\n        /* \"#utility.yul\":31632:31866   */\n      pop\n      jump\t// out\n        /* \"#utility.yul\":31872:32238   */\n    tag_325:\n        /* \"#utility.yul\":32014:32017   */\n      0x00\n        /* \"#utility.yul\":32035:32102   */\n      tag_629\n        /* \"#utility.yul\":32099:32101   */\n      0x2f\n        /* \"#utility.yul\":32094:32097   */\n      dup4\n        /* \"#utility.yul\":32035:32102   */\n      tag_281\n      jump\t// in\n    tag_629:\n        /* \"#utility.yul\":32028:32102   */\n      swap2\n      pop\n        /* \"#utility.yul\":32111:32204   */\n      tag_630\n        /* \"#utility.yul\":32200:32203   */\n      dup3\n        /* \"#utility.yul\":32111:32204   */\n      tag_324\n      jump\t// in\n    tag_630:\n        /* \"#utility.yul\":32229:32231   */\n      0x40\n        /* \"#utility.yul\":32224:32227   */\n      dup3\n        /* \"#utility.yul\":32220:32232   */\n      add\n        /* \"#utility.yul\":32213:32232   */\n      swap1\n      pop\n        /* \"#utility.yul\":31872:32238   */\n      swap2\n      swap1\n      pop\n      jump\t// out\n        /* \"#utility.yul\":32244:32663   */\n    tag_178:\n        /* \"#utility.yul\":32410:32414   */\n      0x00\n        /* \"#utility.yul\":32448:32450   */\n      0x20\n        /* \"#utility.yul\":32437:32446   */\n      dup3\n        /* \"#utility.yul\":32433:32451   */\n      add\n        /* \"#utility.yul\":32425:32451   */\n      swap1\n      pop\n        /* \"#utility.yul\":32497:32506   */\n      dup2\n        /* \"#utility.yul\":32491:32495   */\n      dup2\n        /* \"#utility.yul\":32487:32507   */\n      sub\n        /* \"#utility.yul\":32483:32484   */\n      0x00\n        /* \"#utility.yul\":32472:32481   */\n      dup4\n        /* \"#utility.yul\":32468:32485   */\n      add\n        /* \"#utility.yul\":32461:32508   */\n      mstore\n        /* \"#utility.yul\":32525:32656   */\n      tag_632\n        /* \"#utility.yul\":32651:32655   */\n      dup2\n        /* \"#utility.yul\":32525:32656   */\n      tag_325\n      jump\t// in\n    tag_632:\n        /* \"#utility.yul\":32517:32656   */\n      swap1\n      pop\n        /* \"#utility.yul\":32244:32663   */\n      swap2\n      swap1\n      pop\n      jump\t// out\n        /* \"#utility.yul\":32669:32847   */\n    tag_326:\n        /* \"#utility.yul\":32809:32839   */\n      0x4c696d6974652064276578706f736974696f6e20696e76616c69646500000000\n        /* \"#utility.yul\":32805:32806   */\n      0x00\n        /* \"#utility.yul\":32797:32803   */\n      dup3\n        /* \"#utility.yul\":32793:32807   */\n      add\n        /* \"#utility.yul\":32786:32840   */\n      mstore\n        /* \"#utility.yul\":32669:32847   */\n      pop\n      jump\t// out\n        /* \"#utility.yul\":32853:33219   */\n    tag_327:\n        /* \"#utility.yul\":32995:32998   */\n      0x00\n        /* \"#utility.yul\":33016:33083   */\n      tag_635\n        /* \"#utility.yul\":33080:33082   */\n      0x1c\n        /* \"#utility.yul\":33075:33078   */\n      dup4\n        /* \"#utility.yul\":33016:33083   */\n      tag_281\n      jump\t// in\n    tag_635:\n        /* \"#utility.yul\":33009:33083   */\n      swap2\n      pop\n        /* \"#utility.yul\":33092:33185   */\n      tag_636\n        /* \"#utility.yul\":33181:33184   */\n      dup3\n        /* \"#utility.yul\":33092:33185   */\n      tag_326\n      jump\t// in\n    tag_636:\n        /* \"#utility.yul\":33210:33212   */\n      0x20\n        /* \"#utility.yul\":33205:33208   */\n      dup3\n        /* \"#utility.yul\":33201:33213   */\n      add\n        /* \"#utility.yul\":33194:33213   */\n      swap1\n      pop\n        /* \"#utility.yul\":32853:33219   */\n      swap2\n      swap1\n      pop\n      jump\t// out\n        /* \"#utility.yul\":33225:33644   */\n    tag_201:\n        /* \"#utility.yul\":33391:33395   */\n      0x00\n        /* \"#utility.yul\":33429:33431   */\n      0x20\n        /* \"#utility.yul\":33418:33427   */\n      dup3\n        /* \"#utility.yul\":33414:33432   */\n      add\n        /* \"#utility.yul\":33406:33432   */\n      swap1\n      pop\n        /* \"#utility.yul\":33478:33487   */\n      dup2\n        /* \"#utility.yul\":33472:33476   */\n      dup2\n        /* \"#utility.yul\":33468:33488   */\n      sub\n        /* \"#utility.yul\":33464:33465   */\n      0x00\n        /* \"#utility.yul\":33453:33462   */\n      dup4\n        /* \"#utility.yul\":33449:33466   */\n      add\n        /* \"#utility.yul\":33442:33489   */\n      mstore\n        /* \"#utility.yul\":33506:33637   */\n      tag_638\n        /* \"#utility.yul\":33632:33636   */\n      dup2\n        /* \"#utility.yul\":33506:33637   */\n      tag_327\n      jump\t// in\n    tag_638:\n        /* \"#utility.yul\":33498:33637   */\n      swap1\n      pop\n        /* \"#utility.yul\":33225:33644   */\n      swap2\n      swap1\n      pop\n      jump\t// out\n        /* \"#utility.yul\":33650:33883   */\n    tag_328:\n        /* \"#utility.yul\":33790:33824   */\n      0x526174696f20696e737566666973616e7420706f757220726574697265722064\n        /* \"#utility.yul\":33786:33787   */\n      0x00\n        /* \"#utility.yul\":33778:33784   */\n      dup3\n        /* \"#utility.yul\":33774:33788   */\n      add\n        /* \"#utility.yul\":33767:33825   */\n      mstore\n        /* \"#utility.yul\":33859:33875   */\n      0x657320636f6c6c61746572617578000000000000000000000000000000000000\n        /* \"#utility.yul\":33854:33856   */\n      0x20\n        /* \"#utility.yul\":33846:33852   */\n      dup3\n        /* \"#utility.yul\":33842:33857   */\n      add\n        /* \"#utility.yul\":33835:33876   */\n      mstore\n        /* \"#utility.yul\":33650:33883   */\n      pop\n      jump\t// out\n        /* \"#utility.yul\":33889:34255   */\n    tag_329:\n        /* \"#utility.yul\":34031:34034   */\n      0x00\n        /* \"#utility.yul\":34052:34119   */\n      tag_641\n        /* \"#utility.yul\":34116:34118   */\n      0x2e\n        /* \"#utility.yul\":34111:34114   */\n      dup4\n        /* \"#utility.yul\":34052:34119   */\n      tag_281\n      jump\t// in\n    tag_641:\n        /* \"#utility.yul\":34045:34119   */\n      swap2\n      pop\n        /* \"#utility.yul\":34128:34221   */\n      tag_642\n        /* \"#utility.yul\":34217:34220   */\n      dup3\n        /* \"#utility.yul\":34128:34221   */\n      tag_328\n      jump\t// in\n    tag_642:\n        /* \"#utility.yul\":34246:34248   */\n      0x40\n        /* \"#utility.yul\":34241:34244   */\n      dup3\n        /* \"#utility.yul\":34237:34249   */\n      add\n        /* \"#utility.yul\":34230:34249   */\n      swap1\n      pop\n        /* \"#utility.yul\":33889:34255   */\n      swap2\n      swap1\n      pop\n      jump\t// out\n        /* \"#utility.yul\":34261:34680   */\n    tag_215:\n        /* \"#utility.yul\":34427:34431   */\n      0x00\n        /* \"#utility.yul\":34465:34467   */\n      0x20\n        /* \"#utility.yul\":34454:34463   */\n      dup3\n        /* \"#utility.yul\":34450:34468   */\n      add\n        /* \"#utility.yul\":34442:34468   */\n      swap1\n      pop\n        /* \"#utility.yul\":34514:34523   */\n      dup2\n        /* \"#utility.yul\":34508:34512   */\n      dup2\n        /* \"#utility.yul\":34504:34524   */\n      sub\n        /* \"#utility.yul\":34500:34501   */\n      0x00\n        /* \"#utility.yul\":34489:34498   */\n      dup4\n        /* \"#utility.yul\":34485:34502   */\n      add\n        /* \"#utility.yul\":34478:34525   */\n      mstore\n        /* \"#utility.yul\":34542:34673   */\n      tag_644\n        /* \"#utility.yul\":34668:34672   */\n      dup2\n        /* \"#utility.yul\":34542:34673   */\n      tag_329\n      jump\t// in\n    tag_644:\n        /* \"#utility.yul\":34534:34673   */\n      swap1\n      pop\n        /* \"#utility.yul\":34261:34680   */\n      swap2\n      swap1\n      pop\n      jump\t// out\n        /* \"#utility.yul\":34686:34919   */\n    tag_223:\n        /* \"#utility.yul\":34725:34728   */\n      0x00\n        /* \"#utility.yul\":34748:34772   */\n      tag_646\n        /* \"#utility.yul\":34766:34771   */\n      dup3\n        /* \"#utility.yul\":34748:34772   */\n      tag_250\n      jump\t// in\n    tag_646:\n        /* \"#utility.yul\":34739:34772   */\n      swap2\n      pop\n        /* \"#utility.yul\":34794:34860   */\n      0xffffffffffffffffffffffffffffffffffffffffffffffffffffffffffffffff\n        /* \"#utility.yul\":34787:34792   */\n      dup3\n        /* \"#utility.yul\":34784:34861   */\n      sub\n        /* \"#utility.yul\":34781:34884   */\n      tag_647\n      jumpi\n        /* \"#utility.yul\":34864:34882   */\n      tag_648\n      tag_284\n      jump\t// in\n    tag_648:\n        /* \"#utility.yul\":34781:34884   */\n    tag_647:\n        /* \"#utility.yul\":34911:34912   */\n      0x01\n        /* \"#utility.yul\":34904:34909   */\n      dup3\n        /* \"#utility.yul\":34900:34913   */\n      add\n        /* \"#utility.yul\":34893:34913   */\n      swap1\n      pop\n        /* \"#utility.yul\":34686:34919   */\n      swap2\n      swap1\n      pop\n      jump\t// out\n\n    auxdata: 0xa26469706673582212203f45dba8f34c03055239a48f91539d99d58e2f95bea877e3da08de01f3fc3fdc64736f6c634300081a0033\n}\n",
				"bytecode": {
					"linkReferences": {},
					"object": "6080604052348015600e575f80fd5b50612d448061001c5f395ff3fe608060405234801561000f575f80fd5b50600436106100b2575f3560e01c806352ea56921161006f57806352ea56921461018a578063561a9927146101a65780635e7db763146101d6578063760b1eee14610206578063786a2d081461023c5780638564e0f21461026c576100b2565b80630aae162e146100b65780630f6b6286146100e65780631411ae6f146101165780634b932d38146101325780634dd54c2a14610152578063505b64cd1461016e575b5f80fd5b6100d060048036038101906100cb9190611bcb565b610288565b6040516100dd9190611c0e565b60405180910390f35b61010060048036038101906100fb9190611bcb565b6104e1565b60405161010d9190611c0e565b60405180910390f35b610130600480360381019061012b9190611c51565b6104f6565b005b61013a610801565b60405161014993929190611e23565b60405180910390f35b61016c60048036038101906101679190611fa9565b610bc9565b005b61018860048036038101906101839190611bcb565b610ed5565b005b6101a4600480360381019061019f9190612015565b610fc6565b005b6101c060048036038101906101bb9190612053565b611108565b6040516101cd919061208d565b60405180910390f35b6101f060048036038101906101eb91906120a6565b611143565b6040516101fd9190611c0e565b60405180910390f35b610220600480360381019061021b9190611bcb565b6113b1565b6040516102339796959493929190612110565b60405180910390f35b61025660048036038101906102519190611bcb565b611419565b6040516102639190611c0e565b60405180910390f35b61028660048036038101906102819190612015565b6116cc565b005b5f805f808473ffffffffffffffffffffffffffffffffffffffff1673ffffffffffffffffffffffffffffffffffffffff1681526020019081526020015f20604051806101000160405290815f82015f9054906101000a900473ffffffffffffffffffffffffffffffffffffffff1673ffffffffffffffffffffffffffffffffffffffff1673ffffffffffffffffffffffffffffffffffffffff1681526020016001820154815260200160028201548152602001600382015481526020016004820154815260200160058201805480602002602001604051908101604052809291908181526020015f905b82821015610445578382905f5260205f2090600302016040518060600160405290815f82015481526020016001820180546103ac906121aa565b80601f01602080910402602001604051908101604052809291908181526020018280546103d8906121aa565b80156104235780601f106103fa57610100808354040283529160200191610423565b820191905f5260205f20905b81548152906001019060200180831161040657829003601f168201915b5050505050815260200160028201548152505081526020019060010190610372565b505050508152602001600682015f9054906101000a900460ff1615151515815260200160078201548152505090505f8160600151116104b9576040517f08c379a00000000000000000000000000000000000000000000000000000000081526004016104b090612234565b60405180910390fd5b8060600151606482608001516104cf919061227f565b6104d991906122ed565b915050919050565b6002602052805f5260405f205f915090505481565b5f73ffffffffffffffffffffffffffffffffffffffff168473ffffffffffffffffffffffffffffffffffffffff1603610564576040517f08c379a000000000000000000000000000000000000000000000000000000000815260040161055b90612367565b60405180910390fd5b5f808573ffffffffffffffffffffffffffffffffffffffff1673ffffffffffffffffffffffffffffffffffffffff1681526020019081526020015f206006015f9054906101000a900460ff16156105f0576040517f08c379a00000000000000000000000000000000000000000000000000000000081526004016105e7906123cf565b60405180910390fd5b5f8211610632576040517f08c379a00000000000000000000000000000000000000000000000000000000081526004016106299061245d565b60405180910390fd5b5f83118015610642575060648311155b610681576040517f08c379a0000000000000000000000000000000000000000000000000000000008152600401610678906124c5565b60405180910390fd5b5f805f8673ffffffffffffffffffffffffffffffffffffffff1673ffffffffffffffffffffffffffffffffffffffff1681526020019081526020015f20905084815f015f6101000a81548173ffffffffffffffffffffffffffffffffffffffff021916908373ffffffffffffffffffffffffffffffffffffffff1602179055508381600101819055508281600201819055505f81600301819055508181600401819055506001816006015f6101000a81548160ff0219169083151502179055505f8160070181905550600185908060018154018082558091505060019003905f5260205f20015f9091909190916101000a81548173ffffffffffffffffffffffffffffffffffffffff021916908373ffffffffffffffffffffffffffffffffffffffff1602179055508473ffffffffffffffffffffffffffffffffffffffff167fd3f5388c2257f37d0083b7a1edcc31b560eda57385dcd90c8429a7fb8038391084846040516107f29291906124e3565b60405180910390a25050505050565b60608060605f60018054905067ffffffffffffffff81111561082657610825611e85565b5b6040519080825280602002602001820160405280156108545781602001602082028036833780820191505090505b5090505f60018054905067ffffffffffffffff81111561087757610876611e85565b5b6040519080825280602002602001820160405280156108a55781602001602082028036833780820191505090505b5090505f5b600180549050811015610b32575f805f600184815481106108ce576108cd61250a565b5b905f5260205f20015f9054906101000a900473ffffffffffffffffffffffffffffffffffffffff1673ffffffffffffffffffffffffffffffffffffffff1673ffffffffffffffffffffffffffffffffffffffff1681526020019081526020015f20604051806101000160405290815f82015f9054906101000a900473ffffffffffffffffffffffffffffffffffffffff1673ffffffffffffffffffffffffffffffffffffffff1673ffffffffffffffffffffffffffffffffffffffff1681526020016001820154815260200160028201548152602001600382015481526020016004820154815260200160058201805480602002602001604051908101604052809291908181526020015f905b82821015610aae578382905f5260205f2090600302016040518060600160405290815f8201548152602001600182018054610a15906121aa565b80601f0160208091040260200160405190810160405280929190818152602001828054610a41906121aa565b8015610a8c5780601f10610a6357610100808354040283529160200191610a8c565b820191905f5260205f20905b815481529060010190602001808311610a6f57829003601f168201915b50505050508152602001600282015481525050815260200190600101906109db565b505050508152602001600682015f9054906101000a900460ff1615151515815260200160078201548152505090508060400151848381518110610af457610af361250a565b5b6020026020010181815250508060600151838381518110610b1857610b1761250a565b5b6020026020010181815250505080806001019150506108aa565b506001828282805480602002602001604051908101604052809291908181526020018280548015610bb557602002820191905f5260205f20905b815f9054906101000a900473ffffffffffffffffffffffffffffffffffffffff1673ffffffffffffffffffffffffffffffffffffffff1681526020019060010190808311610b6c575b505050505092509450945094505050909192565b5f808473ffffffffffffffffffffffffffffffffffffffff1673ffffffffffffffffffffffffffffffffffffffff1681526020019081526020015f206006015f9054906101000a900460ff16610c54576040517f08c379a0000000000000000000000000000000000000000000000000000000008152600401610c4b90612581565b60405180910390fd5b5f815111610c97576040517f08c379a0000000000000000000000000000000000000000000000000000000008152600401610c8e906125e9565b60405180910390fd5b5f8211610cd9576040517f08c379a0000000000000000000000000000000000000000000000000000000008152600401610cd090612677565b60405180910390fd5b5f805f8573ffffffffffffffffffffffffffffffffffffffff1673ffffffffffffffffffffffffffffffffffffffff1681526020019081526020015f20905080600501604051806060016040528085815260200184815260200142815250908060018154018082558091505060019003905f5260205f2090600302015f909190919091505f820151815f01556020820151816001019081610d7a919061283c565b506040820151816002015550505f828051906020012090507f26207b3d79cb8a2f4d7984d34034720f053ed770a9f512147f4ea54e18ede2c38103610dd85783826003015f828254610dcc919061290b565b92505081905550610e75565b7f67f2240dbdc5a5a1bba6ef58dd6499d8bcf8da14a71dffeedddc7956475ebac48103610e39578382600301541115610e2a5783826003015f828254610e1e919061293e565b92505081905550610e34565b5f82600301819055505b610e74565b6040517f08c379a0000000000000000000000000000000000000000000000000000000008152600401610e6b906129e1565b60405180910390fd5b5b610e7e85611874565b8473ffffffffffffffffffffffffffffffffffffffff167f59d80496e2d6d2b8a6def9b929b89c4f2e142ab465551a6e2ab7568a700dc51c8585604051610ec6929190612a45565b60405180910390a25050505050565b5f805f8373ffffffffffffffffffffffffffffffffffffffff1673ffffffffffffffffffffffffffffffffffffffff1681526020019081526020015f209050806006015f9054906101000a900460ff16610f64576040517f08c379a0000000000000000000000000000000000000000000000000000000008152600401610f5b90612abd565b60405180910390fd5b5f816006015f6101000a81548160ff0219169083151502179055508173ffffffffffffffffffffffffffffffffffffffff167fae8857b2966eb8a781a2b3955a5558d92f570a4d7b27e224849fc315c8d4024b60405160405180910390a25050565b5f8111611008576040517f08c379a0000000000000000000000000000000000000000000000000000000008152600401610fff90612b25565b60405180910390fd5b5f805f8473ffffffffffffffffffffffffffffffffffffffff1673ffffffffffffffffffffffffffffffffffffffff1681526020019081526020015f209050806006015f9054906101000a900460ff16611097576040517f08c379a000000000000000000000000000000000000000000000000000000000815260040161108e90612581565b60405180910390fd5b81816004015f8282546110aa919061290b565b925050819055508273ffffffffffffffffffffffffffffffffffffffff167fd774cc25cff1cc53f7b2e33e1c2c9ee9ded38f0a9330714f5dbe439d76c2386582600401546040516110fb9190611c0e565b60405180910390a2505050565b60018181548110611117575f80fd5b905f5260205f20015f915054906101000a900473ffffffffffffffffffffffffffffffffffffffff1681565b5f60648311158015611156575060648211155b611195576040517f08c379a000000000000000000000000000000000000000000000000000000000815260040161118c90612bb3565b60405180910390fd5b5f805f8673ffffffffffffffffffffffffffffffffffffffff1673ffffffffffffffffffffffffffffffffffffffff1681526020019081526020015f20604051806101000160405290815f82015f9054906101000a900473ffffffffffffffffffffffffffffffffffffffff1673ffffffffffffffffffffffffffffffffffffffff1673ffffffffffffffffffffffffffffffffffffffff1681526020016001820154815260200160028201548152602001600382015481526020016004820154815260200160058201805480602002602001604051908101604052809291908181526020015f905b82821015611351578382905f5260205f2090600302016040518060600160405290815f82015481526020016001820180546112b8906121aa565b80601f01602080910402602001604051908101604052809291908181526020018280546112e4906121aa565b801561132f5780601f106113065761010080835404028352916020019161132f565b820191905f5260205f20905b81548152906001019060200180831161131257829003601f168201915b505050505081526020016002820154815250508152602001906001019061127e565b505050508152602001600682015f9054906101000a900460ff16151515158152602001600782015481525050905061271083858360600151611393919061227f565b61139d919061227f565b6113a791906122ed565b9150509392505050565b5f602052805f5260405f205f91509050805f015f9054906101000a900473ffffffffffffffffffffffffffffffffffffffff1690806001015490806002015490806003015490806004015490806006015f9054906101000a900460ff16908060070154905087565b5f805f808473ffffffffffffffffffffffffffffffffffffffff1673ffffffffffffffffffffffffffffffffffffffff1681526020019081526020015f20604051806101000160405290815f82015f9054906101000a900473ffffffffffffffffffffffffffffffffffffffff1673ffffffffffffffffffffffffffffffffffffffff1673ffffffffffffffffffffffffffffffffffffffff1681526020016001820154815260200160028201548152602001600382015481526020016004820154815260200160058201805480602002602001604051908101604052809291908181526020015f905b828210156115d6578382905f5260205f2090600302016040518060600160405290815f820154815260200160018201805461153d906121aa565b80601f0160208091040260200160405190810160405280929190818152602001828054611569906121aa565b80156115b45780601f1061158b576101008083540402835291602001916115b4565b820191905f5260205f20905b81548152906001019060200180831161159757829003601f168201915b5050505050815260200160028201548152505081526020019060010190611503565b505050508152602001600682015f9054906101000a900460ff1615151515815260200160078201548152505090505f81604001511161164a576040517f08c379a000000000000000000000000000000000000000000000000000000000815260040161164190612c1b565b60405180910390fd5b5f816020015111611690576040517f08c379a0000000000000000000000000000000000000000000000000000000008152600401611687906124c5565b60405180910390fd5b5f8160400151606483606001516116a7919061227f565b6116b191906122ed565b90508160200151816116c391906122ed565b92505050919050565b5f811161170e576040517f08c379a000000000000000000000000000000000000000000000000000000000815260040161170590612b25565b60405180910390fd5b5f805f8473ffffffffffffffffffffffffffffffffffffffff1673ffffffffffffffffffffffffffffffffffffffff1681526020019081526020015f209050806006015f9054906101000a900460ff1661179d576040517f08c379a000000000000000000000000000000000000000000000000000000000815260040161179490612581565b60405180910390fd5b60966117a884610288565b10156117e9576040517f08c379a00000000000000000000000000000000000000000000000000000000081526004016117e090612ca9565b60405180910390fd5b818160040154106118135781816004015f828254611807919061293e565b9250508190555061181d565b5f81600401819055505b8273ffffffffffffffffffffffffffffffffffffffff167fd774cc25cff1cc53f7b2e33e1c2c9ee9ded38f0a9330714f5dbe439d76c2386582600401546040516118679190611c0e565b60405180910390a2505050565b5f805f8373ffffffffffffffffffffffffffffffffffffffff1673ffffffffffffffffffffffffffffffffffffffff1681526020019081526020015f2090508060020154816003015411156119ea5760025f8373ffffffffffffffffffffffffffffffffffffffff1673ffffffffffffffffffffffffffffffffffffffff1681526020019081526020015f205f81548092919061191090612cc7565b91905055508173ffffffffffffffffffffffffffffffffffffffff167f9a2dd2b852c39cdc36ebfa2bc55459f64fd51881ebfde683d37a31595c27da48826003015483600201546040516119659291906124e3565b60405180910390a2600360025f8473ffffffffffffffffffffffffffffffffffffffff1673ffffffffffffffffffffffffffffffffffffffff1681526020019081526020015f2054106119e9576119bb82611a60565b600a8160010154116119ce5760016119e0565b600a81600101546119df919061293e565b5b81600101819055505b5b5f81600301541115611a5c575f611a0083610288565b90506064811015611a5a578273ffffffffffffffffffffffffffffffffffffffff167f674fc74c826dbec5edeac8ecdfd4401967af353ce41c4918c79ebea80e27c36782604051611a519190611c0e565b60405180910390a25b505b5050565b5f805f8373ffffffffffffffffffffffffffffffffffffffff1673ffffffffffffffffffffffffffffffffffffffff1681526020019081526020015f2090505f6064600a8360030154611ab3919061227f565b611abd91906122ed565b905080826004015410611ae95780826004015f828254611add919061293e565b92505081905550611af3565b5f82600401819055505b80826007015f828254611b06919061290b565b925050819055508273ffffffffffffffffffffffffffffffffffffffff167fa7efd79f8b4f74475645bb98022d7135feab57d5b96cb33512477b288e3ff9c382604051611b539190611c0e565b60405180910390a2505050565b5f604051905090565b5f80fd5b5f80fd5b5f73ffffffffffffffffffffffffffffffffffffffff82169050919050565b5f611b9a82611b71565b9050919050565b611baa81611b90565b8114611bb4575f80fd5b50565b5f81359050611bc581611ba1565b92915050565b5f60208284031215611be057611bdf611b69565b5b5f611bed84828501611bb7565b91505092915050565b5f819050919050565b611c0881611bf6565b82525050565b5f602082019050611c215f830184611bff565b92915050565b611c3081611bf6565b8114611c3a575f80fd5b50565b5f81359050611c4b81611c27565b92915050565b5f805f8060808587031215611c6957611c68611b69565b5b5f611c7687828801611bb7565b9450506020611c8787828801611c3d565b9350506040611c9887828801611c3d565b9250506060611ca987828801611c3d565b91505092959194509250565b5f81519050919050565b5f82825260208201905092915050565b5f819050602082019050919050565b611ce781611b90565b82525050565b5f611cf88383611cde565b60208301905092915050565b5f602082019050919050565b5f611d1a82611cb5565b611d248185611cbf565b9350611d2f83611ccf565b805f5b83811015611d5f578151611d468882611ced565b9750611d5183611d04565b925050600181019050611d32565b5085935050505092915050565b5f81519050919050565b5f82825260208201905092915050565b5f819050602082019050919050565b611d9e81611bf6565b82525050565b5f611daf8383611d95565b60208301905092915050565b5f602082019050919050565b5f611dd182611d6c565b611ddb8185611d76565b9350611de683611d86565b805f5b83811015611e16578151611dfd8882611da4565b9750611e0883611dbb565b925050600181019050611de9565b5085935050505092915050565b5f6060820190508181035f830152611e3b8186611d10565b90508181036020830152611e4f8185611dc7565b90508181036040830152611e638184611dc7565b9050949350505050565b5f80fd5b5f80fd5b5f601f19601f8301169050919050565b7f4e487b71000000000000000000000000000000000000000000000000000000005f52604160045260245ffd5b611ebb82611e75565b810181811067ffffffffffffffff82111715611eda57611ed9611e85565b5b80604052505050565b5f611eec611b60565b9050611ef88282611eb2565b919050565b5f67ffffffffffffffff821115611f1757611f16611e85565b5b611f2082611e75565b9050602081019050919050565b828183375f83830152505050565b5f611f4d611f4884611efd565b611ee3565b905082815260208101848484011115611f6957611f68611e71565b5b611f74848285611f2d565b509392505050565b5f82601f830112611f9057611f8f611e6d565b5b8135611fa0848260208601611f3b565b91505092915050565b5f805f60608486031215611fc057611fbf611b69565b5b5f611fcd86828701611bb7565b9350506020611fde86828701611c3d565b925050604084013567ffffffffffffffff811115611fff57611ffe611b6d565b5b61200b86828701611f7c565b9150509250925092565b5f806040838503121561202b5761202a611b69565b5b5f61203885828601611bb7565b925050602061204985828601611c3d565b9150509250929050565b5f6020828403121561206857612067611b69565b5b5f61207584828501611c3d565b91505092915050565b61208781611b90565b82525050565b5f6020820190506120a05f83018461207e565b92915050565b5f805f606084860312156120bd576120bc611b69565b5b5f6120ca86828701611bb7565b93505060206120db86828701611c3d565b92505060406120ec86828701611c3d565b9150509250925092565b5f8115159050919050565b61210a816120f6565b82525050565b5f60e0820190506121235f83018a61207e565b6121306020830189611bff565b61213d6040830188611bff565b61214a6060830187611bff565b6121576080830186611bff565b61216460a0830185612101565b61217160c0830184611bff565b98975050505050505050565b7f4e487b71000000000000000000000000000000000000000000000000000000005f52602260045260245ffd5b5f60028204905060018216806121c157607f821691505b6020821081036121d4576121d361217d565b5b50919050565b5f82825260208201905092915050565b7f4578706f736974696f6e20636f7572616e7465206e756c6c65000000000000005f82015250565b5f61221e6019836121da565b9150612229826121ea565b602082019050919050565b5f6020820190508181035f83015261224b81612212565b9050919050565b7f4e487b71000000000000000000000000000000000000000000000000000000005f52601160045260245ffd5b5f61228982611bf6565b915061229483611bf6565b92508282026122a281611bf6565b915082820484148315176122b9576122b8612252565b5b5092915050565b7f4e487b71000000000000000000000000000000000000000000000000000000005f52601260045260245ffd5b5f6122f782611bf6565b915061230283611bf6565b925082612312576123116122c0565b5b828204905092915050565b7f4164726573736520696e76616c696465000000000000000000000000000000005f82015250565b5f6123516010836121da565b915061235c8261231d565b602082019050919050565b5f6020820190508181035f83015261237e81612345565b9050919050565b7f436f6e747265706172746965206578697374652064656a6100000000000000005f82015250565b5f6123b96018836121da565b91506123c482612385565b602082019050919050565b5f6020820190508181035f8301526123e6816123ad565b9050919050565b7f4c61206c696d6974652064276578706f736974696f6e20646f697420657472655f8201527f20706f7369746976650000000000000000000000000000000000000000000000602082015250565b5f6124476029836121da565b9150612452826123ed565b604082019050919050565b5f6020820190508181035f8301526124748161243b565b9050919050565b7f53636f72652064652063726564697420696e76616c69646500000000000000005f82015250565b5f6124af6018836121da565b91506124ba8261247b565b602082019050919050565b5f6020820190508181035f8301526124dc816124a3565b9050919050565b5f6040820190506124f65f830185611bff565b6125036020830184611bff565b9392505050565b7f4e487b71000000000000000000000000000000000000000000000000000000005f52603260045260245ffd5b7f436f6e74726570617274696520696e61637469766500000000000000000000005f82015250565b5f61256b6015836121da565b915061257682612537565b602082019050919050565b5f6020820190508181035f8301526125988161255f565b9050919050565b7f5479706520646520706f736974696f6e20696e76616c696465000000000000005f82015250565b5f6125d36019836121da565b91506125de8261259f565b602082019050919050565b5f6020820190508181035f830152612600816125c7565b9050919050565b7f4c65206d6f6e74616e7420646f697420657472652073757065726965757220615f8201527f2030000000000000000000000000000000000000000000000000000000000000602082015250565b5f6126616022836121da565b915061266c82612607565b604082019050919050565b5f6020820190508181035f83015261268e81612655565b9050919050565b5f81519050919050565b5f819050815f5260205f209050919050565b5f6020601f8301049050919050565b5f82821b905092915050565b5f600883026126fb7fffffffffffffffffffffffffffffffffffffffffffffffffffffffffffffffff826126c0565b61270586836126c0565b95508019841693508086168417925050509392505050565b5f819050919050565b5f61274061273b61273684611bf6565b61271d565b611bf6565b9050919050565b5f819050919050565b61275983612726565b61276d61276582612747565b8484546126cc565b825550505050565b5f90565b612781612775565b61278c818484612750565b505050565b5b818110156127af576127a45f82612779565b600181019050612792565b5050565b601f8211156127f4576127c58161269f565b6127ce846126b1565b810160208510156127dd578190505b6127f16127e9856126b1565b830182612791565b50505b505050565b5f82821c905092915050565b5f6128145f19846008026127f9565b1980831691505092915050565b5f61282c8383612805565b9150826002028217905092915050565b61284582612695565b67ffffffffffffffff81111561285e5761285d611e85565b5b61286882546121aa565b6128738282856127b3565b5f60209050601f8311600181146128a4575f8415612892578287015190505b61289c8582612821565b865550612903565b601f1984166128b28661269f565b5f5b828110156128d9578489015182556001820191506020850194506020810190506128b4565b868310156128f657848901516128f2601f891682612805565b8355505b6001600288020188555050505b505050505050565b5f61291582611bf6565b915061292083611bf6565b925082820190508082111561293857612937612252565b5b92915050565b5f61294882611bf6565b915061295383611bf6565b925082820390508181111561296b5761296a612252565b5b92915050565b7f5479706520646520706f736974696f6e20696e636f6e6e752c207574696c69735f8201527f6572204c4f4e47206f752053484f525400000000000000000000000000000000602082015250565b5f6129cb6030836121da565b91506129d682612971565b604082019050919050565b5f6020820190508181035f8301526129f8816129bf565b9050919050565b8281835e5f83830152505050565b5f612a1782612695565b612a2181856121da565b9350612a318185602086016129ff565b612a3a81611e75565b840191505092915050565b5f604082019050612a585f830185611bff565b8181036020830152612a6a8184612a0d565b90509392505050565b7f436f6e7472657061727469652064656a6120696e6163746976650000000000005f82015250565b5f612aa7601a836121da565b9150612ab282612a73565b602082019050919050565b5f6020820190508181035f830152612ad481612a9b565b9050919050565b7f4d6f6e74616e7420646f697420657472652073757065726965757220612030005f82015250565b5f612b0f601f836121da565b9150612b1a82612adb565b602082019050919050565b5f6020820190508181035f830152612b3c81612b03565b9050919050565b7f5044206574204c474420646f6976656e7420657472652064657320706f7572635f8201527f656e74616765732028302d313030290000000000000000000000000000000000602082015250565b5f612b9d602f836121da565b9150612ba882612b43565b604082019050919050565b5f6020820190508181035f830152612bca81612b91565b9050919050565b7f4c696d6974652064276578706f736974696f6e20696e76616c696465000000005f82015250565b5f612c05601c836121da565b9150612c1082612bd1565b602082019050919050565b5f6020820190508181035f830152612c3281612bf9565b9050919050565b7f526174696f20696e737566666973616e7420706f7572207265746972657220645f8201527f657320636f6c6c61746572617578000000000000000000000000000000000000602082015250565b5f612c93602e836121da565b9150612c9e82612c39565b604082019050919050565b5f6020820190508181035f830152612cc081612c87565b9050919050565b5f612cd182611bf6565b91507fffffffffffffffffffffffffffffffffffffffffffffffffffffffffffffffff8203612d0357612d02612252565b5b60018201905091905056fea26469706673582212203f45dba8f34c03055239a48f91539d99d58e2f95bea877e3da08de01f3fc3fdc64736f6c634300081a0033",
					"opcodes": "PUSH1 0x80 PUSH1 0x40 MSTORE CALLVALUE DUP1 ISZERO PUSH1 0xE JUMPI PUSH0 DUP1 REVERT JUMPDEST POP PUSH2 0x2D44 DUP1 PUSH2 0x1C PUSH0 CODECOPY PUSH0 RETURN INVALID PUSH1 0x80 PUSH1 0x40 MSTORE CALLVALUE DUP1 ISZERO PUSH2 0xF JUMPI PUSH0 DUP1 REVERT JUMPDEST POP PUSH1 0x4 CALLDATASIZE LT PUSH2 0xB2 JUMPI PUSH0 CALLDATALOAD PUSH1 0xE0 SHR DUP1 PUSH4 0x52EA5692 GT PUSH2 0x6F JUMPI DUP1 PUSH4 0x52EA5692 EQ PUSH2 0x18A JUMPI DUP1 PUSH4 0x561A9927 EQ PUSH2 0x1A6 JUMPI DUP1 PUSH4 0x5E7DB763 EQ PUSH2 0x1D6 JUMPI DUP1 PUSH4 0x760B1EEE EQ PUSH2 0x206 JUMPI DUP1 PUSH4 0x786A2D08 EQ PUSH2 0x23C JUMPI DUP1 PUSH4 0x8564E0F2 EQ PUSH2 0x26C JUMPI PUSH2 0xB2 JUMP JUMPDEST DUP1 PUSH4 0xAAE162E EQ PUSH2 0xB6 JUMPI DUP1 PUSH4 0xF6B6286 EQ PUSH2 0xE6 JUMPI DUP1 PUSH4 0x1411AE6F EQ PUSH2 0x116 JUMPI DUP1 PUSH4 0x4B932D38 EQ PUSH2 0x132 JUMPI DUP1 PUSH4 0x4DD54C2A EQ PUSH2 0x152 JUMPI DUP1 PUSH4 0x505B64CD EQ PUSH2 0x16E JUMPI JUMPDEST PUSH0 DUP1 REVERT JUMPDEST PUSH2 0xD0 PUSH1 0x4 DUP1 CALLDATASIZE SUB DUP2 ADD SWAP1 PUSH2 0xCB SWAP2 SWAP1 PUSH2 0x1BCB JUMP JUMPDEST PUSH2 0x288 JUMP JUMPDEST PUSH1 0x40 MLOAD PUSH2 0xDD SWAP2 SWAP1 PUSH2 0x1C0E JUMP JUMPDEST PUSH1 0x40 MLOAD DUP1 SWAP2 SUB SWAP1 RETURN JUMPDEST PUSH2 0x100 PUSH1 0x4 DUP1 CALLDATASIZE SUB DUP2 ADD SWAP1 PUSH2 0xFB SWAP2 SWAP1 PUSH2 0x1BCB JUMP JUMPDEST PUSH2 0x4E1 JUMP JUMPDEST PUSH1 0x40 MLOAD PUSH2 0x10D SWAP2 SWAP1 PUSH2 0x1C0E JUMP JUMPDEST PUSH1 0x40 MLOAD DUP1 SWAP2 SUB SWAP1 RETURN JUMPDEST PUSH2 0x130 PUSH1 0x4 DUP1 CALLDATASIZE SUB DUP2 ADD SWAP1 PUSH2 0x12B SWAP2 SWAP1 PUSH2 0x1C51 JUMP JUMPDEST PUSH2 0x4F6 JUMP JUMPDEST STOP JUMPDEST PUSH2 0x13A PUSH2 0x801 JUMP JUMPDEST PUSH1 0x40 MLOAD PUSH2 0x149 SWAP4 SWAP3 SWAP2 SWAP1 PUSH2 0x1E23 JUMP JUMPDEST PUSH1 0x40 MLOAD DUP1 SWAP2 SUB SWAP1 RETURN JUMPDEST PUSH2 0x16C PUSH1 0x4 DUP1 CALLDATASIZE SUB DUP2 ADD SWAP1 PUSH2 0x167 SWAP2 SWAP1 PUSH2 0x1FA9 JUMP JUMPDEST PUSH2 0xBC9 JUMP JUMPDEST STOP JUMPDEST PUSH2 0x188 PUSH1 0x4 DUP1 CALLDATASIZE SUB DUP2 ADD SWAP1 PUSH2 0x183 SWAP2 SWAP1 PUSH2 0x1BCB JUMP JUMPDEST PUSH2 0xED5 JUMP JUMPDEST STOP JUMPDEST PUSH2 0x1A4 PUSH1 0x4 DUP1 CALLDATASIZE SUB DUP2 ADD SWAP1 PUSH2 0x19F SWAP2 SWAP1 PUSH2 0x2015 JUMP JUMPDEST PUSH2 0xFC6 JUMP JUMPDEST STOP JUMPDEST PUSH2 0x1C0 PUSH1 0x4 DUP1 CALLDATASIZE SUB DUP2 ADD SWAP1 PUSH2 0x1BB SWAP2 SWAP1 PUSH2 0x2053 JUMP JUMPDEST PUSH2 0x1108 JUMP JUMPDEST PUSH1 0x40 MLOAD PUSH2 0x1CD SWAP2 SWAP1 PUSH2 0x208D JUMP JUMPDEST PUSH1 0x40 MLOAD DUP1 SWAP2 SUB SWAP1 RETURN JUMPDEST PUSH2 0x1F0 PUSH1 0x4 DUP1 CALLDATASIZE SUB DUP2 ADD SWAP1 PUSH2 0x1EB SWAP2 SWAP1 PUSH2 0x20A6 JUMP JUMPDEST PUSH2 0x1143 JUMP JUMPDEST PUSH1 0x40 MLOAD PUSH2 0x1FD SWAP2 SWAP1 PUSH2 0x1C0E JUMP JUMPDEST PUSH1 0x40 MLOAD DUP1 SWAP2 SUB SWAP1 RETURN JUMPDEST PUSH2 0x220 PUSH1 0x4 DUP1 CALLDATASIZE SUB DUP2 ADD SWAP1 PUSH2 0x21B SWAP2 SWAP1 PUSH2 0x1BCB JUMP JUMPDEST PUSH2 0x13B1 JUMP JUMPDEST PUSH1 0x40 MLOAD PUSH2 0x233 SWAP8 SWAP7 SWAP6 SWAP5 SWAP4 SWAP3 SWAP2 SWAP1 PUSH2 0x2110 JUMP JUMPDEST PUSH1 0x40 MLOAD DUP1 SWAP2 SUB SWAP1 RETURN JUMPDEST PUSH2 0x256 PUSH1 0x4 DUP1 CALLDATASIZE SUB DUP2 ADD SWAP1 PUSH2 0x251 SWAP2 SWAP1 PUSH2 0x1BCB JUMP JUMPDEST PUSH2 0x1419 JUMP JUMPDEST PUSH1 0x40 MLOAD PUSH2 0x263 SWAP2 SWAP1 PUSH2 0x1C0E JUMP JUMPDEST PUSH1 0x40 MLOAD DUP1 SWAP2 SUB SWAP1 RETURN JUMPDEST PUSH2 0x286 PUSH1 0x4 DUP1 CALLDATASIZE SUB DUP2 ADD SWAP1 PUSH2 0x281 SWAP2 SWAP1 PUSH2 0x2015 JUMP JUMPDEST PUSH2 0x16CC JUMP JUMPDEST STOP JUMPDEST PUSH0 DUP1 PUSH0 DUP1 DUP5 PUSH20 0xFFFFFFFFFFFFFFFFFFFFFFFFFFFFFFFFFFFFFFFF AND PUSH20 0xFFFFFFFFFFFFFFFFFFFFFFFFFFFFFFFFFFFFFFFF AND DUP2 MSTORE PUSH1 0x20 ADD SWAP1 DUP2 MSTORE PUSH1 0x20 ADD PUSH0 KECCAK256 PUSH1 0x40 MLOAD DUP1 PUSH2 0x100 ADD PUSH1 0x40 MSTORE SWAP1 DUP2 PUSH0 DUP3 ADD PUSH0 SWAP1 SLOAD SWAP1 PUSH2 0x100 EXP SWAP1 DIV PUSH20 0xFFFFFFFFFFFFFFFFFFFFFFFFFFFFFFFFFFFFFFFF AND PUSH20 0xFFFFFFFFFFFFFFFFFFFFFFFFFFFFFFFFFFFFFFFF AND PUSH20 0xFFFFFFFFFFFFFFFFFFFFFFFFFFFFFFFFFFFFFFFF AND DUP2 MSTORE PUSH1 0x20 ADD PUSH1 0x1 DUP3 ADD SLOAD DUP2 MSTORE PUSH1 0x20 ADD PUSH1 0x2 DUP3 ADD SLOAD DUP2 MSTORE PUSH1 0x20 ADD PUSH1 0x3 DUP3 ADD SLOAD DUP2 MSTORE PUSH1 0x20 ADD PUSH1 0x4 DUP3 ADD SLOAD DUP2 MSTORE PUSH1 0x20 ADD PUSH1 0x5 DUP3 ADD DUP1 SLOAD DUP1 PUSH1 0x20 MUL PUSH1 0x20 ADD PUSH1 0x40 MLOAD SWAP1 DUP2 ADD PUSH1 0x40 MSTORE DUP1 SWAP3 SWAP2 SWAP1 DUP2 DUP2 MSTORE PUSH1 0x20 ADD PUSH0 SWAP1 JUMPDEST DUP3 DUP3 LT ISZERO PUSH2 0x445 JUMPI DUP4 DUP3 SWAP1 PUSH0 MSTORE PUSH1 0x20 PUSH0 KECCAK256 SWAP1 PUSH1 0x3 MUL ADD PUSH1 0x40 MLOAD DUP1 PUSH1 0x60 ADD PUSH1 0x40 MSTORE SWAP1 DUP2 PUSH0 DUP3 ADD SLOAD DUP2 MSTORE PUSH1 0x20 ADD PUSH1 0x1 DUP3 ADD DUP1 SLOAD PUSH2 0x3AC SWAP1 PUSH2 0x21AA JUMP JUMPDEST DUP1 PUSH1 0x1F ADD PUSH1 0x20 DUP1 SWAP2 DIV MUL PUSH1 0x20 ADD PUSH1 0x40 MLOAD SWAP1 DUP2 ADD PUSH1 0x40 MSTORE DUP1 SWAP3 SWAP2 SWAP1 DUP2 DUP2 MSTORE PUSH1 0x20 ADD DUP3 DUP1 SLOAD PUSH2 0x3D8 SWAP1 PUSH2 0x21AA JUMP JUMPDEST DUP1 ISZERO PUSH2 0x423 JUMPI DUP1 PUSH1 0x1F LT PUSH2 0x3FA JUMPI PUSH2 0x100 DUP1 DUP4 SLOAD DIV MUL DUP4 MSTORE SWAP2 PUSH1 0x20 ADD SWAP2 PUSH2 0x423 JUMP JUMPDEST DUP3 ADD SWAP2 SWAP1 PUSH0 MSTORE PUSH1 0x20 PUSH0 KECCAK256 SWAP1 JUMPDEST DUP2 SLOAD DUP2 MSTORE SWAP1 PUSH1 0x1 ADD SWAP1 PUSH1 0x20 ADD DUP1 DUP4 GT PUSH2 0x406 JUMPI DUP3 SWAP1 SUB PUSH1 0x1F AND DUP3 ADD SWAP2 JUMPDEST POP POP POP POP POP DUP2 MSTORE PUSH1 0x20 ADD PUSH1 0x2 DUP3 ADD SLOAD DUP2 MSTORE POP POP DUP2 MSTORE PUSH1 0x20 ADD SWAP1 PUSH1 0x1 ADD SWAP1 PUSH2 0x372 JUMP JUMPDEST POP POP POP POP DUP2 MSTORE PUSH1 0x20 ADD PUSH1 0x6 DUP3 ADD PUSH0 SWAP1 SLOAD SWAP1 PUSH2 0x100 EXP SWAP1 DIV PUSH1 0xFF AND ISZERO ISZERO ISZERO ISZERO DUP2 MSTORE PUSH1 0x20 ADD PUSH1 0x7 DUP3 ADD SLOAD DUP2 MSTORE POP POP SWAP1 POP PUSH0 DUP2 PUSH1 0x60 ADD MLOAD GT PUSH2 0x4B9 JUMPI PUSH1 0x40 MLOAD PUSH32 0x8C379A000000000000000000000000000000000000000000000000000000000 DUP2 MSTORE PUSH1 0x4 ADD PUSH2 0x4B0 SWAP1 PUSH2 0x2234 JUMP JUMPDEST PUSH1 0x40 MLOAD DUP1 SWAP2 SUB SWAP1 REVERT JUMPDEST DUP1 PUSH1 0x60 ADD MLOAD PUSH1 0x64 DUP3 PUSH1 0x80 ADD MLOAD PUSH2 0x4CF SWAP2 SWAP1 PUSH2 0x227F JUMP JUMPDEST PUSH2 0x4D9 SWAP2 SWAP1 PUSH2 0x22ED JUMP JUMPDEST SWAP2 POP POP SWAP2 SWAP1 POP JUMP JUMPDEST PUSH1 0x2 PUSH1 0x20 MSTORE DUP1 PUSH0 MSTORE PUSH1 0x40 PUSH0 KECCAK256 PUSH0 SWAP2 POP SWAP1 POP SLOAD DUP2 JUMP JUMPDEST PUSH0 PUSH20 0xFFFFFFFFFFFFFFFFFFFFFFFFFFFFFFFFFFFFFFFF AND DUP5 PUSH20 0xFFFFFFFFFFFFFFFFFFFFFFFFFFFFFFFFFFFFFFFF AND SUB PUSH2 0x564 JUMPI PUSH1 0x40 MLOAD PUSH32 0x8C379A000000000000000000000000000000000000000000000000000000000 DUP2 MSTORE PUSH1 0x4 ADD PUSH2 0x55B SWAP1 PUSH2 0x2367 JUMP JUMPDEST PUSH1 0x40 MLOAD DUP1 SWAP2 SUB SWAP1 REVERT JUMPDEST PUSH0 DUP1 DUP6 PUSH20 0xFFFFFFFFFFFFFFFFFFFFFFFFFFFFFFFFFFFFFFFF AND PUSH20 0xFFFFFFFFFFFFFFFFFFFFFFFFFFFFFFFFFFFFFFFF AND DUP2 MSTORE PUSH1 0x20 ADD SWAP1 DUP2 MSTORE PUSH1 0x20 ADD PUSH0 KECCAK256 PUSH1 0x6 ADD PUSH0 SWAP1 SLOAD SWAP1 PUSH2 0x100 EXP SWAP1 DIV PUSH1 0xFF AND ISZERO PUSH2 0x5F0 JUMPI PUSH1 0x40 MLOAD PUSH32 0x8C379A000000000000000000000000000000000000000000000000000000000 DUP2 MSTORE PUSH1 0x4 ADD PUSH2 0x5E7 SWAP1 PUSH2 0x23CF JUMP JUMPDEST PUSH1 0x40 MLOAD DUP1 SWAP2 SUB SWAP1 REVERT JUMPDEST PUSH0 DUP3 GT PUSH2 0x632 JUMPI PUSH1 0x40 MLOAD PUSH32 0x8C379A000000000000000000000000000000000000000000000000000000000 DUP2 MSTORE PUSH1 0x4 ADD PUSH2 0x629 SWAP1 PUSH2 0x245D JUMP JUMPDEST PUSH1 0x40 MLOAD DUP1 SWAP2 SUB SWAP1 REVERT JUMPDEST PUSH0 DUP4 GT DUP1 ISZERO PUSH2 0x642 JUMPI POP PUSH1 0x64 DUP4 GT ISZERO JUMPDEST PUSH2 0x681 JUMPI PUSH1 0x40 MLOAD PUSH32 0x8C379A000000000000000000000000000000000000000000000000000000000 DUP2 MSTORE PUSH1 0x4 ADD PUSH2 0x678 SWAP1 PUSH2 0x24C5 JUMP JUMPDEST PUSH1 0x40 MLOAD DUP1 SWAP2 SUB SWAP1 REVERT JUMPDEST PUSH0 DUP1 PUSH0 DUP7 PUSH20 0xFFFFFFFFFFFFFFFFFFFFFFFFFFFFFFFFFFFFFFFF AND PUSH20 0xFFFFFFFFFFFFFFFFFFFFFFFFFFFFFFFFFFFFFFFF AND DUP2 MSTORE PUSH1 0x20 ADD SWAP1 DUP2 MSTORE PUSH1 0x20 ADD PUSH0 KECCAK256 SWAP1 POP DUP5 DUP2 PUSH0 ADD PUSH0 PUSH2 0x100 EXP DUP2 SLOAD DUP2 PUSH20 0xFFFFFFFFFFFFFFFFFFFFFFFFFFFFFFFFFFFFFFFF MUL NOT AND SWAP1 DUP4 PUSH20 0xFFFFFFFFFFFFFFFFFFFFFFFFFFFFFFFFFFFFFFFF AND MUL OR SWAP1 SSTORE POP DUP4 DUP2 PUSH1 0x1 ADD DUP2 SWAP1 SSTORE POP DUP3 DUP2 PUSH1 0x2 ADD DUP2 SWAP1 SSTORE POP PUSH0 DUP2 PUSH1 0x3 ADD DUP2 SWAP1 SSTORE POP DUP2 DUP2 PUSH1 0x4 ADD DUP2 SWAP1 SSTORE POP PUSH1 0x1 DUP2 PUSH1 0x6 ADD PUSH0 PUSH2 0x100 EXP DUP2 SLOAD DUP2 PUSH1 0xFF MUL NOT AND SWAP1 DUP4 ISZERO ISZERO MUL OR SWAP1 SSTORE POP PUSH0 DUP2 PUSH1 0x7 ADD DUP2 SWAP1 SSTORE POP PUSH1 0x1 DUP6 SWAP1 DUP1 PUSH1 0x1 DUP2 SLOAD ADD DUP1 DUP3 SSTORE DUP1 SWAP2 POP POP PUSH1 0x1 SWAP1 SUB SWAP1 PUSH0 MSTORE PUSH1 0x20 PUSH0 KECCAK256 ADD PUSH0 SWAP1 SWAP2 SWAP1 SWAP2 SWAP1 SWAP2 PUSH2 0x100 EXP DUP2 SLOAD DUP2 PUSH20 0xFFFFFFFFFFFFFFFFFFFFFFFFFFFFFFFFFFFFFFFF MUL NOT AND SWAP1 DUP4 PUSH20 0xFFFFFFFFFFFFFFFFFFFFFFFFFFFFFFFFFFFFFFFF AND MUL OR SWAP1 SSTORE POP DUP5 PUSH20 0xFFFFFFFFFFFFFFFFFFFFFFFFFFFFFFFFFFFFFFFF AND PUSH32 0xD3F5388C2257F37D0083B7A1EDCC31B560EDA57385DCD90C8429A7FB80383910 DUP5 DUP5 PUSH1 0x40 MLOAD PUSH2 0x7F2 SWAP3 SWAP2 SWAP1 PUSH2 0x24E3 JUMP JUMPDEST PUSH1 0x40 MLOAD DUP1 SWAP2 SUB SWAP1 LOG2 POP POP POP POP POP JUMP JUMPDEST PUSH1 0x60 DUP1 PUSH1 0x60 PUSH0 PUSH1 0x1 DUP1 SLOAD SWAP1 POP PUSH8 0xFFFFFFFFFFFFFFFF DUP2 GT ISZERO PUSH2 0x826 JUMPI PUSH2 0x825 PUSH2 0x1E85 JUMP JUMPDEST JUMPDEST PUSH1 0x40 MLOAD SWAP1 DUP1 DUP3 MSTORE DUP1 PUSH1 0x20 MUL PUSH1 0x20 ADD DUP3 ADD PUSH1 0x40 MSTORE DUP1 ISZERO PUSH2 0x854 JUMPI DUP2 PUSH1 0x20 ADD PUSH1 0x20 DUP3 MUL DUP1 CALLDATASIZE DUP4 CALLDATACOPY DUP1 DUP3 ADD SWAP2 POP POP SWAP1 POP JUMPDEST POP SWAP1 POP PUSH0 PUSH1 0x1 DUP1 SLOAD SWAP1 POP PUSH8 0xFFFFFFFFFFFFFFFF DUP2 GT ISZERO PUSH2 0x877 JUMPI PUSH2 0x876 PUSH2 0x1E85 JUMP JUMPDEST JUMPDEST PUSH1 0x40 MLOAD SWAP1 DUP1 DUP3 MSTORE DUP1 PUSH1 0x20 MUL PUSH1 0x20 ADD DUP3 ADD PUSH1 0x40 MSTORE DUP1 ISZERO PUSH2 0x8A5 JUMPI DUP2 PUSH1 0x20 ADD PUSH1 0x20 DUP3 MUL DUP1 CALLDATASIZE DUP4 CALLDATACOPY DUP1 DUP3 ADD SWAP2 POP POP SWAP1 POP JUMPDEST POP SWAP1 POP PUSH0 JUMPDEST PUSH1 0x1 DUP1 SLOAD SWAP1 POP DUP2 LT ISZERO PUSH2 0xB32 JUMPI PUSH0 DUP1 PUSH0 PUSH1 0x1 DUP5 DUP2 SLOAD DUP2 LT PUSH2 0x8CE JUMPI PUSH2 0x8CD PUSH2 0x250A JUMP JUMPDEST JUMPDEST SWAP1 PUSH0 MSTORE PUSH1 0x20 PUSH0 KECCAK256 ADD PUSH0 SWAP1 SLOAD SWAP1 PUSH2 0x100 EXP SWAP1 DIV PUSH20 0xFFFFFFFFFFFFFFFFFFFFFFFFFFFFFFFFFFFFFFFF AND PUSH20 0xFFFFFFFFFFFFFFFFFFFFFFFFFFFFFFFFFFFFFFFF AND PUSH20 0xFFFFFFFFFFFFFFFFFFFFFFFFFFFFFFFFFFFFFFFF AND DUP2 MSTORE PUSH1 0x20 ADD SWAP1 DUP2 MSTORE PUSH1 0x20 ADD PUSH0 KECCAK256 PUSH1 0x40 MLOAD DUP1 PUSH2 0x100 ADD PUSH1 0x40 MSTORE SWAP1 DUP2 PUSH0 DUP3 ADD PUSH0 SWAP1 SLOAD SWAP1 PUSH2 0x100 EXP SWAP1 DIV PUSH20 0xFFFFFFFFFFFFFFFFFFFFFFFFFFFFFFFFFFFFFFFF AND PUSH20 0xFFFFFFFFFFFFFFFFFFFFFFFFFFFFFFFFFFFFFFFF AND PUSH20 0xFFFFFFFFFFFFFFFFFFFFFFFFFFFFFFFFFFFFFFFF AND DUP2 MSTORE PUSH1 0x20 ADD PUSH1 0x1 DUP3 ADD SLOAD DUP2 MSTORE PUSH1 0x20 ADD PUSH1 0x2 DUP3 ADD SLOAD DUP2 MSTORE PUSH1 0x20 ADD PUSH1 0x3 DUP3 ADD SLOAD DUP2 MSTORE PUSH1 0x20 ADD PUSH1 0x4 DUP3 ADD SLOAD DUP2 MSTORE PUSH1 0x20 ADD PUSH1 0x5 DUP3 ADD DUP1 SLOAD DUP1 PUSH1 0x20 MUL PUSH1 0x20 ADD PUSH1 0x40 MLOAD SWAP1 DUP2 ADD PUSH1 0x40 MSTORE DUP1 SWAP3 SWAP2 SWAP1 DUP2 DUP2 MSTORE PUSH1 0x20 ADD PUSH0 SWAP1 JUMPDEST DUP3 DUP3 LT ISZERO PUSH2 0xAAE JUMPI DUP4 DUP3 SWAP1 PUSH0 MSTORE PUSH1 0x20 PUSH0 KECCAK256 SWAP1 PUSH1 0x3 MUL ADD PUSH1 0x40 MLOAD DUP1 PUSH1 0x60 ADD PUSH1 0x40 MSTORE SWAP1 DUP2 PUSH0 DUP3 ADD SLOAD DUP2 MSTORE PUSH1 0x20 ADD PUSH1 0x1 DUP3 ADD DUP1 SLOAD PUSH2 0xA15 SWAP1 PUSH2 0x21AA JUMP JUMPDEST DUP1 PUSH1 0x1F ADD PUSH1 0x20 DUP1 SWAP2 DIV MUL PUSH1 0x20 ADD PUSH1 0x40 MLOAD SWAP1 DUP2 ADD PUSH1 0x40 MSTORE DUP1 SWAP3 SWAP2 SWAP1 DUP2 DUP2 MSTORE PUSH1 0x20 ADD DUP3 DUP1 SLOAD PUSH2 0xA41 SWAP1 PUSH2 0x21AA JUMP JUMPDEST DUP1 ISZERO PUSH2 0xA8C JUMPI DUP1 PUSH1 0x1F LT PUSH2 0xA63 JUMPI PUSH2 0x100 DUP1 DUP4 SLOAD DIV MUL DUP4 MSTORE SWAP2 PUSH1 0x20 ADD SWAP2 PUSH2 0xA8C JUMP JUMPDEST DUP3 ADD SWAP2 SWAP1 PUSH0 MSTORE PUSH1 0x20 PUSH0 KECCAK256 SWAP1 JUMPDEST DUP2 SLOAD DUP2 MSTORE SWAP1 PUSH1 0x1 ADD SWAP1 PUSH1 0x20 ADD DUP1 DUP4 GT PUSH2 0xA6F JUMPI DUP3 SWAP1 SUB PUSH1 0x1F AND DUP3 ADD SWAP2 JUMPDEST POP POP POP POP POP DUP2 MSTORE PUSH1 0x20 ADD PUSH1 0x2 DUP3 ADD SLOAD DUP2 MSTORE POP POP DUP2 MSTORE PUSH1 0x20 ADD SWAP1 PUSH1 0x1 ADD SWAP1 PUSH2 0x9DB JUMP JUMPDEST POP POP POP POP DUP2 MSTORE PUSH1 0x20 ADD PUSH1 0x6 DUP3 ADD PUSH0 SWAP1 SLOAD SWAP1 PUSH2 0x100 EXP SWAP1 DIV PUSH1 0xFF AND ISZERO ISZERO ISZERO ISZERO DUP2 MSTORE PUSH1 0x20 ADD PUSH1 0x7 DUP3 ADD SLOAD DUP2 MSTORE POP POP SWAP1 POP DUP1 PUSH1 0x40 ADD MLOAD DUP5 DUP4 DUP2 MLOAD DUP2 LT PUSH2 0xAF4 JUMPI PUSH2 0xAF3 PUSH2 0x250A JUMP JUMPDEST JUMPDEST PUSH1 0x20 MUL PUSH1 0x20 ADD ADD DUP2 DUP2 MSTORE POP POP DUP1 PUSH1 0x60 ADD MLOAD DUP4 DUP4 DUP2 MLOAD DUP2 LT PUSH2 0xB18 JUMPI PUSH2 0xB17 PUSH2 0x250A JUMP JUMPDEST JUMPDEST PUSH1 0x20 MUL PUSH1 0x20 ADD ADD DUP2 DUP2 MSTORE POP POP POP DUP1 DUP1 PUSH1 0x1 ADD SWAP2 POP POP PUSH2 0x8AA JUMP JUMPDEST POP PUSH1 0x1 DUP3 DUP3 DUP3 DUP1 SLOAD DUP1 PUSH1 0x20 MUL PUSH1 0x20 ADD PUSH1 0x40 MLOAD SWAP1 DUP2 ADD PUSH1 0x40 MSTORE DUP1 SWAP3 SWAP2 SWAP1 DUP2 DUP2 MSTORE PUSH1 0x20 ADD DUP3 DUP1 SLOAD DUP1 ISZERO PUSH2 0xBB5 JUMPI PUSH1 0x20 MUL DUP3 ADD SWAP2 SWAP1 PUSH0 MSTORE PUSH1 0x20 PUSH0 KECCAK256 SWAP1 JUMPDEST DUP2 PUSH0 SWAP1 SLOAD SWAP1 PUSH2 0x100 EXP SWAP1 DIV PUSH20 0xFFFFFFFFFFFFFFFFFFFFFFFFFFFFFFFFFFFFFFFF AND PUSH20 0xFFFFFFFFFFFFFFFFFFFFFFFFFFFFFFFFFFFFFFFF AND DUP2 MSTORE PUSH1 0x20 ADD SWAP1 PUSH1 0x1 ADD SWAP1 DUP1 DUP4 GT PUSH2 0xB6C JUMPI JUMPDEST POP POP POP POP POP SWAP3 POP SWAP5 POP SWAP5 POP SWAP5 POP POP POP SWAP1 SWAP2 SWAP3 JUMP JUMPDEST PUSH0 DUP1 DUP5 PUSH20 0xFFFFFFFFFFFFFFFFFFFFFFFFFFFFFFFFFFFFFFFF AND PUSH20 0xFFFFFFFFFFFFFFFFFFFFFFFFFFFFFFFFFFFFFFFF AND DUP2 MSTORE PUSH1 0x20 ADD SWAP1 DUP2 MSTORE PUSH1 0x20 ADD PUSH0 KECCAK256 PUSH1 0x6 ADD PUSH0 SWAP1 SLOAD SWAP1 PUSH2 0x100 EXP SWAP1 DIV PUSH1 0xFF AND PUSH2 0xC54 JUMPI PUSH1 0x40 MLOAD PUSH32 0x8C379A000000000000000000000000000000000000000000000000000000000 DUP2 MSTORE PUSH1 0x4 ADD PUSH2 0xC4B SWAP1 PUSH2 0x2581 JUMP JUMPDEST PUSH1 0x40 MLOAD DUP1 SWAP2 SUB SWAP1 REVERT JUMPDEST PUSH0 DUP2 MLOAD GT PUSH2 0xC97 JUMPI PUSH1 0x40 MLOAD PUSH32 0x8C379A000000000000000000000000000000000000000000000000000000000 DUP2 MSTORE PUSH1 0x4 ADD PUSH2 0xC8E SWAP1 PUSH2 0x25E9 JUMP JUMPDEST PUSH1 0x40 MLOAD DUP1 SWAP2 SUB SWAP1 REVERT JUMPDEST PUSH0 DUP3 GT PUSH2 0xCD9 JUMPI PUSH1 0x40 MLOAD PUSH32 0x8C379A000000000000000000000000000000000000000000000000000000000 DUP2 MSTORE PUSH1 0x4 ADD PUSH2 0xCD0 SWAP1 PUSH2 0x2677 JUMP JUMPDEST PUSH1 0x40 MLOAD DUP1 SWAP2 SUB SWAP1 REVERT JUMPDEST PUSH0 DUP1 PUSH0 DUP6 PUSH20 0xFFFFFFFFFFFFFFFFFFFFFFFFFFFFFFFFFFFFFFFF AND PUSH20 0xFFFFFFFFFFFFFFFFFFFFFFFFFFFFFFFFFFFFFFFF AND DUP2 MSTORE PUSH1 0x20 ADD SWAP1 DUP2 MSTORE PUSH1 0x20 ADD PUSH0 KECCAK256 SWAP1 POP DUP1 PUSH1 0x5 ADD PUSH1 0x40 MLOAD DUP1 PUSH1 0x60 ADD PUSH1 0x40 MSTORE DUP1 DUP6 DUP2 MSTORE PUSH1 0x20 ADD DUP5 DUP2 MSTORE PUSH1 0x20 ADD TIMESTAMP DUP2 MSTORE POP SWAP1 DUP1 PUSH1 0x1 DUP2 SLOAD ADD DUP1 DUP3 SSTORE DUP1 SWAP2 POP POP PUSH1 0x1 SWAP1 SUB SWAP1 PUSH0 MSTORE PUSH1 0x20 PUSH0 KECCAK256 SWAP1 PUSH1 0x3 MUL ADD PUSH0 SWAP1 SWAP2 SWAP1 SWAP2 SWAP1 SWAP2 POP PUSH0 DUP3 ADD MLOAD DUP2 PUSH0 ADD SSTORE PUSH1 0x20 DUP3 ADD MLOAD DUP2 PUSH1 0x1 ADD SWAP1 DUP2 PUSH2 0xD7A SWAP2 SWAP1 PUSH2 0x283C JUMP JUMPDEST POP PUSH1 0x40 DUP3 ADD MLOAD DUP2 PUSH1 0x2 ADD SSTORE POP POP PUSH0 DUP3 DUP1 MLOAD SWAP1 PUSH1 0x20 ADD KECCAK256 SWAP1 POP PUSH32 0x26207B3D79CB8A2F4D7984D34034720F053ED770A9F512147F4EA54E18EDE2C3 DUP2 SUB PUSH2 0xDD8 JUMPI DUP4 DUP3 PUSH1 0x3 ADD PUSH0 DUP3 DUP3 SLOAD PUSH2 0xDCC SWAP2 SWAP1 PUSH2 0x290B JUMP JUMPDEST SWAP3 POP POP DUP2 SWAP1 SSTORE POP PUSH2 0xE75 JUMP JUMPDEST PUSH32 0x67F2240DBDC5A5A1BBA6EF58DD6499D8BCF8DA14A71DFFEEDDDC7956475EBAC4 DUP2 SUB PUSH2 0xE39 JUMPI DUP4 DUP3 PUSH1 0x3 ADD SLOAD GT ISZERO PUSH2 0xE2A JUMPI DUP4 DUP3 PUSH1 0x3 ADD PUSH0 DUP3 DUP3 SLOAD PUSH2 0xE1E SWAP2 SWAP1 PUSH2 0x293E JUMP JUMPDEST SWAP3 POP POP DUP2 SWAP1 SSTORE POP PUSH2 0xE34 JUMP JUMPDEST PUSH0 DUP3 PUSH1 0x3 ADD DUP2 SWAP1 SSTORE POP JUMPDEST PUSH2 0xE74 JUMP JUMPDEST PUSH1 0x40 MLOAD PUSH32 0x8C379A000000000000000000000000000000000000000000000000000000000 DUP2 MSTORE PUSH1 0x4 ADD PUSH2 0xE6B SWAP1 PUSH2 0x29E1 JUMP JUMPDEST PUSH1 0x40 MLOAD DUP1 SWAP2 SUB SWAP1 REVERT JUMPDEST JUMPDEST PUSH2 0xE7E DUP6 PUSH2 0x1874 JUMP JUMPDEST DUP5 PUSH20 0xFFFFFFFFFFFFFFFFFFFFFFFFFFFFFFFFFFFFFFFF AND PUSH32 0x59D80496E2D6D2B8A6DEF9B929B89C4F2E142AB465551A6E2AB7568A700DC51C DUP6 DUP6 PUSH1 0x40 MLOAD PUSH2 0xEC6 SWAP3 SWAP2 SWAP1 PUSH2 0x2A45 JUMP JUMPDEST PUSH1 0x40 MLOAD DUP1 SWAP2 SUB SWAP1 LOG2 POP POP POP POP POP JUMP JUMPDEST PUSH0 DUP1 PUSH0 DUP4 PUSH20 0xFFFFFFFFFFFFFFFFFFFFFFFFFFFFFFFFFFFFFFFF AND PUSH20 0xFFFFFFFFFFFFFFFFFFFFFFFFFFFFFFFFFFFFFFFF AND DUP2 MSTORE PUSH1 0x20 ADD SWAP1 DUP2 MSTORE PUSH1 0x20 ADD PUSH0 KECCAK256 SWAP1 POP DUP1 PUSH1 0x6 ADD PUSH0 SWAP1 SLOAD SWAP1 PUSH2 0x100 EXP SWAP1 DIV PUSH1 0xFF AND PUSH2 0xF64 JUMPI PUSH1 0x40 MLOAD PUSH32 0x8C379A000000000000000000000000000000000000000000000000000000000 DUP2 MSTORE PUSH1 0x4 ADD PUSH2 0xF5B SWAP1 PUSH2 0x2ABD JUMP JUMPDEST PUSH1 0x40 MLOAD DUP1 SWAP2 SUB SWAP1 REVERT JUMPDEST PUSH0 DUP2 PUSH1 0x6 ADD PUSH0 PUSH2 0x100 EXP DUP2 SLOAD DUP2 PUSH1 0xFF MUL NOT AND SWAP1 DUP4 ISZERO ISZERO MUL OR SWAP1 SSTORE POP DUP2 PUSH20 0xFFFFFFFFFFFFFFFFFFFFFFFFFFFFFFFFFFFFFFFF AND PUSH32 0xAE8857B2966EB8A781A2B3955A5558D92F570A4D7B27E224849FC315C8D4024B PUSH1 0x40 MLOAD PUSH1 0x40 MLOAD DUP1 SWAP2 SUB SWAP1 LOG2 POP POP JUMP JUMPDEST PUSH0 DUP2 GT PUSH2 0x1008 JUMPI PUSH1 0x40 MLOAD PUSH32 0x8C379A000000000000000000000000000000000000000000000000000000000 DUP2 MSTORE PUSH1 0x4 ADD PUSH2 0xFFF SWAP1 PUSH2 0x2B25 JUMP JUMPDEST PUSH1 0x40 MLOAD DUP1 SWAP2 SUB SWAP1 REVERT JUMPDEST PUSH0 DUP1 PUSH0 DUP5 PUSH20 0xFFFFFFFFFFFFFFFFFFFFFFFFFFFFFFFFFFFFFFFF AND PUSH20 0xFFFFFFFFFFFFFFFFFFFFFFFFFFFFFFFFFFFFFFFF AND DUP2 MSTORE PUSH1 0x20 ADD SWAP1 DUP2 MSTORE PUSH1 0x20 ADD PUSH0 KECCAK256 SWAP1 POP DUP1 PUSH1 0x6 ADD PUSH0 SWAP1 SLOAD SWAP1 PUSH2 0x100 EXP SWAP1 DIV PUSH1 0xFF AND PUSH2 0x1097 JUMPI PUSH1 0x40 MLOAD PUSH32 0x8C379A000000000000000000000000000000000000000000000000000000000 DUP2 MSTORE PUSH1 0x4 ADD PUSH2 0x108E SWAP1 PUSH2 0x2581 JUMP JUMPDEST PUSH1 0x40 MLOAD DUP1 SWAP2 SUB SWAP1 REVERT JUMPDEST DUP2 DUP2 PUSH1 0x4 ADD PUSH0 DUP3 DUP3 SLOAD PUSH2 0x10AA SWAP2 SWAP1 PUSH2 0x290B JUMP JUMPDEST SWAP3 POP POP DUP2 SWAP1 SSTORE POP DUP3 PUSH20 0xFFFFFFFFFFFFFFFFFFFFFFFFFFFFFFFFFFFFFFFF AND PUSH32 0xD774CC25CFF1CC53F7B2E33E1C2C9EE9DED38F0A9330714F5DBE439D76C23865 DUP3 PUSH1 0x4 ADD SLOAD PUSH1 0x40 MLOAD PUSH2 0x10FB SWAP2 SWAP1 PUSH2 0x1C0E JUMP JUMPDEST PUSH1 0x40 MLOAD DUP1 SWAP2 SUB SWAP1 LOG2 POP POP POP JUMP JUMPDEST PUSH1 0x1 DUP2 DUP2 SLOAD DUP2 LT PUSH2 0x1117 JUMPI PUSH0 DUP1 REVERT JUMPDEST SWAP1 PUSH0 MSTORE PUSH1 0x20 PUSH0 KECCAK256 ADD PUSH0 SWAP2 POP SLOAD SWAP1 PUSH2 0x100 EXP SWAP1 DIV PUSH20 0xFFFFFFFFFFFFFFFFFFFFFFFFFFFFFFFFFFFFFFFF AND DUP2 JUMP JUMPDEST PUSH0 PUSH1 0x64 DUP4 GT ISZERO DUP1 ISZERO PUSH2 0x1156 JUMPI POP PUSH1 0x64 DUP3 GT ISZERO JUMPDEST PUSH2 0x1195 JUMPI PUSH1 0x40 MLOAD PUSH32 0x8C379A000000000000000000000000000000000000000000000000000000000 DUP2 MSTORE PUSH1 0x4 ADD PUSH2 0x118C SWAP1 PUSH2 0x2BB3 JUMP JUMPDEST PUSH1 0x40 MLOAD DUP1 SWAP2 SUB SWAP1 REVERT JUMPDEST PUSH0 DUP1 PUSH0 DUP7 PUSH20 0xFFFFFFFFFFFFFFFFFFFFFFFFFFFFFFFFFFFFFFFF AND PUSH20 0xFFFFFFFFFFFFFFFFFFFFFFFFFFFFFFFFFFFFFFFF AND DUP2 MSTORE PUSH1 0x20 ADD SWAP1 DUP2 MSTORE PUSH1 0x20 ADD PUSH0 KECCAK256 PUSH1 0x40 MLOAD DUP1 PUSH2 0x100 ADD PUSH1 0x40 MSTORE SWAP1 DUP2 PUSH0 DUP3 ADD PUSH0 SWAP1 SLOAD SWAP1 PUSH2 0x100 EXP SWAP1 DIV PUSH20 0xFFFFFFFFFFFFFFFFFFFFFFFFFFFFFFFFFFFFFFFF AND PUSH20 0xFFFFFFFFFFFFFFFFFFFFFFFFFFFFFFFFFFFFFFFF AND PUSH20 0xFFFFFFFFFFFFFFFFFFFFFFFFFFFFFFFFFFFFFFFF AND DUP2 MSTORE PUSH1 0x20 ADD PUSH1 0x1 DUP3 ADD SLOAD DUP2 MSTORE PUSH1 0x20 ADD PUSH1 0x2 DUP3 ADD SLOAD DUP2 MSTORE PUSH1 0x20 ADD PUSH1 0x3 DUP3 ADD SLOAD DUP2 MSTORE PUSH1 0x20 ADD PUSH1 0x4 DUP3 ADD SLOAD DUP2 MSTORE PUSH1 0x20 ADD PUSH1 0x5 DUP3 ADD DUP1 SLOAD DUP1 PUSH1 0x20 MUL PUSH1 0x20 ADD PUSH1 0x40 MLOAD SWAP1 DUP2 ADD PUSH1 0x40 MSTORE DUP1 SWAP3 SWAP2 SWAP1 DUP2 DUP2 MSTORE PUSH1 0x20 ADD PUSH0 SWAP1 JUMPDEST DUP3 DUP3 LT ISZERO PUSH2 0x1351 JUMPI DUP4 DUP3 SWAP1 PUSH0 MSTORE PUSH1 0x20 PUSH0 KECCAK256 SWAP1 PUSH1 0x3 MUL ADD PUSH1 0x40 MLOAD DUP1 PUSH1 0x60 ADD PUSH1 0x40 MSTORE SWAP1 DUP2 PUSH0 DUP3 ADD SLOAD DUP2 MSTORE PUSH1 0x20 ADD PUSH1 0x1 DUP3 ADD DUP1 SLOAD PUSH2 0x12B8 SWAP1 PUSH2 0x21AA JUMP JUMPDEST DUP1 PUSH1 0x1F ADD PUSH1 0x20 DUP1 SWAP2 DIV MUL PUSH1 0x20 ADD PUSH1 0x40 MLOAD SWAP1 DUP2 ADD PUSH1 0x40 MSTORE DUP1 SWAP3 SWAP2 SWAP1 DUP2 DUP2 MSTORE PUSH1 0x20 ADD DUP3 DUP1 SLOAD PUSH2 0x12E4 SWAP1 PUSH2 0x21AA JUMP JUMPDEST DUP1 ISZERO PUSH2 0x132F JUMPI DUP1 PUSH1 0x1F LT PUSH2 0x1306 JUMPI PUSH2 0x100 DUP1 DUP4 SLOAD DIV MUL DUP4 MSTORE SWAP2 PUSH1 0x20 ADD SWAP2 PUSH2 0x132F JUMP JUMPDEST DUP3 ADD SWAP2 SWAP1 PUSH0 MSTORE PUSH1 0x20 PUSH0 KECCAK256 SWAP1 JUMPDEST DUP2 SLOAD DUP2 MSTORE SWAP1 PUSH1 0x1 ADD SWAP1 PUSH1 0x20 ADD DUP1 DUP4 GT PUSH2 0x1312 JUMPI DUP3 SWAP1 SUB PUSH1 0x1F AND DUP3 ADD SWAP2 JUMPDEST POP POP POP POP POP DUP2 MSTORE PUSH1 0x20 ADD PUSH1 0x2 DUP3 ADD SLOAD DUP2 MSTORE POP POP DUP2 MSTORE PUSH1 0x20 ADD SWAP1 PUSH1 0x1 ADD SWAP1 PUSH2 0x127E JUMP JUMPDEST POP POP POP POP DUP2 MSTORE PUSH1 0x20 ADD PUSH1 0x6 DUP3 ADD PUSH0 SWAP1 SLOAD SWAP1 PUSH2 0x100 EXP SWAP1 DIV PUSH1 0xFF AND ISZERO ISZERO ISZERO ISZERO DUP2 MSTORE PUSH1 0x20 ADD PUSH1 0x7 DUP3 ADD SLOAD DUP2 MSTORE POP POP SWAP1 POP PUSH2 0x2710 DUP4 DUP6 DUP4 PUSH1 0x60 ADD MLOAD PUSH2 0x1393 SWAP2 SWAP1 PUSH2 0x227F JUMP JUMPDEST PUSH2 0x139D SWAP2 SWAP1 PUSH2 0x227F JUMP JUMPDEST PUSH2 0x13A7 SWAP2 SWAP1 PUSH2 0x22ED JUMP JUMPDEST SWAP2 POP POP SWAP4 SWAP3 POP POP POP JUMP JUMPDEST PUSH0 PUSH1 0x20 MSTORE DUP1 PUSH0 MSTORE PUSH1 0x40 PUSH0 KECCAK256 PUSH0 SWAP2 POP SWAP1 POP DUP1 PUSH0 ADD PUSH0 SWAP1 SLOAD SWAP1 PUSH2 0x100 EXP SWAP1 DIV PUSH20 0xFFFFFFFFFFFFFFFFFFFFFFFFFFFFFFFFFFFFFFFF AND SWAP1 DUP1 PUSH1 0x1 ADD SLOAD SWAP1 DUP1 PUSH1 0x2 ADD SLOAD SWAP1 DUP1 PUSH1 0x3 ADD SLOAD SWAP1 DUP1 PUSH1 0x4 ADD SLOAD SWAP1 DUP1 PUSH1 0x6 ADD PUSH0 SWAP1 SLOAD SWAP1 PUSH2 0x100 EXP SWAP1 DIV PUSH1 0xFF AND SWAP1 DUP1 PUSH1 0x7 ADD SLOAD SWAP1 POP DUP8 JUMP JUMPDEST PUSH0 DUP1 PUSH0 DUP1 DUP5 PUSH20 0xFFFFFFFFFFFFFFFFFFFFFFFFFFFFFFFFFFFFFFFF AND PUSH20 0xFFFFFFFFFFFFFFFFFFFFFFFFFFFFFFFFFFFFFFFF AND DUP2 MSTORE PUSH1 0x20 ADD SWAP1 DUP2 MSTORE PUSH1 0x20 ADD PUSH0 KECCAK256 PUSH1 0x40 MLOAD DUP1 PUSH2 0x100 ADD PUSH1 0x40 MSTORE SWAP1 DUP2 PUSH0 DUP3 ADD PUSH0 SWAP1 SLOAD SWAP1 PUSH2 0x100 EXP SWAP1 DIV PUSH20 0xFFFFFFFFFFFFFFFFFFFFFFFFFFFFFFFFFFFFFFFF AND PUSH20 0xFFFFFFFFFFFFFFFFFFFFFFFFFFFFFFFFFFFFFFFF AND PUSH20 0xFFFFFFFFFFFFFFFFFFFFFFFFFFFFFFFFFFFFFFFF AND DUP2 MSTORE PUSH1 0x20 ADD PUSH1 0x1 DUP3 ADD SLOAD DUP2 MSTORE PUSH1 0x20 ADD PUSH1 0x2 DUP3 ADD SLOAD DUP2 MSTORE PUSH1 0x20 ADD PUSH1 0x3 DUP3 ADD SLOAD DUP2 MSTORE PUSH1 0x20 ADD PUSH1 0x4 DUP3 ADD SLOAD DUP2 MSTORE PUSH1 0x20 ADD PUSH1 0x5 DUP3 ADD DUP1 SLOAD DUP1 PUSH1 0x20 MUL PUSH1 0x20 ADD PUSH1 0x40 MLOAD SWAP1 DUP2 ADD PUSH1 0x40 MSTORE DUP1 SWAP3 SWAP2 SWAP1 DUP2 DUP2 MSTORE PUSH1 0x20 ADD PUSH0 SWAP1 JUMPDEST DUP3 DUP3 LT ISZERO PUSH2 0x15D6 JUMPI DUP4 DUP3 SWAP1 PUSH0 MSTORE PUSH1 0x20 PUSH0 KECCAK256 SWAP1 PUSH1 0x3 MUL ADD PUSH1 0x40 MLOAD DUP1 PUSH1 0x60 ADD PUSH1 0x40 MSTORE SWAP1 DUP2 PUSH0 DUP3 ADD SLOAD DUP2 MSTORE PUSH1 0x20 ADD PUSH1 0x1 DUP3 ADD DUP1 SLOAD PUSH2 0x153D SWAP1 PUSH2 0x21AA JUMP JUMPDEST DUP1 PUSH1 0x1F ADD PUSH1 0x20 DUP1 SWAP2 DIV MUL PUSH1 0x20 ADD PUSH1 0x40 MLOAD SWAP1 DUP2 ADD PUSH1 0x40 MSTORE DUP1 SWAP3 SWAP2 SWAP1 DUP2 DUP2 MSTORE PUSH1 0x20 ADD DUP3 DUP1 SLOAD PUSH2 0x1569 SWAP1 PUSH2 0x21AA JUMP JUMPDEST DUP1 ISZERO PUSH2 0x15B4 JUMPI DUP1 PUSH1 0x1F LT PUSH2 0x158B JUMPI PUSH2 0x100 DUP1 DUP4 SLOAD DIV MUL DUP4 MSTORE SWAP2 PUSH1 0x20 ADD SWAP2 PUSH2 0x15B4 JUMP JUMPDEST DUP3 ADD SWAP2 SWAP1 PUSH0 MSTORE PUSH1 0x20 PUSH0 KECCAK256 SWAP1 JUMPDEST DUP2 SLOAD DUP2 MSTORE SWAP1 PUSH1 0x1 ADD SWAP1 PUSH1 0x20 ADD DUP1 DUP4 GT PUSH2 0x1597 JUMPI DUP3 SWAP1 SUB PUSH1 0x1F AND DUP3 ADD SWAP2 JUMPDEST POP POP POP POP POP DUP2 MSTORE PUSH1 0x20 ADD PUSH1 0x2 DUP3 ADD SLOAD DUP2 MSTORE POP POP DUP2 MSTORE PUSH1 0x20 ADD SWAP1 PUSH1 0x1 ADD SWAP1 PUSH2 0x1503 JUMP JUMPDEST POP POP POP POP DUP2 MSTORE PUSH1 0x20 ADD PUSH1 0x6 DUP3 ADD PUSH0 SWAP1 SLOAD SWAP1 PUSH2 0x100 EXP SWAP1 DIV PUSH1 0xFF AND ISZERO ISZERO ISZERO ISZERO DUP2 MSTORE PUSH1 0x20 ADD PUSH1 0x7 DUP3 ADD SLOAD DUP2 MSTORE POP POP SWAP1 POP PUSH0 DUP2 PUSH1 0x40 ADD MLOAD GT PUSH2 0x164A JUMPI PUSH1 0x40 MLOAD PUSH32 0x8C379A000000000000000000000000000000000000000000000000000000000 DUP2 MSTORE PUSH1 0x4 ADD PUSH2 0x1641 SWAP1 PUSH2 0x2C1B JUMP JUMPDEST PUSH1 0x40 MLOAD DUP1 SWAP2 SUB SWAP1 REVERT JUMPDEST PUSH0 DUP2 PUSH1 0x20 ADD MLOAD GT PUSH2 0x1690 JUMPI PUSH1 0x40 MLOAD PUSH32 0x8C379A000000000000000000000000000000000000000000000000000000000 DUP2 MSTORE PUSH1 0x4 ADD PUSH2 0x1687 SWAP1 PUSH2 0x24C5 JUMP JUMPDEST PUSH1 0x40 MLOAD DUP1 SWAP2 SUB SWAP1 REVERT JUMPDEST PUSH0 DUP2 PUSH1 0x40 ADD MLOAD PUSH1 0x64 DUP4 PUSH1 0x60 ADD MLOAD PUSH2 0x16A7 SWAP2 SWAP1 PUSH2 0x227F JUMP JUMPDEST PUSH2 0x16B1 SWAP2 SWAP1 PUSH2 0x22ED JUMP JUMPDEST SWAP1 POP DUP2 PUSH1 0x20 ADD MLOAD DUP2 PUSH2 0x16C3 SWAP2 SWAP1 PUSH2 0x22ED JUMP JUMPDEST SWAP3 POP POP POP SWAP2 SWAP1 POP JUMP JUMPDEST PUSH0 DUP2 GT PUSH2 0x170E JUMPI PUSH1 0x40 MLOAD PUSH32 0x8C379A000000000000000000000000000000000000000000000000000000000 DUP2 MSTORE PUSH1 0x4 ADD PUSH2 0x1705 SWAP1 PUSH2 0x2B25 JUMP JUMPDEST PUSH1 0x40 MLOAD DUP1 SWAP2 SUB SWAP1 REVERT JUMPDEST PUSH0 DUP1 PUSH0 DUP5 PUSH20 0xFFFFFFFFFFFFFFFFFFFFFFFFFFFFFFFFFFFFFFFF AND PUSH20 0xFFFFFFFFFFFFFFFFFFFFFFFFFFFFFFFFFFFFFFFF AND DUP2 MSTORE PUSH1 0x20 ADD SWAP1 DUP2 MSTORE PUSH1 0x20 ADD PUSH0 KECCAK256 SWAP1 POP DUP1 PUSH1 0x6 ADD PUSH0 SWAP1 SLOAD SWAP1 PUSH2 0x100 EXP SWAP1 DIV PUSH1 0xFF AND PUSH2 0x179D JUMPI PUSH1 0x40 MLOAD PUSH32 0x8C379A000000000000000000000000000000000000000000000000000000000 DUP2 MSTORE PUSH1 0x4 ADD PUSH2 0x1794 SWAP1 PUSH2 0x2581 JUMP JUMPDEST PUSH1 0x40 MLOAD DUP1 SWAP2 SUB SWAP1 REVERT JUMPDEST PUSH1 0x96 PUSH2 0x17A8 DUP5 PUSH2 0x288 JUMP JUMPDEST LT ISZERO PUSH2 0x17E9 JUMPI PUSH1 0x40 MLOAD PUSH32 0x8C379A000000000000000000000000000000000000000000000000000000000 DUP2 MSTORE PUSH1 0x4 ADD PUSH2 0x17E0 SWAP1 PUSH2 0x2CA9 JUMP JUMPDEST PUSH1 0x40 MLOAD DUP1 SWAP2 SUB SWAP1 REVERT JUMPDEST DUP2 DUP2 PUSH1 0x4 ADD SLOAD LT PUSH2 0x1813 JUMPI DUP2 DUP2 PUSH1 0x4 ADD PUSH0 DUP3 DUP3 SLOAD PUSH2 0x1807 SWAP2 SWAP1 PUSH2 0x293E JUMP JUMPDEST SWAP3 POP POP DUP2 SWAP1 SSTORE POP PUSH2 0x181D JUMP JUMPDEST PUSH0 DUP2 PUSH1 0x4 ADD DUP2 SWAP1 SSTORE POP JUMPDEST DUP3 PUSH20 0xFFFFFFFFFFFFFFFFFFFFFFFFFFFFFFFFFFFFFFFF AND PUSH32 0xD774CC25CFF1CC53F7B2E33E1C2C9EE9DED38F0A9330714F5DBE439D76C23865 DUP3 PUSH1 0x4 ADD SLOAD PUSH1 0x40 MLOAD PUSH2 0x1867 SWAP2 SWAP1 PUSH2 0x1C0E JUMP JUMPDEST PUSH1 0x40 MLOAD DUP1 SWAP2 SUB SWAP1 LOG2 POP POP POP JUMP JUMPDEST PUSH0 DUP1 PUSH0 DUP4 PUSH20 0xFFFFFFFFFFFFFFFFFFFFFFFFFFFFFFFFFFFFFFFF AND PUSH20 0xFFFFFFFFFFFFFFFFFFFFFFFFFFFFFFFFFFFFFFFF AND DUP2 MSTORE PUSH1 0x20 ADD SWAP1 DUP2 MSTORE PUSH1 0x20 ADD PUSH0 KECCAK256 SWAP1 POP DUP1 PUSH1 0x2 ADD SLOAD DUP2 PUSH1 0x3 ADD SLOAD GT ISZERO PUSH2 0x19EA JUMPI PUSH1 0x2 PUSH0 DUP4 PUSH20 0xFFFFFFFFFFFFFFFFFFFFFFFFFFFFFFFFFFFFFFFF AND PUSH20 0xFFFFFFFFFFFFFFFFFFFFFFFFFFFFFFFFFFFFFFFF AND DUP2 MSTORE PUSH1 0x20 ADD SWAP1 DUP2 MSTORE PUSH1 0x20 ADD PUSH0 KECCAK256 PUSH0 DUP2 SLOAD DUP1 SWAP3 SWAP2 SWAP1 PUSH2 0x1910 SWAP1 PUSH2 0x2CC7 JUMP JUMPDEST SWAP2 SWAP1 POP SSTORE POP DUP2 PUSH20 0xFFFFFFFFFFFFFFFFFFFFFFFFFFFFFFFFFFFFFFFF AND PUSH32 0x9A2DD2B852C39CDC36EBFA2BC55459F64FD51881EBFDE683D37A31595C27DA48 DUP3 PUSH1 0x3 ADD SLOAD DUP4 PUSH1 0x2 ADD SLOAD PUSH1 0x40 MLOAD PUSH2 0x1965 SWAP3 SWAP2 SWAP1 PUSH2 0x24E3 JUMP JUMPDEST PUSH1 0x40 MLOAD DUP1 SWAP2 SUB SWAP1 LOG2 PUSH1 0x3 PUSH1 0x2 PUSH0 DUP5 PUSH20 0xFFFFFFFFFFFFFFFFFFFFFFFFFFFFFFFFFFFFFFFF AND PUSH20 0xFFFFFFFFFFFFFFFFFFFFFFFFFFFFFFFFFFFFFFFF AND DUP2 MSTORE PUSH1 0x20 ADD SWAP1 DUP2 MSTORE PUSH1 0x20 ADD PUSH0 KECCAK256 SLOAD LT PUSH2 0x19E9 JUMPI PUSH2 0x19BB DUP3 PUSH2 0x1A60 JUMP JUMPDEST PUSH1 0xA DUP2 PUSH1 0x1 ADD SLOAD GT PUSH2 0x19CE JUMPI PUSH1 0x1 PUSH2 0x19E0 JUMP JUMPDEST PUSH1 0xA DUP2 PUSH1 0x1 ADD SLOAD PUSH2 0x19DF SWAP2 SWAP1 PUSH2 0x293E JUMP JUMPDEST JUMPDEST DUP2 PUSH1 0x1 ADD DUP2 SWAP1 SSTORE POP JUMPDEST JUMPDEST PUSH0 DUP2 PUSH1 0x3 ADD SLOAD GT ISZERO PUSH2 0x1A5C JUMPI PUSH0 PUSH2 0x1A00 DUP4 PUSH2 0x288 JUMP JUMPDEST SWAP1 POP PUSH1 0x64 DUP2 LT ISZERO PUSH2 0x1A5A JUMPI DUP3 PUSH20 0xFFFFFFFFFFFFFFFFFFFFFFFFFFFFFFFFFFFFFFFF AND PUSH32 0x674FC74C826DBEC5EDEAC8ECDFD4401967AF353CE41C4918C79EBEA80E27C367 DUP3 PUSH1 0x40 MLOAD PUSH2 0x1A51 SWAP2 SWAP1 PUSH2 0x1C0E JUMP JUMPDEST PUSH1 0x40 MLOAD DUP1 SWAP2 SUB SWAP1 LOG2 JUMPDEST POP JUMPDEST POP POP JUMP JUMPDEST PUSH0 DUP1 PUSH0 DUP4 PUSH20 0xFFFFFFFFFFFFFFFFFFFFFFFFFFFFFFFFFFFFFFFF AND PUSH20 0xFFFFFFFFFFFFFFFFFFFFFFFFFFFFFFFFFFFFFFFF AND DUP2 MSTORE PUSH1 0x20 ADD SWAP1 DUP2 MSTORE PUSH1 0x20 ADD PUSH0 KECCAK256 SWAP1 POP PUSH0 PUSH1 0x64 PUSH1 0xA DUP4 PUSH1 0x3 ADD SLOAD PUSH2 0x1AB3 SWAP2 SWAP1 PUSH2 0x227F JUMP JUMPDEST PUSH2 0x1ABD SWAP2 SWAP1 PUSH2 0x22ED JUMP JUMPDEST SWAP1 POP DUP1 DUP3 PUSH1 0x4 ADD SLOAD LT PUSH2 0x1AE9 JUMPI DUP1 DUP3 PUSH1 0x4 ADD PUSH0 DUP3 DUP3 SLOAD PUSH2 0x1ADD SWAP2 SWAP1 PUSH2 0x293E JUMP JUMPDEST SWAP3 POP POP DUP2 SWAP1 SSTORE POP PUSH2 0x1AF3 JUMP JUMPDEST PUSH0 DUP3 PUSH1 0x4 ADD DUP2 SWAP1 SSTORE POP JUMPDEST DUP1 DUP3 PUSH1 0x7 ADD PUSH0 DUP3 DUP3 SLOAD PUSH2 0x1B06 SWAP2 SWAP1 PUSH2 0x290B JUMP JUMPDEST SWAP3 POP POP DUP2 SWAP1 SSTORE POP DUP3 PUSH20 0xFFFFFFFFFFFFFFFFFFFFFFFFFFFFFFFFFFFFFFFF AND PUSH32 0xA7EFD79F8B4F74475645BB98022D7135FEAB57D5B96CB33512477B288E3FF9C3 DUP3 PUSH1 0x40 MLOAD PUSH2 0x1B53 SWAP2 SWAP1 PUSH2 0x1C0E JUMP JUMPDEST PUSH1 0x40 MLOAD DUP1 SWAP2 SUB SWAP1 LOG2 POP POP POP JUMP JUMPDEST PUSH0 PUSH1 0x40 MLOAD SWAP1 POP SWAP1 JUMP JUMPDEST PUSH0 DUP1 REVERT JUMPDEST PUSH0 DUP1 REVERT JUMPDEST PUSH0 PUSH20 0xFFFFFFFFFFFFFFFFFFFFFFFFFFFFFFFFFFFFFFFF DUP3 AND SWAP1 POP SWAP2 SWAP1 POP JUMP JUMPDEST PUSH0 PUSH2 0x1B9A DUP3 PUSH2 0x1B71 JUMP JUMPDEST SWAP1 POP SWAP2 SWAP1 POP JUMP JUMPDEST PUSH2 0x1BAA DUP2 PUSH2 0x1B90 JUMP JUMPDEST DUP2 EQ PUSH2 0x1BB4 JUMPI PUSH0 DUP1 REVERT JUMPDEST POP JUMP JUMPDEST PUSH0 DUP2 CALLDATALOAD SWAP1 POP PUSH2 0x1BC5 DUP2 PUSH2 0x1BA1 JUMP JUMPDEST SWAP3 SWAP2 POP POP JUMP JUMPDEST PUSH0 PUSH1 0x20 DUP3 DUP5 SUB SLT ISZERO PUSH2 0x1BE0 JUMPI PUSH2 0x1BDF PUSH2 0x1B69 JUMP JUMPDEST JUMPDEST PUSH0 PUSH2 0x1BED DUP5 DUP3 DUP6 ADD PUSH2 0x1BB7 JUMP JUMPDEST SWAP2 POP POP SWAP3 SWAP2 POP POP JUMP JUMPDEST PUSH0 DUP2 SWAP1 POP SWAP2 SWAP1 POP JUMP JUMPDEST PUSH2 0x1C08 DUP2 PUSH2 0x1BF6 JUMP JUMPDEST DUP3 MSTORE POP POP JUMP JUMPDEST PUSH0 PUSH1 0x20 DUP3 ADD SWAP1 POP PUSH2 0x1C21 PUSH0 DUP4 ADD DUP5 PUSH2 0x1BFF JUMP JUMPDEST SWAP3 SWAP2 POP POP JUMP JUMPDEST PUSH2 0x1C30 DUP2 PUSH2 0x1BF6 JUMP JUMPDEST DUP2 EQ PUSH2 0x1C3A JUMPI PUSH0 DUP1 REVERT JUMPDEST POP JUMP JUMPDEST PUSH0 DUP2 CALLDATALOAD SWAP1 POP PUSH2 0x1C4B DUP2 PUSH2 0x1C27 JUMP JUMPDEST SWAP3 SWAP2 POP POP JUMP JUMPDEST PUSH0 DUP1 PUSH0 DUP1 PUSH1 0x80 DUP6 DUP8 SUB SLT ISZERO PUSH2 0x1C69 JUMPI PUSH2 0x1C68 PUSH2 0x1B69 JUMP JUMPDEST JUMPDEST PUSH0 PUSH2 0x1C76 DUP8 DUP3 DUP9 ADD PUSH2 0x1BB7 JUMP JUMPDEST SWAP5 POP POP PUSH1 0x20 PUSH2 0x1C87 DUP8 DUP3 DUP9 ADD PUSH2 0x1C3D JUMP JUMPDEST SWAP4 POP POP PUSH1 0x40 PUSH2 0x1C98 DUP8 DUP3 DUP9 ADD PUSH2 0x1C3D JUMP JUMPDEST SWAP3 POP POP PUSH1 0x60 PUSH2 0x1CA9 DUP8 DUP3 DUP9 ADD PUSH2 0x1C3D JUMP JUMPDEST SWAP2 POP POP SWAP3 SWAP6 SWAP2 SWAP5 POP SWAP3 POP JUMP JUMPDEST PUSH0 DUP2 MLOAD SWAP1 POP SWAP2 SWAP1 POP JUMP JUMPDEST PUSH0 DUP3 DUP3 MSTORE PUSH1 0x20 DUP3 ADD SWAP1 POP SWAP3 SWAP2 POP POP JUMP JUMPDEST PUSH0 DUP2 SWAP1 POP PUSH1 0x20 DUP3 ADD SWAP1 POP SWAP2 SWAP1 POP JUMP JUMPDEST PUSH2 0x1CE7 DUP2 PUSH2 0x1B90 JUMP JUMPDEST DUP3 MSTORE POP POP JUMP JUMPDEST PUSH0 PUSH2 0x1CF8 DUP4 DUP4 PUSH2 0x1CDE JUMP JUMPDEST PUSH1 0x20 DUP4 ADD SWAP1 POP SWAP3 SWAP2 POP POP JUMP JUMPDEST PUSH0 PUSH1 0x20 DUP3 ADD SWAP1 POP SWAP2 SWAP1 POP JUMP JUMPDEST PUSH0 PUSH2 0x1D1A DUP3 PUSH2 0x1CB5 JUMP JUMPDEST PUSH2 0x1D24 DUP2 DUP6 PUSH2 0x1CBF JUMP JUMPDEST SWAP4 POP PUSH2 0x1D2F DUP4 PUSH2 0x1CCF JUMP JUMPDEST DUP1 PUSH0 JUMPDEST DUP4 DUP2 LT ISZERO PUSH2 0x1D5F JUMPI DUP2 MLOAD PUSH2 0x1D46 DUP9 DUP3 PUSH2 0x1CED JUMP JUMPDEST SWAP8 POP PUSH2 0x1D51 DUP4 PUSH2 0x1D04 JUMP JUMPDEST SWAP3 POP POP PUSH1 0x1 DUP2 ADD SWAP1 POP PUSH2 0x1D32 JUMP JUMPDEST POP DUP6 SWAP4 POP POP POP POP SWAP3 SWAP2 POP POP JUMP JUMPDEST PUSH0 DUP2 MLOAD SWAP1 POP SWAP2 SWAP1 POP JUMP JUMPDEST PUSH0 DUP3 DUP3 MSTORE PUSH1 0x20 DUP3 ADD SWAP1 POP SWAP3 SWAP2 POP POP JUMP JUMPDEST PUSH0 DUP2 SWAP1 POP PUSH1 0x20 DUP3 ADD SWAP1 POP SWAP2 SWAP1 POP JUMP JUMPDEST PUSH2 0x1D9E DUP2 PUSH2 0x1BF6 JUMP JUMPDEST DUP3 MSTORE POP POP JUMP JUMPDEST PUSH0 PUSH2 0x1DAF DUP4 DUP4 PUSH2 0x1D95 JUMP JUMPDEST PUSH1 0x20 DUP4 ADD SWAP1 POP SWAP3 SWAP2 POP POP JUMP JUMPDEST PUSH0 PUSH1 0x20 DUP3 ADD SWAP1 POP SWAP2 SWAP1 POP JUMP JUMPDEST PUSH0 PUSH2 0x1DD1 DUP3 PUSH2 0x1D6C JUMP JUMPDEST PUSH2 0x1DDB DUP2 DUP6 PUSH2 0x1D76 JUMP JUMPDEST SWAP4 POP PUSH2 0x1DE6 DUP4 PUSH2 0x1D86 JUMP JUMPDEST DUP1 PUSH0 JUMPDEST DUP4 DUP2 LT ISZERO PUSH2 0x1E16 JUMPI DUP2 MLOAD PUSH2 0x1DFD DUP9 DUP3 PUSH2 0x1DA4 JUMP JUMPDEST SWAP8 POP PUSH2 0x1E08 DUP4 PUSH2 0x1DBB JUMP JUMPDEST SWAP3 POP POP PUSH1 0x1 DUP2 ADD SWAP1 POP PUSH2 0x1DE9 JUMP JUMPDEST POP DUP6 SWAP4 POP POP POP POP SWAP3 SWAP2 POP POP JUMP JUMPDEST PUSH0 PUSH1 0x60 DUP3 ADD SWAP1 POP DUP2 DUP2 SUB PUSH0 DUP4 ADD MSTORE PUSH2 0x1E3B DUP2 DUP7 PUSH2 0x1D10 JUMP JUMPDEST SWAP1 POP DUP2 DUP2 SUB PUSH1 0x20 DUP4 ADD MSTORE PUSH2 0x1E4F DUP2 DUP6 PUSH2 0x1DC7 JUMP JUMPDEST SWAP1 POP DUP2 DUP2 SUB PUSH1 0x40 DUP4 ADD MSTORE PUSH2 0x1E63 DUP2 DUP5 PUSH2 0x1DC7 JUMP JUMPDEST SWAP1 POP SWAP5 SWAP4 POP POP POP POP JUMP JUMPDEST PUSH0 DUP1 REVERT JUMPDEST PUSH0 DUP1 REVERT JUMPDEST PUSH0 PUSH1 0x1F NOT PUSH1 0x1F DUP4 ADD AND SWAP1 POP SWAP2 SWAP1 POP JUMP JUMPDEST PUSH32 0x4E487B7100000000000000000000000000000000000000000000000000000000 PUSH0 MSTORE PUSH1 0x41 PUSH1 0x4 MSTORE PUSH1 0x24 PUSH0 REVERT JUMPDEST PUSH2 0x1EBB DUP3 PUSH2 0x1E75 JUMP JUMPDEST DUP2 ADD DUP2 DUP2 LT PUSH8 0xFFFFFFFFFFFFFFFF DUP3 GT OR ISZERO PUSH2 0x1EDA JUMPI PUSH2 0x1ED9 PUSH2 0x1E85 JUMP JUMPDEST JUMPDEST DUP1 PUSH1 0x40 MSTORE POP POP POP JUMP JUMPDEST PUSH0 PUSH2 0x1EEC PUSH2 0x1B60 JUMP JUMPDEST SWAP1 POP PUSH2 0x1EF8 DUP3 DUP3 PUSH2 0x1EB2 JUMP JUMPDEST SWAP2 SWAP1 POP JUMP JUMPDEST PUSH0 PUSH8 0xFFFFFFFFFFFFFFFF DUP3 GT ISZERO PUSH2 0x1F17 JUMPI PUSH2 0x1F16 PUSH2 0x1E85 JUMP JUMPDEST JUMPDEST PUSH2 0x1F20 DUP3 PUSH2 0x1E75 JUMP JUMPDEST SWAP1 POP PUSH1 0x20 DUP2 ADD SWAP1 POP SWAP2 SWAP1 POP JUMP JUMPDEST DUP3 DUP2 DUP4 CALLDATACOPY PUSH0 DUP4 DUP4 ADD MSTORE POP POP POP JUMP JUMPDEST PUSH0 PUSH2 0x1F4D PUSH2 0x1F48 DUP5 PUSH2 0x1EFD JUMP JUMPDEST PUSH2 0x1EE3 JUMP JUMPDEST SWAP1 POP DUP3 DUP2 MSTORE PUSH1 0x20 DUP2 ADD DUP5 DUP5 DUP5 ADD GT ISZERO PUSH2 0x1F69 JUMPI PUSH2 0x1F68 PUSH2 0x1E71 JUMP JUMPDEST JUMPDEST PUSH2 0x1F74 DUP5 DUP3 DUP6 PUSH2 0x1F2D JUMP JUMPDEST POP SWAP4 SWAP3 POP POP POP JUMP JUMPDEST PUSH0 DUP3 PUSH1 0x1F DUP4 ADD SLT PUSH2 0x1F90 JUMPI PUSH2 0x1F8F PUSH2 0x1E6D JUMP JUMPDEST JUMPDEST DUP2 CALLDATALOAD PUSH2 0x1FA0 DUP5 DUP3 PUSH1 0x20 DUP7 ADD PUSH2 0x1F3B JUMP JUMPDEST SWAP2 POP POP SWAP3 SWAP2 POP POP JUMP JUMPDEST PUSH0 DUP1 PUSH0 PUSH1 0x60 DUP5 DUP7 SUB SLT ISZERO PUSH2 0x1FC0 JUMPI PUSH2 0x1FBF PUSH2 0x1B69 JUMP JUMPDEST JUMPDEST PUSH0 PUSH2 0x1FCD DUP7 DUP3 DUP8 ADD PUSH2 0x1BB7 JUMP JUMPDEST SWAP4 POP POP PUSH1 0x20 PUSH2 0x1FDE DUP7 DUP3 DUP8 ADD PUSH2 0x1C3D JUMP JUMPDEST SWAP3 POP POP PUSH1 0x40 DUP5 ADD CALLDATALOAD PUSH8 0xFFFFFFFFFFFFFFFF DUP2 GT ISZERO PUSH2 0x1FFF JUMPI PUSH2 0x1FFE PUSH2 0x1B6D JUMP JUMPDEST JUMPDEST PUSH2 0x200B DUP7 DUP3 DUP8 ADD PUSH2 0x1F7C JUMP JUMPDEST SWAP2 POP POP SWAP3 POP SWAP3 POP SWAP3 JUMP JUMPDEST PUSH0 DUP1 PUSH1 0x40 DUP4 DUP6 SUB SLT ISZERO PUSH2 0x202B JUMPI PUSH2 0x202A PUSH2 0x1B69 JUMP JUMPDEST JUMPDEST PUSH0 PUSH2 0x2038 DUP6 DUP3 DUP7 ADD PUSH2 0x1BB7 JUMP JUMPDEST SWAP3 POP POP PUSH1 0x20 PUSH2 0x2049 DUP6 DUP3 DUP7 ADD PUSH2 0x1C3D JUMP JUMPDEST SWAP2 POP POP SWAP3 POP SWAP3 SWAP1 POP JUMP JUMPDEST PUSH0 PUSH1 0x20 DUP3 DUP5 SUB SLT ISZERO PUSH2 0x2068 JUMPI PUSH2 0x2067 PUSH2 0x1B69 JUMP JUMPDEST JUMPDEST PUSH0 PUSH2 0x2075 DUP5 DUP3 DUP6 ADD PUSH2 0x1C3D JUMP JUMPDEST SWAP2 POP POP SWAP3 SWAP2 POP POP JUMP JUMPDEST PUSH2 0x2087 DUP2 PUSH2 0x1B90 JUMP JUMPDEST DUP3 MSTORE POP POP JUMP JUMPDEST PUSH0 PUSH1 0x20 DUP3 ADD SWAP1 POP PUSH2 0x20A0 PUSH0 DUP4 ADD DUP5 PUSH2 0x207E JUMP JUMPDEST SWAP3 SWAP2 POP POP JUMP JUMPDEST PUSH0 DUP1 PUSH0 PUSH1 0x60 DUP5 DUP7 SUB SLT ISZERO PUSH2 0x20BD JUMPI PUSH2 0x20BC PUSH2 0x1B69 JUMP JUMPDEST JUMPDEST PUSH0 PUSH2 0x20CA DUP7 DUP3 DUP8 ADD PUSH2 0x1BB7 JUMP JUMPDEST SWAP4 POP POP PUSH1 0x20 PUSH2 0x20DB DUP7 DUP3 DUP8 ADD PUSH2 0x1C3D JUMP JUMPDEST SWAP3 POP POP PUSH1 0x40 PUSH2 0x20EC DUP7 DUP3 DUP8 ADD PUSH2 0x1C3D JUMP JUMPDEST SWAP2 POP POP SWAP3 POP SWAP3 POP SWAP3 JUMP JUMPDEST PUSH0 DUP2 ISZERO ISZERO SWAP1 POP SWAP2 SWAP1 POP JUMP JUMPDEST PUSH2 0x210A DUP2 PUSH2 0x20F6 JUMP JUMPDEST DUP3 MSTORE POP POP JUMP JUMPDEST PUSH0 PUSH1 0xE0 DUP3 ADD SWAP1 POP PUSH2 0x2123 PUSH0 DUP4 ADD DUP11 PUSH2 0x207E JUMP JUMPDEST PUSH2 0x2130 PUSH1 0x20 DUP4 ADD DUP10 PUSH2 0x1BFF JUMP JUMPDEST PUSH2 0x213D PUSH1 0x40 DUP4 ADD DUP9 PUSH2 0x1BFF JUMP JUMPDEST PUSH2 0x214A PUSH1 0x60 DUP4 ADD DUP8 PUSH2 0x1BFF JUMP JUMPDEST PUSH2 0x2157 PUSH1 0x80 DUP4 ADD DUP7 PUSH2 0x1BFF JUMP JUMPDEST PUSH2 0x2164 PUSH1 0xA0 DUP4 ADD DUP6 PUSH2 0x2101 JUMP JUMPDEST PUSH2 0x2171 PUSH1 0xC0 DUP4 ADD DUP5 PUSH2 0x1BFF JUMP JUMPDEST SWAP9 SWAP8 POP POP POP POP POP POP POP POP JUMP JUMPDEST PUSH32 0x4E487B7100000000000000000000000000000000000000000000000000000000 PUSH0 MSTORE PUSH1 0x22 PUSH1 0x4 MSTORE PUSH1 0x24 PUSH0 REVERT JUMPDEST PUSH0 PUSH1 0x2 DUP3 DIV SWAP1 POP PUSH1 0x1 DUP3 AND DUP1 PUSH2 0x21C1 JUMPI PUSH1 0x7F DUP3 AND SWAP2 POP JUMPDEST PUSH1 0x20 DUP3 LT DUP2 SUB PUSH2 0x21D4 JUMPI PUSH2 0x21D3 PUSH2 0x217D JUMP JUMPDEST JUMPDEST POP SWAP2 SWAP1 POP JUMP JUMPDEST PUSH0 DUP3 DUP3 MSTORE PUSH1 0x20 DUP3 ADD SWAP1 POP SWAP3 SWAP2 POP POP JUMP JUMPDEST PUSH32 0x4578706F736974696F6E20636F7572616E7465206E756C6C6500000000000000 PUSH0 DUP3 ADD MSTORE POP JUMP JUMPDEST PUSH0 PUSH2 0x221E PUSH1 0x19 DUP4 PUSH2 0x21DA JUMP JUMPDEST SWAP2 POP PUSH2 0x2229 DUP3 PUSH2 0x21EA JUMP JUMPDEST PUSH1 0x20 DUP3 ADD SWAP1 POP SWAP2 SWAP1 POP JUMP JUMPDEST PUSH0 PUSH1 0x20 DUP3 ADD SWAP1 POP DUP2 DUP2 SUB PUSH0 DUP4 ADD MSTORE PUSH2 0x224B DUP2 PUSH2 0x2212 JUMP JUMPDEST SWAP1 POP SWAP2 SWAP1 POP JUMP JUMPDEST PUSH32 0x4E487B7100000000000000000000000000000000000000000000000000000000 PUSH0 MSTORE PUSH1 0x11 PUSH1 0x4 MSTORE PUSH1 0x24 PUSH0 REVERT JUMPDEST PUSH0 PUSH2 0x2289 DUP3 PUSH2 0x1BF6 JUMP JUMPDEST SWAP2 POP PUSH2 0x2294 DUP4 PUSH2 0x1BF6 JUMP JUMPDEST SWAP3 POP DUP3 DUP3 MUL PUSH2 0x22A2 DUP2 PUSH2 0x1BF6 JUMP JUMPDEST SWAP2 POP DUP3 DUP3 DIV DUP5 EQ DUP4 ISZERO OR PUSH2 0x22B9 JUMPI PUSH2 0x22B8 PUSH2 0x2252 JUMP JUMPDEST JUMPDEST POP SWAP3 SWAP2 POP POP JUMP JUMPDEST PUSH32 0x4E487B7100000000000000000000000000000000000000000000000000000000 PUSH0 MSTORE PUSH1 0x12 PUSH1 0x4 MSTORE PUSH1 0x24 PUSH0 REVERT JUMPDEST PUSH0 PUSH2 0x22F7 DUP3 PUSH2 0x1BF6 JUMP JUMPDEST SWAP2 POP PUSH2 0x2302 DUP4 PUSH2 0x1BF6 JUMP JUMPDEST SWAP3 POP DUP3 PUSH2 0x2312 JUMPI PUSH2 0x2311 PUSH2 0x22C0 JUMP JUMPDEST JUMPDEST DUP3 DUP3 DIV SWAP1 POP SWAP3 SWAP2 POP POP JUMP JUMPDEST PUSH32 0x4164726573736520696E76616C69646500000000000000000000000000000000 PUSH0 DUP3 ADD MSTORE POP JUMP JUMPDEST PUSH0 PUSH2 0x2351 PUSH1 0x10 DUP4 PUSH2 0x21DA JUMP JUMPDEST SWAP2 POP PUSH2 0x235C DUP3 PUSH2 0x231D JUMP JUMPDEST PUSH1 0x20 DUP3 ADD SWAP1 POP SWAP2 SWAP1 POP JUMP JUMPDEST PUSH0 PUSH1 0x20 DUP3 ADD SWAP1 POP DUP2 DUP2 SUB PUSH0 DUP4 ADD MSTORE PUSH2 0x237E DUP2 PUSH2 0x2345 JUMP JUMPDEST SWAP1 POP SWAP2 SWAP1 POP JUMP JUMPDEST PUSH32 0x436F6E747265706172746965206578697374652064656A610000000000000000 PUSH0 DUP3 ADD MSTORE POP JUMP JUMPDEST PUSH0 PUSH2 0x23B9 PUSH1 0x18 DUP4 PUSH2 0x21DA JUMP JUMPDEST SWAP2 POP PUSH2 0x23C4 DUP3 PUSH2 0x2385 JUMP JUMPDEST PUSH1 0x20 DUP3 ADD SWAP1 POP SWAP2 SWAP1 POP JUMP JUMPDEST PUSH0 PUSH1 0x20 DUP3 ADD SWAP1 POP DUP2 DUP2 SUB PUSH0 DUP4 ADD MSTORE PUSH2 0x23E6 DUP2 PUSH2 0x23AD JUMP JUMPDEST SWAP1 POP SWAP2 SWAP1 POP JUMP JUMPDEST PUSH32 0x4C61206C696D6974652064276578706F736974696F6E20646F69742065747265 PUSH0 DUP3 ADD MSTORE PUSH32 0x20706F7369746976650000000000000000000000000000000000000000000000 PUSH1 0x20 DUP3 ADD MSTORE POP JUMP JUMPDEST PUSH0 PUSH2 0x2447 PUSH1 0x29 DUP4 PUSH2 0x21DA JUMP JUMPDEST SWAP2 POP PUSH2 0x2452 DUP3 PUSH2 0x23ED JUMP JUMPDEST PUSH1 0x40 DUP3 ADD SWAP1 POP SWAP2 SWAP1 POP JUMP JUMPDEST PUSH0 PUSH1 0x20 DUP3 ADD SWAP1 POP DUP2 DUP2 SUB PUSH0 DUP4 ADD MSTORE PUSH2 0x2474 DUP2 PUSH2 0x243B JUMP JUMPDEST SWAP1 POP SWAP2 SWAP1 POP JUMP JUMPDEST PUSH32 0x53636F72652064652063726564697420696E76616C6964650000000000000000 PUSH0 DUP3 ADD MSTORE POP JUMP JUMPDEST PUSH0 PUSH2 0x24AF PUSH1 0x18 DUP4 PUSH2 0x21DA JUMP JUMPDEST SWAP2 POP PUSH2 0x24BA DUP3 PUSH2 0x247B JUMP JUMPDEST PUSH1 0x20 DUP3 ADD SWAP1 POP SWAP2 SWAP1 POP JUMP JUMPDEST PUSH0 PUSH1 0x20 DUP3 ADD SWAP1 POP DUP2 DUP2 SUB PUSH0 DUP4 ADD MSTORE PUSH2 0x24DC DUP2 PUSH2 0x24A3 JUMP JUMPDEST SWAP1 POP SWAP2 SWAP1 POP JUMP JUMPDEST PUSH0 PUSH1 0x40 DUP3 ADD SWAP1 POP PUSH2 0x24F6 PUSH0 DUP4 ADD DUP6 PUSH2 0x1BFF JUMP JUMPDEST PUSH2 0x2503 PUSH1 0x20 DUP4 ADD DUP5 PUSH2 0x1BFF JUMP JUMPDEST SWAP4 SWAP3 POP POP POP JUMP JUMPDEST PUSH32 0x4E487B7100000000000000000000000000000000000000000000000000000000 PUSH0 MSTORE PUSH1 0x32 PUSH1 0x4 MSTORE PUSH1 0x24 PUSH0 REVERT JUMPDEST PUSH32 0x436F6E74726570617274696520696E6163746976650000000000000000000000 PUSH0 DUP3 ADD MSTORE POP JUMP JUMPDEST PUSH0 PUSH2 0x256B PUSH1 0x15 DUP4 PUSH2 0x21DA JUMP JUMPDEST SWAP2 POP PUSH2 0x2576 DUP3 PUSH2 0x2537 JUMP JUMPDEST PUSH1 0x20 DUP3 ADD SWAP1 POP SWAP2 SWAP1 POP JUMP JUMPDEST PUSH0 PUSH1 0x20 DUP3 ADD SWAP1 POP DUP2 DUP2 SUB PUSH0 DUP4 ADD MSTORE PUSH2 0x2598 DUP2 PUSH2 0x255F JUMP JUMPDEST SWAP1 POP SWAP2 SWAP1 POP JUMP JUMPDEST PUSH32 0x5479706520646520706F736974696F6E20696E76616C69646500000000000000 PUSH0 DUP3 ADD MSTORE POP JUMP JUMPDEST PUSH0 PUSH2 0x25D3 PUSH1 0x19 DUP4 PUSH2 0x21DA JUMP JUMPDEST SWAP2 POP PUSH2 0x25DE DUP3 PUSH2 0x259F JUMP JUMPDEST PUSH1 0x20 DUP3 ADD SWAP1 POP SWAP2 SWAP1 POP JUMP JUMPDEST PUSH0 PUSH1 0x20 DUP3 ADD SWAP1 POP DUP2 DUP2 SUB PUSH0 DUP4 ADD MSTORE PUSH2 0x2600 DUP2 PUSH2 0x25C7 JUMP JUMPDEST SWAP1 POP SWAP2 SWAP1 POP JUMP JUMPDEST PUSH32 0x4C65206D6F6E74616E7420646F69742065747265207375706572696575722061 PUSH0 DUP3 ADD MSTORE PUSH32 0x2030000000000000000000000000000000000000000000000000000000000000 PUSH1 0x20 DUP3 ADD MSTORE POP JUMP JUMPDEST PUSH0 PUSH2 0x2661 PUSH1 0x22 DUP4 PUSH2 0x21DA JUMP JUMPDEST SWAP2 POP PUSH2 0x266C DUP3 PUSH2 0x2607 JUMP JUMPDEST PUSH1 0x40 DUP3 ADD SWAP1 POP SWAP2 SWAP1 POP JUMP JUMPDEST PUSH0 PUSH1 0x20 DUP3 ADD SWAP1 POP DUP2 DUP2 SUB PUSH0 DUP4 ADD MSTORE PUSH2 0x268E DUP2 PUSH2 0x2655 JUMP JUMPDEST SWAP1 POP SWAP2 SWAP1 POP JUMP JUMPDEST PUSH0 DUP2 MLOAD SWAP1 POP SWAP2 SWAP1 POP JUMP JUMPDEST PUSH0 DUP2 SWAP1 POP DUP2 PUSH0 MSTORE PUSH1 0x20 PUSH0 KECCAK256 SWAP1 POP SWAP2 SWAP1 POP JUMP JUMPDEST PUSH0 PUSH1 0x20 PUSH1 0x1F DUP4 ADD DIV SWAP1 POP SWAP2 SWAP1 POP JUMP JUMPDEST PUSH0 DUP3 DUP3 SHL SWAP1 POP SWAP3 SWAP2 POP POP JUMP JUMPDEST PUSH0 PUSH1 0x8 DUP4 MUL PUSH2 0x26FB PUSH32 0xFFFFFFFFFFFFFFFFFFFFFFFFFFFFFFFFFFFFFFFFFFFFFFFFFFFFFFFFFFFFFFFF DUP3 PUSH2 0x26C0 JUMP JUMPDEST PUSH2 0x2705 DUP7 DUP4 PUSH2 0x26C0 JUMP JUMPDEST SWAP6 POP DUP1 NOT DUP5 AND SWAP4 POP DUP1 DUP7 AND DUP5 OR SWAP3 POP POP POP SWAP4 SWAP3 POP POP POP JUMP JUMPDEST PUSH0 DUP2 SWAP1 POP SWAP2 SWAP1 POP JUMP JUMPDEST PUSH0 PUSH2 0x2740 PUSH2 0x273B PUSH2 0x2736 DUP5 PUSH2 0x1BF6 JUMP JUMPDEST PUSH2 0x271D JUMP JUMPDEST PUSH2 0x1BF6 JUMP JUMPDEST SWAP1 POP SWAP2 SWAP1 POP JUMP JUMPDEST PUSH0 DUP2 SWAP1 POP SWAP2 SWAP1 POP JUMP JUMPDEST PUSH2 0x2759 DUP4 PUSH2 0x2726 JUMP JUMPDEST PUSH2 0x276D PUSH2 0x2765 DUP3 PUSH2 0x2747 JUMP JUMPDEST DUP5 DUP5 SLOAD PUSH2 0x26CC JUMP JUMPDEST DUP3 SSTORE POP POP POP POP JUMP JUMPDEST PUSH0 SWAP1 JUMP JUMPDEST PUSH2 0x2781 PUSH2 0x2775 JUMP JUMPDEST PUSH2 0x278C DUP2 DUP5 DUP5 PUSH2 0x2750 JUMP JUMPDEST POP POP POP JUMP JUMPDEST JUMPDEST DUP2 DUP2 LT ISZERO PUSH2 0x27AF JUMPI PUSH2 0x27A4 PUSH0 DUP3 PUSH2 0x2779 JUMP JUMPDEST PUSH1 0x1 DUP2 ADD SWAP1 POP PUSH2 0x2792 JUMP JUMPDEST POP POP JUMP JUMPDEST PUSH1 0x1F DUP3 GT ISZERO PUSH2 0x27F4 JUMPI PUSH2 0x27C5 DUP2 PUSH2 0x269F JUMP JUMPDEST PUSH2 0x27CE DUP5 PUSH2 0x26B1 JUMP JUMPDEST DUP2 ADD PUSH1 0x20 DUP6 LT ISZERO PUSH2 0x27DD JUMPI DUP2 SWAP1 POP JUMPDEST PUSH2 0x27F1 PUSH2 0x27E9 DUP6 PUSH2 0x26B1 JUMP JUMPDEST DUP4 ADD DUP3 PUSH2 0x2791 JUMP JUMPDEST POP POP JUMPDEST POP POP POP JUMP JUMPDEST PUSH0 DUP3 DUP3 SHR SWAP1 POP SWAP3 SWAP2 POP POP JUMP JUMPDEST PUSH0 PUSH2 0x2814 PUSH0 NOT DUP5 PUSH1 0x8 MUL PUSH2 0x27F9 JUMP JUMPDEST NOT DUP1 DUP4 AND SWAP2 POP POP SWAP3 SWAP2 POP POP JUMP JUMPDEST PUSH0 PUSH2 0x282C DUP4 DUP4 PUSH2 0x2805 JUMP JUMPDEST SWAP2 POP DUP3 PUSH1 0x2 MUL DUP3 OR SWAP1 POP SWAP3 SWAP2 POP POP JUMP JUMPDEST PUSH2 0x2845 DUP3 PUSH2 0x2695 JUMP JUMPDEST PUSH8 0xFFFFFFFFFFFFFFFF DUP2 GT ISZERO PUSH2 0x285E JUMPI PUSH2 0x285D PUSH2 0x1E85 JUMP JUMPDEST JUMPDEST PUSH2 0x2868 DUP3 SLOAD PUSH2 0x21AA JUMP JUMPDEST PUSH2 0x2873 DUP3 DUP3 DUP6 PUSH2 0x27B3 JUMP JUMPDEST PUSH0 PUSH1 0x20 SWAP1 POP PUSH1 0x1F DUP4 GT PUSH1 0x1 DUP2 EQ PUSH2 0x28A4 JUMPI PUSH0 DUP5 ISZERO PUSH2 0x2892 JUMPI DUP3 DUP8 ADD MLOAD SWAP1 POP JUMPDEST PUSH2 0x289C DUP6 DUP3 PUSH2 0x2821 JUMP JUMPDEST DUP7 SSTORE POP PUSH2 0x2903 JUMP JUMPDEST PUSH1 0x1F NOT DUP5 AND PUSH2 0x28B2 DUP7 PUSH2 0x269F JUMP JUMPDEST PUSH0 JUMPDEST DUP3 DUP2 LT ISZERO PUSH2 0x28D9 JUMPI DUP5 DUP10 ADD MLOAD DUP3 SSTORE PUSH1 0x1 DUP3 ADD SWAP2 POP PUSH1 0x20 DUP6 ADD SWAP5 POP PUSH1 0x20 DUP2 ADD SWAP1 POP PUSH2 0x28B4 JUMP JUMPDEST DUP7 DUP4 LT ISZERO PUSH2 0x28F6 JUMPI DUP5 DUP10 ADD MLOAD PUSH2 0x28F2 PUSH1 0x1F DUP10 AND DUP3 PUSH2 0x2805 JUMP JUMPDEST DUP4 SSTORE POP JUMPDEST PUSH1 0x1 PUSH1 0x2 DUP9 MUL ADD DUP9 SSTORE POP POP POP JUMPDEST POP POP POP POP POP POP JUMP JUMPDEST PUSH0 PUSH2 0x2915 DUP3 PUSH2 0x1BF6 JUMP JUMPDEST SWAP2 POP PUSH2 0x2920 DUP4 PUSH2 0x1BF6 JUMP JUMPDEST SWAP3 POP DUP3 DUP3 ADD SWAP1 POP DUP1 DUP3 GT ISZERO PUSH2 0x2938 JUMPI PUSH2 0x2937 PUSH2 0x2252 JUMP JUMPDEST JUMPDEST SWAP3 SWAP2 POP POP JUMP JUMPDEST PUSH0 PUSH2 0x2948 DUP3 PUSH2 0x1BF6 JUMP JUMPDEST SWAP2 POP PUSH2 0x2953 DUP4 PUSH2 0x1BF6 JUMP JUMPDEST SWAP3 POP DUP3 DUP3 SUB SWAP1 POP DUP2 DUP2 GT ISZERO PUSH2 0x296B JUMPI PUSH2 0x296A PUSH2 0x2252 JUMP JUMPDEST JUMPDEST SWAP3 SWAP2 POP POP JUMP JUMPDEST PUSH32 0x5479706520646520706F736974696F6E20696E636F6E6E752C207574696C6973 PUSH0 DUP3 ADD MSTORE PUSH32 0x6572204C4F4E47206F752053484F525400000000000000000000000000000000 PUSH1 0x20 DUP3 ADD MSTORE POP JUMP JUMPDEST PUSH0 PUSH2 0x29CB PUSH1 0x30 DUP4 PUSH2 0x21DA JUMP JUMPDEST SWAP2 POP PUSH2 0x29D6 DUP3 PUSH2 0x2971 JUMP JUMPDEST PUSH1 0x40 DUP3 ADD SWAP1 POP SWAP2 SWAP1 POP JUMP JUMPDEST PUSH0 PUSH1 0x20 DUP3 ADD SWAP1 POP DUP2 DUP2 SUB PUSH0 DUP4 ADD MSTORE PUSH2 0x29F8 DUP2 PUSH2 0x29BF JUMP JUMPDEST SWAP1 POP SWAP2 SWAP1 POP JUMP JUMPDEST DUP3 DUP2 DUP4 MCOPY PUSH0 DUP4 DUP4 ADD MSTORE POP POP POP JUMP JUMPDEST PUSH0 PUSH2 0x2A17 DUP3 PUSH2 0x2695 JUMP JUMPDEST PUSH2 0x2A21 DUP2 DUP6 PUSH2 0x21DA JUMP JUMPDEST SWAP4 POP PUSH2 0x2A31 DUP2 DUP6 PUSH1 0x20 DUP7 ADD PUSH2 0x29FF JUMP JUMPDEST PUSH2 0x2A3A DUP2 PUSH2 0x1E75 JUMP JUMPDEST DUP5 ADD SWAP2 POP POP SWAP3 SWAP2 POP POP JUMP JUMPDEST PUSH0 PUSH1 0x40 DUP3 ADD SWAP1 POP PUSH2 0x2A58 PUSH0 DUP4 ADD DUP6 PUSH2 0x1BFF JUMP JUMPDEST DUP2 DUP2 SUB PUSH1 0x20 DUP4 ADD MSTORE PUSH2 0x2A6A DUP2 DUP5 PUSH2 0x2A0D JUMP JUMPDEST SWAP1 POP SWAP4 SWAP3 POP POP POP JUMP JUMPDEST PUSH32 0x436F6E7472657061727469652064656A6120696E616374697665000000000000 PUSH0 DUP3 ADD MSTORE POP JUMP JUMPDEST PUSH0 PUSH2 0x2AA7 PUSH1 0x1A DUP4 PUSH2 0x21DA JUMP JUMPDEST SWAP2 POP PUSH2 0x2AB2 DUP3 PUSH2 0x2A73 JUMP JUMPDEST PUSH1 0x20 DUP3 ADD SWAP1 POP SWAP2 SWAP1 POP JUMP JUMPDEST PUSH0 PUSH1 0x20 DUP3 ADD SWAP1 POP DUP2 DUP2 SUB PUSH0 DUP4 ADD MSTORE PUSH2 0x2AD4 DUP2 PUSH2 0x2A9B JUMP JUMPDEST SWAP1 POP SWAP2 SWAP1 POP JUMP JUMPDEST PUSH32 0x4D6F6E74616E7420646F69742065747265207375706572696575722061203000 PUSH0 DUP3 ADD MSTORE POP JUMP JUMPDEST PUSH0 PUSH2 0x2B0F PUSH1 0x1F DUP4 PUSH2 0x21DA JUMP JUMPDEST SWAP2 POP PUSH2 0x2B1A DUP3 PUSH2 0x2ADB JUMP JUMPDEST PUSH1 0x20 DUP3 ADD SWAP1 POP SWAP2 SWAP1 POP JUMP JUMPDEST PUSH0 PUSH1 0x20 DUP3 ADD SWAP1 POP DUP2 DUP2 SUB PUSH0 DUP4 ADD MSTORE PUSH2 0x2B3C DUP2 PUSH2 0x2B03 JUMP JUMPDEST SWAP1 POP SWAP2 SWAP1 POP JUMP JUMPDEST PUSH32 0x5044206574204C474420646F6976656E7420657472652064657320706F757263 PUSH0 DUP3 ADD MSTORE PUSH32 0x656E74616765732028302D313030290000000000000000000000000000000000 PUSH1 0x20 DUP3 ADD MSTORE POP JUMP JUMPDEST PUSH0 PUSH2 0x2B9D PUSH1 0x2F DUP4 PUSH2 0x21DA JUMP JUMPDEST SWAP2 POP PUSH2 0x2BA8 DUP3 PUSH2 0x2B43 JUMP JUMPDEST PUSH1 0x40 DUP3 ADD SWAP1 POP SWAP2 SWAP1 POP JUMP JUMPDEST PUSH0 PUSH1 0x20 DUP3 ADD SWAP1 POP DUP2 DUP2 SUB PUSH0 DUP4 ADD MSTORE PUSH2 0x2BCA DUP2 PUSH2 0x2B91 JUMP JUMPDEST SWAP1 POP SWAP2 SWAP1 POP JUMP JUMPDEST PUSH32 0x4C696D6974652064276578706F736974696F6E20696E76616C69646500000000 PUSH0 DUP3 ADD MSTORE POP JUMP JUMPDEST PUSH0 PUSH2 0x2C05 PUSH1 0x1C DUP4 PUSH2 0x21DA JUMP JUMPDEST SWAP2 POP PUSH2 0x2C10 DUP3 PUSH2 0x2BD1 JUMP JUMPDEST PUSH1 0x20 DUP3 ADD SWAP1 POP SWAP2 SWAP1 POP JUMP JUMPDEST PUSH0 PUSH1 0x20 DUP3 ADD SWAP1 POP DUP2 DUP2 SUB PUSH0 DUP4 ADD MSTORE PUSH2 0x2C32 DUP2 PUSH2 0x2BF9 JUMP JUMPDEST SWAP1 POP SWAP2 SWAP1 POP JUMP JUMPDEST PUSH32 0x526174696F20696E737566666973616E7420706F757220726574697265722064 PUSH0 DUP3 ADD MSTORE PUSH32 0x657320636F6C6C61746572617578000000000000000000000000000000000000 PUSH1 0x20 DUP3 ADD MSTORE POP JUMP JUMPDEST PUSH0 PUSH2 0x2C93 PUSH1 0x2E DUP4 PUSH2 0x21DA JUMP JUMPDEST SWAP2 POP PUSH2 0x2C9E DUP3 PUSH2 0x2C39 JUMP JUMPDEST PUSH1 0x40 DUP3 ADD SWAP1 POP SWAP2 SWAP1 POP JUMP JUMPDEST PUSH0 PUSH1 0x20 DUP3 ADD SWAP1 POP DUP2 DUP2 SUB PUSH0 DUP4 ADD MSTORE PUSH2 0x2CC0 DUP2 PUSH2 0x2C87 JUMP JUMPDEST SWAP1 POP SWAP2 SWAP1 POP JUMP JUMPDEST PUSH0 PUSH2 0x2CD1 DUP3 PUSH2 0x1BF6 JUMP JUMPDEST SWAP2 POP PUSH32 0xFFFFFFFFFFFFFFFFFFFFFFFFFFFFFFFFFFFFFFFFFFFFFFFFFFFFFFFFFFFFFFFF DUP3 SUB PUSH2 0x2D03 JUMPI PUSH2 0x2D02 PUSH2 0x2252 JUMP JUMPDEST JUMPDEST PUSH1 0x1 DUP3 ADD SWAP1 POP SWAP2 SWAP1 POP JUMP INVALID LOG2 PUSH5 0x6970667358 0x22 SLT KECCAK256 EXTCODEHASH GASLIMIT 0xDB 0xA8 RETURN 0x4C SUB SDIV MSTORE CODECOPY LOG4 DUP16 SWAP2 MSTORE8 SWAP14 SWAP10 0xD5 DUP15 0x2F SWAP6 0xBE 0xA8 PUSH24 0xE3DA08DE01F3FC3FDC64736F6C634300081A003300000000 "
				},
				"gasEstimates": {
					"creation": {
						"codeDepositCost": "2317600",
						"executionCost": "2484",
						"totalCost": "2320084"
					},
					"external": {
						"ajouterCollateral(address,uint256)": "infinite",
						"ajouterContrepartie(address,uint256,uint256,uint256)": "infinite",
						"ajouterPosition(address,uint256,string)": "infinite",
						"calculerPertesAttendues(address,uint256,uint256)": "infinite",
						"calculerRatioCouverture(address)": "infinite",
						"calculerScoreRisque(address)": "infinite",
						"contreparties(address)": "infinite",
						"desactiverContrepartie(address)": "28250",
						"listeContreparties(uint256)": "4966",
						"nombreDepassements(address)": "2825",
						"retirerCollateral(address,uint256)": "infinite",
						"voirToutesLesContreparties()": "infinite"
					},
					"internal": {
						"appliquerPenalite(address)": "infinite",
						"verifierDepassements(address)": "infinite"
					}
				},
				"methodIdentifiers": {
					"ajouterCollateral(address,uint256)": "52ea5692",
					"ajouterContrepartie(address,uint256,uint256,uint256)": "1411ae6f",
					"ajouterPosition(address,uint256,string)": "4dd54c2a",
					"calculerPertesAttendues(address,uint256,uint256)": "5e7db763",
					"calculerRatioCouverture(address)": "0aae162e",
					"calculerScoreRisque(address)": "786a2d08",
					"contreparties(address)": "760b1eee",
					"desactiverContrepartie(address)": "505b64cd",
					"listeContreparties(uint256)": "561a9927",
					"nombreDepassements(address)": "0f6b6286",
					"retirerCollateral(address,uint256)": "8564e0f2",
					"voirToutesLesContreparties()": "4b932d38"
				}
			},
			"storageLayout": {
				"storage": [
					{
						"astId": 32,
						"contract": "gestionderisquefin.sol:GestionnaireDeRisquesFinanciers",
						"label": "contreparties",
						"offset": 0,
						"slot": "0",
						"type": "t_mapping(t_address,t_struct(Contrepartie)27_storage)"
					},
					{
						"astId": 35,
						"contract": "gestionderisquefin.sol:GestionnaireDeRisquesFinanciers",
						"label": "listeContreparties",
						"offset": 0,
						"slot": "1",
						"type": "t_array(t_address)dyn_storage"
					},
					{
						"astId": 39,
						"contract": "gestionderisquefin.sol:GestionnaireDeRisquesFinanciers",
						"label": "nombreDepassements",
						"offset": 0,
						"slot": "2",
						"type": "t_mapping(t_address,t_uint256)"
					}
				],
				"types": {
					"t_address": {
						"encoding": "inplace",
						"label": "address",
						"numberOfBytes": "20"
					},
					"t_array(t_address)dyn_storage": {
						"base": "t_address",
						"encoding": "dynamic_array",
						"label": "address[]",
						"numberOfBytes": "32"
					},
					"t_array(t_struct(Position)8_storage)dyn_storage": {
						"base": "t_struct(Position)8_storage",
						"encoding": "dynamic_array",
						"label": "struct GestionnaireDeRisquesFinanciers.Position[]",
						"numberOfBytes": "32"
					},
					"t_bool": {
						"encoding": "inplace",
						"label": "bool",
						"numberOfBytes": "1"
					},
					"t_mapping(t_address,t_struct(Contrepartie)27_storage)": {
						"encoding": "mapping",
						"key": "t_address",
						"label": "mapping(address => struct GestionnaireDeRisquesFinanciers.Contrepartie)",
						"numberOfBytes": "32",
						"value": "t_struct(Contrepartie)27_storage"
					},
					"t_mapping(t_address,t_uint256)": {
						"encoding": "mapping",
						"key": "t_address",
						"label": "mapping(address => uint256)",
						"numberOfBytes": "32",
						"value": "t_uint256"
					},
					"t_string_storage": {
						"encoding": "bytes",
						"label": "string",
						"numberOfBytes": "32"
					},
					"t_struct(Contrepartie)27_storage": {
						"encoding": "inplace",
						"label": "struct GestionnaireDeRisquesFinanciers.Contrepartie",
						"members": [
							{
								"astId": 10,
								"contract": "gestionderisquefin.sol:GestionnaireDeRisquesFinanciers",
								"label": "portefeuille",
								"offset": 0,
								"slot": "0",
								"type": "t_address"
							},
							{
								"astId": 12,
								"contract": "gestionderisquefin.sol:GestionnaireDeRisquesFinanciers",
								"label": "scoreCredit",
								"offset": 0,
								"slot": "1",
								"type": "t_uint256"
							},
							{
								"astId": 14,
								"contract": "gestionderisquefin.sol:GestionnaireDeRisquesFinanciers",
								"label": "limiteExposition",
								"offset": 0,
								"slot": "2",
								"type": "t_uint256"
							},
							{
								"astId": 16,
								"contract": "gestionderisquefin.sol:GestionnaireDeRisquesFinanciers",
								"label": "expositionCourante",
								"offset": 0,
								"slot": "3",
								"type": "t_uint256"
							},
							{
								"astId": 18,
								"contract": "gestionderisquefin.sol:GestionnaireDeRisquesFinanciers",
								"label": "collateral",
								"offset": 0,
								"slot": "4",
								"type": "t_uint256"
							},
							{
								"astId": 22,
								"contract": "gestionderisquefin.sol:GestionnaireDeRisquesFinanciers",
								"label": "historiquePositions",
								"offset": 0,
								"slot": "5",
								"type": "t_array(t_struct(Position)8_storage)dyn_storage"
							},
							{
								"astId": 24,
								"contract": "gestionderisquefin.sol:GestionnaireDeRisquesFinanciers",
								"label": "estActif",
								"offset": 0,
								"slot": "6",
								"type": "t_bool"
							},
							{
								"astId": 26,
								"contract": "gestionderisquefin.sol:GestionnaireDeRisquesFinanciers",
								"label": "penalites",
								"offset": 0,
								"slot": "7",
								"type": "t_uint256"
							}
						],
						"numberOfBytes": "256"
					},
					"t_struct(Position)8_storage": {
						"encoding": "inplace",
						"label": "struct GestionnaireDeRisquesFinanciers.Position",
						"members": [
							{
								"astId": 3,
								"contract": "gestionderisquefin.sol:GestionnaireDeRisquesFinanciers",
								"label": "montant",
								"offset": 0,
								"slot": "0",
								"type": "t_uint256"
							},
							{
								"astId": 5,
								"contract": "gestionderisquefin.sol:GestionnaireDeRisquesFinanciers",
								"label": "typePosition",
								"offset": 0,
								"slot": "1",
								"type": "t_string_storage"
							},
							{
								"astId": 7,
								"contract": "gestionderisquefin.sol:GestionnaireDeRisquesFinanciers",
								"label": "timestamp",
								"offset": 0,
								"slot": "2",
								"type": "t_uint256"
							}
						],
						"numberOfBytes": "96"
					},
					"t_uint256": {
						"encoding": "inplace",
						"label": "uint256",
						"numberOfBytes": "32"
					}
				}
			},
			"userdoc": {
				"kind": "user",
				"methods": {
					"ajouterCollateral(address,uint256)": {
						"notice": "Ajouter du collatéral pour une contrepartie."
					},
					"ajouterContrepartie(address,uint256,uint256,uint256)": {
						"notice": "Ajouter une contrepartie avec un score de crédit, une limite d’exposition et un collatéral initial."
					},
					"ajouterPosition(address,uint256,string)": {
						"notice": "Ajouter une position (LONG ou SHORT) pour une contrepartie et mettre à jour son exposition."
					},
					"calculerPertesAttendues(address,uint256,uint256)": {
						"notice": "Calcul des pertes attendues (Expected Loss): PA = ExpositionCourante * PD * LGD PD et LGD sont en pourcentage (par exemple 2% = 2) On suppose ici PD et LGD fournis à l'appel."
					},
					"calculerRatioCouverture(address)": {
						"notice": "Calcul du ratio de couverture = (Collatéral / Exposition Courante) * 100"
					},
					"calculerScoreRisque(address)": {
						"notice": "Calcul du score de risque selon les notes de cours : Score de Risque = ((Exposition Courante / Limite d’Exposition) * 100) / Score de Crédit"
					},
					"desactiverContrepartie(address)": {
						"notice": "Désactiver une contrepartie."
					},
					"retirerCollateral(address,uint256)": {
						"notice": "Retirer du collatéral si le ratio de couverture >= 150%."
					},
					"voirToutesLesContreparties()": {
						"notice": "Voir toutes les contreparties avec leurs limites et expositions."
					}
				},
				"version": 1
			}
		}
	}
}