{
	"gest.ris2.sol": {
		"GestionnaireRisqueContrepartie": {
			"abi": [
				{
					"inputs": [],
					"stateMutability": "nonpayable",
					"type": "constructor"
				},
				{
					"anonymous": false,
					"inputs": [
						{
							"indexed": true,
							"internalType": "address",
							"name": "portefeuille",
							"type": "address"
						},
						{
							"indexed": false,
							"internalType": "string",
							"name": "typeAlerte",
							"type": "string"
						},
						{
							"indexed": false,
							"internalType": "uint256",
							"name": "valeur",
							"type": "uint256"
						}
					],
					"name": "AlerteRisqueEleve",
					"type": "event"
				},
				{
					"anonymous": false,
					"inputs": [
						{
							"indexed": true,
							"internalType": "address",
							"name": "portefeuille",
							"type": "address"
						},
						{
							"indexed": false,
							"internalType": "uint256",
							"name": "limiteExposition",
							"type": "uint256"
						},
						{
							"indexed": false,
							"internalType": "uint256",
							"name": "collateral",
							"type": "uint256"
						}
					],
					"name": "ContrepartieAjoutee",
					"type": "event"
				},
				{
					"anonymous": false,
					"inputs": [
						{
							"indexed": true,
							"internalType": "address",
							"name": "expediteur",
							"type": "address"
						},
						{
							"indexed": true,
							"internalType": "address",
							"name": "recepteur",
							"type": "address"
						},
						{
							"indexed": false,
							"internalType": "uint256",
							"name": "montant",
							"type": "uint256"
						}
					],
					"name": "FondsEnvoyes",
					"type": "event"
				},
				{
					"anonymous": false,
					"inputs": [
						{
							"indexed": true,
							"internalType": "address",
							"name": "portefeuille",
							"type": "address"
						},
						{
							"indexed": false,
							"internalType": "uint256",
							"name": "expositionCourante",
							"type": "uint256"
						},
						{
							"indexed": false,
							"internalType": "uint256",
							"name": "limiteExposition",
							"type": "uint256"
						}
					],
					"name": "LimiteDepassee",
					"type": "event"
				},
				{
					"anonymous": false,
					"inputs": [
						{
							"indexed": true,
							"internalType": "address",
							"name": "portefeuille",
							"type": "address"
						},
						{
							"indexed": false,
							"internalType": "uint256",
							"name": "nouvelleGarantie",
							"type": "uint256"
						}
					],
					"name": "MiseAJourGarantie",
					"type": "event"
				},
				{
					"anonymous": false,
					"inputs": [
						{
							"indexed": true,
							"internalType": "address",
							"name": "expediteur",
							"type": "address"
						},
						{
							"indexed": true,
							"internalType": "address",
							"name": "recepteur",
							"type": "address"
						},
						{
							"indexed": false,
							"internalType": "int256",
							"name": "valeur",
							"type": "int256"
						},
						{
							"indexed": false,
							"internalType": "uint256",
							"name": "horodatage",
							"type": "uint256"
						}
					],
					"name": "NouvelleOperation",
					"type": "event"
				},
				{
					"anonymous": false,
					"inputs": [
						{
							"indexed": true,
							"internalType": "address",
							"name": "portefeuille",
							"type": "address"
						},
						{
							"indexed": false,
							"internalType": "uint256",
							"name": "montantPenalite",
							"type": "uint256"
						}
					],
					"name": "PenaliteAppliquee",
					"type": "event"
				},
				{
					"anonymous": false,
					"inputs": [
						{
							"indexed": true,
							"internalType": "address",
							"name": "portefeuille",
							"type": "address"
						},
						{
							"indexed": false,
							"internalType": "uint256",
							"name": "montant",
							"type": "uint256"
						},
						{
							"indexed": false,
							"internalType": "string",
							"name": "typePosition",
							"type": "string"
						},
						{
							"indexed": false,
							"internalType": "uint256",
							"name": "collateralExige",
							"type": "uint256"
						}
					],
					"name": "PositionAjoutee",
					"type": "event"
				},
				{
					"anonymous": false,
					"inputs": [
						{
							"indexed": true,
							"internalType": "address",
							"name": "portefeuille",
							"type": "address"
						},
						{
							"indexed": false,
							"internalType": "uint256",
							"name": "ratioCouverture",
							"type": "uint256"
						}
					],
					"name": "RatioCouvertureInsuffisant",
					"type": "event"
				},
				{
					"inputs": [
						{
							"internalType": "address",
							"name": "_portefeuille",
							"type": "address"
						},
						{
							"internalType": "uint256",
							"name": "_nouvelleGarantie",
							"type": "uint256"
						}
					],
					"name": "actualiserGarantie",
					"outputs": [],
					"stateMutability": "nonpayable",
					"type": "function"
				},
				{
					"inputs": [],
					"name": "admin",
					"outputs": [
						{
							"internalType": "address",
							"name": "",
							"type": "address"
						}
					],
					"stateMutability": "view",
					"type": "function"
				},
				{
					"inputs": [
						{
							"internalType": "address",
							"name": "_portefeuille",
							"type": "address"
						},
						{
							"internalType": "uint256",
							"name": "_montant",
							"type": "uint256"
						}
					],
					"name": "ajouterCollateral",
					"outputs": [],
					"stateMutability": "nonpayable",
					"type": "function"
				},
				{
					"inputs": [
						{
							"internalType": "address",
							"name": "_portefeuille",
							"type": "address"
						},
						{
							"internalType": "uint256",
							"name": "_scoreCredit",
							"type": "uint256"
						},
						{
							"internalType": "uint256",
							"name": "_limiteExposition",
							"type": "uint256"
						},
						{
							"internalType": "uint256",
							"name": "_collateral",
							"type": "uint256"
						}
					],
					"name": "ajouterContrepartie",
					"outputs": [],
					"stateMutability": "nonpayable",
					"type": "function"
				},
				{
					"inputs": [
						{
							"internalType": "address",
							"name": "_portefeuille",
							"type": "address"
						},
						{
							"internalType": "uint256",
							"name": "_montant",
							"type": "uint256"
						},
						{
							"internalType": "string",
							"name": "_typePosition",
							"type": "string"
						}
					],
					"name": "ajouterPosition",
					"outputs": [],
					"stateMutability": "nonpayable",
					"type": "function"
				},
				{
					"inputs": [
						{
							"internalType": "address",
							"name": "_portefeuille",
							"type": "address"
						}
					],
					"name": "calculerExpositionNette",
					"outputs": [
						{
							"internalType": "int256",
							"name": "",
							"type": "int256"
						}
					],
					"stateMutability": "view",
					"type": "function"
				},
				{
					"inputs": [
						{
							"internalType": "address",
							"name": "_portefeuille",
							"type": "address"
						}
					],
					"name": "calculerRatioCouverture",
					"outputs": [
						{
							"internalType": "uint256",
							"name": "",
							"type": "uint256"
						}
					],
					"stateMutability": "view",
					"type": "function"
				},
				{
					"inputs": [
						{
							"internalType": "address",
							"name": "_portefeuille",
							"type": "address"
						}
					],
					"name": "calculerRatioGarantie",
					"outputs": [
						{
							"internalType": "uint256",
							"name": "",
							"type": "uint256"
						}
					],
					"stateMutability": "view",
					"type": "function"
				},
				{
					"inputs": [
						{
							"internalType": "address",
							"name": "_portefeuille",
							"type": "address"
						}
					],
					"name": "calculerRisque",
					"outputs": [
						{
							"internalType": "uint256",
							"name": "",
							"type": "uint256"
						}
					],
					"stateMutability": "view",
					"type": "function"
				},
				{
					"inputs": [
						{
							"internalType": "address",
							"name": "",
							"type": "address"
						}
					],
					"name": "contreparties",
					"outputs": [
						{
							"internalType": "address",
							"name": "portefeuille",
							"type": "address"
						},
						{
							"internalType": "uint256",
							"name": "scoreCredit",
							"type": "uint256"
						},
						{
							"internalType": "uint256",
							"name": "limiteExposition",
							"type": "uint256"
						},
						{
							"internalType": "uint256",
							"name": "expositionCourante",
							"type": "uint256"
						},
						{
							"internalType": "uint256",
							"name": "collateral",
							"type": "uint256"
						},
						{
							"internalType": "bool",
							"name": "estActif",
							"type": "bool"
						},
						{
							"internalType": "uint256",
							"name": "penalites",
							"type": "uint256"
						},
						{
							"internalType": "uint256",
							"name": "garantie",
							"type": "uint256"
						}
					],
					"stateMutability": "view",
					"type": "function"
				},
				{
					"inputs": [
						{
							"internalType": "address",
							"name": "_recepteur",
							"type": "address"
						},
						{
							"internalType": "int256",
							"name": "_valeur",
							"type": "int256"
						}
					],
					"name": "enregistrerTransaction",
					"outputs": [],
					"stateMutability": "nonpayable",
					"type": "function"
				},
				{
					"inputs": [
						{
							"internalType": "address payable",
							"name": "_recepteur",
							"type": "address"
						},
						{
							"internalType": "uint256",
							"name": "_montant",
							"type": "uint256"
						}
					],
					"name": "envoyerFonds",
					"outputs": [],
					"stateMutability": "nonpayable",
					"type": "function"
				},
				{
					"inputs": [],
					"name": "getListeContreparties",
					"outputs": [
						{
							"internalType": "address[]",
							"name": "",
							"type": "address[]"
						}
					],
					"stateMutability": "view",
					"type": "function"
				},
				{
					"inputs": [
						{
							"internalType": "uint256",
							"name": "",
							"type": "uint256"
						}
					],
					"name": "historiqueTransactions",
					"outputs": [
						{
							"internalType": "address",
							"name": "expediteur",
							"type": "address"
						},
						{
							"internalType": "address",
							"name": "recepteur",
							"type": "address"
						},
						{
							"internalType": "int256",
							"name": "valeur",
							"type": "int256"
						},
						{
							"internalType": "uint256",
							"name": "horodatage",
							"type": "uint256"
						}
					],
					"stateMutability": "view",
					"type": "function"
				},
				{
					"inputs": [
						{
							"internalType": "uint256",
							"name": "",
							"type": "uint256"
						}
					],
					"name": "listeContreparties",
					"outputs": [
						{
							"internalType": "address",
							"name": "",
							"type": "address"
						}
					],
					"stateMutability": "view",
					"type": "function"
				},
				{
					"inputs": [
						{
							"internalType": "uint256",
							"name": "_nouveauRatio",
							"type": "uint256"
						}
					],
					"name": "modifierRatioDeCouverture",
					"outputs": [],
					"stateMutability": "nonpayable",
					"type": "function"
				},
				{
					"inputs": [],
					"name": "obtenirHistoriqueTransactions",
					"outputs": [
						{
							"components": [
								{
									"internalType": "address",
									"name": "expediteur",
									"type": "address"
								},
								{
									"internalType": "address",
									"name": "recepteur",
									"type": "address"
								},
								{
									"internalType": "int256",
									"name": "valeur",
									"type": "int256"
								},
								{
									"internalType": "uint256",
									"name": "horodatage",
									"type": "uint256"
								}
							],
							"internalType": "struct GestionnaireRisqueContrepartie.EnregistrementTransaction[]",
							"name": "",
							"type": "tuple[]"
						}
					],
					"stateMutability": "view",
					"type": "function"
				},
				{
					"inputs": [],
					"name": "ratioDeCouverture",
					"outputs": [
						{
							"internalType": "uint256",
							"name": "",
							"type": "uint256"
						}
					],
					"stateMutability": "view",
					"type": "function"
				},
				{
					"inputs": [
						{
							"internalType": "address",
							"name": "",
							"type": "address"
						},
						{
							"internalType": "address",
							"name": "",
							"type": "address"
						}
					],
					"name": "relationsExposition",
					"outputs": [
						{
							"internalType": "int256",
							"name": "",
							"type": "int256"
						}
					],
					"stateMutability": "view",
					"type": "function"
				},
				{
					"stateMutability": "payable",
					"type": "receive"
				}
			],
			"devdoc": {
				"kind": "dev",
				"methods": {},
				"version": 1
			},
			"evm": {
				"assembly": "    /* \"gest.ris2.sol\":61:13132  contract GestionnaireRisqueContrepartie {... */\n  mstore(0x40, 0x80)\n    /* \"gest.ris2.sol\":893:896  120 */\n  0x78\n    /* \"gest.ris2.sol\":858:896  uint256 public ratioDeCouverture = 120 */\n  0x01\n  sstore\n    /* \"gest.ris2.sol\":2603:2654  constructor() {... */\n  callvalue\n  dup1\n  iszero\n  tag_1\n  jumpi\n  0x00\n  dup1\n  revert\ntag_1:\n  pop\n    /* \"gest.ris2.sol\":2636:2646  msg.sender */\n  caller\n    /* \"gest.ris2.sol\":2628:2633  admin */\n  0x00\n  dup1\n    /* \"gest.ris2.sol\":2628:2646  admin = msg.sender */\n  0x0100\n  exp\n  dup2\n  sload\n  dup2\n  0xffffffffffffffffffffffffffffffffffffffff\n  mul\n  not\n  and\n  swap1\n  dup4\n  0xffffffffffffffffffffffffffffffffffffffff\n  and\n  mul\n  or\n  swap1\n  sstore\n  pop\n    /* \"gest.ris2.sol\":61:13132  contract GestionnaireRisqueContrepartie {... */\n  dataSize(sub_0)\n  dup1\n  dataOffset(sub_0)\n  0x00\n  codecopy\n  0x00\n  return\nstop\n\nsub_0: assembly {\n        /* \"gest.ris2.sol\":61:13132  contract GestionnaireRisqueContrepartie {... */\n      mstore(0x40, 0x80)\n      jumpi(tag_1, lt(calldatasize, 0x04))\n      shr(0xe0, calldataload(0x00))\n      dup1\n      0x57cab90a\n      gt\n      tag_22\n      jumpi\n      dup1\n      0x932ab445\n      gt\n      tag_23\n      jumpi\n      dup1\n      0x932ab445\n      eq\n      tag_17\n      jumpi\n      dup1\n      0xb05a5cfb\n      eq\n      tag_18\n      jumpi\n      dup1\n      0xd1b6b478\n      eq\n      tag_19\n      jumpi\n      dup1\n      0xe4d2d96e\n      eq\n      tag_20\n      jumpi\n      dup1\n      0xf851a440\n      eq\n      tag_21\n      jumpi\n      jump(tag_2)\n    tag_23:\n      dup1\n      0x57cab90a\n      eq\n      tag_12\n      jumpi\n      dup1\n      0x7228587e\n      eq\n      tag_13\n      jumpi\n      dup1\n      0x760b1eee\n      eq\n      tag_14\n      jumpi\n      dup1\n      0x85381211\n      eq\n      tag_15\n      jumpi\n      dup1\n      0x8e068eb0\n      eq\n      tag_16\n      jumpi\n      jump(tag_2)\n    tag_22:\n      dup1\n      0x3916bb2b\n      gt\n      tag_24\n      jumpi\n      dup1\n      0x3916bb2b\n      eq\n      tag_7\n      jumpi\n      dup1\n      0x397c4727\n      eq\n      tag_8\n      jumpi\n      dup1\n      0x4dd54c2a\n      eq\n      tag_9\n      jumpi\n      dup1\n      0x52ea5692\n      eq\n      tag_10\n      jumpi\n      dup1\n      0x561a9927\n      eq\n      tag_11\n      jumpi\n      jump(tag_2)\n    tag_24:\n      dup1\n      0x0aae162e\n      eq\n      tag_3\n      jumpi\n      dup1\n      0x1411ae6f\n      eq\n      tag_4\n      jumpi\n      dup1\n      0x25836bc8\n      eq\n      tag_5\n      jumpi\n      dup1\n      0x2fcc5184\n      eq\n      tag_6\n      jumpi\n      jump(tag_2)\n    tag_1:\n      jumpi(tag_2, calldatasize)\n      stop\n    tag_2:\n      0x00\n      dup1\n      revert\n        /* \"gest.ris2.sol\":5157:5528  function calculerRatioCouverture(address _portefeuille) ... */\n    tag_3:\n      callvalue\n      dup1\n      iszero\n      tag_27\n      jumpi\n      0x00\n      dup1\n      revert\n    tag_27:\n      pop\n      tag_28\n      0x04\n      dup1\n      calldatasize\n      sub\n      dup2\n      add\n      swap1\n      tag_29\n      swap2\n      swap1\n      tag_30\n      jump\t// in\n    tag_29:\n      tag_31\n      jump\t// in\n    tag_28:\n      mload(0x40)\n      tag_32\n      swap2\n      swap1\n      tag_33\n      jump\t// in\n    tag_32:\n      mload(0x40)\n      dup1\n      swap2\n      sub\n      swap1\n      return\n        /* \"gest.ris2.sol\":2740:3634  function ajouterContrepartie(address _portefeuille, uint256 _scoreCredit, uint256 _limiteExposition, uint256 _collateral) ... */\n    tag_4:\n      callvalue\n      dup1\n      iszero\n      tag_34\n      jumpi\n      0x00\n      dup1\n      revert\n    tag_34:\n      pop\n      tag_35\n      0x04\n      dup1\n      calldatasize\n      sub\n      dup2\n      add\n      swap1\n      tag_36\n      swap2\n      swap1\n      tag_37\n      jump\t// in\n    tag_36:\n      tag_38\n      jump\t// in\n    tag_35:\n      stop\n        /* \"gest.ris2.sol\":3685:3801  function getListeContreparties() public view returns (address[] memory) {... */\n    tag_5:\n      callvalue\n      dup1\n      iszero\n      tag_39\n      jumpi\n      0x00\n      dup1\n      revert\n    tag_39:\n      pop\n      tag_40\n      tag_41\n      jump\t// in\n    tag_40:\n      mload(0x40)\n      tag_42\n      swap2\n      swap1\n      tag_43\n      jump\t// in\n    tag_42:\n      mload(0x40)\n      dup1\n      swap2\n      sub\n      swap1\n      return\n        /* \"gest.ris2.sol\":10275:10603  function calculerRatioGarantie(address _portefeuille) ... */\n    tag_6:\n      callvalue\n      dup1\n      iszero\n      tag_44\n      jumpi\n      0x00\n      dup1\n      revert\n    tag_44:\n      pop\n      tag_45\n      0x04\n      dup1\n      calldatasize\n      sub\n      dup2\n      add\n      swap1\n      tag_46\n      swap2\n      swap1\n      tag_30\n      jump\t// in\n    tag_46:\n      tag_47\n      jump\t// in\n    tag_45:\n      mload(0x40)\n      tag_48\n      swap2\n      swap1\n      tag_33\n      jump\t// in\n    tag_48:\n      mload(0x40)\n      dup1\n      swap2\n      sub\n      swap1\n      return\n        /* \"gest.ris2.sol\":12983:13129  function obtenirHistoriqueTransactions() public view returns (EnregistrementTransaction[] memory) {... */\n    tag_7:\n      callvalue\n      dup1\n      iszero\n      tag_49\n      jumpi\n      0x00\n      dup1\n      revert\n    tag_49:\n      pop\n      tag_50\n      tag_51\n      jump\t// in\n    tag_50:\n      mload(0x40)\n      tag_52\n      swap2\n      swap1\n      tag_53\n      jump\t// in\n    tag_52:\n      mload(0x40)\n      dup1\n      swap2\n      sub\n      swap1\n      return\n        /* \"gest.ris2.sol\":1240:1297  EnregistrementTransaction[] public historiqueTransactions */\n    tag_8:\n      callvalue\n      dup1\n      iszero\n      tag_54\n      jumpi\n      0x00\n      dup1\n      revert\n    tag_54:\n      pop\n      tag_55\n      0x04\n      dup1\n      calldatasize\n      sub\n      dup2\n      add\n      swap1\n      tag_56\n      swap2\n      swap1\n      tag_57\n      jump\t// in\n    tag_56:\n      tag_58\n      jump\t// in\n    tag_55:\n      mload(0x40)\n      tag_59\n      swap5\n      swap4\n      swap3\n      swap2\n      swap1\n      tag_60\n      jump\t// in\n    tag_59:\n      mload(0x40)\n      dup1\n      swap2\n      sub\n      swap1\n      return\n        /* \"gest.ris2.sol\":3838:5109  function ajouterPosition(address _portefeuille, uint256 _montant, string memory _typePosition) ... */\n    tag_9:\n      callvalue\n      dup1\n      iszero\n      tag_61\n      jumpi\n      0x00\n      dup1\n      revert\n    tag_61:\n      pop\n      tag_62\n      0x04\n      dup1\n      calldatasize\n      sub\n      dup2\n      add\n      swap1\n      tag_63\n      swap2\n      swap1\n      tag_64\n      jump\t// in\n    tag_63:\n      tag_65\n      jump\t// in\n    tag_62:\n      stop\n        /* \"gest.ris2.sol\":7502:7816  function ajouterCollateral(address _portefeuille, uint256 _montant) ... */\n    tag_10:\n      callvalue\n      dup1\n      iszero\n      tag_66\n      jumpi\n      0x00\n      dup1\n      revert\n    tag_66:\n      pop\n      tag_67\n      0x04\n      dup1\n      calldatasize\n      sub\n      dup2\n      add\n      swap1\n      tag_68\n      swap2\n      swap1\n      tag_69\n      jump\t// in\n    tag_68:\n      tag_70\n      jump\t// in\n    tag_67:\n      stop\n        /* \"gest.ris2.sol\":1007:1042  address[] public listeContreparties */\n    tag_11:\n      callvalue\n      dup1\n      iszero\n      tag_71\n      jumpi\n      0x00\n      dup1\n      revert\n    tag_71:\n      pop\n      tag_72\n      0x04\n      dup1\n      calldatasize\n      sub\n      dup2\n      add\n      swap1\n      tag_73\n      swap2\n      swap1\n      tag_57\n      jump\t// in\n    tag_73:\n      tag_74\n      jump\t// in\n    tag_72:\n      mload(0x40)\n      tag_75\n      swap2\n      swap1\n      tag_76\n      jump\t// in\n    tag_75:\n      mload(0x40)\n      dup1\n      swap2\n      sub\n      swap1\n      return\n        /* \"gest.ris2.sol\":1115:1188  mapping(address => mapping(address => int256)) public relationsExposition */\n    tag_12:\n      callvalue\n      dup1\n      iszero\n      tag_77\n      jumpi\n      0x00\n      dup1\n      revert\n    tag_77:\n      pop\n      tag_78\n      0x04\n      dup1\n      calldatasize\n      sub\n      dup2\n      add\n      swap1\n      tag_79\n      swap2\n      swap1\n      tag_80\n      jump\t// in\n    tag_79:\n      tag_81\n      jump\t// in\n    tag_78:\n      mload(0x40)\n      tag_82\n      swap2\n      swap1\n      tag_83\n      jump\t// in\n    tag_82:\n      mload(0x40)\n      dup1\n      swap2\n      sub\n      swap1\n      return\n        /* \"gest.ris2.sol\":9209:9735  function actualiserGarantie(address _portefeuille, uint256 _nouvelleGarantie) ... */\n    tag_13:\n      callvalue\n      dup1\n      iszero\n      tag_84\n      jumpi\n      0x00\n      dup1\n      revert\n    tag_84:\n      pop\n      tag_85\n      0x04\n      dup1\n      calldatasize\n      sub\n      dup2\n      add\n      swap1\n      tag_86\n      swap2\n      swap1\n      tag_69\n      jump\t// in\n    tag_86:\n      tag_87\n      jump\t// in\n    tag_85:\n      stop\n        /* \"gest.ris2.sol\":947:1000  mapping(address => Contrepartie) public contreparties */\n    tag_14:\n      callvalue\n      dup1\n      iszero\n      tag_88\n      jumpi\n      0x00\n      dup1\n      revert\n    tag_88:\n      pop\n      tag_89\n      0x04\n      dup1\n      calldatasize\n      sub\n      dup2\n      add\n      swap1\n      tag_90\n      swap2\n      swap1\n      tag_30\n      jump\t// in\n    tag_90:\n      tag_91\n      jump\t// in\n    tag_89:\n      mload(0x40)\n      tag_92\n      swap9\n      swap8\n      swap7\n      swap6\n      swap5\n      swap4\n      swap3\n      swap2\n      swap1\n      tag_93\n      jump\t// in\n    tag_92:\n      mload(0x40)\n      dup1\n      swap2\n      sub\n      swap1\n      return\n        /* \"gest.ris2.sol\":858:896  uint256 public ratioDeCouverture = 120 */\n    tag_15:\n      callvalue\n      dup1\n      iszero\n      tag_94\n      jumpi\n      0x00\n      dup1\n      revert\n    tag_94:\n      pop\n      tag_95\n      tag_96\n      jump\t// in\n    tag_95:\n      mload(0x40)\n      tag_97\n      swap2\n      swap1\n      tag_33\n      jump\t// in\n    tag_97:\n      mload(0x40)\n      dup1\n      swap2\n      sub\n      swap1\n      return\n        /* \"gest.ris2.sol\":9827:10229  function calculerRisque(address _portefeuille) ... */\n    tag_16:\n      callvalue\n      dup1\n      iszero\n      tag_98\n      jumpi\n      0x00\n      dup1\n      revert\n    tag_98:\n      pop\n      tag_99\n      0x04\n      dup1\n      calldatasize\n      sub\n      dup2\n      add\n      swap1\n      tag_100\n      swap2\n      swap1\n      tag_30\n      jump\t// in\n    tag_100:\n      tag_101\n      jump\t// in\n    tag_99:\n      mload(0x40)\n      tag_102\n      swap2\n      swap1\n      tag_33\n      jump\t// in\n    tag_102:\n      mload(0x40)\n      dup1\n      swap2\n      sub\n      swap1\n      return\n        /* \"gest.ris2.sol\":10695:11429  function envoyerFonds(address payable _recepteur, uint256 _montant) ... */\n    tag_17:\n      callvalue\n      dup1\n      iszero\n      tag_103\n      jumpi\n      0x00\n      dup1\n      revert\n    tag_103:\n      pop\n      tag_104\n      0x04\n      dup1\n      calldatasize\n      sub\n      dup2\n      add\n      swap1\n      tag_105\n      swap2\n      swap1\n      tag_106\n      jump\t// in\n    tag_105:\n      tag_107\n      jump\t// in\n    tag_104:\n      stop\n        /* \"gest.ris2.sol\":6793:7464  function calculerExpositionNette(address _portefeuille) ... */\n    tag_18:\n      callvalue\n      dup1\n      iszero\n      tag_108\n      jumpi\n      0x00\n      dup1\n      revert\n    tag_108:\n      pop\n      tag_109\n      0x04\n      dup1\n      calldatasize\n      sub\n      dup2\n      add\n      swap1\n      tag_110\n      swap2\n      swap1\n      tag_30\n      jump\t// in\n    tag_110:\n      tag_111\n      jump\t// in\n    tag_109:\n      mload(0x40)\n      tag_112\n      swap2\n      swap1\n      tag_83\n      jump\t// in\n    tag_112:\n      mload(0x40)\n      dup1\n      swap2\n      sub\n      swap1\n      return\n        /* \"gest.ris2.sol\":8212:9136  function enregistrerTransaction(address _recepteur, int256 _valeur) ... */\n    tag_19:\n      callvalue\n      dup1\n      iszero\n      tag_113\n      jumpi\n      0x00\n      dup1\n      revert\n    tag_113:\n      pop\n      tag_114\n      0x04\n      dup1\n      calldatasize\n      sub\n      dup2\n      add\n      swap1\n      tag_115\n      swap2\n      swap1\n      tag_116\n      jump\t// in\n    tag_115:\n      tag_117\n      jump\t// in\n    tag_114:\n      stop\n        /* \"gest.ris2.sol\":7871:8102  function modifierRatioDeCouverture(uint256 _nouveauRatio) ... */\n    tag_20:\n      callvalue\n      dup1\n      iszero\n      tag_118\n      jumpi\n      0x00\n      dup1\n      revert\n    tag_118:\n      pop\n      tag_119\n      0x04\n      dup1\n      calldatasize\n      sub\n      dup2\n      add\n      swap1\n      tag_120\n      swap2\n      swap1\n      tag_57\n      jump\t// in\n    tag_120:\n      tag_121\n      jump\t// in\n    tag_119:\n      stop\n        /* \"gest.ris2.sol\":831:851  address public admin */\n    tag_21:\n      callvalue\n      dup1\n      iszero\n      tag_122\n      jumpi\n      0x00\n      dup1\n      revert\n    tag_122:\n      pop\n      tag_123\n      tag_124\n      jump\t// in\n    tag_123:\n      mload(0x40)\n      tag_125\n      swap2\n      swap1\n      tag_76\n      jump\t// in\n    tag_125:\n      mload(0x40)\n      dup1\n      swap2\n      sub\n      swap1\n      return\n        /* \"gest.ris2.sol\":5157:5528  function calculerRatioCouverture(address _portefeuille) ... */\n    tag_31:\n        /* \"gest.ris2.sol\":5308:5315  uint256 */\n      0x00\n        /* \"gest.ris2.sol\":5274:5287  _portefeuille */\n      dup2\n        /* \"gest.ris2.sol\":2472:2485  contreparties */\n      0x02\n        /* \"gest.ris2.sol\":2472:2500  contreparties[_portefeuille] */\n      0x00\n        /* \"gest.ris2.sol\":2486:2499  _portefeuille */\n      dup3\n        /* \"gest.ris2.sol\":2472:2500  contreparties[_portefeuille] */\n      0xffffffffffffffffffffffffffffffffffffffff\n      and\n      0xffffffffffffffffffffffffffffffffffffffff\n      and\n      dup2\n      mstore\n      0x20\n      add\n      swap1\n      dup2\n      mstore\n      0x20\n      add\n      0x00\n      keccak256\n        /* \"gest.ris2.sol\":2472:2509  contreparties[_portefeuille].estActif */\n      0x06\n      add\n      0x00\n      swap1\n      sload\n      swap1\n      0x0100\n      exp\n      swap1\n      div\n      0xff\n      and\n        /* \"gest.ris2.sol\":2464:2550  require(contreparties[_portefeuille].estActif, \"Contrepartie inactive ou inexistante\") */\n      tag_127\n      jumpi\n      mload(0x40)\n      0x08c379a000000000000000000000000000000000000000000000000000000000\n      dup2\n      mstore\n      0x04\n      add\n      tag_128\n      swap1\n      tag_129\n      jump\t// in\n    tag_128:\n      mload(0x40)\n      dup1\n      swap2\n      sub\n      swap1\n      revert\n    tag_127:\n        /* \"gest.ris2.sol\":5334:5355  Contrepartie memory c */\n      0x00\n        /* \"gest.ris2.sol\":5358:5371  contreparties */\n      0x02\n        /* \"gest.ris2.sol\":5358:5386  contreparties[_portefeuille] */\n      0x00\n        /* \"gest.ris2.sol\":5372:5385  _portefeuille */\n      dup6\n        /* \"gest.ris2.sol\":5358:5386  contreparties[_portefeuille] */\n      0xffffffffffffffffffffffffffffffffffffffff\n      and\n      0xffffffffffffffffffffffffffffffffffffffff\n      and\n      dup2\n      mstore\n      0x20\n      add\n      swap1\n      dup2\n      mstore\n      0x20\n      add\n      0x00\n      keccak256\n        /* \"gest.ris2.sol\":5334:5386  Contrepartie memory c = contreparties[_portefeuille] */\n      mload(0x40)\n      dup1\n      0x0120\n      add\n      0x40\n      mstore\n      swap1\n      dup2\n      0x00\n      dup3\n      add\n      0x00\n      swap1\n      sload\n      swap1\n      0x0100\n      exp\n      swap1\n      div\n      0xffffffffffffffffffffffffffffffffffffffff\n      and\n      0xffffffffffffffffffffffffffffffffffffffff\n      and\n      0xffffffffffffffffffffffffffffffffffffffff\n      and\n      dup2\n      mstore\n      0x20\n      add\n      0x01\n      dup3\n      add\n      sload\n      dup2\n      mstore\n      0x20\n      add\n      0x02\n      dup3\n      add\n      sload\n      dup2\n      mstore\n      0x20\n      add\n      0x03\n      dup3\n      add\n      sload\n      dup2\n      mstore\n      0x20\n      add\n      0x04\n      dup3\n      add\n      sload\n      dup2\n      mstore\n      0x20\n      add\n      0x05\n      dup3\n      add\n      dup1\n      sload\n      dup1\n      0x20\n      mul\n      0x20\n      add\n      mload(0x40)\n      swap1\n      dup2\n      add\n      0x40\n      mstore\n      dup1\n      swap3\n      swap2\n      swap1\n      dup2\n      dup2\n      mstore\n      0x20\n      add\n      0x00\n      swap1\n    tag_131:\n      dup3\n      dup3\n      lt\n      iszero\n      tag_132\n      jumpi\n      dup4\n      dup3\n      swap1\n      0x00\n      mstore\n      keccak256(0x00, 0x20)\n      swap1\n      0x04\n      mul\n      add\n      mload(0x40)\n      dup1\n      0x80\n      add\n      0x40\n      mstore\n      swap1\n      dup2\n      0x00\n      dup3\n      add\n      sload\n      dup2\n      mstore\n      0x20\n      add\n      0x01\n      dup3\n      add\n      dup1\n      sload\n      tag_134\n      swap1\n      tag_135\n      jump\t// in\n    tag_134:\n      dup1\n      0x1f\n      add\n      0x20\n      dup1\n      swap2\n      div\n      mul\n      0x20\n      add\n      mload(0x40)\n      swap1\n      dup2\n      add\n      0x40\n      mstore\n      dup1\n      swap3\n      swap2\n      swap1\n      dup2\n      dup2\n      mstore\n      0x20\n      add\n      dup3\n      dup1\n      sload\n      tag_136\n      swap1\n      tag_135\n      jump\t// in\n    tag_136:\n      dup1\n      iszero\n      tag_137\n      jumpi\n      dup1\n      0x1f\n      lt\n      tag_138\n      jumpi\n      0x0100\n      dup1\n      dup4\n      sload\n      div\n      mul\n      dup4\n      mstore\n      swap2\n      0x20\n      add\n      swap2\n      jump(tag_137)\n    tag_138:\n      dup3\n      add\n      swap2\n      swap1\n      0x00\n      mstore\n      keccak256(0x00, 0x20)\n      swap1\n    tag_139:\n      dup2\n      sload\n      dup2\n      mstore\n      swap1\n      0x01\n      add\n      swap1\n      0x20\n      add\n      dup1\n      dup4\n      gt\n      tag_139\n      jumpi\n      dup3\n      swap1\n      sub\n      0x1f\n      and\n      dup3\n      add\n      swap2\n    tag_137:\n      pop\n      pop\n      pop\n      pop\n      pop\n      dup2\n      mstore\n      0x20\n      add\n      0x02\n      dup3\n      add\n      sload\n      dup2\n      mstore\n      0x20\n      add\n      0x03\n      dup3\n      add\n      sload\n      dup2\n      mstore\n      pop\n      pop\n      dup2\n      mstore\n      0x20\n      add\n      swap1\n      0x01\n      add\n      swap1\n      jump(tag_131)\n    tag_132:\n      pop\n      pop\n      pop\n      pop\n      dup2\n      mstore\n      0x20\n      add\n      0x06\n      dup3\n      add\n      0x00\n      swap1\n      sload\n      swap1\n      0x0100\n      exp\n      swap1\n      div\n      0xff\n      and\n      iszero\n      iszero\n      iszero\n      iszero\n      dup2\n      mstore\n      0x20\n      add\n      0x07\n      dup3\n      add\n      sload\n      dup2\n      mstore\n      0x20\n      add\n      0x08\n      dup3\n      add\n      sload\n      dup2\n      mstore\n      pop\n      pop\n      swap1\n      pop\n        /* \"gest.ris2.sol\":5428:5429  0 */\n      0x00\n        /* \"gest.ris2.sol\":5405:5406  c */\n      dup2\n        /* \"gest.ris2.sol\":5405:5425  c.expositionCourante */\n      0x60\n      add\n      mload\n        /* \"gest.ris2.sol\":5405:5429  c.expositionCourante > 0 */\n      gt\n        /* \"gest.ris2.sol\":5397:5459  require(c.expositionCourante > 0, \"Exposition courante nulle\") */\n      tag_140\n      jumpi\n      mload(0x40)\n      0x08c379a000000000000000000000000000000000000000000000000000000000\n      dup2\n      mstore\n      0x04\n      add\n      tag_141\n      swap1\n      tag_142\n      jump\t// in\n    tag_141:\n      mload(0x40)\n      dup1\n      swap2\n      sub\n      swap1\n      revert\n    tag_140:\n        /* \"gest.ris2.sol\":5500:5501  c */\n      dup1\n        /* \"gest.ris2.sol\":5500:5520  c.expositionCourante */\n      0x60\n      add\n      mload\n        /* \"gest.ris2.sol\":5493:5496  100 */\n      0x64\n        /* \"gest.ris2.sol\":5478:5479  c */\n      dup3\n        /* \"gest.ris2.sol\":5478:5490  c.collateral */\n      0x80\n      add\n      mload\n        /* \"gest.ris2.sol\":5478:5496  c.collateral * 100 */\n      tag_143\n      swap2\n      swap1\n      tag_144\n      jump\t// in\n    tag_143:\n        /* \"gest.ris2.sol\":5477:5520  (c.collateral * 100) / c.expositionCourante */\n      tag_145\n      swap2\n      swap1\n      tag_146\n      jump\t// in\n    tag_145:\n        /* \"gest.ris2.sol\":5470:5520  return (c.collateral * 100) / c.expositionCourante */\n      swap3\n      pop\n      pop\n        /* \"gest.ris2.sol\":5157:5528  function calculerRatioCouverture(address _portefeuille) ... */\n      pop\n      swap2\n      swap1\n      pop\n      jump\t// out\n        /* \"gest.ris2.sol\":2740:3634  function ajouterContrepartie(address _portefeuille, uint256 _scoreCredit, uint256 _limiteExposition, uint256 _collateral) ... */\n    tag_38:\n        /* \"gest.ris2.sol\":2330:2335  admin */\n      0x00\n      dup1\n      sload\n      swap1\n      0x0100\n      exp\n      swap1\n      div\n      0xffffffffffffffffffffffffffffffffffffffff\n      and\n        /* \"gest.ris2.sol\":2316:2335  msg.sender == admin */\n      0xffffffffffffffffffffffffffffffffffffffff\n      and\n        /* \"gest.ris2.sol\":2316:2326  msg.sender */\n      caller\n        /* \"gest.ris2.sol\":2316:2335  msg.sender == admin */\n      0xffffffffffffffffffffffffffffffffffffffff\n      and\n      eq\n        /* \"gest.ris2.sol\":2308:2374  require(msg.sender == admin, \"Action reservee a l'administrateur\") */\n      tag_148\n      jumpi\n      mload(0x40)\n      0x08c379a000000000000000000000000000000000000000000000000000000000\n      dup2\n      mstore\n      0x04\n      add\n      tag_149\n      swap1\n      tag_150\n      jump\t// in\n    tag_149:\n      mload(0x40)\n      dup1\n      swap2\n      sub\n      swap1\n      revert\n    tag_148:\n        /* \"gest.ris2.sol\":2949:2950  0 */\n      0x00\n        /* \"gest.ris2.sol\":2924:2951  _portefeuille != address(0) */\n      0xffffffffffffffffffffffffffffffffffffffff\n      and\n        /* \"gest.ris2.sol\":2924:2937  _portefeuille */\n      dup5\n        /* \"gest.ris2.sol\":2924:2951  _portefeuille != address(0) */\n      0xffffffffffffffffffffffffffffffffffffffff\n      and\n      sub\n        /* \"gest.ris2.sol\":2916:2972  require(_portefeuille != address(0), \"Adresse invalide\") */\n      tag_152\n      jumpi\n      mload(0x40)\n      0x08c379a000000000000000000000000000000000000000000000000000000000\n      dup2\n      mstore\n      0x04\n      add\n      tag_153\n      swap1\n      tag_154\n      jump\t// in\n    tag_153:\n      mload(0x40)\n      dup1\n      swap2\n      sub\n      swap1\n      revert\n    tag_152:\n        /* \"gest.ris2.sol\":2992:3005  contreparties */\n      0x02\n        /* \"gest.ris2.sol\":2992:3020  contreparties[_portefeuille] */\n      0x00\n        /* \"gest.ris2.sol\":3006:3019  _portefeuille */\n      dup6\n        /* \"gest.ris2.sol\":2992:3020  contreparties[_portefeuille] */\n      0xffffffffffffffffffffffffffffffffffffffff\n      and\n      0xffffffffffffffffffffffffffffffffffffffff\n      and\n      dup2\n      mstore\n      0x20\n      add\n      swap1\n      dup2\n      mstore\n      0x20\n      add\n      0x00\n      keccak256\n        /* \"gest.ris2.sol\":2992:3029  contreparties[_portefeuille].estActif */\n      0x06\n      add\n      0x00\n      swap1\n      sload\n      swap1\n      0x0100\n      exp\n      swap1\n      div\n      0xff\n      and\n        /* \"gest.ris2.sol\":2991:3029  !contreparties[_portefeuille].estActif */\n      iszero\n        /* \"gest.ris2.sol\":2983:3058  require(!contreparties[_portefeuille].estActif, \"Contrepartie existe deja\") */\n      tag_155\n      jumpi\n      mload(0x40)\n      0x08c379a000000000000000000000000000000000000000000000000000000000\n      dup2\n      mstore\n      0x04\n      add\n      tag_156\n      swap1\n      tag_157\n      jump\t// in\n    tag_156:\n      mload(0x40)\n      dup1\n      swap2\n      sub\n      swap1\n      revert\n    tag_155:\n        /* \"gest.ris2.sol\":3092:3093  0 */\n      0x00\n        /* \"gest.ris2.sol\":3077:3089  _scoreCredit */\n      dup4\n        /* \"gest.ris2.sol\":3077:3093  _scoreCredit > 0 */\n      gt\n        /* \"gest.ris2.sol\":3077:3116  _scoreCredit > 0 && _scoreCredit <= 100 */\n      dup1\n      iszero\n      tag_158\n      jumpi\n      pop\n        /* \"gest.ris2.sol\":3113:3116  100 */\n      0x64\n        /* \"gest.ris2.sol\":3097:3109  _scoreCredit */\n      dup4\n        /* \"gest.ris2.sol\":3097:3116  _scoreCredit <= 100 */\n      gt\n      iszero\n        /* \"gest.ris2.sol\":3077:3116  _scoreCredit > 0 && _scoreCredit <= 100 */\n    tag_158:\n        /* \"gest.ris2.sol\":3069:3145  require(_scoreCredit > 0 && _scoreCredit <= 100, \"Score de credit invalide\") */\n      tag_159\n      jumpi\n      mload(0x40)\n      0x08c379a000000000000000000000000000000000000000000000000000000000\n      dup2\n      mstore\n      0x04\n      add\n      tag_160\n      swap1\n      tag_161\n      jump\t// in\n    tag_160:\n      mload(0x40)\n      dup1\n      swap2\n      sub\n      swap1\n      revert\n    tag_159:\n        /* \"gest.ris2.sol\":3158:3180  Contrepartie storage c */\n      0x00\n        /* \"gest.ris2.sol\":3183:3196  contreparties */\n      0x02\n        /* \"gest.ris2.sol\":3183:3211  contreparties[_portefeuille] */\n      0x00\n        /* \"gest.ris2.sol\":3197:3210  _portefeuille */\n      dup7\n        /* \"gest.ris2.sol\":3183:3211  contreparties[_portefeuille] */\n      0xffffffffffffffffffffffffffffffffffffffff\n      and\n      0xffffffffffffffffffffffffffffffffffffffff\n      and\n      dup2\n      mstore\n      0x20\n      add\n      swap1\n      dup2\n      mstore\n      0x20\n      add\n      0x00\n      keccak256\n        /* \"gest.ris2.sol\":3158:3211  Contrepartie storage c = contreparties[_portefeuille] */\n      swap1\n      pop\n        /* \"gest.ris2.sol\":3239:3252  _portefeuille */\n      dup5\n        /* \"gest.ris2.sol\":3222:3223  c */\n      dup2\n        /* \"gest.ris2.sol\":3222:3236  c.portefeuille */\n      0x00\n      add\n      0x00\n        /* \"gest.ris2.sol\":3222:3252  c.portefeuille = _portefeuille */\n      0x0100\n      exp\n      dup2\n      sload\n      dup2\n      0xffffffffffffffffffffffffffffffffffffffff\n      mul\n      not\n      and\n      swap1\n      dup4\n      0xffffffffffffffffffffffffffffffffffffffff\n      and\n      mul\n      or\n      swap1\n      sstore\n      pop\n        /* \"gest.ris2.sol\":3279:3291  _scoreCredit */\n      dup4\n        /* \"gest.ris2.sol\":3263:3264  c */\n      dup2\n        /* \"gest.ris2.sol\":3263:3276  c.scoreCredit */\n      0x01\n      add\n        /* \"gest.ris2.sol\":3263:3291  c.scoreCredit = _scoreCredit */\n      dup2\n      swap1\n      sstore\n      pop\n        /* \"gest.ris2.sol\":3323:3340  _limiteExposition */\n      dup3\n        /* \"gest.ris2.sol\":3302:3303  c */\n      dup2\n        /* \"gest.ris2.sol\":3302:3320  c.limiteExposition */\n      0x02\n      add\n        /* \"gest.ris2.sol\":3302:3340  c.limiteExposition = _limiteExposition */\n      dup2\n      swap1\n      sstore\n      pop\n        /* \"gest.ris2.sol\":3374:3375  0 */\n      0x00\n        /* \"gest.ris2.sol\":3351:3352  c */\n      dup2\n        /* \"gest.ris2.sol\":3351:3371  c.expositionCourante */\n      0x03\n      add\n        /* \"gest.ris2.sol\":3351:3375  c.expositionCourante = 0 */\n      dup2\n      swap1\n      sstore\n      pop\n        /* \"gest.ris2.sol\":3401:3412  _collateral */\n      dup2\n        /* \"gest.ris2.sol\":3386:3387  c */\n      dup2\n        /* \"gest.ris2.sol\":3386:3398  c.collateral */\n      0x04\n      add\n        /* \"gest.ris2.sol\":3386:3412  c.collateral = _collateral */\n      dup2\n      swap1\n      sstore\n      pop\n        /* \"gest.ris2.sol\":3436:3440  true */\n      0x01\n        /* \"gest.ris2.sol\":3423:3424  c */\n      dup2\n        /* \"gest.ris2.sol\":3423:3433  c.estActif */\n      0x06\n      add\n      0x00\n        /* \"gest.ris2.sol\":3423:3440  c.estActif = true */\n      0x0100\n      exp\n      dup2\n      sload\n      dup2\n      0xff\n      mul\n      not\n      and\n      swap1\n      dup4\n      iszero\n      iszero\n      mul\n      or\n      swap1\n      sstore\n      pop\n        /* \"gest.ris2.sol\":3465:3466  0 */\n      0x00\n        /* \"gest.ris2.sol\":3451:3452  c */\n      dup2\n        /* \"gest.ris2.sol\":3451:3462  c.penalites */\n      0x07\n      add\n        /* \"gest.ris2.sol\":3451:3466  c.penalites = 0 */\n      dup2\n      swap1\n      sstore\n      pop\n        /* \"gest.ris2.sol\":3490:3491  0 */\n      0x00\n        /* \"gest.ris2.sol\":3477:3478  c */\n      dup2\n        /* \"gest.ris2.sol\":3477:3487  c.garantie */\n      0x08\n      add\n        /* \"gest.ris2.sol\":3477:3491  c.garantie = 0 */\n      dup2\n      swap1\n      sstore\n      pop\n        /* \"gest.ris2.sol\":3504:3522  listeContreparties */\n      0x03\n        /* \"gest.ris2.sol\":3528:3541  _portefeuille */\n      dup6\n        /* \"gest.ris2.sol\":3504:3542  listeContreparties.push(_portefeuille) */\n      swap1\n      dup1\n      0x01\n      dup2\n      sload\n      add\n      dup1\n      dup3\n      sstore\n      dup1\n      swap2\n      pop\n      pop\n      0x01\n      swap1\n      sub\n      swap1\n      0x00\n      mstore\n      keccak256(0x00, 0x20)\n      add\n      0x00\n      swap1\n      swap2\n      swap1\n      swap2\n      swap1\n      swap2\n      0x0100\n      exp\n      dup2\n      sload\n      dup2\n      0xffffffffffffffffffffffffffffffffffffffff\n      mul\n      not\n      and\n      swap1\n      dup4\n      0xffffffffffffffffffffffffffffffffffffffff\n      and\n      mul\n      or\n      swap1\n      sstore\n      pop\n        /* \"gest.ris2.sol\":3580:3593  _portefeuille */\n      dup5\n        /* \"gest.ris2.sol\":3560:3626  ContrepartieAjoutee(_portefeuille, _limiteExposition, _collateral) */\n      0xffffffffffffffffffffffffffffffffffffffff\n      and\n      0xd3f5388c2257f37d0083b7a1edcc31b560eda57385dcd90c8429a7fb80383910\n        /* \"gest.ris2.sol\":3595:3612  _limiteExposition */\n      dup5\n        /* \"gest.ris2.sol\":3614:3625  _collateral */\n      dup5\n        /* \"gest.ris2.sol\":3560:3626  ContrepartieAjoutee(_portefeuille, _limiteExposition, _collateral) */\n      mload(0x40)\n      tag_163\n      swap3\n      swap2\n      swap1\n      tag_164\n      jump\t// in\n    tag_163:\n      mload(0x40)\n      dup1\n      swap2\n      sub\n      swap1\n      log2\n        /* \"gest.ris2.sol\":2905:3634  {... */\n      pop\n        /* \"gest.ris2.sol\":2740:3634  function ajouterContrepartie(address _portefeuille, uint256 _scoreCredit, uint256 _limiteExposition, uint256 _collateral) ... */\n      pop\n      pop\n      pop\n      pop\n      jump\t// out\n        /* \"gest.ris2.sol\":3685:3801  function getListeContreparties() public view returns (address[] memory) {... */\n    tag_41:\n        /* \"gest.ris2.sol\":3739:3755  address[] memory */\n      0x60\n        /* \"gest.ris2.sol\":3775:3793  listeContreparties */\n      0x03\n        /* \"gest.ris2.sol\":3768:3793  return listeContreparties */\n      dup1\n      sload\n      dup1\n      0x20\n      mul\n      0x20\n      add\n      mload(0x40)\n      swap1\n      dup2\n      add\n      0x40\n      mstore\n      dup1\n      swap3\n      swap2\n      swap1\n      dup2\n      dup2\n      mstore\n      0x20\n      add\n      dup3\n      dup1\n      sload\n      dup1\n      iszero\n      tag_166\n      jumpi\n      0x20\n      mul\n      dup3\n      add\n      swap2\n      swap1\n      0x00\n      mstore\n      keccak256(0x00, 0x20)\n      swap1\n    tag_167:\n      dup2\n      0x00\n      swap1\n      sload\n      swap1\n      0x0100\n      exp\n      swap1\n      div\n      0xffffffffffffffffffffffffffffffffffffffff\n      and\n      0xffffffffffffffffffffffffffffffffffffffff\n      and\n      dup2\n      mstore\n      0x20\n      add\n      swap1\n      0x01\n      add\n      swap1\n      dup1\n      dup4\n      gt\n      tag_167\n      jumpi\n    tag_166:\n      pop\n      pop\n      pop\n      pop\n      pop\n      swap1\n      pop\n        /* \"gest.ris2.sol\":3685:3801  function getListeContreparties() public view returns (address[] memory) {... */\n      swap1\n      jump\t// out\n        /* \"gest.ris2.sol\":10275:10603  function calculerRatioGarantie(address _portefeuille) ... */\n    tag_47:\n        /* \"gest.ris2.sol\":10424:10431  uint256 */\n      0x00\n        /* \"gest.ris2.sol\":10390:10403  _portefeuille */\n      dup2\n        /* \"gest.ris2.sol\":2472:2485  contreparties */\n      0x02\n        /* \"gest.ris2.sol\":2472:2500  contreparties[_portefeuille] */\n      0x00\n        /* \"gest.ris2.sol\":2486:2499  _portefeuille */\n      dup3\n        /* \"gest.ris2.sol\":2472:2500  contreparties[_portefeuille] */\n      0xffffffffffffffffffffffffffffffffffffffff\n      and\n      0xffffffffffffffffffffffffffffffffffffffff\n      and\n      dup2\n      mstore\n      0x20\n      add\n      swap1\n      dup2\n      mstore\n      0x20\n      add\n      0x00\n      keccak256\n        /* \"gest.ris2.sol\":2472:2509  contreparties[_portefeuille].estActif */\n      0x06\n      add\n      0x00\n      swap1\n      sload\n      swap1\n      0x0100\n      exp\n      swap1\n      div\n      0xff\n      and\n        /* \"gest.ris2.sol\":2464:2550  require(contreparties[_portefeuille].estActif, \"Contrepartie inactive ou inexistante\") */\n      tag_169\n      jumpi\n      mload(0x40)\n      0x08c379a000000000000000000000000000000000000000000000000000000000\n      dup2\n      mstore\n      0x04\n      add\n      tag_170\n      swap1\n      tag_129\n      jump\t// in\n    tag_170:\n      mload(0x40)\n      dup1\n      swap2\n      sub\n      swap1\n      revert\n    tag_169:\n        /* \"gest.ris2.sol\":10450:10471  Contrepartie memory c */\n      0x00\n        /* \"gest.ris2.sol\":10474:10487  contreparties */\n      0x02\n        /* \"gest.ris2.sol\":10474:10502  contreparties[_portefeuille] */\n      0x00\n        /* \"gest.ris2.sol\":10488:10501  _portefeuille */\n      dup6\n        /* \"gest.ris2.sol\":10474:10502  contreparties[_portefeuille] */\n      0xffffffffffffffffffffffffffffffffffffffff\n      and\n      0xffffffffffffffffffffffffffffffffffffffff\n      and\n      dup2\n      mstore\n      0x20\n      add\n      swap1\n      dup2\n      mstore\n      0x20\n      add\n      0x00\n      keccak256\n        /* \"gest.ris2.sol\":10450:10502  Contrepartie memory c = contreparties[_portefeuille] */\n      mload(0x40)\n      dup1\n      0x0120\n      add\n      0x40\n      mstore\n      swap1\n      dup2\n      0x00\n      dup3\n      add\n      0x00\n      swap1\n      sload\n      swap1\n      0x0100\n      exp\n      swap1\n      div\n      0xffffffffffffffffffffffffffffffffffffffff\n      and\n      0xffffffffffffffffffffffffffffffffffffffff\n      and\n      0xffffffffffffffffffffffffffffffffffffffff\n      and\n      dup2\n      mstore\n      0x20\n      add\n      0x01\n      dup3\n      add\n      sload\n      dup2\n      mstore\n      0x20\n      add\n      0x02\n      dup3\n      add\n      sload\n      dup2\n      mstore\n      0x20\n      add\n      0x03\n      dup3\n      add\n      sload\n      dup2\n      mstore\n      0x20\n      add\n      0x04\n      dup3\n      add\n      sload\n      dup2\n      mstore\n      0x20\n      add\n      0x05\n      dup3\n      add\n      dup1\n      sload\n      dup1\n      0x20\n      mul\n      0x20\n      add\n      mload(0x40)\n      swap1\n      dup2\n      add\n      0x40\n      mstore\n      dup1\n      swap3\n      swap2\n      swap1\n      dup2\n      dup2\n      mstore\n      0x20\n      add\n      0x00\n      swap1\n    tag_172:\n      dup3\n      dup3\n      lt\n      iszero\n      tag_173\n      jumpi\n      dup4\n      dup3\n      swap1\n      0x00\n      mstore\n      keccak256(0x00, 0x20)\n      swap1\n      0x04\n      mul\n      add\n      mload(0x40)\n      dup1\n      0x80\n      add\n      0x40\n      mstore\n      swap1\n      dup2\n      0x00\n      dup3\n      add\n      sload\n      dup2\n      mstore\n      0x20\n      add\n      0x01\n      dup3\n      add\n      dup1\n      sload\n      tag_175\n      swap1\n      tag_135\n      jump\t// in\n    tag_175:\n      dup1\n      0x1f\n      add\n      0x20\n      dup1\n      swap2\n      div\n      mul\n      0x20\n      add\n      mload(0x40)\n      swap1\n      dup2\n      add\n      0x40\n      mstore\n      dup1\n      swap3\n      swap2\n      swap1\n      dup2\n      dup2\n      mstore\n      0x20\n      add\n      dup3\n      dup1\n      sload\n      tag_176\n      swap1\n      tag_135\n      jump\t// in\n    tag_176:\n      dup1\n      iszero\n      tag_177\n      jumpi\n      dup1\n      0x1f\n      lt\n      tag_178\n      jumpi\n      0x0100\n      dup1\n      dup4\n      sload\n      div\n      mul\n      dup4\n      mstore\n      swap2\n      0x20\n      add\n      swap2\n      jump(tag_177)\n    tag_178:\n      dup3\n      add\n      swap2\n      swap1\n      0x00\n      mstore\n      keccak256(0x00, 0x20)\n      swap1\n    tag_179:\n      dup2\n      sload\n      dup2\n      mstore\n      swap1\n      0x01\n      add\n      swap1\n      0x20\n      add\n      dup1\n      dup4\n      gt\n      tag_179\n      jumpi\n      dup3\n      swap1\n      sub\n      0x1f\n      and\n      dup3\n      add\n      swap2\n    tag_177:\n      pop\n      pop\n      pop\n      pop\n      pop\n      dup2\n      mstore\n      0x20\n      add\n      0x02\n      dup3\n      add\n      sload\n      dup2\n      mstore\n      0x20\n      add\n      0x03\n      dup3\n      add\n      sload\n      dup2\n      mstore\n      pop\n      pop\n      dup2\n      mstore\n      0x20\n      add\n      swap1\n      0x01\n      add\n      swap1\n      jump(tag_172)\n    tag_173:\n      pop\n      pop\n      pop\n      pop\n      dup2\n      mstore\n      0x20\n      add\n      0x06\n      dup3\n      add\n      0x00\n      swap1\n      sload\n      swap1\n      0x0100\n      exp\n      swap1\n      div\n      0xff\n      and\n      iszero\n      iszero\n      iszero\n      iszero\n      dup2\n      mstore\n      0x20\n      add\n      0x07\n      dup3\n      add\n      sload\n      dup2\n      mstore\n      0x20\n      add\n      0x08\n      dup3\n      add\n      sload\n      dup2\n      mstore\n      pop\n      pop\n      swap1\n      pop\n        /* \"gest.ris2.sol\":10544:10545  0 */\n      0x00\n        /* \"gest.ris2.sol\":10520:10521  c */\n      dup2\n        /* \"gest.ris2.sol\":10520:10540  c.expositionCourante */\n      0x60\n      add\n      mload\n        /* \"gest.ris2.sol\":10520:10545  c.expositionCourante == 0 */\n      eq\n        /* \"gest.ris2.sol\":10520:10595  c.expositionCourante == 0 ? 100 : (c.garantie * 100) / c.expositionCourante */\n      tag_180\n      jumpi\n        /* \"gest.ris2.sol\":10575:10576  c */\n      dup1\n        /* \"gest.ris2.sol\":10575:10595  c.expositionCourante */\n      0x60\n      add\n      mload\n        /* \"gest.ris2.sol\":10568:10571  100 */\n      0x64\n        /* \"gest.ris2.sol\":10555:10556  c */\n      dup3\n        /* \"gest.ris2.sol\":10555:10565  c.garantie */\n      0x0100\n      add\n      mload\n        /* \"gest.ris2.sol\":10555:10571  c.garantie * 100 */\n      tag_181\n      swap2\n      swap1\n      tag_144\n      jump\t// in\n    tag_181:\n        /* \"gest.ris2.sol\":10554:10595  (c.garantie * 100) / c.expositionCourante */\n      tag_182\n      swap2\n      swap1\n      tag_146\n      jump\t// in\n    tag_182:\n        /* \"gest.ris2.sol\":10520:10595  c.expositionCourante == 0 ? 100 : (c.garantie * 100) / c.expositionCourante */\n      jump(tag_183)\n    tag_180:\n        /* \"gest.ris2.sol\":10548:10551  100 */\n      0x64\n        /* \"gest.ris2.sol\":10520:10595  c.expositionCourante == 0 ? 100 : (c.garantie * 100) / c.expositionCourante */\n    tag_183:\n        /* \"gest.ris2.sol\":10513:10595  return c.expositionCourante == 0 ? 100 : (c.garantie * 100) / c.expositionCourante */\n      swap3\n      pop\n      pop\n        /* \"gest.ris2.sol\":10275:10603  function calculerRatioGarantie(address _portefeuille) ... */\n      pop\n      swap2\n      swap1\n      pop\n      jump\t// out\n        /* \"gest.ris2.sol\":12983:13129  function obtenirHistoriqueTransactions() public view returns (EnregistrementTransaction[] memory) {... */\n    tag_51:\n        /* \"gest.ris2.sol\":13045:13079  EnregistrementTransaction[] memory */\n      0x60\n        /* \"gest.ris2.sol\":13099:13121  historiqueTransactions */\n      0x05\n        /* \"gest.ris2.sol\":13092:13121  return historiqueTransactions */\n      dup1\n      sload\n      dup1\n      0x20\n      mul\n      0x20\n      add\n      mload(0x40)\n      swap1\n      dup2\n      add\n      0x40\n      mstore\n      dup1\n      swap3\n      swap2\n      swap1\n      dup2\n      dup2\n      mstore\n      0x20\n      add\n      0x00\n      swap1\n    tag_185:\n      dup3\n      dup3\n      lt\n      iszero\n      tag_186\n      jumpi\n      dup4\n      dup3\n      swap1\n      0x00\n      mstore\n      keccak256(0x00, 0x20)\n      swap1\n      0x04\n      mul\n      add\n      mload(0x40)\n      dup1\n      0x80\n      add\n      0x40\n      mstore\n      swap1\n      dup2\n      0x00\n      dup3\n      add\n      0x00\n      swap1\n      sload\n      swap1\n      0x0100\n      exp\n      swap1\n      div\n      0xffffffffffffffffffffffffffffffffffffffff\n      and\n      0xffffffffffffffffffffffffffffffffffffffff\n      and\n      0xffffffffffffffffffffffffffffffffffffffff\n      and\n      dup2\n      mstore\n      0x20\n      add\n      0x01\n      dup3\n      add\n      0x00\n      swap1\n      sload\n      swap1\n      0x0100\n      exp\n      swap1\n      div\n      0xffffffffffffffffffffffffffffffffffffffff\n      and\n      0xffffffffffffffffffffffffffffffffffffffff\n      and\n      0xffffffffffffffffffffffffffffffffffffffff\n      and\n      dup2\n      mstore\n      0x20\n      add\n      0x02\n      dup3\n      add\n      sload\n      dup2\n      mstore\n      0x20\n      add\n      0x03\n      dup3\n      add\n      sload\n      dup2\n      mstore\n      pop\n      pop\n      dup2\n      mstore\n      0x20\n      add\n      swap1\n      0x01\n      add\n      swap1\n      jump(tag_185)\n    tag_186:\n      pop\n      pop\n      pop\n      pop\n      swap1\n      pop\n        /* \"gest.ris2.sol\":12983:13129  function obtenirHistoriqueTransactions() public view returns (EnregistrementTransaction[] memory) {... */\n      swap1\n      jump\t// out\n        /* \"gest.ris2.sol\":1240:1297  EnregistrementTransaction[] public historiqueTransactions */\n    tag_58:\n      0x05\n      dup2\n      dup2\n      sload\n      dup2\n      lt\n      tag_188\n      jumpi\n      0x00\n      dup1\n      revert\n    tag_188:\n      swap1\n      0x00\n      mstore\n      keccak256(0x00, 0x20)\n      swap1\n      0x04\n      mul\n      add\n      0x00\n      swap2\n      pop\n      swap1\n      pop\n      dup1\n      0x00\n      add\n      0x00\n      swap1\n      sload\n      swap1\n      0x0100\n      exp\n      swap1\n      div\n      0xffffffffffffffffffffffffffffffffffffffff\n      and\n      swap1\n      dup1\n      0x01\n      add\n      0x00\n      swap1\n      sload\n      swap1\n      0x0100\n      exp\n      swap1\n      div\n      0xffffffffffffffffffffffffffffffffffffffff\n      and\n      swap1\n      dup1\n      0x02\n      add\n      sload\n      swap1\n      dup1\n      0x03\n      add\n      sload\n      swap1\n      pop\n      dup5\n      jump\t// out\n        /* \"gest.ris2.sol\":3838:5109  function ajouterPosition(address _portefeuille, uint256 _montant, string memory _typePosition) ... */\n    tag_65:\n        /* \"gest.ris2.sol\":2330:2335  admin */\n      0x00\n      dup1\n      sload\n      swap1\n      0x0100\n      exp\n      swap1\n      div\n      0xffffffffffffffffffffffffffffffffffffffff\n      and\n        /* \"gest.ris2.sol\":2316:2335  msg.sender == admin */\n      0xffffffffffffffffffffffffffffffffffffffff\n      and\n        /* \"gest.ris2.sol\":2316:2326  msg.sender */\n      caller\n        /* \"gest.ris2.sol\":2316:2335  msg.sender == admin */\n      0xffffffffffffffffffffffffffffffffffffffff\n      and\n      eq\n        /* \"gest.ris2.sol\":2308:2374  require(msg.sender == admin, \"Action reservee a l'administrateur\") */\n      tag_191\n      jumpi\n      mload(0x40)\n      0x08c379a000000000000000000000000000000000000000000000000000000000\n      dup2\n      mstore\n      0x04\n      add\n      tag_192\n      swap1\n      tag_150\n      jump\t// in\n    tag_192:\n      mload(0x40)\n      dup1\n      swap2\n      sub\n      swap1\n      revert\n    tag_191:\n        /* \"gest.ris2.sol\":3999:4012  _portefeuille */\n      dup3\n        /* \"gest.ris2.sol\":2472:2485  contreparties */\n      0x02\n        /* \"gest.ris2.sol\":2472:2500  contreparties[_portefeuille] */\n      0x00\n        /* \"gest.ris2.sol\":2486:2499  _portefeuille */\n      dup3\n        /* \"gest.ris2.sol\":2472:2500  contreparties[_portefeuille] */\n      0xffffffffffffffffffffffffffffffffffffffff\n      and\n      0xffffffffffffffffffffffffffffffffffffffff\n      and\n      dup2\n      mstore\n      0x20\n      add\n      swap1\n      dup2\n      mstore\n      0x20\n      add\n      0x00\n      keccak256\n        /* \"gest.ris2.sol\":2472:2509  contreparties[_portefeuille].estActif */\n      0x06\n      add\n      0x00\n      swap1\n      sload\n      swap1\n      0x0100\n      exp\n      swap1\n      div\n      0xff\n      and\n        /* \"gest.ris2.sol\":2464:2550  require(contreparties[_portefeuille].estActif, \"Contrepartie inactive ou inexistante\") */\n      tag_194\n      jumpi\n      mload(0x40)\n      0x08c379a000000000000000000000000000000000000000000000000000000000\n      dup2\n      mstore\n      0x04\n      add\n      tag_195\n      swap1\n      tag_129\n      jump\t// in\n    tag_195:\n      mload(0x40)\n      dup1\n      swap2\n      sub\n      swap1\n      revert\n    tag_194:\n        /* \"gest.ris2.sol\":4050:4051  0 */\n      0x00\n        /* \"gest.ris2.sol\":4039:4047  _montant */\n      dup4\n        /* \"gest.ris2.sol\":4039:4051  _montant > 0 */\n      gt\n        /* \"gest.ris2.sol\":4031:4072  require(_montant > 0, \"Montant invalide\") */\n      tag_197\n      jumpi\n      mload(0x40)\n      0x08c379a000000000000000000000000000000000000000000000000000000000\n      dup2\n      mstore\n      0x04\n      add\n      tag_198\n      swap1\n      tag_199\n      jump\t// in\n    tag_198:\n      mload(0x40)\n      dup1\n      swap2\n      sub\n      swap1\n      revert\n    tag_197:\n        /* \"gest.ris2.sol\":4085:4107  Contrepartie storage c */\n      0x00\n        /* \"gest.ris2.sol\":4110:4123  contreparties */\n      0x02\n        /* \"gest.ris2.sol\":4110:4138  contreparties[_portefeuille] */\n      0x00\n        /* \"gest.ris2.sol\":4124:4137  _portefeuille */\n      dup7\n        /* \"gest.ris2.sol\":4110:4138  contreparties[_portefeuille] */\n      0xffffffffffffffffffffffffffffffffffffffff\n      and\n      0xffffffffffffffffffffffffffffffffffffffff\n      and\n      dup2\n      mstore\n      0x20\n      add\n      swap1\n      dup2\n      mstore\n      0x20\n      add\n      0x00\n      keccak256\n        /* \"gest.ris2.sol\":4085:4138  Contrepartie storage c = contreparties[_portefeuille] */\n      swap1\n      pop\n        /* \"gest.ris2.sol\":4149:4172  uint256 collateralExige */\n      0x00\n        /* \"gest.ris2.sol\":4228:4245  keccak256(\"LONG\") */\n      0x26207b3d79cb8a2f4d7984d34034720f053ed770a9f512147f4ea54e18ede2c3\n        /* \"gest.ris2.sol\":4209:4222  _typePosition */\n      dup5\n        /* \"gest.ris2.sol\":4193:4224  keccak256(bytes(_typePosition)) */\n      dup1\n      mload\n      swap1\n      0x20\n      add\n      keccak256\n        /* \"gest.ris2.sol\":4193:4245  keccak256(bytes(_typePosition)) == keccak256(\"LONG\") */\n      sub\n        /* \"gest.ris2.sol\":4189:4740  if (keccak256(bytes(_typePosition)) == keccak256(\"LONG\")) {... */\n      tag_200\n      jumpi\n        /* \"gest.ris2.sol\":4286:4294  _montant */\n      dup5\n        /* \"gest.ris2.sol\":4262:4263  c */\n      dup3\n        /* \"gest.ris2.sol\":4262:4282  c.expositionCourante */\n      0x03\n      add\n      0x00\n        /* \"gest.ris2.sol\":4262:4294  c.expositionCourante += _montant */\n      dup3\n      dup3\n      sload\n      tag_201\n      swap2\n      swap1\n      tag_202\n      jump\t// in\n    tag_201:\n      swap3\n      pop\n      pop\n      dup2\n      swap1\n      sstore\n      pop\n        /* \"gest.ris2.sol\":4189:4740  if (keccak256(bytes(_typePosition)) == keccak256(\"LONG\")) {... */\n      jump(tag_203)\n    tag_200:\n        /* \"gest.ris2.sol\":4351:4369  keccak256(\"SHORT\") */\n      0x67f2240dbdc5a5a1bba6ef58dd6499d8bcf8da14a71dffeedddc7956475ebac4\n        /* \"gest.ris2.sol\":4332:4345  _typePosition */\n      dup5\n        /* \"gest.ris2.sol\":4316:4347  keccak256(bytes(_typePosition)) */\n      dup1\n      mload\n      swap1\n      0x20\n      add\n      keccak256\n        /* \"gest.ris2.sol\":4316:4369  keccak256(bytes(_typePosition)) == keccak256(\"SHORT\") */\n      sub\n        /* \"gest.ris2.sol\":4312:4740  if (keccak256(bytes(_typePosition)) == keccak256(\"SHORT\")) {... */\n      tag_204\n      jumpi\n        /* \"gest.ris2.sol\":4437:4440  100 */\n      0x64\n        /* \"gest.ris2.sol\":4416:4433  ratioDeCouverture */\n      sload(0x01)\n        /* \"gest.ris2.sol\":4405:4413  _montant */\n      dup7\n        /* \"gest.ris2.sol\":4405:4433  _montant * ratioDeCouverture */\n      tag_205\n      swap2\n      swap1\n      tag_144\n      jump\t// in\n    tag_205:\n        /* \"gest.ris2.sol\":4404:4440  (_montant * ratioDeCouverture) / 100 */\n      tag_206\n      swap2\n      swap1\n      tag_146\n      jump\t// in\n    tag_206:\n        /* \"gest.ris2.sol\":4386:4440  collateralExige = (_montant * ratioDeCouverture) / 100 */\n      swap1\n      pop\n        /* \"gest.ris2.sol\":4479:4494  collateralExige */\n      dup1\n        /* \"gest.ris2.sol\":4463:4464  c */\n      dup3\n        /* \"gest.ris2.sol\":4463:4475  c.collateral */\n      0x04\n      add\n      sload\n        /* \"gest.ris2.sol\":4463:4494  c.collateral >= collateralExige */\n      lt\n      iszero\n        /* \"gest.ris2.sol\":4455:4541  require(c.collateral >= collateralExige, \"Collateral insuffisant pour cette position\") */\n      tag_207\n      jumpi\n      mload(0x40)\n      0x08c379a000000000000000000000000000000000000000000000000000000000\n      dup2\n      mstore\n      0x04\n      add\n      tag_208\n      swap1\n      tag_209\n      jump\t// in\n    tag_208:\n      mload(0x40)\n      dup1\n      swap2\n      sub\n      swap1\n      revert\n    tag_207:\n        /* \"gest.ris2.sol\":4574:4589  collateralExige */\n      dup1\n        /* \"gest.ris2.sol\":4558:4559  c */\n      dup3\n        /* \"gest.ris2.sol\":4558:4570  c.collateral */\n      0x04\n      add\n      0x00\n        /* \"gest.ris2.sol\":4558:4589  c.collateral -= collateralExige */\n      dup3\n      dup3\n      sload\n      tag_210\n      swap2\n      swap1\n      tag_211\n      jump\t// in\n    tag_210:\n      swap3\n      pop\n      pop\n      dup2\n      swap1\n      sstore\n      pop\n        /* \"gest.ris2.sol\":4628:4636  _montant */\n      dup5\n        /* \"gest.ris2.sol\":4604:4605  c */\n      dup3\n        /* \"gest.ris2.sol\":4604:4624  c.expositionCourante */\n      0x03\n      add\n      0x00\n        /* \"gest.ris2.sol\":4604:4636  c.expositionCourante -= _montant */\n      dup3\n      dup3\n      sload\n      tag_212\n      swap2\n      swap1\n      tag_211\n      jump\t// in\n    tag_212:\n      swap3\n      pop\n      pop\n      dup2\n      swap1\n      sstore\n      pop\n        /* \"gest.ris2.sol\":4312:4740  if (keccak256(bytes(_typePosition)) == keccak256(\"SHORT\")) {... */\n      jump(tag_213)\n    tag_204:\n        /* \"gest.ris2.sol\":4669:4728  revert(\"Type de position invalide, utiliser LONG ou SHORT\") */\n      mload(0x40)\n      0x08c379a000000000000000000000000000000000000000000000000000000000\n      dup2\n      mstore\n      0x04\n      add\n      tag_214\n      swap1\n      tag_215\n      jump\t// in\n    tag_214:\n      mload(0x40)\n      dup1\n      swap2\n      sub\n      swap1\n      revert\n        /* \"gest.ris2.sol\":4312:4740  if (keccak256(bytes(_typePosition)) == keccak256(\"SHORT\")) {... */\n    tag_213:\n        /* \"gest.ris2.sol\":4189:4740  if (keccak256(bytes(_typePosition)) == keccak256(\"LONG\")) {... */\n    tag_203:\n        /* \"gest.ris2.sol\":4752:4753  c */\n      dup2\n        /* \"gest.ris2.sol\":4752:4773  c.historiquePositions */\n      0x05\n      add\n        /* \"gest.ris2.sol\":4779:4962  Position({... */\n      mload(0x40)\n      dup1\n      0x80\n      add\n      0x40\n      mstore\n      dup1\n        /* \"gest.ris2.sol\":4812:4820  _montant */\n      dup8\n        /* \"gest.ris2.sol\":4779:4962  Position({... */\n      dup2\n      mstore\n      0x20\n      add\n        /* \"gest.ris2.sol\":4849:4862  _typePosition */\n      dup7\n        /* \"gest.ris2.sol\":4779:4962  Position({... */\n      dup2\n      mstore\n      0x20\n      add\n        /* \"gest.ris2.sol\":4888:4903  block.timestamp */\n      timestamp\n        /* \"gest.ris2.sol\":4779:4962  Position({... */\n      dup2\n      mstore\n      0x20\n      add\n        /* \"gest.ris2.sol\":4935:4950  collateralExige */\n      dup4\n        /* \"gest.ris2.sol\":4779:4962  Position({... */\n      dup2\n      mstore\n      pop\n        /* \"gest.ris2.sol\":4752:4963  c.historiquePositions.push(Position({... */\n      swap1\n      dup1\n      0x01\n      dup2\n      sload\n      add\n      dup1\n      dup3\n      sstore\n      dup1\n      swap2\n      pop\n      pop\n      0x01\n      swap1\n      sub\n      swap1\n      0x00\n      mstore\n      keccak256(0x00, 0x20)\n      swap1\n      0x04\n      mul\n      add\n      0x00\n      swap1\n      swap2\n      swap1\n      swap2\n      swap1\n      swap2\n      pop\n      0x00\n      dup3\n      add\n      mload\n      dup2\n      0x00\n      add\n      sstore\n      0x20\n      dup3\n      add\n      mload\n      dup2\n      0x01\n      add\n      swap1\n      dup2\n      tag_217\n      swap2\n      swap1\n      tag_218\n      jump\t// in\n    tag_217:\n      pop\n      0x40\n      dup3\n      add\n      mload\n      dup2\n      0x02\n      add\n      sstore\n      0x60\n      dup3\n      add\n      mload\n      dup2\n      0x03\n      add\n      sstore\n      pop\n      pop\n        /* \"gest.ris2.sol\":4976:5011  verifierDepassements(_portefeuille) */\n      tag_219\n        /* \"gest.ris2.sol\":4997:5010  _portefeuille */\n      dup7\n        /* \"gest.ris2.sol\":4976:4996  verifierDepassements */\n      tag_220\n        /* \"gest.ris2.sol\":4976:5011  verifierDepassements(_portefeuille) */\n      jump\t// in\n    tag_219:\n        /* \"gest.ris2.sol\":5045:5058  _portefeuille */\n      dup6\n        /* \"gest.ris2.sol\":5029:5101  PositionAjoutee(_portefeuille, _montant, _typePosition, collateralExige) */\n      0xffffffffffffffffffffffffffffffffffffffff\n      and\n      0x335d38fdb9fd6bf0d6a0ab22792f89a84a8f85f129736cccfc37fc757ba27705\n        /* \"gest.ris2.sol\":5060:5068  _montant */\n      dup7\n        /* \"gest.ris2.sol\":5070:5083  _typePosition */\n      dup7\n        /* \"gest.ris2.sol\":5085:5100  collateralExige */\n      dup5\n        /* \"gest.ris2.sol\":5029:5101  PositionAjoutee(_portefeuille, _montant, _typePosition, collateralExige) */\n      mload(0x40)\n      tag_221\n      swap4\n      swap3\n      swap2\n      swap1\n      tag_222\n      jump\t// in\n    tag_221:\n      mload(0x40)\n      dup1\n      swap2\n      sub\n      swap1\n      log2\n        /* \"gest.ris2.sol\":4020:5109  {... */\n      pop\n      pop\n        /* \"gest.ris2.sol\":2385:2386  _ */\n      pop\n        /* \"gest.ris2.sol\":3838:5109  function ajouterPosition(address _portefeuille, uint256 _montant, string memory _typePosition) ... */\n      pop\n      pop\n      pop\n      jump\t// out\n        /* \"gest.ris2.sol\":7502:7816  function ajouterCollateral(address _portefeuille, uint256 _montant) ... */\n    tag_70:\n        /* \"gest.ris2.sol\":2330:2335  admin */\n      0x00\n      dup1\n      sload\n      swap1\n      0x0100\n      exp\n      swap1\n      div\n      0xffffffffffffffffffffffffffffffffffffffff\n      and\n        /* \"gest.ris2.sol\":2316:2335  msg.sender == admin */\n      0xffffffffffffffffffffffffffffffffffffffff\n      and\n        /* \"gest.ris2.sol\":2316:2326  msg.sender */\n      caller\n        /* \"gest.ris2.sol\":2316:2335  msg.sender == admin */\n      0xffffffffffffffffffffffffffffffffffffffff\n      and\n      eq\n        /* \"gest.ris2.sol\":2308:2374  require(msg.sender == admin, \"Action reservee a l'administrateur\") */\n      tag_224\n      jumpi\n      mload(0x40)\n      0x08c379a000000000000000000000000000000000000000000000000000000000\n      dup2\n      mstore\n      0x04\n      add\n      tag_225\n      swap1\n      tag_150\n      jump\t// in\n    tag_225:\n      mload(0x40)\n      dup1\n      swap2\n      sub\n      swap1\n      revert\n    tag_224:\n        /* \"gest.ris2.sol\":7636:7649  _portefeuille */\n      dup2\n        /* \"gest.ris2.sol\":2472:2485  contreparties */\n      0x02\n        /* \"gest.ris2.sol\":2472:2500  contreparties[_portefeuille] */\n      0x00\n        /* \"gest.ris2.sol\":2486:2499  _portefeuille */\n      dup3\n        /* \"gest.ris2.sol\":2472:2500  contreparties[_portefeuille] */\n      0xffffffffffffffffffffffffffffffffffffffff\n      and\n      0xffffffffffffffffffffffffffffffffffffffff\n      and\n      dup2\n      mstore\n      0x20\n      add\n      swap1\n      dup2\n      mstore\n      0x20\n      add\n      0x00\n      keccak256\n        /* \"gest.ris2.sol\":2472:2509  contreparties[_portefeuille].estActif */\n      0x06\n      add\n      0x00\n      swap1\n      sload\n      swap1\n      0x0100\n      exp\n      swap1\n      div\n      0xff\n      and\n        /* \"gest.ris2.sol\":2464:2550  require(contreparties[_portefeuille].estActif, \"Contrepartie inactive ou inexistante\") */\n      tag_227\n      jumpi\n      mload(0x40)\n      0x08c379a000000000000000000000000000000000000000000000000000000000\n      dup2\n      mstore\n      0x04\n      add\n      tag_228\n      swap1\n      tag_129\n      jump\t// in\n    tag_228:\n      mload(0x40)\n      dup1\n      swap2\n      sub\n      swap1\n      revert\n    tag_227:\n        /* \"gest.ris2.sol\":7687:7688  0 */\n      0x00\n        /* \"gest.ris2.sol\":7676:7684  _montant */\n      dup3\n        /* \"gest.ris2.sol\":7676:7688  _montant > 0 */\n      gt\n        /* \"gest.ris2.sol\":7668:7709  require(_montant > 0, \"Montant invalide\") */\n      tag_230\n      jumpi\n      mload(0x40)\n      0x08c379a000000000000000000000000000000000000000000000000000000000\n      dup2\n      mstore\n      0x04\n      add\n      tag_231\n      swap1\n      tag_199\n      jump\t// in\n    tag_231:\n      mload(0x40)\n      dup1\n      swap2\n      sub\n      swap1\n      revert\n    tag_230:\n        /* \"gest.ris2.sol\":7720:7742  Contrepartie storage c */\n      0x00\n        /* \"gest.ris2.sol\":7745:7758  contreparties */\n      0x02\n        /* \"gest.ris2.sol\":7745:7773  contreparties[_portefeuille] */\n      0x00\n        /* \"gest.ris2.sol\":7759:7772  _portefeuille */\n      dup6\n        /* \"gest.ris2.sol\":7745:7773  contreparties[_portefeuille] */\n      0xffffffffffffffffffffffffffffffffffffffff\n      and\n      0xffffffffffffffffffffffffffffffffffffffff\n      and\n      dup2\n      mstore\n      0x20\n      add\n      swap1\n      dup2\n      mstore\n      0x20\n      add\n      0x00\n      keccak256\n        /* \"gest.ris2.sol\":7720:7773  Contrepartie storage c = contreparties[_portefeuille] */\n      swap1\n      pop\n        /* \"gest.ris2.sol\":7800:7808  _montant */\n      dup3\n        /* \"gest.ris2.sol\":7784:7785  c */\n      dup2\n        /* \"gest.ris2.sol\":7784:7796  c.collateral */\n      0x04\n      add\n      0x00\n        /* \"gest.ris2.sol\":7784:7808  c.collateral += _montant */\n      dup3\n      dup3\n      sload\n      tag_232\n      swap2\n      swap1\n      tag_202\n      jump\t// in\n    tag_232:\n      swap3\n      pop\n      pop\n      dup2\n      swap1\n      sstore\n      pop\n        /* \"gest.ris2.sol\":7657:7816  {... */\n      pop\n        /* \"gest.ris2.sol\":2385:2386  _ */\n      pop\n        /* \"gest.ris2.sol\":7502:7816  function ajouterCollateral(address _portefeuille, uint256 _montant) ... */\n      pop\n      pop\n      jump\t// out\n        /* \"gest.ris2.sol\":1007:1042  address[] public listeContreparties */\n    tag_74:\n      0x03\n      dup2\n      dup2\n      sload\n      dup2\n      lt\n      tag_233\n      jumpi\n      0x00\n      dup1\n      revert\n    tag_233:\n      swap1\n      0x00\n      mstore\n      keccak256(0x00, 0x20)\n      add\n      0x00\n      swap2\n      pop\n      sload\n      swap1\n      0x0100\n      exp\n      swap1\n      div\n      0xffffffffffffffffffffffffffffffffffffffff\n      and\n      dup2\n      jump\t// out\n        /* \"gest.ris2.sol\":1115:1188  mapping(address => mapping(address => int256)) public relationsExposition */\n    tag_81:\n      mstore(0x20, 0x04)\n      dup2\n      0x00\n      mstore\n      mstore(0x20, keccak256(0x00, 0x40))\n      dup1\n      0x00\n      mstore\n      keccak256(0x00, 0x40)\n      0x00\n      swap2\n      pop\n      swap2\n      pop\n      pop\n      sload\n      dup2\n      jump\t// out\n        /* \"gest.ris2.sol\":9209:9735  function actualiserGarantie(address _portefeuille, uint256 _nouvelleGarantie) ... */\n    tag_87:\n        /* \"gest.ris2.sol\":2330:2335  admin */\n      0x00\n      dup1\n      sload\n      swap1\n      0x0100\n      exp\n      swap1\n      div\n      0xffffffffffffffffffffffffffffffffffffffff\n      and\n        /* \"gest.ris2.sol\":2316:2335  msg.sender == admin */\n      0xffffffffffffffffffffffffffffffffffffffff\n      and\n        /* \"gest.ris2.sol\":2316:2326  msg.sender */\n      caller\n        /* \"gest.ris2.sol\":2316:2335  msg.sender == admin */\n      0xffffffffffffffffffffffffffffffffffffffff\n      and\n      eq\n        /* \"gest.ris2.sol\":2308:2374  require(msg.sender == admin, \"Action reservee a l'administrateur\") */\n      tag_236\n      jumpi\n      mload(0x40)\n      0x08c379a000000000000000000000000000000000000000000000000000000000\n      dup2\n      mstore\n      0x04\n      add\n      tag_237\n      swap1\n      tag_150\n      jump\t// in\n    tag_237:\n      mload(0x40)\n      dup1\n      swap2\n      sub\n      swap1\n      revert\n    tag_236:\n        /* \"gest.ris2.sol\":9353:9366  _portefeuille */\n      dup2\n        /* \"gest.ris2.sol\":2472:2485  contreparties */\n      0x02\n        /* \"gest.ris2.sol\":2472:2500  contreparties[_portefeuille] */\n      0x00\n        /* \"gest.ris2.sol\":2486:2499  _portefeuille */\n      dup3\n        /* \"gest.ris2.sol\":2472:2500  contreparties[_portefeuille] */\n      0xffffffffffffffffffffffffffffffffffffffff\n      and\n      0xffffffffffffffffffffffffffffffffffffffff\n      and\n      dup2\n      mstore\n      0x20\n      add\n      swap1\n      dup2\n      mstore\n      0x20\n      add\n      0x00\n      keccak256\n        /* \"gest.ris2.sol\":2472:2509  contreparties[_portefeuille].estActif */\n      0x06\n      add\n      0x00\n      swap1\n      sload\n      swap1\n      0x0100\n      exp\n      swap1\n      div\n      0xff\n      and\n        /* \"gest.ris2.sol\":2464:2550  require(contreparties[_portefeuille].estActif, \"Contrepartie inactive ou inexistante\") */\n      tag_239\n      jumpi\n      mload(0x40)\n      0x08c379a000000000000000000000000000000000000000000000000000000000\n      dup2\n      mstore\n      0x04\n      add\n      tag_240\n      swap1\n      tag_129\n      jump\t// in\n    tag_240:\n      mload(0x40)\n      dup1\n      swap2\n      sub\n      swap1\n      revert\n    tag_239:\n        /* \"gest.ris2.sol\":9413:9414  0 */\n      0x00\n        /* \"gest.ris2.sol\":9393:9410  _nouvelleGarantie */\n      dup3\n        /* \"gest.ris2.sol\":9393:9414  _nouvelleGarantie > 0 */\n      gt\n        /* \"gest.ris2.sol\":9385:9436  require(_nouvelleGarantie > 0, \"Garantie invalide\") */\n      tag_242\n      jumpi\n      mload(0x40)\n      0x08c379a000000000000000000000000000000000000000000000000000000000\n      dup2\n      mstore\n      0x04\n      add\n      tag_243\n      swap1\n      tag_244\n      jump\t// in\n    tag_243:\n      mload(0x40)\n      dup1\n      swap2\n      sub\n      swap1\n      revert\n    tag_242:\n        /* \"gest.ris2.sol\":9447:9469  Contrepartie storage c */\n      0x00\n        /* \"gest.ris2.sol\":9472:9485  contreparties */\n      0x02\n        /* \"gest.ris2.sol\":9472:9500  contreparties[_portefeuille] */\n      0x00\n        /* \"gest.ris2.sol\":9486:9499  _portefeuille */\n      dup6\n        /* \"gest.ris2.sol\":9472:9500  contreparties[_portefeuille] */\n      0xffffffffffffffffffffffffffffffffffffffff\n      and\n      0xffffffffffffffffffffffffffffffffffffffff\n      and\n      dup2\n      mstore\n      0x20\n      add\n      swap1\n      dup2\n      mstore\n      0x20\n      add\n      0x00\n      keccak256\n        /* \"gest.ris2.sol\":9447:9500  Contrepartie storage c = contreparties[_portefeuille] */\n      swap1\n      pop\n        /* \"gest.ris2.sol\":9524:9541  _nouvelleGarantie */\n      dup3\n        /* \"gest.ris2.sol\":9511:9512  c */\n      dup2\n        /* \"gest.ris2.sol\":9511:9521  c.garantie */\n      0x08\n      add\n        /* \"gest.ris2.sol\":9511:9541  c.garantie = _nouvelleGarantie */\n      dup2\n      swap1\n      sstore\n      pop\n        /* \"gest.ris2.sol\":9577:9590  _portefeuille */\n      dup4\n        /* \"gest.ris2.sol\":9559:9610  MiseAJourGarantie(_portefeuille, _nouvelleGarantie) */\n      0xffffffffffffffffffffffffffffffffffffffff\n      and\n      0xc48037e64131a272fc64519b607e8437c9411eada1fa2812e0e485e929a7f9bd\n        /* \"gest.ris2.sol\":9592:9609  _nouvelleGarantie */\n      dup5\n        /* \"gest.ris2.sol\":9559:9610  MiseAJourGarantie(_portefeuille, _nouvelleGarantie) */\n      mload(0x40)\n      tag_245\n      swap2\n      swap1\n      tag_33\n      jump\t// in\n    tag_245:\n      mload(0x40)\n      dup1\n      swap2\n      sub\n      swap1\n      log2\n        /* \"gest.ris2.sol\":9692:9727  verifierDepassements(_portefeuille) */\n      tag_246\n        /* \"gest.ris2.sol\":9713:9726  _portefeuille */\n      dup5\n        /* \"gest.ris2.sol\":9692:9712  verifierDepassements */\n      tag_220\n        /* \"gest.ris2.sol\":9692:9727  verifierDepassements(_portefeuille) */\n      jump\t// in\n    tag_246:\n        /* \"gest.ris2.sol\":9374:9735  {... */\n      pop\n        /* \"gest.ris2.sol\":2385:2386  _ */\n      pop\n        /* \"gest.ris2.sol\":9209:9735  function actualiserGarantie(address _portefeuille, uint256 _nouvelleGarantie) ... */\n      pop\n      pop\n      jump\t// out\n        /* \"gest.ris2.sol\":947:1000  mapping(address => Contrepartie) public contreparties */\n    tag_91:\n      mstore(0x20, 0x02)\n      dup1\n      0x00\n      mstore\n      keccak256(0x00, 0x40)\n      0x00\n      swap2\n      pop\n      swap1\n      pop\n      dup1\n      0x00\n      add\n      0x00\n      swap1\n      sload\n      swap1\n      0x0100\n      exp\n      swap1\n      div\n      0xffffffffffffffffffffffffffffffffffffffff\n      and\n      swap1\n      dup1\n      0x01\n      add\n      sload\n      swap1\n      dup1\n      0x02\n      add\n      sload\n      swap1\n      dup1\n      0x03\n      add\n      sload\n      swap1\n      dup1\n      0x04\n      add\n      sload\n      swap1\n      dup1\n      0x06\n      add\n      0x00\n      swap1\n      sload\n      swap1\n      0x0100\n      exp\n      swap1\n      div\n      0xff\n      and\n      swap1\n      dup1\n      0x07\n      add\n      sload\n      swap1\n      dup1\n      0x08\n      add\n      sload\n      swap1\n      pop\n      dup9\n      jump\t// out\n        /* \"gest.ris2.sol\":858:896  uint256 public ratioDeCouverture = 120 */\n    tag_96:\n      sload(0x01)\n      dup2\n      jump\t// out\n        /* \"gest.ris2.sol\":9827:10229  function calculerRisque(address _portefeuille) ... */\n    tag_101:\n        /* \"gest.ris2.sol\":9969:9976  uint256 */\n      0x00\n        /* \"gest.ris2.sol\":9935:9948  _portefeuille */\n      dup2\n        /* \"gest.ris2.sol\":2472:2485  contreparties */\n      0x02\n        /* \"gest.ris2.sol\":2472:2500  contreparties[_portefeuille] */\n      0x00\n        /* \"gest.ris2.sol\":2486:2499  _portefeuille */\n      dup3\n        /* \"gest.ris2.sol\":2472:2500  contreparties[_portefeuille] */\n      0xffffffffffffffffffffffffffffffffffffffff\n      and\n      0xffffffffffffffffffffffffffffffffffffffff\n      and\n      dup2\n      mstore\n      0x20\n      add\n      swap1\n      dup2\n      mstore\n      0x20\n      add\n      0x00\n      keccak256\n        /* \"gest.ris2.sol\":2472:2509  contreparties[_portefeuille].estActif */\n      0x06\n      add\n      0x00\n      swap1\n      sload\n      swap1\n      0x0100\n      exp\n      swap1\n      div\n      0xff\n      and\n        /* \"gest.ris2.sol\":2464:2550  require(contreparties[_portefeuille].estActif, \"Contrepartie inactive ou inexistante\") */\n      tag_248\n      jumpi\n      mload(0x40)\n      0x08c379a000000000000000000000000000000000000000000000000000000000\n      dup2\n      mstore\n      0x04\n      add\n      tag_249\n      swap1\n      tag_129\n      jump\t// in\n    tag_249:\n      mload(0x40)\n      dup1\n      swap2\n      sub\n      swap1\n      revert\n    tag_248:\n        /* \"gest.ris2.sol\":9995:10016  Contrepartie memory c */\n      0x00\n        /* \"gest.ris2.sol\":10019:10032  contreparties */\n      0x02\n        /* \"gest.ris2.sol\":10019:10047  contreparties[_portefeuille] */\n      0x00\n        /* \"gest.ris2.sol\":10033:10046  _portefeuille */\n      dup6\n        /* \"gest.ris2.sol\":10019:10047  contreparties[_portefeuille] */\n      0xffffffffffffffffffffffffffffffffffffffff\n      and\n      0xffffffffffffffffffffffffffffffffffffffff\n      and\n      dup2\n      mstore\n      0x20\n      add\n      swap1\n      dup2\n      mstore\n      0x20\n      add\n      0x00\n      keccak256\n        /* \"gest.ris2.sol\":9995:10047  Contrepartie memory c = contreparties[_portefeuille] */\n      mload(0x40)\n      dup1\n      0x0120\n      add\n      0x40\n      mstore\n      swap1\n      dup2\n      0x00\n      dup3\n      add\n      0x00\n      swap1\n      sload\n      swap1\n      0x0100\n      exp\n      swap1\n      div\n      0xffffffffffffffffffffffffffffffffffffffff\n      and\n      0xffffffffffffffffffffffffffffffffffffffff\n      and\n      0xffffffffffffffffffffffffffffffffffffffff\n      and\n      dup2\n      mstore\n      0x20\n      add\n      0x01\n      dup3\n      add\n      sload\n      dup2\n      mstore\n      0x20\n      add\n      0x02\n      dup3\n      add\n      sload\n      dup2\n      mstore\n      0x20\n      add\n      0x03\n      dup3\n      add\n      sload\n      dup2\n      mstore\n      0x20\n      add\n      0x04\n      dup3\n      add\n      sload\n      dup2\n      mstore\n      0x20\n      add\n      0x05\n      dup3\n      add\n      dup1\n      sload\n      dup1\n      0x20\n      mul\n      0x20\n      add\n      mload(0x40)\n      swap1\n      dup2\n      add\n      0x40\n      mstore\n      dup1\n      swap3\n      swap2\n      swap1\n      dup2\n      dup2\n      mstore\n      0x20\n      add\n      0x00\n      swap1\n    tag_251:\n      dup3\n      dup3\n      lt\n      iszero\n      tag_252\n      jumpi\n      dup4\n      dup3\n      swap1\n      0x00\n      mstore\n      keccak256(0x00, 0x20)\n      swap1\n      0x04\n      mul\n      add\n      mload(0x40)\n      dup1\n      0x80\n      add\n      0x40\n      mstore\n      swap1\n      dup2\n      0x00\n      dup3\n      add\n      sload\n      dup2\n      mstore\n      0x20\n      add\n      0x01\n      dup3\n      add\n      dup1\n      sload\n      tag_254\n      swap1\n      tag_135\n      jump\t// in\n    tag_254:\n      dup1\n      0x1f\n      add\n      0x20\n      dup1\n      swap2\n      div\n      mul\n      0x20\n      add\n      mload(0x40)\n      swap1\n      dup2\n      add\n      0x40\n      mstore\n      dup1\n      swap3\n      swap2\n      swap1\n      dup2\n      dup2\n      mstore\n      0x20\n      add\n      dup3\n      dup1\n      sload\n      tag_255\n      swap1\n      tag_135\n      jump\t// in\n    tag_255:\n      dup1\n      iszero\n      tag_256\n      jumpi\n      dup1\n      0x1f\n      lt\n      tag_257\n      jumpi\n      0x0100\n      dup1\n      dup4\n      sload\n      div\n      mul\n      dup4\n      mstore\n      swap2\n      0x20\n      add\n      swap2\n      jump(tag_256)\n    tag_257:\n      dup3\n      add\n      swap2\n      swap1\n      0x00\n      mstore\n      keccak256(0x00, 0x20)\n      swap1\n    tag_258:\n      dup2\n      sload\n      dup2\n      mstore\n      swap1\n      0x01\n      add\n      swap1\n      0x20\n      add\n      dup1\n      dup4\n      gt\n      tag_258\n      jumpi\n      dup3\n      swap1\n      sub\n      0x1f\n      and\n      dup3\n      add\n      swap2\n    tag_256:\n      pop\n      pop\n      pop\n      pop\n      pop\n      dup2\n      mstore\n      0x20\n      add\n      0x02\n      dup3\n      add\n      sload\n      dup2\n      mstore\n      0x20\n      add\n      0x03\n      dup3\n      add\n      sload\n      dup2\n      mstore\n      pop\n      pop\n      dup2\n      mstore\n      0x20\n      add\n      swap1\n      0x01\n      add\n      swap1\n      jump(tag_251)\n    tag_252:\n      pop\n      pop\n      pop\n      pop\n      dup2\n      mstore\n      0x20\n      add\n      0x06\n      dup3\n      add\n      0x00\n      swap1\n      sload\n      swap1\n      0x0100\n      exp\n      swap1\n      div\n      0xff\n      and\n      iszero\n      iszero\n      iszero\n      iszero\n      dup2\n      mstore\n      0x20\n      add\n      0x07\n      dup3\n      add\n      sload\n      dup2\n      mstore\n      0x20\n      add\n      0x08\n      dup3\n      add\n      sload\n      dup2\n      mstore\n      pop\n      pop\n      swap1\n      pop\n        /* \"gest.ris2.sol\":10087:10088  0 */\n      0x00\n        /* \"gest.ris2.sol\":10066:10067  c */\n      dup2\n        /* \"gest.ris2.sol\":10066:10084  c.limiteExposition */\n      0x40\n      add\n      mload\n        /* \"gest.ris2.sol\":10066:10088  c.limiteExposition > 0 */\n      gt\n        /* \"gest.ris2.sol\":10066:10109  c.limiteExposition > 0 && c.scoreCredit > 0 */\n      dup1\n      iszero\n      tag_259\n      jumpi\n      pop\n        /* \"gest.ris2.sol\":10108:10109  0 */\n      0x00\n        /* \"gest.ris2.sol\":10092:10093  c */\n      dup2\n        /* \"gest.ris2.sol\":10092:10105  c.scoreCredit */\n      0x20\n      add\n      mload\n        /* \"gest.ris2.sol\":10092:10109  c.scoreCredit > 0 */\n      gt\n        /* \"gest.ris2.sol\":10066:10109  c.limiteExposition > 0 && c.scoreCredit > 0 */\n    tag_259:\n        /* \"gest.ris2.sol\":10058:10134  require(c.limiteExposition > 0 && c.scoreCredit > 0, \"Parametres invalides\") */\n      tag_260\n      jumpi\n      mload(0x40)\n      0x08c379a000000000000000000000000000000000000000000000000000000000\n      dup2\n      mstore\n      0x04\n      add\n      tag_261\n      swap1\n      tag_262\n      jump\t// in\n    tag_261:\n      mload(0x40)\n      dup1\n      swap2\n      sub\n      swap1\n      revert\n    tag_260:\n        /* \"gest.ris2.sol\":10207:10208  c */\n      dup1\n        /* \"gest.ris2.sol\":10207:10220  c.scoreCredit */\n      0x20\n      add\n      mload\n        /* \"gest.ris2.sol\":10186:10187  c */\n      dup2\n        /* \"gest.ris2.sol\":10186:10204  c.limiteExposition */\n      0x40\n      add\n      mload\n        /* \"gest.ris2.sol\":10186:10220  c.limiteExposition * c.scoreCredit */\n      tag_263\n      swap2\n      swap1\n      tag_144\n      jump\t// in\n    tag_263:\n        /* \"gest.ris2.sol\":10176:10181  10000 */\n      0x2710\n        /* \"gest.ris2.sol\":10153:10154  c */\n      dup3\n        /* \"gest.ris2.sol\":10153:10173  c.expositionCourante */\n      0x60\n      add\n      mload\n        /* \"gest.ris2.sol\":10153:10181  c.expositionCourante * 10000 */\n      tag_264\n      swap2\n      swap1\n      tag_144\n      jump\t// in\n    tag_264:\n        /* \"gest.ris2.sol\":10152:10221  (c.expositionCourante * 10000) / (c.limiteExposition * c.scoreCredit) */\n      tag_265\n      swap2\n      swap1\n      tag_146\n      jump\t// in\n    tag_265:\n        /* \"gest.ris2.sol\":10145:10221  return (c.expositionCourante * 10000) / (c.limiteExposition * c.scoreCredit) */\n      swap3\n      pop\n      pop\n        /* \"gest.ris2.sol\":9827:10229  function calculerRisque(address _portefeuille) ... */\n      pop\n      swap2\n      swap1\n      pop\n      jump\t// out\n        /* \"gest.ris2.sol\":10695:11429  function envoyerFonds(address payable _recepteur, uint256 _montant) ... */\n    tag_107:\n        /* \"gest.ris2.sol\":2330:2335  admin */\n      0x00\n      dup1\n      sload\n      swap1\n      0x0100\n      exp\n      swap1\n      div\n      0xffffffffffffffffffffffffffffffffffffffff\n      and\n        /* \"gest.ris2.sol\":2316:2335  msg.sender == admin */\n      0xffffffffffffffffffffffffffffffffffffffff\n      and\n        /* \"gest.ris2.sol\":2316:2326  msg.sender */\n      caller\n        /* \"gest.ris2.sol\":2316:2335  msg.sender == admin */\n      0xffffffffffffffffffffffffffffffffffffffff\n      and\n      eq\n        /* \"gest.ris2.sol\":2308:2374  require(msg.sender == admin, \"Action reservee a l'administrateur\") */\n      tag_267\n      jumpi\n      mload(0x40)\n      0x08c379a000000000000000000000000000000000000000000000000000000000\n      dup2\n      mstore\n      0x04\n      add\n      tag_268\n      swap1\n      tag_150\n      jump\t// in\n    tag_268:\n      mload(0x40)\n      dup1\n      swap2\n      sub\n      swap1\n      revert\n    tag_267:\n        /* \"gest.ris2.sol\":10829:10839  msg.sender */\n      caller\n        /* \"gest.ris2.sol\":2472:2485  contreparties */\n      0x02\n        /* \"gest.ris2.sol\":2472:2500  contreparties[_portefeuille] */\n      0x00\n        /* \"gest.ris2.sol\":2486:2499  _portefeuille */\n      dup3\n        /* \"gest.ris2.sol\":2472:2500  contreparties[_portefeuille] */\n      0xffffffffffffffffffffffffffffffffffffffff\n      and\n      0xffffffffffffffffffffffffffffffffffffffff\n      and\n      dup2\n      mstore\n      0x20\n      add\n      swap1\n      dup2\n      mstore\n      0x20\n      add\n      0x00\n      keccak256\n        /* \"gest.ris2.sol\":2472:2509  contreparties[_portefeuille].estActif */\n      0x06\n      add\n      0x00\n      swap1\n      sload\n      swap1\n      0x0100\n      exp\n      swap1\n      div\n      0xff\n      and\n        /* \"gest.ris2.sol\":2464:2550  require(contreparties[_portefeuille].estActif, \"Contrepartie inactive ou inexistante\") */\n      tag_270\n      jumpi\n      mload(0x40)\n      0x08c379a000000000000000000000000000000000000000000000000000000000\n      dup2\n      mstore\n      0x04\n      add\n      tag_271\n      swap1\n      tag_129\n      jump\t// in\n    tag_271:\n      mload(0x40)\n      dup1\n      swap2\n      sub\n      swap1\n      revert\n    tag_270:\n        /* \"gest.ris2.sol\":10870:10880  _recepteur */\n      dup3\n        /* \"gest.ris2.sol\":2472:2485  contreparties */\n      0x02\n        /* \"gest.ris2.sol\":2472:2500  contreparties[_portefeuille] */\n      0x00\n        /* \"gest.ris2.sol\":2486:2499  _portefeuille */\n      dup3\n        /* \"gest.ris2.sol\":2472:2500  contreparties[_portefeuille] */\n      0xffffffffffffffffffffffffffffffffffffffff\n      and\n      0xffffffffffffffffffffffffffffffffffffffff\n      and\n      dup2\n      mstore\n      0x20\n      add\n      swap1\n      dup2\n      mstore\n      0x20\n      add\n      0x00\n      keccak256\n        /* \"gest.ris2.sol\":2472:2509  contreparties[_portefeuille].estActif */\n      0x06\n      add\n      0x00\n      swap1\n      sload\n      swap1\n      0x0100\n      exp\n      swap1\n      div\n      0xff\n      and\n        /* \"gest.ris2.sol\":2464:2550  require(contreparties[_portefeuille].estActif, \"Contrepartie inactive ou inexistante\") */\n      tag_273\n      jumpi\n      mload(0x40)\n      0x08c379a000000000000000000000000000000000000000000000000000000000\n      dup2\n      mstore\n      0x04\n      add\n      tag_274\n      swap1\n      tag_129\n      jump\t// in\n    tag_274:\n      mload(0x40)\n      dup1\n      swap2\n      sub\n      swap1\n      revert\n    tag_273:\n        /* \"gest.ris2.sol\":10929:10930  0 */\n      0x00\n        /* \"gest.ris2.sol\":10907:10931  _recepteur != address(0) */\n      0xffffffffffffffffffffffffffffffffffffffff\n      and\n        /* \"gest.ris2.sol\":10907:10917  _recepteur */\n      dup5\n        /* \"gest.ris2.sol\":10907:10931  _recepteur != address(0) */\n      0xffffffffffffffffffffffffffffffffffffffff\n      and\n      sub\n        /* \"gest.ris2.sol\":10899:10962  require(_recepteur != address(0), \"Adresse recepteur invalide\") */\n      tag_276\n      jumpi\n      mload(0x40)\n      0x08c379a000000000000000000000000000000000000000000000000000000000\n      dup2\n      mstore\n      0x04\n      add\n      tag_277\n      swap1\n      tag_278\n      jump\t// in\n    tag_277:\n      mload(0x40)\n      dup1\n      swap2\n      sub\n      swap1\n      revert\n    tag_276:\n        /* \"gest.ris2.sol\":10992:10993  0 */\n      0x00\n        /* \"gest.ris2.sol\":10981:10989  _montant */\n      dup4\n        /* \"gest.ris2.sol\":10981:10993  _montant > 0 */\n      gt\n        /* \"gest.ris2.sol\":10973:11014  require(_montant > 0, \"Montant invalide\") */\n      tag_279\n      jumpi\n      mload(0x40)\n      0x08c379a000000000000000000000000000000000000000000000000000000000\n      dup2\n      mstore\n      0x04\n      add\n      tag_280\n      swap1\n      tag_199\n      jump\t// in\n    tag_280:\n      mload(0x40)\n      dup1\n      swap2\n      sub\n      swap1\n      revert\n    tag_279:\n        /* \"gest.ris2.sol\":11058:11066  _montant */\n      dup3\n        /* \"gest.ris2.sol\":11033:11054  address(this).balance */\n      selfbalance\n        /* \"gest.ris2.sol\":11033:11066  address(this).balance >= _montant */\n      lt\n      iszero\n        /* \"gest.ris2.sol\":11025:11104  require(address(this).balance >= _montant, \"Solde insuffisant dans le contrat\") */\n      tag_281\n      jumpi\n      mload(0x40)\n      0x08c379a000000000000000000000000000000000000000000000000000000000\n      dup2\n      mstore\n      0x04\n      add\n      tag_282\n      swap1\n      tag_283\n      jump\t// in\n    tag_282:\n      mload(0x40)\n      dup1\n      swap2\n      sub\n      swap1\n      revert\n    tag_281:\n        /* \"gest.ris2.sol\":11152:11164  bool success */\n      0x00\n        /* \"gest.ris2.sol\":11170:11180  _recepteur */\n      dup5\n        /* \"gest.ris2.sol\":11170:11185  _recepteur.call */\n      0xffffffffffffffffffffffffffffffffffffffff\n      and\n        /* \"gest.ris2.sol\":11193:11201  _montant */\n      dup5\n        /* \"gest.ris2.sol\":11170:11206  _recepteur.call{value: _montant}(\"\") */\n      mload(0x40)\n      tag_284\n      swap1\n      tag_285\n      jump\t// in\n    tag_284:\n      0x00\n      mload(0x40)\n      dup1\n      dup4\n      sub\n      dup2\n      dup6\n      dup8\n      gas\n      call\n      swap3\n      pop\n      pop\n      pop\n      returndatasize\n      dup1\n      0x00\n      dup2\n      eq\n      tag_288\n      jumpi\n      mload(0x40)\n      swap2\n      pop\n      and(add(returndatasize, 0x3f), not(0x1f))\n      dup3\n      add\n      0x40\n      mstore\n      returndatasize\n      dup3\n      mstore\n      returndatasize\n      0x00\n      0x20\n      dup5\n      add\n      returndatacopy\n      jump(tag_287)\n    tag_288:\n      0x60\n      swap2\n      pop\n    tag_287:\n      pop\n        /* \"gest.ris2.sol\":11151:11206  (bool success, ) = _recepteur.call{value: _montant}(\"\") */\n      pop\n      swap1\n      pop\n        /* \"gest.ris2.sol\":11225:11232  success */\n      dup1\n        /* \"gest.ris2.sol\":11217:11253  require(success, \"Transfert echoue\") */\n      tag_289\n      jumpi\n      mload(0x40)\n      0x08c379a000000000000000000000000000000000000000000000000000000000\n      dup2\n      mstore\n      0x04\n      add\n      tag_290\n      swap1\n      tag_291\n      jump\t// in\n    tag_290:\n      mload(0x40)\n      dup1\n      swap2\n      sub\n      swap1\n      revert\n    tag_289:\n        /* \"gest.ris2.sol\":11305:11357  enregistrerTransaction(_recepteur, int256(_montant)) */\n      tag_292\n        /* \"gest.ris2.sol\":11328:11338  _recepteur */\n      dup6\n        /* \"gest.ris2.sol\":11347:11355  _montant */\n      dup6\n        /* \"gest.ris2.sol\":11305:11327  enregistrerTransaction */\n      tag_117\n        /* \"gest.ris2.sol\":11305:11357  enregistrerTransaction(_recepteur, int256(_montant)) */\n      jump\t// in\n    tag_292:\n        /* \"gest.ris2.sol\":11400:11410  _recepteur */\n      dup5\n        /* \"gest.ris2.sol\":11375:11421  FondsEnvoyes(msg.sender, _recepteur, _montant) */\n      0xffffffffffffffffffffffffffffffffffffffff\n      and\n        /* \"gest.ris2.sol\":11388:11398  msg.sender */\n      caller\n        /* \"gest.ris2.sol\":11375:11421  FondsEnvoyes(msg.sender, _recepteur, _montant) */\n      0xffffffffffffffffffffffffffffffffffffffff\n      and\n      0x4a483e394b1a63344e9ece42158df72d97f323f6f3c8804cf138794e8d430af8\n        /* \"gest.ris2.sol\":11412:11420  _montant */\n      dup7\n        /* \"gest.ris2.sol\":11375:11421  FondsEnvoyes(msg.sender, _recepteur, _montant) */\n      mload(0x40)\n      tag_293\n      swap2\n      swap1\n      tag_33\n      jump\t// in\n    tag_293:\n      mload(0x40)\n      dup1\n      swap2\n      sub\n      swap1\n      log3\n        /* \"gest.ris2.sol\":10888:11429  {... */\n      pop\n        /* \"gest.ris2.sol\":2561:2562  _ */\n      pop\n        /* \"gest.ris2.sol\":2385:2386  _ */\n      pop\n        /* \"gest.ris2.sol\":10695:11429  function envoyerFonds(address payable _recepteur, uint256 _montant) ... */\n      pop\n      pop\n      jump\t// out\n        /* \"gest.ris2.sol\":6793:7464  function calculerExpositionNette(address _portefeuille) ... */\n    tag_111:\n        /* \"gest.ris2.sol\":6944:6950  int256 */\n      0x00\n        /* \"gest.ris2.sol\":6910:6923  _portefeuille */\n      dup2\n        /* \"gest.ris2.sol\":2472:2485  contreparties */\n      0x02\n        /* \"gest.ris2.sol\":2472:2500  contreparties[_portefeuille] */\n      0x00\n        /* \"gest.ris2.sol\":2486:2499  _portefeuille */\n      dup3\n        /* \"gest.ris2.sol\":2472:2500  contreparties[_portefeuille] */\n      0xffffffffffffffffffffffffffffffffffffffff\n      and\n      0xffffffffffffffffffffffffffffffffffffffff\n      and\n      dup2\n      mstore\n      0x20\n      add\n      swap1\n      dup2\n      mstore\n      0x20\n      add\n      0x00\n      keccak256\n        /* \"gest.ris2.sol\":2472:2509  contreparties[_portefeuille].estActif */\n      0x06\n      add\n      0x00\n      swap1\n      sload\n      swap1\n      0x0100\n      exp\n      swap1\n      div\n      0xff\n      and\n        /* \"gest.ris2.sol\":2464:2550  require(contreparties[_portefeuille].estActif, \"Contrepartie inactive ou inexistante\") */\n      tag_295\n      jumpi\n      mload(0x40)\n      0x08c379a000000000000000000000000000000000000000000000000000000000\n      dup2\n      mstore\n      0x04\n      add\n      tag_296\n      swap1\n      tag_129\n      jump\t// in\n    tag_296:\n      mload(0x40)\n      dup1\n      swap2\n      sub\n      swap1\n      revert\n    tag_295:\n        /* \"gest.ris2.sol\":6969:6990  Contrepartie memory c */\n      0x00\n        /* \"gest.ris2.sol\":6993:7006  contreparties */\n      0x02\n        /* \"gest.ris2.sol\":6993:7021  contreparties[_portefeuille] */\n      0x00\n        /* \"gest.ris2.sol\":7007:7020  _portefeuille */\n      dup6\n        /* \"gest.ris2.sol\":6993:7021  contreparties[_portefeuille] */\n      0xffffffffffffffffffffffffffffffffffffffff\n      and\n      0xffffffffffffffffffffffffffffffffffffffff\n      and\n      dup2\n      mstore\n      0x20\n      add\n      swap1\n      dup2\n      mstore\n      0x20\n      add\n      0x00\n      keccak256\n        /* \"gest.ris2.sol\":6969:7021  Contrepartie memory c = contreparties[_portefeuille] */\n      mload(0x40)\n      dup1\n      0x0120\n      add\n      0x40\n      mstore\n      swap1\n      dup2\n      0x00\n      dup3\n      add\n      0x00\n      swap1\n      sload\n      swap1\n      0x0100\n      exp\n      swap1\n      div\n      0xffffffffffffffffffffffffffffffffffffffff\n      and\n      0xffffffffffffffffffffffffffffffffffffffff\n      and\n      0xffffffffffffffffffffffffffffffffffffffff\n      and\n      dup2\n      mstore\n      0x20\n      add\n      0x01\n      dup3\n      add\n      sload\n      dup2\n      mstore\n      0x20\n      add\n      0x02\n      dup3\n      add\n      sload\n      dup2\n      mstore\n      0x20\n      add\n      0x03\n      dup3\n      add\n      sload\n      dup2\n      mstore\n      0x20\n      add\n      0x04\n      dup3\n      add\n      sload\n      dup2\n      mstore\n      0x20\n      add\n      0x05\n      dup3\n      add\n      dup1\n      sload\n      dup1\n      0x20\n      mul\n      0x20\n      add\n      mload(0x40)\n      swap1\n      dup2\n      add\n      0x40\n      mstore\n      dup1\n      swap3\n      swap2\n      swap1\n      dup2\n      dup2\n      mstore\n      0x20\n      add\n      0x00\n      swap1\n    tag_298:\n      dup3\n      dup3\n      lt\n      iszero\n      tag_299\n      jumpi\n      dup4\n      dup3\n      swap1\n      0x00\n      mstore\n      keccak256(0x00, 0x20)\n      swap1\n      0x04\n      mul\n      add\n      mload(0x40)\n      dup1\n      0x80\n      add\n      0x40\n      mstore\n      swap1\n      dup2\n      0x00\n      dup3\n      add\n      sload\n      dup2\n      mstore\n      0x20\n      add\n      0x01\n      dup3\n      add\n      dup1\n      sload\n      tag_301\n      swap1\n      tag_135\n      jump\t// in\n    tag_301:\n      dup1\n      0x1f\n      add\n      0x20\n      dup1\n      swap2\n      div\n      mul\n      0x20\n      add\n      mload(0x40)\n      swap1\n      dup2\n      add\n      0x40\n      mstore\n      dup1\n      swap3\n      swap2\n      swap1\n      dup2\n      dup2\n      mstore\n      0x20\n      add\n      dup3\n      dup1\n      sload\n      tag_302\n      swap1\n      tag_135\n      jump\t// in\n    tag_302:\n      dup1\n      iszero\n      tag_303\n      jumpi\n      dup1\n      0x1f\n      lt\n      tag_304\n      jumpi\n      0x0100\n      dup1\n      dup4\n      sload\n      div\n      mul\n      dup4\n      mstore\n      swap2\n      0x20\n      add\n      swap2\n      jump(tag_303)\n    tag_304:\n      dup3\n      add\n      swap2\n      swap1\n      0x00\n      mstore\n      keccak256(0x00, 0x20)\n      swap1\n    tag_305:\n      dup2\n      sload\n      dup2\n      mstore\n      swap1\n      0x01\n      add\n      swap1\n      0x20\n      add\n      dup1\n      dup4\n      gt\n      tag_305\n      jumpi\n      dup3\n      swap1\n      sub\n      0x1f\n      and\n      dup3\n      add\n      swap2\n    tag_303:\n      pop\n      pop\n      pop\n      pop\n      pop\n      dup2\n      mstore\n      0x20\n      add\n      0x02\n      dup3\n      add\n      sload\n      dup2\n      mstore\n      0x20\n      add\n      0x03\n      dup3\n      add\n      sload\n      dup2\n      mstore\n      pop\n      pop\n      dup2\n      mstore\n      0x20\n      add\n      swap1\n      0x01\n      add\n      swap1\n      jump(tag_298)\n    tag_299:\n      pop\n      pop\n      pop\n      pop\n      dup2\n      mstore\n      0x20\n      add\n      0x06\n      dup3\n      add\n      0x00\n      swap1\n      sload\n      swap1\n      0x0100\n      exp\n      swap1\n      div\n      0xff\n      and\n      iszero\n      iszero\n      iszero\n      iszero\n      dup2\n      mstore\n      0x20\n      add\n      0x07\n      dup3\n      add\n      sload\n      dup2\n      mstore\n      0x20\n      add\n      0x08\n      dup3\n      add\n      sload\n      dup2\n      mstore\n      pop\n      pop\n      swap1\n      pop\n        /* \"gest.ris2.sol\":7032:7054  int256 expositionNette */\n      0x00\n        /* \"gest.ris2.sol\":7076:7085  uint256 i */\n      dup1\n        /* \"gest.ris2.sol\":7071:7422  for (uint256 i = 0; i < c.historiquePositions.length; i++) {... */\n    tag_306:\n        /* \"gest.ris2.sol\":7095:7096  c */\n      dup3\n        /* \"gest.ris2.sol\":7095:7116  c.historiquePositions */\n      0xa0\n      add\n      mload\n        /* \"gest.ris2.sol\":7095:7123  c.historiquePositions.length */\n      mload\n        /* \"gest.ris2.sol\":7091:7092  i */\n      dup2\n        /* \"gest.ris2.sol\":7091:7123  i < c.historiquePositions.length */\n      lt\n        /* \"gest.ris2.sol\":7071:7422  for (uint256 i = 0; i < c.historiquePositions.length; i++) {... */\n      iszero\n      tag_307\n      jumpi\n        /* \"gest.ris2.sol\":7145:7162  Position memory p */\n      0x00\n        /* \"gest.ris2.sol\":7165:7166  c */\n      dup4\n        /* \"gest.ris2.sol\":7165:7186  c.historiquePositions */\n      0xa0\n      add\n      mload\n        /* \"gest.ris2.sol\":7187:7188  i */\n      dup3\n        /* \"gest.ris2.sol\":7165:7189  c.historiquePositions[i] */\n      dup2\n      mload\n      dup2\n      lt\n      tag_309\n      jumpi\n      tag_310\n      tag_311\n      jump\t// in\n    tag_310:\n    tag_309:\n      0x20\n      mul\n      0x20\n      add\n      add\n      mload\n        /* \"gest.ris2.sol\":7145:7189  Position memory p = c.historiquePositions[i] */\n      swap1\n      pop\n        /* \"gest.ris2.sol\":7244:7261  keccak256(\"LONG\") */\n      0x26207b3d79cb8a2f4d7984d34034720f053ed770a9f512147f4ea54e18ede2c3\n        /* \"gest.ris2.sol\":7224:7225  p */\n      dup2\n        /* \"gest.ris2.sol\":7224:7238  p.typePosition */\n      0x20\n      add\n      mload\n        /* \"gest.ris2.sol\":7208:7240  keccak256(bytes(p.typePosition)) */\n      dup1\n      mload\n      swap1\n      0x20\n      add\n      keccak256\n        /* \"gest.ris2.sol\":7208:7261  keccak256(bytes(p.typePosition)) == keccak256(\"LONG\") */\n      sub\n        /* \"gest.ris2.sol\":7204:7411  if (keccak256(bytes(p.typePosition)) == keccak256(\"LONG\")) {... */\n      tag_312\n      jumpi\n        /* \"gest.ris2.sol\":7308:7309  p */\n      dup1\n        /* \"gest.ris2.sol\":7308:7317  p.montant */\n      0x00\n      add\n      mload\n        /* \"gest.ris2.sol\":7282:7318  expositionNette += int256(p.montant) */\n      dup4\n      tag_313\n      swap2\n      swap1\n      tag_314\n      jump\t// in\n    tag_313:\n      swap3\n      pop\n        /* \"gest.ris2.sol\":7204:7411  if (keccak256(bytes(p.typePosition)) == keccak256(\"LONG\")) {... */\n      jump(tag_315)\n    tag_312:\n        /* \"gest.ris2.sol\":7385:7386  p */\n      dup1\n        /* \"gest.ris2.sol\":7385:7394  p.montant */\n      0x00\n      add\n      mload\n        /* \"gest.ris2.sol\":7359:7395  expositionNette -= int256(p.montant) */\n      dup4\n      tag_316\n      swap2\n      swap1\n      tag_317\n      jump\t// in\n    tag_316:\n      swap3\n      pop\n        /* \"gest.ris2.sol\":7204:7411  if (keccak256(bytes(p.typePosition)) == keccak256(\"LONG\")) {... */\n    tag_315:\n        /* \"gest.ris2.sol\":7130:7422  {... */\n      pop\n        /* \"gest.ris2.sol\":7125:7128  i++ */\n      dup1\n      dup1\n      0x01\n      add\n      swap2\n      pop\n      pop\n        /* \"gest.ris2.sol\":7071:7422  for (uint256 i = 0; i < c.historiquePositions.length; i++) {... */\n      jump(tag_306)\n    tag_307:\n      pop\n        /* \"gest.ris2.sol\":7441:7456  expositionNette */\n      dup1\n        /* \"gest.ris2.sol\":7434:7456  return expositionNette */\n      swap4\n      pop\n      pop\n      pop\n        /* \"gest.ris2.sol\":6793:7464  function calculerExpositionNette(address _portefeuille) ... */\n      pop\n      swap2\n      swap1\n      pop\n      jump\t// out\n        /* \"gest.ris2.sol\":8212:9136  function enregistrerTransaction(address _recepteur, int256 _valeur) ... */\n    tag_117:\n        /* \"gest.ris2.sol\":8326:8336  msg.sender */\n      caller\n        /* \"gest.ris2.sol\":2472:2485  contreparties */\n      0x02\n        /* \"gest.ris2.sol\":2472:2500  contreparties[_portefeuille] */\n      0x00\n        /* \"gest.ris2.sol\":2486:2499  _portefeuille */\n      dup3\n        /* \"gest.ris2.sol\":2472:2500  contreparties[_portefeuille] */\n      0xffffffffffffffffffffffffffffffffffffffff\n      and\n      0xffffffffffffffffffffffffffffffffffffffff\n      and\n      dup2\n      mstore\n      0x20\n      add\n      swap1\n      dup2\n      mstore\n      0x20\n      add\n      0x00\n      keccak256\n        /* \"gest.ris2.sol\":2472:2509  contreparties[_portefeuille].estActif */\n      0x06\n      add\n      0x00\n      swap1\n      sload\n      swap1\n      0x0100\n      exp\n      swap1\n      div\n      0xff\n      and\n        /* \"gest.ris2.sol\":2464:2550  require(contreparties[_portefeuille].estActif, \"Contrepartie inactive ou inexistante\") */\n      tag_319\n      jumpi\n      mload(0x40)\n      0x08c379a000000000000000000000000000000000000000000000000000000000\n      dup2\n      mstore\n      0x04\n      add\n      tag_320\n      swap1\n      tag_129\n      jump\t// in\n    tag_320:\n      mload(0x40)\n      dup1\n      swap2\n      sub\n      swap1\n      revert\n    tag_319:\n        /* \"gest.ris2.sol\":8367:8377  _recepteur */\n      dup3\n        /* \"gest.ris2.sol\":2472:2485  contreparties */\n      0x02\n        /* \"gest.ris2.sol\":2472:2500  contreparties[_portefeuille] */\n      0x00\n        /* \"gest.ris2.sol\":2486:2499  _portefeuille */\n      dup3\n        /* \"gest.ris2.sol\":2472:2500  contreparties[_portefeuille] */\n      0xffffffffffffffffffffffffffffffffffffffff\n      and\n      0xffffffffffffffffffffffffffffffffffffffff\n      and\n      dup2\n      mstore\n      0x20\n      add\n      swap1\n      dup2\n      mstore\n      0x20\n      add\n      0x00\n      keccak256\n        /* \"gest.ris2.sol\":2472:2509  contreparties[_portefeuille].estActif */\n      0x06\n      add\n      0x00\n      swap1\n      sload\n      swap1\n      0x0100\n      exp\n      swap1\n      div\n      0xff\n      and\n        /* \"gest.ris2.sol\":2464:2550  require(contreparties[_portefeuille].estActif, \"Contrepartie inactive ou inexistante\") */\n      tag_322\n      jumpi\n      mload(0x40)\n      0x08c379a000000000000000000000000000000000000000000000000000000000\n      dup2\n      mstore\n      0x04\n      add\n      tag_323\n      swap1\n      tag_129\n      jump\t// in\n    tag_323:\n      mload(0x40)\n      dup1\n      swap2\n      sub\n      swap1\n      revert\n    tag_322:\n        /* \"gest.ris2.sol\":8426:8427  0 */\n      0x00\n        /* \"gest.ris2.sol\":8404:8428  _recepteur != address(0) */\n      0xffffffffffffffffffffffffffffffffffffffff\n      and\n        /* \"gest.ris2.sol\":8404:8414  _recepteur */\n      dup5\n        /* \"gest.ris2.sol\":8404:8428  _recepteur != address(0) */\n      0xffffffffffffffffffffffffffffffffffffffff\n      and\n      sub\n        /* \"gest.ris2.sol\":8396:8459  require(_recepteur != address(0), \"Adresse recepteur invalide\") */\n      tag_325\n      jumpi\n      mload(0x40)\n      0x08c379a000000000000000000000000000000000000000000000000000000000\n      dup2\n      mstore\n      0x04\n      add\n      tag_326\n      swap1\n      tag_278\n      jump\t// in\n    tag_326:\n      mload(0x40)\n      dup1\n      swap2\n      sub\n      swap1\n      revert\n    tag_325:\n        /* \"gest.ris2.sol\":8489:8490  0 */\n      0x00\n        /* \"gest.ris2.sol\":8478:8485  _valeur */\n      dup4\n        /* \"gest.ris2.sol\":8478:8490  _valeur != 0 */\n      sub\n        /* \"gest.ris2.sol\":8470:8510  require(_valeur != 0, \"Valeur invalide\") */\n      tag_327\n      jumpi\n      mload(0x40)\n      0x08c379a000000000000000000000000000000000000000000000000000000000\n      dup2\n      mstore\n      0x04\n      add\n      tag_328\n      swap1\n      tag_329\n      jump\t// in\n    tag_328:\n      mload(0x40)\n      dup1\n      swap2\n      sub\n      swap1\n      revert\n    tag_327:\n        /* \"gest.ris2.sol\":8613:8620  _valeur */\n      dup3\n        /* \"gest.ris2.sol\":8566:8585  relationsExposition */\n      0x04\n        /* \"gest.ris2.sol\":8566:8597  relationsExposition[msg.sender] */\n      0x00\n        /* \"gest.ris2.sol\":8586:8596  msg.sender */\n      caller\n        /* \"gest.ris2.sol\":8566:8597  relationsExposition[msg.sender] */\n      0xffffffffffffffffffffffffffffffffffffffff\n      and\n      0xffffffffffffffffffffffffffffffffffffffff\n      and\n      dup2\n      mstore\n      0x20\n      add\n      swap1\n      dup2\n      mstore\n      0x20\n      add\n      0x00\n      keccak256\n        /* \"gest.ris2.sol\":8566:8609  relationsExposition[msg.sender][_recepteur] */\n      0x00\n        /* \"gest.ris2.sol\":8598:8608  _recepteur */\n      dup7\n        /* \"gest.ris2.sol\":8566:8609  relationsExposition[msg.sender][_recepteur] */\n      0xffffffffffffffffffffffffffffffffffffffff\n      and\n      0xffffffffffffffffffffffffffffffffffffffff\n      and\n      dup2\n      mstore\n      0x20\n      add\n      swap1\n      dup2\n      mstore\n      0x20\n      add\n      0x00\n      keccak256\n      0x00\n        /* \"gest.ris2.sol\":8566:8620  relationsExposition[msg.sender][_recepteur] += _valeur */\n      dup3\n      dup3\n      sload\n      tag_330\n      swap2\n      swap1\n      tag_314\n      jump\t// in\n    tag_330:\n      swap3\n      pop\n      pop\n      dup2\n      swap1\n      sstore\n      pop\n        /* \"gest.ris2.sol\":8687:8709  historiqueTransactions */\n      0x05\n        /* \"gest.ris2.sol\":8715:8898  EnregistrementTransaction({... */\n      mload(0x40)\n      dup1\n      0x80\n      add\n      0x40\n      mstore\n      dup1\n        /* \"gest.ris2.sol\":8768:8778  msg.sender */\n      caller\n        /* \"gest.ris2.sol\":8715:8898  EnregistrementTransaction({... */\n      0xffffffffffffffffffffffffffffffffffffffff\n      and\n      dup2\n      mstore\n      0x20\n      add\n        /* \"gest.ris2.sol\":8804:8814  _recepteur */\n      dup7\n        /* \"gest.ris2.sol\":8715:8898  EnregistrementTransaction({... */\n      0xffffffffffffffffffffffffffffffffffffffff\n      and\n      dup2\n      mstore\n      0x20\n      add\n        /* \"gest.ris2.sol\":8837:8844  _valeur */\n      dup6\n        /* \"gest.ris2.sol\":8715:8898  EnregistrementTransaction({... */\n      dup2\n      mstore\n      0x20\n      add\n        /* \"gest.ris2.sol\":8871:8886  block.timestamp */\n      timestamp\n        /* \"gest.ris2.sol\":8715:8898  EnregistrementTransaction({... */\n      dup2\n      mstore\n      pop\n        /* \"gest.ris2.sol\":8687:8899  historiqueTransactions.push(EnregistrementTransaction({... */\n      swap1\n      dup1\n      0x01\n      dup2\n      sload\n      add\n      dup1\n      dup3\n      sstore\n      dup1\n      swap2\n      pop\n      pop\n      0x01\n      swap1\n      sub\n      swap1\n      0x00\n      mstore\n      keccak256(0x00, 0x20)\n      swap1\n      0x04\n      mul\n      add\n      0x00\n      swap1\n      swap2\n      swap1\n      swap2\n      swap1\n      swap2\n      pop\n      0x00\n      dup3\n      add\n      mload\n      dup2\n      0x00\n      add\n      exp(0x0100, 0x00)\n      dup2\n      sload\n      dup2\n      0xffffffffffffffffffffffffffffffffffffffff\n      mul\n      not\n      and\n      swap1\n      dup4\n      0xffffffffffffffffffffffffffffffffffffffff\n      and\n      mul\n      or\n      swap1\n      sstore\n      pop\n      0x20\n      dup3\n      add\n      mload\n      dup2\n      0x01\n      add\n      exp(0x0100, 0x00)\n      dup2\n      sload\n      dup2\n      0xffffffffffffffffffffffffffffffffffffffff\n      mul\n      not\n      and\n      swap1\n      dup4\n      0xffffffffffffffffffffffffffffffffffffffff\n      and\n      mul\n      or\n      swap1\n      sstore\n      pop\n      0x40\n      dup3\n      add\n      mload\n      dup2\n      0x02\n      add\n      sstore\n      0x60\n      dup3\n      add\n      mload\n      dup2\n      0x03\n      add\n      sstore\n      pop\n      pop\n        /* \"gest.ris2.sol\":8947:8957  _recepteur */\n      dup4\n        /* \"gest.ris2.sol\":8917:8984  NouvelleOperation(msg.sender, _recepteur, _valeur, block.timestamp) */\n      0xffffffffffffffffffffffffffffffffffffffff\n      and\n        /* \"gest.ris2.sol\":8935:8945  msg.sender */\n      caller\n        /* \"gest.ris2.sol\":8917:8984  NouvelleOperation(msg.sender, _recepteur, _valeur, block.timestamp) */\n      0xffffffffffffffffffffffffffffffffffffffff\n      and\n      0x7e4d8d6ef9fd3064bc3bd7ea85aa9fdc6d37c48173ad3fd153904e34db45d9c6\n        /* \"gest.ris2.sol\":8959:8966  _valeur */\n      dup6\n        /* \"gest.ris2.sol\":8968:8983  block.timestamp */\n      timestamp\n        /* \"gest.ris2.sol\":8917:8984  NouvelleOperation(msg.sender, _recepteur, _valeur, block.timestamp) */\n      mload(0x40)\n      tag_332\n      swap3\n      swap2\n      swap1\n      tag_333\n      jump\t// in\n    tag_332:\n      mload(0x40)\n      dup1\n      swap2\n      sub\n      swap1\n      log3\n        /* \"gest.ris2.sol\":9053:9085  verifierDepassements(msg.sender) */\n      tag_334\n        /* \"gest.ris2.sol\":9074:9084  msg.sender */\n      caller\n        /* \"gest.ris2.sol\":9053:9073  verifierDepassements */\n      tag_220\n        /* \"gest.ris2.sol\":9053:9085  verifierDepassements(msg.sender) */\n      jump\t// in\n    tag_334:\n        /* \"gest.ris2.sol\":9096:9128  verifierDepassements(_recepteur) */\n      tag_335\n        /* \"gest.ris2.sol\":9117:9127  _recepteur */\n      dup5\n        /* \"gest.ris2.sol\":9096:9116  verifierDepassements */\n      tag_220\n        /* \"gest.ris2.sol\":9096:9128  verifierDepassements(_recepteur) */\n      jump\t// in\n    tag_335:\n        /* \"gest.ris2.sol\":2561:2562  _ */\n      pop\n        /* \"gest.ris2.sol\":8212:9136  function enregistrerTransaction(address _recepteur, int256 _valeur) ... */\n      pop\n      pop\n      pop\n      jump\t// out\n        /* \"gest.ris2.sol\":7871:8102  function modifierRatioDeCouverture(uint256 _nouveauRatio) ... */\n    tag_121:\n        /* \"gest.ris2.sol\":2330:2335  admin */\n      0x00\n      dup1\n      sload\n      swap1\n      0x0100\n      exp\n      swap1\n      div\n      0xffffffffffffffffffffffffffffffffffffffff\n      and\n        /* \"gest.ris2.sol\":2316:2335  msg.sender == admin */\n      0xffffffffffffffffffffffffffffffffffffffff\n      and\n        /* \"gest.ris2.sol\":2316:2326  msg.sender */\n      caller\n        /* \"gest.ris2.sol\":2316:2335  msg.sender == admin */\n      0xffffffffffffffffffffffffffffffffffffffff\n      and\n      eq\n        /* \"gest.ris2.sol\":2308:2374  require(msg.sender == admin, \"Action reservee a l'administrateur\") */\n      tag_337\n      jumpi\n      mload(0x40)\n      0x08c379a000000000000000000000000000000000000000000000000000000000\n      dup2\n      mstore\n      0x04\n      add\n      tag_338\n      swap1\n      tag_150\n      jump\t// in\n    tag_338:\n      mload(0x40)\n      dup1\n      swap2\n      sub\n      swap1\n      revert\n    tag_337:\n        /* \"gest.ris2.sol\":8007:8010  100 */\n      0x64\n        /* \"gest.ris2.sol\":7991:8004  _nouveauRatio */\n      dup2\n        /* \"gest.ris2.sol\":7991:8010  _nouveauRatio > 100 */\n      gt\n        /* \"gest.ris2.sol\":7983:8050  require(_nouveauRatio > 100, \"Le ratio doit etre superieur a 100%\") */\n      tag_340\n      jumpi\n      mload(0x40)\n      0x08c379a000000000000000000000000000000000000000000000000000000000\n      dup2\n      mstore\n      0x04\n      add\n      tag_341\n      swap1\n      tag_342\n      jump\t// in\n    tag_341:\n      mload(0x40)\n      dup1\n      swap2\n      sub\n      swap1\n      revert\n    tag_340:\n        /* \"gest.ris2.sol\":8081:8094  _nouveauRatio */\n      dup1\n        /* \"gest.ris2.sol\":8061:8078  ratioDeCouverture */\n      0x01\n        /* \"gest.ris2.sol\":8061:8094  ratioDeCouverture = _nouveauRatio */\n      dup2\n      swap1\n      sstore\n      pop\n        /* \"gest.ris2.sol\":7871:8102  function modifierRatioDeCouverture(uint256 _nouveauRatio) ... */\n      pop\n      jump\t// out\n        /* \"gest.ris2.sol\":831:851  address public admin */\n    tag_124:\n      0x00\n      dup1\n      sload\n      swap1\n      0x0100\n      exp\n      swap1\n      div\n      0xffffffffffffffffffffffffffffffffffffffff\n      and\n      dup2\n      jump\t// out\n        /* \"gest.ris2.sol\":5601:6749  function verifierDepassements(address _portefeuille) internal {... */\n    tag_220:\n        /* \"gest.ris2.sol\":5674:5696  Contrepartie storage c */\n      0x00\n        /* \"gest.ris2.sol\":5699:5712  contreparties */\n      0x02\n        /* \"gest.ris2.sol\":5699:5727  contreparties[_portefeuille] */\n      0x00\n        /* \"gest.ris2.sol\":5713:5726  _portefeuille */\n      dup4\n        /* \"gest.ris2.sol\":5699:5727  contreparties[_portefeuille] */\n      0xffffffffffffffffffffffffffffffffffffffff\n      and\n      0xffffffffffffffffffffffffffffffffffffffff\n      and\n      dup2\n      mstore\n      0x20\n      add\n      swap1\n      dup2\n      mstore\n      0x20\n      add\n      0x00\n      keccak256\n        /* \"gest.ris2.sol\":5674:5727  Contrepartie storage c = contreparties[_portefeuille] */\n      swap1\n      pop\n        /* \"gest.ris2.sol\":5767:5768  c */\n      dup1\n        /* \"gest.ris2.sol\":5767:5785  c.limiteExposition */\n      0x02\n      add\n      sload\n        /* \"gest.ris2.sol\":5744:5745  c */\n      dup2\n        /* \"gest.ris2.sol\":5744:5764  c.expositionCourante */\n      0x03\n      add\n      sload\n        /* \"gest.ris2.sol\":5744:5785  c.expositionCourante > c.limiteExposition */\n      gt\n        /* \"gest.ris2.sol\":5740:6269  if (c.expositionCourante > c.limiteExposition) {... */\n      iszero\n      tag_344\n      jumpi\n        /* \"gest.ris2.sol\":5822:5835  _portefeuille */\n      dup2\n        /* \"gest.ris2.sol\":5807:5878  LimiteDepassee(_portefeuille, c.expositionCourante, c.limiteExposition) */\n      0xffffffffffffffffffffffffffffffffffffffff\n      and\n      0x9a2dd2b852c39cdc36ebfa2bc55459f64fd51881ebfde683d37a31595c27da48\n        /* \"gest.ris2.sol\":5837:5838  c */\n      dup3\n        /* \"gest.ris2.sol\":5837:5857  c.expositionCourante */\n      0x03\n      add\n      sload\n        /* \"gest.ris2.sol\":5859:5860  c */\n      dup4\n        /* \"gest.ris2.sol\":5859:5877  c.limiteExposition */\n      0x02\n      add\n      sload\n        /* \"gest.ris2.sol\":5807:5878  LimiteDepassee(_portefeuille, c.expositionCourante, c.limiteExposition) */\n      mload(0x40)\n      tag_345\n      swap3\n      swap2\n      swap1\n      tag_164\n      jump\t// in\n    tag_345:\n      mload(0x40)\n      dup1\n      swap2\n      sub\n      swap1\n      log2\n        /* \"gest.ris2.sol\":5971:5976  false */\n      0x00\n        /* \"gest.ris2.sol\":5958:5959  c */\n      dup2\n        /* \"gest.ris2.sol\":5958:5968  c.estActif */\n      0x06\n      add\n      0x00\n        /* \"gest.ris2.sol\":5958:5976  c.estActif = false */\n      0x0100\n      exp\n      dup2\n      sload\n      dup2\n      0xff\n      mul\n      not\n      and\n      swap1\n      dup4\n      iszero\n      iszero\n      mul\n      or\n      swap1\n      sstore\n      pop\n        /* \"gest.ris2.sol\":6034:6057  uint256 montantPenalite */\n      0x00\n        /* \"gest.ris2.sol\":6106:6108  10 */\n      0x0a\n        /* \"gest.ris2.sol\":6084:6085  c */\n      dup3\n        /* \"gest.ris2.sol\":6084:6102  c.limiteExposition */\n      0x02\n      add\n      sload\n        /* \"gest.ris2.sol\":6061:6062  c */\n      dup4\n        /* \"gest.ris2.sol\":6061:6081  c.expositionCourante */\n      0x03\n      add\n      sload\n        /* \"gest.ris2.sol\":6061:6102  c.expositionCourante - c.limiteExposition */\n      tag_346\n      swap2\n      swap1\n      tag_211\n      jump\t// in\n    tag_346:\n        /* \"gest.ris2.sol\":6060:6108  (c.expositionCourante - c.limiteExposition) * 10 */\n      tag_347\n      swap2\n      swap1\n      tag_144\n      jump\t// in\n    tag_347:\n        /* \"gest.ris2.sol\":6034:6108  uint256 montantPenalite = (c.expositionCourante - c.limiteExposition) * 10 */\n      swap1\n      pop\n        /* \"gest.ris2.sol\":6173:6188  montantPenalite */\n      dup1\n        /* \"gest.ris2.sol\":6158:6159  c */\n      dup3\n        /* \"gest.ris2.sol\":6158:6169  c.penalites */\n      0x07\n      add\n      0x00\n        /* \"gest.ris2.sol\":6158:6188  c.penalites += montantPenalite */\n      dup3\n      dup3\n      sload\n      tag_348\n      swap2\n      swap1\n      tag_202\n      jump\t// in\n    tag_348:\n      swap3\n      pop\n      pop\n      dup2\n      swap1\n      sstore\n      pop\n        /* \"gest.ris2.sol\":6226:6239  _portefeuille */\n      dup3\n        /* \"gest.ris2.sol\":6208:6257  PenaliteAppliquee(_portefeuille, montantPenalite) */\n      0xffffffffffffffffffffffffffffffffffffffff\n      and\n      0xa7efd79f8b4f74475645bb98022d7135feab57d5b96cb33512477b288e3ff9c3\n        /* \"gest.ris2.sol\":6241:6256  montantPenalite */\n      dup3\n        /* \"gest.ris2.sol\":6208:6257  PenaliteAppliquee(_portefeuille, montantPenalite) */\n      mload(0x40)\n      tag_349\n      swap2\n      swap1\n      tag_33\n      jump\t// in\n    tag_349:\n      mload(0x40)\n      dup1\n      swap2\n      sub\n      swap1\n      log2\n        /* \"gest.ris2.sol\":5787:6269  {... */\n      pop\n        /* \"gest.ris2.sol\":5740:6269  if (c.expositionCourante > c.limiteExposition) {... */\n    tag_344:\n        /* \"gest.ris2.sol\":6281:6304  uint256 ratioCouverture */\n      0x00\n        /* \"gest.ris2.sol\":6307:6345  calculerRatioCouverture(_portefeuille) */\n      tag_350\n        /* \"gest.ris2.sol\":6331:6344  _portefeuille */\n      dup4\n        /* \"gest.ris2.sol\":6307:6330  calculerRatioCouverture */\n      tag_31\n        /* \"gest.ris2.sol\":6307:6345  calculerRatioCouverture(_portefeuille) */\n      jump\t// in\n    tag_350:\n        /* \"gest.ris2.sol\":6281:6345  uint256 ratioCouverture = calculerRatioCouverture(_portefeuille) */\n      swap1\n      pop\n        /* \"gest.ris2.sol\":6378:6381  100 */\n      0x64\n        /* \"gest.ris2.sol\":6360:6375  ratioCouverture */\n      dup2\n        /* \"gest.ris2.sol\":6360:6381  ratioCouverture < 100 */\n      lt\n        /* \"gest.ris2.sol\":6356:6567  if (ratioCouverture < 100) {... */\n      iszero\n      tag_351\n      jumpi\n        /* \"gest.ris2.sol\":6430:6443  _portefeuille */\n      dup3\n        /* \"gest.ris2.sol\":6403:6461  RatioCouvertureInsuffisant(_portefeuille, ratioCouverture) */\n      0xffffffffffffffffffffffffffffffffffffffff\n      and\n      0x674fc74c826dbec5edeac8ecdfd4401967af353ce41c4918c79ebea80e27c367\n        /* \"gest.ris2.sol\":6445:6460  ratioCouverture */\n      dup3\n        /* \"gest.ris2.sol\":6403:6461  RatioCouvertureInsuffisant(_portefeuille, ratioCouverture) */\n      mload(0x40)\n      tag_352\n      swap2\n      swap1\n      tag_33\n      jump\t// in\n    tag_352:\n      mload(0x40)\n      dup1\n      swap2\n      sub\n      swap1\n      log2\n        /* \"gest.ris2.sol\":6499:6512  _portefeuille */\n      dup3\n        /* \"gest.ris2.sol\":6481:6555  AlerteRisqueEleve(_portefeuille, \"Garantie insuffisante\", ratioCouverture) */\n      0xffffffffffffffffffffffffffffffffffffffff\n      and\n      0x84d816823f9892aea5614b7096b3480a730fea36baef44df755f3b9a3fcc36d6\n        /* \"gest.ris2.sol\":6539:6554  ratioCouverture */\n      dup3\n        /* \"gest.ris2.sol\":6481:6555  AlerteRisqueEleve(_portefeuille, \"Garantie insuffisante\", ratioCouverture) */\n      mload(0x40)\n      tag_353\n      swap2\n      swap1\n      tag_354\n      jump\t// in\n    tag_353:\n      mload(0x40)\n      dup1\n      swap2\n      sub\n      swap1\n      log2\n        /* \"gest.ris2.sol\":6356:6567  if (ratioCouverture < 100) {... */\n    tag_351:\n        /* \"gest.ris2.sol\":6579:6593  uint256 risque */\n      0x00\n        /* \"gest.ris2.sol\":6596:6625  calculerRisque(_portefeuille) */\n      tag_355\n        /* \"gest.ris2.sol\":6611:6624  _portefeuille */\n      dup5\n        /* \"gest.ris2.sol\":6596:6610  calculerRisque */\n      tag_101\n        /* \"gest.ris2.sol\":6596:6625  calculerRisque(_portefeuille) */\n      jump\t// in\n    tag_355:\n        /* \"gest.ris2.sol\":6579:6625  uint256 risque = calculerRisque(_portefeuille) */\n      swap1\n      pop\n        /* \"gest.ris2.sol\":6649:6652  200 */\n      0xc8\n        /* \"gest.ris2.sol\":6640:6646  risque */\n      dup2\n        /* \"gest.ris2.sol\":6640:6652  risque > 200 */\n      gt\n        /* \"gest.ris2.sol\":6636:6742  if (risque > 200) {... */\n      iszero\n      tag_356\n      jumpi\n        /* \"gest.ris2.sol\":6692:6705  _portefeuille */\n      dup4\n        /* \"gest.ris2.sol\":6674:6730  AlerteRisqueEleve(_portefeuille, \"Risque eleve\", risque) */\n      0xffffffffffffffffffffffffffffffffffffffff\n      and\n      0x84d816823f9892aea5614b7096b3480a730fea36baef44df755f3b9a3fcc36d6\n        /* \"gest.ris2.sol\":6723:6729  risque */\n      dup3\n        /* \"gest.ris2.sol\":6674:6730  AlerteRisqueEleve(_portefeuille, \"Risque eleve\", risque) */\n      mload(0x40)\n      tag_357\n      swap2\n      swap1\n      tag_358\n      jump\t// in\n    tag_357:\n      mload(0x40)\n      dup1\n      swap2\n      sub\n      swap1\n      log2\n        /* \"gest.ris2.sol\":6636:6742  if (risque > 200) {... */\n    tag_356:\n        /* \"gest.ris2.sol\":5663:6749  {... */\n      pop\n      pop\n      pop\n        /* \"gest.ris2.sol\":5601:6749  function verifierDepassements(address _portefeuille) internal {... */\n      pop\n      jump\t// out\n        /* \"#utility.yul\":7:82   */\n    tag_359:\n        /* \"#utility.yul\":40:46   */\n      0x00\n        /* \"#utility.yul\":73:75   */\n      0x40\n        /* \"#utility.yul\":67:76   */\n      mload\n        /* \"#utility.yul\":57:76   */\n      swap1\n      pop\n        /* \"#utility.yul\":7:82   */\n      swap1\n      jump\t// out\n        /* \"#utility.yul\":88:205   */\n    tag_360:\n        /* \"#utility.yul\":197:198   */\n      0x00\n        /* \"#utility.yul\":194:195   */\n      dup1\n        /* \"#utility.yul\":187:199   */\n      revert\n        /* \"#utility.yul\":211:328   */\n    tag_361:\n        /* \"#utility.yul\":320:321   */\n      0x00\n        /* \"#utility.yul\":317:318   */\n      dup1\n        /* \"#utility.yul\":310:322   */\n      revert\n        /* \"#utility.yul\":334:460   */\n    tag_362:\n        /* \"#utility.yul\":371:378   */\n      0x00\n        /* \"#utility.yul\":411:453   */\n      0xffffffffffffffffffffffffffffffffffffffff\n        /* \"#utility.yul\":404:409   */\n      dup3\n        /* \"#utility.yul\":400:454   */\n      and\n        /* \"#utility.yul\":389:454   */\n      swap1\n      pop\n        /* \"#utility.yul\":334:460   */\n      swap2\n      swap1\n      pop\n      jump\t// out\n        /* \"#utility.yul\":466:562   */\n    tag_363:\n        /* \"#utility.yul\":503:510   */\n      0x00\n        /* \"#utility.yul\":532:556   */\n      tag_473\n        /* \"#utility.yul\":550:555   */\n      dup3\n        /* \"#utility.yul\":532:556   */\n      tag_362\n      jump\t// in\n    tag_473:\n        /* \"#utility.yul\":521:556   */\n      swap1\n      pop\n        /* \"#utility.yul\":466:562   */\n      swap2\n      swap1\n      pop\n      jump\t// out\n        /* \"#utility.yul\":568:690   */\n    tag_364:\n        /* \"#utility.yul\":641:665   */\n      tag_475\n        /* \"#utility.yul\":659:664   */\n      dup2\n        /* \"#utility.yul\":641:665   */\n      tag_363\n      jump\t// in\n    tag_475:\n        /* \"#utility.yul\":634:639   */\n      dup2\n        /* \"#utility.yul\":631:666   */\n      eq\n        /* \"#utility.yul\":621:684   */\n      tag_476\n      jumpi\n        /* \"#utility.yul\":680:681   */\n      0x00\n        /* \"#utility.yul\":677:678   */\n      dup1\n        /* \"#utility.yul\":670:682   */\n      revert\n        /* \"#utility.yul\":621:684   */\n    tag_476:\n        /* \"#utility.yul\":568:690   */\n      pop\n      jump\t// out\n        /* \"#utility.yul\":696:835   */\n    tag_365:\n        /* \"#utility.yul\":742:747   */\n      0x00\n        /* \"#utility.yul\":780:786   */\n      dup2\n        /* \"#utility.yul\":767:787   */\n      calldataload\n        /* \"#utility.yul\":758:787   */\n      swap1\n      pop\n        /* \"#utility.yul\":796:829   */\n      tag_478\n        /* \"#utility.yul\":823:828   */\n      dup2\n        /* \"#utility.yul\":796:829   */\n      tag_364\n      jump\t// in\n    tag_478:\n        /* \"#utility.yul\":696:835   */\n      swap3\n      swap2\n      pop\n      pop\n      jump\t// out\n        /* \"#utility.yul\":841:1170   */\n    tag_30:\n        /* \"#utility.yul\":900:906   */\n      0x00\n        /* \"#utility.yul\":949:951   */\n      0x20\n        /* \"#utility.yul\":937:946   */\n      dup3\n        /* \"#utility.yul\":928:935   */\n      dup5\n        /* \"#utility.yul\":924:947   */\n      sub\n        /* \"#utility.yul\":920:952   */\n      slt\n        /* \"#utility.yul\":917:1036   */\n      iszero\n      tag_480\n      jumpi\n        /* \"#utility.yul\":955:1034   */\n      tag_481\n      tag_360\n      jump\t// in\n    tag_481:\n        /* \"#utility.yul\":917:1036   */\n    tag_480:\n        /* \"#utility.yul\":1075:1076   */\n      0x00\n        /* \"#utility.yul\":1100:1153   */\n      tag_482\n        /* \"#utility.yul\":1145:1152   */\n      dup5\n        /* \"#utility.yul\":1136:1142   */\n      dup3\n        /* \"#utility.yul\":1125:1134   */\n      dup6\n        /* \"#utility.yul\":1121:1143   */\n      add\n        /* \"#utility.yul\":1100:1153   */\n      tag_365\n      jump\t// in\n    tag_482:\n        /* \"#utility.yul\":1090:1153   */\n      swap2\n      pop\n        /* \"#utility.yul\":1046:1163   */\n      pop\n        /* \"#utility.yul\":841:1170   */\n      swap3\n      swap2\n      pop\n      pop\n      jump\t// out\n        /* \"#utility.yul\":1176:1253   */\n    tag_366:\n        /* \"#utility.yul\":1213:1220   */\n      0x00\n        /* \"#utility.yul\":1242:1247   */\n      dup2\n        /* \"#utility.yul\":1231:1247   */\n      swap1\n      pop\n        /* \"#utility.yul\":1176:1253   */\n      swap2\n      swap1\n      pop\n      jump\t// out\n        /* \"#utility.yul\":1259:1377   */\n    tag_367:\n        /* \"#utility.yul\":1346:1370   */\n      tag_485\n        /* \"#utility.yul\":1364:1369   */\n      dup2\n        /* \"#utility.yul\":1346:1370   */\n      tag_366\n      jump\t// in\n    tag_485:\n        /* \"#utility.yul\":1341:1344   */\n      dup3\n        /* \"#utility.yul\":1334:1371   */\n      mstore\n        /* \"#utility.yul\":1259:1377   */\n      pop\n      pop\n      jump\t// out\n        /* \"#utility.yul\":1383:1605   */\n    tag_33:\n        /* \"#utility.yul\":1476:1480   */\n      0x00\n        /* \"#utility.yul\":1514:1516   */\n      0x20\n        /* \"#utility.yul\":1503:1512   */\n      dup3\n        /* \"#utility.yul\":1499:1517   */\n      add\n        /* \"#utility.yul\":1491:1517   */\n      swap1\n      pop\n        /* \"#utility.yul\":1527:1598   */\n      tag_487\n        /* \"#utility.yul\":1595:1596   */\n      0x00\n        /* \"#utility.yul\":1584:1593   */\n      dup4\n        /* \"#utility.yul\":1580:1597   */\n      add\n        /* \"#utility.yul\":1571:1577   */\n      dup5\n        /* \"#utility.yul\":1527:1598   */\n      tag_367\n      jump\t// in\n    tag_487:\n        /* \"#utility.yul\":1383:1605   */\n      swap3\n      swap2\n      pop\n      pop\n      jump\t// out\n        /* \"#utility.yul\":1611:1733   */\n    tag_368:\n        /* \"#utility.yul\":1684:1708   */\n      tag_489\n        /* \"#utility.yul\":1702:1707   */\n      dup2\n        /* \"#utility.yul\":1684:1708   */\n      tag_366\n      jump\t// in\n    tag_489:\n        /* \"#utility.yul\":1677:1682   */\n      dup2\n        /* \"#utility.yul\":1674:1709   */\n      eq\n        /* \"#utility.yul\":1664:1727   */\n      tag_490\n      jumpi\n        /* \"#utility.yul\":1723:1724   */\n      0x00\n        /* \"#utility.yul\":1720:1721   */\n      dup1\n        /* \"#utility.yul\":1713:1725   */\n      revert\n        /* \"#utility.yul\":1664:1727   */\n    tag_490:\n        /* \"#utility.yul\":1611:1733   */\n      pop\n      jump\t// out\n        /* \"#utility.yul\":1739:1878   */\n    tag_369:\n        /* \"#utility.yul\":1785:1790   */\n      0x00\n        /* \"#utility.yul\":1823:1829   */\n      dup2\n        /* \"#utility.yul\":1810:1830   */\n      calldataload\n        /* \"#utility.yul\":1801:1830   */\n      swap1\n      pop\n        /* \"#utility.yul\":1839:1872   */\n      tag_492\n        /* \"#utility.yul\":1866:1871   */\n      dup2\n        /* \"#utility.yul\":1839:1872   */\n      tag_368\n      jump\t// in\n    tag_492:\n        /* \"#utility.yul\":1739:1878   */\n      swap3\n      swap2\n      pop\n      pop\n      jump\t// out\n        /* \"#utility.yul\":1884:2649   */\n    tag_37:\n        /* \"#utility.yul\":1970:1976   */\n      0x00\n        /* \"#utility.yul\":1978:1984   */\n      dup1\n        /* \"#utility.yul\":1986:1992   */\n      0x00\n        /* \"#utility.yul\":1994:2000   */\n      dup1\n        /* \"#utility.yul\":2043:2046   */\n      0x80\n        /* \"#utility.yul\":2031:2040   */\n      dup6\n        /* \"#utility.yul\":2022:2029   */\n      dup8\n        /* \"#utility.yul\":2018:2041   */\n      sub\n        /* \"#utility.yul\":2014:2047   */\n      slt\n        /* \"#utility.yul\":2011:2131   */\n      iszero\n      tag_494\n      jumpi\n        /* \"#utility.yul\":2050:2129   */\n      tag_495\n      tag_360\n      jump\t// in\n    tag_495:\n        /* \"#utility.yul\":2011:2131   */\n    tag_494:\n        /* \"#utility.yul\":2170:2171   */\n      0x00\n        /* \"#utility.yul\":2195:2248   */\n      tag_496\n        /* \"#utility.yul\":2240:2247   */\n      dup8\n        /* \"#utility.yul\":2231:2237   */\n      dup3\n        /* \"#utility.yul\":2220:2229   */\n      dup9\n        /* \"#utility.yul\":2216:2238   */\n      add\n        /* \"#utility.yul\":2195:2248   */\n      tag_365\n      jump\t// in\n    tag_496:\n        /* \"#utility.yul\":2185:2248   */\n      swap5\n      pop\n        /* \"#utility.yul\":2141:2258   */\n      pop\n        /* \"#utility.yul\":2297:2299   */\n      0x20\n        /* \"#utility.yul\":2323:2376   */\n      tag_497\n        /* \"#utility.yul\":2368:2375   */\n      dup8\n        /* \"#utility.yul\":2359:2365   */\n      dup3\n        /* \"#utility.yul\":2348:2357   */\n      dup9\n        /* \"#utility.yul\":2344:2366   */\n      add\n        /* \"#utility.yul\":2323:2376   */\n      tag_369\n      jump\t// in\n    tag_497:\n        /* \"#utility.yul\":2313:2376   */\n      swap4\n      pop\n        /* \"#utility.yul\":2268:2386   */\n      pop\n        /* \"#utility.yul\":2425:2427   */\n      0x40\n        /* \"#utility.yul\":2451:2504   */\n      tag_498\n        /* \"#utility.yul\":2496:2503   */\n      dup8\n        /* \"#utility.yul\":2487:2493   */\n      dup3\n        /* \"#utility.yul\":2476:2485   */\n      dup9\n        /* \"#utility.yul\":2472:2494   */\n      add\n        /* \"#utility.yul\":2451:2504   */\n      tag_369\n      jump\t// in\n    tag_498:\n        /* \"#utility.yul\":2441:2504   */\n      swap3\n      pop\n        /* \"#utility.yul\":2396:2514   */\n      pop\n        /* \"#utility.yul\":2553:2555   */\n      0x60\n        /* \"#utility.yul\":2579:2632   */\n      tag_499\n        /* \"#utility.yul\":2624:2631   */\n      dup8\n        /* \"#utility.yul\":2615:2621   */\n      dup3\n        /* \"#utility.yul\":2604:2613   */\n      dup9\n        /* \"#utility.yul\":2600:2622   */\n      add\n        /* \"#utility.yul\":2579:2632   */\n      tag_369\n      jump\t// in\n    tag_499:\n        /* \"#utility.yul\":2569:2632   */\n      swap2\n      pop\n        /* \"#utility.yul\":2524:2642   */\n      pop\n        /* \"#utility.yul\":1884:2649   */\n      swap3\n      swap6\n      swap2\n      swap5\n      pop\n      swap3\n      pop\n      jump\t// out\n        /* \"#utility.yul\":2655:2769   */\n    tag_370:\n        /* \"#utility.yul\":2722:2728   */\n      0x00\n        /* \"#utility.yul\":2756:2761   */\n      dup2\n        /* \"#utility.yul\":2750:2762   */\n      mload\n        /* \"#utility.yul\":2740:2762   */\n      swap1\n      pop\n        /* \"#utility.yul\":2655:2769   */\n      swap2\n      swap1\n      pop\n      jump\t// out\n        /* \"#utility.yul\":2775:2959   */\n    tag_371:\n        /* \"#utility.yul\":2874:2885   */\n      0x00\n        /* \"#utility.yul\":2908:2914   */\n      dup3\n        /* \"#utility.yul\":2903:2906   */\n      dup3\n        /* \"#utility.yul\":2896:2915   */\n      mstore\n        /* \"#utility.yul\":2948:2952   */\n      0x20\n        /* \"#utility.yul\":2943:2946   */\n      dup3\n        /* \"#utility.yul\":2939:2953   */\n      add\n        /* \"#utility.yul\":2924:2953   */\n      swap1\n      pop\n        /* \"#utility.yul\":2775:2959   */\n      swap3\n      swap2\n      pop\n      pop\n      jump\t// out\n        /* \"#utility.yul\":2965:3097   */\n    tag_372:\n        /* \"#utility.yul\":3032:3036   */\n      0x00\n        /* \"#utility.yul\":3055:3058   */\n      dup2\n        /* \"#utility.yul\":3047:3058   */\n      swap1\n      pop\n        /* \"#utility.yul\":3085:3089   */\n      0x20\n        /* \"#utility.yul\":3080:3083   */\n      dup3\n        /* \"#utility.yul\":3076:3090   */\n      add\n        /* \"#utility.yul\":3068:3090   */\n      swap1\n      pop\n        /* \"#utility.yul\":2965:3097   */\n      swap2\n      swap1\n      pop\n      jump\t// out\n        /* \"#utility.yul\":3103:3211   */\n    tag_373:\n        /* \"#utility.yul\":3180:3204   */\n      tag_504\n        /* \"#utility.yul\":3198:3203   */\n      dup2\n        /* \"#utility.yul\":3180:3204   */\n      tag_363\n      jump\t// in\n    tag_504:\n        /* \"#utility.yul\":3175:3178   */\n      dup3\n        /* \"#utility.yul\":3168:3205   */\n      mstore\n        /* \"#utility.yul\":3103:3211   */\n      pop\n      pop\n      jump\t// out\n        /* \"#utility.yul\":3217:3396   */\n    tag_374:\n        /* \"#utility.yul\":3286:3296   */\n      0x00\n        /* \"#utility.yul\":3307:3353   */\n      tag_506\n        /* \"#utility.yul\":3349:3352   */\n      dup4\n        /* \"#utility.yul\":3341:3347   */\n      dup4\n        /* \"#utility.yul\":3307:3353   */\n      tag_373\n      jump\t// in\n    tag_506:\n        /* \"#utility.yul\":3385:3389   */\n      0x20\n        /* \"#utility.yul\":3380:3383   */\n      dup4\n        /* \"#utility.yul\":3376:3390   */\n      add\n        /* \"#utility.yul\":3362:3390   */\n      swap1\n      pop\n        /* \"#utility.yul\":3217:3396   */\n      swap3\n      swap2\n      pop\n      pop\n      jump\t// out\n        /* \"#utility.yul\":3402:3515   */\n    tag_375:\n        /* \"#utility.yul\":3472:3476   */\n      0x00\n        /* \"#utility.yul\":3504:3508   */\n      0x20\n        /* \"#utility.yul\":3499:3502   */\n      dup3\n        /* \"#utility.yul\":3495:3509   */\n      add\n        /* \"#utility.yul\":3487:3509   */\n      swap1\n      pop\n        /* \"#utility.yul\":3402:3515   */\n      swap2\n      swap1\n      pop\n      jump\t// out\n        /* \"#utility.yul\":3551:4283   */\n    tag_376:\n        /* \"#utility.yul\":3670:3673   */\n      0x00\n        /* \"#utility.yul\":3699:3753   */\n      tag_509\n        /* \"#utility.yul\":3747:3752   */\n      dup3\n        /* \"#utility.yul\":3699:3753   */\n      tag_370\n      jump\t// in\n    tag_509:\n        /* \"#utility.yul\":3769:3855   */\n      tag_510\n        /* \"#utility.yul\":3848:3854   */\n      dup2\n        /* \"#utility.yul\":3843:3846   */\n      dup6\n        /* \"#utility.yul\":3769:3855   */\n      tag_371\n      jump\t// in\n    tag_510:\n        /* \"#utility.yul\":3762:3855   */\n      swap4\n      pop\n        /* \"#utility.yul\":3879:3935   */\n      tag_511\n        /* \"#utility.yul\":3929:3934   */\n      dup4\n        /* \"#utility.yul\":3879:3935   */\n      tag_372\n      jump\t// in\n    tag_511:\n        /* \"#utility.yul\":3958:3965   */\n      dup1\n        /* \"#utility.yul\":3989:3990   */\n      0x00\n        /* \"#utility.yul\":3974:4258   */\n    tag_512:\n        /* \"#utility.yul\":3999:4005   */\n      dup4\n        /* \"#utility.yul\":3996:3997   */\n      dup2\n        /* \"#utility.yul\":3993:4006   */\n      lt\n        /* \"#utility.yul\":3974:4258   */\n      iszero\n      tag_514\n      jumpi\n        /* \"#utility.yul\":4075:4081   */\n      dup2\n        /* \"#utility.yul\":4069:4082   */\n      mload\n        /* \"#utility.yul\":4102:4165   */\n      tag_515\n        /* \"#utility.yul\":4161:4164   */\n      dup9\n        /* \"#utility.yul\":4146:4159   */\n      dup3\n        /* \"#utility.yul\":4102:4165   */\n      tag_374\n      jump\t// in\n    tag_515:\n        /* \"#utility.yul\":4095:4165   */\n      swap8\n      pop\n        /* \"#utility.yul\":4188:4248   */\n      tag_516\n        /* \"#utility.yul\":4241:4247   */\n      dup4\n        /* \"#utility.yul\":4188:4248   */\n      tag_375\n      jump\t// in\n    tag_516:\n        /* \"#utility.yul\":4178:4248   */\n      swap3\n      pop\n        /* \"#utility.yul\":4034:4258   */\n      pop\n        /* \"#utility.yul\":4021:4022   */\n      0x01\n        /* \"#utility.yul\":4018:4019   */\n      dup2\n        /* \"#utility.yul\":4014:4023   */\n      add\n        /* \"#utility.yul\":4009:4023   */\n      swap1\n      pop\n        /* \"#utility.yul\":3974:4258   */\n      jump(tag_512)\n    tag_514:\n        /* \"#utility.yul\":3978:3992   */\n      pop\n        /* \"#utility.yul\":4274:4277   */\n      dup6\n        /* \"#utility.yul\":4267:4277   */\n      swap4\n      pop\n        /* \"#utility.yul\":3675:4283   */\n      pop\n      pop\n      pop\n        /* \"#utility.yul\":3551:4283   */\n      swap3\n      swap2\n      pop\n      pop\n      jump\t// out\n        /* \"#utility.yul\":4289:4662   */\n    tag_43:\n        /* \"#utility.yul\":4432:4436   */\n      0x00\n        /* \"#utility.yul\":4470:4472   */\n      0x20\n        /* \"#utility.yul\":4459:4468   */\n      dup3\n        /* \"#utility.yul\":4455:4473   */\n      add\n        /* \"#utility.yul\":4447:4473   */\n      swap1\n      pop\n        /* \"#utility.yul\":4519:4528   */\n      dup2\n        /* \"#utility.yul\":4513:4517   */\n      dup2\n        /* \"#utility.yul\":4509:4529   */\n      sub\n        /* \"#utility.yul\":4505:4506   */\n      0x00\n        /* \"#utility.yul\":4494:4503   */\n      dup4\n        /* \"#utility.yul\":4490:4507   */\n      add\n        /* \"#utility.yul\":4483:4530   */\n      mstore\n        /* \"#utility.yul\":4547:4655   */\n      tag_518\n        /* \"#utility.yul\":4650:4654   */\n      dup2\n        /* \"#utility.yul\":4641:4647   */\n      dup5\n        /* \"#utility.yul\":4547:4655   */\n      tag_376\n      jump\t// in\n    tag_518:\n        /* \"#utility.yul\":4539:4655   */\n      swap1\n      pop\n        /* \"#utility.yul\":4289:4662   */\n      swap3\n      swap2\n      pop\n      pop\n      jump\t// out\n        /* \"#utility.yul\":4668:4823   */\n    tag_377:\n        /* \"#utility.yul\":4776:4782   */\n      0x00\n        /* \"#utility.yul\":4810:4815   */\n      dup2\n        /* \"#utility.yul\":4804:4816   */\n      mload\n        /* \"#utility.yul\":4794:4816   */\n      swap1\n      pop\n        /* \"#utility.yul\":4668:4823   */\n      swap2\n      swap1\n      pop\n      jump\t// out\n        /* \"#utility.yul\":4829:5054   */\n    tag_378:\n        /* \"#utility.yul\":4969:4980   */\n      0x00\n        /* \"#utility.yul\":5003:5009   */\n      dup3\n        /* \"#utility.yul\":4998:5001   */\n      dup3\n        /* \"#utility.yul\":4991:5010   */\n      mstore\n        /* \"#utility.yul\":5043:5047   */\n      0x20\n        /* \"#utility.yul\":5038:5041   */\n      dup3\n        /* \"#utility.yul\":5034:5048   */\n      add\n        /* \"#utility.yul\":5019:5048   */\n      swap1\n      pop\n        /* \"#utility.yul\":4829:5054   */\n      swap3\n      swap2\n      pop\n      pop\n      jump\t// out\n        /* \"#utility.yul\":5060:5233   */\n    tag_379:\n        /* \"#utility.yul\":5168:5172   */\n      0x00\n        /* \"#utility.yul\":5191:5194   */\n      dup2\n        /* \"#utility.yul\":5183:5194   */\n      swap1\n      pop\n        /* \"#utility.yul\":5221:5225   */\n      0x20\n        /* \"#utility.yul\":5216:5219   */\n      dup3\n        /* \"#utility.yul\":5212:5226   */\n      add\n        /* \"#utility.yul\":5204:5226   */\n      swap1\n      pop\n        /* \"#utility.yul\":5060:5233   */\n      swap2\n      swap1\n      pop\n      jump\t// out\n        /* \"#utility.yul\":5239:5315   */\n    tag_380:\n        /* \"#utility.yul\":5275:5282   */\n      0x00\n        /* \"#utility.yul\":5304:5309   */\n      dup2\n        /* \"#utility.yul\":5293:5309   */\n      swap1\n      pop\n        /* \"#utility.yul\":5239:5315   */\n      swap2\n      swap1\n      pop\n      jump\t// out\n        /* \"#utility.yul\":5321:5426   */\n    tag_381:\n        /* \"#utility.yul\":5396:5419   */\n      tag_524\n        /* \"#utility.yul\":5413:5418   */\n      dup2\n        /* \"#utility.yul\":5396:5419   */\n      tag_380\n      jump\t// in\n    tag_524:\n        /* \"#utility.yul\":5391:5394   */\n      dup3\n        /* \"#utility.yul\":5384:5420   */\n      mstore\n        /* \"#utility.yul\":5321:5426   */\n      pop\n      pop\n      jump\t// out\n        /* \"#utility.yul\":5432:5540   */\n    tag_382:\n        /* \"#utility.yul\":5509:5533   */\n      tag_526\n        /* \"#utility.yul\":5527:5532   */\n      dup2\n        /* \"#utility.yul\":5509:5533   */\n      tag_366\n      jump\t// in\n    tag_526:\n        /* \"#utility.yul\":5504:5507   */\n      dup3\n        /* \"#utility.yul\":5497:5534   */\n      mstore\n        /* \"#utility.yul\":5432:5540   */\n      pop\n      pop\n      jump\t// out\n        /* \"#utility.yul\":5684:6578   */\n    tag_383:\n        /* \"#utility.yul\":5853:5857   */\n      0x80\n        /* \"#utility.yul\":5848:5851   */\n      dup3\n        /* \"#utility.yul\":5844:5858   */\n      add\n        /* \"#utility.yul\":5946:5950   */\n      0x00\n        /* \"#utility.yul\":5939:5944   */\n      dup3\n        /* \"#utility.yul\":5935:5951   */\n      add\n        /* \"#utility.yul\":5929:5952   */\n      mload\n        /* \"#utility.yul\":5965:6028   */\n      tag_528\n        /* \"#utility.yul\":6022:6026   */\n      0x00\n        /* \"#utility.yul\":6017:6020   */\n      dup6\n        /* \"#utility.yul\":6013:6027   */\n      add\n        /* \"#utility.yul\":5999:6011   */\n      dup3\n        /* \"#utility.yul\":5965:6028   */\n      tag_373\n      jump\t// in\n    tag_528:\n        /* \"#utility.yul\":5868:6038   */\n      pop\n        /* \"#utility.yul\":6125:6129   */\n      0x20\n        /* \"#utility.yul\":6118:6123   */\n      dup3\n        /* \"#utility.yul\":6114:6130   */\n      add\n        /* \"#utility.yul\":6108:6131   */\n      mload\n        /* \"#utility.yul\":6144:6207   */\n      tag_529\n        /* \"#utility.yul\":6201:6205   */\n      0x20\n        /* \"#utility.yul\":6196:6199   */\n      dup6\n        /* \"#utility.yul\":6192:6206   */\n      add\n        /* \"#utility.yul\":6178:6190   */\n      dup3\n        /* \"#utility.yul\":6144:6207   */\n      tag_373\n      jump\t// in\n    tag_529:\n        /* \"#utility.yul\":6048:6217   */\n      pop\n        /* \"#utility.yul\":6301:6305   */\n      0x40\n        /* \"#utility.yul\":6294:6299   */\n      dup3\n        /* \"#utility.yul\":6290:6306   */\n      add\n        /* \"#utility.yul\":6284:6307   */\n      mload\n        /* \"#utility.yul\":6320:6381   */\n      tag_530\n        /* \"#utility.yul\":6375:6379   */\n      0x40\n        /* \"#utility.yul\":6370:6373   */\n      dup6\n        /* \"#utility.yul\":6366:6380   */\n      add\n        /* \"#utility.yul\":6352:6364   */\n      dup3\n        /* \"#utility.yul\":6320:6381   */\n      tag_381\n      jump\t// in\n    tag_530:\n        /* \"#utility.yul\":6227:6391   */\n      pop\n        /* \"#utility.yul\":6479:6483   */\n      0x60\n        /* \"#utility.yul\":6472:6477   */\n      dup3\n        /* \"#utility.yul\":6468:6484   */\n      add\n        /* \"#utility.yul\":6462:6485   */\n      mload\n        /* \"#utility.yul\":6498:6561   */\n      tag_531\n        /* \"#utility.yul\":6555:6559   */\n      0x60\n        /* \"#utility.yul\":6550:6553   */\n      dup6\n        /* \"#utility.yul\":6546:6560   */\n      add\n        /* \"#utility.yul\":6532:6544   */\n      dup3\n        /* \"#utility.yul\":6498:6561   */\n      tag_382\n      jump\t// in\n    tag_531:\n        /* \"#utility.yul\":6401:6571   */\n      pop\n        /* \"#utility.yul\":5822:6578   */\n      pop\n        /* \"#utility.yul\":5684:6578   */\n      pop\n      pop\n      jump\t// out\n        /* \"#utility.yul\":6584:6927   */\n    tag_384:\n        /* \"#utility.yul\":6735:6745   */\n      0x00\n        /* \"#utility.yul\":6756:6884   */\n      tag_533\n        /* \"#utility.yul\":6880:6883   */\n      dup4\n        /* \"#utility.yul\":6872:6878   */\n      dup4\n        /* \"#utility.yul\":6756:6884   */\n      tag_383\n      jump\t// in\n    tag_533:\n        /* \"#utility.yul\":6916:6920   */\n      0x80\n        /* \"#utility.yul\":6911:6914   */\n      dup4\n        /* \"#utility.yul\":6907:6921   */\n      add\n        /* \"#utility.yul\":6893:6921   */\n      swap1\n      pop\n        /* \"#utility.yul\":6584:6927   */\n      swap3\n      swap2\n      pop\n      pop\n      jump\t// out\n        /* \"#utility.yul\":6933:7087   */\n    tag_385:\n        /* \"#utility.yul\":7044:7048   */\n      0x00\n        /* \"#utility.yul\":7076:7080   */\n      0x20\n        /* \"#utility.yul\":7071:7074   */\n      dup3\n        /* \"#utility.yul\":7067:7081   */\n      add\n        /* \"#utility.yul\":7059:7081   */\n      swap1\n      pop\n        /* \"#utility.yul\":6933:7087   */\n      swap2\n      swap1\n      pop\n      jump\t// out\n        /* \"#utility.yul\":7235:8295   */\n    tag_386:\n        /* \"#utility.yul\":7436:7439   */\n      0x00\n        /* \"#utility.yul\":7465:7560   */\n      tag_536\n        /* \"#utility.yul\":7554:7559   */\n      dup3\n        /* \"#utility.yul\":7465:7560   */\n      tag_377\n      jump\t// in\n    tag_536:\n        /* \"#utility.yul\":7576:7703   */\n      tag_537\n        /* \"#utility.yul\":7696:7702   */\n      dup2\n        /* \"#utility.yul\":7691:7694   */\n      dup6\n        /* \"#utility.yul\":7576:7703   */\n      tag_378\n      jump\t// in\n    tag_537:\n        /* \"#utility.yul\":7569:7703   */\n      swap4\n      pop\n        /* \"#utility.yul\":7727:7824   */\n      tag_538\n        /* \"#utility.yul\":7818:7823   */\n      dup4\n        /* \"#utility.yul\":7727:7824   */\n      tag_379\n      jump\t// in\n    tag_538:\n        /* \"#utility.yul\":7847:7854   */\n      dup1\n        /* \"#utility.yul\":7878:7879   */\n      0x00\n        /* \"#utility.yul\":7863:8270   */\n    tag_539:\n        /* \"#utility.yul\":7888:7894   */\n      dup4\n        /* \"#utility.yul\":7885:7886   */\n      dup2\n        /* \"#utility.yul\":7882:7895   */\n      lt\n        /* \"#utility.yul\":7863:8270   */\n      iszero\n      tag_541\n      jumpi\n        /* \"#utility.yul\":7964:7970   */\n      dup2\n        /* \"#utility.yul\":7958:7971   */\n      mload\n        /* \"#utility.yul\":7991:8136   */\n      tag_542\n        /* \"#utility.yul\":8132:8135   */\n      dup9\n        /* \"#utility.yul\":8117:8130   */\n      dup3\n        /* \"#utility.yul\":7991:8136   */\n      tag_384\n      jump\t// in\n    tag_542:\n        /* \"#utility.yul\":7984:8136   */\n      swap8\n      pop\n        /* \"#utility.yul\":8159:8260   */\n      tag_543\n        /* \"#utility.yul\":8253:8259   */\n      dup4\n        /* \"#utility.yul\":8159:8260   */\n      tag_385\n      jump\t// in\n    tag_543:\n        /* \"#utility.yul\":8149:8260   */\n      swap3\n      pop\n        /* \"#utility.yul\":7923:8270   */\n      pop\n        /* \"#utility.yul\":7910:7911   */\n      0x01\n        /* \"#utility.yul\":7907:7908   */\n      dup2\n        /* \"#utility.yul\":7903:7912   */\n      add\n        /* \"#utility.yul\":7898:7912   */\n      swap1\n      pop\n        /* \"#utility.yul\":7863:8270   */\n      jump(tag_539)\n    tag_541:\n        /* \"#utility.yul\":7867:7881   */\n      pop\n        /* \"#utility.yul\":8286:8289   */\n      dup6\n        /* \"#utility.yul\":8279:8289   */\n      swap4\n      pop\n        /* \"#utility.yul\":7441:8295   */\n      pop\n      pop\n      pop\n        /* \"#utility.yul\":7235:8295   */\n      swap3\n      swap2\n      pop\n      pop\n      jump\t// out\n        /* \"#utility.yul\":8301:8838   */\n    tag_53:\n        /* \"#utility.yul\":8526:8530   */\n      0x00\n        /* \"#utility.yul\":8564:8566   */\n      0x20\n        /* \"#utility.yul\":8553:8562   */\n      dup3\n        /* \"#utility.yul\":8549:8567   */\n      add\n        /* \"#utility.yul\":8541:8567   */\n      swap1\n      pop\n        /* \"#utility.yul\":8613:8622   */\n      dup2\n        /* \"#utility.yul\":8607:8611   */\n      dup2\n        /* \"#utility.yul\":8603:8623   */\n      sub\n        /* \"#utility.yul\":8599:8600   */\n      0x00\n        /* \"#utility.yul\":8588:8597   */\n      dup4\n        /* \"#utility.yul\":8584:8601   */\n      add\n        /* \"#utility.yul\":8577:8624   */\n      mstore\n        /* \"#utility.yul\":8641:8831   */\n      tag_545\n        /* \"#utility.yul\":8826:8830   */\n      dup2\n        /* \"#utility.yul\":8817:8823   */\n      dup5\n        /* \"#utility.yul\":8641:8831   */\n      tag_386\n      jump\t// in\n    tag_545:\n        /* \"#utility.yul\":8633:8831   */\n      swap1\n      pop\n        /* \"#utility.yul\":8301:8838   */\n      swap3\n      swap2\n      pop\n      pop\n      jump\t// out\n        /* \"#utility.yul\":8844:9173   */\n    tag_57:\n        /* \"#utility.yul\":8903:8909   */\n      0x00\n        /* \"#utility.yul\":8952:8954   */\n      0x20\n        /* \"#utility.yul\":8940:8949   */\n      dup3\n        /* \"#utility.yul\":8931:8938   */\n      dup5\n        /* \"#utility.yul\":8927:8950   */\n      sub\n        /* \"#utility.yul\":8923:8955   */\n      slt\n        /* \"#utility.yul\":8920:9039   */\n      iszero\n      tag_547\n      jumpi\n        /* \"#utility.yul\":8958:9037   */\n      tag_548\n      tag_360\n      jump\t// in\n    tag_548:\n        /* \"#utility.yul\":8920:9039   */\n    tag_547:\n        /* \"#utility.yul\":9078:9079   */\n      0x00\n        /* \"#utility.yul\":9103:9156   */\n      tag_549\n        /* \"#utility.yul\":9148:9155   */\n      dup5\n        /* \"#utility.yul\":9139:9145   */\n      dup3\n        /* \"#utility.yul\":9128:9137   */\n      dup6\n        /* \"#utility.yul\":9124:9146   */\n      add\n        /* \"#utility.yul\":9103:9156   */\n      tag_369\n      jump\t// in\n    tag_549:\n        /* \"#utility.yul\":9093:9156   */\n      swap2\n      pop\n        /* \"#utility.yul\":9049:9166   */\n      pop\n        /* \"#utility.yul\":8844:9173   */\n      swap3\n      swap2\n      pop\n      pop\n      jump\t// out\n        /* \"#utility.yul\":9179:9297   */\n    tag_387:\n        /* \"#utility.yul\":9266:9290   */\n      tag_551\n        /* \"#utility.yul\":9284:9289   */\n      dup2\n        /* \"#utility.yul\":9266:9290   */\n      tag_363\n      jump\t// in\n    tag_551:\n        /* \"#utility.yul\":9261:9264   */\n      dup3\n        /* \"#utility.yul\":9254:9291   */\n      mstore\n        /* \"#utility.yul\":9179:9297   */\n      pop\n      pop\n      jump\t// out\n        /* \"#utility.yul\":9303:9418   */\n    tag_388:\n        /* \"#utility.yul\":9388:9411   */\n      tag_553\n        /* \"#utility.yul\":9405:9410   */\n      dup2\n        /* \"#utility.yul\":9388:9411   */\n      tag_380\n      jump\t// in\n    tag_553:\n        /* \"#utility.yul\":9383:9386   */\n      dup3\n        /* \"#utility.yul\":9376:9412   */\n      mstore\n        /* \"#utility.yul\":9303:9418   */\n      pop\n      pop\n      jump\t// out\n        /* \"#utility.yul\":9424:9973   */\n    tag_60:\n        /* \"#utility.yul\":9599:9603   */\n      0x00\n        /* \"#utility.yul\":9637:9640   */\n      0x80\n        /* \"#utility.yul\":9626:9635   */\n      dup3\n        /* \"#utility.yul\":9622:9641   */\n      add\n        /* \"#utility.yul\":9614:9641   */\n      swap1\n      pop\n        /* \"#utility.yul\":9651:9722   */\n      tag_555\n        /* \"#utility.yul\":9719:9720   */\n      0x00\n        /* \"#utility.yul\":9708:9717   */\n      dup4\n        /* \"#utility.yul\":9704:9721   */\n      add\n        /* \"#utility.yul\":9695:9701   */\n      dup8\n        /* \"#utility.yul\":9651:9722   */\n      tag_387\n      jump\t// in\n    tag_555:\n        /* \"#utility.yul\":9732:9804   */\n      tag_556\n        /* \"#utility.yul\":9800:9802   */\n      0x20\n        /* \"#utility.yul\":9789:9798   */\n      dup4\n        /* \"#utility.yul\":9785:9803   */\n      add\n        /* \"#utility.yul\":9776:9782   */\n      dup7\n        /* \"#utility.yul\":9732:9804   */\n      tag_387\n      jump\t// in\n    tag_556:\n        /* \"#utility.yul\":9814:9884   */\n      tag_557\n        /* \"#utility.yul\":9880:9882   */\n      0x40\n        /* \"#utility.yul\":9869:9878   */\n      dup4\n        /* \"#utility.yul\":9865:9883   */\n      add\n        /* \"#utility.yul\":9856:9862   */\n      dup6\n        /* \"#utility.yul\":9814:9884   */\n      tag_388\n      jump\t// in\n    tag_557:\n        /* \"#utility.yul\":9894:9966   */\n      tag_558\n        /* \"#utility.yul\":9962:9964   */\n      0x60\n        /* \"#utility.yul\":9951:9960   */\n      dup4\n        /* \"#utility.yul\":9947:9965   */\n      add\n        /* \"#utility.yul\":9938:9944   */\n      dup5\n        /* \"#utility.yul\":9894:9966   */\n      tag_367\n      jump\t// in\n    tag_558:\n        /* \"#utility.yul\":9424:9973   */\n      swap6\n      swap5\n      pop\n      pop\n      pop\n      pop\n      pop\n      jump\t// out\n        /* \"#utility.yul\":9979:10096   */\n    tag_389:\n        /* \"#utility.yul\":10088:10089   */\n      0x00\n        /* \"#utility.yul\":10085:10086   */\n      dup1\n        /* \"#utility.yul\":10078:10090   */\n      revert\n        /* \"#utility.yul\":10102:10219   */\n    tag_390:\n        /* \"#utility.yul\":10211:10212   */\n      0x00\n        /* \"#utility.yul\":10208:10209   */\n      dup1\n        /* \"#utility.yul\":10201:10213   */\n      revert\n        /* \"#utility.yul\":10225:10327   */\n    tag_391:\n        /* \"#utility.yul\":10266:10272   */\n      0x00\n        /* \"#utility.yul\":10317:10319   */\n      0x1f\n        /* \"#utility.yul\":10313:10320   */\n      not\n        /* \"#utility.yul\":10308:10310   */\n      0x1f\n        /* \"#utility.yul\":10301:10306   */\n      dup4\n        /* \"#utility.yul\":10297:10311   */\n      add\n        /* \"#utility.yul\":10293:10321   */\n      and\n        /* \"#utility.yul\":10283:10321   */\n      swap1\n      pop\n        /* \"#utility.yul\":10225:10327   */\n      swap2\n      swap1\n      pop\n      jump\t// out\n        /* \"#utility.yul\":10333:10513   */\n    tag_392:\n        /* \"#utility.yul\":10381:10458   */\n      0x4e487b7100000000000000000000000000000000000000000000000000000000\n        /* \"#utility.yul\":10378:10379   */\n      0x00\n        /* \"#utility.yul\":10371:10459   */\n      mstore\n        /* \"#utility.yul\":10478:10482   */\n      0x41\n        /* \"#utility.yul\":10475:10476   */\n      0x04\n        /* \"#utility.yul\":10468:10483   */\n      mstore\n        /* \"#utility.yul\":10502:10506   */\n      0x24\n        /* \"#utility.yul\":10499:10500   */\n      0x00\n        /* \"#utility.yul\":10492:10507   */\n      revert\n        /* \"#utility.yul\":10519:10800   */\n    tag_393:\n        /* \"#utility.yul\":10602:10629   */\n      tag_564\n        /* \"#utility.yul\":10624:10628   */\n      dup3\n        /* \"#utility.yul\":10602:10629   */\n      tag_391\n      jump\t// in\n    tag_564:\n        /* \"#utility.yul\":10594:10600   */\n      dup2\n        /* \"#utility.yul\":10590:10630   */\n      add\n        /* \"#utility.yul\":10732:10738   */\n      dup2\n        /* \"#utility.yul\":10720:10730   */\n      dup2\n        /* \"#utility.yul\":10717:10739   */\n      lt\n        /* \"#utility.yul\":10696:10714   */\n      0xffffffffffffffff\n        /* \"#utility.yul\":10684:10694   */\n      dup3\n        /* \"#utility.yul\":10681:10715   */\n      gt\n        /* \"#utility.yul\":10678:10740   */\n      or\n        /* \"#utility.yul\":10675:10763   */\n      iszero\n      tag_565\n      jumpi\n        /* \"#utility.yul\":10743:10761   */\n      tag_566\n      tag_392\n      jump\t// in\n    tag_566:\n        /* \"#utility.yul\":10675:10763   */\n    tag_565:\n        /* \"#utility.yul\":10783:10793   */\n      dup1\n        /* \"#utility.yul\":10779:10781   */\n      0x40\n        /* \"#utility.yul\":10772:10794   */\n      mstore\n        /* \"#utility.yul\":10562:10800   */\n      pop\n        /* \"#utility.yul\":10519:10800   */\n      pop\n      pop\n      jump\t// out\n        /* \"#utility.yul\":10806:10935   */\n    tag_394:\n        /* \"#utility.yul\":10840:10846   */\n      0x00\n        /* \"#utility.yul\":10867:10887   */\n      tag_568\n      tag_359\n      jump\t// in\n    tag_568:\n        /* \"#utility.yul\":10857:10887   */\n      swap1\n      pop\n        /* \"#utility.yul\":10896:10929   */\n      tag_569\n        /* \"#utility.yul\":10924:10928   */\n      dup3\n        /* \"#utility.yul\":10916:10922   */\n      dup3\n        /* \"#utility.yul\":10896:10929   */\n      tag_393\n      jump\t// in\n    tag_569:\n        /* \"#utility.yul\":10806:10935   */\n      swap2\n      swap1\n      pop\n      jump\t// out\n        /* \"#utility.yul\":10941:11249   */\n    tag_395:\n        /* \"#utility.yul\":11003:11007   */\n      0x00\n        /* \"#utility.yul\":11093:11111   */\n      0xffffffffffffffff\n        /* \"#utility.yul\":11085:11091   */\n      dup3\n        /* \"#utility.yul\":11082:11112   */\n      gt\n        /* \"#utility.yul\":11079:11135   */\n      iszero\n      tag_571\n      jumpi\n        /* \"#utility.yul\":11115:11133   */\n      tag_572\n      tag_392\n      jump\t// in\n    tag_572:\n        /* \"#utility.yul\":11079:11135   */\n    tag_571:\n        /* \"#utility.yul\":11153:11182   */\n      tag_573\n        /* \"#utility.yul\":11175:11181   */\n      dup3\n        /* \"#utility.yul\":11153:11182   */\n      tag_391\n      jump\t// in\n    tag_573:\n        /* \"#utility.yul\":11145:11182   */\n      swap1\n      pop\n        /* \"#utility.yul\":11237:11241   */\n      0x20\n        /* \"#utility.yul\":11231:11235   */\n      dup2\n        /* \"#utility.yul\":11227:11242   */\n      add\n        /* \"#utility.yul\":11219:11242   */\n      swap1\n      pop\n        /* \"#utility.yul\":10941:11249   */\n      swap2\n      swap1\n      pop\n      jump\t// out\n        /* \"#utility.yul\":11255:11403   */\n    tag_396:\n        /* \"#utility.yul\":11353:11359   */\n      dup3\n        /* \"#utility.yul\":11348:11351   */\n      dup2\n        /* \"#utility.yul\":11343:11346   */\n      dup4\n        /* \"#utility.yul\":11330:11360   */\n      calldatacopy\n        /* \"#utility.yul\":11394:11395   */\n      0x00\n        /* \"#utility.yul\":11385:11391   */\n      dup4\n        /* \"#utility.yul\":11380:11383   */\n      dup4\n        /* \"#utility.yul\":11376:11392   */\n      add\n        /* \"#utility.yul\":11369:11396   */\n      mstore\n        /* \"#utility.yul\":11255:11403   */\n      pop\n      pop\n      pop\n      jump\t// out\n        /* \"#utility.yul\":11409:11834   */\n    tag_397:\n        /* \"#utility.yul\":11487:11492   */\n      0x00\n        /* \"#utility.yul\":11512:11578   */\n      tag_576\n        /* \"#utility.yul\":11528:11577   */\n      tag_577\n        /* \"#utility.yul\":11570:11576   */\n      dup5\n        /* \"#utility.yul\":11528:11577   */\n      tag_395\n      jump\t// in\n    tag_577:\n        /* \"#utility.yul\":11512:11578   */\n      tag_394\n      jump\t// in\n    tag_576:\n        /* \"#utility.yul\":11503:11578   */\n      swap1\n      pop\n        /* \"#utility.yul\":11601:11607   */\n      dup3\n        /* \"#utility.yul\":11594:11599   */\n      dup2\n        /* \"#utility.yul\":11587:11608   */\n      mstore\n        /* \"#utility.yul\":11639:11643   */\n      0x20\n        /* \"#utility.yul\":11632:11637   */\n      dup2\n        /* \"#utility.yul\":11628:11644   */\n      add\n        /* \"#utility.yul\":11677:11680   */\n      dup5\n        /* \"#utility.yul\":11668:11674   */\n      dup5\n        /* \"#utility.yul\":11663:11666   */\n      dup5\n        /* \"#utility.yul\":11659:11675   */\n      add\n        /* \"#utility.yul\":11656:11681   */\n      gt\n        /* \"#utility.yul\":11653:11765   */\n      iszero\n      tag_578\n      jumpi\n        /* \"#utility.yul\":11684:11763   */\n      tag_579\n      tag_390\n      jump\t// in\n    tag_579:\n        /* \"#utility.yul\":11653:11765   */\n    tag_578:\n        /* \"#utility.yul\":11774:11828   */\n      tag_580\n        /* \"#utility.yul\":11821:11827   */\n      dup5\n        /* \"#utility.yul\":11816:11819   */\n      dup3\n        /* \"#utility.yul\":11811:11814   */\n      dup6\n        /* \"#utility.yul\":11774:11828   */\n      tag_396\n      jump\t// in\n    tag_580:\n        /* \"#utility.yul\":11493:11834   */\n      pop\n        /* \"#utility.yul\":11409:11834   */\n      swap4\n      swap3\n      pop\n      pop\n      pop\n      jump\t// out\n        /* \"#utility.yul\":11854:12194   */\n    tag_398:\n        /* \"#utility.yul\":11910:11915   */\n      0x00\n        /* \"#utility.yul\":11959:11962   */\n      dup3\n        /* \"#utility.yul\":11952:11956   */\n      0x1f\n        /* \"#utility.yul\":11944:11950   */\n      dup4\n        /* \"#utility.yul\":11940:11957   */\n      add\n        /* \"#utility.yul\":11936:11963   */\n      slt\n        /* \"#utility.yul\":11926:12048   */\n      tag_582\n      jumpi\n        /* \"#utility.yul\":11967:12046   */\n      tag_583\n      tag_389\n      jump\t// in\n    tag_583:\n        /* \"#utility.yul\":11926:12048   */\n    tag_582:\n        /* \"#utility.yul\":12084:12090   */\n      dup2\n        /* \"#utility.yul\":12071:12091   */\n      calldataload\n        /* \"#utility.yul\":12109:12188   */\n      tag_584\n        /* \"#utility.yul\":12184:12187   */\n      dup5\n        /* \"#utility.yul\":12176:12182   */\n      dup3\n        /* \"#utility.yul\":12169:12173   */\n      0x20\n        /* \"#utility.yul\":12161:12167   */\n      dup7\n        /* \"#utility.yul\":12157:12174   */\n      add\n        /* \"#utility.yul\":12109:12188   */\n      tag_397\n      jump\t// in\n    tag_584:\n        /* \"#utility.yul\":12100:12188   */\n      swap2\n      pop\n        /* \"#utility.yul\":11916:12194   */\n      pop\n        /* \"#utility.yul\":11854:12194   */\n      swap3\n      swap2\n      pop\n      pop\n      jump\t// out\n        /* \"#utility.yul\":12200:12999   */\n    tag_64:\n        /* \"#utility.yul\":12287:12293   */\n      0x00\n        /* \"#utility.yul\":12295:12301   */\n      dup1\n        /* \"#utility.yul\":12303:12309   */\n      0x00\n        /* \"#utility.yul\":12352:12354   */\n      0x60\n        /* \"#utility.yul\":12340:12349   */\n      dup5\n        /* \"#utility.yul\":12331:12338   */\n      dup7\n        /* \"#utility.yul\":12327:12350   */\n      sub\n        /* \"#utility.yul\":12323:12355   */\n      slt\n        /* \"#utility.yul\":12320:12439   */\n      iszero\n      tag_586\n      jumpi\n        /* \"#utility.yul\":12358:12437   */\n      tag_587\n      tag_360\n      jump\t// in\n    tag_587:\n        /* \"#utility.yul\":12320:12439   */\n    tag_586:\n        /* \"#utility.yul\":12478:12479   */\n      0x00\n        /* \"#utility.yul\":12503:12556   */\n      tag_588\n        /* \"#utility.yul\":12548:12555   */\n      dup7\n        /* \"#utility.yul\":12539:12545   */\n      dup3\n        /* \"#utility.yul\":12528:12537   */\n      dup8\n        /* \"#utility.yul\":12524:12546   */\n      add\n        /* \"#utility.yul\":12503:12556   */\n      tag_365\n      jump\t// in\n    tag_588:\n        /* \"#utility.yul\":12493:12556   */\n      swap4\n      pop\n        /* \"#utility.yul\":12449:12566   */\n      pop\n        /* \"#utility.yul\":12605:12607   */\n      0x20\n        /* \"#utility.yul\":12631:12684   */\n      tag_589\n        /* \"#utility.yul\":12676:12683   */\n      dup7\n        /* \"#utility.yul\":12667:12673   */\n      dup3\n        /* \"#utility.yul\":12656:12665   */\n      dup8\n        /* \"#utility.yul\":12652:12674   */\n      add\n        /* \"#utility.yul\":12631:12684   */\n      tag_369\n      jump\t// in\n    tag_589:\n        /* \"#utility.yul\":12621:12684   */\n      swap3\n      pop\n        /* \"#utility.yul\":12576:12694   */\n      pop\n        /* \"#utility.yul\":12761:12763   */\n      0x40\n        /* \"#utility.yul\":12750:12759   */\n      dup5\n        /* \"#utility.yul\":12746:12764   */\n      add\n        /* \"#utility.yul\":12733:12765   */\n      calldataload\n        /* \"#utility.yul\":12792:12810   */\n      0xffffffffffffffff\n        /* \"#utility.yul\":12784:12790   */\n      dup2\n        /* \"#utility.yul\":12781:12811   */\n      gt\n        /* \"#utility.yul\":12778:12895   */\n      iszero\n      tag_590\n      jumpi\n        /* \"#utility.yul\":12814:12893   */\n      tag_591\n      tag_361\n      jump\t// in\n    tag_591:\n        /* \"#utility.yul\":12778:12895   */\n    tag_590:\n        /* \"#utility.yul\":12919:12982   */\n      tag_592\n        /* \"#utility.yul\":12974:12981   */\n      dup7\n        /* \"#utility.yul\":12965:12971   */\n      dup3\n        /* \"#utility.yul\":12954:12963   */\n      dup8\n        /* \"#utility.yul\":12950:12972   */\n      add\n        /* \"#utility.yul\":12919:12982   */\n      tag_398\n      jump\t// in\n    tag_592:\n        /* \"#utility.yul\":12909:12982   */\n      swap2\n      pop\n        /* \"#utility.yul\":12704:12992   */\n      pop\n        /* \"#utility.yul\":12200:12999   */\n      swap3\n      pop\n      swap3\n      pop\n      swap3\n      jump\t// out\n        /* \"#utility.yul\":13005:13479   */\n    tag_69:\n        /* \"#utility.yul\":13073:13079   */\n      0x00\n        /* \"#utility.yul\":13081:13087   */\n      dup1\n        /* \"#utility.yul\":13130:13132   */\n      0x40\n        /* \"#utility.yul\":13118:13127   */\n      dup4\n        /* \"#utility.yul\":13109:13116   */\n      dup6\n        /* \"#utility.yul\":13105:13128   */\n      sub\n        /* \"#utility.yul\":13101:13133   */\n      slt\n        /* \"#utility.yul\":13098:13217   */\n      iszero\n      tag_594\n      jumpi\n        /* \"#utility.yul\":13136:13215   */\n      tag_595\n      tag_360\n      jump\t// in\n    tag_595:\n        /* \"#utility.yul\":13098:13217   */\n    tag_594:\n        /* \"#utility.yul\":13256:13257   */\n      0x00\n        /* \"#utility.yul\":13281:13334   */\n      tag_596\n        /* \"#utility.yul\":13326:13333   */\n      dup6\n        /* \"#utility.yul\":13317:13323   */\n      dup3\n        /* \"#utility.yul\":13306:13315   */\n      dup7\n        /* \"#utility.yul\":13302:13324   */\n      add\n        /* \"#utility.yul\":13281:13334   */\n      tag_365\n      jump\t// in\n    tag_596:\n        /* \"#utility.yul\":13271:13334   */\n      swap3\n      pop\n        /* \"#utility.yul\":13227:13344   */\n      pop\n        /* \"#utility.yul\":13383:13385   */\n      0x20\n        /* \"#utility.yul\":13409:13462   */\n      tag_597\n        /* \"#utility.yul\":13454:13461   */\n      dup6\n        /* \"#utility.yul\":13445:13451   */\n      dup3\n        /* \"#utility.yul\":13434:13443   */\n      dup7\n        /* \"#utility.yul\":13430:13452   */\n      add\n        /* \"#utility.yul\":13409:13462   */\n      tag_369\n      jump\t// in\n    tag_597:\n        /* \"#utility.yul\":13399:13462   */\n      swap2\n      pop\n        /* \"#utility.yul\":13354:13472   */\n      pop\n        /* \"#utility.yul\":13005:13479   */\n      swap3\n      pop\n      swap3\n      swap1\n      pop\n      jump\t// out\n        /* \"#utility.yul\":13485:13707   */\n    tag_76:\n        /* \"#utility.yul\":13578:13582   */\n      0x00\n        /* \"#utility.yul\":13616:13618   */\n      0x20\n        /* \"#utility.yul\":13605:13614   */\n      dup3\n        /* \"#utility.yul\":13601:13619   */\n      add\n        /* \"#utility.yul\":13593:13619   */\n      swap1\n      pop\n        /* \"#utility.yul\":13629:13700   */\n      tag_599\n        /* \"#utility.yul\":13697:13698   */\n      0x00\n        /* \"#utility.yul\":13686:13695   */\n      dup4\n        /* \"#utility.yul\":13682:13699   */\n      add\n        /* \"#utility.yul\":13673:13679   */\n      dup5\n        /* \"#utility.yul\":13629:13700   */\n      tag_387\n      jump\t// in\n    tag_599:\n        /* \"#utility.yul\":13485:13707   */\n      swap3\n      swap2\n      pop\n      pop\n      jump\t// out\n        /* \"#utility.yul\":13713:14187   */\n    tag_80:\n        /* \"#utility.yul\":13781:13787   */\n      0x00\n        /* \"#utility.yul\":13789:13795   */\n      dup1\n        /* \"#utility.yul\":13838:13840   */\n      0x40\n        /* \"#utility.yul\":13826:13835   */\n      dup4\n        /* \"#utility.yul\":13817:13824   */\n      dup6\n        /* \"#utility.yul\":13813:13836   */\n      sub\n        /* \"#utility.yul\":13809:13841   */\n      slt\n        /* \"#utility.yul\":13806:13925   */\n      iszero\n      tag_601\n      jumpi\n        /* \"#utility.yul\":13844:13923   */\n      tag_602\n      tag_360\n      jump\t// in\n    tag_602:\n        /* \"#utility.yul\":13806:13925   */\n    tag_601:\n        /* \"#utility.yul\":13964:13965   */\n      0x00\n        /* \"#utility.yul\":13989:14042   */\n      tag_603\n        /* \"#utility.yul\":14034:14041   */\n      dup6\n        /* \"#utility.yul\":14025:14031   */\n      dup3\n        /* \"#utility.yul\":14014:14023   */\n      dup7\n        /* \"#utility.yul\":14010:14032   */\n      add\n        /* \"#utility.yul\":13989:14042   */\n      tag_365\n      jump\t// in\n    tag_603:\n        /* \"#utility.yul\":13979:14042   */\n      swap3\n      pop\n        /* \"#utility.yul\":13935:14052   */\n      pop\n        /* \"#utility.yul\":14091:14093   */\n      0x20\n        /* \"#utility.yul\":14117:14170   */\n      tag_604\n        /* \"#utility.yul\":14162:14169   */\n      dup6\n        /* \"#utility.yul\":14153:14159   */\n      dup3\n        /* \"#utility.yul\":14142:14151   */\n      dup7\n        /* \"#utility.yul\":14138:14160   */\n      add\n        /* \"#utility.yul\":14117:14170   */\n      tag_365\n      jump\t// in\n    tag_604:\n        /* \"#utility.yul\":14107:14170   */\n      swap2\n      pop\n        /* \"#utility.yul\":14062:14180   */\n      pop\n        /* \"#utility.yul\":13713:14187   */\n      swap3\n      pop\n      swap3\n      swap1\n      pop\n      jump\t// out\n        /* \"#utility.yul\":14193:14411   */\n    tag_83:\n        /* \"#utility.yul\":14284:14288   */\n      0x00\n        /* \"#utility.yul\":14322:14324   */\n      0x20\n        /* \"#utility.yul\":14311:14320   */\n      dup3\n        /* \"#utility.yul\":14307:14325   */\n      add\n        /* \"#utility.yul\":14299:14325   */\n      swap1\n      pop\n        /* \"#utility.yul\":14335:14404   */\n      tag_606\n        /* \"#utility.yul\":14401:14402   */\n      0x00\n        /* \"#utility.yul\":14390:14399   */\n      dup4\n        /* \"#utility.yul\":14386:14403   */\n      add\n        /* \"#utility.yul\":14377:14383   */\n      dup5\n        /* \"#utility.yul\":14335:14404   */\n      tag_388\n      jump\t// in\n    tag_606:\n        /* \"#utility.yul\":14193:14411   */\n      swap3\n      swap2\n      pop\n      pop\n      jump\t// out\n        /* \"#utility.yul\":14417:14507   */\n    tag_399:\n        /* \"#utility.yul\":14451:14458   */\n      0x00\n        /* \"#utility.yul\":14494:14499   */\n      dup2\n        /* \"#utility.yul\":14487:14500   */\n      iszero\n        /* \"#utility.yul\":14480:14501   */\n      iszero\n        /* \"#utility.yul\":14469:14501   */\n      swap1\n      pop\n        /* \"#utility.yul\":14417:14507   */\n      swap2\n      swap1\n      pop\n      jump\t// out\n        /* \"#utility.yul\":14513:14622   */\n    tag_400:\n        /* \"#utility.yul\":14594:14615   */\n      tag_609\n        /* \"#utility.yul\":14609:14614   */\n      dup2\n        /* \"#utility.yul\":14594:14615   */\n      tag_399\n      jump\t// in\n    tag_609:\n        /* \"#utility.yul\":14589:14592   */\n      dup3\n        /* \"#utility.yul\":14582:14616   */\n      mstore\n        /* \"#utility.yul\":14513:14622   */\n      pop\n      pop\n      jump\t// out\n        /* \"#utility.yul\":14628:15613   */\n    tag_93:\n        /* \"#utility.yul\":14911:14915   */\n      0x00\n        /* \"#utility.yul\":14949:14952   */\n      0x0100\n        /* \"#utility.yul\":14938:14947   */\n      dup3\n        /* \"#utility.yul\":14934:14953   */\n      add\n        /* \"#utility.yul\":14926:14953   */\n      swap1\n      pop\n        /* \"#utility.yul\":14963:15034   */\n      tag_611\n        /* \"#utility.yul\":15031:15032   */\n      0x00\n        /* \"#utility.yul\":15020:15029   */\n      dup4\n        /* \"#utility.yul\":15016:15033   */\n      add\n        /* \"#utility.yul\":15007:15013   */\n      dup12\n        /* \"#utility.yul\":14963:15034   */\n      tag_387\n      jump\t// in\n    tag_611:\n        /* \"#utility.yul\":15044:15116   */\n      tag_612\n        /* \"#utility.yul\":15112:15114   */\n      0x20\n        /* \"#utility.yul\":15101:15110   */\n      dup4\n        /* \"#utility.yul\":15097:15115   */\n      add\n        /* \"#utility.yul\":15088:15094   */\n      dup11\n        /* \"#utility.yul\":15044:15116   */\n      tag_367\n      jump\t// in\n    tag_612:\n        /* \"#utility.yul\":15126:15198   */\n      tag_613\n        /* \"#utility.yul\":15194:15196   */\n      0x40\n        /* \"#utility.yul\":15183:15192   */\n      dup4\n        /* \"#utility.yul\":15179:15197   */\n      add\n        /* \"#utility.yul\":15170:15176   */\n      dup10\n        /* \"#utility.yul\":15126:15198   */\n      tag_367\n      jump\t// in\n    tag_613:\n        /* \"#utility.yul\":15208:15280   */\n      tag_614\n        /* \"#utility.yul\":15276:15278   */\n      0x60\n        /* \"#utility.yul\":15265:15274   */\n      dup4\n        /* \"#utility.yul\":15261:15279   */\n      add\n        /* \"#utility.yul\":15252:15258   */\n      dup9\n        /* \"#utility.yul\":15208:15280   */\n      tag_367\n      jump\t// in\n    tag_614:\n        /* \"#utility.yul\":15290:15363   */\n      tag_615\n        /* \"#utility.yul\":15358:15361   */\n      0x80\n        /* \"#utility.yul\":15347:15356   */\n      dup4\n        /* \"#utility.yul\":15343:15362   */\n      add\n        /* \"#utility.yul\":15334:15340   */\n      dup8\n        /* \"#utility.yul\":15290:15363   */\n      tag_367\n      jump\t// in\n    tag_615:\n        /* \"#utility.yul\":15373:15440   */\n      tag_616\n        /* \"#utility.yul\":15435:15438   */\n      0xa0\n        /* \"#utility.yul\":15424:15433   */\n      dup4\n        /* \"#utility.yul\":15420:15439   */\n      add\n        /* \"#utility.yul\":15411:15417   */\n      dup7\n        /* \"#utility.yul\":15373:15440   */\n      tag_400\n      jump\t// in\n    tag_616:\n        /* \"#utility.yul\":15450:15523   */\n      tag_617\n        /* \"#utility.yul\":15518:15521   */\n      0xc0\n        /* \"#utility.yul\":15507:15516   */\n      dup4\n        /* \"#utility.yul\":15503:15522   */\n      add\n        /* \"#utility.yul\":15494:15500   */\n      dup6\n        /* \"#utility.yul\":15450:15523   */\n      tag_367\n      jump\t// in\n    tag_617:\n        /* \"#utility.yul\":15533:15606   */\n      tag_618\n        /* \"#utility.yul\":15601:15604   */\n      0xe0\n        /* \"#utility.yul\":15590:15599   */\n      dup4\n        /* \"#utility.yul\":15586:15605   */\n      add\n        /* \"#utility.yul\":15577:15583   */\n      dup5\n        /* \"#utility.yul\":15533:15606   */\n      tag_367\n      jump\t// in\n    tag_618:\n        /* \"#utility.yul\":14628:15613   */\n      swap10\n      swap9\n      pop\n      pop\n      pop\n      pop\n      pop\n      pop\n      pop\n      pop\n      pop\n      jump\t// out\n        /* \"#utility.yul\":15619:15723   */\n    tag_401:\n        /* \"#utility.yul\":15664:15671   */\n      0x00\n        /* \"#utility.yul\":15693:15717   */\n      tag_620\n        /* \"#utility.yul\":15711:15716   */\n      dup3\n        /* \"#utility.yul\":15693:15717   */\n      tag_362\n      jump\t// in\n    tag_620:\n        /* \"#utility.yul\":15682:15717   */\n      swap1\n      pop\n        /* \"#utility.yul\":15619:15723   */\n      swap2\n      swap1\n      pop\n      jump\t// out\n        /* \"#utility.yul\":15729:15867   */\n    tag_402:\n        /* \"#utility.yul\":15810:15842   */\n      tag_622\n        /* \"#utility.yul\":15836:15841   */\n      dup2\n        /* \"#utility.yul\":15810:15842   */\n      tag_401\n      jump\t// in\n    tag_622:\n        /* \"#utility.yul\":15803:15808   */\n      dup2\n        /* \"#utility.yul\":15800:15843   */\n      eq\n        /* \"#utility.yul\":15790:15861   */\n      tag_623\n      jumpi\n        /* \"#utility.yul\":15857:15858   */\n      0x00\n        /* \"#utility.yul\":15854:15855   */\n      dup1\n        /* \"#utility.yul\":15847:15859   */\n      revert\n        /* \"#utility.yul\":15790:15861   */\n    tag_623:\n        /* \"#utility.yul\":15729:15867   */\n      pop\n      jump\t// out\n        /* \"#utility.yul\":15873:16028   */\n    tag_403:\n        /* \"#utility.yul\":15927:15932   */\n      0x00\n        /* \"#utility.yul\":15965:15971   */\n      dup2\n        /* \"#utility.yul\":15952:15972   */\n      calldataload\n        /* \"#utility.yul\":15943:15972   */\n      swap1\n      pop\n        /* \"#utility.yul\":15981:16022   */\n      tag_625\n        /* \"#utility.yul\":16016:16021   */\n      dup2\n        /* \"#utility.yul\":15981:16022   */\n      tag_402\n      jump\t// in\n    tag_625:\n        /* \"#utility.yul\":15873:16028   */\n      swap3\n      swap2\n      pop\n      pop\n      jump\t// out\n        /* \"#utility.yul\":16034:16524   */\n    tag_106:\n        /* \"#utility.yul\":16110:16116   */\n      0x00\n        /* \"#utility.yul\":16118:16124   */\n      dup1\n        /* \"#utility.yul\":16167:16169   */\n      0x40\n        /* \"#utility.yul\":16155:16164   */\n      dup4\n        /* \"#utility.yul\":16146:16153   */\n      dup6\n        /* \"#utility.yul\":16142:16165   */\n      sub\n        /* \"#utility.yul\":16138:16170   */\n      slt\n        /* \"#utility.yul\":16135:16254   */\n      iszero\n      tag_627\n      jumpi\n        /* \"#utility.yul\":16173:16252   */\n      tag_628\n      tag_360\n      jump\t// in\n    tag_628:\n        /* \"#utility.yul\":16135:16254   */\n    tag_627:\n        /* \"#utility.yul\":16293:16294   */\n      0x00\n        /* \"#utility.yul\":16318:16379   */\n      tag_629\n        /* \"#utility.yul\":16371:16378   */\n      dup6\n        /* \"#utility.yul\":16362:16368   */\n      dup3\n        /* \"#utility.yul\":16351:16360   */\n      dup7\n        /* \"#utility.yul\":16347:16369   */\n      add\n        /* \"#utility.yul\":16318:16379   */\n      tag_403\n      jump\t// in\n    tag_629:\n        /* \"#utility.yul\":16308:16379   */\n      swap3\n      pop\n        /* \"#utility.yul\":16264:16389   */\n      pop\n        /* \"#utility.yul\":16428:16430   */\n      0x20\n        /* \"#utility.yul\":16454:16507   */\n      tag_630\n        /* \"#utility.yul\":16499:16506   */\n      dup6\n        /* \"#utility.yul\":16490:16496   */\n      dup3\n        /* \"#utility.yul\":16479:16488   */\n      dup7\n        /* \"#utility.yul\":16475:16497   */\n      add\n        /* \"#utility.yul\":16454:16507   */\n      tag_369\n      jump\t// in\n    tag_630:\n        /* \"#utility.yul\":16444:16507   */\n      swap2\n      pop\n        /* \"#utility.yul\":16399:16517   */\n      pop\n        /* \"#utility.yul\":16034:16524   */\n      swap3\n      pop\n      swap3\n      swap1\n      pop\n      jump\t// out\n        /* \"#utility.yul\":16530:16650   */\n    tag_404:\n        /* \"#utility.yul\":16602:16625   */\n      tag_632\n        /* \"#utility.yul\":16619:16624   */\n      dup2\n        /* \"#utility.yul\":16602:16625   */\n      tag_380\n      jump\t// in\n    tag_632:\n        /* \"#utility.yul\":16595:16600   */\n      dup2\n        /* \"#utility.yul\":16592:16626   */\n      eq\n        /* \"#utility.yul\":16582:16644   */\n      tag_633\n      jumpi\n        /* \"#utility.yul\":16640:16641   */\n      0x00\n        /* \"#utility.yul\":16637:16638   */\n      dup1\n        /* \"#utility.yul\":16630:16642   */\n      revert\n        /* \"#utility.yul\":16582:16644   */\n    tag_633:\n        /* \"#utility.yul\":16530:16650   */\n      pop\n      jump\t// out\n        /* \"#utility.yul\":16656:16793   */\n    tag_405:\n        /* \"#utility.yul\":16701:16706   */\n      0x00\n        /* \"#utility.yul\":16739:16745   */\n      dup2\n        /* \"#utility.yul\":16726:16746   */\n      calldataload\n        /* \"#utility.yul\":16717:16746   */\n      swap1\n      pop\n        /* \"#utility.yul\":16755:16787   */\n      tag_635\n        /* \"#utility.yul\":16781:16786   */\n      dup2\n        /* \"#utility.yul\":16755:16787   */\n      tag_404\n      jump\t// in\n    tag_635:\n        /* \"#utility.yul\":16656:16793   */\n      swap3\n      swap2\n      pop\n      pop\n      jump\t// out\n        /* \"#utility.yul\":16799:17271   */\n    tag_116:\n        /* \"#utility.yul\":16866:16872   */\n      0x00\n        /* \"#utility.yul\":16874:16880   */\n      dup1\n        /* \"#utility.yul\":16923:16925   */\n      0x40\n        /* \"#utility.yul\":16911:16920   */\n      dup4\n        /* \"#utility.yul\":16902:16909   */\n      dup6\n        /* \"#utility.yul\":16898:16921   */\n      sub\n        /* \"#utility.yul\":16894:16926   */\n      slt\n        /* \"#utility.yul\":16891:17010   */\n      iszero\n      tag_637\n      jumpi\n        /* \"#utility.yul\":16929:17008   */\n      tag_638\n      tag_360\n      jump\t// in\n    tag_638:\n        /* \"#utility.yul\":16891:17010   */\n    tag_637:\n        /* \"#utility.yul\":17049:17050   */\n      0x00\n        /* \"#utility.yul\":17074:17127   */\n      tag_639\n        /* \"#utility.yul\":17119:17126   */\n      dup6\n        /* \"#utility.yul\":17110:17116   */\n      dup3\n        /* \"#utility.yul\":17099:17108   */\n      dup7\n        /* \"#utility.yul\":17095:17117   */\n      add\n        /* \"#utility.yul\":17074:17127   */\n      tag_365\n      jump\t// in\n    tag_639:\n        /* \"#utility.yul\":17064:17127   */\n      swap3\n      pop\n        /* \"#utility.yul\":17020:17137   */\n      pop\n        /* \"#utility.yul\":17176:17178   */\n      0x20\n        /* \"#utility.yul\":17202:17254   */\n      tag_640\n        /* \"#utility.yul\":17246:17253   */\n      dup6\n        /* \"#utility.yul\":17237:17243   */\n      dup3\n        /* \"#utility.yul\":17226:17235   */\n      dup7\n        /* \"#utility.yul\":17222:17244   */\n      add\n        /* \"#utility.yul\":17202:17254   */\n      tag_405\n      jump\t// in\n    tag_640:\n        /* \"#utility.yul\":17192:17254   */\n      swap2\n      pop\n        /* \"#utility.yul\":17147:17264   */\n      pop\n        /* \"#utility.yul\":16799:17271   */\n      swap3\n      pop\n      swap3\n      swap1\n      pop\n      jump\t// out\n        /* \"#utility.yul\":17277:17446   */\n    tag_406:\n        /* \"#utility.yul\":17361:17372   */\n      0x00\n        /* \"#utility.yul\":17395:17401   */\n      dup3\n        /* \"#utility.yul\":17390:17393   */\n      dup3\n        /* \"#utility.yul\":17383:17402   */\n      mstore\n        /* \"#utility.yul\":17435:17439   */\n      0x20\n        /* \"#utility.yul\":17430:17433   */\n      dup3\n        /* \"#utility.yul\":17426:17440   */\n      add\n        /* \"#utility.yul\":17411:17440   */\n      swap1\n      pop\n        /* \"#utility.yul\":17277:17446   */\n      swap3\n      swap2\n      pop\n      pop\n      jump\t// out\n        /* \"#utility.yul\":17452:17675   */\n    tag_407:\n        /* \"#utility.yul\":17592:17626   */\n      0x436f6e74726570617274696520696e616374697665206f7520696e6578697374\n        /* \"#utility.yul\":17588:17589   */\n      0x00\n        /* \"#utility.yul\":17580:17586   */\n      dup3\n        /* \"#utility.yul\":17576:17590   */\n      add\n        /* \"#utility.yul\":17569:17627   */\n      mstore\n        /* \"#utility.yul\":17661:17667   */\n      0x616e746500000000000000000000000000000000000000000000000000000000\n        /* \"#utility.yul\":17656:17658   */\n      0x20\n        /* \"#utility.yul\":17648:17654   */\n      dup3\n        /* \"#utility.yul\":17644:17659   */\n      add\n        /* \"#utility.yul\":17637:17668   */\n      mstore\n        /* \"#utility.yul\":17452:17675   */\n      pop\n      jump\t// out\n        /* \"#utility.yul\":17681:18047   */\n    tag_408:\n        /* \"#utility.yul\":17823:17826   */\n      0x00\n        /* \"#utility.yul\":17844:17911   */\n      tag_644\n        /* \"#utility.yul\":17908:17910   */\n      0x24\n        /* \"#utility.yul\":17903:17906   */\n      dup4\n        /* \"#utility.yul\":17844:17911   */\n      tag_406\n      jump\t// in\n    tag_644:\n        /* \"#utility.yul\":17837:17911   */\n      swap2\n      pop\n        /* \"#utility.yul\":17920:18013   */\n      tag_645\n        /* \"#utility.yul\":18009:18012   */\n      dup3\n        /* \"#utility.yul\":17920:18013   */\n      tag_407\n      jump\t// in\n    tag_645:\n        /* \"#utility.yul\":18038:18040   */\n      0x40\n        /* \"#utility.yul\":18033:18036   */\n      dup3\n        /* \"#utility.yul\":18029:18041   */\n      add\n        /* \"#utility.yul\":18022:18041   */\n      swap1\n      pop\n        /* \"#utility.yul\":17681:18047   */\n      swap2\n      swap1\n      pop\n      jump\t// out\n        /* \"#utility.yul\":18053:18472   */\n    tag_129:\n        /* \"#utility.yul\":18219:18223   */\n      0x00\n        /* \"#utility.yul\":18257:18259   */\n      0x20\n        /* \"#utility.yul\":18246:18255   */\n      dup3\n        /* \"#utility.yul\":18242:18260   */\n      add\n        /* \"#utility.yul\":18234:18260   */\n      swap1\n      pop\n        /* \"#utility.yul\":18306:18315   */\n      dup2\n        /* \"#utility.yul\":18300:18304   */\n      dup2\n        /* \"#utility.yul\":18296:18316   */\n      sub\n        /* \"#utility.yul\":18292:18293   */\n      0x00\n        /* \"#utility.yul\":18281:18290   */\n      dup4\n        /* \"#utility.yul\":18277:18294   */\n      add\n        /* \"#utility.yul\":18270:18317   */\n      mstore\n        /* \"#utility.yul\":18334:18465   */\n      tag_647\n        /* \"#utility.yul\":18460:18464   */\n      dup2\n        /* \"#utility.yul\":18334:18465   */\n      tag_408\n      jump\t// in\n    tag_647:\n        /* \"#utility.yul\":18326:18465   */\n      swap1\n      pop\n        /* \"#utility.yul\":18053:18472   */\n      swap2\n      swap1\n      pop\n      jump\t// out\n        /* \"#utility.yul\":18478:18658   */\n    tag_409:\n        /* \"#utility.yul\":18526:18603   */\n      0x4e487b7100000000000000000000000000000000000000000000000000000000\n        /* \"#utility.yul\":18523:18524   */\n      0x00\n        /* \"#utility.yul\":18516:18604   */\n      mstore\n        /* \"#utility.yul\":18623:18627   */\n      0x22\n        /* \"#utility.yul\":18620:18621   */\n      0x04\n        /* \"#utility.yul\":18613:18628   */\n      mstore\n        /* \"#utility.yul\":18647:18651   */\n      0x24\n        /* \"#utility.yul\":18644:18645   */\n      0x00\n        /* \"#utility.yul\":18637:18652   */\n      revert\n        /* \"#utility.yul\":18664:18984   */\n    tag_135:\n        /* \"#utility.yul\":18708:18714   */\n      0x00\n        /* \"#utility.yul\":18745:18746   */\n      0x02\n        /* \"#utility.yul\":18739:18743   */\n      dup3\n        /* \"#utility.yul\":18735:18747   */\n      div\n        /* \"#utility.yul\":18725:18747   */\n      swap1\n      pop\n        /* \"#utility.yul\":18792:18793   */\n      0x01\n        /* \"#utility.yul\":18786:18790   */\n      dup3\n        /* \"#utility.yul\":18782:18794   */\n      and\n        /* \"#utility.yul\":18813:18831   */\n      dup1\n        /* \"#utility.yul\":18803:18884   */\n      tag_650\n      jumpi\n        /* \"#utility.yul\":18869:18873   */\n      0x7f\n        /* \"#utility.yul\":18861:18867   */\n      dup3\n        /* \"#utility.yul\":18857:18874   */\n      and\n        /* \"#utility.yul\":18847:18874   */\n      swap2\n      pop\n        /* \"#utility.yul\":18803:18884   */\n    tag_650:\n        /* \"#utility.yul\":18931:18933   */\n      0x20\n        /* \"#utility.yul\":18923:18929   */\n      dup3\n        /* \"#utility.yul\":18920:18934   */\n      lt\n        /* \"#utility.yul\":18900:18918   */\n      dup2\n        /* \"#utility.yul\":18897:18935   */\n      sub\n        /* \"#utility.yul\":18894:18978   */\n      tag_651\n      jumpi\n        /* \"#utility.yul\":18950:18968   */\n      tag_652\n      tag_409\n      jump\t// in\n    tag_652:\n        /* \"#utility.yul\":18894:18978   */\n    tag_651:\n        /* \"#utility.yul\":18715:18984   */\n      pop\n        /* \"#utility.yul\":18664:18984   */\n      swap2\n      swap1\n      pop\n      jump\t// out\n        /* \"#utility.yul\":18990:19165   */\n    tag_410:\n        /* \"#utility.yul\":19130:19157   */\n      0x4578706f736974696f6e20636f7572616e7465206e756c6c6500000000000000\n        /* \"#utility.yul\":19126:19127   */\n      0x00\n        /* \"#utility.yul\":19118:19124   */\n      dup3\n        /* \"#utility.yul\":19114:19128   */\n      add\n        /* \"#utility.yul\":19107:19158   */\n      mstore\n        /* \"#utility.yul\":18990:19165   */\n      pop\n      jump\t// out\n        /* \"#utility.yul\":19171:19537   */\n    tag_411:\n        /* \"#utility.yul\":19313:19316   */\n      0x00\n        /* \"#utility.yul\":19334:19401   */\n      tag_655\n        /* \"#utility.yul\":19398:19400   */\n      0x19\n        /* \"#utility.yul\":19393:19396   */\n      dup4\n        /* \"#utility.yul\":19334:19401   */\n      tag_406\n      jump\t// in\n    tag_655:\n        /* \"#utility.yul\":19327:19401   */\n      swap2\n      pop\n        /* \"#utility.yul\":19410:19503   */\n      tag_656\n        /* \"#utility.yul\":19499:19502   */\n      dup3\n        /* \"#utility.yul\":19410:19503   */\n      tag_410\n      jump\t// in\n    tag_656:\n        /* \"#utility.yul\":19528:19530   */\n      0x20\n        /* \"#utility.yul\":19523:19526   */\n      dup3\n        /* \"#utility.yul\":19519:19531   */\n      add\n        /* \"#utility.yul\":19512:19531   */\n      swap1\n      pop\n        /* \"#utility.yul\":19171:19537   */\n      swap2\n      swap1\n      pop\n      jump\t// out\n        /* \"#utility.yul\":19543:19962   */\n    tag_142:\n        /* \"#utility.yul\":19709:19713   */\n      0x00\n        /* \"#utility.yul\":19747:19749   */\n      0x20\n        /* \"#utility.yul\":19736:19745   */\n      dup3\n        /* \"#utility.yul\":19732:19750   */\n      add\n        /* \"#utility.yul\":19724:19750   */\n      swap1\n      pop\n        /* \"#utility.yul\":19796:19805   */\n      dup2\n        /* \"#utility.yul\":19790:19794   */\n      dup2\n        /* \"#utility.yul\":19786:19806   */\n      sub\n        /* \"#utility.yul\":19782:19783   */\n      0x00\n        /* \"#utility.yul\":19771:19780   */\n      dup4\n        /* \"#utility.yul\":19767:19784   */\n      add\n        /* \"#utility.yul\":19760:19807   */\n      mstore\n        /* \"#utility.yul\":19824:19955   */\n      tag_658\n        /* \"#utility.yul\":19950:19954   */\n      dup2\n        /* \"#utility.yul\":19824:19955   */\n      tag_411\n      jump\t// in\n    tag_658:\n        /* \"#utility.yul\":19816:19955   */\n      swap1\n      pop\n        /* \"#utility.yul\":19543:19962   */\n      swap2\n      swap1\n      pop\n      jump\t// out\n        /* \"#utility.yul\":19968:20148   */\n    tag_412:\n        /* \"#utility.yul\":20016:20093   */\n      0x4e487b7100000000000000000000000000000000000000000000000000000000\n        /* \"#utility.yul\":20013:20014   */\n      0x00\n        /* \"#utility.yul\":20006:20094   */\n      mstore\n        /* \"#utility.yul\":20113:20117   */\n      0x11\n        /* \"#utility.yul\":20110:20111   */\n      0x04\n        /* \"#utility.yul\":20103:20118   */\n      mstore\n        /* \"#utility.yul\":20137:20141   */\n      0x24\n        /* \"#utility.yul\":20134:20135   */\n      0x00\n        /* \"#utility.yul\":20127:20142   */\n      revert\n        /* \"#utility.yul\":20154:20564   */\n    tag_144:\n        /* \"#utility.yul\":20194:20201   */\n      0x00\n        /* \"#utility.yul\":20217:20237   */\n      tag_661\n        /* \"#utility.yul\":20235:20236   */\n      dup3\n        /* \"#utility.yul\":20217:20237   */\n      tag_366\n      jump\t// in\n    tag_661:\n        /* \"#utility.yul\":20212:20237   */\n      swap2\n      pop\n        /* \"#utility.yul\":20251:20271   */\n      tag_662\n        /* \"#utility.yul\":20269:20270   */\n      dup4\n        /* \"#utility.yul\":20251:20271   */\n      tag_366\n      jump\t// in\n    tag_662:\n        /* \"#utility.yul\":20246:20271   */\n      swap3\n      pop\n        /* \"#utility.yul\":20306:20307   */\n      dup3\n        /* \"#utility.yul\":20303:20304   */\n      dup3\n        /* \"#utility.yul\":20299:20308   */\n      mul\n        /* \"#utility.yul\":20328:20358   */\n      tag_663\n        /* \"#utility.yul\":20346:20357   */\n      dup2\n        /* \"#utility.yul\":20328:20358   */\n      tag_366\n      jump\t// in\n    tag_663:\n        /* \"#utility.yul\":20317:20358   */\n      swap2\n      pop\n        /* \"#utility.yul\":20507:20508   */\n      dup3\n        /* \"#utility.yul\":20498:20505   */\n      dup3\n        /* \"#utility.yul\":20494:20509   */\n      div\n        /* \"#utility.yul\":20491:20492   */\n      dup5\n        /* \"#utility.yul\":20488:20510   */\n      eq\n        /* \"#utility.yul\":20468:20469   */\n      dup4\n        /* \"#utility.yul\":20461:20470   */\n      iszero\n        /* \"#utility.yul\":20441:20524   */\n      or\n        /* \"#utility.yul\":20418:20557   */\n      tag_664\n      jumpi\n        /* \"#utility.yul\":20537:20555   */\n      tag_665\n      tag_412\n      jump\t// in\n    tag_665:\n        /* \"#utility.yul\":20418:20557   */\n    tag_664:\n        /* \"#utility.yul\":20202:20564   */\n      pop\n        /* \"#utility.yul\":20154:20564   */\n      swap3\n      swap2\n      pop\n      pop\n      jump\t// out\n        /* \"#utility.yul\":20570:20750   */\n    tag_413:\n        /* \"#utility.yul\":20618:20695   */\n      0x4e487b7100000000000000000000000000000000000000000000000000000000\n        /* \"#utility.yul\":20615:20616   */\n      0x00\n        /* \"#utility.yul\":20608:20696   */\n      mstore\n        /* \"#utility.yul\":20715:20719   */\n      0x12\n        /* \"#utility.yul\":20712:20713   */\n      0x04\n        /* \"#utility.yul\":20705:20720   */\n      mstore\n        /* \"#utility.yul\":20739:20743   */\n      0x24\n        /* \"#utility.yul\":20736:20737   */\n      0x00\n        /* \"#utility.yul\":20729:20744   */\n      revert\n        /* \"#utility.yul\":20756:20941   */\n    tag_146:\n        /* \"#utility.yul\":20796:20797   */\n      0x00\n        /* \"#utility.yul\":20813:20833   */\n      tag_668\n        /* \"#utility.yul\":20831:20832   */\n      dup3\n        /* \"#utility.yul\":20813:20833   */\n      tag_366\n      jump\t// in\n    tag_668:\n        /* \"#utility.yul\":20808:20833   */\n      swap2\n      pop\n        /* \"#utility.yul\":20847:20867   */\n      tag_669\n        /* \"#utility.yul\":20865:20866   */\n      dup4\n        /* \"#utility.yul\":20847:20867   */\n      tag_366\n      jump\t// in\n    tag_669:\n        /* \"#utility.yul\":20842:20867   */\n      swap3\n      pop\n        /* \"#utility.yul\":20886:20887   */\n      dup3\n        /* \"#utility.yul\":20876:20911   */\n      tag_670\n      jumpi\n        /* \"#utility.yul\":20891:20909   */\n      tag_671\n      tag_413\n      jump\t// in\n    tag_671:\n        /* \"#utility.yul\":20876:20911   */\n    tag_670:\n        /* \"#utility.yul\":20933:20934   */\n      dup3\n        /* \"#utility.yul\":20930:20931   */\n      dup3\n        /* \"#utility.yul\":20926:20935   */\n      div\n        /* \"#utility.yul\":20921:20935   */\n      swap1\n      pop\n        /* \"#utility.yul\":20756:20941   */\n      swap3\n      swap2\n      pop\n      pop\n      jump\t// out\n        /* \"#utility.yul\":20947:21168   */\n    tag_414:\n        /* \"#utility.yul\":21087:21121   */\n      0x416374696f6e2072657365727665652061206c2761646d696e69737472617465\n        /* \"#utility.yul\":21083:21084   */\n      0x00\n        /* \"#utility.yul\":21075:21081   */\n      dup3\n        /* \"#utility.yul\":21071:21085   */\n      add\n        /* \"#utility.yul\":21064:21122   */\n      mstore\n        /* \"#utility.yul\":21156:21160   */\n      0x7572000000000000000000000000000000000000000000000000000000000000\n        /* \"#utility.yul\":21151:21153   */\n      0x20\n        /* \"#utility.yul\":21143:21149   */\n      dup3\n        /* \"#utility.yul\":21139:21154   */\n      add\n        /* \"#utility.yul\":21132:21161   */\n      mstore\n        /* \"#utility.yul\":20947:21168   */\n      pop\n      jump\t// out\n        /* \"#utility.yul\":21174:21540   */\n    tag_415:\n        /* \"#utility.yul\":21316:21319   */\n      0x00\n        /* \"#utility.yul\":21337:21404   */\n      tag_674\n        /* \"#utility.yul\":21401:21403   */\n      0x22\n        /* \"#utility.yul\":21396:21399   */\n      dup4\n        /* \"#utility.yul\":21337:21404   */\n      tag_406\n      jump\t// in\n    tag_674:\n        /* \"#utility.yul\":21330:21404   */\n      swap2\n      pop\n        /* \"#utility.yul\":21413:21506   */\n      tag_675\n        /* \"#utility.yul\":21502:21505   */\n      dup3\n        /* \"#utility.yul\":21413:21506   */\n      tag_414\n      jump\t// in\n    tag_675:\n        /* \"#utility.yul\":21531:21533   */\n      0x40\n        /* \"#utility.yul\":21526:21529   */\n      dup3\n        /* \"#utility.yul\":21522:21534   */\n      add\n        /* \"#utility.yul\":21515:21534   */\n      swap1\n      pop\n        /* \"#utility.yul\":21174:21540   */\n      swap2\n      swap1\n      pop\n      jump\t// out\n        /* \"#utility.yul\":21546:21965   */\n    tag_150:\n        /* \"#utility.yul\":21712:21716   */\n      0x00\n        /* \"#utility.yul\":21750:21752   */\n      0x20\n        /* \"#utility.yul\":21739:21748   */\n      dup3\n        /* \"#utility.yul\":21735:21753   */\n      add\n        /* \"#utility.yul\":21727:21753   */\n      swap1\n      pop\n        /* \"#utility.yul\":21799:21808   */\n      dup2\n        /* \"#utility.yul\":21793:21797   */\n      dup2\n        /* \"#utility.yul\":21789:21809   */\n      sub\n        /* \"#utility.yul\":21785:21786   */\n      0x00\n        /* \"#utility.yul\":21774:21783   */\n      dup4\n        /* \"#utility.yul\":21770:21787   */\n      add\n        /* \"#utility.yul\":21763:21810   */\n      mstore\n        /* \"#utility.yul\":21827:21958   */\n      tag_677\n        /* \"#utility.yul\":21953:21957   */\n      dup2\n        /* \"#utility.yul\":21827:21958   */\n      tag_415\n      jump\t// in\n    tag_677:\n        /* \"#utility.yul\":21819:21958   */\n      swap1\n      pop\n        /* \"#utility.yul\":21546:21965   */\n      swap2\n      swap1\n      pop\n      jump\t// out\n        /* \"#utility.yul\":21971:22137   */\n    tag_416:\n        /* \"#utility.yul\":22111:22129   */\n      0x4164726573736520696e76616c69646500000000000000000000000000000000\n        /* \"#utility.yul\":22107:22108   */\n      0x00\n        /* \"#utility.yul\":22099:22105   */\n      dup3\n        /* \"#utility.yul\":22095:22109   */\n      add\n        /* \"#utility.yul\":22088:22130   */\n      mstore\n        /* \"#utility.yul\":21971:22137   */\n      pop\n      jump\t// out\n        /* \"#utility.yul\":22143:22509   */\n    tag_417:\n        /* \"#utility.yul\":22285:22288   */\n      0x00\n        /* \"#utility.yul\":22306:22373   */\n      tag_680\n        /* \"#utility.yul\":22370:22372   */\n      0x10\n        /* \"#utility.yul\":22365:22368   */\n      dup4\n        /* \"#utility.yul\":22306:22373   */\n      tag_406\n      jump\t// in\n    tag_680:\n        /* \"#utility.yul\":22299:22373   */\n      swap2\n      pop\n        /* \"#utility.yul\":22382:22475   */\n      tag_681\n        /* \"#utility.yul\":22471:22474   */\n      dup3\n        /* \"#utility.yul\":22382:22475   */\n      tag_416\n      jump\t// in\n    tag_681:\n        /* \"#utility.yul\":22500:22502   */\n      0x20\n        /* \"#utility.yul\":22495:22498   */\n      dup3\n        /* \"#utility.yul\":22491:22503   */\n      add\n        /* \"#utility.yul\":22484:22503   */\n      swap1\n      pop\n        /* \"#utility.yul\":22143:22509   */\n      swap2\n      swap1\n      pop\n      jump\t// out\n        /* \"#utility.yul\":22515:22934   */\n    tag_154:\n        /* \"#utility.yul\":22681:22685   */\n      0x00\n        /* \"#utility.yul\":22719:22721   */\n      0x20\n        /* \"#utility.yul\":22708:22717   */\n      dup3\n        /* \"#utility.yul\":22704:22722   */\n      add\n        /* \"#utility.yul\":22696:22722   */\n      swap1\n      pop\n        /* \"#utility.yul\":22768:22777   */\n      dup2\n        /* \"#utility.yul\":22762:22766   */\n      dup2\n        /* \"#utility.yul\":22758:22778   */\n      sub\n        /* \"#utility.yul\":22754:22755   */\n      0x00\n        /* \"#utility.yul\":22743:22752   */\n      dup4\n        /* \"#utility.yul\":22739:22756   */\n      add\n        /* \"#utility.yul\":22732:22779   */\n      mstore\n        /* \"#utility.yul\":22796:22927   */\n      tag_683\n        /* \"#utility.yul\":22922:22926   */\n      dup2\n        /* \"#utility.yul\":22796:22927   */\n      tag_417\n      jump\t// in\n    tag_683:\n        /* \"#utility.yul\":22788:22927   */\n      swap1\n      pop\n        /* \"#utility.yul\":22515:22934   */\n      swap2\n      swap1\n      pop\n      jump\t// out\n        /* \"#utility.yul\":22940:23114   */\n    tag_418:\n        /* \"#utility.yul\":23080:23106   */\n      0x436f6e747265706172746965206578697374652064656a610000000000000000\n        /* \"#utility.yul\":23076:23077   */\n      0x00\n        /* \"#utility.yul\":23068:23074   */\n      dup3\n        /* \"#utility.yul\":23064:23078   */\n      add\n        /* \"#utility.yul\":23057:23107   */\n      mstore\n        /* \"#utility.yul\":22940:23114   */\n      pop\n      jump\t// out\n        /* \"#utility.yul\":23120:23486   */\n    tag_419:\n        /* \"#utility.yul\":23262:23265   */\n      0x00\n        /* \"#utility.yul\":23283:23350   */\n      tag_686\n        /* \"#utility.yul\":23347:23349   */\n      0x18\n        /* \"#utility.yul\":23342:23345   */\n      dup4\n        /* \"#utility.yul\":23283:23350   */\n      tag_406\n      jump\t// in\n    tag_686:\n        /* \"#utility.yul\":23276:23350   */\n      swap2\n      pop\n        /* \"#utility.yul\":23359:23452   */\n      tag_687\n        /* \"#utility.yul\":23448:23451   */\n      dup3\n        /* \"#utility.yul\":23359:23452   */\n      tag_418\n      jump\t// in\n    tag_687:\n        /* \"#utility.yul\":23477:23479   */\n      0x20\n        /* \"#utility.yul\":23472:23475   */\n      dup3\n        /* \"#utility.yul\":23468:23480   */\n      add\n        /* \"#utility.yul\":23461:23480   */\n      swap1\n      pop\n        /* \"#utility.yul\":23120:23486   */\n      swap2\n      swap1\n      pop\n      jump\t// out\n        /* \"#utility.yul\":23492:23911   */\n    tag_157:\n        /* \"#utility.yul\":23658:23662   */\n      0x00\n        /* \"#utility.yul\":23696:23698   */\n      0x20\n        /* \"#utility.yul\":23685:23694   */\n      dup3\n        /* \"#utility.yul\":23681:23699   */\n      add\n        /* \"#utility.yul\":23673:23699   */\n      swap1\n      pop\n        /* \"#utility.yul\":23745:23754   */\n      dup2\n        /* \"#utility.yul\":23739:23743   */\n      dup2\n        /* \"#utility.yul\":23735:23755   */\n      sub\n        /* \"#utility.yul\":23731:23732   */\n      0x00\n        /* \"#utility.yul\":23720:23729   */\n      dup4\n        /* \"#utility.yul\":23716:23733   */\n      add\n        /* \"#utility.yul\":23709:23756   */\n      mstore\n        /* \"#utility.yul\":23773:23904   */\n      tag_689\n        /* \"#utility.yul\":23899:23903   */\n      dup2\n        /* \"#utility.yul\":23773:23904   */\n      tag_419\n      jump\t// in\n    tag_689:\n        /* \"#utility.yul\":23765:23904   */\n      swap1\n      pop\n        /* \"#utility.yul\":23492:23911   */\n      swap2\n      swap1\n      pop\n      jump\t// out\n        /* \"#utility.yul\":23917:24091   */\n    tag_420:\n        /* \"#utility.yul\":24057:24083   */\n      0x53636f72652064652063726564697420696e76616c6964650000000000000000\n        /* \"#utility.yul\":24053:24054   */\n      0x00\n        /* \"#utility.yul\":24045:24051   */\n      dup3\n        /* \"#utility.yul\":24041:24055   */\n      add\n        /* \"#utility.yul\":24034:24084   */\n      mstore\n        /* \"#utility.yul\":23917:24091   */\n      pop\n      jump\t// out\n        /* \"#utility.yul\":24097:24463   */\n    tag_421:\n        /* \"#utility.yul\":24239:24242   */\n      0x00\n        /* \"#utility.yul\":24260:24327   */\n      tag_692\n        /* \"#utility.yul\":24324:24326   */\n      0x18\n        /* \"#utility.yul\":24319:24322   */\n      dup4\n        /* \"#utility.yul\":24260:24327   */\n      tag_406\n      jump\t// in\n    tag_692:\n        /* \"#utility.yul\":24253:24327   */\n      swap2\n      pop\n        /* \"#utility.yul\":24336:24429   */\n      tag_693\n        /* \"#utility.yul\":24425:24428   */\n      dup3\n        /* \"#utility.yul\":24336:24429   */\n      tag_420\n      jump\t// in\n    tag_693:\n        /* \"#utility.yul\":24454:24456   */\n      0x20\n        /* \"#utility.yul\":24449:24452   */\n      dup3\n        /* \"#utility.yul\":24445:24457   */\n      add\n        /* \"#utility.yul\":24438:24457   */\n      swap1\n      pop\n        /* \"#utility.yul\":24097:24463   */\n      swap2\n      swap1\n      pop\n      jump\t// out\n        /* \"#utility.yul\":24469:24888   */\n    tag_161:\n        /* \"#utility.yul\":24635:24639   */\n      0x00\n        /* \"#utility.yul\":24673:24675   */\n      0x20\n        /* \"#utility.yul\":24662:24671   */\n      dup3\n        /* \"#utility.yul\":24658:24676   */\n      add\n        /* \"#utility.yul\":24650:24676   */\n      swap1\n      pop\n        /* \"#utility.yul\":24722:24731   */\n      dup2\n        /* \"#utility.yul\":24716:24720   */\n      dup2\n        /* \"#utility.yul\":24712:24732   */\n      sub\n        /* \"#utility.yul\":24708:24709   */\n      0x00\n        /* \"#utility.yul\":24697:24706   */\n      dup4\n        /* \"#utility.yul\":24693:24710   */\n      add\n        /* \"#utility.yul\":24686:24733   */\n      mstore\n        /* \"#utility.yul\":24750:24881   */\n      tag_695\n        /* \"#utility.yul\":24876:24880   */\n      dup2\n        /* \"#utility.yul\":24750:24881   */\n      tag_421\n      jump\t// in\n    tag_695:\n        /* \"#utility.yul\":24742:24881   */\n      swap1\n      pop\n        /* \"#utility.yul\":24469:24888   */\n      swap2\n      swap1\n      pop\n      jump\t// out\n        /* \"#utility.yul\":24894:25226   */\n    tag_164:\n        /* \"#utility.yul\":25015:25019   */\n      0x00\n        /* \"#utility.yul\":25053:25055   */\n      0x40\n        /* \"#utility.yul\":25042:25051   */\n      dup3\n        /* \"#utility.yul\":25038:25056   */\n      add\n        /* \"#utility.yul\":25030:25056   */\n      swap1\n      pop\n        /* \"#utility.yul\":25066:25137   */\n      tag_697\n        /* \"#utility.yul\":25134:25135   */\n      0x00\n        /* \"#utility.yul\":25123:25132   */\n      dup4\n        /* \"#utility.yul\":25119:25136   */\n      add\n        /* \"#utility.yul\":25110:25116   */\n      dup6\n        /* \"#utility.yul\":25066:25137   */\n      tag_367\n      jump\t// in\n    tag_697:\n        /* \"#utility.yul\":25147:25219   */\n      tag_698\n        /* \"#utility.yul\":25215:25217   */\n      0x20\n        /* \"#utility.yul\":25204:25213   */\n      dup4\n        /* \"#utility.yul\":25200:25218   */\n      add\n        /* \"#utility.yul\":25191:25197   */\n      dup5\n        /* \"#utility.yul\":25147:25219   */\n      tag_367\n      jump\t// in\n    tag_698:\n        /* \"#utility.yul\":24894:25226   */\n      swap4\n      swap3\n      pop\n      pop\n      pop\n      jump\t// out\n        /* \"#utility.yul\":25232:25398   */\n    tag_422:\n        /* \"#utility.yul\":25372:25390   */\n      0x4d6f6e74616e7420696e76616c69646500000000000000000000000000000000\n        /* \"#utility.yul\":25368:25369   */\n      0x00\n        /* \"#utility.yul\":25360:25366   */\n      dup3\n        /* \"#utility.yul\":25356:25370   */\n      add\n        /* \"#utility.yul\":25349:25391   */\n      mstore\n        /* \"#utility.yul\":25232:25398   */\n      pop\n      jump\t// out\n        /* \"#utility.yul\":25404:25770   */\n    tag_423:\n        /* \"#utility.yul\":25546:25549   */\n      0x00\n        /* \"#utility.yul\":25567:25634   */\n      tag_701\n        /* \"#utility.yul\":25631:25633   */\n      0x10\n        /* \"#utility.yul\":25626:25629   */\n      dup4\n        /* \"#utility.yul\":25567:25634   */\n      tag_406\n      jump\t// in\n    tag_701:\n        /* \"#utility.yul\":25560:25634   */\n      swap2\n      pop\n        /* \"#utility.yul\":25643:25736   */\n      tag_702\n        /* \"#utility.yul\":25732:25735   */\n      dup3\n        /* \"#utility.yul\":25643:25736   */\n      tag_422\n      jump\t// in\n    tag_702:\n        /* \"#utility.yul\":25761:25763   */\n      0x20\n        /* \"#utility.yul\":25756:25759   */\n      dup3\n        /* \"#utility.yul\":25752:25764   */\n      add\n        /* \"#utility.yul\":25745:25764   */\n      swap1\n      pop\n        /* \"#utility.yul\":25404:25770   */\n      swap2\n      swap1\n      pop\n      jump\t// out\n        /* \"#utility.yul\":25776:26195   */\n    tag_199:\n        /* \"#utility.yul\":25942:25946   */\n      0x00\n        /* \"#utility.yul\":25980:25982   */\n      0x20\n        /* \"#utility.yul\":25969:25978   */\n      dup3\n        /* \"#utility.yul\":25965:25983   */\n      add\n        /* \"#utility.yul\":25957:25983   */\n      swap1\n      pop\n        /* \"#utility.yul\":26029:26038   */\n      dup2\n        /* \"#utility.yul\":26023:26027   */\n      dup2\n        /* \"#utility.yul\":26019:26039   */\n      sub\n        /* \"#utility.yul\":26015:26016   */\n      0x00\n        /* \"#utility.yul\":26004:26013   */\n      dup4\n        /* \"#utility.yul\":26000:26017   */\n      add\n        /* \"#utility.yul\":25993:26040   */\n      mstore\n        /* \"#utility.yul\":26057:26188   */\n      tag_704\n        /* \"#utility.yul\":26183:26187   */\n      dup2\n        /* \"#utility.yul\":26057:26188   */\n      tag_423\n      jump\t// in\n    tag_704:\n        /* \"#utility.yul\":26049:26188   */\n      swap1\n      pop\n        /* \"#utility.yul\":25776:26195   */\n      swap2\n      swap1\n      pop\n      jump\t// out\n        /* \"#utility.yul\":26201:26392   */\n    tag_202:\n        /* \"#utility.yul\":26241:26244   */\n      0x00\n        /* \"#utility.yul\":26260:26280   */\n      tag_706\n        /* \"#utility.yul\":26278:26279   */\n      dup3\n        /* \"#utility.yul\":26260:26280   */\n      tag_366\n      jump\t// in\n    tag_706:\n        /* \"#utility.yul\":26255:26280   */\n      swap2\n      pop\n        /* \"#utility.yul\":26294:26314   */\n      tag_707\n        /* \"#utility.yul\":26312:26313   */\n      dup4\n        /* \"#utility.yul\":26294:26314   */\n      tag_366\n      jump\t// in\n    tag_707:\n        /* \"#utility.yul\":26289:26314   */\n      swap3\n      pop\n        /* \"#utility.yul\":26337:26338   */\n      dup3\n        /* \"#utility.yul\":26334:26335   */\n      dup3\n        /* \"#utility.yul\":26330:26339   */\n      add\n        /* \"#utility.yul\":26323:26339   */\n      swap1\n      pop\n        /* \"#utility.yul\":26358:26361   */\n      dup1\n        /* \"#utility.yul\":26355:26356   */\n      dup3\n        /* \"#utility.yul\":26352:26362   */\n      gt\n        /* \"#utility.yul\":26349:26385   */\n      iszero\n      tag_708\n      jumpi\n        /* \"#utility.yul\":26365:26383   */\n      tag_709\n      tag_412\n      jump\t// in\n    tag_709:\n        /* \"#utility.yul\":26349:26385   */\n    tag_708:\n        /* \"#utility.yul\":26201:26392   */\n      swap3\n      swap2\n      pop\n      pop\n      jump\t// out\n        /* \"#utility.yul\":26398:26627   */\n    tag_424:\n        /* \"#utility.yul\":26538:26572   */\n      0x436f6c6c61746572616c20696e737566666973616e7420706f75722063657474\n        /* \"#utility.yul\":26534:26535   */\n      0x00\n        /* \"#utility.yul\":26526:26532   */\n      dup3\n        /* \"#utility.yul\":26522:26536   */\n      add\n        /* \"#utility.yul\":26515:26573   */\n      mstore\n        /* \"#utility.yul\":26607:26619   */\n      0x6520706f736974696f6e00000000000000000000000000000000000000000000\n        /* \"#utility.yul\":26602:26604   */\n      0x20\n        /* \"#utility.yul\":26594:26600   */\n      dup3\n        /* \"#utility.yul\":26590:26605   */\n      add\n        /* \"#utility.yul\":26583:26620   */\n      mstore\n        /* \"#utility.yul\":26398:26627   */\n      pop\n      jump\t// out\n        /* \"#utility.yul\":26633:26999   */\n    tag_425:\n        /* \"#utility.yul\":26775:26778   */\n      0x00\n        /* \"#utility.yul\":26796:26863   */\n      tag_712\n        /* \"#utility.yul\":26860:26862   */\n      0x2a\n        /* \"#utility.yul\":26855:26858   */\n      dup4\n        /* \"#utility.yul\":26796:26863   */\n      tag_406\n      jump\t// in\n    tag_712:\n        /* \"#utility.yul\":26789:26863   */\n      swap2\n      pop\n        /* \"#utility.yul\":26872:26965   */\n      tag_713\n        /* \"#utility.yul\":26961:26964   */\n      dup3\n        /* \"#utility.yul\":26872:26965   */\n      tag_424\n      jump\t// in\n    tag_713:\n        /* \"#utility.yul\":26990:26992   */\n      0x40\n        /* \"#utility.yul\":26985:26988   */\n      dup3\n        /* \"#utility.yul\":26981:26993   */\n      add\n        /* \"#utility.yul\":26974:26993   */\n      swap1\n      pop\n        /* \"#utility.yul\":26633:26999   */\n      swap2\n      swap1\n      pop\n      jump\t// out\n        /* \"#utility.yul\":27005:27424   */\n    tag_209:\n        /* \"#utility.yul\":27171:27175   */\n      0x00\n        /* \"#utility.yul\":27209:27211   */\n      0x20\n        /* \"#utility.yul\":27198:27207   */\n      dup3\n        /* \"#utility.yul\":27194:27212   */\n      add\n        /* \"#utility.yul\":27186:27212   */\n      swap1\n      pop\n        /* \"#utility.yul\":27258:27267   */\n      dup2\n        /* \"#utility.yul\":27252:27256   */\n      dup2\n        /* \"#utility.yul\":27248:27268   */\n      sub\n        /* \"#utility.yul\":27244:27245   */\n      0x00\n        /* \"#utility.yul\":27233:27242   */\n      dup4\n        /* \"#utility.yul\":27229:27246   */\n      add\n        /* \"#utility.yul\":27222:27269   */\n      mstore\n        /* \"#utility.yul\":27286:27417   */\n      tag_715\n        /* \"#utility.yul\":27412:27416   */\n      dup2\n        /* \"#utility.yul\":27286:27417   */\n      tag_425\n      jump\t// in\n    tag_715:\n        /* \"#utility.yul\":27278:27417   */\n      swap1\n      pop\n        /* \"#utility.yul\":27005:27424   */\n      swap2\n      swap1\n      pop\n      jump\t// out\n        /* \"#utility.yul\":27430:27624   */\n    tag_211:\n        /* \"#utility.yul\":27470:27474   */\n      0x00\n        /* \"#utility.yul\":27490:27510   */\n      tag_717\n        /* \"#utility.yul\":27508:27509   */\n      dup3\n        /* \"#utility.yul\":27490:27510   */\n      tag_366\n      jump\t// in\n    tag_717:\n        /* \"#utility.yul\":27485:27510   */\n      swap2\n      pop\n        /* \"#utility.yul\":27524:27544   */\n      tag_718\n        /* \"#utility.yul\":27542:27543   */\n      dup4\n        /* \"#utility.yul\":27524:27544   */\n      tag_366\n      jump\t// in\n    tag_718:\n        /* \"#utility.yul\":27519:27544   */\n      swap3\n      pop\n        /* \"#utility.yul\":27568:27569   */\n      dup3\n        /* \"#utility.yul\":27565:27566   */\n      dup3\n        /* \"#utility.yul\":27561:27570   */\n      sub\n        /* \"#utility.yul\":27553:27570   */\n      swap1\n      pop\n        /* \"#utility.yul\":27592:27593   */\n      dup2\n        /* \"#utility.yul\":27586:27590   */\n      dup2\n        /* \"#utility.yul\":27583:27594   */\n      gt\n        /* \"#utility.yul\":27580:27617   */\n      iszero\n      tag_719\n      jumpi\n        /* \"#utility.yul\":27597:27615   */\n      tag_720\n      tag_412\n      jump\t// in\n    tag_720:\n        /* \"#utility.yul\":27580:27617   */\n    tag_719:\n        /* \"#utility.yul\":27430:27624   */\n      swap3\n      swap2\n      pop\n      pop\n      jump\t// out\n        /* \"#utility.yul\":27630:27866   */\n    tag_426:\n        /* \"#utility.yul\":27770:27804   */\n      0x5479706520646520706f736974696f6e20696e76616c6964652c207574696c69\n        /* \"#utility.yul\":27766:27767   */\n      0x00\n        /* \"#utility.yul\":27758:27764   */\n      dup3\n        /* \"#utility.yul\":27754:27768   */\n      add\n        /* \"#utility.yul\":27747:27805   */\n      mstore\n        /* \"#utility.yul\":27839:27858   */\n      0x736572204c4f4e47206f752053484f5254000000000000000000000000000000\n        /* \"#utility.yul\":27834:27836   */\n      0x20\n        /* \"#utility.yul\":27826:27832   */\n      dup3\n        /* \"#utility.yul\":27822:27837   */\n      add\n        /* \"#utility.yul\":27815:27859   */\n      mstore\n        /* \"#utility.yul\":27630:27866   */\n      pop\n      jump\t// out\n        /* \"#utility.yul\":27872:28238   */\n    tag_427:\n        /* \"#utility.yul\":28014:28017   */\n      0x00\n        /* \"#utility.yul\":28035:28102   */\n      tag_723\n        /* \"#utility.yul\":28099:28101   */\n      0x31\n        /* \"#utility.yul\":28094:28097   */\n      dup4\n        /* \"#utility.yul\":28035:28102   */\n      tag_406\n      jump\t// in\n    tag_723:\n        /* \"#utility.yul\":28028:28102   */\n      swap2\n      pop\n        /* \"#utility.yul\":28111:28204   */\n      tag_724\n        /* \"#utility.yul\":28200:28203   */\n      dup3\n        /* \"#utility.yul\":28111:28204   */\n      tag_426\n      jump\t// in\n    tag_724:\n        /* \"#utility.yul\":28229:28231   */\n      0x40\n        /* \"#utility.yul\":28224:28227   */\n      dup3\n        /* \"#utility.yul\":28220:28232   */\n      add\n        /* \"#utility.yul\":28213:28232   */\n      swap1\n      pop\n        /* \"#utility.yul\":27872:28238   */\n      swap2\n      swap1\n      pop\n      jump\t// out\n        /* \"#utility.yul\":28244:28663   */\n    tag_215:\n        /* \"#utility.yul\":28410:28414   */\n      0x00\n        /* \"#utility.yul\":28448:28450   */\n      0x20\n        /* \"#utility.yul\":28437:28446   */\n      dup3\n        /* \"#utility.yul\":28433:28451   */\n      add\n        /* \"#utility.yul\":28425:28451   */\n      swap1\n      pop\n        /* \"#utility.yul\":28497:28506   */\n      dup2\n        /* \"#utility.yul\":28491:28495   */\n      dup2\n        /* \"#utility.yul\":28487:28507   */\n      sub\n        /* \"#utility.yul\":28483:28484   */\n      0x00\n        /* \"#utility.yul\":28472:28481   */\n      dup4\n        /* \"#utility.yul\":28468:28485   */\n      add\n        /* \"#utility.yul\":28461:28508   */\n      mstore\n        /* \"#utility.yul\":28525:28656   */\n      tag_726\n        /* \"#utility.yul\":28651:28655   */\n      dup2\n        /* \"#utility.yul\":28525:28656   */\n      tag_427\n      jump\t// in\n    tag_726:\n        /* \"#utility.yul\":28517:28656   */\n      swap1\n      pop\n        /* \"#utility.yul\":28244:28663   */\n      swap2\n      swap1\n      pop\n      jump\t// out\n        /* \"#utility.yul\":28669:28768   */\n    tag_428:\n        /* \"#utility.yul\":28721:28727   */\n      0x00\n        /* \"#utility.yul\":28755:28760   */\n      dup2\n        /* \"#utility.yul\":28749:28761   */\n      mload\n        /* \"#utility.yul\":28739:28761   */\n      swap1\n      pop\n        /* \"#utility.yul\":28669:28768   */\n      swap2\n      swap1\n      pop\n      jump\t// out\n        /* \"#utility.yul\":28774:28915   */\n    tag_429:\n        /* \"#utility.yul\":28823:28827   */\n      0x00\n        /* \"#utility.yul\":28846:28849   */\n      dup2\n        /* \"#utility.yul\":28838:28849   */\n      swap1\n      pop\n        /* \"#utility.yul\":28869:28872   */\n      dup2\n        /* \"#utility.yul\":28866:28867   */\n      0x00\n        /* \"#utility.yul\":28859:28873   */\n      mstore\n        /* \"#utility.yul\":28903:28907   */\n      0x20\n        /* \"#utility.yul\":28900:28901   */\n      0x00\n        /* \"#utility.yul\":28890:28908   */\n      keccak256\n        /* \"#utility.yul\":28882:28908   */\n      swap1\n      pop\n        /* \"#utility.yul\":28774:28915   */\n      swap2\n      swap1\n      pop\n      jump\t// out\n        /* \"#utility.yul\":28921:29014   */\n    tag_430:\n        /* \"#utility.yul\":28958:28964   */\n      0x00\n        /* \"#utility.yul\":29005:29007   */\n      0x20\n        /* \"#utility.yul\":29000:29002   */\n      0x1f\n        /* \"#utility.yul\":28993:28998   */\n      dup4\n        /* \"#utility.yul\":28989:29003   */\n      add\n        /* \"#utility.yul\":28985:29008   */\n      div\n        /* \"#utility.yul\":28975:29008   */\n      swap1\n      pop\n        /* \"#utility.yul\":28921:29014   */\n      swap2\n      swap1\n      pop\n      jump\t// out\n        /* \"#utility.yul\":29020:29127   */\n    tag_431:\n        /* \"#utility.yul\":29064:29072   */\n      0x00\n        /* \"#utility.yul\":29114:29119   */\n      dup3\n        /* \"#utility.yul\":29108:29112   */\n      dup3\n        /* \"#utility.yul\":29104:29120   */\n      shl\n        /* \"#utility.yul\":29083:29120   */\n      swap1\n      pop\n        /* \"#utility.yul\":29020:29127   */\n      swap3\n      swap2\n      pop\n      pop\n      jump\t// out\n        /* \"#utility.yul\":29133:29526   */\n    tag_432:\n        /* \"#utility.yul\":29202:29208   */\n      0x00\n        /* \"#utility.yul\":29252:29253   */\n      0x08\n        /* \"#utility.yul\":29240:29250   */\n      dup4\n        /* \"#utility.yul\":29236:29254   */\n      mul\n        /* \"#utility.yul\":29275:29372   */\n      tag_732\n        /* \"#utility.yul\":29305:29371   */\n      0xffffffffffffffffffffffffffffffffffffffffffffffffffffffffffffffff\n        /* \"#utility.yul\":29294:29303   */\n      dup3\n        /* \"#utility.yul\":29275:29372   */\n      tag_431\n      jump\t// in\n    tag_732:\n        /* \"#utility.yul\":29393:29432   */\n      tag_733\n        /* \"#utility.yul\":29423:29431   */\n      dup7\n        /* \"#utility.yul\":29412:29421   */\n      dup4\n        /* \"#utility.yul\":29393:29432   */\n      tag_431\n      jump\t// in\n    tag_733:\n        /* \"#utility.yul\":29381:29432   */\n      swap6\n      pop\n        /* \"#utility.yul\":29465:29469   */\n      dup1\n        /* \"#utility.yul\":29461:29470   */\n      not\n        /* \"#utility.yul\":29454:29459   */\n      dup5\n        /* \"#utility.yul\":29450:29471   */\n      and\n        /* \"#utility.yul\":29441:29471   */\n      swap4\n      pop\n        /* \"#utility.yul\":29514:29518   */\n      dup1\n        /* \"#utility.yul\":29504:29512   */\n      dup7\n        /* \"#utility.yul\":29500:29519   */\n      and\n        /* \"#utility.yul\":29493:29498   */\n      dup5\n        /* \"#utility.yul\":29490:29520   */\n      or\n        /* \"#utility.yul\":29480:29520   */\n      swap3\n      pop\n        /* \"#utility.yul\":29209:29526   */\n      pop\n      pop\n        /* \"#utility.yul\":29133:29526   */\n      swap4\n      swap3\n      pop\n      pop\n      pop\n      jump\t// out\n        /* \"#utility.yul\":29532:29592   */\n    tag_433:\n        /* \"#utility.yul\":29560:29563   */\n      0x00\n        /* \"#utility.yul\":29581:29586   */\n      dup2\n        /* \"#utility.yul\":29574:29586   */\n      swap1\n      pop\n        /* \"#utility.yul\":29532:29592   */\n      swap2\n      swap1\n      pop\n      jump\t// out\n        /* \"#utility.yul\":29598:29740   */\n    tag_434:\n        /* \"#utility.yul\":29648:29657   */\n      0x00\n        /* \"#utility.yul\":29681:29734   */\n      tag_736\n        /* \"#utility.yul\":29699:29733   */\n      tag_737\n        /* \"#utility.yul\":29708:29732   */\n      tag_738\n        /* \"#utility.yul\":29726:29731   */\n      dup5\n        /* \"#utility.yul\":29708:29732   */\n      tag_366\n      jump\t// in\n    tag_738:\n        /* \"#utility.yul\":29699:29733   */\n      tag_433\n      jump\t// in\n    tag_737:\n        /* \"#utility.yul\":29681:29734   */\n      tag_366\n      jump\t// in\n    tag_736:\n        /* \"#utility.yul\":29668:29734   */\n      swap1\n      pop\n        /* \"#utility.yul\":29598:29740   */\n      swap2\n      swap1\n      pop\n      jump\t// out\n        /* \"#utility.yul\":29746:29821   */\n    tag_435:\n        /* \"#utility.yul\":29789:29792   */\n      0x00\n        /* \"#utility.yul\":29810:29815   */\n      dup2\n        /* \"#utility.yul\":29803:29815   */\n      swap1\n      pop\n        /* \"#utility.yul\":29746:29821   */\n      swap2\n      swap1\n      pop\n      jump\t// out\n        /* \"#utility.yul\":29827:30096   */\n    tag_436:\n        /* \"#utility.yul\":29937:29976   */\n      tag_741\n        /* \"#utility.yul\":29968:29975   */\n      dup4\n        /* \"#utility.yul\":29937:29976   */\n      tag_434\n      jump\t// in\n    tag_741:\n        /* \"#utility.yul\":29998:30089   */\n      tag_742\n        /* \"#utility.yul\":30047:30088   */\n      tag_743\n        /* \"#utility.yul\":30071:30087   */\n      dup3\n        /* \"#utility.yul\":30047:30088   */\n      tag_435\n      jump\t// in\n    tag_743:\n        /* \"#utility.yul\":30039:30045   */\n      dup5\n        /* \"#utility.yul\":30032:30036   */\n      dup5\n        /* \"#utility.yul\":30026:30037   */\n      sload\n        /* \"#utility.yul\":29998:30089   */\n      tag_432\n      jump\t// in\n    tag_742:\n        /* \"#utility.yul\":29992:29996   */\n      dup3\n        /* \"#utility.yul\":29985:30090   */\n      sstore\n        /* \"#utility.yul\":29903:30096   */\n      pop\n        /* \"#utility.yul\":29827:30096   */\n      pop\n      pop\n      pop\n      jump\t// out\n        /* \"#utility.yul\":30102:30175   */\n    tag_437:\n        /* \"#utility.yul\":30147:30150   */\n      0x00\n        /* \"#utility.yul\":30102:30175   */\n      swap1\n      jump\t// out\n        /* \"#utility.yul\":30181:30370   */\n    tag_438:\n        /* \"#utility.yul\":30258:30290   */\n      tag_746\n      tag_437\n      jump\t// in\n    tag_746:\n        /* \"#utility.yul\":30299:30364   */\n      tag_747\n        /* \"#utility.yul\":30357:30363   */\n      dup2\n        /* \"#utility.yul\":30349:30355   */\n      dup5\n        /* \"#utility.yul\":30343:30347   */\n      dup5\n        /* \"#utility.yul\":30299:30364   */\n      tag_436\n      jump\t// in\n    tag_747:\n        /* \"#utility.yul\":30234:30370   */\n      pop\n        /* \"#utility.yul\":30181:30370   */\n      pop\n      pop\n      jump\t// out\n        /* \"#utility.yul\":30376:30562   */\n    tag_439:\n        /* \"#utility.yul\":30436:30556   */\n    tag_749:\n        /* \"#utility.yul\":30453:30456   */\n      dup2\n        /* \"#utility.yul\":30446:30451   */\n      dup2\n        /* \"#utility.yul\":30443:30457   */\n      lt\n        /* \"#utility.yul\":30436:30556   */\n      iszero\n      tag_751\n      jumpi\n        /* \"#utility.yul\":30507:30546   */\n      tag_752\n        /* \"#utility.yul\":30544:30545   */\n      0x00\n        /* \"#utility.yul\":30537:30542   */\n      dup3\n        /* \"#utility.yul\":30507:30546   */\n      tag_438\n      jump\t// in\n    tag_752:\n        /* \"#utility.yul\":30480:30481   */\n      0x01\n        /* \"#utility.yul\":30473:30478   */\n      dup2\n        /* \"#utility.yul\":30469:30482   */\n      add\n        /* \"#utility.yul\":30460:30482   */\n      swap1\n      pop\n        /* \"#utility.yul\":30436:30556   */\n      jump(tag_749)\n    tag_751:\n        /* \"#utility.yul\":30376:30562   */\n      pop\n      pop\n      jump\t// out\n        /* \"#utility.yul\":30568:31111   */\n    tag_440:\n        /* \"#utility.yul\":30669:30671   */\n      0x1f\n        /* \"#utility.yul\":30664:30667   */\n      dup3\n        /* \"#utility.yul\":30661:30672   */\n      gt\n        /* \"#utility.yul\":30658:31104   */\n      iszero\n      tag_754\n      jumpi\n        /* \"#utility.yul\":30703:30741   */\n      tag_755\n        /* \"#utility.yul\":30735:30740   */\n      dup2\n        /* \"#utility.yul\":30703:30741   */\n      tag_429\n      jump\t// in\n    tag_755:\n        /* \"#utility.yul\":30787:30816   */\n      tag_756\n        /* \"#utility.yul\":30805:30815   */\n      dup5\n        /* \"#utility.yul\":30787:30816   */\n      tag_430\n      jump\t// in\n    tag_756:\n        /* \"#utility.yul\":30777:30785   */\n      dup2\n        /* \"#utility.yul\":30773:30817   */\n      add\n        /* \"#utility.yul\":30970:30972   */\n      0x20\n        /* \"#utility.yul\":30958:30968   */\n      dup6\n        /* \"#utility.yul\":30955:30973   */\n      lt\n        /* \"#utility.yul\":30952:31001   */\n      iszero\n      tag_757\n      jumpi\n        /* \"#utility.yul\":30991:30999   */\n      dup2\n        /* \"#utility.yul\":30976:30999   */\n      swap1\n      pop\n        /* \"#utility.yul\":30952:31001   */\n    tag_757:\n        /* \"#utility.yul\":31014:31094   */\n      tag_758\n        /* \"#utility.yul\":31070:31092   */\n      tag_759\n        /* \"#utility.yul\":31088:31091   */\n      dup6\n        /* \"#utility.yul\":31070:31092   */\n      tag_430\n      jump\t// in\n    tag_759:\n        /* \"#utility.yul\":31060:31068   */\n      dup4\n        /* \"#utility.yul\":31056:31093   */\n      add\n        /* \"#utility.yul\":31043:31054   */\n      dup3\n        /* \"#utility.yul\":31014:31094   */\n      tag_439\n      jump\t// in\n    tag_758:\n        /* \"#utility.yul\":30673:31104   */\n      pop\n      pop\n        /* \"#utility.yul\":30658:31104   */\n    tag_754:\n        /* \"#utility.yul\":30568:31111   */\n      pop\n      pop\n      pop\n      jump\t// out\n        /* \"#utility.yul\":31117:31234   */\n    tag_441:\n        /* \"#utility.yul\":31171:31179   */\n      0x00\n        /* \"#utility.yul\":31221:31226   */\n      dup3\n        /* \"#utility.yul\":31215:31219   */\n      dup3\n        /* \"#utility.yul\":31211:31227   */\n      shr\n        /* \"#utility.yul\":31190:31227   */\n      swap1\n      pop\n        /* \"#utility.yul\":31117:31234   */\n      swap3\n      swap2\n      pop\n      pop\n      jump\t// out\n        /* \"#utility.yul\":31240:31409   */\n    tag_442:\n        /* \"#utility.yul\":31284:31290   */\n      0x00\n        /* \"#utility.yul\":31317:31368   */\n      tag_762\n        /* \"#utility.yul\":31365:31366   */\n      0x00\n        /* \"#utility.yul\":31361:31367   */\n      not\n        /* \"#utility.yul\":31353:31358   */\n      dup5\n        /* \"#utility.yul\":31350:31351   */\n      0x08\n        /* \"#utility.yul\":31346:31359   */\n      mul\n        /* \"#utility.yul\":31317:31368   */\n      tag_441\n      jump\t// in\n    tag_762:\n        /* \"#utility.yul\":31313:31369   */\n      not\n        /* \"#utility.yul\":31398:31402   */\n      dup1\n        /* \"#utility.yul\":31392:31396   */\n      dup4\n        /* \"#utility.yul\":31388:31403   */\n      and\n        /* \"#utility.yul\":31378:31403   */\n      swap2\n      pop\n        /* \"#utility.yul\":31291:31409   */\n      pop\n        /* \"#utility.yul\":31240:31409   */\n      swap3\n      swap2\n      pop\n      pop\n      jump\t// out\n        /* \"#utility.yul\":31414:31709   */\n    tag_443:\n        /* \"#utility.yul\":31490:31494   */\n      0x00\n        /* \"#utility.yul\":31636:31665   */\n      tag_764\n        /* \"#utility.yul\":31661:31664   */\n      dup4\n        /* \"#utility.yul\":31655:31659   */\n      dup4\n        /* \"#utility.yul\":31636:31665   */\n      tag_442\n      jump\t// in\n    tag_764:\n        /* \"#utility.yul\":31628:31665   */\n      swap2\n      pop\n        /* \"#utility.yul\":31698:31701   */\n      dup3\n        /* \"#utility.yul\":31695:31696   */\n      0x02\n        /* \"#utility.yul\":31691:31702   */\n      mul\n        /* \"#utility.yul\":31685:31689   */\n      dup3\n        /* \"#utility.yul\":31682:31703   */\n      or\n        /* \"#utility.yul\":31674:31703   */\n      swap1\n      pop\n        /* \"#utility.yul\":31414:31709   */\n      swap3\n      swap2\n      pop\n      pop\n      jump\t// out\n        /* \"#utility.yul\":31714:33109   */\n    tag_218:\n        /* \"#utility.yul\":31831:31868   */\n      tag_766\n        /* \"#utility.yul\":31864:31867   */\n      dup3\n        /* \"#utility.yul\":31831:31868   */\n      tag_428\n      jump\t// in\n    tag_766:\n        /* \"#utility.yul\":31933:31951   */\n      0xffffffffffffffff\n        /* \"#utility.yul\":31925:31931   */\n      dup2\n        /* \"#utility.yul\":31922:31952   */\n      gt\n        /* \"#utility.yul\":31919:31975   */\n      iszero\n      tag_767\n      jumpi\n        /* \"#utility.yul\":31955:31973   */\n      tag_768\n      tag_392\n      jump\t// in\n    tag_768:\n        /* \"#utility.yul\":31919:31975   */\n    tag_767:\n        /* \"#utility.yul\":31999:32037   */\n      tag_769\n        /* \"#utility.yul\":32031:32035   */\n      dup3\n        /* \"#utility.yul\":32025:32036   */\n      sload\n        /* \"#utility.yul\":31999:32037   */\n      tag_135\n      jump\t// in\n    tag_769:\n        /* \"#utility.yul\":32084:32151   */\n      tag_770\n        /* \"#utility.yul\":32144:32150   */\n      dup3\n        /* \"#utility.yul\":32136:32142   */\n      dup3\n        /* \"#utility.yul\":32130:32134   */\n      dup6\n        /* \"#utility.yul\":32084:32151   */\n      tag_440\n      jump\t// in\n    tag_770:\n        /* \"#utility.yul\":32178:32179   */\n      0x00\n        /* \"#utility.yul\":32202:32206   */\n      0x20\n        /* \"#utility.yul\":32189:32206   */\n      swap1\n      pop\n        /* \"#utility.yul\":32234:32236   */\n      0x1f\n        /* \"#utility.yul\":32226:32232   */\n      dup4\n        /* \"#utility.yul\":32223:32237   */\n      gt\n        /* \"#utility.yul\":32251:32252   */\n      0x01\n        /* \"#utility.yul\":32246:32864   */\n      dup2\n      eq\n      tag_772\n      jumpi\n        /* \"#utility.yul\":32908:32909   */\n      0x00\n        /* \"#utility.yul\":32925:32931   */\n      dup5\n        /* \"#utility.yul\":32922:32999   */\n      iszero\n      tag_773\n      jumpi\n        /* \"#utility.yul\":32974:32983   */\n      dup3\n        /* \"#utility.yul\":32969:32972   */\n      dup8\n        /* \"#utility.yul\":32965:32984   */\n      add\n        /* \"#utility.yul\":32959:32985   */\n      mload\n        /* \"#utility.yul\":32950:32985   */\n      swap1\n      pop\n        /* \"#utility.yul\":32922:32999   */\n    tag_773:\n        /* \"#utility.yul\":33025:33092   */\n      tag_774\n        /* \"#utility.yul\":33085:33091   */\n      dup6\n        /* \"#utility.yul\":33078:33083   */\n      dup3\n        /* \"#utility.yul\":33025:33092   */\n      tag_443\n      jump\t// in\n    tag_774:\n        /* \"#utility.yul\":33019:33023   */\n      dup7\n        /* \"#utility.yul\":33012:33093   */\n      sstore\n        /* \"#utility.yul\":32881:33103   */\n      pop\n        /* \"#utility.yul\":32216:33103   */\n      jump(tag_771)\n        /* \"#utility.yul\":32246:32864   */\n    tag_772:\n        /* \"#utility.yul\":32298:32302   */\n      0x1f\n        /* \"#utility.yul\":32294:32303   */\n      not\n        /* \"#utility.yul\":32286:32292   */\n      dup5\n        /* \"#utility.yul\":32282:32304   */\n      and\n        /* \"#utility.yul\":32332:32369   */\n      tag_775\n        /* \"#utility.yul\":32364:32368   */\n      dup7\n        /* \"#utility.yul\":32332:32369   */\n      tag_429\n      jump\t// in\n    tag_775:\n        /* \"#utility.yul\":32391:32392   */\n      0x00\n        /* \"#utility.yul\":32405:32613   */\n    tag_776:\n        /* \"#utility.yul\":32419:32426   */\n      dup3\n        /* \"#utility.yul\":32416:32417   */\n      dup2\n        /* \"#utility.yul\":32413:32427   */\n      lt\n        /* \"#utility.yul\":32405:32613   */\n      iszero\n      tag_778\n      jumpi\n        /* \"#utility.yul\":32498:32507   */\n      dup5\n        /* \"#utility.yul\":32493:32496   */\n      dup10\n        /* \"#utility.yul\":32489:32508   */\n      add\n        /* \"#utility.yul\":32483:32509   */\n      mload\n        /* \"#utility.yul\":32475:32481   */\n      dup3\n        /* \"#utility.yul\":32468:32510   */\n      sstore\n        /* \"#utility.yul\":32549:32550   */\n      0x01\n        /* \"#utility.yul\":32541:32547   */\n      dup3\n        /* \"#utility.yul\":32537:32551   */\n      add\n        /* \"#utility.yul\":32527:32551   */\n      swap2\n      pop\n        /* \"#utility.yul\":32596:32598   */\n      0x20\n        /* \"#utility.yul\":32585:32594   */\n      dup6\n        /* \"#utility.yul\":32581:32599   */\n      add\n        /* \"#utility.yul\":32568:32599   */\n      swap5\n      pop\n        /* \"#utility.yul\":32442:32446   */\n      0x20\n        /* \"#utility.yul\":32439:32440   */\n      dup2\n        /* \"#utility.yul\":32435:32447   */\n      add\n        /* \"#utility.yul\":32430:32447   */\n      swap1\n      pop\n        /* \"#utility.yul\":32405:32613   */\n      jump(tag_776)\n    tag_778:\n        /* \"#utility.yul\":32641:32647   */\n      dup7\n        /* \"#utility.yul\":32632:32639   */\n      dup4\n        /* \"#utility.yul\":32629:32648   */\n      lt\n        /* \"#utility.yul\":32626:32805   */\n      iszero\n      tag_779\n      jumpi\n        /* \"#utility.yul\":32699:32708   */\n      dup5\n        /* \"#utility.yul\":32694:32697   */\n      dup10\n        /* \"#utility.yul\":32690:32709   */\n      add\n        /* \"#utility.yul\":32684:32710   */\n      mload\n        /* \"#utility.yul\":32742:32790   */\n      tag_780\n        /* \"#utility.yul\":32784:32788   */\n      0x1f\n        /* \"#utility.yul\":32776:32782   */\n      dup10\n        /* \"#utility.yul\":32772:32789   */\n      and\n        /* \"#utility.yul\":32761:32770   */\n      dup3\n        /* \"#utility.yul\":32742:32790   */\n      tag_442\n      jump\t// in\n    tag_780:\n        /* \"#utility.yul\":32734:32740   */\n      dup4\n        /* \"#utility.yul\":32727:32791   */\n      sstore\n        /* \"#utility.yul\":32649:32805   */\n      pop\n        /* \"#utility.yul\":32626:32805   */\n    tag_779:\n        /* \"#utility.yul\":32851:32852   */\n      0x01\n        /* \"#utility.yul\":32847:32848   */\n      0x02\n        /* \"#utility.yul\":32839:32845   */\n      dup9\n        /* \"#utility.yul\":32835:32849   */\n      mul\n        /* \"#utility.yul\":32831:32853   */\n      add\n        /* \"#utility.yul\":32825:32829   */\n      dup9\n        /* \"#utility.yul\":32818:32854   */\n      sstore\n        /* \"#utility.yul\":32253:32864   */\n      pop\n      pop\n      pop\n        /* \"#utility.yul\":32216:33103   */\n    tag_771:\n      pop\n        /* \"#utility.yul\":31806:33109   */\n      pop\n      pop\n      pop\n        /* \"#utility.yul\":31714:33109   */\n      pop\n      pop\n      jump\t// out\n        /* \"#utility.yul\":33115:33254   */\n    tag_444:\n        /* \"#utility.yul\":33204:33210   */\n      dup3\n        /* \"#utility.yul\":33199:33202   */\n      dup2\n        /* \"#utility.yul\":33194:33197   */\n      dup4\n        /* \"#utility.yul\":33188:33211   */\n      mcopy\n        /* \"#utility.yul\":33245:33246   */\n      0x00\n        /* \"#utility.yul\":33236:33242   */\n      dup4\n        /* \"#utility.yul\":33231:33234   */\n      dup4\n        /* \"#utility.yul\":33227:33243   */\n      add\n        /* \"#utility.yul\":33220:33247   */\n      mstore\n        /* \"#utility.yul\":33115:33254   */\n      pop\n      pop\n      pop\n      jump\t// out\n        /* \"#utility.yul\":33260:33637   */\n    tag_445:\n        /* \"#utility.yul\":33348:33351   */\n      0x00\n        /* \"#utility.yul\":33376:33415   */\n      tag_783\n        /* \"#utility.yul\":33409:33414   */\n      dup3\n        /* \"#utility.yul\":33376:33415   */\n      tag_428\n      jump\t// in\n    tag_783:\n        /* \"#utility.yul\":33431:33502   */\n      tag_784\n        /* \"#utility.yul\":33495:33501   */\n      dup2\n        /* \"#utility.yul\":33490:33493   */\n      dup6\n        /* \"#utility.yul\":33431:33502   */\n      tag_406\n      jump\t// in\n    tag_784:\n        /* \"#utility.yul\":33424:33502   */\n      swap4\n      pop\n        /* \"#utility.yul\":33511:33576   */\n      tag_785\n        /* \"#utility.yul\":33569:33575   */\n      dup2\n        /* \"#utility.yul\":33564:33567   */\n      dup6\n        /* \"#utility.yul\":33557:33561   */\n      0x20\n        /* \"#utility.yul\":33550:33555   */\n      dup7\n        /* \"#utility.yul\":33546:33562   */\n      add\n        /* \"#utility.yul\":33511:33576   */\n      tag_444\n      jump\t// in\n    tag_785:\n        /* \"#utility.yul\":33601:33630   */\n      tag_786\n        /* \"#utility.yul\":33623:33629   */\n      dup2\n        /* \"#utility.yul\":33601:33630   */\n      tag_391\n      jump\t// in\n    tag_786:\n        /* \"#utility.yul\":33596:33599   */\n      dup5\n        /* \"#utility.yul\":33592:33631   */\n      add\n        /* \"#utility.yul\":33585:33631   */\n      swap2\n      pop\n        /* \"#utility.yul\":33352:33637   */\n      pop\n        /* \"#utility.yul\":33260:33637   */\n      swap3\n      swap2\n      pop\n      pop\n      jump\t// out\n        /* \"#utility.yul\":33643:34176   */\n    tag_222:\n        /* \"#utility.yul\":33812:33816   */\n      0x00\n        /* \"#utility.yul\":33850:33852   */\n      0x60\n        /* \"#utility.yul\":33839:33848   */\n      dup3\n        /* \"#utility.yul\":33835:33853   */\n      add\n        /* \"#utility.yul\":33827:33853   */\n      swap1\n      pop\n        /* \"#utility.yul\":33863:33934   */\n      tag_788\n        /* \"#utility.yul\":33931:33932   */\n      0x00\n        /* \"#utility.yul\":33920:33929   */\n      dup4\n        /* \"#utility.yul\":33916:33933   */\n      add\n        /* \"#utility.yul\":33907:33913   */\n      dup7\n        /* \"#utility.yul\":33863:33934   */\n      tag_367\n      jump\t// in\n    tag_788:\n        /* \"#utility.yul\":33981:33990   */\n      dup2\n        /* \"#utility.yul\":33975:33979   */\n      dup2\n        /* \"#utility.yul\":33971:33991   */\n      sub\n        /* \"#utility.yul\":33966:33968   */\n      0x20\n        /* \"#utility.yul\":33955:33964   */\n      dup4\n        /* \"#utility.yul\":33951:33969   */\n      add\n        /* \"#utility.yul\":33944:33992   */\n      mstore\n        /* \"#utility.yul\":34009:34087   */\n      tag_789\n        /* \"#utility.yul\":34082:34086   */\n      dup2\n        /* \"#utility.yul\":34073:34079   */\n      dup6\n        /* \"#utility.yul\":34009:34087   */\n      tag_445\n      jump\t// in\n    tag_789:\n        /* \"#utility.yul\":34001:34087   */\n      swap1\n      pop\n        /* \"#utility.yul\":34097:34169   */\n      tag_790\n        /* \"#utility.yul\":34165:34167   */\n      0x40\n        /* \"#utility.yul\":34154:34163   */\n      dup4\n        /* \"#utility.yul\":34150:34168   */\n      add\n        /* \"#utility.yul\":34141:34147   */\n      dup5\n        /* \"#utility.yul\":34097:34169   */\n      tag_367\n      jump\t// in\n    tag_790:\n        /* \"#utility.yul\":33643:34176   */\n      swap5\n      swap4\n      pop\n      pop\n      pop\n      pop\n      jump\t// out\n        /* \"#utility.yul\":34182:34349   */\n    tag_446:\n        /* \"#utility.yul\":34322:34341   */\n      0x476172616e74696520696e76616c696465000000000000000000000000000000\n        /* \"#utility.yul\":34318:34319   */\n      0x00\n        /* \"#utility.yul\":34310:34316   */\n      dup3\n        /* \"#utility.yul\":34306:34320   */\n      add\n        /* \"#utility.yul\":34299:34342   */\n      mstore\n        /* \"#utility.yul\":34182:34349   */\n      pop\n      jump\t// out\n        /* \"#utility.yul\":34355:34721   */\n    tag_447:\n        /* \"#utility.yul\":34497:34500   */\n      0x00\n        /* \"#utility.yul\":34518:34585   */\n      tag_793\n        /* \"#utility.yul\":34582:34584   */\n      0x11\n        /* \"#utility.yul\":34577:34580   */\n      dup4\n        /* \"#utility.yul\":34518:34585   */\n      tag_406\n      jump\t// in\n    tag_793:\n        /* \"#utility.yul\":34511:34585   */\n      swap2\n      pop\n        /* \"#utility.yul\":34594:34687   */\n      tag_794\n        /* \"#utility.yul\":34683:34686   */\n      dup3\n        /* \"#utility.yul\":34594:34687   */\n      tag_446\n      jump\t// in\n    tag_794:\n        /* \"#utility.yul\":34712:34714   */\n      0x20\n        /* \"#utility.yul\":34707:34710   */\n      dup3\n        /* \"#utility.yul\":34703:34715   */\n      add\n        /* \"#utility.yul\":34696:34715   */\n      swap1\n      pop\n        /* \"#utility.yul\":34355:34721   */\n      swap2\n      swap1\n      pop\n      jump\t// out\n        /* \"#utility.yul\":34727:35146   */\n    tag_244:\n        /* \"#utility.yul\":34893:34897   */\n      0x00\n        /* \"#utility.yul\":34931:34933   */\n      0x20\n        /* \"#utility.yul\":34920:34929   */\n      dup3\n        /* \"#utility.yul\":34916:34934   */\n      add\n        /* \"#utility.yul\":34908:34934   */\n      swap1\n      pop\n        /* \"#utility.yul\":34980:34989   */\n      dup2\n        /* \"#utility.yul\":34974:34978   */\n      dup2\n        /* \"#utility.yul\":34970:34990   */\n      sub\n        /* \"#utility.yul\":34966:34967   */\n      0x00\n        /* \"#utility.yul\":34955:34964   */\n      dup4\n        /* \"#utility.yul\":34951:34968   */\n      add\n        /* \"#utility.yul\":34944:34991   */\n      mstore\n        /* \"#utility.yul\":35008:35139   */\n      tag_796\n        /* \"#utility.yul\":35134:35138   */\n      dup2\n        /* \"#utility.yul\":35008:35139   */\n      tag_447\n      jump\t// in\n    tag_796:\n        /* \"#utility.yul\":35000:35139   */\n      swap1\n      pop\n        /* \"#utility.yul\":34727:35146   */\n      swap2\n      swap1\n      pop\n      jump\t// out\n        /* \"#utility.yul\":35152:35322   */\n    tag_448:\n        /* \"#utility.yul\":35292:35314   */\n      0x506172616d657472657320696e76616c69646573000000000000000000000000\n        /* \"#utility.yul\":35288:35289   */\n      0x00\n        /* \"#utility.yul\":35280:35286   */\n      dup3\n        /* \"#utility.yul\":35276:35290   */\n      add\n        /* \"#utility.yul\":35269:35315   */\n      mstore\n        /* \"#utility.yul\":35152:35322   */\n      pop\n      jump\t// out\n        /* \"#utility.yul\":35328:35694   */\n    tag_449:\n        /* \"#utility.yul\":35470:35473   */\n      0x00\n        /* \"#utility.yul\":35491:35558   */\n      tag_799\n        /* \"#utility.yul\":35555:35557   */\n      0x14\n        /* \"#utility.yul\":35550:35553   */\n      dup4\n        /* \"#utility.yul\":35491:35558   */\n      tag_406\n      jump\t// in\n    tag_799:\n        /* \"#utility.yul\":35484:35558   */\n      swap2\n      pop\n        /* \"#utility.yul\":35567:35660   */\n      tag_800\n        /* \"#utility.yul\":35656:35659   */\n      dup3\n        /* \"#utility.yul\":35567:35660   */\n      tag_448\n      jump\t// in\n    tag_800:\n        /* \"#utility.yul\":35685:35687   */\n      0x20\n        /* \"#utility.yul\":35680:35683   */\n      dup3\n        /* \"#utility.yul\":35676:35688   */\n      add\n        /* \"#utility.yul\":35669:35688   */\n      swap1\n      pop\n        /* \"#utility.yul\":35328:35694   */\n      swap2\n      swap1\n      pop\n      jump\t// out\n        /* \"#utility.yul\":35700:36119   */\n    tag_262:\n        /* \"#utility.yul\":35866:35870   */\n      0x00\n        /* \"#utility.yul\":35904:35906   */\n      0x20\n        /* \"#utility.yul\":35893:35902   */\n      dup3\n        /* \"#utility.yul\":35889:35907   */\n      add\n        /* \"#utility.yul\":35881:35907   */\n      swap1\n      pop\n        /* \"#utility.yul\":35953:35962   */\n      dup2\n        /* \"#utility.yul\":35947:35951   */\n      dup2\n        /* \"#utility.yul\":35943:35963   */\n      sub\n        /* \"#utility.yul\":35939:35940   */\n      0x00\n        /* \"#utility.yul\":35928:35937   */\n      dup4\n        /* \"#utility.yul\":35924:35941   */\n      add\n        /* \"#utility.yul\":35917:35964   */\n      mstore\n        /* \"#utility.yul\":35981:36112   */\n      tag_802\n        /* \"#utility.yul\":36107:36111   */\n      dup2\n        /* \"#utility.yul\":35981:36112   */\n      tag_449\n      jump\t// in\n    tag_802:\n        /* \"#utility.yul\":35973:36112   */\n      swap1\n      pop\n        /* \"#utility.yul\":35700:36119   */\n      swap2\n      swap1\n      pop\n      jump\t// out\n        /* \"#utility.yul\":36125:36301   */\n    tag_450:\n        /* \"#utility.yul\":36265:36293   */\n      0x416472657373652072656365707465757220696e76616c696465000000000000\n        /* \"#utility.yul\":36261:36262   */\n      0x00\n        /* \"#utility.yul\":36253:36259   */\n      dup3\n        /* \"#utility.yul\":36249:36263   */\n      add\n        /* \"#utility.yul\":36242:36294   */\n      mstore\n        /* \"#utility.yul\":36125:36301   */\n      pop\n      jump\t// out\n        /* \"#utility.yul\":36307:36673   */\n    tag_451:\n        /* \"#utility.yul\":36449:36452   */\n      0x00\n        /* \"#utility.yul\":36470:36537   */\n      tag_805\n        /* \"#utility.yul\":36534:36536   */\n      0x1a\n        /* \"#utility.yul\":36529:36532   */\n      dup4\n        /* \"#utility.yul\":36470:36537   */\n      tag_406\n      jump\t// in\n    tag_805:\n        /* \"#utility.yul\":36463:36537   */\n      swap2\n      pop\n        /* \"#utility.yul\":36546:36639   */\n      tag_806\n        /* \"#utility.yul\":36635:36638   */\n      dup3\n        /* \"#utility.yul\":36546:36639   */\n      tag_450\n      jump\t// in\n    tag_806:\n        /* \"#utility.yul\":36664:36666   */\n      0x20\n        /* \"#utility.yul\":36659:36662   */\n      dup3\n        /* \"#utility.yul\":36655:36667   */\n      add\n        /* \"#utility.yul\":36648:36667   */\n      swap1\n      pop\n        /* \"#utility.yul\":36307:36673   */\n      swap2\n      swap1\n      pop\n      jump\t// out\n        /* \"#utility.yul\":36679:37098   */\n    tag_278:\n        /* \"#utility.yul\":36845:36849   */\n      0x00\n        /* \"#utility.yul\":36883:36885   */\n      0x20\n        /* \"#utility.yul\":36872:36881   */\n      dup3\n        /* \"#utility.yul\":36868:36886   */\n      add\n        /* \"#utility.yul\":36860:36886   */\n      swap1\n      pop\n        /* \"#utility.yul\":36932:36941   */\n      dup2\n        /* \"#utility.yul\":36926:36930   */\n      dup2\n        /* \"#utility.yul\":36922:36942   */\n      sub\n        /* \"#utility.yul\":36918:36919   */\n      0x00\n        /* \"#utility.yul\":36907:36916   */\n      dup4\n        /* \"#utility.yul\":36903:36920   */\n      add\n        /* \"#utility.yul\":36896:36943   */\n      mstore\n        /* \"#utility.yul\":36960:37091   */\n      tag_808\n        /* \"#utility.yul\":37086:37090   */\n      dup2\n        /* \"#utility.yul\":36960:37091   */\n      tag_451\n      jump\t// in\n    tag_808:\n        /* \"#utility.yul\":36952:37091   */\n      swap1\n      pop\n        /* \"#utility.yul\":36679:37098   */\n      swap2\n      swap1\n      pop\n      jump\t// out\n        /* \"#utility.yul\":37104:37324   */\n    tag_452:\n        /* \"#utility.yul\":37244:37278   */\n      0x536f6c646520696e737566666973616e742064616e73206c6520636f6e747261\n        /* \"#utility.yul\":37240:37241   */\n      0x00\n        /* \"#utility.yul\":37232:37238   */\n      dup3\n        /* \"#utility.yul\":37228:37242   */\n      add\n        /* \"#utility.yul\":37221:37279   */\n      mstore\n        /* \"#utility.yul\":37313:37316   */\n      0x7400000000000000000000000000000000000000000000000000000000000000\n        /* \"#utility.yul\":37308:37310   */\n      0x20\n        /* \"#utility.yul\":37300:37306   */\n      dup3\n        /* \"#utility.yul\":37296:37311   */\n      add\n        /* \"#utility.yul\":37289:37317   */\n      mstore\n        /* \"#utility.yul\":37104:37324   */\n      pop\n      jump\t// out\n        /* \"#utility.yul\":37330:37696   */\n    tag_453:\n        /* \"#utility.yul\":37472:37475   */\n      0x00\n        /* \"#utility.yul\":37493:37560   */\n      tag_811\n        /* \"#utility.yul\":37557:37559   */\n      0x21\n        /* \"#utility.yul\":37552:37555   */\n      dup4\n        /* \"#utility.yul\":37493:37560   */\n      tag_406\n      jump\t// in\n    tag_811:\n        /* \"#utility.yul\":37486:37560   */\n      swap2\n      pop\n        /* \"#utility.yul\":37569:37662   */\n      tag_812\n        /* \"#utility.yul\":37658:37661   */\n      dup3\n        /* \"#utility.yul\":37569:37662   */\n      tag_452\n      jump\t// in\n    tag_812:\n        /* \"#utility.yul\":37687:37689   */\n      0x40\n        /* \"#utility.yul\":37682:37685   */\n      dup3\n        /* \"#utility.yul\":37678:37690   */\n      add\n        /* \"#utility.yul\":37671:37690   */\n      swap1\n      pop\n        /* \"#utility.yul\":37330:37696   */\n      swap2\n      swap1\n      pop\n      jump\t// out\n        /* \"#utility.yul\":37702:38121   */\n    tag_283:\n        /* \"#utility.yul\":37868:37872   */\n      0x00\n        /* \"#utility.yul\":37906:37908   */\n      0x20\n        /* \"#utility.yul\":37895:37904   */\n      dup3\n        /* \"#utility.yul\":37891:37909   */\n      add\n        /* \"#utility.yul\":37883:37909   */\n      swap1\n      pop\n        /* \"#utility.yul\":37955:37964   */\n      dup2\n        /* \"#utility.yul\":37949:37953   */\n      dup2\n        /* \"#utility.yul\":37945:37965   */\n      sub\n        /* \"#utility.yul\":37941:37942   */\n      0x00\n        /* \"#utility.yul\":37930:37939   */\n      dup4\n        /* \"#utility.yul\":37926:37943   */\n      add\n        /* \"#utility.yul\":37919:37966   */\n      mstore\n        /* \"#utility.yul\":37983:38114   */\n      tag_814\n        /* \"#utility.yul\":38109:38113   */\n      dup2\n        /* \"#utility.yul\":37983:38114   */\n      tag_453\n      jump\t// in\n    tag_814:\n        /* \"#utility.yul\":37975:38114   */\n      swap1\n      pop\n        /* \"#utility.yul\":37702:38121   */\n      swap2\n      swap1\n      pop\n      jump\t// out\n        /* \"#utility.yul\":38127:38274   */\n    tag_454:\n        /* \"#utility.yul\":38228:38239   */\n      0x00\n        /* \"#utility.yul\":38265:38268   */\n      dup2\n        /* \"#utility.yul\":38250:38268   */\n      swap1\n      pop\n        /* \"#utility.yul\":38127:38274   */\n      swap3\n      swap2\n      pop\n      pop\n      jump\t// out\n        /* \"#utility.yul\":38280:38394   */\n    tag_455:\n      pop\n      jump\t// out\n        /* \"#utility.yul\":38400:38798   */\n    tag_456:\n        /* \"#utility.yul\":38559:38562   */\n      0x00\n        /* \"#utility.yul\":38580:38663   */\n      tag_818\n        /* \"#utility.yul\":38661:38662   */\n      0x00\n        /* \"#utility.yul\":38656:38659   */\n      dup4\n        /* \"#utility.yul\":38580:38663   */\n      tag_454\n      jump\t// in\n    tag_818:\n        /* \"#utility.yul\":38573:38663   */\n      swap2\n      pop\n        /* \"#utility.yul\":38672:38765   */\n      tag_819\n        /* \"#utility.yul\":38761:38764   */\n      dup3\n        /* \"#utility.yul\":38672:38765   */\n      tag_455\n      jump\t// in\n    tag_819:\n        /* \"#utility.yul\":38790:38791   */\n      0x00\n        /* \"#utility.yul\":38785:38788   */\n      dup3\n        /* \"#utility.yul\":38781:38792   */\n      add\n        /* \"#utility.yul\":38774:38792   */\n      swap1\n      pop\n        /* \"#utility.yul\":38400:38798   */\n      swap2\n      swap1\n      pop\n      jump\t// out\n        /* \"#utility.yul\":38804:39183   */\n    tag_285:\n        /* \"#utility.yul\":38988:38991   */\n      0x00\n        /* \"#utility.yul\":39010:39157   */\n      tag_821\n        /* \"#utility.yul\":39153:39156   */\n      dup3\n        /* \"#utility.yul\":39010:39157   */\n      tag_456\n      jump\t// in\n    tag_821:\n        /* \"#utility.yul\":39003:39157   */\n      swap2\n      pop\n        /* \"#utility.yul\":39174:39177   */\n      dup2\n        /* \"#utility.yul\":39167:39177   */\n      swap1\n      pop\n        /* \"#utility.yul\":38804:39183   */\n      swap2\n      swap1\n      pop\n      jump\t// out\n        /* \"#utility.yul\":39189:39355   */\n    tag_457:\n        /* \"#utility.yul\":39329:39347   */\n      0x5472616e7366657274206563686f756500000000000000000000000000000000\n        /* \"#utility.yul\":39325:39326   */\n      0x00\n        /* \"#utility.yul\":39317:39323   */\n      dup3\n        /* \"#utility.yul\":39313:39327   */\n      add\n        /* \"#utility.yul\":39306:39348   */\n      mstore\n        /* \"#utility.yul\":39189:39355   */\n      pop\n      jump\t// out\n        /* \"#utility.yul\":39361:39727   */\n    tag_458:\n        /* \"#utility.yul\":39503:39506   */\n      0x00\n        /* \"#utility.yul\":39524:39591   */\n      tag_824\n        /* \"#utility.yul\":39588:39590   */\n      0x10\n        /* \"#utility.yul\":39583:39586   */\n      dup4\n        /* \"#utility.yul\":39524:39591   */\n      tag_406\n      jump\t// in\n    tag_824:\n        /* \"#utility.yul\":39517:39591   */\n      swap2\n      pop\n        /* \"#utility.yul\":39600:39693   */\n      tag_825\n        /* \"#utility.yul\":39689:39692   */\n      dup3\n        /* \"#utility.yul\":39600:39693   */\n      tag_457\n      jump\t// in\n    tag_825:\n        /* \"#utility.yul\":39718:39720   */\n      0x20\n        /* \"#utility.yul\":39713:39716   */\n      dup3\n        /* \"#utility.yul\":39709:39721   */\n      add\n        /* \"#utility.yul\":39702:39721   */\n      swap1\n      pop\n        /* \"#utility.yul\":39361:39727   */\n      swap2\n      swap1\n      pop\n      jump\t// out\n        /* \"#utility.yul\":39733:40152   */\n    tag_291:\n        /* \"#utility.yul\":39899:39903   */\n      0x00\n        /* \"#utility.yul\":39937:39939   */\n      0x20\n        /* \"#utility.yul\":39926:39935   */\n      dup3\n        /* \"#utility.yul\":39922:39940   */\n      add\n        /* \"#utility.yul\":39914:39940   */\n      swap1\n      pop\n        /* \"#utility.yul\":39986:39995   */\n      dup2\n        /* \"#utility.yul\":39980:39984   */\n      dup2\n        /* \"#utility.yul\":39976:39996   */\n      sub\n        /* \"#utility.yul\":39972:39973   */\n      0x00\n        /* \"#utility.yul\":39961:39970   */\n      dup4\n        /* \"#utility.yul\":39957:39974   */\n      add\n        /* \"#utility.yul\":39950:39997   */\n      mstore\n        /* \"#utility.yul\":40014:40145   */\n      tag_827\n        /* \"#utility.yul\":40140:40144   */\n      dup2\n        /* \"#utility.yul\":40014:40145   */\n      tag_458\n      jump\t// in\n    tag_827:\n        /* \"#utility.yul\":40006:40145   */\n      swap1\n      pop\n        /* \"#utility.yul\":39733:40152   */\n      swap2\n      swap1\n      pop\n      jump\t// out\n        /* \"#utility.yul\":40158:40338   */\n    tag_311:\n        /* \"#utility.yul\":40206:40283   */\n      0x4e487b7100000000000000000000000000000000000000000000000000000000\n        /* \"#utility.yul\":40203:40204   */\n      0x00\n        /* \"#utility.yul\":40196:40284   */\n      mstore\n        /* \"#utility.yul\":40303:40307   */\n      0x32\n        /* \"#utility.yul\":40300:40301   */\n      0x04\n        /* \"#utility.yul\":40293:40308   */\n      mstore\n        /* \"#utility.yul\":40327:40331   */\n      0x24\n        /* \"#utility.yul\":40324:40325   */\n      0x00\n        /* \"#utility.yul\":40317:40332   */\n      revert\n        /* \"#utility.yul\":40344:40719   */\n    tag_314:\n        /* \"#utility.yul\":40383:40386   */\n      0x00\n        /* \"#utility.yul\":40402:40421   */\n      tag_830\n        /* \"#utility.yul\":40419:40420   */\n      dup3\n        /* \"#utility.yul\":40402:40421   */\n      tag_380\n      jump\t// in\n    tag_830:\n        /* \"#utility.yul\":40397:40421   */\n      swap2\n      pop\n        /* \"#utility.yul\":40435:40454   */\n      tag_831\n        /* \"#utility.yul\":40452:40453   */\n      dup4\n        /* \"#utility.yul\":40435:40454   */\n      tag_380\n      jump\t// in\n    tag_831:\n        /* \"#utility.yul\":40430:40454   */\n      swap3\n      pop\n        /* \"#utility.yul\":40477:40478   */\n      dup3\n        /* \"#utility.yul\":40474:40475   */\n      dup3\n        /* \"#utility.yul\":40470:40479   */\n      add\n        /* \"#utility.yul\":40463:40479   */\n      swap1\n      pop\n        /* \"#utility.yul\":40675:40676   */\n      dup3\n        /* \"#utility.yul\":40670:40673   */\n      dup2\n        /* \"#utility.yul\":40666:40677   */\n      slt\n        /* \"#utility.yul\":40659:40678   */\n      iszero\n        /* \"#utility.yul\":40655:40656   */\n      0x00\n        /* \"#utility.yul\":40652:40653   */\n      dup4\n        /* \"#utility.yul\":40648:40657   */\n      slt\n        /* \"#utility.yul\":40644:40679   */\n      and\n        /* \"#utility.yul\":40627:40628   */\n      dup4\n        /* \"#utility.yul\":40622:40625   */\n      dup3\n        /* \"#utility.yul\":40618:40629   */\n      slt\n        /* \"#utility.yul\":40613:40614   */\n      0x00\n        /* \"#utility.yul\":40610:40611   */\n      dup5\n        /* \"#utility.yul\":40606:40615   */\n      slt\n        /* \"#utility.yul\":40599:40616   */\n      iszero\n        /* \"#utility.yul\":40595:40630   */\n      and\n        /* \"#utility.yul\":40579:40689   */\n      or\n        /* \"#utility.yul\":40576:40712   */\n      iszero\n      tag_832\n      jumpi\n        /* \"#utility.yul\":40692:40710   */\n      tag_833\n      tag_412\n      jump\t// in\n    tag_833:\n        /* \"#utility.yul\":40576:40712   */\n    tag_832:\n        /* \"#utility.yul\":40344:40719   */\n      swap3\n      swap2\n      pop\n      pop\n      jump\t// out\n        /* \"#utility.yul\":40725:41097   */\n    tag_317:\n        /* \"#utility.yul\":40764:40768   */\n      0x00\n        /* \"#utility.yul\":40784:40803   */\n      tag_835\n        /* \"#utility.yul\":40801:40802   */\n      dup3\n        /* \"#utility.yul\":40784:40803   */\n      tag_380\n      jump\t// in\n    tag_835:\n        /* \"#utility.yul\":40779:40803   */\n      swap2\n      pop\n        /* \"#utility.yul\":40817:40836   */\n      tag_836\n        /* \"#utility.yul\":40834:40835   */\n      dup4\n        /* \"#utility.yul\":40817:40836   */\n      tag_380\n      jump\t// in\n    tag_836:\n        /* \"#utility.yul\":40812:40836   */\n      swap3\n      pop\n        /* \"#utility.yul\":40860:40861   */\n      dup3\n        /* \"#utility.yul\":40857:40858   */\n      dup3\n        /* \"#utility.yul\":40853:40862   */\n      sub\n        /* \"#utility.yul\":40845:40862   */\n      swap1\n      pop\n        /* \"#utility.yul\":41054:41055   */\n      dup2\n        /* \"#utility.yul\":41048:41052   */\n      dup2\n        /* \"#utility.yul\":41044:41056   */\n      slt\n        /* \"#utility.yul\":41040:41041   */\n      0x00\n        /* \"#utility.yul\":41037:41038   */\n      dup5\n        /* \"#utility.yul\":41033:41042   */\n      slt\n        /* \"#utility.yul\":41029:41057   */\n      and\n        /* \"#utility.yul\":41012:41013   */\n      dup3\n        /* \"#utility.yul\":41006:41010   */\n      dup3\n        /* \"#utility.yul\":41002:41014   */\n      sgt\n        /* \"#utility.yul\":40997:40998   */\n      0x00\n        /* \"#utility.yul\":40994:40995   */\n      dup6\n        /* \"#utility.yul\":40990:40999   */\n      slt\n        /* \"#utility.yul\":40983:41000   */\n      iszero\n        /* \"#utility.yul\":40979:41015   */\n      and\n        /* \"#utility.yul\":40963:41067   */\n      or\n        /* \"#utility.yul\":40960:41090   */\n      iszero\n      tag_837\n      jumpi\n        /* \"#utility.yul\":41070:41088   */\n      tag_838\n      tag_412\n      jump\t// in\n    tag_838:\n        /* \"#utility.yul\":40960:41090   */\n    tag_837:\n        /* \"#utility.yul\":40725:41097   */\n      swap3\n      swap2\n      pop\n      pop\n      jump\t// out\n        /* \"#utility.yul\":41103:41268   */\n    tag_459:\n        /* \"#utility.yul\":41243:41260   */\n      0x56616c65757220696e76616c6964650000000000000000000000000000000000\n        /* \"#utility.yul\":41239:41240   */\n      0x00\n        /* \"#utility.yul\":41231:41237   */\n      dup3\n        /* \"#utility.yul\":41227:41241   */\n      add\n        /* \"#utility.yul\":41220:41261   */\n      mstore\n        /* \"#utility.yul\":41103:41268   */\n      pop\n      jump\t// out\n        /* \"#utility.yul\":41274:41640   */\n    tag_460:\n        /* \"#utility.yul\":41416:41419   */\n      0x00\n        /* \"#utility.yul\":41437:41504   */\n      tag_841\n        /* \"#utility.yul\":41501:41503   */\n      0x0f\n        /* \"#utility.yul\":41496:41499   */\n      dup4\n        /* \"#utility.yul\":41437:41504   */\n      tag_406\n      jump\t// in\n    tag_841:\n        /* \"#utility.yul\":41430:41504   */\n      swap2\n      pop\n        /* \"#utility.yul\":41513:41606   */\n      tag_842\n        /* \"#utility.yul\":41602:41605   */\n      dup3\n        /* \"#utility.yul\":41513:41606   */\n      tag_459\n      jump\t// in\n    tag_842:\n        /* \"#utility.yul\":41631:41633   */\n      0x20\n        /* \"#utility.yul\":41626:41629   */\n      dup3\n        /* \"#utility.yul\":41622:41634   */\n      add\n        /* \"#utility.yul\":41615:41634   */\n      swap1\n      pop\n        /* \"#utility.yul\":41274:41640   */\n      swap2\n      swap1\n      pop\n      jump\t// out\n        /* \"#utility.yul\":41646:42065   */\n    tag_329:\n        /* \"#utility.yul\":41812:41816   */\n      0x00\n        /* \"#utility.yul\":41850:41852   */\n      0x20\n        /* \"#utility.yul\":41839:41848   */\n      dup3\n        /* \"#utility.yul\":41835:41853   */\n      add\n        /* \"#utility.yul\":41827:41853   */\n      swap1\n      pop\n        /* \"#utility.yul\":41899:41908   */\n      dup2\n        /* \"#utility.yul\":41893:41897   */\n      dup2\n        /* \"#utility.yul\":41889:41909   */\n      sub\n        /* \"#utility.yul\":41885:41886   */\n      0x00\n        /* \"#utility.yul\":41874:41883   */\n      dup4\n        /* \"#utility.yul\":41870:41887   */\n      add\n        /* \"#utility.yul\":41863:41910   */\n      mstore\n        /* \"#utility.yul\":41927:42058   */\n      tag_844\n        /* \"#utility.yul\":42053:42057   */\n      dup2\n        /* \"#utility.yul\":41927:42058   */\n      tag_460\n      jump\t// in\n    tag_844:\n        /* \"#utility.yul\":41919:42058   */\n      swap1\n      pop\n        /* \"#utility.yul\":41646:42065   */\n      swap2\n      swap1\n      pop\n      jump\t// out\n        /* \"#utility.yul\":42071:42399   */\n    tag_333:\n        /* \"#utility.yul\":42190:42194   */\n      0x00\n        /* \"#utility.yul\":42228:42230   */\n      0x40\n        /* \"#utility.yul\":42217:42226   */\n      dup3\n        /* \"#utility.yul\":42213:42231   */\n      add\n        /* \"#utility.yul\":42205:42231   */\n      swap1\n      pop\n        /* \"#utility.yul\":42241:42310   */\n      tag_846\n        /* \"#utility.yul\":42307:42308   */\n      0x00\n        /* \"#utility.yul\":42296:42305   */\n      dup4\n        /* \"#utility.yul\":42292:42309   */\n      add\n        /* \"#utility.yul\":42283:42289   */\n      dup6\n        /* \"#utility.yul\":42241:42310   */\n      tag_388\n      jump\t// in\n    tag_846:\n        /* \"#utility.yul\":42320:42392   */\n      tag_847\n        /* \"#utility.yul\":42388:42390   */\n      0x20\n        /* \"#utility.yul\":42377:42386   */\n      dup4\n        /* \"#utility.yul\":42373:42391   */\n      add\n        /* \"#utility.yul\":42364:42370   */\n      dup5\n        /* \"#utility.yul\":42320:42392   */\n      tag_367\n      jump\t// in\n    tag_847:\n        /* \"#utility.yul\":42071:42399   */\n      swap4\n      swap3\n      pop\n      pop\n      pop\n      jump\t// out\n        /* \"#utility.yul\":42405:42627   */\n    tag_461:\n        /* \"#utility.yul\":42545:42579   */\n      0x4c6520726174696f20646f697420657472652073757065726965757220612031\n        /* \"#utility.yul\":42541:42542   */\n      0x00\n        /* \"#utility.yul\":42533:42539   */\n      dup3\n        /* \"#utility.yul\":42529:42543   */\n      add\n        /* \"#utility.yul\":42522:42580   */\n      mstore\n        /* \"#utility.yul\":42614:42619   */\n      0x3030250000000000000000000000000000000000000000000000000000000000\n        /* \"#utility.yul\":42609:42611   */\n      0x20\n        /* \"#utility.yul\":42601:42607   */\n      dup3\n        /* \"#utility.yul\":42597:42612   */\n      add\n        /* \"#utility.yul\":42590:42620   */\n      mstore\n        /* \"#utility.yul\":42405:42627   */\n      pop\n      jump\t// out\n        /* \"#utility.yul\":42633:42999   */\n    tag_462:\n        /* \"#utility.yul\":42775:42778   */\n      0x00\n        /* \"#utility.yul\":42796:42863   */\n      tag_850\n        /* \"#utility.yul\":42860:42862   */\n      0x23\n        /* \"#utility.yul\":42855:42858   */\n      dup4\n        /* \"#utility.yul\":42796:42863   */\n      tag_406\n      jump\t// in\n    tag_850:\n        /* \"#utility.yul\":42789:42863   */\n      swap2\n      pop\n        /* \"#utility.yul\":42872:42965   */\n      tag_851\n        /* \"#utility.yul\":42961:42964   */\n      dup3\n        /* \"#utility.yul\":42872:42965   */\n      tag_461\n      jump\t// in\n    tag_851:\n        /* \"#utility.yul\":42990:42992   */\n      0x40\n        /* \"#utility.yul\":42985:42988   */\n      dup3\n        /* \"#utility.yul\":42981:42993   */\n      add\n        /* \"#utility.yul\":42974:42993   */\n      swap1\n      pop\n        /* \"#utility.yul\":42633:42999   */\n      swap2\n      swap1\n      pop\n      jump\t// out\n        /* \"#utility.yul\":43005:43424   */\n    tag_342:\n        /* \"#utility.yul\":43171:43175   */\n      0x00\n        /* \"#utility.yul\":43209:43211   */\n      0x20\n        /* \"#utility.yul\":43198:43207   */\n      dup3\n        /* \"#utility.yul\":43194:43212   */\n      add\n        /* \"#utility.yul\":43186:43212   */\n      swap1\n      pop\n        /* \"#utility.yul\":43258:43267   */\n      dup2\n        /* \"#utility.yul\":43252:43256   */\n      dup2\n        /* \"#utility.yul\":43248:43268   */\n      sub\n        /* \"#utility.yul\":43244:43245   */\n      0x00\n        /* \"#utility.yul\":43233:43242   */\n      dup4\n        /* \"#utility.yul\":43229:43246   */\n      add\n        /* \"#utility.yul\":43222:43269   */\n      mstore\n        /* \"#utility.yul\":43286:43417   */\n      tag_853\n        /* \"#utility.yul\":43412:43416   */\n      dup2\n        /* \"#utility.yul\":43286:43417   */\n      tag_462\n      jump\t// in\n    tag_853:\n        /* \"#utility.yul\":43278:43417   */\n      swap1\n      pop\n        /* \"#utility.yul\":43005:43424   */\n      swap2\n      swap1\n      pop\n      jump\t// out\n        /* \"#utility.yul\":43430:43601   */\n    tag_463:\n        /* \"#utility.yul\":43570:43593   */\n      0x476172616e74696520696e737566666973616e74650000000000000000000000\n        /* \"#utility.yul\":43566:43567   */\n      0x00\n        /* \"#utility.yul\":43558:43564   */\n      dup3\n        /* \"#utility.yul\":43554:43568   */\n      add\n        /* \"#utility.yul\":43547:43594   */\n      mstore\n        /* \"#utility.yul\":43430:43601   */\n      pop\n      jump\t// out\n        /* \"#utility.yul\":43607:43973   */\n    tag_464:\n        /* \"#utility.yul\":43749:43752   */\n      0x00\n        /* \"#utility.yul\":43770:43837   */\n      tag_856\n        /* \"#utility.yul\":43834:43836   */\n      0x15\n        /* \"#utility.yul\":43829:43832   */\n      dup4\n        /* \"#utility.yul\":43770:43837   */\n      tag_406\n      jump\t// in\n    tag_856:\n        /* \"#utility.yul\":43763:43837   */\n      swap2\n      pop\n        /* \"#utility.yul\":43846:43939   */\n      tag_857\n        /* \"#utility.yul\":43935:43938   */\n      dup3\n        /* \"#utility.yul\":43846:43939   */\n      tag_463\n      jump\t// in\n    tag_857:\n        /* \"#utility.yul\":43964:43966   */\n      0x20\n        /* \"#utility.yul\":43959:43962   */\n      dup3\n        /* \"#utility.yul\":43955:43967   */\n      add\n        /* \"#utility.yul\":43948:43967   */\n      swap1\n      pop\n        /* \"#utility.yul\":43607:43973   */\n      swap2\n      swap1\n      pop\n      jump\t// out\n        /* \"#utility.yul\":43979:44508   */\n    tag_354:\n        /* \"#utility.yul\":44173:44177   */\n      0x00\n        /* \"#utility.yul\":44211:44213   */\n      0x40\n        /* \"#utility.yul\":44200:44209   */\n      dup3\n        /* \"#utility.yul\":44196:44214   */\n      add\n        /* \"#utility.yul\":44188:44214   */\n      swap1\n      pop\n        /* \"#utility.yul\":44260:44269   */\n      dup2\n        /* \"#utility.yul\":44254:44258   */\n      dup2\n        /* \"#utility.yul\":44250:44270   */\n      sub\n        /* \"#utility.yul\":44246:44247   */\n      0x00\n        /* \"#utility.yul\":44235:44244   */\n      dup4\n        /* \"#utility.yul\":44231:44248   */\n      add\n        /* \"#utility.yul\":44224:44271   */\n      mstore\n        /* \"#utility.yul\":44288:44419   */\n      tag_859\n        /* \"#utility.yul\":44414:44418   */\n      dup2\n        /* \"#utility.yul\":44288:44419   */\n      tag_464\n      jump\t// in\n    tag_859:\n        /* \"#utility.yul\":44280:44419   */\n      swap1\n      pop\n        /* \"#utility.yul\":44429:44501   */\n      tag_860\n        /* \"#utility.yul\":44497:44499   */\n      0x20\n        /* \"#utility.yul\":44486:44495   */\n      dup4\n        /* \"#utility.yul\":44482:44500   */\n      add\n        /* \"#utility.yul\":44473:44479   */\n      dup5\n        /* \"#utility.yul\":44429:44501   */\n      tag_367\n      jump\t// in\n    tag_860:\n        /* \"#utility.yul\":43979:44508   */\n      swap3\n      swap2\n      pop\n      pop\n      jump\t// out\n        /* \"#utility.yul\":44514:44676   */\n    tag_465:\n        /* \"#utility.yul\":44654:44668   */\n      0x52697371756520656c6576650000000000000000000000000000000000000000\n        /* \"#utility.yul\":44650:44651   */\n      0x00\n        /* \"#utility.yul\":44642:44648   */\n      dup3\n        /* \"#utility.yul\":44638:44652   */\n      add\n        /* \"#utility.yul\":44631:44669   */\n      mstore\n        /* \"#utility.yul\":44514:44676   */\n      pop\n      jump\t// out\n        /* \"#utility.yul\":44682:45048   */\n    tag_466:\n        /* \"#utility.yul\":44824:44827   */\n      0x00\n        /* \"#utility.yul\":44845:44912   */\n      tag_863\n        /* \"#utility.yul\":44909:44911   */\n      0x0c\n        /* \"#utility.yul\":44904:44907   */\n      dup4\n        /* \"#utility.yul\":44845:44912   */\n      tag_406\n      jump\t// in\n    tag_863:\n        /* \"#utility.yul\":44838:44912   */\n      swap2\n      pop\n        /* \"#utility.yul\":44921:45014   */\n      tag_864\n        /* \"#utility.yul\":45010:45013   */\n      dup3\n        /* \"#utility.yul\":44921:45014   */\n      tag_465\n      jump\t// in\n    tag_864:\n        /* \"#utility.yul\":45039:45041   */\n      0x20\n        /* \"#utility.yul\":45034:45037   */\n      dup3\n        /* \"#utility.yul\":45030:45042   */\n      add\n        /* \"#utility.yul\":45023:45042   */\n      swap1\n      pop\n        /* \"#utility.yul\":44682:45048   */\n      swap2\n      swap1\n      pop\n      jump\t// out\n        /* \"#utility.yul\":45054:45583   */\n    tag_358:\n        /* \"#utility.yul\":45248:45252   */\n      0x00\n        /* \"#utility.yul\":45286:45288   */\n      0x40\n        /* \"#utility.yul\":45275:45284   */\n      dup3\n        /* \"#utility.yul\":45271:45289   */\n      add\n        /* \"#utility.yul\":45263:45289   */\n      swap1\n      pop\n        /* \"#utility.yul\":45335:45344   */\n      dup2\n        /* \"#utility.yul\":45329:45333   */\n      dup2\n        /* \"#utility.yul\":45325:45345   */\n      sub\n        /* \"#utility.yul\":45321:45322   */\n      0x00\n        /* \"#utility.yul\":45310:45319   */\n      dup4\n        /* \"#utility.yul\":45306:45323   */\n      add\n        /* \"#utility.yul\":45299:45346   */\n      mstore\n        /* \"#utility.yul\":45363:45494   */\n      tag_866\n        /* \"#utility.yul\":45489:45493   */\n      dup2\n        /* \"#utility.yul\":45363:45494   */\n      tag_466\n      jump\t// in\n    tag_866:\n        /* \"#utility.yul\":45355:45494   */\n      swap1\n      pop\n        /* \"#utility.yul\":45504:45576   */\n      tag_867\n        /* \"#utility.yul\":45572:45574   */\n      0x20\n        /* \"#utility.yul\":45561:45570   */\n      dup4\n        /* \"#utility.yul\":45557:45575   */\n      add\n        /* \"#utility.yul\":45548:45554   */\n      dup5\n        /* \"#utility.yul\":45504:45576   */\n      tag_367\n      jump\t// in\n    tag_867:\n        /* \"#utility.yul\":45054:45583   */\n      swap3\n      swap2\n      pop\n      pop\n      jump\t// out\n\n    auxdata: 0xa2646970667358221220b97d91bd04e1db54f709a9ffb841d03c8ee3fab71664171eb713f917c6340da964736f6c634300081a0033\n}\n",
				"bytecode": {
					"linkReferences": {},
					"object": "608060405260786001553480156013575f80fd5b50335f806101000a81548173ffffffffffffffffffffffffffffffffffffffff021916908373ffffffffffffffffffffffffffffffffffffffff160217905550613feb806100605f395ff3fe608060405260043610610117575f3560e01c806357cab90a1161009f578063932ab44511610063578063932ab445146103ee578063b05a5cfb14610416578063d1b6b47814610452578063e4d2d96e1461047a578063f851a440146104a25761011e565b806357cab90a146102e15780637228587e1461031d578063760b1eee1461034557806385381211146103885780638e068eb0146103b25761011e565b80633916bb2b116100e65780633916bb2b146101ec578063397c4727146102165780634dd54c2a1461025557806352ea56921461027d578063561a9927146102a55761011e565b80630aae162e146101225780631411ae6f1461015e57806325836bc8146101865780632fcc5184146101b05761011e565b3661011e57005b5f80fd5b34801561012d575f80fd5b5061014860048036038101906101439190612a36565b6104cc565b6040516101559190612a79565b60405180910390f35b348015610169575f80fd5b50610184600480360381019061017f9190612abc565b6107c8565b005b348015610191575f80fd5b5061019a610b29565b6040516101a79190612bd7565b60405180910390f35b3480156101bb575f80fd5b506101d660048036038101906101d19190612a36565b610bb4565b6040516101e39190612a79565b60405180910390f35b3480156101f7575f80fd5b50610200610e7e565b60405161020d9190612d19565b60405180910390f35b348015610221575f80fd5b5061023c60048036038101906102379190612d39565b610f97565b60405161024c9493929190612d82565b60405180910390f35b348015610260575f80fd5b5061027b60048036038101906102769190612f01565b611010565b005b348015610288575f80fd5b506102a3600480360381019061029e9190612f6d565b6113e2565b005b3480156102b0575f80fd5b506102cb60048036038101906102c69190612d39565b61159e565b6040516102d89190612fab565b60405180910390f35b3480156102ec575f80fd5b5061030760048036038101906103029190612fc4565b6115d9565b6040516103149190613002565b60405180910390f35b348015610328575f80fd5b50610343600480360381019061033e9190612f6d565b6115f9565b005b348015610350575f80fd5b5061036b60048036038101906103669190612a36565b6117fb565b60405161037f989796959493929190613035565b60405180910390f35b348015610393575f80fd5b5061039c61186a565b6040516103a99190612a79565b60405180910390f35b3480156103bd575f80fd5b506103d860048036038101906103d39190612a36565b611870565b6040516103e59190612a79565b60405180910390f35b3480156103f9575f80fd5b50610414600480360381019061040f91906130ec565b611b8b565b005b348015610421575f80fd5b5061043c60048036038101906104379190612a36565b611f43565b6040516104499190613002565b60405180910390f35b34801561045d575f80fd5b5061047860048036038101906104739190613154565b612276565b005b348015610485575f80fd5b506104a0600480360381019061049b9190612d39565b612662565b005b3480156104ad575f80fd5b506104b661273c565b6040516104c39190612fab565b60405180910390f35b5f8160025f8273ffffffffffffffffffffffffffffffffffffffff1673ffffffffffffffffffffffffffffffffffffffff1681526020019081526020015f206006015f9054906101000a900460ff1661055a576040517f08c379a000000000000000000000000000000000000000000000000000000000815260040161055190613212565b60405180910390fd5b5f60025f8573ffffffffffffffffffffffffffffffffffffffff1673ffffffffffffffffffffffffffffffffffffffff1681526020019081526020015f20604051806101200160405290815f82015f9054906101000a900473ffffffffffffffffffffffffffffffffffffffff1673ffffffffffffffffffffffffffffffffffffffff1673ffffffffffffffffffffffffffffffffffffffff1681526020016001820154815260200160028201548152602001600382015481526020016004820154815260200160058201805480602002602001604051908101604052809291908181526020015f905b82821015610721578382905f5260205f2090600402016040518060800160405290815f820154815260200160018201805461067e9061325d565b80601f01602080910402602001604051908101604052809291908181526020018280546106aa9061325d565b80156106f55780601f106106cc576101008083540402835291602001916106f5565b820191905f5260205f20905b8154815290600101906020018083116106d857829003601f168201915b505050505081526020016002820154815260200160038201548152505081526020019060010190610644565b505050508152602001600682015f9054906101000a900460ff161515151581526020016007820154815260200160088201548152505090505f81606001511161079f576040517f08c379a0000000000000000000000000000000000000000000000000000000008152600401610796906132d7565b60405180910390fd5b8060600151606482608001516107b59190613322565b6107bf9190613390565b92505050919050565b5f8054906101000a900473ffffffffffffffffffffffffffffffffffffffff1673ffffffffffffffffffffffffffffffffffffffff163373ffffffffffffffffffffffffffffffffffffffff1614610855576040517f08c379a000000000000000000000000000000000000000000000000000000000815260040161084c90613430565b60405180910390fd5b5f73ffffffffffffffffffffffffffffffffffffffff168473ffffffffffffffffffffffffffffffffffffffff16036108c3576040517f08c379a00000000000000000000000000000000000000000000000000000000081526004016108ba90613498565b60405180910390fd5b60025f8573ffffffffffffffffffffffffffffffffffffffff1673ffffffffffffffffffffffffffffffffffffffff1681526020019081526020015f206006015f9054906101000a900460ff1615610950576040517f08c379a000000000000000000000000000000000000000000000000000000000815260040161094790613500565b60405180910390fd5b5f83118015610960575060648311155b61099f576040517f08c379a000000000000000000000000000000000000000000000000000000000815260040161099690613568565b60405180910390fd5b5f60025f8673ffffffffffffffffffffffffffffffffffffffff1673ffffffffffffffffffffffffffffffffffffffff1681526020019081526020015f20905084815f015f6101000a81548173ffffffffffffffffffffffffffffffffffffffff021916908373ffffffffffffffffffffffffffffffffffffffff1602179055508381600101819055508281600201819055505f81600301819055508181600401819055506001816006015f6101000a81548160ff0219169083151502179055505f81600701819055505f8160080181905550600385908060018154018082558091505060019003905f5260205f20015f9091909190916101000a81548173ffffffffffffffffffffffffffffffffffffffff021916908373ffffffffffffffffffffffffffffffffffffffff1602179055508473ffffffffffffffffffffffffffffffffffffffff167fd3f5388c2257f37d0083b7a1edcc31b560eda57385dcd90c8429a7fb803839108484604051610b1a929190613586565b60405180910390a25050505050565b60606003805480602002602001604051908101604052809291908181526020018280548015610baa57602002820191905f5260205f20905b815f9054906101000a900473ffffffffffffffffffffffffffffffffffffffff1673ffffffffffffffffffffffffffffffffffffffff1681526020019060010190808311610b61575b5050505050905090565b5f8160025f8273ffffffffffffffffffffffffffffffffffffffff1673ffffffffffffffffffffffffffffffffffffffff1681526020019081526020015f206006015f9054906101000a900460ff16610c42576040517f08c379a0000000000000000000000000000000000000000000000000000000008152600401610c3990613212565b60405180910390fd5b5f60025f8573ffffffffffffffffffffffffffffffffffffffff1673ffffffffffffffffffffffffffffffffffffffff1681526020019081526020015f20604051806101200160405290815f82015f9054906101000a900473ffffffffffffffffffffffffffffffffffffffff1673ffffffffffffffffffffffffffffffffffffffff1673ffffffffffffffffffffffffffffffffffffffff1681526020016001820154815260200160028201548152602001600382015481526020016004820154815260200160058201805480602002602001604051908101604052809291908181526020015f905b82821015610e09578382905f5260205f2090600402016040518060800160405290815f8201548152602001600182018054610d669061325d565b80601f0160208091040260200160405190810160405280929190818152602001828054610d929061325d565b8015610ddd5780601f10610db457610100808354040283529160200191610ddd565b820191905f5260205f20905b815481529060010190602001808311610dc057829003601f168201915b505050505081526020016002820154815260200160038201548152505081526020019060010190610d2c565b505050508152602001600682015f9054906101000a900460ff161515151581526020016007820154815260200160088201548152505090505f816060015114610e725780606001516064826101000151610e639190613322565b610e6d9190613390565b610e75565b60645b92505050919050565b60606005805480602002602001604051908101604052809291908181526020015f905b82821015610f8e578382905f5260205f2090600402016040518060800160405290815f82015f9054906101000a900473ffffffffffffffffffffffffffffffffffffffff1673ffffffffffffffffffffffffffffffffffffffff1673ffffffffffffffffffffffffffffffffffffffff168152602001600182015f9054906101000a900473ffffffffffffffffffffffffffffffffffffffff1673ffffffffffffffffffffffffffffffffffffffff1673ffffffffffffffffffffffffffffffffffffffff1681526020016002820154815260200160038201548152505081526020019060010190610ea1565b50505050905090565b60058181548110610fa6575f80fd5b905f5260205f2090600402015f91509050805f015f9054906101000a900473ffffffffffffffffffffffffffffffffffffffff1690806001015f9054906101000a900473ffffffffffffffffffffffffffffffffffffffff16908060020154908060030154905084565b5f8054906101000a900473ffffffffffffffffffffffffffffffffffffffff1673ffffffffffffffffffffffffffffffffffffffff163373ffffffffffffffffffffffffffffffffffffffff161461109d576040517f08c379a000000000000000000000000000000000000000000000000000000000815260040161109490613430565b60405180910390fd5b8260025f8273ffffffffffffffffffffffffffffffffffffffff1673ffffffffffffffffffffffffffffffffffffffff1681526020019081526020015f206006015f9054906101000a900460ff1661112a576040517f08c379a000000000000000000000000000000000000000000000000000000000815260040161112190613212565b60405180910390fd5b5f831161116c576040517f08c379a0000000000000000000000000000000000000000000000000000000008152600401611163906135f7565b60405180910390fd5b5f60025f8673ffffffffffffffffffffffffffffffffffffffff1673ffffffffffffffffffffffffffffffffffffffff1681526020019081526020015f2090505f7f26207b3d79cb8a2f4d7984d34034720f053ed770a9f512147f4ea54e18ede2c38480519060200120036111fa5784826003015f8282546111ee9190613615565b92505081905550611300565b7f67f2240dbdc5a5a1bba6ef58dd6499d8bcf8da14a71dffeedddc7956475ebac48480519060200120036112c4576064600154866112389190613322565b6112429190613390565b9050808260040154101561128b576040517f08c379a0000000000000000000000000000000000000000000000000000000008152600401611282906136b8565b60405180910390fd5b80826004015f82825461129e91906136d6565b9250508190555084826003015f8282546112b891906136d6565b925050819055506112ff565b6040517f08c379a00000000000000000000000000000000000000000000000000000000081526004016112f690613779565b60405180910390fd5b5b81600501604051806080016040528087815260200186815260200142815260200183815250908060018154018082558091505060019003905f5260205f2090600402015f909190919091505f820151815f01556020820151816001019081611368919061393e565b50604082015181600201556060820151816003015550506113888661275f565b8573ffffffffffffffffffffffffffffffffffffffff167f335d38fdb9fd6bf0d6a0ab22792f89a84a8f85f129736cccfc37fc757ba277058686846040516113d293929190613a53565b60405180910390a2505050505050565b5f8054906101000a900473ffffffffffffffffffffffffffffffffffffffff1673ffffffffffffffffffffffffffffffffffffffff163373ffffffffffffffffffffffffffffffffffffffff161461146f576040517f08c379a000000000000000000000000000000000000000000000000000000000815260040161146690613430565b60405180910390fd5b8160025f8273ffffffffffffffffffffffffffffffffffffffff1673ffffffffffffffffffffffffffffffffffffffff1681526020019081526020015f206006015f9054906101000a900460ff166114fc576040517f08c379a00000000000000000000000000000000000000000000000000000000081526004016114f390613212565b60405180910390fd5b5f821161153e576040517f08c379a0000000000000000000000000000000000000000000000000000000008152600401611535906135f7565b60405180910390fd5b5f60025f8573ffffffffffffffffffffffffffffffffffffffff1673ffffffffffffffffffffffffffffffffffffffff1681526020019081526020015f20905082816004015f8282546115919190613615565b9250508190555050505050565b600381815481106115ad575f80fd5b905f5260205f20015f915054906101000a900473ffffffffffffffffffffffffffffffffffffffff1681565b6004602052815f5260405f20602052805f5260405f205f91509150505481565b5f8054906101000a900473ffffffffffffffffffffffffffffffffffffffff1673ffffffffffffffffffffffffffffffffffffffff163373ffffffffffffffffffffffffffffffffffffffff1614611686576040517f08c379a000000000000000000000000000000000000000000000000000000000815260040161167d90613430565b60405180910390fd5b8160025f8273ffffffffffffffffffffffffffffffffffffffff1673ffffffffffffffffffffffffffffffffffffffff1681526020019081526020015f206006015f9054906101000a900460ff16611713576040517f08c379a000000000000000000000000000000000000000000000000000000000815260040161170a90613212565b60405180910390fd5b5f8211611755576040517f08c379a000000000000000000000000000000000000000000000000000000000815260040161174c90613ad9565b60405180910390fd5b5f60025f8573ffffffffffffffffffffffffffffffffffffffff1673ffffffffffffffffffffffffffffffffffffffff1681526020019081526020015f2090508281600801819055508373ffffffffffffffffffffffffffffffffffffffff167fc48037e64131a272fc64519b607e8437c9411eada1fa2812e0e485e929a7f9bd846040516117e49190612a79565b60405180910390a26117f58461275f565b50505050565b6002602052805f5260405f205f91509050805f015f9054906101000a900473ffffffffffffffffffffffffffffffffffffffff1690806001015490806002015490806003015490806004015490806006015f9054906101000a900460ff16908060070154908060080154905088565b60015481565b5f8160025f8273ffffffffffffffffffffffffffffffffffffffff1673ffffffffffffffffffffffffffffffffffffffff1681526020019081526020015f206006015f9054906101000a900460ff166118fe576040517f08c379a00000000000000000000000000000000000000000000000000000000081526004016118f590613212565b60405180910390fd5b5f60025f8573ffffffffffffffffffffffffffffffffffffffff1673ffffffffffffffffffffffffffffffffffffffff1681526020019081526020015f20604051806101200160405290815f82015f9054906101000a900473ffffffffffffffffffffffffffffffffffffffff1673ffffffffffffffffffffffffffffffffffffffff1673ffffffffffffffffffffffffffffffffffffffff1681526020016001820154815260200160028201548152602001600382015481526020016004820154815260200160058201805480602002602001604051908101604052809291908181526020015f905b82821015611ac5578382905f5260205f2090600402016040518060800160405290815f8201548152602001600182018054611a229061325d565b80601f0160208091040260200160405190810160405280929190818152602001828054611a4e9061325d565b8015611a995780601f10611a7057610100808354040283529160200191611a99565b820191905f5260205f20905b815481529060010190602001808311611a7c57829003601f168201915b5050505050815260200160028201548152602001600382015481525050815260200190600101906119e8565b505050508152602001600682015f9054906101000a900460ff161515151581526020016007820154815260200160088201548152505090505f8160400151118015611b1357505f8160200151115b611b52576040517f08c379a0000000000000000000000000000000000000000000000000000000008152600401611b4990613b41565b60405180910390fd5b80602001518160400151611b669190613322565b6127108260600151611b789190613322565b611b829190613390565b92505050919050565b5f8054906101000a900473ffffffffffffffffffffffffffffffffffffffff1673ffffffffffffffffffffffffffffffffffffffff163373ffffffffffffffffffffffffffffffffffffffff1614611c18576040517f08c379a0000000000000000000000000000000000000000000000000000000008152600401611c0f90613430565b60405180910390fd5b3360025f8273ffffffffffffffffffffffffffffffffffffffff1673ffffffffffffffffffffffffffffffffffffffff1681526020019081526020015f206006015f9054906101000a900460ff16611ca5576040517f08c379a0000000000000000000000000000000000000000000000000000000008152600401611c9c90613212565b60405180910390fd5b8260025f8273ffffffffffffffffffffffffffffffffffffffff1673ffffffffffffffffffffffffffffffffffffffff1681526020019081526020015f206006015f9054906101000a900460ff16611d32576040517f08c379a0000000000000000000000000000000000000000000000000000000008152600401611d2990613212565b60405180910390fd5b5f73ffffffffffffffffffffffffffffffffffffffff168473ffffffffffffffffffffffffffffffffffffffff1603611da0576040517f08c379a0000000000000000000000000000000000000000000000000000000008152600401611d9790613ba9565b60405180910390fd5b5f8311611de2576040517f08c379a0000000000000000000000000000000000000000000000000000000008152600401611dd9906135f7565b60405180910390fd5b82471015611e25576040517f08c379a0000000000000000000000000000000000000000000000000000000008152600401611e1c90613c37565b60405180910390fd5b5f8473ffffffffffffffffffffffffffffffffffffffff1684604051611e4a90613c82565b5f6040518083038185875af1925050503d805f8114611e84576040519150601f19603f3d011682016040523d82523d5f602084013e611e89565b606091505b5050905080611ecd576040517f08c379a0000000000000000000000000000000000000000000000000000000008152600401611ec490613ce0565b60405180910390fd5b611ed78585612276565b8473ffffffffffffffffffffffffffffffffffffffff163373ffffffffffffffffffffffffffffffffffffffff167f4a483e394b1a63344e9ece42158df72d97f323f6f3c8804cf138794e8d430af886604051611f349190612a79565b60405180910390a35050505050565b5f8160025f8273ffffffffffffffffffffffffffffffffffffffff1673ffffffffffffffffffffffffffffffffffffffff1681526020019081526020015f206006015f9054906101000a900460ff16611fd1576040517f08c379a0000000000000000000000000000000000000000000000000000000008152600401611fc890613212565b60405180910390fd5b5f60025f8573ffffffffffffffffffffffffffffffffffffffff1673ffffffffffffffffffffffffffffffffffffffff1681526020019081526020015f20604051806101200160405290815f82015f9054906101000a900473ffffffffffffffffffffffffffffffffffffffff1673ffffffffffffffffffffffffffffffffffffffff1673ffffffffffffffffffffffffffffffffffffffff1681526020016001820154815260200160028201548152602001600382015481526020016004820154815260200160058201805480602002602001604051908101604052809291908181526020015f905b82821015612198578382905f5260205f2090600402016040518060800160405290815f82015481526020016001820180546120f59061325d565b80601f01602080910402602001604051908101604052809291908181526020018280546121219061325d565b801561216c5780601f106121435761010080835404028352916020019161216c565b820191905f5260205f20905b81548152906001019060200180831161214f57829003601f168201915b5050505050815260200160028201548152602001600382015481525050815260200190600101906120bb565b505050508152602001600682015f9054906101000a900460ff161515151581526020016007820154815260200160088201548152505090505f805b8260a001515181101561226a575f8360a0015182815181106121f8576121f7613cfe565b5b602002602001015190507f26207b3d79cb8a2f4d7984d34034720f053ed770a9f512147f4ea54e18ede2c38160200151805190602001200361224a57805f0151836122439190613d2b565b925061225c565b805f0151836122599190613d6c565b92505b5080806001019150506121d3565b50809350505050919050565b3360025f8273ffffffffffffffffffffffffffffffffffffffff1673ffffffffffffffffffffffffffffffffffffffff1681526020019081526020015f206006015f9054906101000a900460ff16612303576040517f08c379a00000000000000000000000000000000000000000000000000000000081526004016122fa90613212565b60405180910390fd5b8260025f8273ffffffffffffffffffffffffffffffffffffffff1673ffffffffffffffffffffffffffffffffffffffff1681526020019081526020015f206006015f9054906101000a900460ff16612390576040517f08c379a000000000000000000000000000000000000000000000000000000000815260040161238790613212565b60405180910390fd5b5f73ffffffffffffffffffffffffffffffffffffffff168473ffffffffffffffffffffffffffffffffffffffff16036123fe576040517f08c379a00000000000000000000000000000000000000000000000000000000081526004016123f590613ba9565b60405180910390fd5b5f8303612440576040517f08c379a000000000000000000000000000000000000000000000000000000000815260040161243790613df6565b60405180910390fd5b8260045f3373ffffffffffffffffffffffffffffffffffffffff1673ffffffffffffffffffffffffffffffffffffffff1681526020019081526020015f205f8673ffffffffffffffffffffffffffffffffffffffff1673ffffffffffffffffffffffffffffffffffffffff1681526020019081526020015f205f8282546124c79190613d2b565b92505081905550600560405180608001604052803373ffffffffffffffffffffffffffffffffffffffff1681526020018673ffffffffffffffffffffffffffffffffffffffff16815260200185815260200142815250908060018154018082558091505060019003905f5260205f2090600402015f909190919091505f820151815f015f6101000a81548173ffffffffffffffffffffffffffffffffffffffff021916908373ffffffffffffffffffffffffffffffffffffffff1602179055506020820151816001015f6101000a81548173ffffffffffffffffffffffffffffffffffffffff021916908373ffffffffffffffffffffffffffffffffffffffff160217905550604082015181600201556060820151816003015550508373ffffffffffffffffffffffffffffffffffffffff163373ffffffffffffffffffffffffffffffffffffffff167f7e4d8d6ef9fd3064bc3bd7ea85aa9fdc6d37c48173ad3fd153904e34db45d9c68542604051612642929190613e14565b60405180910390a36126533361275f565b61265c8461275f565b50505050565b5f8054906101000a900473ffffffffffffffffffffffffffffffffffffffff1673ffffffffffffffffffffffffffffffffffffffff163373ffffffffffffffffffffffffffffffffffffffff16146126ef576040517f08c379a00000000000000000000000000000000000000000000000000000000081526004016126e690613430565b60405180910390fd5b60648111612732576040517f08c379a000000000000000000000000000000000000000000000000000000000815260040161272990613eab565b60405180910390fd5b8060018190555050565b5f8054906101000a900473ffffffffffffffffffffffffffffffffffffffff1681565b5f60025f8373ffffffffffffffffffffffffffffffffffffffff1673ffffffffffffffffffffffffffffffffffffffff1681526020019081526020015f2090508060020154816003015411156128af578173ffffffffffffffffffffffffffffffffffffffff167f9a2dd2b852c39cdc36ebfa2bc55459f64fd51881ebfde683d37a31595c27da48826003015483600201546040516127ff929190613586565b60405180910390a25f816006015f6101000a81548160ff0219169083151502179055505f600a8260020154836003015461283991906136d6565b6128439190613322565b905080826007015f8282546128589190613615565b925050819055508273ffffffffffffffffffffffffffffffffffffffff167fa7efd79f8b4f74475645bb98022d7135feab57d5b96cb33512477b288e3ff9c3826040516128a59190612a79565b60405180910390a2505b5f6128b9836104cc565b90506064811015612961578273ffffffffffffffffffffffffffffffffffffffff167f674fc74c826dbec5edeac8ecdfd4401967af353ce41c4918c79ebea80e27c3678260405161290a9190612a79565b60405180910390a28273ffffffffffffffffffffffffffffffffffffffff167f84d816823f9892aea5614b7096b3480a730fea36baef44df755f3b9a3fcc36d6826040516129589190613f13565b60405180910390a25b5f61296b84611870565b905060c88111156129c5578373ffffffffffffffffffffffffffffffffffffffff167f84d816823f9892aea5614b7096b3480a730fea36baef44df755f3b9a3fcc36d6826040516129bc9190613f89565b60405180910390a25b50505050565b5f604051905090565b5f80fd5b5f80fd5b5f73ffffffffffffffffffffffffffffffffffffffff82169050919050565b5f612a05826129dc565b9050919050565b612a15816129fb565b8114612a1f575f80fd5b50565b5f81359050612a3081612a0c565b92915050565b5f60208284031215612a4b57612a4a6129d4565b5b5f612a5884828501612a22565b91505092915050565b5f819050919050565b612a7381612a61565b82525050565b5f602082019050612a8c5f830184612a6a565b92915050565b612a9b81612a61565b8114612aa5575f80fd5b50565b5f81359050612ab681612a92565b92915050565b5f805f8060808587031215612ad457612ad36129d4565b5b5f612ae187828801612a22565b9450506020612af287828801612aa8565b9350506040612b0387828801612aa8565b9250506060612b1487828801612aa8565b91505092959194509250565b5f81519050919050565b5f82825260208201905092915050565b5f819050602082019050919050565b612b52816129fb565b82525050565b5f612b638383612b49565b60208301905092915050565b5f602082019050919050565b5f612b8582612b20565b612b8f8185612b2a565b9350612b9a83612b3a565b805f5b83811015612bca578151612bb18882612b58565b9750612bbc83612b6f565b925050600181019050612b9d565b5085935050505092915050565b5f6020820190508181035f830152612bef8184612b7b565b905092915050565b5f81519050919050565b5f82825260208201905092915050565b5f819050602082019050919050565b5f819050919050565b612c3281612c20565b82525050565b612c4181612a61565b82525050565b608082015f820151612c5b5f850182612b49565b506020820151612c6e6020850182612b49565b506040820151612c816040850182612c29565b506060820151612c946060850182612c38565b50505050565b5f612ca58383612c47565b60808301905092915050565b5f602082019050919050565b5f612cc782612bf7565b612cd18185612c01565b9350612cdc83612c11565b805f5b83811015612d0c578151612cf38882612c9a565b9750612cfe83612cb1565b925050600181019050612cdf565b5085935050505092915050565b5f6020820190508181035f830152612d318184612cbd565b905092915050565b5f60208284031215612d4e57612d4d6129d4565b5b5f612d5b84828501612aa8565b91505092915050565b612d6d816129fb565b82525050565b612d7c81612c20565b82525050565b5f608082019050612d955f830187612d64565b612da26020830186612d64565b612daf6040830185612d73565b612dbc6060830184612a6a565b95945050505050565b5f80fd5b5f80fd5b5f601f19601f8301169050919050565b7f4e487b71000000000000000000000000000000000000000000000000000000005f52604160045260245ffd5b612e1382612dcd565b810181811067ffffffffffffffff82111715612e3257612e31612ddd565b5b80604052505050565b5f612e446129cb565b9050612e508282612e0a565b919050565b5f67ffffffffffffffff821115612e6f57612e6e612ddd565b5b612e7882612dcd565b9050602081019050919050565b828183375f83830152505050565b5f612ea5612ea084612e55565b612e3b565b905082815260208101848484011115612ec157612ec0612dc9565b5b612ecc848285612e85565b509392505050565b5f82601f830112612ee857612ee7612dc5565b5b8135612ef8848260208601612e93565b91505092915050565b5f805f60608486031215612f1857612f176129d4565b5b5f612f2586828701612a22565b9350506020612f3686828701612aa8565b925050604084013567ffffffffffffffff811115612f5757612f566129d8565b5b612f6386828701612ed4565b9150509250925092565b5f8060408385031215612f8357612f826129d4565b5b5f612f9085828601612a22565b9250506020612fa185828601612aa8565b9150509250929050565b5f602082019050612fbe5f830184612d64565b92915050565b5f8060408385031215612fda57612fd96129d4565b5b5f612fe785828601612a22565b9250506020612ff885828601612a22565b9150509250929050565b5f6020820190506130155f830184612d73565b92915050565b5f8115159050919050565b61302f8161301b565b82525050565b5f610100820190506130495f83018b612d64565b613056602083018a612a6a565b6130636040830189612a6a565b6130706060830188612a6a565b61307d6080830187612a6a565b61308a60a0830186613026565b61309760c0830185612a6a565b6130a460e0830184612a6a565b9998505050505050505050565b5f6130bb826129dc565b9050919050565b6130cb816130b1565b81146130d5575f80fd5b50565b5f813590506130e6816130c2565b92915050565b5f8060408385031215613102576131016129d4565b5b5f61310f858286016130d8565b925050602061312085828601612aa8565b9150509250929050565b61313381612c20565b811461313d575f80fd5b50565b5f8135905061314e8161312a565b92915050565b5f806040838503121561316a576131696129d4565b5b5f61317785828601612a22565b925050602061318885828601613140565b9150509250929050565b5f82825260208201905092915050565b7f436f6e74726570617274696520696e616374697665206f7520696e65786973745f8201527f616e746500000000000000000000000000000000000000000000000000000000602082015250565b5f6131fc602483613192565b9150613207826131a2565b604082019050919050565b5f6020820190508181035f830152613229816131f0565b9050919050565b7f4e487b71000000000000000000000000000000000000000000000000000000005f52602260045260245ffd5b5f600282049050600182168061327457607f821691505b60208210810361328757613286613230565b5b50919050565b7f4578706f736974696f6e20636f7572616e7465206e756c6c65000000000000005f82015250565b5f6132c1601983613192565b91506132cc8261328d565b602082019050919050565b5f6020820190508181035f8301526132ee816132b5565b9050919050565b7f4e487b71000000000000000000000000000000000000000000000000000000005f52601160045260245ffd5b5f61332c82612a61565b915061333783612a61565b925082820261334581612a61565b9150828204841483151761335c5761335b6132f5565b5b5092915050565b7f4e487b71000000000000000000000000000000000000000000000000000000005f52601260045260245ffd5b5f61339a82612a61565b91506133a583612a61565b9250826133b5576133b4613363565b5b828204905092915050565b7f416374696f6e2072657365727665652061206c2761646d696e697374726174655f8201527f7572000000000000000000000000000000000000000000000000000000000000602082015250565b5f61341a602283613192565b9150613425826133c0565b604082019050919050565b5f6020820190508181035f8301526134478161340e565b9050919050565b7f4164726573736520696e76616c696465000000000000000000000000000000005f82015250565b5f613482601083613192565b915061348d8261344e565b602082019050919050565b5f6020820190508181035f8301526134af81613476565b9050919050565b7f436f6e747265706172746965206578697374652064656a6100000000000000005f82015250565b5f6134ea601883613192565b91506134f5826134b6565b602082019050919050565b5f6020820190508181035f830152613517816134de565b9050919050565b7f53636f72652064652063726564697420696e76616c69646500000000000000005f82015250565b5f613552601883613192565b915061355d8261351e565b602082019050919050565b5f6020820190508181035f83015261357f81613546565b9050919050565b5f6040820190506135995f830185612a6a565b6135a66020830184612a6a565b9392505050565b7f4d6f6e74616e7420696e76616c696465000000000000000000000000000000005f82015250565b5f6135e1601083613192565b91506135ec826135ad565b602082019050919050565b5f6020820190508181035f83015261360e816135d5565b9050919050565b5f61361f82612a61565b915061362a83612a61565b9250828201905080821115613642576136416132f5565b5b92915050565b7f436f6c6c61746572616c20696e737566666973616e7420706f757220636574745f8201527f6520706f736974696f6e00000000000000000000000000000000000000000000602082015250565b5f6136a2602a83613192565b91506136ad82613648565b604082019050919050565b5f6020820190508181035f8301526136cf81613696565b9050919050565b5f6136e082612a61565b91506136eb83612a61565b9250828203905081811115613703576137026132f5565b5b92915050565b7f5479706520646520706f736974696f6e20696e76616c6964652c207574696c695f8201527f736572204c4f4e47206f752053484f5254000000000000000000000000000000602082015250565b5f613763603183613192565b915061376e82613709565b604082019050919050565b5f6020820190508181035f83015261379081613757565b9050919050565b5f81519050919050565b5f819050815f5260205f209050919050565b5f6020601f8301049050919050565b5f82821b905092915050565b5f600883026137fd7fffffffffffffffffffffffffffffffffffffffffffffffffffffffffffffffff826137c2565b61380786836137c2565b95508019841693508086168417925050509392505050565b5f819050919050565b5f61384261383d61383884612a61565b61381f565b612a61565b9050919050565b5f819050919050565b61385b83613828565b61386f61386782613849565b8484546137ce565b825550505050565b5f90565b613883613877565b61388e818484613852565b505050565b5b818110156138b1576138a65f8261387b565b600181019050613894565b5050565b601f8211156138f6576138c7816137a1565b6138d0846137b3565b810160208510156138df578190505b6138f36138eb856137b3565b830182613893565b50505b505050565b5f82821c905092915050565b5f6139165f19846008026138fb565b1980831691505092915050565b5f61392e8383613907565b9150826002028217905092915050565b61394782613797565b67ffffffffffffffff8111156139605761395f612ddd565b5b61396a825461325d565b6139758282856138b5565b5f60209050601f8311600181146139a6575f8415613994578287015190505b61399e8582613923565b865550613a05565b601f1984166139b4866137a1565b5f5b828110156139db578489015182556001820191506020850194506020810190506139b6565b868310156139f857848901516139f4601f891682613907565b8355505b6001600288020188555050505b505050505050565b8281835e5f83830152505050565b5f613a2582613797565b613a2f8185613192565b9350613a3f818560208601613a0d565b613a4881612dcd565b840191505092915050565b5f606082019050613a665f830186612a6a565b8181036020830152613a788185613a1b565b9050613a876040830184612a6a565b949350505050565b7f476172616e74696520696e76616c6964650000000000000000000000000000005f82015250565b5f613ac3601183613192565b9150613ace82613a8f565b602082019050919050565b5f6020820190508181035f830152613af081613ab7565b9050919050565b7f506172616d657472657320696e76616c696465730000000000000000000000005f82015250565b5f613b2b601483613192565b9150613b3682613af7565b602082019050919050565b5f6020820190508181035f830152613b5881613b1f565b9050919050565b7f416472657373652072656365707465757220696e76616c6964650000000000005f82015250565b5f613b93601a83613192565b9150613b9e82613b5f565b602082019050919050565b5f6020820190508181035f830152613bc081613b87565b9050919050565b7f536f6c646520696e737566666973616e742064616e73206c6520636f6e7472615f8201527f7400000000000000000000000000000000000000000000000000000000000000602082015250565b5f613c21602183613192565b9150613c2c82613bc7565b604082019050919050565b5f6020820190508181035f830152613c4e81613c15565b9050919050565b5f81905092915050565b50565b5f613c6d5f83613c55565b9150613c7882613c5f565b5f82019050919050565b5f613c8c82613c62565b9150819050919050565b7f5472616e7366657274206563686f7565000000000000000000000000000000005f82015250565b5f613cca601083613192565b9150613cd582613c96565b602082019050919050565b5f6020820190508181035f830152613cf781613cbe565b9050919050565b7f4e487b71000000000000000000000000000000000000000000000000000000005f52603260045260245ffd5b5f613d3582612c20565b9150613d4083612c20565b92508282019050828112155f8312168382125f841215161715613d6657613d656132f5565b5b92915050565b5f613d7682612c20565b9150613d8183612c20565b925082820390508181125f8412168282135f851215161715613da657613da56132f5565b5b92915050565b7f56616c65757220696e76616c69646500000000000000000000000000000000005f82015250565b5f613de0600f83613192565b9150613deb82613dac565b602082019050919050565b5f6020820190508181035f830152613e0d81613dd4565b9050919050565b5f604082019050613e275f830185612d73565b613e346020830184612a6a565b9392505050565b7f4c6520726174696f20646f6974206574726520737570657269657572206120315f8201527f3030250000000000000000000000000000000000000000000000000000000000602082015250565b5f613e95602383613192565b9150613ea082613e3b565b604082019050919050565b5f6020820190508181035f830152613ec281613e89565b9050919050565b7f476172616e74696520696e737566666973616e746500000000000000000000005f82015250565b5f613efd601583613192565b9150613f0882613ec9565b602082019050919050565b5f6040820190508181035f830152613f2a81613ef1565b9050613f396020830184612a6a565b92915050565b7f52697371756520656c65766500000000000000000000000000000000000000005f82015250565b5f613f73600c83613192565b9150613f7e82613f3f565b602082019050919050565b5f6040820190508181035f830152613fa081613f67565b9050613faf6020830184612a6a565b9291505056fea2646970667358221220b97d91bd04e1db54f709a9ffb841d03c8ee3fab71664171eb713f917c6340da964736f6c634300081a0033",
					"opcodes": "PUSH1 0x80 PUSH1 0x40 MSTORE PUSH1 0x78 PUSH1 0x1 SSTORE CALLVALUE DUP1 ISZERO PUSH1 0x13 JUMPI PUSH0 DUP1 REVERT JUMPDEST POP CALLER PUSH0 DUP1 PUSH2 0x100 EXP DUP2 SLOAD DUP2 PUSH20 0xFFFFFFFFFFFFFFFFFFFFFFFFFFFFFFFFFFFFFFFF MUL NOT AND SWAP1 DUP4 PUSH20 0xFFFFFFFFFFFFFFFFFFFFFFFFFFFFFFFFFFFFFFFF AND MUL OR SWAP1 SSTORE POP PUSH2 0x3FEB DUP1 PUSH2 0x60 PUSH0 CODECOPY PUSH0 RETURN INVALID PUSH1 0x80 PUSH1 0x40 MSTORE PUSH1 0x4 CALLDATASIZE LT PUSH2 0x117 JUMPI PUSH0 CALLDATALOAD PUSH1 0xE0 SHR DUP1 PUSH4 0x57CAB90A GT PUSH2 0x9F JUMPI DUP1 PUSH4 0x932AB445 GT PUSH2 0x63 JUMPI DUP1 PUSH4 0x932AB445 EQ PUSH2 0x3EE JUMPI DUP1 PUSH4 0xB05A5CFB EQ PUSH2 0x416 JUMPI DUP1 PUSH4 0xD1B6B478 EQ PUSH2 0x452 JUMPI DUP1 PUSH4 0xE4D2D96E EQ PUSH2 0x47A JUMPI DUP1 PUSH4 0xF851A440 EQ PUSH2 0x4A2 JUMPI PUSH2 0x11E JUMP JUMPDEST DUP1 PUSH4 0x57CAB90A EQ PUSH2 0x2E1 JUMPI DUP1 PUSH4 0x7228587E EQ PUSH2 0x31D JUMPI DUP1 PUSH4 0x760B1EEE EQ PUSH2 0x345 JUMPI DUP1 PUSH4 0x85381211 EQ PUSH2 0x388 JUMPI DUP1 PUSH4 0x8E068EB0 EQ PUSH2 0x3B2 JUMPI PUSH2 0x11E JUMP JUMPDEST DUP1 PUSH4 0x3916BB2B GT PUSH2 0xE6 JUMPI DUP1 PUSH4 0x3916BB2B EQ PUSH2 0x1EC JUMPI DUP1 PUSH4 0x397C4727 EQ PUSH2 0x216 JUMPI DUP1 PUSH4 0x4DD54C2A EQ PUSH2 0x255 JUMPI DUP1 PUSH4 0x52EA5692 EQ PUSH2 0x27D JUMPI DUP1 PUSH4 0x561A9927 EQ PUSH2 0x2A5 JUMPI PUSH2 0x11E JUMP JUMPDEST DUP1 PUSH4 0xAAE162E EQ PUSH2 0x122 JUMPI DUP1 PUSH4 0x1411AE6F EQ PUSH2 0x15E JUMPI DUP1 PUSH4 0x25836BC8 EQ PUSH2 0x186 JUMPI DUP1 PUSH4 0x2FCC5184 EQ PUSH2 0x1B0 JUMPI PUSH2 0x11E JUMP JUMPDEST CALLDATASIZE PUSH2 0x11E JUMPI STOP JUMPDEST PUSH0 DUP1 REVERT JUMPDEST CALLVALUE DUP1 ISZERO PUSH2 0x12D JUMPI PUSH0 DUP1 REVERT JUMPDEST POP PUSH2 0x148 PUSH1 0x4 DUP1 CALLDATASIZE SUB DUP2 ADD SWAP1 PUSH2 0x143 SWAP2 SWAP1 PUSH2 0x2A36 JUMP JUMPDEST PUSH2 0x4CC JUMP JUMPDEST PUSH1 0x40 MLOAD PUSH2 0x155 SWAP2 SWAP1 PUSH2 0x2A79 JUMP JUMPDEST PUSH1 0x40 MLOAD DUP1 SWAP2 SUB SWAP1 RETURN JUMPDEST CALLVALUE DUP1 ISZERO PUSH2 0x169 JUMPI PUSH0 DUP1 REVERT JUMPDEST POP PUSH2 0x184 PUSH1 0x4 DUP1 CALLDATASIZE SUB DUP2 ADD SWAP1 PUSH2 0x17F SWAP2 SWAP1 PUSH2 0x2ABC JUMP JUMPDEST PUSH2 0x7C8 JUMP JUMPDEST STOP JUMPDEST CALLVALUE DUP1 ISZERO PUSH2 0x191 JUMPI PUSH0 DUP1 REVERT JUMPDEST POP PUSH2 0x19A PUSH2 0xB29 JUMP JUMPDEST PUSH1 0x40 MLOAD PUSH2 0x1A7 SWAP2 SWAP1 PUSH2 0x2BD7 JUMP JUMPDEST PUSH1 0x40 MLOAD DUP1 SWAP2 SUB SWAP1 RETURN JUMPDEST CALLVALUE DUP1 ISZERO PUSH2 0x1BB JUMPI PUSH0 DUP1 REVERT JUMPDEST POP PUSH2 0x1D6 PUSH1 0x4 DUP1 CALLDATASIZE SUB DUP2 ADD SWAP1 PUSH2 0x1D1 SWAP2 SWAP1 PUSH2 0x2A36 JUMP JUMPDEST PUSH2 0xBB4 JUMP JUMPDEST PUSH1 0x40 MLOAD PUSH2 0x1E3 SWAP2 SWAP1 PUSH2 0x2A79 JUMP JUMPDEST PUSH1 0x40 MLOAD DUP1 SWAP2 SUB SWAP1 RETURN JUMPDEST CALLVALUE DUP1 ISZERO PUSH2 0x1F7 JUMPI PUSH0 DUP1 REVERT JUMPDEST POP PUSH2 0x200 PUSH2 0xE7E JUMP JUMPDEST PUSH1 0x40 MLOAD PUSH2 0x20D SWAP2 SWAP1 PUSH2 0x2D19 JUMP JUMPDEST PUSH1 0x40 MLOAD DUP1 SWAP2 SUB SWAP1 RETURN JUMPDEST CALLVALUE DUP1 ISZERO PUSH2 0x221 JUMPI PUSH0 DUP1 REVERT JUMPDEST POP PUSH2 0x23C PUSH1 0x4 DUP1 CALLDATASIZE SUB DUP2 ADD SWAP1 PUSH2 0x237 SWAP2 SWAP1 PUSH2 0x2D39 JUMP JUMPDEST PUSH2 0xF97 JUMP JUMPDEST PUSH1 0x40 MLOAD PUSH2 0x24C SWAP5 SWAP4 SWAP3 SWAP2 SWAP1 PUSH2 0x2D82 JUMP JUMPDEST PUSH1 0x40 MLOAD DUP1 SWAP2 SUB SWAP1 RETURN JUMPDEST CALLVALUE DUP1 ISZERO PUSH2 0x260 JUMPI PUSH0 DUP1 REVERT JUMPDEST POP PUSH2 0x27B PUSH1 0x4 DUP1 CALLDATASIZE SUB DUP2 ADD SWAP1 PUSH2 0x276 SWAP2 SWAP1 PUSH2 0x2F01 JUMP JUMPDEST PUSH2 0x1010 JUMP JUMPDEST STOP JUMPDEST CALLVALUE DUP1 ISZERO PUSH2 0x288 JUMPI PUSH0 DUP1 REVERT JUMPDEST POP PUSH2 0x2A3 PUSH1 0x4 DUP1 CALLDATASIZE SUB DUP2 ADD SWAP1 PUSH2 0x29E SWAP2 SWAP1 PUSH2 0x2F6D JUMP JUMPDEST PUSH2 0x13E2 JUMP JUMPDEST STOP JUMPDEST CALLVALUE DUP1 ISZERO PUSH2 0x2B0 JUMPI PUSH0 DUP1 REVERT JUMPDEST POP PUSH2 0x2CB PUSH1 0x4 DUP1 CALLDATASIZE SUB DUP2 ADD SWAP1 PUSH2 0x2C6 SWAP2 SWAP1 PUSH2 0x2D39 JUMP JUMPDEST PUSH2 0x159E JUMP JUMPDEST PUSH1 0x40 MLOAD PUSH2 0x2D8 SWAP2 SWAP1 PUSH2 0x2FAB JUMP JUMPDEST PUSH1 0x40 MLOAD DUP1 SWAP2 SUB SWAP1 RETURN JUMPDEST CALLVALUE DUP1 ISZERO PUSH2 0x2EC JUMPI PUSH0 DUP1 REVERT JUMPDEST POP PUSH2 0x307 PUSH1 0x4 DUP1 CALLDATASIZE SUB DUP2 ADD SWAP1 PUSH2 0x302 SWAP2 SWAP1 PUSH2 0x2FC4 JUMP JUMPDEST PUSH2 0x15D9 JUMP JUMPDEST PUSH1 0x40 MLOAD PUSH2 0x314 SWAP2 SWAP1 PUSH2 0x3002 JUMP JUMPDEST PUSH1 0x40 MLOAD DUP1 SWAP2 SUB SWAP1 RETURN JUMPDEST CALLVALUE DUP1 ISZERO PUSH2 0x328 JUMPI PUSH0 DUP1 REVERT JUMPDEST POP PUSH2 0x343 PUSH1 0x4 DUP1 CALLDATASIZE SUB DUP2 ADD SWAP1 PUSH2 0x33E SWAP2 SWAP1 PUSH2 0x2F6D JUMP JUMPDEST PUSH2 0x15F9 JUMP JUMPDEST STOP JUMPDEST CALLVALUE DUP1 ISZERO PUSH2 0x350 JUMPI PUSH0 DUP1 REVERT JUMPDEST POP PUSH2 0x36B PUSH1 0x4 DUP1 CALLDATASIZE SUB DUP2 ADD SWAP1 PUSH2 0x366 SWAP2 SWAP1 PUSH2 0x2A36 JUMP JUMPDEST PUSH2 0x17FB JUMP JUMPDEST PUSH1 0x40 MLOAD PUSH2 0x37F SWAP9 SWAP8 SWAP7 SWAP6 SWAP5 SWAP4 SWAP3 SWAP2 SWAP1 PUSH2 0x3035 JUMP JUMPDEST PUSH1 0x40 MLOAD DUP1 SWAP2 SUB SWAP1 RETURN JUMPDEST CALLVALUE DUP1 ISZERO PUSH2 0x393 JUMPI PUSH0 DUP1 REVERT JUMPDEST POP PUSH2 0x39C PUSH2 0x186A JUMP JUMPDEST PUSH1 0x40 MLOAD PUSH2 0x3A9 SWAP2 SWAP1 PUSH2 0x2A79 JUMP JUMPDEST PUSH1 0x40 MLOAD DUP1 SWAP2 SUB SWAP1 RETURN JUMPDEST CALLVALUE DUP1 ISZERO PUSH2 0x3BD JUMPI PUSH0 DUP1 REVERT JUMPDEST POP PUSH2 0x3D8 PUSH1 0x4 DUP1 CALLDATASIZE SUB DUP2 ADD SWAP1 PUSH2 0x3D3 SWAP2 SWAP1 PUSH2 0x2A36 JUMP JUMPDEST PUSH2 0x1870 JUMP JUMPDEST PUSH1 0x40 MLOAD PUSH2 0x3E5 SWAP2 SWAP1 PUSH2 0x2A79 JUMP JUMPDEST PUSH1 0x40 MLOAD DUP1 SWAP2 SUB SWAP1 RETURN JUMPDEST CALLVALUE DUP1 ISZERO PUSH2 0x3F9 JUMPI PUSH0 DUP1 REVERT JUMPDEST POP PUSH2 0x414 PUSH1 0x4 DUP1 CALLDATASIZE SUB DUP2 ADD SWAP1 PUSH2 0x40F SWAP2 SWAP1 PUSH2 0x30EC JUMP JUMPDEST PUSH2 0x1B8B JUMP JUMPDEST STOP JUMPDEST CALLVALUE DUP1 ISZERO PUSH2 0x421 JUMPI PUSH0 DUP1 REVERT JUMPDEST POP PUSH2 0x43C PUSH1 0x4 DUP1 CALLDATASIZE SUB DUP2 ADD SWAP1 PUSH2 0x437 SWAP2 SWAP1 PUSH2 0x2A36 JUMP JUMPDEST PUSH2 0x1F43 JUMP JUMPDEST PUSH1 0x40 MLOAD PUSH2 0x449 SWAP2 SWAP1 PUSH2 0x3002 JUMP JUMPDEST PUSH1 0x40 MLOAD DUP1 SWAP2 SUB SWAP1 RETURN JUMPDEST CALLVALUE DUP1 ISZERO PUSH2 0x45D JUMPI PUSH0 DUP1 REVERT JUMPDEST POP PUSH2 0x478 PUSH1 0x4 DUP1 CALLDATASIZE SUB DUP2 ADD SWAP1 PUSH2 0x473 SWAP2 SWAP1 PUSH2 0x3154 JUMP JUMPDEST PUSH2 0x2276 JUMP JUMPDEST STOP JUMPDEST CALLVALUE DUP1 ISZERO PUSH2 0x485 JUMPI PUSH0 DUP1 REVERT JUMPDEST POP PUSH2 0x4A0 PUSH1 0x4 DUP1 CALLDATASIZE SUB DUP2 ADD SWAP1 PUSH2 0x49B SWAP2 SWAP1 PUSH2 0x2D39 JUMP JUMPDEST PUSH2 0x2662 JUMP JUMPDEST STOP JUMPDEST CALLVALUE DUP1 ISZERO PUSH2 0x4AD JUMPI PUSH0 DUP1 REVERT JUMPDEST POP PUSH2 0x4B6 PUSH2 0x273C JUMP JUMPDEST PUSH1 0x40 MLOAD PUSH2 0x4C3 SWAP2 SWAP1 PUSH2 0x2FAB JUMP JUMPDEST PUSH1 0x40 MLOAD DUP1 SWAP2 SUB SWAP1 RETURN JUMPDEST PUSH0 DUP2 PUSH1 0x2 PUSH0 DUP3 PUSH20 0xFFFFFFFFFFFFFFFFFFFFFFFFFFFFFFFFFFFFFFFF AND PUSH20 0xFFFFFFFFFFFFFFFFFFFFFFFFFFFFFFFFFFFFFFFF AND DUP2 MSTORE PUSH1 0x20 ADD SWAP1 DUP2 MSTORE PUSH1 0x20 ADD PUSH0 KECCAK256 PUSH1 0x6 ADD PUSH0 SWAP1 SLOAD SWAP1 PUSH2 0x100 EXP SWAP1 DIV PUSH1 0xFF AND PUSH2 0x55A JUMPI PUSH1 0x40 MLOAD PUSH32 0x8C379A000000000000000000000000000000000000000000000000000000000 DUP2 MSTORE PUSH1 0x4 ADD PUSH2 0x551 SWAP1 PUSH2 0x3212 JUMP JUMPDEST PUSH1 0x40 MLOAD DUP1 SWAP2 SUB SWAP1 REVERT JUMPDEST PUSH0 PUSH1 0x2 PUSH0 DUP6 PUSH20 0xFFFFFFFFFFFFFFFFFFFFFFFFFFFFFFFFFFFFFFFF AND PUSH20 0xFFFFFFFFFFFFFFFFFFFFFFFFFFFFFFFFFFFFFFFF AND DUP2 MSTORE PUSH1 0x20 ADD SWAP1 DUP2 MSTORE PUSH1 0x20 ADD PUSH0 KECCAK256 PUSH1 0x40 MLOAD DUP1 PUSH2 0x120 ADD PUSH1 0x40 MSTORE SWAP1 DUP2 PUSH0 DUP3 ADD PUSH0 SWAP1 SLOAD SWAP1 PUSH2 0x100 EXP SWAP1 DIV PUSH20 0xFFFFFFFFFFFFFFFFFFFFFFFFFFFFFFFFFFFFFFFF AND PUSH20 0xFFFFFFFFFFFFFFFFFFFFFFFFFFFFFFFFFFFFFFFF AND PUSH20 0xFFFFFFFFFFFFFFFFFFFFFFFFFFFFFFFFFFFFFFFF AND DUP2 MSTORE PUSH1 0x20 ADD PUSH1 0x1 DUP3 ADD SLOAD DUP2 MSTORE PUSH1 0x20 ADD PUSH1 0x2 DUP3 ADD SLOAD DUP2 MSTORE PUSH1 0x20 ADD PUSH1 0x3 DUP3 ADD SLOAD DUP2 MSTORE PUSH1 0x20 ADD PUSH1 0x4 DUP3 ADD SLOAD DUP2 MSTORE PUSH1 0x20 ADD PUSH1 0x5 DUP3 ADD DUP1 SLOAD DUP1 PUSH1 0x20 MUL PUSH1 0x20 ADD PUSH1 0x40 MLOAD SWAP1 DUP2 ADD PUSH1 0x40 MSTORE DUP1 SWAP3 SWAP2 SWAP1 DUP2 DUP2 MSTORE PUSH1 0x20 ADD PUSH0 SWAP1 JUMPDEST DUP3 DUP3 LT ISZERO PUSH2 0x721 JUMPI DUP4 DUP3 SWAP1 PUSH0 MSTORE PUSH1 0x20 PUSH0 KECCAK256 SWAP1 PUSH1 0x4 MUL ADD PUSH1 0x40 MLOAD DUP1 PUSH1 0x80 ADD PUSH1 0x40 MSTORE SWAP1 DUP2 PUSH0 DUP3 ADD SLOAD DUP2 MSTORE PUSH1 0x20 ADD PUSH1 0x1 DUP3 ADD DUP1 SLOAD PUSH2 0x67E SWAP1 PUSH2 0x325D JUMP JUMPDEST DUP1 PUSH1 0x1F ADD PUSH1 0x20 DUP1 SWAP2 DIV MUL PUSH1 0x20 ADD PUSH1 0x40 MLOAD SWAP1 DUP2 ADD PUSH1 0x40 MSTORE DUP1 SWAP3 SWAP2 SWAP1 DUP2 DUP2 MSTORE PUSH1 0x20 ADD DUP3 DUP1 SLOAD PUSH2 0x6AA SWAP1 PUSH2 0x325D JUMP JUMPDEST DUP1 ISZERO PUSH2 0x6F5 JUMPI DUP1 PUSH1 0x1F LT PUSH2 0x6CC JUMPI PUSH2 0x100 DUP1 DUP4 SLOAD DIV MUL DUP4 MSTORE SWAP2 PUSH1 0x20 ADD SWAP2 PUSH2 0x6F5 JUMP JUMPDEST DUP3 ADD SWAP2 SWAP1 PUSH0 MSTORE PUSH1 0x20 PUSH0 KECCAK256 SWAP1 JUMPDEST DUP2 SLOAD DUP2 MSTORE SWAP1 PUSH1 0x1 ADD SWAP1 PUSH1 0x20 ADD DUP1 DUP4 GT PUSH2 0x6D8 JUMPI DUP3 SWAP1 SUB PUSH1 0x1F AND DUP3 ADD SWAP2 JUMPDEST POP POP POP POP POP DUP2 MSTORE PUSH1 0x20 ADD PUSH1 0x2 DUP3 ADD SLOAD DUP2 MSTORE PUSH1 0x20 ADD PUSH1 0x3 DUP3 ADD SLOAD DUP2 MSTORE POP POP DUP2 MSTORE PUSH1 0x20 ADD SWAP1 PUSH1 0x1 ADD SWAP1 PUSH2 0x644 JUMP JUMPDEST POP POP POP POP DUP2 MSTORE PUSH1 0x20 ADD PUSH1 0x6 DUP3 ADD PUSH0 SWAP1 SLOAD SWAP1 PUSH2 0x100 EXP SWAP1 DIV PUSH1 0xFF AND ISZERO ISZERO ISZERO ISZERO DUP2 MSTORE PUSH1 0x20 ADD PUSH1 0x7 DUP3 ADD SLOAD DUP2 MSTORE PUSH1 0x20 ADD PUSH1 0x8 DUP3 ADD SLOAD DUP2 MSTORE POP POP SWAP1 POP PUSH0 DUP2 PUSH1 0x60 ADD MLOAD GT PUSH2 0x79F JUMPI PUSH1 0x40 MLOAD PUSH32 0x8C379A000000000000000000000000000000000000000000000000000000000 DUP2 MSTORE PUSH1 0x4 ADD PUSH2 0x796 SWAP1 PUSH2 0x32D7 JUMP JUMPDEST PUSH1 0x40 MLOAD DUP1 SWAP2 SUB SWAP1 REVERT JUMPDEST DUP1 PUSH1 0x60 ADD MLOAD PUSH1 0x64 DUP3 PUSH1 0x80 ADD MLOAD PUSH2 0x7B5 SWAP2 SWAP1 PUSH2 0x3322 JUMP JUMPDEST PUSH2 0x7BF SWAP2 SWAP1 PUSH2 0x3390 JUMP JUMPDEST SWAP3 POP POP POP SWAP2 SWAP1 POP JUMP JUMPDEST PUSH0 DUP1 SLOAD SWAP1 PUSH2 0x100 EXP SWAP1 DIV PUSH20 0xFFFFFFFFFFFFFFFFFFFFFFFFFFFFFFFFFFFFFFFF AND PUSH20 0xFFFFFFFFFFFFFFFFFFFFFFFFFFFFFFFFFFFFFFFF AND CALLER PUSH20 0xFFFFFFFFFFFFFFFFFFFFFFFFFFFFFFFFFFFFFFFF AND EQ PUSH2 0x855 JUMPI PUSH1 0x40 MLOAD PUSH32 0x8C379A000000000000000000000000000000000000000000000000000000000 DUP2 MSTORE PUSH1 0x4 ADD PUSH2 0x84C SWAP1 PUSH2 0x3430 JUMP JUMPDEST PUSH1 0x40 MLOAD DUP1 SWAP2 SUB SWAP1 REVERT JUMPDEST PUSH0 PUSH20 0xFFFFFFFFFFFFFFFFFFFFFFFFFFFFFFFFFFFFFFFF AND DUP5 PUSH20 0xFFFFFFFFFFFFFFFFFFFFFFFFFFFFFFFFFFFFFFFF AND SUB PUSH2 0x8C3 JUMPI PUSH1 0x40 MLOAD PUSH32 0x8C379A000000000000000000000000000000000000000000000000000000000 DUP2 MSTORE PUSH1 0x4 ADD PUSH2 0x8BA SWAP1 PUSH2 0x3498 JUMP JUMPDEST PUSH1 0x40 MLOAD DUP1 SWAP2 SUB SWAP1 REVERT JUMPDEST PUSH1 0x2 PUSH0 DUP6 PUSH20 0xFFFFFFFFFFFFFFFFFFFFFFFFFFFFFFFFFFFFFFFF AND PUSH20 0xFFFFFFFFFFFFFFFFFFFFFFFFFFFFFFFFFFFFFFFF AND DUP2 MSTORE PUSH1 0x20 ADD SWAP1 DUP2 MSTORE PUSH1 0x20 ADD PUSH0 KECCAK256 PUSH1 0x6 ADD PUSH0 SWAP1 SLOAD SWAP1 PUSH2 0x100 EXP SWAP1 DIV PUSH1 0xFF AND ISZERO PUSH2 0x950 JUMPI PUSH1 0x40 MLOAD PUSH32 0x8C379A000000000000000000000000000000000000000000000000000000000 DUP2 MSTORE PUSH1 0x4 ADD PUSH2 0x947 SWAP1 PUSH2 0x3500 JUMP JUMPDEST PUSH1 0x40 MLOAD DUP1 SWAP2 SUB SWAP1 REVERT JUMPDEST PUSH0 DUP4 GT DUP1 ISZERO PUSH2 0x960 JUMPI POP PUSH1 0x64 DUP4 GT ISZERO JUMPDEST PUSH2 0x99F JUMPI PUSH1 0x40 MLOAD PUSH32 0x8C379A000000000000000000000000000000000000000000000000000000000 DUP2 MSTORE PUSH1 0x4 ADD PUSH2 0x996 SWAP1 PUSH2 0x3568 JUMP JUMPDEST PUSH1 0x40 MLOAD DUP1 SWAP2 SUB SWAP1 REVERT JUMPDEST PUSH0 PUSH1 0x2 PUSH0 DUP7 PUSH20 0xFFFFFFFFFFFFFFFFFFFFFFFFFFFFFFFFFFFFFFFF AND PUSH20 0xFFFFFFFFFFFFFFFFFFFFFFFFFFFFFFFFFFFFFFFF AND DUP2 MSTORE PUSH1 0x20 ADD SWAP1 DUP2 MSTORE PUSH1 0x20 ADD PUSH0 KECCAK256 SWAP1 POP DUP5 DUP2 PUSH0 ADD PUSH0 PUSH2 0x100 EXP DUP2 SLOAD DUP2 PUSH20 0xFFFFFFFFFFFFFFFFFFFFFFFFFFFFFFFFFFFFFFFF MUL NOT AND SWAP1 DUP4 PUSH20 0xFFFFFFFFFFFFFFFFFFFFFFFFFFFFFFFFFFFFFFFF AND MUL OR SWAP1 SSTORE POP DUP4 DUP2 PUSH1 0x1 ADD DUP2 SWAP1 SSTORE POP DUP3 DUP2 PUSH1 0x2 ADD DUP2 SWAP1 SSTORE POP PUSH0 DUP2 PUSH1 0x3 ADD DUP2 SWAP1 SSTORE POP DUP2 DUP2 PUSH1 0x4 ADD DUP2 SWAP1 SSTORE POP PUSH1 0x1 DUP2 PUSH1 0x6 ADD PUSH0 PUSH2 0x100 EXP DUP2 SLOAD DUP2 PUSH1 0xFF MUL NOT AND SWAP1 DUP4 ISZERO ISZERO MUL OR SWAP1 SSTORE POP PUSH0 DUP2 PUSH1 0x7 ADD DUP2 SWAP1 SSTORE POP PUSH0 DUP2 PUSH1 0x8 ADD DUP2 SWAP1 SSTORE POP PUSH1 0x3 DUP6 SWAP1 DUP1 PUSH1 0x1 DUP2 SLOAD ADD DUP1 DUP3 SSTORE DUP1 SWAP2 POP POP PUSH1 0x1 SWAP1 SUB SWAP1 PUSH0 MSTORE PUSH1 0x20 PUSH0 KECCAK256 ADD PUSH0 SWAP1 SWAP2 SWAP1 SWAP2 SWAP1 SWAP2 PUSH2 0x100 EXP DUP2 SLOAD DUP2 PUSH20 0xFFFFFFFFFFFFFFFFFFFFFFFFFFFFFFFFFFFFFFFF MUL NOT AND SWAP1 DUP4 PUSH20 0xFFFFFFFFFFFFFFFFFFFFFFFFFFFFFFFFFFFFFFFF AND MUL OR SWAP1 SSTORE POP DUP5 PUSH20 0xFFFFFFFFFFFFFFFFFFFFFFFFFFFFFFFFFFFFFFFF AND PUSH32 0xD3F5388C2257F37D0083B7A1EDCC31B560EDA57385DCD90C8429A7FB80383910 DUP5 DUP5 PUSH1 0x40 MLOAD PUSH2 0xB1A SWAP3 SWAP2 SWAP1 PUSH2 0x3586 JUMP JUMPDEST PUSH1 0x40 MLOAD DUP1 SWAP2 SUB SWAP1 LOG2 POP POP POP POP POP JUMP JUMPDEST PUSH1 0x60 PUSH1 0x3 DUP1 SLOAD DUP1 PUSH1 0x20 MUL PUSH1 0x20 ADD PUSH1 0x40 MLOAD SWAP1 DUP2 ADD PUSH1 0x40 MSTORE DUP1 SWAP3 SWAP2 SWAP1 DUP2 DUP2 MSTORE PUSH1 0x20 ADD DUP3 DUP1 SLOAD DUP1 ISZERO PUSH2 0xBAA JUMPI PUSH1 0x20 MUL DUP3 ADD SWAP2 SWAP1 PUSH0 MSTORE PUSH1 0x20 PUSH0 KECCAK256 SWAP1 JUMPDEST DUP2 PUSH0 SWAP1 SLOAD SWAP1 PUSH2 0x100 EXP SWAP1 DIV PUSH20 0xFFFFFFFFFFFFFFFFFFFFFFFFFFFFFFFFFFFFFFFF AND PUSH20 0xFFFFFFFFFFFFFFFFFFFFFFFFFFFFFFFFFFFFFFFF AND DUP2 MSTORE PUSH1 0x20 ADD SWAP1 PUSH1 0x1 ADD SWAP1 DUP1 DUP4 GT PUSH2 0xB61 JUMPI JUMPDEST POP POP POP POP POP SWAP1 POP SWAP1 JUMP JUMPDEST PUSH0 DUP2 PUSH1 0x2 PUSH0 DUP3 PUSH20 0xFFFFFFFFFFFFFFFFFFFFFFFFFFFFFFFFFFFFFFFF AND PUSH20 0xFFFFFFFFFFFFFFFFFFFFFFFFFFFFFFFFFFFFFFFF AND DUP2 MSTORE PUSH1 0x20 ADD SWAP1 DUP2 MSTORE PUSH1 0x20 ADD PUSH0 KECCAK256 PUSH1 0x6 ADD PUSH0 SWAP1 SLOAD SWAP1 PUSH2 0x100 EXP SWAP1 DIV PUSH1 0xFF AND PUSH2 0xC42 JUMPI PUSH1 0x40 MLOAD PUSH32 0x8C379A000000000000000000000000000000000000000000000000000000000 DUP2 MSTORE PUSH1 0x4 ADD PUSH2 0xC39 SWAP1 PUSH2 0x3212 JUMP JUMPDEST PUSH1 0x40 MLOAD DUP1 SWAP2 SUB SWAP1 REVERT JUMPDEST PUSH0 PUSH1 0x2 PUSH0 DUP6 PUSH20 0xFFFFFFFFFFFFFFFFFFFFFFFFFFFFFFFFFFFFFFFF AND PUSH20 0xFFFFFFFFFFFFFFFFFFFFFFFFFFFFFFFFFFFFFFFF AND DUP2 MSTORE PUSH1 0x20 ADD SWAP1 DUP2 MSTORE PUSH1 0x20 ADD PUSH0 KECCAK256 PUSH1 0x40 MLOAD DUP1 PUSH2 0x120 ADD PUSH1 0x40 MSTORE SWAP1 DUP2 PUSH0 DUP3 ADD PUSH0 SWAP1 SLOAD SWAP1 PUSH2 0x100 EXP SWAP1 DIV PUSH20 0xFFFFFFFFFFFFFFFFFFFFFFFFFFFFFFFFFFFFFFFF AND PUSH20 0xFFFFFFFFFFFFFFFFFFFFFFFFFFFFFFFFFFFFFFFF AND PUSH20 0xFFFFFFFFFFFFFFFFFFFFFFFFFFFFFFFFFFFFFFFF AND DUP2 MSTORE PUSH1 0x20 ADD PUSH1 0x1 DUP3 ADD SLOAD DUP2 MSTORE PUSH1 0x20 ADD PUSH1 0x2 DUP3 ADD SLOAD DUP2 MSTORE PUSH1 0x20 ADD PUSH1 0x3 DUP3 ADD SLOAD DUP2 MSTORE PUSH1 0x20 ADD PUSH1 0x4 DUP3 ADD SLOAD DUP2 MSTORE PUSH1 0x20 ADD PUSH1 0x5 DUP3 ADD DUP1 SLOAD DUP1 PUSH1 0x20 MUL PUSH1 0x20 ADD PUSH1 0x40 MLOAD SWAP1 DUP2 ADD PUSH1 0x40 MSTORE DUP1 SWAP3 SWAP2 SWAP1 DUP2 DUP2 MSTORE PUSH1 0x20 ADD PUSH0 SWAP1 JUMPDEST DUP3 DUP3 LT ISZERO PUSH2 0xE09 JUMPI DUP4 DUP3 SWAP1 PUSH0 MSTORE PUSH1 0x20 PUSH0 KECCAK256 SWAP1 PUSH1 0x4 MUL ADD PUSH1 0x40 MLOAD DUP1 PUSH1 0x80 ADD PUSH1 0x40 MSTORE SWAP1 DUP2 PUSH0 DUP3 ADD SLOAD DUP2 MSTORE PUSH1 0x20 ADD PUSH1 0x1 DUP3 ADD DUP1 SLOAD PUSH2 0xD66 SWAP1 PUSH2 0x325D JUMP JUMPDEST DUP1 PUSH1 0x1F ADD PUSH1 0x20 DUP1 SWAP2 DIV MUL PUSH1 0x20 ADD PUSH1 0x40 MLOAD SWAP1 DUP2 ADD PUSH1 0x40 MSTORE DUP1 SWAP3 SWAP2 SWAP1 DUP2 DUP2 MSTORE PUSH1 0x20 ADD DUP3 DUP1 SLOAD PUSH2 0xD92 SWAP1 PUSH2 0x325D JUMP JUMPDEST DUP1 ISZERO PUSH2 0xDDD JUMPI DUP1 PUSH1 0x1F LT PUSH2 0xDB4 JUMPI PUSH2 0x100 DUP1 DUP4 SLOAD DIV MUL DUP4 MSTORE SWAP2 PUSH1 0x20 ADD SWAP2 PUSH2 0xDDD JUMP JUMPDEST DUP3 ADD SWAP2 SWAP1 PUSH0 MSTORE PUSH1 0x20 PUSH0 KECCAK256 SWAP1 JUMPDEST DUP2 SLOAD DUP2 MSTORE SWAP1 PUSH1 0x1 ADD SWAP1 PUSH1 0x20 ADD DUP1 DUP4 GT PUSH2 0xDC0 JUMPI DUP3 SWAP1 SUB PUSH1 0x1F AND DUP3 ADD SWAP2 JUMPDEST POP POP POP POP POP DUP2 MSTORE PUSH1 0x20 ADD PUSH1 0x2 DUP3 ADD SLOAD DUP2 MSTORE PUSH1 0x20 ADD PUSH1 0x3 DUP3 ADD SLOAD DUP2 MSTORE POP POP DUP2 MSTORE PUSH1 0x20 ADD SWAP1 PUSH1 0x1 ADD SWAP1 PUSH2 0xD2C JUMP JUMPDEST POP POP POP POP DUP2 MSTORE PUSH1 0x20 ADD PUSH1 0x6 DUP3 ADD PUSH0 SWAP1 SLOAD SWAP1 PUSH2 0x100 EXP SWAP1 DIV PUSH1 0xFF AND ISZERO ISZERO ISZERO ISZERO DUP2 MSTORE PUSH1 0x20 ADD PUSH1 0x7 DUP3 ADD SLOAD DUP2 MSTORE PUSH1 0x20 ADD PUSH1 0x8 DUP3 ADD SLOAD DUP2 MSTORE POP POP SWAP1 POP PUSH0 DUP2 PUSH1 0x60 ADD MLOAD EQ PUSH2 0xE72 JUMPI DUP1 PUSH1 0x60 ADD MLOAD PUSH1 0x64 DUP3 PUSH2 0x100 ADD MLOAD PUSH2 0xE63 SWAP2 SWAP1 PUSH2 0x3322 JUMP JUMPDEST PUSH2 0xE6D SWAP2 SWAP1 PUSH2 0x3390 JUMP JUMPDEST PUSH2 0xE75 JUMP JUMPDEST PUSH1 0x64 JUMPDEST SWAP3 POP POP POP SWAP2 SWAP1 POP JUMP JUMPDEST PUSH1 0x60 PUSH1 0x5 DUP1 SLOAD DUP1 PUSH1 0x20 MUL PUSH1 0x20 ADD PUSH1 0x40 MLOAD SWAP1 DUP2 ADD PUSH1 0x40 MSTORE DUP1 SWAP3 SWAP2 SWAP1 DUP2 DUP2 MSTORE PUSH1 0x20 ADD PUSH0 SWAP1 JUMPDEST DUP3 DUP3 LT ISZERO PUSH2 0xF8E JUMPI DUP4 DUP3 SWAP1 PUSH0 MSTORE PUSH1 0x20 PUSH0 KECCAK256 SWAP1 PUSH1 0x4 MUL ADD PUSH1 0x40 MLOAD DUP1 PUSH1 0x80 ADD PUSH1 0x40 MSTORE SWAP1 DUP2 PUSH0 DUP3 ADD PUSH0 SWAP1 SLOAD SWAP1 PUSH2 0x100 EXP SWAP1 DIV PUSH20 0xFFFFFFFFFFFFFFFFFFFFFFFFFFFFFFFFFFFFFFFF AND PUSH20 0xFFFFFFFFFFFFFFFFFFFFFFFFFFFFFFFFFFFFFFFF AND PUSH20 0xFFFFFFFFFFFFFFFFFFFFFFFFFFFFFFFFFFFFFFFF AND DUP2 MSTORE PUSH1 0x20 ADD PUSH1 0x1 DUP3 ADD PUSH0 SWAP1 SLOAD SWAP1 PUSH2 0x100 EXP SWAP1 DIV PUSH20 0xFFFFFFFFFFFFFFFFFFFFFFFFFFFFFFFFFFFFFFFF AND PUSH20 0xFFFFFFFFFFFFFFFFFFFFFFFFFFFFFFFFFFFFFFFF AND PUSH20 0xFFFFFFFFFFFFFFFFFFFFFFFFFFFFFFFFFFFFFFFF AND DUP2 MSTORE PUSH1 0x20 ADD PUSH1 0x2 DUP3 ADD SLOAD DUP2 MSTORE PUSH1 0x20 ADD PUSH1 0x3 DUP3 ADD SLOAD DUP2 MSTORE POP POP DUP2 MSTORE PUSH1 0x20 ADD SWAP1 PUSH1 0x1 ADD SWAP1 PUSH2 0xEA1 JUMP JUMPDEST POP POP POP POP SWAP1 POP SWAP1 JUMP JUMPDEST PUSH1 0x5 DUP2 DUP2 SLOAD DUP2 LT PUSH2 0xFA6 JUMPI PUSH0 DUP1 REVERT JUMPDEST SWAP1 PUSH0 MSTORE PUSH1 0x20 PUSH0 KECCAK256 SWAP1 PUSH1 0x4 MUL ADD PUSH0 SWAP2 POP SWAP1 POP DUP1 PUSH0 ADD PUSH0 SWAP1 SLOAD SWAP1 PUSH2 0x100 EXP SWAP1 DIV PUSH20 0xFFFFFFFFFFFFFFFFFFFFFFFFFFFFFFFFFFFFFFFF AND SWAP1 DUP1 PUSH1 0x1 ADD PUSH0 SWAP1 SLOAD SWAP1 PUSH2 0x100 EXP SWAP1 DIV PUSH20 0xFFFFFFFFFFFFFFFFFFFFFFFFFFFFFFFFFFFFFFFF AND SWAP1 DUP1 PUSH1 0x2 ADD SLOAD SWAP1 DUP1 PUSH1 0x3 ADD SLOAD SWAP1 POP DUP5 JUMP JUMPDEST PUSH0 DUP1 SLOAD SWAP1 PUSH2 0x100 EXP SWAP1 DIV PUSH20 0xFFFFFFFFFFFFFFFFFFFFFFFFFFFFFFFFFFFFFFFF AND PUSH20 0xFFFFFFFFFFFFFFFFFFFFFFFFFFFFFFFFFFFFFFFF AND CALLER PUSH20 0xFFFFFFFFFFFFFFFFFFFFFFFFFFFFFFFFFFFFFFFF AND EQ PUSH2 0x109D JUMPI PUSH1 0x40 MLOAD PUSH32 0x8C379A000000000000000000000000000000000000000000000000000000000 DUP2 MSTORE PUSH1 0x4 ADD PUSH2 0x1094 SWAP1 PUSH2 0x3430 JUMP JUMPDEST PUSH1 0x40 MLOAD DUP1 SWAP2 SUB SWAP1 REVERT JUMPDEST DUP3 PUSH1 0x2 PUSH0 DUP3 PUSH20 0xFFFFFFFFFFFFFFFFFFFFFFFFFFFFFFFFFFFFFFFF AND PUSH20 0xFFFFFFFFFFFFFFFFFFFFFFFFFFFFFFFFFFFFFFFF AND DUP2 MSTORE PUSH1 0x20 ADD SWAP1 DUP2 MSTORE PUSH1 0x20 ADD PUSH0 KECCAK256 PUSH1 0x6 ADD PUSH0 SWAP1 SLOAD SWAP1 PUSH2 0x100 EXP SWAP1 DIV PUSH1 0xFF AND PUSH2 0x112A JUMPI PUSH1 0x40 MLOAD PUSH32 0x8C379A000000000000000000000000000000000000000000000000000000000 DUP2 MSTORE PUSH1 0x4 ADD PUSH2 0x1121 SWAP1 PUSH2 0x3212 JUMP JUMPDEST PUSH1 0x40 MLOAD DUP1 SWAP2 SUB SWAP1 REVERT JUMPDEST PUSH0 DUP4 GT PUSH2 0x116C JUMPI PUSH1 0x40 MLOAD PUSH32 0x8C379A000000000000000000000000000000000000000000000000000000000 DUP2 MSTORE PUSH1 0x4 ADD PUSH2 0x1163 SWAP1 PUSH2 0x35F7 JUMP JUMPDEST PUSH1 0x40 MLOAD DUP1 SWAP2 SUB SWAP1 REVERT JUMPDEST PUSH0 PUSH1 0x2 PUSH0 DUP7 PUSH20 0xFFFFFFFFFFFFFFFFFFFFFFFFFFFFFFFFFFFFFFFF AND PUSH20 0xFFFFFFFFFFFFFFFFFFFFFFFFFFFFFFFFFFFFFFFF AND DUP2 MSTORE PUSH1 0x20 ADD SWAP1 DUP2 MSTORE PUSH1 0x20 ADD PUSH0 KECCAK256 SWAP1 POP PUSH0 PUSH32 0x26207B3D79CB8A2F4D7984D34034720F053ED770A9F512147F4EA54E18EDE2C3 DUP5 DUP1 MLOAD SWAP1 PUSH1 0x20 ADD KECCAK256 SUB PUSH2 0x11FA JUMPI DUP5 DUP3 PUSH1 0x3 ADD PUSH0 DUP3 DUP3 SLOAD PUSH2 0x11EE SWAP2 SWAP1 PUSH2 0x3615 JUMP JUMPDEST SWAP3 POP POP DUP2 SWAP1 SSTORE POP PUSH2 0x1300 JUMP JUMPDEST PUSH32 0x67F2240DBDC5A5A1BBA6EF58DD6499D8BCF8DA14A71DFFEEDDDC7956475EBAC4 DUP5 DUP1 MLOAD SWAP1 PUSH1 0x20 ADD KECCAK256 SUB PUSH2 0x12C4 JUMPI PUSH1 0x64 PUSH1 0x1 SLOAD DUP7 PUSH2 0x1238 SWAP2 SWAP1 PUSH2 0x3322 JUMP JUMPDEST PUSH2 0x1242 SWAP2 SWAP1 PUSH2 0x3390 JUMP JUMPDEST SWAP1 POP DUP1 DUP3 PUSH1 0x4 ADD SLOAD LT ISZERO PUSH2 0x128B JUMPI PUSH1 0x40 MLOAD PUSH32 0x8C379A000000000000000000000000000000000000000000000000000000000 DUP2 MSTORE PUSH1 0x4 ADD PUSH2 0x1282 SWAP1 PUSH2 0x36B8 JUMP JUMPDEST PUSH1 0x40 MLOAD DUP1 SWAP2 SUB SWAP1 REVERT JUMPDEST DUP1 DUP3 PUSH1 0x4 ADD PUSH0 DUP3 DUP3 SLOAD PUSH2 0x129E SWAP2 SWAP1 PUSH2 0x36D6 JUMP JUMPDEST SWAP3 POP POP DUP2 SWAP1 SSTORE POP DUP5 DUP3 PUSH1 0x3 ADD PUSH0 DUP3 DUP3 SLOAD PUSH2 0x12B8 SWAP2 SWAP1 PUSH2 0x36D6 JUMP JUMPDEST SWAP3 POP POP DUP2 SWAP1 SSTORE POP PUSH2 0x12FF JUMP JUMPDEST PUSH1 0x40 MLOAD PUSH32 0x8C379A000000000000000000000000000000000000000000000000000000000 DUP2 MSTORE PUSH1 0x4 ADD PUSH2 0x12F6 SWAP1 PUSH2 0x3779 JUMP JUMPDEST PUSH1 0x40 MLOAD DUP1 SWAP2 SUB SWAP1 REVERT JUMPDEST JUMPDEST DUP2 PUSH1 0x5 ADD PUSH1 0x40 MLOAD DUP1 PUSH1 0x80 ADD PUSH1 0x40 MSTORE DUP1 DUP8 DUP2 MSTORE PUSH1 0x20 ADD DUP7 DUP2 MSTORE PUSH1 0x20 ADD TIMESTAMP DUP2 MSTORE PUSH1 0x20 ADD DUP4 DUP2 MSTORE POP SWAP1 DUP1 PUSH1 0x1 DUP2 SLOAD ADD DUP1 DUP3 SSTORE DUP1 SWAP2 POP POP PUSH1 0x1 SWAP1 SUB SWAP1 PUSH0 MSTORE PUSH1 0x20 PUSH0 KECCAK256 SWAP1 PUSH1 0x4 MUL ADD PUSH0 SWAP1 SWAP2 SWAP1 SWAP2 SWAP1 SWAP2 POP PUSH0 DUP3 ADD MLOAD DUP2 PUSH0 ADD SSTORE PUSH1 0x20 DUP3 ADD MLOAD DUP2 PUSH1 0x1 ADD SWAP1 DUP2 PUSH2 0x1368 SWAP2 SWAP1 PUSH2 0x393E JUMP JUMPDEST POP PUSH1 0x40 DUP3 ADD MLOAD DUP2 PUSH1 0x2 ADD SSTORE PUSH1 0x60 DUP3 ADD MLOAD DUP2 PUSH1 0x3 ADD SSTORE POP POP PUSH2 0x1388 DUP7 PUSH2 0x275F JUMP JUMPDEST DUP6 PUSH20 0xFFFFFFFFFFFFFFFFFFFFFFFFFFFFFFFFFFFFFFFF AND PUSH32 0x335D38FDB9FD6BF0D6A0AB22792F89A84A8F85F129736CCCFC37FC757BA27705 DUP7 DUP7 DUP5 PUSH1 0x40 MLOAD PUSH2 0x13D2 SWAP4 SWAP3 SWAP2 SWAP1 PUSH2 0x3A53 JUMP JUMPDEST PUSH1 0x40 MLOAD DUP1 SWAP2 SUB SWAP1 LOG2 POP POP POP POP POP POP JUMP JUMPDEST PUSH0 DUP1 SLOAD SWAP1 PUSH2 0x100 EXP SWAP1 DIV PUSH20 0xFFFFFFFFFFFFFFFFFFFFFFFFFFFFFFFFFFFFFFFF AND PUSH20 0xFFFFFFFFFFFFFFFFFFFFFFFFFFFFFFFFFFFFFFFF AND CALLER PUSH20 0xFFFFFFFFFFFFFFFFFFFFFFFFFFFFFFFFFFFFFFFF AND EQ PUSH2 0x146F JUMPI PUSH1 0x40 MLOAD PUSH32 0x8C379A000000000000000000000000000000000000000000000000000000000 DUP2 MSTORE PUSH1 0x4 ADD PUSH2 0x1466 SWAP1 PUSH2 0x3430 JUMP JUMPDEST PUSH1 0x40 MLOAD DUP1 SWAP2 SUB SWAP1 REVERT JUMPDEST DUP2 PUSH1 0x2 PUSH0 DUP3 PUSH20 0xFFFFFFFFFFFFFFFFFFFFFFFFFFFFFFFFFFFFFFFF AND PUSH20 0xFFFFFFFFFFFFFFFFFFFFFFFFFFFFFFFFFFFFFFFF AND DUP2 MSTORE PUSH1 0x20 ADD SWAP1 DUP2 MSTORE PUSH1 0x20 ADD PUSH0 KECCAK256 PUSH1 0x6 ADD PUSH0 SWAP1 SLOAD SWAP1 PUSH2 0x100 EXP SWAP1 DIV PUSH1 0xFF AND PUSH2 0x14FC JUMPI PUSH1 0x40 MLOAD PUSH32 0x8C379A000000000000000000000000000000000000000000000000000000000 DUP2 MSTORE PUSH1 0x4 ADD PUSH2 0x14F3 SWAP1 PUSH2 0x3212 JUMP JUMPDEST PUSH1 0x40 MLOAD DUP1 SWAP2 SUB SWAP1 REVERT JUMPDEST PUSH0 DUP3 GT PUSH2 0x153E JUMPI PUSH1 0x40 MLOAD PUSH32 0x8C379A000000000000000000000000000000000000000000000000000000000 DUP2 MSTORE PUSH1 0x4 ADD PUSH2 0x1535 SWAP1 PUSH2 0x35F7 JUMP JUMPDEST PUSH1 0x40 MLOAD DUP1 SWAP2 SUB SWAP1 REVERT JUMPDEST PUSH0 PUSH1 0x2 PUSH0 DUP6 PUSH20 0xFFFFFFFFFFFFFFFFFFFFFFFFFFFFFFFFFFFFFFFF AND PUSH20 0xFFFFFFFFFFFFFFFFFFFFFFFFFFFFFFFFFFFFFFFF AND DUP2 MSTORE PUSH1 0x20 ADD SWAP1 DUP2 MSTORE PUSH1 0x20 ADD PUSH0 KECCAK256 SWAP1 POP DUP3 DUP2 PUSH1 0x4 ADD PUSH0 DUP3 DUP3 SLOAD PUSH2 0x1591 SWAP2 SWAP1 PUSH2 0x3615 JUMP JUMPDEST SWAP3 POP POP DUP2 SWAP1 SSTORE POP POP POP POP POP JUMP JUMPDEST PUSH1 0x3 DUP2 DUP2 SLOAD DUP2 LT PUSH2 0x15AD JUMPI PUSH0 DUP1 REVERT JUMPDEST SWAP1 PUSH0 MSTORE PUSH1 0x20 PUSH0 KECCAK256 ADD PUSH0 SWAP2 POP SLOAD SWAP1 PUSH2 0x100 EXP SWAP1 DIV PUSH20 0xFFFFFFFFFFFFFFFFFFFFFFFFFFFFFFFFFFFFFFFF AND DUP2 JUMP JUMPDEST PUSH1 0x4 PUSH1 0x20 MSTORE DUP2 PUSH0 MSTORE PUSH1 0x40 PUSH0 KECCAK256 PUSH1 0x20 MSTORE DUP1 PUSH0 MSTORE PUSH1 0x40 PUSH0 KECCAK256 PUSH0 SWAP2 POP SWAP2 POP POP SLOAD DUP2 JUMP JUMPDEST PUSH0 DUP1 SLOAD SWAP1 PUSH2 0x100 EXP SWAP1 DIV PUSH20 0xFFFFFFFFFFFFFFFFFFFFFFFFFFFFFFFFFFFFFFFF AND PUSH20 0xFFFFFFFFFFFFFFFFFFFFFFFFFFFFFFFFFFFFFFFF AND CALLER PUSH20 0xFFFFFFFFFFFFFFFFFFFFFFFFFFFFFFFFFFFFFFFF AND EQ PUSH2 0x1686 JUMPI PUSH1 0x40 MLOAD PUSH32 0x8C379A000000000000000000000000000000000000000000000000000000000 DUP2 MSTORE PUSH1 0x4 ADD PUSH2 0x167D SWAP1 PUSH2 0x3430 JUMP JUMPDEST PUSH1 0x40 MLOAD DUP1 SWAP2 SUB SWAP1 REVERT JUMPDEST DUP2 PUSH1 0x2 PUSH0 DUP3 PUSH20 0xFFFFFFFFFFFFFFFFFFFFFFFFFFFFFFFFFFFFFFFF AND PUSH20 0xFFFFFFFFFFFFFFFFFFFFFFFFFFFFFFFFFFFFFFFF AND DUP2 MSTORE PUSH1 0x20 ADD SWAP1 DUP2 MSTORE PUSH1 0x20 ADD PUSH0 KECCAK256 PUSH1 0x6 ADD PUSH0 SWAP1 SLOAD SWAP1 PUSH2 0x100 EXP SWAP1 DIV PUSH1 0xFF AND PUSH2 0x1713 JUMPI PUSH1 0x40 MLOAD PUSH32 0x8C379A000000000000000000000000000000000000000000000000000000000 DUP2 MSTORE PUSH1 0x4 ADD PUSH2 0x170A SWAP1 PUSH2 0x3212 JUMP JUMPDEST PUSH1 0x40 MLOAD DUP1 SWAP2 SUB SWAP1 REVERT JUMPDEST PUSH0 DUP3 GT PUSH2 0x1755 JUMPI PUSH1 0x40 MLOAD PUSH32 0x8C379A000000000000000000000000000000000000000000000000000000000 DUP2 MSTORE PUSH1 0x4 ADD PUSH2 0x174C SWAP1 PUSH2 0x3AD9 JUMP JUMPDEST PUSH1 0x40 MLOAD DUP1 SWAP2 SUB SWAP1 REVERT JUMPDEST PUSH0 PUSH1 0x2 PUSH0 DUP6 PUSH20 0xFFFFFFFFFFFFFFFFFFFFFFFFFFFFFFFFFFFFFFFF AND PUSH20 0xFFFFFFFFFFFFFFFFFFFFFFFFFFFFFFFFFFFFFFFF AND DUP2 MSTORE PUSH1 0x20 ADD SWAP1 DUP2 MSTORE PUSH1 0x20 ADD PUSH0 KECCAK256 SWAP1 POP DUP3 DUP2 PUSH1 0x8 ADD DUP2 SWAP1 SSTORE POP DUP4 PUSH20 0xFFFFFFFFFFFFFFFFFFFFFFFFFFFFFFFFFFFFFFFF AND PUSH32 0xC48037E64131A272FC64519B607E8437C9411EADA1FA2812E0E485E929A7F9BD DUP5 PUSH1 0x40 MLOAD PUSH2 0x17E4 SWAP2 SWAP1 PUSH2 0x2A79 JUMP JUMPDEST PUSH1 0x40 MLOAD DUP1 SWAP2 SUB SWAP1 LOG2 PUSH2 0x17F5 DUP5 PUSH2 0x275F JUMP JUMPDEST POP POP POP POP JUMP JUMPDEST PUSH1 0x2 PUSH1 0x20 MSTORE DUP1 PUSH0 MSTORE PUSH1 0x40 PUSH0 KECCAK256 PUSH0 SWAP2 POP SWAP1 POP DUP1 PUSH0 ADD PUSH0 SWAP1 SLOAD SWAP1 PUSH2 0x100 EXP SWAP1 DIV PUSH20 0xFFFFFFFFFFFFFFFFFFFFFFFFFFFFFFFFFFFFFFFF AND SWAP1 DUP1 PUSH1 0x1 ADD SLOAD SWAP1 DUP1 PUSH1 0x2 ADD SLOAD SWAP1 DUP1 PUSH1 0x3 ADD SLOAD SWAP1 DUP1 PUSH1 0x4 ADD SLOAD SWAP1 DUP1 PUSH1 0x6 ADD PUSH0 SWAP1 SLOAD SWAP1 PUSH2 0x100 EXP SWAP1 DIV PUSH1 0xFF AND SWAP1 DUP1 PUSH1 0x7 ADD SLOAD SWAP1 DUP1 PUSH1 0x8 ADD SLOAD SWAP1 POP DUP9 JUMP JUMPDEST PUSH1 0x1 SLOAD DUP2 JUMP JUMPDEST PUSH0 DUP2 PUSH1 0x2 PUSH0 DUP3 PUSH20 0xFFFFFFFFFFFFFFFFFFFFFFFFFFFFFFFFFFFFFFFF AND PUSH20 0xFFFFFFFFFFFFFFFFFFFFFFFFFFFFFFFFFFFFFFFF AND DUP2 MSTORE PUSH1 0x20 ADD SWAP1 DUP2 MSTORE PUSH1 0x20 ADD PUSH0 KECCAK256 PUSH1 0x6 ADD PUSH0 SWAP1 SLOAD SWAP1 PUSH2 0x100 EXP SWAP1 DIV PUSH1 0xFF AND PUSH2 0x18FE JUMPI PUSH1 0x40 MLOAD PUSH32 0x8C379A000000000000000000000000000000000000000000000000000000000 DUP2 MSTORE PUSH1 0x4 ADD PUSH2 0x18F5 SWAP1 PUSH2 0x3212 JUMP JUMPDEST PUSH1 0x40 MLOAD DUP1 SWAP2 SUB SWAP1 REVERT JUMPDEST PUSH0 PUSH1 0x2 PUSH0 DUP6 PUSH20 0xFFFFFFFFFFFFFFFFFFFFFFFFFFFFFFFFFFFFFFFF AND PUSH20 0xFFFFFFFFFFFFFFFFFFFFFFFFFFFFFFFFFFFFFFFF AND DUP2 MSTORE PUSH1 0x20 ADD SWAP1 DUP2 MSTORE PUSH1 0x20 ADD PUSH0 KECCAK256 PUSH1 0x40 MLOAD DUP1 PUSH2 0x120 ADD PUSH1 0x40 MSTORE SWAP1 DUP2 PUSH0 DUP3 ADD PUSH0 SWAP1 SLOAD SWAP1 PUSH2 0x100 EXP SWAP1 DIV PUSH20 0xFFFFFFFFFFFFFFFFFFFFFFFFFFFFFFFFFFFFFFFF AND PUSH20 0xFFFFFFFFFFFFFFFFFFFFFFFFFFFFFFFFFFFFFFFF AND PUSH20 0xFFFFFFFFFFFFFFFFFFFFFFFFFFFFFFFFFFFFFFFF AND DUP2 MSTORE PUSH1 0x20 ADD PUSH1 0x1 DUP3 ADD SLOAD DUP2 MSTORE PUSH1 0x20 ADD PUSH1 0x2 DUP3 ADD SLOAD DUP2 MSTORE PUSH1 0x20 ADD PUSH1 0x3 DUP3 ADD SLOAD DUP2 MSTORE PUSH1 0x20 ADD PUSH1 0x4 DUP3 ADD SLOAD DUP2 MSTORE PUSH1 0x20 ADD PUSH1 0x5 DUP3 ADD DUP1 SLOAD DUP1 PUSH1 0x20 MUL PUSH1 0x20 ADD PUSH1 0x40 MLOAD SWAP1 DUP2 ADD PUSH1 0x40 MSTORE DUP1 SWAP3 SWAP2 SWAP1 DUP2 DUP2 MSTORE PUSH1 0x20 ADD PUSH0 SWAP1 JUMPDEST DUP3 DUP3 LT ISZERO PUSH2 0x1AC5 JUMPI DUP4 DUP3 SWAP1 PUSH0 MSTORE PUSH1 0x20 PUSH0 KECCAK256 SWAP1 PUSH1 0x4 MUL ADD PUSH1 0x40 MLOAD DUP1 PUSH1 0x80 ADD PUSH1 0x40 MSTORE SWAP1 DUP2 PUSH0 DUP3 ADD SLOAD DUP2 MSTORE PUSH1 0x20 ADD PUSH1 0x1 DUP3 ADD DUP1 SLOAD PUSH2 0x1A22 SWAP1 PUSH2 0x325D JUMP JUMPDEST DUP1 PUSH1 0x1F ADD PUSH1 0x20 DUP1 SWAP2 DIV MUL PUSH1 0x20 ADD PUSH1 0x40 MLOAD SWAP1 DUP2 ADD PUSH1 0x40 MSTORE DUP1 SWAP3 SWAP2 SWAP1 DUP2 DUP2 MSTORE PUSH1 0x20 ADD DUP3 DUP1 SLOAD PUSH2 0x1A4E SWAP1 PUSH2 0x325D JUMP JUMPDEST DUP1 ISZERO PUSH2 0x1A99 JUMPI DUP1 PUSH1 0x1F LT PUSH2 0x1A70 JUMPI PUSH2 0x100 DUP1 DUP4 SLOAD DIV MUL DUP4 MSTORE SWAP2 PUSH1 0x20 ADD SWAP2 PUSH2 0x1A99 JUMP JUMPDEST DUP3 ADD SWAP2 SWAP1 PUSH0 MSTORE PUSH1 0x20 PUSH0 KECCAK256 SWAP1 JUMPDEST DUP2 SLOAD DUP2 MSTORE SWAP1 PUSH1 0x1 ADD SWAP1 PUSH1 0x20 ADD DUP1 DUP4 GT PUSH2 0x1A7C JUMPI DUP3 SWAP1 SUB PUSH1 0x1F AND DUP3 ADD SWAP2 JUMPDEST POP POP POP POP POP DUP2 MSTORE PUSH1 0x20 ADD PUSH1 0x2 DUP3 ADD SLOAD DUP2 MSTORE PUSH1 0x20 ADD PUSH1 0x3 DUP3 ADD SLOAD DUP2 MSTORE POP POP DUP2 MSTORE PUSH1 0x20 ADD SWAP1 PUSH1 0x1 ADD SWAP1 PUSH2 0x19E8 JUMP JUMPDEST POP POP POP POP DUP2 MSTORE PUSH1 0x20 ADD PUSH1 0x6 DUP3 ADD PUSH0 SWAP1 SLOAD SWAP1 PUSH2 0x100 EXP SWAP1 DIV PUSH1 0xFF AND ISZERO ISZERO ISZERO ISZERO DUP2 MSTORE PUSH1 0x20 ADD PUSH1 0x7 DUP3 ADD SLOAD DUP2 MSTORE PUSH1 0x20 ADD PUSH1 0x8 DUP3 ADD SLOAD DUP2 MSTORE POP POP SWAP1 POP PUSH0 DUP2 PUSH1 0x40 ADD MLOAD GT DUP1 ISZERO PUSH2 0x1B13 JUMPI POP PUSH0 DUP2 PUSH1 0x20 ADD MLOAD GT JUMPDEST PUSH2 0x1B52 JUMPI PUSH1 0x40 MLOAD PUSH32 0x8C379A000000000000000000000000000000000000000000000000000000000 DUP2 MSTORE PUSH1 0x4 ADD PUSH2 0x1B49 SWAP1 PUSH2 0x3B41 JUMP JUMPDEST PUSH1 0x40 MLOAD DUP1 SWAP2 SUB SWAP1 REVERT JUMPDEST DUP1 PUSH1 0x20 ADD MLOAD DUP2 PUSH1 0x40 ADD MLOAD PUSH2 0x1B66 SWAP2 SWAP1 PUSH2 0x3322 JUMP JUMPDEST PUSH2 0x2710 DUP3 PUSH1 0x60 ADD MLOAD PUSH2 0x1B78 SWAP2 SWAP1 PUSH2 0x3322 JUMP JUMPDEST PUSH2 0x1B82 SWAP2 SWAP1 PUSH2 0x3390 JUMP JUMPDEST SWAP3 POP POP POP SWAP2 SWAP1 POP JUMP JUMPDEST PUSH0 DUP1 SLOAD SWAP1 PUSH2 0x100 EXP SWAP1 DIV PUSH20 0xFFFFFFFFFFFFFFFFFFFFFFFFFFFFFFFFFFFFFFFF AND PUSH20 0xFFFFFFFFFFFFFFFFFFFFFFFFFFFFFFFFFFFFFFFF AND CALLER PUSH20 0xFFFFFFFFFFFFFFFFFFFFFFFFFFFFFFFFFFFFFFFF AND EQ PUSH2 0x1C18 JUMPI PUSH1 0x40 MLOAD PUSH32 0x8C379A000000000000000000000000000000000000000000000000000000000 DUP2 MSTORE PUSH1 0x4 ADD PUSH2 0x1C0F SWAP1 PUSH2 0x3430 JUMP JUMPDEST PUSH1 0x40 MLOAD DUP1 SWAP2 SUB SWAP1 REVERT JUMPDEST CALLER PUSH1 0x2 PUSH0 DUP3 PUSH20 0xFFFFFFFFFFFFFFFFFFFFFFFFFFFFFFFFFFFFFFFF AND PUSH20 0xFFFFFFFFFFFFFFFFFFFFFFFFFFFFFFFFFFFFFFFF AND DUP2 MSTORE PUSH1 0x20 ADD SWAP1 DUP2 MSTORE PUSH1 0x20 ADD PUSH0 KECCAK256 PUSH1 0x6 ADD PUSH0 SWAP1 SLOAD SWAP1 PUSH2 0x100 EXP SWAP1 DIV PUSH1 0xFF AND PUSH2 0x1CA5 JUMPI PUSH1 0x40 MLOAD PUSH32 0x8C379A000000000000000000000000000000000000000000000000000000000 DUP2 MSTORE PUSH1 0x4 ADD PUSH2 0x1C9C SWAP1 PUSH2 0x3212 JUMP JUMPDEST PUSH1 0x40 MLOAD DUP1 SWAP2 SUB SWAP1 REVERT JUMPDEST DUP3 PUSH1 0x2 PUSH0 DUP3 PUSH20 0xFFFFFFFFFFFFFFFFFFFFFFFFFFFFFFFFFFFFFFFF AND PUSH20 0xFFFFFFFFFFFFFFFFFFFFFFFFFFFFFFFFFFFFFFFF AND DUP2 MSTORE PUSH1 0x20 ADD SWAP1 DUP2 MSTORE PUSH1 0x20 ADD PUSH0 KECCAK256 PUSH1 0x6 ADD PUSH0 SWAP1 SLOAD SWAP1 PUSH2 0x100 EXP SWAP1 DIV PUSH1 0xFF AND PUSH2 0x1D32 JUMPI PUSH1 0x40 MLOAD PUSH32 0x8C379A000000000000000000000000000000000000000000000000000000000 DUP2 MSTORE PUSH1 0x4 ADD PUSH2 0x1D29 SWAP1 PUSH2 0x3212 JUMP JUMPDEST PUSH1 0x40 MLOAD DUP1 SWAP2 SUB SWAP1 REVERT JUMPDEST PUSH0 PUSH20 0xFFFFFFFFFFFFFFFFFFFFFFFFFFFFFFFFFFFFFFFF AND DUP5 PUSH20 0xFFFFFFFFFFFFFFFFFFFFFFFFFFFFFFFFFFFFFFFF AND SUB PUSH2 0x1DA0 JUMPI PUSH1 0x40 MLOAD PUSH32 0x8C379A000000000000000000000000000000000000000000000000000000000 DUP2 MSTORE PUSH1 0x4 ADD PUSH2 0x1D97 SWAP1 PUSH2 0x3BA9 JUMP JUMPDEST PUSH1 0x40 MLOAD DUP1 SWAP2 SUB SWAP1 REVERT JUMPDEST PUSH0 DUP4 GT PUSH2 0x1DE2 JUMPI PUSH1 0x40 MLOAD PUSH32 0x8C379A000000000000000000000000000000000000000000000000000000000 DUP2 MSTORE PUSH1 0x4 ADD PUSH2 0x1DD9 SWAP1 PUSH2 0x35F7 JUMP JUMPDEST PUSH1 0x40 MLOAD DUP1 SWAP2 SUB SWAP1 REVERT JUMPDEST DUP3 SELFBALANCE LT ISZERO PUSH2 0x1E25 JUMPI PUSH1 0x40 MLOAD PUSH32 0x8C379A000000000000000000000000000000000000000000000000000000000 DUP2 MSTORE PUSH1 0x4 ADD PUSH2 0x1E1C SWAP1 PUSH2 0x3C37 JUMP JUMPDEST PUSH1 0x40 MLOAD DUP1 SWAP2 SUB SWAP1 REVERT JUMPDEST PUSH0 DUP5 PUSH20 0xFFFFFFFFFFFFFFFFFFFFFFFFFFFFFFFFFFFFFFFF AND DUP5 PUSH1 0x40 MLOAD PUSH2 0x1E4A SWAP1 PUSH2 0x3C82 JUMP JUMPDEST PUSH0 PUSH1 0x40 MLOAD DUP1 DUP4 SUB DUP2 DUP6 DUP8 GAS CALL SWAP3 POP POP POP RETURNDATASIZE DUP1 PUSH0 DUP2 EQ PUSH2 0x1E84 JUMPI PUSH1 0x40 MLOAD SWAP2 POP PUSH1 0x1F NOT PUSH1 0x3F RETURNDATASIZE ADD AND DUP3 ADD PUSH1 0x40 MSTORE RETURNDATASIZE DUP3 MSTORE RETURNDATASIZE PUSH0 PUSH1 0x20 DUP5 ADD RETURNDATACOPY PUSH2 0x1E89 JUMP JUMPDEST PUSH1 0x60 SWAP2 POP JUMPDEST POP POP SWAP1 POP DUP1 PUSH2 0x1ECD JUMPI PUSH1 0x40 MLOAD PUSH32 0x8C379A000000000000000000000000000000000000000000000000000000000 DUP2 MSTORE PUSH1 0x4 ADD PUSH2 0x1EC4 SWAP1 PUSH2 0x3CE0 JUMP JUMPDEST PUSH1 0x40 MLOAD DUP1 SWAP2 SUB SWAP1 REVERT JUMPDEST PUSH2 0x1ED7 DUP6 DUP6 PUSH2 0x2276 JUMP JUMPDEST DUP5 PUSH20 0xFFFFFFFFFFFFFFFFFFFFFFFFFFFFFFFFFFFFFFFF AND CALLER PUSH20 0xFFFFFFFFFFFFFFFFFFFFFFFFFFFFFFFFFFFFFFFF AND PUSH32 0x4A483E394B1A63344E9ECE42158DF72D97F323F6F3C8804CF138794E8D430AF8 DUP7 PUSH1 0x40 MLOAD PUSH2 0x1F34 SWAP2 SWAP1 PUSH2 0x2A79 JUMP JUMPDEST PUSH1 0x40 MLOAD DUP1 SWAP2 SUB SWAP1 LOG3 POP POP POP POP POP JUMP JUMPDEST PUSH0 DUP2 PUSH1 0x2 PUSH0 DUP3 PUSH20 0xFFFFFFFFFFFFFFFFFFFFFFFFFFFFFFFFFFFFFFFF AND PUSH20 0xFFFFFFFFFFFFFFFFFFFFFFFFFFFFFFFFFFFFFFFF AND DUP2 MSTORE PUSH1 0x20 ADD SWAP1 DUP2 MSTORE PUSH1 0x20 ADD PUSH0 KECCAK256 PUSH1 0x6 ADD PUSH0 SWAP1 SLOAD SWAP1 PUSH2 0x100 EXP SWAP1 DIV PUSH1 0xFF AND PUSH2 0x1FD1 JUMPI PUSH1 0x40 MLOAD PUSH32 0x8C379A000000000000000000000000000000000000000000000000000000000 DUP2 MSTORE PUSH1 0x4 ADD PUSH2 0x1FC8 SWAP1 PUSH2 0x3212 JUMP JUMPDEST PUSH1 0x40 MLOAD DUP1 SWAP2 SUB SWAP1 REVERT JUMPDEST PUSH0 PUSH1 0x2 PUSH0 DUP6 PUSH20 0xFFFFFFFFFFFFFFFFFFFFFFFFFFFFFFFFFFFFFFFF AND PUSH20 0xFFFFFFFFFFFFFFFFFFFFFFFFFFFFFFFFFFFFFFFF AND DUP2 MSTORE PUSH1 0x20 ADD SWAP1 DUP2 MSTORE PUSH1 0x20 ADD PUSH0 KECCAK256 PUSH1 0x40 MLOAD DUP1 PUSH2 0x120 ADD PUSH1 0x40 MSTORE SWAP1 DUP2 PUSH0 DUP3 ADD PUSH0 SWAP1 SLOAD SWAP1 PUSH2 0x100 EXP SWAP1 DIV PUSH20 0xFFFFFFFFFFFFFFFFFFFFFFFFFFFFFFFFFFFFFFFF AND PUSH20 0xFFFFFFFFFFFFFFFFFFFFFFFFFFFFFFFFFFFFFFFF AND PUSH20 0xFFFFFFFFFFFFFFFFFFFFFFFFFFFFFFFFFFFFFFFF AND DUP2 MSTORE PUSH1 0x20 ADD PUSH1 0x1 DUP3 ADD SLOAD DUP2 MSTORE PUSH1 0x20 ADD PUSH1 0x2 DUP3 ADD SLOAD DUP2 MSTORE PUSH1 0x20 ADD PUSH1 0x3 DUP3 ADD SLOAD DUP2 MSTORE PUSH1 0x20 ADD PUSH1 0x4 DUP3 ADD SLOAD DUP2 MSTORE PUSH1 0x20 ADD PUSH1 0x5 DUP3 ADD DUP1 SLOAD DUP1 PUSH1 0x20 MUL PUSH1 0x20 ADD PUSH1 0x40 MLOAD SWAP1 DUP2 ADD PUSH1 0x40 MSTORE DUP1 SWAP3 SWAP2 SWAP1 DUP2 DUP2 MSTORE PUSH1 0x20 ADD PUSH0 SWAP1 JUMPDEST DUP3 DUP3 LT ISZERO PUSH2 0x2198 JUMPI DUP4 DUP3 SWAP1 PUSH0 MSTORE PUSH1 0x20 PUSH0 KECCAK256 SWAP1 PUSH1 0x4 MUL ADD PUSH1 0x40 MLOAD DUP1 PUSH1 0x80 ADD PUSH1 0x40 MSTORE SWAP1 DUP2 PUSH0 DUP3 ADD SLOAD DUP2 MSTORE PUSH1 0x20 ADD PUSH1 0x1 DUP3 ADD DUP1 SLOAD PUSH2 0x20F5 SWAP1 PUSH2 0x325D JUMP JUMPDEST DUP1 PUSH1 0x1F ADD PUSH1 0x20 DUP1 SWAP2 DIV MUL PUSH1 0x20 ADD PUSH1 0x40 MLOAD SWAP1 DUP2 ADD PUSH1 0x40 MSTORE DUP1 SWAP3 SWAP2 SWAP1 DUP2 DUP2 MSTORE PUSH1 0x20 ADD DUP3 DUP1 SLOAD PUSH2 0x2121 SWAP1 PUSH2 0x325D JUMP JUMPDEST DUP1 ISZERO PUSH2 0x216C JUMPI DUP1 PUSH1 0x1F LT PUSH2 0x2143 JUMPI PUSH2 0x100 DUP1 DUP4 SLOAD DIV MUL DUP4 MSTORE SWAP2 PUSH1 0x20 ADD SWAP2 PUSH2 0x216C JUMP JUMPDEST DUP3 ADD SWAP2 SWAP1 PUSH0 MSTORE PUSH1 0x20 PUSH0 KECCAK256 SWAP1 JUMPDEST DUP2 SLOAD DUP2 MSTORE SWAP1 PUSH1 0x1 ADD SWAP1 PUSH1 0x20 ADD DUP1 DUP4 GT PUSH2 0x214F JUMPI DUP3 SWAP1 SUB PUSH1 0x1F AND DUP3 ADD SWAP2 JUMPDEST POP POP POP POP POP DUP2 MSTORE PUSH1 0x20 ADD PUSH1 0x2 DUP3 ADD SLOAD DUP2 MSTORE PUSH1 0x20 ADD PUSH1 0x3 DUP3 ADD SLOAD DUP2 MSTORE POP POP DUP2 MSTORE PUSH1 0x20 ADD SWAP1 PUSH1 0x1 ADD SWAP1 PUSH2 0x20BB JUMP JUMPDEST POP POP POP POP DUP2 MSTORE PUSH1 0x20 ADD PUSH1 0x6 DUP3 ADD PUSH0 SWAP1 SLOAD SWAP1 PUSH2 0x100 EXP SWAP1 DIV PUSH1 0xFF AND ISZERO ISZERO ISZERO ISZERO DUP2 MSTORE PUSH1 0x20 ADD PUSH1 0x7 DUP3 ADD SLOAD DUP2 MSTORE PUSH1 0x20 ADD PUSH1 0x8 DUP3 ADD SLOAD DUP2 MSTORE POP POP SWAP1 POP PUSH0 DUP1 JUMPDEST DUP3 PUSH1 0xA0 ADD MLOAD MLOAD DUP2 LT ISZERO PUSH2 0x226A JUMPI PUSH0 DUP4 PUSH1 0xA0 ADD MLOAD DUP3 DUP2 MLOAD DUP2 LT PUSH2 0x21F8 JUMPI PUSH2 0x21F7 PUSH2 0x3CFE JUMP JUMPDEST JUMPDEST PUSH1 0x20 MUL PUSH1 0x20 ADD ADD MLOAD SWAP1 POP PUSH32 0x26207B3D79CB8A2F4D7984D34034720F053ED770A9F512147F4EA54E18EDE2C3 DUP2 PUSH1 0x20 ADD MLOAD DUP1 MLOAD SWAP1 PUSH1 0x20 ADD KECCAK256 SUB PUSH2 0x224A JUMPI DUP1 PUSH0 ADD MLOAD DUP4 PUSH2 0x2243 SWAP2 SWAP1 PUSH2 0x3D2B JUMP JUMPDEST SWAP3 POP PUSH2 0x225C JUMP JUMPDEST DUP1 PUSH0 ADD MLOAD DUP4 PUSH2 0x2259 SWAP2 SWAP1 PUSH2 0x3D6C JUMP JUMPDEST SWAP3 POP JUMPDEST POP DUP1 DUP1 PUSH1 0x1 ADD SWAP2 POP POP PUSH2 0x21D3 JUMP JUMPDEST POP DUP1 SWAP4 POP POP POP POP SWAP2 SWAP1 POP JUMP JUMPDEST CALLER PUSH1 0x2 PUSH0 DUP3 PUSH20 0xFFFFFFFFFFFFFFFFFFFFFFFFFFFFFFFFFFFFFFFF AND PUSH20 0xFFFFFFFFFFFFFFFFFFFFFFFFFFFFFFFFFFFFFFFF AND DUP2 MSTORE PUSH1 0x20 ADD SWAP1 DUP2 MSTORE PUSH1 0x20 ADD PUSH0 KECCAK256 PUSH1 0x6 ADD PUSH0 SWAP1 SLOAD SWAP1 PUSH2 0x100 EXP SWAP1 DIV PUSH1 0xFF AND PUSH2 0x2303 JUMPI PUSH1 0x40 MLOAD PUSH32 0x8C379A000000000000000000000000000000000000000000000000000000000 DUP2 MSTORE PUSH1 0x4 ADD PUSH2 0x22FA SWAP1 PUSH2 0x3212 JUMP JUMPDEST PUSH1 0x40 MLOAD DUP1 SWAP2 SUB SWAP1 REVERT JUMPDEST DUP3 PUSH1 0x2 PUSH0 DUP3 PUSH20 0xFFFFFFFFFFFFFFFFFFFFFFFFFFFFFFFFFFFFFFFF AND PUSH20 0xFFFFFFFFFFFFFFFFFFFFFFFFFFFFFFFFFFFFFFFF AND DUP2 MSTORE PUSH1 0x20 ADD SWAP1 DUP2 MSTORE PUSH1 0x20 ADD PUSH0 KECCAK256 PUSH1 0x6 ADD PUSH0 SWAP1 SLOAD SWAP1 PUSH2 0x100 EXP SWAP1 DIV PUSH1 0xFF AND PUSH2 0x2390 JUMPI PUSH1 0x40 MLOAD PUSH32 0x8C379A000000000000000000000000000000000000000000000000000000000 DUP2 MSTORE PUSH1 0x4 ADD PUSH2 0x2387 SWAP1 PUSH2 0x3212 JUMP JUMPDEST PUSH1 0x40 MLOAD DUP1 SWAP2 SUB SWAP1 REVERT JUMPDEST PUSH0 PUSH20 0xFFFFFFFFFFFFFFFFFFFFFFFFFFFFFFFFFFFFFFFF AND DUP5 PUSH20 0xFFFFFFFFFFFFFFFFFFFFFFFFFFFFFFFFFFFFFFFF AND SUB PUSH2 0x23FE JUMPI PUSH1 0x40 MLOAD PUSH32 0x8C379A000000000000000000000000000000000000000000000000000000000 DUP2 MSTORE PUSH1 0x4 ADD PUSH2 0x23F5 SWAP1 PUSH2 0x3BA9 JUMP JUMPDEST PUSH1 0x40 MLOAD DUP1 SWAP2 SUB SWAP1 REVERT JUMPDEST PUSH0 DUP4 SUB PUSH2 0x2440 JUMPI PUSH1 0x40 MLOAD PUSH32 0x8C379A000000000000000000000000000000000000000000000000000000000 DUP2 MSTORE PUSH1 0x4 ADD PUSH2 0x2437 SWAP1 PUSH2 0x3DF6 JUMP JUMPDEST PUSH1 0x40 MLOAD DUP1 SWAP2 SUB SWAP1 REVERT JUMPDEST DUP3 PUSH1 0x4 PUSH0 CALLER PUSH20 0xFFFFFFFFFFFFFFFFFFFFFFFFFFFFFFFFFFFFFFFF AND PUSH20 0xFFFFFFFFFFFFFFFFFFFFFFFFFFFFFFFFFFFFFFFF AND DUP2 MSTORE PUSH1 0x20 ADD SWAP1 DUP2 MSTORE PUSH1 0x20 ADD PUSH0 KECCAK256 PUSH0 DUP7 PUSH20 0xFFFFFFFFFFFFFFFFFFFFFFFFFFFFFFFFFFFFFFFF AND PUSH20 0xFFFFFFFFFFFFFFFFFFFFFFFFFFFFFFFFFFFFFFFF AND DUP2 MSTORE PUSH1 0x20 ADD SWAP1 DUP2 MSTORE PUSH1 0x20 ADD PUSH0 KECCAK256 PUSH0 DUP3 DUP3 SLOAD PUSH2 0x24C7 SWAP2 SWAP1 PUSH2 0x3D2B JUMP JUMPDEST SWAP3 POP POP DUP2 SWAP1 SSTORE POP PUSH1 0x5 PUSH1 0x40 MLOAD DUP1 PUSH1 0x80 ADD PUSH1 0x40 MSTORE DUP1 CALLER PUSH20 0xFFFFFFFFFFFFFFFFFFFFFFFFFFFFFFFFFFFFFFFF AND DUP2 MSTORE PUSH1 0x20 ADD DUP7 PUSH20 0xFFFFFFFFFFFFFFFFFFFFFFFFFFFFFFFFFFFFFFFF AND DUP2 MSTORE PUSH1 0x20 ADD DUP6 DUP2 MSTORE PUSH1 0x20 ADD TIMESTAMP DUP2 MSTORE POP SWAP1 DUP1 PUSH1 0x1 DUP2 SLOAD ADD DUP1 DUP3 SSTORE DUP1 SWAP2 POP POP PUSH1 0x1 SWAP1 SUB SWAP1 PUSH0 MSTORE PUSH1 0x20 PUSH0 KECCAK256 SWAP1 PUSH1 0x4 MUL ADD PUSH0 SWAP1 SWAP2 SWAP1 SWAP2 SWAP1 SWAP2 POP PUSH0 DUP3 ADD MLOAD DUP2 PUSH0 ADD PUSH0 PUSH2 0x100 EXP DUP2 SLOAD DUP2 PUSH20 0xFFFFFFFFFFFFFFFFFFFFFFFFFFFFFFFFFFFFFFFF MUL NOT AND SWAP1 DUP4 PUSH20 0xFFFFFFFFFFFFFFFFFFFFFFFFFFFFFFFFFFFFFFFF AND MUL OR SWAP1 SSTORE POP PUSH1 0x20 DUP3 ADD MLOAD DUP2 PUSH1 0x1 ADD PUSH0 PUSH2 0x100 EXP DUP2 SLOAD DUP2 PUSH20 0xFFFFFFFFFFFFFFFFFFFFFFFFFFFFFFFFFFFFFFFF MUL NOT AND SWAP1 DUP4 PUSH20 0xFFFFFFFFFFFFFFFFFFFFFFFFFFFFFFFFFFFFFFFF AND MUL OR SWAP1 SSTORE POP PUSH1 0x40 DUP3 ADD MLOAD DUP2 PUSH1 0x2 ADD SSTORE PUSH1 0x60 DUP3 ADD MLOAD DUP2 PUSH1 0x3 ADD SSTORE POP POP DUP4 PUSH20 0xFFFFFFFFFFFFFFFFFFFFFFFFFFFFFFFFFFFFFFFF AND CALLER PUSH20 0xFFFFFFFFFFFFFFFFFFFFFFFFFFFFFFFFFFFFFFFF AND PUSH32 0x7E4D8D6EF9FD3064BC3BD7EA85AA9FDC6D37C48173AD3FD153904E34DB45D9C6 DUP6 TIMESTAMP PUSH1 0x40 MLOAD PUSH2 0x2642 SWAP3 SWAP2 SWAP1 PUSH2 0x3E14 JUMP JUMPDEST PUSH1 0x40 MLOAD DUP1 SWAP2 SUB SWAP1 LOG3 PUSH2 0x2653 CALLER PUSH2 0x275F JUMP JUMPDEST PUSH2 0x265C DUP5 PUSH2 0x275F JUMP JUMPDEST POP POP POP POP JUMP JUMPDEST PUSH0 DUP1 SLOAD SWAP1 PUSH2 0x100 EXP SWAP1 DIV PUSH20 0xFFFFFFFFFFFFFFFFFFFFFFFFFFFFFFFFFFFFFFFF AND PUSH20 0xFFFFFFFFFFFFFFFFFFFFFFFFFFFFFFFFFFFFFFFF AND CALLER PUSH20 0xFFFFFFFFFFFFFFFFFFFFFFFFFFFFFFFFFFFFFFFF AND EQ PUSH2 0x26EF JUMPI PUSH1 0x40 MLOAD PUSH32 0x8C379A000000000000000000000000000000000000000000000000000000000 DUP2 MSTORE PUSH1 0x4 ADD PUSH2 0x26E6 SWAP1 PUSH2 0x3430 JUMP JUMPDEST PUSH1 0x40 MLOAD DUP1 SWAP2 SUB SWAP1 REVERT JUMPDEST PUSH1 0x64 DUP2 GT PUSH2 0x2732 JUMPI PUSH1 0x40 MLOAD PUSH32 0x8C379A000000000000000000000000000000000000000000000000000000000 DUP2 MSTORE PUSH1 0x4 ADD PUSH2 0x2729 SWAP1 PUSH2 0x3EAB JUMP JUMPDEST PUSH1 0x40 MLOAD DUP1 SWAP2 SUB SWAP1 REVERT JUMPDEST DUP1 PUSH1 0x1 DUP2 SWAP1 SSTORE POP POP JUMP JUMPDEST PUSH0 DUP1 SLOAD SWAP1 PUSH2 0x100 EXP SWAP1 DIV PUSH20 0xFFFFFFFFFFFFFFFFFFFFFFFFFFFFFFFFFFFFFFFF AND DUP2 JUMP JUMPDEST PUSH0 PUSH1 0x2 PUSH0 DUP4 PUSH20 0xFFFFFFFFFFFFFFFFFFFFFFFFFFFFFFFFFFFFFFFF AND PUSH20 0xFFFFFFFFFFFFFFFFFFFFFFFFFFFFFFFFFFFFFFFF AND DUP2 MSTORE PUSH1 0x20 ADD SWAP1 DUP2 MSTORE PUSH1 0x20 ADD PUSH0 KECCAK256 SWAP1 POP DUP1 PUSH1 0x2 ADD SLOAD DUP2 PUSH1 0x3 ADD SLOAD GT ISZERO PUSH2 0x28AF JUMPI DUP2 PUSH20 0xFFFFFFFFFFFFFFFFFFFFFFFFFFFFFFFFFFFFFFFF AND PUSH32 0x9A2DD2B852C39CDC36EBFA2BC55459F64FD51881EBFDE683D37A31595C27DA48 DUP3 PUSH1 0x3 ADD SLOAD DUP4 PUSH1 0x2 ADD SLOAD PUSH1 0x40 MLOAD PUSH2 0x27FF SWAP3 SWAP2 SWAP1 PUSH2 0x3586 JUMP JUMPDEST PUSH1 0x40 MLOAD DUP1 SWAP2 SUB SWAP1 LOG2 PUSH0 DUP2 PUSH1 0x6 ADD PUSH0 PUSH2 0x100 EXP DUP2 SLOAD DUP2 PUSH1 0xFF MUL NOT AND SWAP1 DUP4 ISZERO ISZERO MUL OR SWAP1 SSTORE POP PUSH0 PUSH1 0xA DUP3 PUSH1 0x2 ADD SLOAD DUP4 PUSH1 0x3 ADD SLOAD PUSH2 0x2839 SWAP2 SWAP1 PUSH2 0x36D6 JUMP JUMPDEST PUSH2 0x2843 SWAP2 SWAP1 PUSH2 0x3322 JUMP JUMPDEST SWAP1 POP DUP1 DUP3 PUSH1 0x7 ADD PUSH0 DUP3 DUP3 SLOAD PUSH2 0x2858 SWAP2 SWAP1 PUSH2 0x3615 JUMP JUMPDEST SWAP3 POP POP DUP2 SWAP1 SSTORE POP DUP3 PUSH20 0xFFFFFFFFFFFFFFFFFFFFFFFFFFFFFFFFFFFFFFFF AND PUSH32 0xA7EFD79F8B4F74475645BB98022D7135FEAB57D5B96CB33512477B288E3FF9C3 DUP3 PUSH1 0x40 MLOAD PUSH2 0x28A5 SWAP2 SWAP1 PUSH2 0x2A79 JUMP JUMPDEST PUSH1 0x40 MLOAD DUP1 SWAP2 SUB SWAP1 LOG2 POP JUMPDEST PUSH0 PUSH2 0x28B9 DUP4 PUSH2 0x4CC JUMP JUMPDEST SWAP1 POP PUSH1 0x64 DUP2 LT ISZERO PUSH2 0x2961 JUMPI DUP3 PUSH20 0xFFFFFFFFFFFFFFFFFFFFFFFFFFFFFFFFFFFFFFFF AND PUSH32 0x674FC74C826DBEC5EDEAC8ECDFD4401967AF353CE41C4918C79EBEA80E27C367 DUP3 PUSH1 0x40 MLOAD PUSH2 0x290A SWAP2 SWAP1 PUSH2 0x2A79 JUMP JUMPDEST PUSH1 0x40 MLOAD DUP1 SWAP2 SUB SWAP1 LOG2 DUP3 PUSH20 0xFFFFFFFFFFFFFFFFFFFFFFFFFFFFFFFFFFFFFFFF AND PUSH32 0x84D816823F9892AEA5614B7096B3480A730FEA36BAEF44DF755F3B9A3FCC36D6 DUP3 PUSH1 0x40 MLOAD PUSH2 0x2958 SWAP2 SWAP1 PUSH2 0x3F13 JUMP JUMPDEST PUSH1 0x40 MLOAD DUP1 SWAP2 SUB SWAP1 LOG2 JUMPDEST PUSH0 PUSH2 0x296B DUP5 PUSH2 0x1870 JUMP JUMPDEST SWAP1 POP PUSH1 0xC8 DUP2 GT ISZERO PUSH2 0x29C5 JUMPI DUP4 PUSH20 0xFFFFFFFFFFFFFFFFFFFFFFFFFFFFFFFFFFFFFFFF AND PUSH32 0x84D816823F9892AEA5614B7096B3480A730FEA36BAEF44DF755F3B9A3FCC36D6 DUP3 PUSH1 0x40 MLOAD PUSH2 0x29BC SWAP2 SWAP1 PUSH2 0x3F89 JUMP JUMPDEST PUSH1 0x40 MLOAD DUP1 SWAP2 SUB SWAP1 LOG2 JUMPDEST POP POP POP POP JUMP JUMPDEST PUSH0 PUSH1 0x40 MLOAD SWAP1 POP SWAP1 JUMP JUMPDEST PUSH0 DUP1 REVERT JUMPDEST PUSH0 DUP1 REVERT JUMPDEST PUSH0 PUSH20 0xFFFFFFFFFFFFFFFFFFFFFFFFFFFFFFFFFFFFFFFF DUP3 AND SWAP1 POP SWAP2 SWAP1 POP JUMP JUMPDEST PUSH0 PUSH2 0x2A05 DUP3 PUSH2 0x29DC JUMP JUMPDEST SWAP1 POP SWAP2 SWAP1 POP JUMP JUMPDEST PUSH2 0x2A15 DUP2 PUSH2 0x29FB JUMP JUMPDEST DUP2 EQ PUSH2 0x2A1F JUMPI PUSH0 DUP1 REVERT JUMPDEST POP JUMP JUMPDEST PUSH0 DUP2 CALLDATALOAD SWAP1 POP PUSH2 0x2A30 DUP2 PUSH2 0x2A0C JUMP JUMPDEST SWAP3 SWAP2 POP POP JUMP JUMPDEST PUSH0 PUSH1 0x20 DUP3 DUP5 SUB SLT ISZERO PUSH2 0x2A4B JUMPI PUSH2 0x2A4A PUSH2 0x29D4 JUMP JUMPDEST JUMPDEST PUSH0 PUSH2 0x2A58 DUP5 DUP3 DUP6 ADD PUSH2 0x2A22 JUMP JUMPDEST SWAP2 POP POP SWAP3 SWAP2 POP POP JUMP JUMPDEST PUSH0 DUP2 SWAP1 POP SWAP2 SWAP1 POP JUMP JUMPDEST PUSH2 0x2A73 DUP2 PUSH2 0x2A61 JUMP JUMPDEST DUP3 MSTORE POP POP JUMP JUMPDEST PUSH0 PUSH1 0x20 DUP3 ADD SWAP1 POP PUSH2 0x2A8C PUSH0 DUP4 ADD DUP5 PUSH2 0x2A6A JUMP JUMPDEST SWAP3 SWAP2 POP POP JUMP JUMPDEST PUSH2 0x2A9B DUP2 PUSH2 0x2A61 JUMP JUMPDEST DUP2 EQ PUSH2 0x2AA5 JUMPI PUSH0 DUP1 REVERT JUMPDEST POP JUMP JUMPDEST PUSH0 DUP2 CALLDATALOAD SWAP1 POP PUSH2 0x2AB6 DUP2 PUSH2 0x2A92 JUMP JUMPDEST SWAP3 SWAP2 POP POP JUMP JUMPDEST PUSH0 DUP1 PUSH0 DUP1 PUSH1 0x80 DUP6 DUP8 SUB SLT ISZERO PUSH2 0x2AD4 JUMPI PUSH2 0x2AD3 PUSH2 0x29D4 JUMP JUMPDEST JUMPDEST PUSH0 PUSH2 0x2AE1 DUP8 DUP3 DUP9 ADD PUSH2 0x2A22 JUMP JUMPDEST SWAP5 POP POP PUSH1 0x20 PUSH2 0x2AF2 DUP8 DUP3 DUP9 ADD PUSH2 0x2AA8 JUMP JUMPDEST SWAP4 POP POP PUSH1 0x40 PUSH2 0x2B03 DUP8 DUP3 DUP9 ADD PUSH2 0x2AA8 JUMP JUMPDEST SWAP3 POP POP PUSH1 0x60 PUSH2 0x2B14 DUP8 DUP3 DUP9 ADD PUSH2 0x2AA8 JUMP JUMPDEST SWAP2 POP POP SWAP3 SWAP6 SWAP2 SWAP5 POP SWAP3 POP JUMP JUMPDEST PUSH0 DUP2 MLOAD SWAP1 POP SWAP2 SWAP1 POP JUMP JUMPDEST PUSH0 DUP3 DUP3 MSTORE PUSH1 0x20 DUP3 ADD SWAP1 POP SWAP3 SWAP2 POP POP JUMP JUMPDEST PUSH0 DUP2 SWAP1 POP PUSH1 0x20 DUP3 ADD SWAP1 POP SWAP2 SWAP1 POP JUMP JUMPDEST PUSH2 0x2B52 DUP2 PUSH2 0x29FB JUMP JUMPDEST DUP3 MSTORE POP POP JUMP JUMPDEST PUSH0 PUSH2 0x2B63 DUP4 DUP4 PUSH2 0x2B49 JUMP JUMPDEST PUSH1 0x20 DUP4 ADD SWAP1 POP SWAP3 SWAP2 POP POP JUMP JUMPDEST PUSH0 PUSH1 0x20 DUP3 ADD SWAP1 POP SWAP2 SWAP1 POP JUMP JUMPDEST PUSH0 PUSH2 0x2B85 DUP3 PUSH2 0x2B20 JUMP JUMPDEST PUSH2 0x2B8F DUP2 DUP6 PUSH2 0x2B2A JUMP JUMPDEST SWAP4 POP PUSH2 0x2B9A DUP4 PUSH2 0x2B3A JUMP JUMPDEST DUP1 PUSH0 JUMPDEST DUP4 DUP2 LT ISZERO PUSH2 0x2BCA JUMPI DUP2 MLOAD PUSH2 0x2BB1 DUP9 DUP3 PUSH2 0x2B58 JUMP JUMPDEST SWAP8 POP PUSH2 0x2BBC DUP4 PUSH2 0x2B6F JUMP JUMPDEST SWAP3 POP POP PUSH1 0x1 DUP2 ADD SWAP1 POP PUSH2 0x2B9D JUMP JUMPDEST POP DUP6 SWAP4 POP POP POP POP SWAP3 SWAP2 POP POP JUMP JUMPDEST PUSH0 PUSH1 0x20 DUP3 ADD SWAP1 POP DUP2 DUP2 SUB PUSH0 DUP4 ADD MSTORE PUSH2 0x2BEF DUP2 DUP5 PUSH2 0x2B7B JUMP JUMPDEST SWAP1 POP SWAP3 SWAP2 POP POP JUMP JUMPDEST PUSH0 DUP2 MLOAD SWAP1 POP SWAP2 SWAP1 POP JUMP JUMPDEST PUSH0 DUP3 DUP3 MSTORE PUSH1 0x20 DUP3 ADD SWAP1 POP SWAP3 SWAP2 POP POP JUMP JUMPDEST PUSH0 DUP2 SWAP1 POP PUSH1 0x20 DUP3 ADD SWAP1 POP SWAP2 SWAP1 POP JUMP JUMPDEST PUSH0 DUP2 SWAP1 POP SWAP2 SWAP1 POP JUMP JUMPDEST PUSH2 0x2C32 DUP2 PUSH2 0x2C20 JUMP JUMPDEST DUP3 MSTORE POP POP JUMP JUMPDEST PUSH2 0x2C41 DUP2 PUSH2 0x2A61 JUMP JUMPDEST DUP3 MSTORE POP POP JUMP JUMPDEST PUSH1 0x80 DUP3 ADD PUSH0 DUP3 ADD MLOAD PUSH2 0x2C5B PUSH0 DUP6 ADD DUP3 PUSH2 0x2B49 JUMP JUMPDEST POP PUSH1 0x20 DUP3 ADD MLOAD PUSH2 0x2C6E PUSH1 0x20 DUP6 ADD DUP3 PUSH2 0x2B49 JUMP JUMPDEST POP PUSH1 0x40 DUP3 ADD MLOAD PUSH2 0x2C81 PUSH1 0x40 DUP6 ADD DUP3 PUSH2 0x2C29 JUMP JUMPDEST POP PUSH1 0x60 DUP3 ADD MLOAD PUSH2 0x2C94 PUSH1 0x60 DUP6 ADD DUP3 PUSH2 0x2C38 JUMP JUMPDEST POP POP POP POP JUMP JUMPDEST PUSH0 PUSH2 0x2CA5 DUP4 DUP4 PUSH2 0x2C47 JUMP JUMPDEST PUSH1 0x80 DUP4 ADD SWAP1 POP SWAP3 SWAP2 POP POP JUMP JUMPDEST PUSH0 PUSH1 0x20 DUP3 ADD SWAP1 POP SWAP2 SWAP1 POP JUMP JUMPDEST PUSH0 PUSH2 0x2CC7 DUP3 PUSH2 0x2BF7 JUMP JUMPDEST PUSH2 0x2CD1 DUP2 DUP6 PUSH2 0x2C01 JUMP JUMPDEST SWAP4 POP PUSH2 0x2CDC DUP4 PUSH2 0x2C11 JUMP JUMPDEST DUP1 PUSH0 JUMPDEST DUP4 DUP2 LT ISZERO PUSH2 0x2D0C JUMPI DUP2 MLOAD PUSH2 0x2CF3 DUP9 DUP3 PUSH2 0x2C9A JUMP JUMPDEST SWAP8 POP PUSH2 0x2CFE DUP4 PUSH2 0x2CB1 JUMP JUMPDEST SWAP3 POP POP PUSH1 0x1 DUP2 ADD SWAP1 POP PUSH2 0x2CDF JUMP JUMPDEST POP DUP6 SWAP4 POP POP POP POP SWAP3 SWAP2 POP POP JUMP JUMPDEST PUSH0 PUSH1 0x20 DUP3 ADD SWAP1 POP DUP2 DUP2 SUB PUSH0 DUP4 ADD MSTORE PUSH2 0x2D31 DUP2 DUP5 PUSH2 0x2CBD JUMP JUMPDEST SWAP1 POP SWAP3 SWAP2 POP POP JUMP JUMPDEST PUSH0 PUSH1 0x20 DUP3 DUP5 SUB SLT ISZERO PUSH2 0x2D4E JUMPI PUSH2 0x2D4D PUSH2 0x29D4 JUMP JUMPDEST JUMPDEST PUSH0 PUSH2 0x2D5B DUP5 DUP3 DUP6 ADD PUSH2 0x2AA8 JUMP JUMPDEST SWAP2 POP POP SWAP3 SWAP2 POP POP JUMP JUMPDEST PUSH2 0x2D6D DUP2 PUSH2 0x29FB JUMP JUMPDEST DUP3 MSTORE POP POP JUMP JUMPDEST PUSH2 0x2D7C DUP2 PUSH2 0x2C20 JUMP JUMPDEST DUP3 MSTORE POP POP JUMP JUMPDEST PUSH0 PUSH1 0x80 DUP3 ADD SWAP1 POP PUSH2 0x2D95 PUSH0 DUP4 ADD DUP8 PUSH2 0x2D64 JUMP JUMPDEST PUSH2 0x2DA2 PUSH1 0x20 DUP4 ADD DUP7 PUSH2 0x2D64 JUMP JUMPDEST PUSH2 0x2DAF PUSH1 0x40 DUP4 ADD DUP6 PUSH2 0x2D73 JUMP JUMPDEST PUSH2 0x2DBC PUSH1 0x60 DUP4 ADD DUP5 PUSH2 0x2A6A JUMP JUMPDEST SWAP6 SWAP5 POP POP POP POP POP JUMP JUMPDEST PUSH0 DUP1 REVERT JUMPDEST PUSH0 DUP1 REVERT JUMPDEST PUSH0 PUSH1 0x1F NOT PUSH1 0x1F DUP4 ADD AND SWAP1 POP SWAP2 SWAP1 POP JUMP JUMPDEST PUSH32 0x4E487B7100000000000000000000000000000000000000000000000000000000 PUSH0 MSTORE PUSH1 0x41 PUSH1 0x4 MSTORE PUSH1 0x24 PUSH0 REVERT JUMPDEST PUSH2 0x2E13 DUP3 PUSH2 0x2DCD JUMP JUMPDEST DUP2 ADD DUP2 DUP2 LT PUSH8 0xFFFFFFFFFFFFFFFF DUP3 GT OR ISZERO PUSH2 0x2E32 JUMPI PUSH2 0x2E31 PUSH2 0x2DDD JUMP JUMPDEST JUMPDEST DUP1 PUSH1 0x40 MSTORE POP POP POP JUMP JUMPDEST PUSH0 PUSH2 0x2E44 PUSH2 0x29CB JUMP JUMPDEST SWAP1 POP PUSH2 0x2E50 DUP3 DUP3 PUSH2 0x2E0A JUMP JUMPDEST SWAP2 SWAP1 POP JUMP JUMPDEST PUSH0 PUSH8 0xFFFFFFFFFFFFFFFF DUP3 GT ISZERO PUSH2 0x2E6F JUMPI PUSH2 0x2E6E PUSH2 0x2DDD JUMP JUMPDEST JUMPDEST PUSH2 0x2E78 DUP3 PUSH2 0x2DCD JUMP JUMPDEST SWAP1 POP PUSH1 0x20 DUP2 ADD SWAP1 POP SWAP2 SWAP1 POP JUMP JUMPDEST DUP3 DUP2 DUP4 CALLDATACOPY PUSH0 DUP4 DUP4 ADD MSTORE POP POP POP JUMP JUMPDEST PUSH0 PUSH2 0x2EA5 PUSH2 0x2EA0 DUP5 PUSH2 0x2E55 JUMP JUMPDEST PUSH2 0x2E3B JUMP JUMPDEST SWAP1 POP DUP3 DUP2 MSTORE PUSH1 0x20 DUP2 ADD DUP5 DUP5 DUP5 ADD GT ISZERO PUSH2 0x2EC1 JUMPI PUSH2 0x2EC0 PUSH2 0x2DC9 JUMP JUMPDEST JUMPDEST PUSH2 0x2ECC DUP5 DUP3 DUP6 PUSH2 0x2E85 JUMP JUMPDEST POP SWAP4 SWAP3 POP POP POP JUMP JUMPDEST PUSH0 DUP3 PUSH1 0x1F DUP4 ADD SLT PUSH2 0x2EE8 JUMPI PUSH2 0x2EE7 PUSH2 0x2DC5 JUMP JUMPDEST JUMPDEST DUP2 CALLDATALOAD PUSH2 0x2EF8 DUP5 DUP3 PUSH1 0x20 DUP7 ADD PUSH2 0x2E93 JUMP JUMPDEST SWAP2 POP POP SWAP3 SWAP2 POP POP JUMP JUMPDEST PUSH0 DUP1 PUSH0 PUSH1 0x60 DUP5 DUP7 SUB SLT ISZERO PUSH2 0x2F18 JUMPI PUSH2 0x2F17 PUSH2 0x29D4 JUMP JUMPDEST JUMPDEST PUSH0 PUSH2 0x2F25 DUP7 DUP3 DUP8 ADD PUSH2 0x2A22 JUMP JUMPDEST SWAP4 POP POP PUSH1 0x20 PUSH2 0x2F36 DUP7 DUP3 DUP8 ADD PUSH2 0x2AA8 JUMP JUMPDEST SWAP3 POP POP PUSH1 0x40 DUP5 ADD CALLDATALOAD PUSH8 0xFFFFFFFFFFFFFFFF DUP2 GT ISZERO PUSH2 0x2F57 JUMPI PUSH2 0x2F56 PUSH2 0x29D8 JUMP JUMPDEST JUMPDEST PUSH2 0x2F63 DUP7 DUP3 DUP8 ADD PUSH2 0x2ED4 JUMP JUMPDEST SWAP2 POP POP SWAP3 POP SWAP3 POP SWAP3 JUMP JUMPDEST PUSH0 DUP1 PUSH1 0x40 DUP4 DUP6 SUB SLT ISZERO PUSH2 0x2F83 JUMPI PUSH2 0x2F82 PUSH2 0x29D4 JUMP JUMPDEST JUMPDEST PUSH0 PUSH2 0x2F90 DUP6 DUP3 DUP7 ADD PUSH2 0x2A22 JUMP JUMPDEST SWAP3 POP POP PUSH1 0x20 PUSH2 0x2FA1 DUP6 DUP3 DUP7 ADD PUSH2 0x2AA8 JUMP JUMPDEST SWAP2 POP POP SWAP3 POP SWAP3 SWAP1 POP JUMP JUMPDEST PUSH0 PUSH1 0x20 DUP3 ADD SWAP1 POP PUSH2 0x2FBE PUSH0 DUP4 ADD DUP5 PUSH2 0x2D64 JUMP JUMPDEST SWAP3 SWAP2 POP POP JUMP JUMPDEST PUSH0 DUP1 PUSH1 0x40 DUP4 DUP6 SUB SLT ISZERO PUSH2 0x2FDA JUMPI PUSH2 0x2FD9 PUSH2 0x29D4 JUMP JUMPDEST JUMPDEST PUSH0 PUSH2 0x2FE7 DUP6 DUP3 DUP7 ADD PUSH2 0x2A22 JUMP JUMPDEST SWAP3 POP POP PUSH1 0x20 PUSH2 0x2FF8 DUP6 DUP3 DUP7 ADD PUSH2 0x2A22 JUMP JUMPDEST SWAP2 POP POP SWAP3 POP SWAP3 SWAP1 POP JUMP JUMPDEST PUSH0 PUSH1 0x20 DUP3 ADD SWAP1 POP PUSH2 0x3015 PUSH0 DUP4 ADD DUP5 PUSH2 0x2D73 JUMP JUMPDEST SWAP3 SWAP2 POP POP JUMP JUMPDEST PUSH0 DUP2 ISZERO ISZERO SWAP1 POP SWAP2 SWAP1 POP JUMP JUMPDEST PUSH2 0x302F DUP2 PUSH2 0x301B JUMP JUMPDEST DUP3 MSTORE POP POP JUMP JUMPDEST PUSH0 PUSH2 0x100 DUP3 ADD SWAP1 POP PUSH2 0x3049 PUSH0 DUP4 ADD DUP12 PUSH2 0x2D64 JUMP JUMPDEST PUSH2 0x3056 PUSH1 0x20 DUP4 ADD DUP11 PUSH2 0x2A6A JUMP JUMPDEST PUSH2 0x3063 PUSH1 0x40 DUP4 ADD DUP10 PUSH2 0x2A6A JUMP JUMPDEST PUSH2 0x3070 PUSH1 0x60 DUP4 ADD DUP9 PUSH2 0x2A6A JUMP JUMPDEST PUSH2 0x307D PUSH1 0x80 DUP4 ADD DUP8 PUSH2 0x2A6A JUMP JUMPDEST PUSH2 0x308A PUSH1 0xA0 DUP4 ADD DUP7 PUSH2 0x3026 JUMP JUMPDEST PUSH2 0x3097 PUSH1 0xC0 DUP4 ADD DUP6 PUSH2 0x2A6A JUMP JUMPDEST PUSH2 0x30A4 PUSH1 0xE0 DUP4 ADD DUP5 PUSH2 0x2A6A JUMP JUMPDEST SWAP10 SWAP9 POP POP POP POP POP POP POP POP POP JUMP JUMPDEST PUSH0 PUSH2 0x30BB DUP3 PUSH2 0x29DC JUMP JUMPDEST SWAP1 POP SWAP2 SWAP1 POP JUMP JUMPDEST PUSH2 0x30CB DUP2 PUSH2 0x30B1 JUMP JUMPDEST DUP2 EQ PUSH2 0x30D5 JUMPI PUSH0 DUP1 REVERT JUMPDEST POP JUMP JUMPDEST PUSH0 DUP2 CALLDATALOAD SWAP1 POP PUSH2 0x30E6 DUP2 PUSH2 0x30C2 JUMP JUMPDEST SWAP3 SWAP2 POP POP JUMP JUMPDEST PUSH0 DUP1 PUSH1 0x40 DUP4 DUP6 SUB SLT ISZERO PUSH2 0x3102 JUMPI PUSH2 0x3101 PUSH2 0x29D4 JUMP JUMPDEST JUMPDEST PUSH0 PUSH2 0x310F DUP6 DUP3 DUP7 ADD PUSH2 0x30D8 JUMP JUMPDEST SWAP3 POP POP PUSH1 0x20 PUSH2 0x3120 DUP6 DUP3 DUP7 ADD PUSH2 0x2AA8 JUMP JUMPDEST SWAP2 POP POP SWAP3 POP SWAP3 SWAP1 POP JUMP JUMPDEST PUSH2 0x3133 DUP2 PUSH2 0x2C20 JUMP JUMPDEST DUP2 EQ PUSH2 0x313D JUMPI PUSH0 DUP1 REVERT JUMPDEST POP JUMP JUMPDEST PUSH0 DUP2 CALLDATALOAD SWAP1 POP PUSH2 0x314E DUP2 PUSH2 0x312A JUMP JUMPDEST SWAP3 SWAP2 POP POP JUMP JUMPDEST PUSH0 DUP1 PUSH1 0x40 DUP4 DUP6 SUB SLT ISZERO PUSH2 0x316A JUMPI PUSH2 0x3169 PUSH2 0x29D4 JUMP JUMPDEST JUMPDEST PUSH0 PUSH2 0x3177 DUP6 DUP3 DUP7 ADD PUSH2 0x2A22 JUMP JUMPDEST SWAP3 POP POP PUSH1 0x20 PUSH2 0x3188 DUP6 DUP3 DUP7 ADD PUSH2 0x3140 JUMP JUMPDEST SWAP2 POP POP SWAP3 POP SWAP3 SWAP1 POP JUMP JUMPDEST PUSH0 DUP3 DUP3 MSTORE PUSH1 0x20 DUP3 ADD SWAP1 POP SWAP3 SWAP2 POP POP JUMP JUMPDEST PUSH32 0x436F6E74726570617274696520696E616374697665206F7520696E6578697374 PUSH0 DUP3 ADD MSTORE PUSH32 0x616E746500000000000000000000000000000000000000000000000000000000 PUSH1 0x20 DUP3 ADD MSTORE POP JUMP JUMPDEST PUSH0 PUSH2 0x31FC PUSH1 0x24 DUP4 PUSH2 0x3192 JUMP JUMPDEST SWAP2 POP PUSH2 0x3207 DUP3 PUSH2 0x31A2 JUMP JUMPDEST PUSH1 0x40 DUP3 ADD SWAP1 POP SWAP2 SWAP1 POP JUMP JUMPDEST PUSH0 PUSH1 0x20 DUP3 ADD SWAP1 POP DUP2 DUP2 SUB PUSH0 DUP4 ADD MSTORE PUSH2 0x3229 DUP2 PUSH2 0x31F0 JUMP JUMPDEST SWAP1 POP SWAP2 SWAP1 POP JUMP JUMPDEST PUSH32 0x4E487B7100000000000000000000000000000000000000000000000000000000 PUSH0 MSTORE PUSH1 0x22 PUSH1 0x4 MSTORE PUSH1 0x24 PUSH0 REVERT JUMPDEST PUSH0 PUSH1 0x2 DUP3 DIV SWAP1 POP PUSH1 0x1 DUP3 AND DUP1 PUSH2 0x3274 JUMPI PUSH1 0x7F DUP3 AND SWAP2 POP JUMPDEST PUSH1 0x20 DUP3 LT DUP2 SUB PUSH2 0x3287 JUMPI PUSH2 0x3286 PUSH2 0x3230 JUMP JUMPDEST JUMPDEST POP SWAP2 SWAP1 POP JUMP JUMPDEST PUSH32 0x4578706F736974696F6E20636F7572616E7465206E756C6C6500000000000000 PUSH0 DUP3 ADD MSTORE POP JUMP JUMPDEST PUSH0 PUSH2 0x32C1 PUSH1 0x19 DUP4 PUSH2 0x3192 JUMP JUMPDEST SWAP2 POP PUSH2 0x32CC DUP3 PUSH2 0x328D JUMP JUMPDEST PUSH1 0x20 DUP3 ADD SWAP1 POP SWAP2 SWAP1 POP JUMP JUMPDEST PUSH0 PUSH1 0x20 DUP3 ADD SWAP1 POP DUP2 DUP2 SUB PUSH0 DUP4 ADD MSTORE PUSH2 0x32EE DUP2 PUSH2 0x32B5 JUMP JUMPDEST SWAP1 POP SWAP2 SWAP1 POP JUMP JUMPDEST PUSH32 0x4E487B7100000000000000000000000000000000000000000000000000000000 PUSH0 MSTORE PUSH1 0x11 PUSH1 0x4 MSTORE PUSH1 0x24 PUSH0 REVERT JUMPDEST PUSH0 PUSH2 0x332C DUP3 PUSH2 0x2A61 JUMP JUMPDEST SWAP2 POP PUSH2 0x3337 DUP4 PUSH2 0x2A61 JUMP JUMPDEST SWAP3 POP DUP3 DUP3 MUL PUSH2 0x3345 DUP2 PUSH2 0x2A61 JUMP JUMPDEST SWAP2 POP DUP3 DUP3 DIV DUP5 EQ DUP4 ISZERO OR PUSH2 0x335C JUMPI PUSH2 0x335B PUSH2 0x32F5 JUMP JUMPDEST JUMPDEST POP SWAP3 SWAP2 POP POP JUMP JUMPDEST PUSH32 0x4E487B7100000000000000000000000000000000000000000000000000000000 PUSH0 MSTORE PUSH1 0x12 PUSH1 0x4 MSTORE PUSH1 0x24 PUSH0 REVERT JUMPDEST PUSH0 PUSH2 0x339A DUP3 PUSH2 0x2A61 JUMP JUMPDEST SWAP2 POP PUSH2 0x33A5 DUP4 PUSH2 0x2A61 JUMP JUMPDEST SWAP3 POP DUP3 PUSH2 0x33B5 JUMPI PUSH2 0x33B4 PUSH2 0x3363 JUMP JUMPDEST JUMPDEST DUP3 DUP3 DIV SWAP1 POP SWAP3 SWAP2 POP POP JUMP JUMPDEST PUSH32 0x416374696F6E2072657365727665652061206C2761646D696E69737472617465 PUSH0 DUP3 ADD MSTORE PUSH32 0x7572000000000000000000000000000000000000000000000000000000000000 PUSH1 0x20 DUP3 ADD MSTORE POP JUMP JUMPDEST PUSH0 PUSH2 0x341A PUSH1 0x22 DUP4 PUSH2 0x3192 JUMP JUMPDEST SWAP2 POP PUSH2 0x3425 DUP3 PUSH2 0x33C0 JUMP JUMPDEST PUSH1 0x40 DUP3 ADD SWAP1 POP SWAP2 SWAP1 POP JUMP JUMPDEST PUSH0 PUSH1 0x20 DUP3 ADD SWAP1 POP DUP2 DUP2 SUB PUSH0 DUP4 ADD MSTORE PUSH2 0x3447 DUP2 PUSH2 0x340E JUMP JUMPDEST SWAP1 POP SWAP2 SWAP1 POP JUMP JUMPDEST PUSH32 0x4164726573736520696E76616C69646500000000000000000000000000000000 PUSH0 DUP3 ADD MSTORE POP JUMP JUMPDEST PUSH0 PUSH2 0x3482 PUSH1 0x10 DUP4 PUSH2 0x3192 JUMP JUMPDEST SWAP2 POP PUSH2 0x348D DUP3 PUSH2 0x344E JUMP JUMPDEST PUSH1 0x20 DUP3 ADD SWAP1 POP SWAP2 SWAP1 POP JUMP JUMPDEST PUSH0 PUSH1 0x20 DUP3 ADD SWAP1 POP DUP2 DUP2 SUB PUSH0 DUP4 ADD MSTORE PUSH2 0x34AF DUP2 PUSH2 0x3476 JUMP JUMPDEST SWAP1 POP SWAP2 SWAP1 POP JUMP JUMPDEST PUSH32 0x436F6E747265706172746965206578697374652064656A610000000000000000 PUSH0 DUP3 ADD MSTORE POP JUMP JUMPDEST PUSH0 PUSH2 0x34EA PUSH1 0x18 DUP4 PUSH2 0x3192 JUMP JUMPDEST SWAP2 POP PUSH2 0x34F5 DUP3 PUSH2 0x34B6 JUMP JUMPDEST PUSH1 0x20 DUP3 ADD SWAP1 POP SWAP2 SWAP1 POP JUMP JUMPDEST PUSH0 PUSH1 0x20 DUP3 ADD SWAP1 POP DUP2 DUP2 SUB PUSH0 DUP4 ADD MSTORE PUSH2 0x3517 DUP2 PUSH2 0x34DE JUMP JUMPDEST SWAP1 POP SWAP2 SWAP1 POP JUMP JUMPDEST PUSH32 0x53636F72652064652063726564697420696E76616C6964650000000000000000 PUSH0 DUP3 ADD MSTORE POP JUMP JUMPDEST PUSH0 PUSH2 0x3552 PUSH1 0x18 DUP4 PUSH2 0x3192 JUMP JUMPDEST SWAP2 POP PUSH2 0x355D DUP3 PUSH2 0x351E JUMP JUMPDEST PUSH1 0x20 DUP3 ADD SWAP1 POP SWAP2 SWAP1 POP JUMP JUMPDEST PUSH0 PUSH1 0x20 DUP3 ADD SWAP1 POP DUP2 DUP2 SUB PUSH0 DUP4 ADD MSTORE PUSH2 0x357F DUP2 PUSH2 0x3546 JUMP JUMPDEST SWAP1 POP SWAP2 SWAP1 POP JUMP JUMPDEST PUSH0 PUSH1 0x40 DUP3 ADD SWAP1 POP PUSH2 0x3599 PUSH0 DUP4 ADD DUP6 PUSH2 0x2A6A JUMP JUMPDEST PUSH2 0x35A6 PUSH1 0x20 DUP4 ADD DUP5 PUSH2 0x2A6A JUMP JUMPDEST SWAP4 SWAP3 POP POP POP JUMP JUMPDEST PUSH32 0x4D6F6E74616E7420696E76616C69646500000000000000000000000000000000 PUSH0 DUP3 ADD MSTORE POP JUMP JUMPDEST PUSH0 PUSH2 0x35E1 PUSH1 0x10 DUP4 PUSH2 0x3192 JUMP JUMPDEST SWAP2 POP PUSH2 0x35EC DUP3 PUSH2 0x35AD JUMP JUMPDEST PUSH1 0x20 DUP3 ADD SWAP1 POP SWAP2 SWAP1 POP JUMP JUMPDEST PUSH0 PUSH1 0x20 DUP3 ADD SWAP1 POP DUP2 DUP2 SUB PUSH0 DUP4 ADD MSTORE PUSH2 0x360E DUP2 PUSH2 0x35D5 JUMP JUMPDEST SWAP1 POP SWAP2 SWAP1 POP JUMP JUMPDEST PUSH0 PUSH2 0x361F DUP3 PUSH2 0x2A61 JUMP JUMPDEST SWAP2 POP PUSH2 0x362A DUP4 PUSH2 0x2A61 JUMP JUMPDEST SWAP3 POP DUP3 DUP3 ADD SWAP1 POP DUP1 DUP3 GT ISZERO PUSH2 0x3642 JUMPI PUSH2 0x3641 PUSH2 0x32F5 JUMP JUMPDEST JUMPDEST SWAP3 SWAP2 POP POP JUMP JUMPDEST PUSH32 0x436F6C6C61746572616C20696E737566666973616E7420706F75722063657474 PUSH0 DUP3 ADD MSTORE PUSH32 0x6520706F736974696F6E00000000000000000000000000000000000000000000 PUSH1 0x20 DUP3 ADD MSTORE POP JUMP JUMPDEST PUSH0 PUSH2 0x36A2 PUSH1 0x2A DUP4 PUSH2 0x3192 JUMP JUMPDEST SWAP2 POP PUSH2 0x36AD DUP3 PUSH2 0x3648 JUMP JUMPDEST PUSH1 0x40 DUP3 ADD SWAP1 POP SWAP2 SWAP1 POP JUMP JUMPDEST PUSH0 PUSH1 0x20 DUP3 ADD SWAP1 POP DUP2 DUP2 SUB PUSH0 DUP4 ADD MSTORE PUSH2 0x36CF DUP2 PUSH2 0x3696 JUMP JUMPDEST SWAP1 POP SWAP2 SWAP1 POP JUMP JUMPDEST PUSH0 PUSH2 0x36E0 DUP3 PUSH2 0x2A61 JUMP JUMPDEST SWAP2 POP PUSH2 0x36EB DUP4 PUSH2 0x2A61 JUMP JUMPDEST SWAP3 POP DUP3 DUP3 SUB SWAP1 POP DUP2 DUP2 GT ISZERO PUSH2 0x3703 JUMPI PUSH2 0x3702 PUSH2 0x32F5 JUMP JUMPDEST JUMPDEST SWAP3 SWAP2 POP POP JUMP JUMPDEST PUSH32 0x5479706520646520706F736974696F6E20696E76616C6964652C207574696C69 PUSH0 DUP3 ADD MSTORE PUSH32 0x736572204C4F4E47206F752053484F5254000000000000000000000000000000 PUSH1 0x20 DUP3 ADD MSTORE POP JUMP JUMPDEST PUSH0 PUSH2 0x3763 PUSH1 0x31 DUP4 PUSH2 0x3192 JUMP JUMPDEST SWAP2 POP PUSH2 0x376E DUP3 PUSH2 0x3709 JUMP JUMPDEST PUSH1 0x40 DUP3 ADD SWAP1 POP SWAP2 SWAP1 POP JUMP JUMPDEST PUSH0 PUSH1 0x20 DUP3 ADD SWAP1 POP DUP2 DUP2 SUB PUSH0 DUP4 ADD MSTORE PUSH2 0x3790 DUP2 PUSH2 0x3757 JUMP JUMPDEST SWAP1 POP SWAP2 SWAP1 POP JUMP JUMPDEST PUSH0 DUP2 MLOAD SWAP1 POP SWAP2 SWAP1 POP JUMP JUMPDEST PUSH0 DUP2 SWAP1 POP DUP2 PUSH0 MSTORE PUSH1 0x20 PUSH0 KECCAK256 SWAP1 POP SWAP2 SWAP1 POP JUMP JUMPDEST PUSH0 PUSH1 0x20 PUSH1 0x1F DUP4 ADD DIV SWAP1 POP SWAP2 SWAP1 POP JUMP JUMPDEST PUSH0 DUP3 DUP3 SHL SWAP1 POP SWAP3 SWAP2 POP POP JUMP JUMPDEST PUSH0 PUSH1 0x8 DUP4 MUL PUSH2 0x37FD PUSH32 0xFFFFFFFFFFFFFFFFFFFFFFFFFFFFFFFFFFFFFFFFFFFFFFFFFFFFFFFFFFFFFFFF DUP3 PUSH2 0x37C2 JUMP JUMPDEST PUSH2 0x3807 DUP7 DUP4 PUSH2 0x37C2 JUMP JUMPDEST SWAP6 POP DUP1 NOT DUP5 AND SWAP4 POP DUP1 DUP7 AND DUP5 OR SWAP3 POP POP POP SWAP4 SWAP3 POP POP POP JUMP JUMPDEST PUSH0 DUP2 SWAP1 POP SWAP2 SWAP1 POP JUMP JUMPDEST PUSH0 PUSH2 0x3842 PUSH2 0x383D PUSH2 0x3838 DUP5 PUSH2 0x2A61 JUMP JUMPDEST PUSH2 0x381F JUMP JUMPDEST PUSH2 0x2A61 JUMP JUMPDEST SWAP1 POP SWAP2 SWAP1 POP JUMP JUMPDEST PUSH0 DUP2 SWAP1 POP SWAP2 SWAP1 POP JUMP JUMPDEST PUSH2 0x385B DUP4 PUSH2 0x3828 JUMP JUMPDEST PUSH2 0x386F PUSH2 0x3867 DUP3 PUSH2 0x3849 JUMP JUMPDEST DUP5 DUP5 SLOAD PUSH2 0x37CE JUMP JUMPDEST DUP3 SSTORE POP POP POP POP JUMP JUMPDEST PUSH0 SWAP1 JUMP JUMPDEST PUSH2 0x3883 PUSH2 0x3877 JUMP JUMPDEST PUSH2 0x388E DUP2 DUP5 DUP5 PUSH2 0x3852 JUMP JUMPDEST POP POP POP JUMP JUMPDEST JUMPDEST DUP2 DUP2 LT ISZERO PUSH2 0x38B1 JUMPI PUSH2 0x38A6 PUSH0 DUP3 PUSH2 0x387B JUMP JUMPDEST PUSH1 0x1 DUP2 ADD SWAP1 POP PUSH2 0x3894 JUMP JUMPDEST POP POP JUMP JUMPDEST PUSH1 0x1F DUP3 GT ISZERO PUSH2 0x38F6 JUMPI PUSH2 0x38C7 DUP2 PUSH2 0x37A1 JUMP JUMPDEST PUSH2 0x38D0 DUP5 PUSH2 0x37B3 JUMP JUMPDEST DUP2 ADD PUSH1 0x20 DUP6 LT ISZERO PUSH2 0x38DF JUMPI DUP2 SWAP1 POP JUMPDEST PUSH2 0x38F3 PUSH2 0x38EB DUP6 PUSH2 0x37B3 JUMP JUMPDEST DUP4 ADD DUP3 PUSH2 0x3893 JUMP JUMPDEST POP POP JUMPDEST POP POP POP JUMP JUMPDEST PUSH0 DUP3 DUP3 SHR SWAP1 POP SWAP3 SWAP2 POP POP JUMP JUMPDEST PUSH0 PUSH2 0x3916 PUSH0 NOT DUP5 PUSH1 0x8 MUL PUSH2 0x38FB JUMP JUMPDEST NOT DUP1 DUP4 AND SWAP2 POP POP SWAP3 SWAP2 POP POP JUMP JUMPDEST PUSH0 PUSH2 0x392E DUP4 DUP4 PUSH2 0x3907 JUMP JUMPDEST SWAP2 POP DUP3 PUSH1 0x2 MUL DUP3 OR SWAP1 POP SWAP3 SWAP2 POP POP JUMP JUMPDEST PUSH2 0x3947 DUP3 PUSH2 0x3797 JUMP JUMPDEST PUSH8 0xFFFFFFFFFFFFFFFF DUP2 GT ISZERO PUSH2 0x3960 JUMPI PUSH2 0x395F PUSH2 0x2DDD JUMP JUMPDEST JUMPDEST PUSH2 0x396A DUP3 SLOAD PUSH2 0x325D JUMP JUMPDEST PUSH2 0x3975 DUP3 DUP3 DUP6 PUSH2 0x38B5 JUMP JUMPDEST PUSH0 PUSH1 0x20 SWAP1 POP PUSH1 0x1F DUP4 GT PUSH1 0x1 DUP2 EQ PUSH2 0x39A6 JUMPI PUSH0 DUP5 ISZERO PUSH2 0x3994 JUMPI DUP3 DUP8 ADD MLOAD SWAP1 POP JUMPDEST PUSH2 0x399E DUP6 DUP3 PUSH2 0x3923 JUMP JUMPDEST DUP7 SSTORE POP PUSH2 0x3A05 JUMP JUMPDEST PUSH1 0x1F NOT DUP5 AND PUSH2 0x39B4 DUP7 PUSH2 0x37A1 JUMP JUMPDEST PUSH0 JUMPDEST DUP3 DUP2 LT ISZERO PUSH2 0x39DB JUMPI DUP5 DUP10 ADD MLOAD DUP3 SSTORE PUSH1 0x1 DUP3 ADD SWAP2 POP PUSH1 0x20 DUP6 ADD SWAP5 POP PUSH1 0x20 DUP2 ADD SWAP1 POP PUSH2 0x39B6 JUMP JUMPDEST DUP7 DUP4 LT ISZERO PUSH2 0x39F8 JUMPI DUP5 DUP10 ADD MLOAD PUSH2 0x39F4 PUSH1 0x1F DUP10 AND DUP3 PUSH2 0x3907 JUMP JUMPDEST DUP4 SSTORE POP JUMPDEST PUSH1 0x1 PUSH1 0x2 DUP9 MUL ADD DUP9 SSTORE POP POP POP JUMPDEST POP POP POP POP POP POP JUMP JUMPDEST DUP3 DUP2 DUP4 MCOPY PUSH0 DUP4 DUP4 ADD MSTORE POP POP POP JUMP JUMPDEST PUSH0 PUSH2 0x3A25 DUP3 PUSH2 0x3797 JUMP JUMPDEST PUSH2 0x3A2F DUP2 DUP6 PUSH2 0x3192 JUMP JUMPDEST SWAP4 POP PUSH2 0x3A3F DUP2 DUP6 PUSH1 0x20 DUP7 ADD PUSH2 0x3A0D JUMP JUMPDEST PUSH2 0x3A48 DUP2 PUSH2 0x2DCD JUMP JUMPDEST DUP5 ADD SWAP2 POP POP SWAP3 SWAP2 POP POP JUMP JUMPDEST PUSH0 PUSH1 0x60 DUP3 ADD SWAP1 POP PUSH2 0x3A66 PUSH0 DUP4 ADD DUP7 PUSH2 0x2A6A JUMP JUMPDEST DUP2 DUP2 SUB PUSH1 0x20 DUP4 ADD MSTORE PUSH2 0x3A78 DUP2 DUP6 PUSH2 0x3A1B JUMP JUMPDEST SWAP1 POP PUSH2 0x3A87 PUSH1 0x40 DUP4 ADD DUP5 PUSH2 0x2A6A JUMP JUMPDEST SWAP5 SWAP4 POP POP POP POP JUMP JUMPDEST PUSH32 0x476172616E74696520696E76616C696465000000000000000000000000000000 PUSH0 DUP3 ADD MSTORE POP JUMP JUMPDEST PUSH0 PUSH2 0x3AC3 PUSH1 0x11 DUP4 PUSH2 0x3192 JUMP JUMPDEST SWAP2 POP PUSH2 0x3ACE DUP3 PUSH2 0x3A8F JUMP JUMPDEST PUSH1 0x20 DUP3 ADD SWAP1 POP SWAP2 SWAP1 POP JUMP JUMPDEST PUSH0 PUSH1 0x20 DUP3 ADD SWAP1 POP DUP2 DUP2 SUB PUSH0 DUP4 ADD MSTORE PUSH2 0x3AF0 DUP2 PUSH2 0x3AB7 JUMP JUMPDEST SWAP1 POP SWAP2 SWAP1 POP JUMP JUMPDEST PUSH32 0x506172616D657472657320696E76616C69646573000000000000000000000000 PUSH0 DUP3 ADD MSTORE POP JUMP JUMPDEST PUSH0 PUSH2 0x3B2B PUSH1 0x14 DUP4 PUSH2 0x3192 JUMP JUMPDEST SWAP2 POP PUSH2 0x3B36 DUP3 PUSH2 0x3AF7 JUMP JUMPDEST PUSH1 0x20 DUP3 ADD SWAP1 POP SWAP2 SWAP1 POP JUMP JUMPDEST PUSH0 PUSH1 0x20 DUP3 ADD SWAP1 POP DUP2 DUP2 SUB PUSH0 DUP4 ADD MSTORE PUSH2 0x3B58 DUP2 PUSH2 0x3B1F JUMP JUMPDEST SWAP1 POP SWAP2 SWAP1 POP JUMP JUMPDEST PUSH32 0x416472657373652072656365707465757220696E76616C696465000000000000 PUSH0 DUP3 ADD MSTORE POP JUMP JUMPDEST PUSH0 PUSH2 0x3B93 PUSH1 0x1A DUP4 PUSH2 0x3192 JUMP JUMPDEST SWAP2 POP PUSH2 0x3B9E DUP3 PUSH2 0x3B5F JUMP JUMPDEST PUSH1 0x20 DUP3 ADD SWAP1 POP SWAP2 SWAP1 POP JUMP JUMPDEST PUSH0 PUSH1 0x20 DUP3 ADD SWAP1 POP DUP2 DUP2 SUB PUSH0 DUP4 ADD MSTORE PUSH2 0x3BC0 DUP2 PUSH2 0x3B87 JUMP JUMPDEST SWAP1 POP SWAP2 SWAP1 POP JUMP JUMPDEST PUSH32 0x536F6C646520696E737566666973616E742064616E73206C6520636F6E747261 PUSH0 DUP3 ADD MSTORE PUSH32 0x7400000000000000000000000000000000000000000000000000000000000000 PUSH1 0x20 DUP3 ADD MSTORE POP JUMP JUMPDEST PUSH0 PUSH2 0x3C21 PUSH1 0x21 DUP4 PUSH2 0x3192 JUMP JUMPDEST SWAP2 POP PUSH2 0x3C2C DUP3 PUSH2 0x3BC7 JUMP JUMPDEST PUSH1 0x40 DUP3 ADD SWAP1 POP SWAP2 SWAP1 POP JUMP JUMPDEST PUSH0 PUSH1 0x20 DUP3 ADD SWAP1 POP DUP2 DUP2 SUB PUSH0 DUP4 ADD MSTORE PUSH2 0x3C4E DUP2 PUSH2 0x3C15 JUMP JUMPDEST SWAP1 POP SWAP2 SWAP1 POP JUMP JUMPDEST PUSH0 DUP2 SWAP1 POP SWAP3 SWAP2 POP POP JUMP JUMPDEST POP JUMP JUMPDEST PUSH0 PUSH2 0x3C6D PUSH0 DUP4 PUSH2 0x3C55 JUMP JUMPDEST SWAP2 POP PUSH2 0x3C78 DUP3 PUSH2 0x3C5F JUMP JUMPDEST PUSH0 DUP3 ADD SWAP1 POP SWAP2 SWAP1 POP JUMP JUMPDEST PUSH0 PUSH2 0x3C8C DUP3 PUSH2 0x3C62 JUMP JUMPDEST SWAP2 POP DUP2 SWAP1 POP SWAP2 SWAP1 POP JUMP JUMPDEST PUSH32 0x5472616E7366657274206563686F756500000000000000000000000000000000 PUSH0 DUP3 ADD MSTORE POP JUMP JUMPDEST PUSH0 PUSH2 0x3CCA PUSH1 0x10 DUP4 PUSH2 0x3192 JUMP JUMPDEST SWAP2 POP PUSH2 0x3CD5 DUP3 PUSH2 0x3C96 JUMP JUMPDEST PUSH1 0x20 DUP3 ADD SWAP1 POP SWAP2 SWAP1 POP JUMP JUMPDEST PUSH0 PUSH1 0x20 DUP3 ADD SWAP1 POP DUP2 DUP2 SUB PUSH0 DUP4 ADD MSTORE PUSH2 0x3CF7 DUP2 PUSH2 0x3CBE JUMP JUMPDEST SWAP1 POP SWAP2 SWAP1 POP JUMP JUMPDEST PUSH32 0x4E487B7100000000000000000000000000000000000000000000000000000000 PUSH0 MSTORE PUSH1 0x32 PUSH1 0x4 MSTORE PUSH1 0x24 PUSH0 REVERT JUMPDEST PUSH0 PUSH2 0x3D35 DUP3 PUSH2 0x2C20 JUMP JUMPDEST SWAP2 POP PUSH2 0x3D40 DUP4 PUSH2 0x2C20 JUMP JUMPDEST SWAP3 POP DUP3 DUP3 ADD SWAP1 POP DUP3 DUP2 SLT ISZERO PUSH0 DUP4 SLT AND DUP4 DUP3 SLT PUSH0 DUP5 SLT ISZERO AND OR ISZERO PUSH2 0x3D66 JUMPI PUSH2 0x3D65 PUSH2 0x32F5 JUMP JUMPDEST JUMPDEST SWAP3 SWAP2 POP POP JUMP JUMPDEST PUSH0 PUSH2 0x3D76 DUP3 PUSH2 0x2C20 JUMP JUMPDEST SWAP2 POP PUSH2 0x3D81 DUP4 PUSH2 0x2C20 JUMP JUMPDEST SWAP3 POP DUP3 DUP3 SUB SWAP1 POP DUP2 DUP2 SLT PUSH0 DUP5 SLT AND DUP3 DUP3 SGT PUSH0 DUP6 SLT ISZERO AND OR ISZERO PUSH2 0x3DA6 JUMPI PUSH2 0x3DA5 PUSH2 0x32F5 JUMP JUMPDEST JUMPDEST SWAP3 SWAP2 POP POP JUMP JUMPDEST PUSH32 0x56616C65757220696E76616C6964650000000000000000000000000000000000 PUSH0 DUP3 ADD MSTORE POP JUMP JUMPDEST PUSH0 PUSH2 0x3DE0 PUSH1 0xF DUP4 PUSH2 0x3192 JUMP JUMPDEST SWAP2 POP PUSH2 0x3DEB DUP3 PUSH2 0x3DAC JUMP JUMPDEST PUSH1 0x20 DUP3 ADD SWAP1 POP SWAP2 SWAP1 POP JUMP JUMPDEST PUSH0 PUSH1 0x20 DUP3 ADD SWAP1 POP DUP2 DUP2 SUB PUSH0 DUP4 ADD MSTORE PUSH2 0x3E0D DUP2 PUSH2 0x3DD4 JUMP JUMPDEST SWAP1 POP SWAP2 SWAP1 POP JUMP JUMPDEST PUSH0 PUSH1 0x40 DUP3 ADD SWAP1 POP PUSH2 0x3E27 PUSH0 DUP4 ADD DUP6 PUSH2 0x2D73 JUMP JUMPDEST PUSH2 0x3E34 PUSH1 0x20 DUP4 ADD DUP5 PUSH2 0x2A6A JUMP JUMPDEST SWAP4 SWAP3 POP POP POP JUMP JUMPDEST PUSH32 0x4C6520726174696F20646F697420657472652073757065726965757220612031 PUSH0 DUP3 ADD MSTORE PUSH32 0x3030250000000000000000000000000000000000000000000000000000000000 PUSH1 0x20 DUP3 ADD MSTORE POP JUMP JUMPDEST PUSH0 PUSH2 0x3E95 PUSH1 0x23 DUP4 PUSH2 0x3192 JUMP JUMPDEST SWAP2 POP PUSH2 0x3EA0 DUP3 PUSH2 0x3E3B JUMP JUMPDEST PUSH1 0x40 DUP3 ADD SWAP1 POP SWAP2 SWAP1 POP JUMP JUMPDEST PUSH0 PUSH1 0x20 DUP3 ADD SWAP1 POP DUP2 DUP2 SUB PUSH0 DUP4 ADD MSTORE PUSH2 0x3EC2 DUP2 PUSH2 0x3E89 JUMP JUMPDEST SWAP1 POP SWAP2 SWAP1 POP JUMP JUMPDEST PUSH32 0x476172616E74696520696E737566666973616E74650000000000000000000000 PUSH0 DUP3 ADD MSTORE POP JUMP JUMPDEST PUSH0 PUSH2 0x3EFD PUSH1 0x15 DUP4 PUSH2 0x3192 JUMP JUMPDEST SWAP2 POP PUSH2 0x3F08 DUP3 PUSH2 0x3EC9 JUMP JUMPDEST PUSH1 0x20 DUP3 ADD SWAP1 POP SWAP2 SWAP1 POP JUMP JUMPDEST PUSH0 PUSH1 0x40 DUP3 ADD SWAP1 POP DUP2 DUP2 SUB PUSH0 DUP4 ADD MSTORE PUSH2 0x3F2A DUP2 PUSH2 0x3EF1 JUMP JUMPDEST SWAP1 POP PUSH2 0x3F39 PUSH1 0x20 DUP4 ADD DUP5 PUSH2 0x2A6A JUMP JUMPDEST SWAP3 SWAP2 POP POP JUMP JUMPDEST PUSH32 0x52697371756520656C6576650000000000000000000000000000000000000000 PUSH0 DUP3 ADD MSTORE POP JUMP JUMPDEST PUSH0 PUSH2 0x3F73 PUSH1 0xC DUP4 PUSH2 0x3192 JUMP JUMPDEST SWAP2 POP PUSH2 0x3F7E DUP3 PUSH2 0x3F3F JUMP JUMPDEST PUSH1 0x20 DUP3 ADD SWAP1 POP SWAP2 SWAP1 POP JUMP JUMPDEST PUSH0 PUSH1 0x40 DUP3 ADD SWAP1 POP DUP2 DUP2 SUB PUSH0 DUP4 ADD MSTORE PUSH2 0x3FA0 DUP2 PUSH2 0x3F67 JUMP JUMPDEST SWAP1 POP PUSH2 0x3FAF PUSH1 0x20 DUP4 ADD DUP5 PUSH2 0x2A6A JUMP JUMPDEST SWAP3 SWAP2 POP POP JUMP INVALID LOG2 PUSH5 0x6970667358 0x22 SLT KECCAK256 0xB9 PUSH30 0x91BD04E1DB54F709A9FFB841D03C8EE3FAB71664171EB713F917C6340DA9 PUSH5 0x736F6C6343 STOP ADDMOD BYTE STOP CALLER "
				},
				"gasEstimates": {
					"creation": {
						"codeDepositCost": "3272600",
						"executionCost": "50004",
						"totalCost": "3322604"
					},
					"external": {
						"actualiserGarantie(address,uint256)": "infinite",
						"admin()": "2615",
						"ajouterCollateral(address,uint256)": "infinite",
						"ajouterContrepartie(address,uint256,uint256,uint256)": "infinite",
						"ajouterPosition(address,uint256,string)": "infinite",
						"calculerExpositionNette(address)": "infinite",
						"calculerRatioCouverture(address)": "infinite",
						"calculerRatioGarantie(address)": "infinite",
						"calculerRisque(address)": "infinite",
						"contreparties(address)": "infinite",
						"enregistrerTransaction(address,int256)": "infinite",
						"envoyerFonds(address,uint256)": "infinite",
						"getListeContreparties()": "infinite",
						"historiqueTransactions(uint256)": "infinite",
						"listeContreparties(uint256)": "5055",
						"modifierRatioDeCouverture(uint256)": "24792",
						"obtenirHistoriqueTransactions()": "infinite",
						"ratioDeCouverture()": "2514",
						"relationsExposition(address,address)": "infinite"
					},
					"internal": {
						"verifierDepassements(address)": "infinite",
						"verifierLimites(address)": "infinite"
					}
				},
				"methodIdentifiers": {
					"actualiserGarantie(address,uint256)": "7228587e",
					"admin()": "f851a440",
					"ajouterCollateral(address,uint256)": "52ea5692",
					"ajouterContrepartie(address,uint256,uint256,uint256)": "1411ae6f",
					"ajouterPosition(address,uint256,string)": "4dd54c2a",
					"calculerExpositionNette(address)": "b05a5cfb",
					"calculerRatioCouverture(address)": "0aae162e",
					"calculerRatioGarantie(address)": "2fcc5184",
					"calculerRisque(address)": "8e068eb0",
					"contreparties(address)": "760b1eee",
					"enregistrerTransaction(address,int256)": "d1b6b478",
					"envoyerFonds(address,uint256)": "932ab445",
					"getListeContreparties()": "25836bc8",
					"historiqueTransactions(uint256)": "397c4727",
					"listeContreparties(uint256)": "561a9927",
					"modifierRatioDeCouverture(uint256)": "e4d2d96e",
					"obtenirHistoriqueTransactions()": "3916bb2b",
					"ratioDeCouverture()": "85381211",
					"relationsExposition(address,address)": "57cab90a"
				}
			},
			"storageLayout": {
				"storage": [
					{
						"astId": 42,
						"contract": "gest.ris2.sol:GestionnaireRisqueContrepartie",
						"label": "admin",
						"offset": 0,
						"slot": "0",
						"type": "t_address"
					},
					{
						"astId": 45,
						"contract": "gest.ris2.sol:GestionnaireRisqueContrepartie",
						"label": "ratioDeCouverture",
						"offset": 0,
						"slot": "1",
						"type": "t_uint256"
					},
					{
						"astId": 50,
						"contract": "gest.ris2.sol:GestionnaireRisqueContrepartie",
						"label": "contreparties",
						"offset": 0,
						"slot": "2",
						"type": "t_mapping(t_address,t_struct(Contrepartie)31_storage)"
					},
					{
						"astId": 53,
						"contract": "gest.ris2.sol:GestionnaireRisqueContrepartie",
						"label": "listeContreparties",
						"offset": 0,
						"slot": "3",
						"type": "t_array(t_address)dyn_storage"
					},
					{
						"astId": 59,
						"contract": "gest.ris2.sol:GestionnaireRisqueContrepartie",
						"label": "relationsExposition",
						"offset": 0,
						"slot": "4",
						"type": "t_mapping(t_address,t_mapping(t_address,t_int256))"
					},
					{
						"astId": 63,
						"contract": "gest.ris2.sol:GestionnaireRisqueContrepartie",
						"label": "historiqueTransactions",
						"offset": 0,
						"slot": "5",
						"type": "t_array(t_struct(EnregistrementTransaction)40_storage)dyn_storage"
					}
				],
				"types": {
					"t_address": {
						"encoding": "inplace",
						"label": "address",
						"numberOfBytes": "20"
					},
					"t_array(t_address)dyn_storage": {
						"base": "t_address",
						"encoding": "dynamic_array",
						"label": "address[]",
						"numberOfBytes": "32"
					},
					"t_array(t_struct(EnregistrementTransaction)40_storage)dyn_storage": {
						"base": "t_struct(EnregistrementTransaction)40_storage",
						"encoding": "dynamic_array",
						"label": "struct GestionnaireRisqueContrepartie.EnregistrementTransaction[]",
						"numberOfBytes": "32"
					},
					"t_array(t_struct(Position)10_storage)dyn_storage": {
						"base": "t_struct(Position)10_storage",
						"encoding": "dynamic_array",
						"label": "struct GestionnaireRisqueContrepartie.Position[]",
						"numberOfBytes": "32"
					},
					"t_bool": {
						"encoding": "inplace",
						"label": "bool",
						"numberOfBytes": "1"
					},
					"t_int256": {
						"encoding": "inplace",
						"label": "int256",
						"numberOfBytes": "32"
					},
					"t_mapping(t_address,t_int256)": {
						"encoding": "mapping",
						"key": "t_address",
						"label": "mapping(address => int256)",
						"numberOfBytes": "32",
						"value": "t_int256"
					},
					"t_mapping(t_address,t_mapping(t_address,t_int256))": {
						"encoding": "mapping",
						"key": "t_address",
						"label": "mapping(address => mapping(address => int256))",
						"numberOfBytes": "32",
						"value": "t_mapping(t_address,t_int256)"
					},
					"t_mapping(t_address,t_struct(Contrepartie)31_storage)": {
						"encoding": "mapping",
						"key": "t_address",
						"label": "mapping(address => struct GestionnaireRisqueContrepartie.Contrepartie)",
						"numberOfBytes": "32",
						"value": "t_struct(Contrepartie)31_storage"
					},
					"t_string_storage": {
						"encoding": "bytes",
						"label": "string",
						"numberOfBytes": "32"
					},
					"t_struct(Contrepartie)31_storage": {
						"encoding": "inplace",
						"label": "struct GestionnaireRisqueContrepartie.Contrepartie",
						"members": [
							{
								"astId": 12,
								"contract": "gest.ris2.sol:GestionnaireRisqueContrepartie",
								"label": "portefeuille",
								"offset": 0,
								"slot": "0",
								"type": "t_address"
							},
							{
								"astId": 14,
								"contract": "gest.ris2.sol:GestionnaireRisqueContrepartie",
								"label": "scoreCredit",
								"offset": 0,
								"slot": "1",
								"type": "t_uint256"
							},
							{
								"astId": 16,
								"contract": "gest.ris2.sol:GestionnaireRisqueContrepartie",
								"label": "limiteExposition",
								"offset": 0,
								"slot": "2",
								"type": "t_uint256"
							},
							{
								"astId": 18,
								"contract": "gest.ris2.sol:GestionnaireRisqueContrepartie",
								"label": "expositionCourante",
								"offset": 0,
								"slot": "3",
								"type": "t_uint256"
							},
							{
								"astId": 20,
								"contract": "gest.ris2.sol:GestionnaireRisqueContrepartie",
								"label": "collateral",
								"offset": 0,
								"slot": "4",
								"type": "t_uint256"
							},
							{
								"astId": 24,
								"contract": "gest.ris2.sol:GestionnaireRisqueContrepartie",
								"label": "historiquePositions",
								"offset": 0,
								"slot": "5",
								"type": "t_array(t_struct(Position)10_storage)dyn_storage"
							},
							{
								"astId": 26,
								"contract": "gest.ris2.sol:GestionnaireRisqueContrepartie",
								"label": "estActif",
								"offset": 0,
								"slot": "6",
								"type": "t_bool"
							},
							{
								"astId": 28,
								"contract": "gest.ris2.sol:GestionnaireRisqueContrepartie",
								"label": "penalites",
								"offset": 0,
								"slot": "7",
								"type": "t_uint256"
							},
							{
								"astId": 30,
								"contract": "gest.ris2.sol:GestionnaireRisqueContrepartie",
								"label": "garantie",
								"offset": 0,
								"slot": "8",
								"type": "t_uint256"
							}
						],
						"numberOfBytes": "288"
					},
					"t_struct(EnregistrementTransaction)40_storage": {
						"encoding": "inplace",
						"label": "struct GestionnaireRisqueContrepartie.EnregistrementTransaction",
						"members": [
							{
								"astId": 33,
								"contract": "gest.ris2.sol:GestionnaireRisqueContrepartie",
								"label": "expediteur",
								"offset": 0,
								"slot": "0",
								"type": "t_address"
							},
							{
								"astId": 35,
								"contract": "gest.ris2.sol:GestionnaireRisqueContrepartie",
								"label": "recepteur",
								"offset": 0,
								"slot": "1",
								"type": "t_address"
							},
							{
								"astId": 37,
								"contract": "gest.ris2.sol:GestionnaireRisqueContrepartie",
								"label": "valeur",
								"offset": 0,
								"slot": "2",
								"type": "t_int256"
							},
							{
								"astId": 39,
								"contract": "gest.ris2.sol:GestionnaireRisqueContrepartie",
								"label": "horodatage",
								"offset": 0,
								"slot": "3",
								"type": "t_uint256"
							}
						],
						"numberOfBytes": "128"
					},
					"t_struct(Position)10_storage": {
						"encoding": "inplace",
						"label": "struct GestionnaireRisqueContrepartie.Position",
						"members": [
							{
								"astId": 3,
								"contract": "gest.ris2.sol:GestionnaireRisqueContrepartie",
								"label": "montant",
								"offset": 0,
								"slot": "0",
								"type": "t_uint256"
							},
							{
								"astId": 5,
								"contract": "gest.ris2.sol:GestionnaireRisqueContrepartie",
								"label": "typePosition",
								"offset": 0,
								"slot": "1",
								"type": "t_string_storage"
							},
							{
								"astId": 7,
								"contract": "gest.ris2.sol:GestionnaireRisqueContrepartie",
								"label": "timestamp",
								"offset": 0,
								"slot": "2",
								"type": "t_uint256"
							},
							{
								"astId": 9,
								"contract": "gest.ris2.sol:GestionnaireRisqueContrepartie",
								"label": "collateralExige",
								"offset": 0,
								"slot": "3",
								"type": "t_uint256"
							}
						],
						"numberOfBytes": "128"
					},
					"t_uint256": {
						"encoding": "inplace",
						"label": "uint256",
						"numberOfBytes": "32"
					}
				}
			},
			"userdoc": {
				"kind": "user",
				"methods": {},
				"version": 1
			}
		}
	}
}