{
	"data": {
		"bytecode": {
			"linkReferences": {},
			"object": "608060405260786003553480156013575f80fd5b503360025f6101000a81548173ffffffffffffffffffffffffffffffffffffffff021916908373ffffffffffffffffffffffffffffffffffffffff1602179055506124b1806100615f395ff3fe608060405234801561000f575f80fd5b50600436106100a7575f3560e01c8063561a99271161006f578063561a99271461014d578063760b1eee1461017d57806385381211146101b3578063b05a5cfb146101d1578063e4d2d96e14610201578063f851a4401461021d576100a7565b80630aae162e146100ab5780631411ae6f146100db57806325836bc8146100f75780634dd54c2a1461011557806352ea569214610131575b5f80fd5b6100c560048036038101906100c09190611590565b61023b565b6040516100d291906115d3565b60405180910390f35b6100f560048036038101906100f09190611616565b61052b565b005b6100ff610883565b60405161010c9190611731565b60405180910390f35b61012f600480360381019061012a919061188d565b61090e565b005b61014b600480360381019061014691906118f9565b610ce0565b005b61016760048036038101906101629190611937565b610e9c565b6040516101749190611971565b60405180910390f35b61019760048036038101906101929190611590565b610ed7565b6040516101aa97969594939291906119a4565b60405180910390f35b6101bb610f3f565b6040516101c891906115d3565b60405180910390f35b6101eb60048036038101906101e69190611590565b610f45565b6040516101f89190611a29565b60405180910390f35b61021b60048036038101906102169190611937565b61126c565b005b610225611348565b6040516102329190611971565b60405180910390f35b5f815f808273ffffffffffffffffffffffffffffffffffffffff1673ffffffffffffffffffffffffffffffffffffffff1681526020019081526020015f206006015f9054906101000a900460ff166102c8576040517f08c379a00000000000000000000000000000000000000000000000000000000081526004016102bf90611ac2565b60405180910390fd5b5f805f8573ffffffffffffffffffffffffffffffffffffffff1673ffffffffffffffffffffffffffffffffffffffff1681526020019081526020015f20604051806101000160405290815f82015f9054906101000a900473ffffffffffffffffffffffffffffffffffffffff1673ffffffffffffffffffffffffffffffffffffffff1673ffffffffffffffffffffffffffffffffffffffff1681526020016001820154815260200160028201548152602001600382015481526020016004820154815260200160058201805480602002602001604051908101604052809291908181526020015f905b8282101561048e578382905f5260205f2090600402016040518060800160405290815f82015481526020016001820180546103eb90611b0d565b80601f016020809104026020016040519081016040528092919081815260200182805461041790611b0d565b80156104625780601f1061043957610100808354040283529160200191610462565b820191905f5260205f20905b81548152906001019060200180831161044557829003601f168201915b5050505050815260200160028201548152602001600382015481525050815260200190600101906103b1565b505050508152602001600682015f9054906101000a900460ff1615151515815260200160078201548152505090505f816060015111610502576040517f08c379a00000000000000000000000000000000000000000000000000000000081526004016104f990611b87565b60405180910390fd5b8060600151606482608001516105189190611bd2565b6105229190611c40565b92505050919050565b60025f9054906101000a900473ffffffffffffffffffffffffffffffffffffffff1673ffffffffffffffffffffffffffffffffffffffff163373ffffffffffffffffffffffffffffffffffffffff16146105ba576040517f08c379a00000000000000000000000000000000000000000000000000000000081526004016105b190611ce0565b60405180910390fd5b5f73ffffffffffffffffffffffffffffffffffffffff168473ffffffffffffffffffffffffffffffffffffffff1603610628576040517f08c379a000000000000000000000000000000000000000000000000000000000815260040161061f90611d48565b60405180910390fd5b5f808573ffffffffffffffffffffffffffffffffffffffff1673ffffffffffffffffffffffffffffffffffffffff1681526020019081526020015f206006015f9054906101000a900460ff16156106b4576040517f08c379a00000000000000000000000000000000000000000000000000000000081526004016106ab90611db0565b60405180910390fd5b5f831180156106c4575060648311155b610703576040517f08c379a00000000000000000000000000000000000000000000000000000000081526004016106fa90611e18565b60405180910390fd5b5f805f8673ffffffffffffffffffffffffffffffffffffffff1673ffffffffffffffffffffffffffffffffffffffff1681526020019081526020015f20905084815f015f6101000a81548173ffffffffffffffffffffffffffffffffffffffff021916908373ffffffffffffffffffffffffffffffffffffffff1602179055508381600101819055508281600201819055505f81600301819055508181600401819055506001816006015f6101000a81548160ff0219169083151502179055505f8160070181905550600185908060018154018082558091505060019003905f5260205f20015f9091909190916101000a81548173ffffffffffffffffffffffffffffffffffffffff021916908373ffffffffffffffffffffffffffffffffffffffff1602179055508473ffffffffffffffffffffffffffffffffffffffff167fd3f5388c2257f37d0083b7a1edcc31b560eda57385dcd90c8429a7fb803839108484604051610874929190611e36565b60405180910390a25050505050565b6060600180548060200260200160405190810160405280929190818152602001828054801561090457602002820191905f5260205f20905b815f9054906101000a900473ffffffffffffffffffffffffffffffffffffffff1673ffffffffffffffffffffffffffffffffffffffff16815260200190600101908083116108bb575b5050505050905090565b60025f9054906101000a900473ffffffffffffffffffffffffffffffffffffffff1673ffffffffffffffffffffffffffffffffffffffff163373ffffffffffffffffffffffffffffffffffffffff161461099d576040517f08c379a000000000000000000000000000000000000000000000000000000000815260040161099490611ce0565b60405180910390fd5b825f808273ffffffffffffffffffffffffffffffffffffffff1673ffffffffffffffffffffffffffffffffffffffff1681526020019081526020015f206006015f9054906101000a900460ff16610a29576040517f08c379a0000000000000000000000000000000000000000000000000000000008152600401610a2090611ac2565b60405180910390fd5b5f8311610a6b576040517f08c379a0000000000000000000000000000000000000000000000000000000008152600401610a6290611ea7565b60405180910390fd5b5f805f8673ffffffffffffffffffffffffffffffffffffffff1673ffffffffffffffffffffffffffffffffffffffff1681526020019081526020015f2090505f7f26207b3d79cb8a2f4d7984d34034720f053ed770a9f512147f4ea54e18ede2c3848051906020012003610af85784826003015f828254610aec9190611ec5565b92505081905550610bfe565b7f67f2240dbdc5a5a1bba6ef58dd6499d8bcf8da14a71dffeedddc7956475ebac4848051906020012003610bc257606460035486610b369190611bd2565b610b409190611c40565b90508082600401541015610b89576040517f08c379a0000000000000000000000000000000000000000000000000000000008152600401610b8090611f68565b60405180910390fd5b80826004015f828254610b9c9190611f86565b9250508190555084826003015f828254610bb69190611f86565b92505081905550610bfd565b6040517f08c379a0000000000000000000000000000000000000000000000000000000008152600401610bf490612029565b60405180910390fd5b5b81600501604051806080016040528087815260200186815260200142815260200183815250908060018154018082558091505060019003905f5260205f2090600402015f909190919091505f820151815f01556020820151816001019081610c6691906121ee565b5060408201518160020155606082015181600301555050610c868661136d565b8573ffffffffffffffffffffffffffffffffffffffff167f335d38fdb9fd6bf0d6a0ab22792f89a84a8f85f129736cccfc37fc757ba27705868684604051610cd093929190612303565b60405180910390a2505050505050565b60025f9054906101000a900473ffffffffffffffffffffffffffffffffffffffff1673ffffffffffffffffffffffffffffffffffffffff163373ffffffffffffffffffffffffffffffffffffffff1614610d6f576040517f08c379a0000000000000000000000000000000000000000000000000000000008152600401610d6690611ce0565b60405180910390fd5b815f808273ffffffffffffffffffffffffffffffffffffffff1673ffffffffffffffffffffffffffffffffffffffff1681526020019081526020015f206006015f9054906101000a900460ff16610dfb576040517f08c379a0000000000000000000000000000000000000000000000000000000008152600401610df290611ac2565b60405180910390fd5b5f8211610e3d576040517f08c379a0000000000000000000000000000000000000000000000000000000008152600401610e3490611ea7565b60405180910390fd5b5f805f8573ffffffffffffffffffffffffffffffffffffffff1673ffffffffffffffffffffffffffffffffffffffff1681526020019081526020015f20905082816004015f828254610e8f9190611ec5565b9250508190555050505050565b60018181548110610eab575f80fd5b905f5260205f20015f915054906101000a900473ffffffffffffffffffffffffffffffffffffffff1681565b5f602052805f5260405f205f91509050805f015f9054906101000a900473ffffffffffffffffffffffffffffffffffffffff1690806001015490806002015490806003015490806004015490806006015f9054906101000a900460ff16908060070154905087565b60035481565b5f815f808273ffffffffffffffffffffffffffffffffffffffff1673ffffffffffffffffffffffffffffffffffffffff1681526020019081526020015f206006015f9054906101000a900460ff16610fd2576040517f08c379a0000000000000000000000000000000000000000000000000000000008152600401610fc990611ac2565b60405180910390fd5b5f805f8573ffffffffffffffffffffffffffffffffffffffff1673ffffffffffffffffffffffffffffffffffffffff1681526020019081526020015f20604051806101000160405290815f82015f9054906101000a900473ffffffffffffffffffffffffffffffffffffffff1673ffffffffffffffffffffffffffffffffffffffff1673ffffffffffffffffffffffffffffffffffffffff1681526020016001820154815260200160028201548152602001600382015481526020016004820154815260200160058201805480602002602001604051908101604052809291908181526020015f905b82821015611198578382905f5260205f2090600402016040518060800160405290815f82015481526020016001820180546110f590611b0d565b80601f016020809104026020016040519081016040528092919081815260200182805461112190611b0d565b801561116c5780601f106111435761010080835404028352916020019161116c565b820191905f5260205f20905b81548152906001019060200180831161114f57829003601f168201915b5050505050815260200160028201548152602001600382015481525050815260200190600101906110bb565b505050508152602001600682015f9054906101000a900460ff1615151515815260200160078201548152505090505f805b8260a0015151811015611260575f8360a0015182815181106111ee576111ed61233f565b5b602002602001015190507f26207b3d79cb8a2f4d7984d34034720f053ed770a9f512147f4ea54e18ede2c38160200151805190602001200361124057805f015183611239919061236c565b9250611252565b805f01518361124f91906123ad565b92505b5080806001019150506111c9565b50809350505050919050565b60025f9054906101000a900473ffffffffffffffffffffffffffffffffffffffff1673ffffffffffffffffffffffffffffffffffffffff163373ffffffffffffffffffffffffffffffffffffffff16146112fb576040517f08c379a00000000000000000000000000000000000000000000000000000000081526004016112f290611ce0565b60405180910390fd5b6064811161133e576040517f08c379a00000000000000000000000000000000000000000000000000000000081526004016113359061245d565b60405180910390fd5b8060038190555050565b60025f9054906101000a900473ffffffffffffffffffffffffffffffffffffffff1681565b5f805f8373ffffffffffffffffffffffffffffffffffffffff1673ffffffffffffffffffffffffffffffffffffffff1681526020019081526020015f2090508060020154816003015411156114bc578173ffffffffffffffffffffffffffffffffffffffff167f9a2dd2b852c39cdc36ebfa2bc55459f64fd51881ebfde683d37a31595c27da488260030154836002015460405161140c929190611e36565b60405180910390a25f600a8260020154836003015461142b9190611f86565b6114359190611bd2565b905080826007015f82825461144a9190611ec5565b925050819055508273ffffffffffffffffffffffffffffffffffffffff167fa7efd79f8b4f74475645bb98022d7135feab57d5b96cb33512477b288e3ff9c38260405161149791906115d3565b60405180910390a25f826006015f6101000a81548160ff021916908315150217905550505b5f6114c68361023b565b90506064811015611520578273ffffffffffffffffffffffffffffffffffffffff167f674fc74c826dbec5edeac8ecdfd4401967af353ce41c4918c79ebea80e27c3678260405161151791906115d3565b60405180910390a25b505050565b5f604051905090565b5f80fd5b5f80fd5b5f73ffffffffffffffffffffffffffffffffffffffff82169050919050565b5f61155f82611536565b9050919050565b61156f81611555565b8114611579575f80fd5b50565b5f8135905061158a81611566565b92915050565b5f602082840312156115a5576115a461152e565b5b5f6115b28482850161157c565b91505092915050565b5f819050919050565b6115cd816115bb565b82525050565b5f6020820190506115e65f8301846115c4565b92915050565b6115f5816115bb565b81146115ff575f80fd5b50565b5f81359050611610816115ec565b92915050565b5f805f806080858703121561162e5761162d61152e565b5b5f61163b8782880161157c565b945050602061164c87828801611602565b935050604061165d87828801611602565b925050606061166e87828801611602565b91505092959194509250565b5f81519050919050565b5f82825260208201905092915050565b5f819050602082019050919050565b6116ac81611555565b82525050565b5f6116bd83836116a3565b60208301905092915050565b5f602082019050919050565b5f6116df8261167a565b6116e98185611684565b93506116f483611694565b805f5b8381101561172457815161170b88826116b2565b9750611716836116c9565b9250506001810190506116f7565b5085935050505092915050565b5f6020820190508181035f83015261174981846116d5565b905092915050565b5f80fd5b5f80fd5b5f601f19601f8301169050919050565b7f4e487b71000000000000000000000000000000000000000000000000000000005f52604160045260245ffd5b61179f82611759565b810181811067ffffffffffffffff821117156117be576117bd611769565b5b80604052505050565b5f6117d0611525565b90506117dc8282611796565b919050565b5f67ffffffffffffffff8211156117fb576117fa611769565b5b61180482611759565b9050602081019050919050565b828183375f83830152505050565b5f61183161182c846117e1565b6117c7565b90508281526020810184848401111561184d5761184c611755565b5b611858848285611811565b509392505050565b5f82601f83011261187457611873611751565b5b813561188484826020860161181f565b91505092915050565b5f805f606084860312156118a4576118a361152e565b5b5f6118b18682870161157c565b93505060206118c286828701611602565b925050604084013567ffffffffffffffff8111156118e3576118e2611532565b5b6118ef86828701611860565b9150509250925092565b5f806040838503121561190f5761190e61152e565b5b5f61191c8582860161157c565b925050602061192d85828601611602565b9150509250929050565b5f6020828403121561194c5761194b61152e565b5b5f61195984828501611602565b91505092915050565b61196b81611555565b82525050565b5f6020820190506119845f830184611962565b92915050565b5f8115159050919050565b61199e8161198a565b82525050565b5f60e0820190506119b75f83018a611962565b6119c460208301896115c4565b6119d160408301886115c4565b6119de60608301876115c4565b6119eb60808301866115c4565b6119f860a0830185611995565b611a0560c08301846115c4565b98975050505050505050565b5f819050919050565b611a2381611a11565b82525050565b5f602082019050611a3c5f830184611a1a565b92915050565b5f82825260208201905092915050565b7f436f6e74726570617274696520696e616374697665206f7520696e65786973745f8201527f616e746500000000000000000000000000000000000000000000000000000000602082015250565b5f611aac602483611a42565b9150611ab782611a52565b604082019050919050565b5f6020820190508181035f830152611ad981611aa0565b9050919050565b7f4e487b71000000000000000000000000000000000000000000000000000000005f52602260045260245ffd5b5f6002820490506001821680611b2457607f821691505b602082108103611b3757611b36611ae0565b5b50919050565b7f4578706f736974696f6e20636f7572616e7465206e756c6c65000000000000005f82015250565b5f611b71601983611a42565b9150611b7c82611b3d565b602082019050919050565b5f6020820190508181035f830152611b9e81611b65565b9050919050565b7f4e487b71000000000000000000000000000000000000000000000000000000005f52601160045260245ffd5b5f611bdc826115bb565b9150611be7836115bb565b9250828202611bf5816115bb565b91508282048414831517611c0c57611c0b611ba5565b5b5092915050565b7f4e487b71000000000000000000000000000000000000000000000000000000005f52601260045260245ffd5b5f611c4a826115bb565b9150611c55836115bb565b925082611c6557611c64611c13565b5b828204905092915050565b7f416374696f6e2072657365727665652061206c2761646d696e697374726174655f8201527f7572000000000000000000000000000000000000000000000000000000000000602082015250565b5f611cca602283611a42565b9150611cd582611c70565b604082019050919050565b5f6020820190508181035f830152611cf781611cbe565b9050919050565b7f4164726573736520696e76616c696465000000000000000000000000000000005f82015250565b5f611d32601083611a42565b9150611d3d82611cfe565b602082019050919050565b5f6020820190508181035f830152611d5f81611d26565b9050919050565b7f436f6e747265706172746965206578697374652064656a6100000000000000005f82015250565b5f611d9a601883611a42565b9150611da582611d66565b602082019050919050565b5f6020820190508181035f830152611dc781611d8e565b9050919050565b7f53636f72652064652063726564697420696e76616c69646500000000000000005f82015250565b5f611e02601883611a42565b9150611e0d82611dce565b602082019050919050565b5f6020820190508181035f830152611e2f81611df6565b9050919050565b5f604082019050611e495f8301856115c4565b611e5660208301846115c4565b9392505050565b7f4d6f6e74616e7420696e76616c696465000000000000000000000000000000005f82015250565b5f611e91601083611a42565b9150611e9c82611e5d565b602082019050919050565b5f6020820190508181035f830152611ebe81611e85565b9050919050565b5f611ecf826115bb565b9150611eda836115bb565b9250828201905080821115611ef257611ef1611ba5565b5b92915050565b7f436f6c6c61746572616c20696e737566666973616e7420706f757220636574745f8201527f6520706f736974696f6e00000000000000000000000000000000000000000000602082015250565b5f611f52602a83611a42565b9150611f5d82611ef8565b604082019050919050565b5f6020820190508181035f830152611f7f81611f46565b9050919050565b5f611f90826115bb565b9150611f9b836115bb565b9250828203905081811115611fb357611fb2611ba5565b5b92915050565b7f5479706520646520706f736974696f6e20696e76616c6964652c207574696c695f8201527f736572204c4f4e47206f752053484f5254000000000000000000000000000000602082015250565b5f612013603183611a42565b915061201e82611fb9565b604082019050919050565b5f6020820190508181035f83015261204081612007565b9050919050565b5f81519050919050565b5f819050815f5260205f209050919050565b5f6020601f8301049050919050565b5f82821b905092915050565b5f600883026120ad7fffffffffffffffffffffffffffffffffffffffffffffffffffffffffffffffff82612072565b6120b78683612072565b95508019841693508086168417925050509392505050565b5f819050919050565b5f6120f26120ed6120e8846115bb565b6120cf565b6115bb565b9050919050565b5f819050919050565b61210b836120d8565b61211f612117826120f9565b84845461207e565b825550505050565b5f90565b612133612127565b61213e818484612102565b505050565b5b81811015612161576121565f8261212b565b600181019050612144565b5050565b601f8211156121a65761217781612051565b61218084612063565b8101602085101561218f578190505b6121a361219b85612063565b830182612143565b50505b505050565b5f82821c905092915050565b5f6121c65f19846008026121ab565b1980831691505092915050565b5f6121de83836121b7565b9150826002028217905092915050565b6121f782612047565b67ffffffffffffffff8111156122105761220f611769565b5b61221a8254611b0d565b612225828285612165565b5f60209050601f831160018114612256575f8415612244578287015190505b61224e85826121d3565b8655506122b5565b601f19841661226486612051565b5f5b8281101561228b57848901518255600182019150602085019450602081019050612266565b868310156122a857848901516122a4601f8916826121b7565b8355505b6001600288020188555050505b505050505050565b8281835e5f83830152505050565b5f6122d582612047565b6122df8185611a42565b93506122ef8185602086016122bd565b6122f881611759565b840191505092915050565b5f6060820190506123165f8301866115c4565b818103602083015261232881856122cb565b905061233760408301846115c4565b949350505050565b7f4e487b71000000000000000000000000000000000000000000000000000000005f52603260045260245ffd5b5f61237682611a11565b915061238183611a11565b92508282019050828112155f8312168382125f8412151617156123a7576123a6611ba5565b5b92915050565b5f6123b782611a11565b91506123c283611a11565b925082820390508181125f8412168282135f8512151617156123e7576123e6611ba5565b5b92915050565b7f4c6520726174696f20646f6974206574726520737570657269657572206120315f8201527f3030250000000000000000000000000000000000000000000000000000000000602082015250565b5f612447602383611a42565b9150612452826123ed565b604082019050919050565b5f6020820190508181035f8301526124748161243b565b905091905056fea26469706673582212200650b456ffe1d3ec4bab731fdf8201919a952138a0db5ba3c0eba6d9a344135e64736f6c634300081a0033",
			"opcodes": "PUSH1 0x80 PUSH1 0x40 MSTORE PUSH1 0x78 PUSH1 0x3 SSTORE CALLVALUE DUP1 ISZERO PUSH1 0x13 JUMPI PUSH0 DUP1 REVERT JUMPDEST POP CALLER PUSH1 0x2 PUSH0 PUSH2 0x100 EXP DUP2 SLOAD DUP2 PUSH20 0xFFFFFFFFFFFFFFFFFFFFFFFFFFFFFFFFFFFFFFFF MUL NOT AND SWAP1 DUP4 PUSH20 0xFFFFFFFFFFFFFFFFFFFFFFFFFFFFFFFFFFFFFFFF AND MUL OR SWAP1 SSTORE POP PUSH2 0x24B1 DUP1 PUSH2 0x61 PUSH0 CODECOPY PUSH0 RETURN INVALID PUSH1 0x80 PUSH1 0x40 MSTORE CALLVALUE DUP1 ISZERO PUSH2 0xF JUMPI PUSH0 DUP1 REVERT JUMPDEST POP PUSH1 0x4 CALLDATASIZE LT PUSH2 0xA7 JUMPI PUSH0 CALLDATALOAD PUSH1 0xE0 SHR DUP1 PUSH4 0x561A9927 GT PUSH2 0x6F JUMPI DUP1 PUSH4 0x561A9927 EQ PUSH2 0x14D JUMPI DUP1 PUSH4 0x760B1EEE EQ PUSH2 0x17D JUMPI DUP1 PUSH4 0x85381211 EQ PUSH2 0x1B3 JUMPI DUP1 PUSH4 0xB05A5CFB EQ PUSH2 0x1D1 JUMPI DUP1 PUSH4 0xE4D2D96E EQ PUSH2 0x201 JUMPI DUP1 PUSH4 0xF851A440 EQ PUSH2 0x21D JUMPI PUSH2 0xA7 JUMP JUMPDEST DUP1 PUSH4 0xAAE162E EQ PUSH2 0xAB JUMPI DUP1 PUSH4 0x1411AE6F EQ PUSH2 0xDB JUMPI DUP1 PUSH4 0x25836BC8 EQ PUSH2 0xF7 JUMPI DUP1 PUSH4 0x4DD54C2A EQ PUSH2 0x115 JUMPI DUP1 PUSH4 0x52EA5692 EQ PUSH2 0x131 JUMPI JUMPDEST PUSH0 DUP1 REVERT JUMPDEST PUSH2 0xC5 PUSH1 0x4 DUP1 CALLDATASIZE SUB DUP2 ADD SWAP1 PUSH2 0xC0 SWAP2 SWAP1 PUSH2 0x1590 JUMP JUMPDEST PUSH2 0x23B JUMP JUMPDEST PUSH1 0x40 MLOAD PUSH2 0xD2 SWAP2 SWAP1 PUSH2 0x15D3 JUMP JUMPDEST PUSH1 0x40 MLOAD DUP1 SWAP2 SUB SWAP1 RETURN JUMPDEST PUSH2 0xF5 PUSH1 0x4 DUP1 CALLDATASIZE SUB DUP2 ADD SWAP1 PUSH2 0xF0 SWAP2 SWAP1 PUSH2 0x1616 JUMP JUMPDEST PUSH2 0x52B JUMP JUMPDEST STOP JUMPDEST PUSH2 0xFF PUSH2 0x883 JUMP JUMPDEST PUSH1 0x40 MLOAD PUSH2 0x10C SWAP2 SWAP1 PUSH2 0x1731 JUMP JUMPDEST PUSH1 0x40 MLOAD DUP1 SWAP2 SUB SWAP1 RETURN JUMPDEST PUSH2 0x12F PUSH1 0x4 DUP1 CALLDATASIZE SUB DUP2 ADD SWAP1 PUSH2 0x12A SWAP2 SWAP1 PUSH2 0x188D JUMP JUMPDEST PUSH2 0x90E JUMP JUMPDEST STOP JUMPDEST PUSH2 0x14B PUSH1 0x4 DUP1 CALLDATASIZE SUB DUP2 ADD SWAP1 PUSH2 0x146 SWAP2 SWAP1 PUSH2 0x18F9 JUMP JUMPDEST PUSH2 0xCE0 JUMP JUMPDEST STOP JUMPDEST PUSH2 0x167 PUSH1 0x4 DUP1 CALLDATASIZE SUB DUP2 ADD SWAP1 PUSH2 0x162 SWAP2 SWAP1 PUSH2 0x1937 JUMP JUMPDEST PUSH2 0xE9C JUMP JUMPDEST PUSH1 0x40 MLOAD PUSH2 0x174 SWAP2 SWAP1 PUSH2 0x1971 JUMP JUMPDEST PUSH1 0x40 MLOAD DUP1 SWAP2 SUB SWAP1 RETURN JUMPDEST PUSH2 0x197 PUSH1 0x4 DUP1 CALLDATASIZE SUB DUP2 ADD SWAP1 PUSH2 0x192 SWAP2 SWAP1 PUSH2 0x1590 JUMP JUMPDEST PUSH2 0xED7 JUMP JUMPDEST PUSH1 0x40 MLOAD PUSH2 0x1AA SWAP8 SWAP7 SWAP6 SWAP5 SWAP4 SWAP3 SWAP2 SWAP1 PUSH2 0x19A4 JUMP JUMPDEST PUSH1 0x40 MLOAD DUP1 SWAP2 SUB SWAP1 RETURN JUMPDEST PUSH2 0x1BB PUSH2 0xF3F JUMP JUMPDEST PUSH1 0x40 MLOAD PUSH2 0x1C8 SWAP2 SWAP1 PUSH2 0x15D3 JUMP JUMPDEST PUSH1 0x40 MLOAD DUP1 SWAP2 SUB SWAP1 RETURN JUMPDEST PUSH2 0x1EB PUSH1 0x4 DUP1 CALLDATASIZE SUB DUP2 ADD SWAP1 PUSH2 0x1E6 SWAP2 SWAP1 PUSH2 0x1590 JUMP JUMPDEST PUSH2 0xF45 JUMP JUMPDEST PUSH1 0x40 MLOAD PUSH2 0x1F8 SWAP2 SWAP1 PUSH2 0x1A29 JUMP JUMPDEST PUSH1 0x40 MLOAD DUP1 SWAP2 SUB SWAP1 RETURN JUMPDEST PUSH2 0x21B PUSH1 0x4 DUP1 CALLDATASIZE SUB DUP2 ADD SWAP1 PUSH2 0x216 SWAP2 SWAP1 PUSH2 0x1937 JUMP JUMPDEST PUSH2 0x126C JUMP JUMPDEST STOP JUMPDEST PUSH2 0x225 PUSH2 0x1348 JUMP JUMPDEST PUSH1 0x40 MLOAD PUSH2 0x232 SWAP2 SWAP1 PUSH2 0x1971 JUMP JUMPDEST PUSH1 0x40 MLOAD DUP1 SWAP2 SUB SWAP1 RETURN JUMPDEST PUSH0 DUP2 PUSH0 DUP1 DUP3 PUSH20 0xFFFFFFFFFFFFFFFFFFFFFFFFFFFFFFFFFFFFFFFF AND PUSH20 0xFFFFFFFFFFFFFFFFFFFFFFFFFFFFFFFFFFFFFFFF AND DUP2 MSTORE PUSH1 0x20 ADD SWAP1 DUP2 MSTORE PUSH1 0x20 ADD PUSH0 KECCAK256 PUSH1 0x6 ADD PUSH0 SWAP1 SLOAD SWAP1 PUSH2 0x100 EXP SWAP1 DIV PUSH1 0xFF AND PUSH2 0x2C8 JUMPI PUSH1 0x40 MLOAD PUSH32 0x8C379A000000000000000000000000000000000000000000000000000000000 DUP2 MSTORE PUSH1 0x4 ADD PUSH2 0x2BF SWAP1 PUSH2 0x1AC2 JUMP JUMPDEST PUSH1 0x40 MLOAD DUP1 SWAP2 SUB SWAP1 REVERT JUMPDEST PUSH0 DUP1 PUSH0 DUP6 PUSH20 0xFFFFFFFFFFFFFFFFFFFFFFFFFFFFFFFFFFFFFFFF AND PUSH20 0xFFFFFFFFFFFFFFFFFFFFFFFFFFFFFFFFFFFFFFFF AND DUP2 MSTORE PUSH1 0x20 ADD SWAP1 DUP2 MSTORE PUSH1 0x20 ADD PUSH0 KECCAK256 PUSH1 0x40 MLOAD DUP1 PUSH2 0x100 ADD PUSH1 0x40 MSTORE SWAP1 DUP2 PUSH0 DUP3 ADD PUSH0 SWAP1 SLOAD SWAP1 PUSH2 0x100 EXP SWAP1 DIV PUSH20 0xFFFFFFFFFFFFFFFFFFFFFFFFFFFFFFFFFFFFFFFF AND PUSH20 0xFFFFFFFFFFFFFFFFFFFFFFFFFFFFFFFFFFFFFFFF AND PUSH20 0xFFFFFFFFFFFFFFFFFFFFFFFFFFFFFFFFFFFFFFFF AND DUP2 MSTORE PUSH1 0x20 ADD PUSH1 0x1 DUP3 ADD SLOAD DUP2 MSTORE PUSH1 0x20 ADD PUSH1 0x2 DUP3 ADD SLOAD DUP2 MSTORE PUSH1 0x20 ADD PUSH1 0x3 DUP3 ADD SLOAD DUP2 MSTORE PUSH1 0x20 ADD PUSH1 0x4 DUP3 ADD SLOAD DUP2 MSTORE PUSH1 0x20 ADD PUSH1 0x5 DUP3 ADD DUP1 SLOAD DUP1 PUSH1 0x20 MUL PUSH1 0x20 ADD PUSH1 0x40 MLOAD SWAP1 DUP2 ADD PUSH1 0x40 MSTORE DUP1 SWAP3 SWAP2 SWAP1 DUP2 DUP2 MSTORE PUSH1 0x20 ADD PUSH0 SWAP1 JUMPDEST DUP3 DUP3 LT ISZERO PUSH2 0x48E JUMPI DUP4 DUP3 SWAP1 PUSH0 MSTORE PUSH1 0x20 PUSH0 KECCAK256 SWAP1 PUSH1 0x4 MUL ADD PUSH1 0x40 MLOAD DUP1 PUSH1 0x80 ADD PUSH1 0x40 MSTORE SWAP1 DUP2 PUSH0 DUP3 ADD SLOAD DUP2 MSTORE PUSH1 0x20 ADD PUSH1 0x1 DUP3 ADD DUP1 SLOAD PUSH2 0x3EB SWAP1 PUSH2 0x1B0D JUMP JUMPDEST DUP1 PUSH1 0x1F ADD PUSH1 0x20 DUP1 SWAP2 DIV MUL PUSH1 0x20 ADD PUSH1 0x40 MLOAD SWAP1 DUP2 ADD PUSH1 0x40 MSTORE DUP1 SWAP3 SWAP2 SWAP1 DUP2 DUP2 MSTORE PUSH1 0x20 ADD DUP3 DUP1 SLOAD PUSH2 0x417 SWAP1 PUSH2 0x1B0D JUMP JUMPDEST DUP1 ISZERO PUSH2 0x462 JUMPI DUP1 PUSH1 0x1F LT PUSH2 0x439 JUMPI PUSH2 0x100 DUP1 DUP4 SLOAD DIV MUL DUP4 MSTORE SWAP2 PUSH1 0x20 ADD SWAP2 PUSH2 0x462 JUMP JUMPDEST DUP3 ADD SWAP2 SWAP1 PUSH0 MSTORE PUSH1 0x20 PUSH0 KECCAK256 SWAP1 JUMPDEST DUP2 SLOAD DUP2 MSTORE SWAP1 PUSH1 0x1 ADD SWAP1 PUSH1 0x20 ADD DUP1 DUP4 GT PUSH2 0x445 JUMPI DUP3 SWAP1 SUB PUSH1 0x1F AND DUP3 ADD SWAP2 JUMPDEST POP POP POP POP POP DUP2 MSTORE PUSH1 0x20 ADD PUSH1 0x2 DUP3 ADD SLOAD DUP2 MSTORE PUSH1 0x20 ADD PUSH1 0x3 DUP3 ADD SLOAD DUP2 MSTORE POP POP DUP2 MSTORE PUSH1 0x20 ADD SWAP1 PUSH1 0x1 ADD SWAP1 PUSH2 0x3B1 JUMP JUMPDEST POP POP POP POP DUP2 MSTORE PUSH1 0x20 ADD PUSH1 0x6 DUP3 ADD PUSH0 SWAP1 SLOAD SWAP1 PUSH2 0x100 EXP SWAP1 DIV PUSH1 0xFF AND ISZERO ISZERO ISZERO ISZERO DUP2 MSTORE PUSH1 0x20 ADD PUSH1 0x7 DUP3 ADD SLOAD DUP2 MSTORE POP POP SWAP1 POP PUSH0 DUP2 PUSH1 0x60 ADD MLOAD GT PUSH2 0x502 JUMPI PUSH1 0x40 MLOAD PUSH32 0x8C379A000000000000000000000000000000000000000000000000000000000 DUP2 MSTORE PUSH1 0x4 ADD PUSH2 0x4F9 SWAP1 PUSH2 0x1B87 JUMP JUMPDEST PUSH1 0x40 MLOAD DUP1 SWAP2 SUB SWAP1 REVERT JUMPDEST DUP1 PUSH1 0x60 ADD MLOAD PUSH1 0x64 DUP3 PUSH1 0x80 ADD MLOAD PUSH2 0x518 SWAP2 SWAP1 PUSH2 0x1BD2 JUMP JUMPDEST PUSH2 0x522 SWAP2 SWAP1 PUSH2 0x1C40 JUMP JUMPDEST SWAP3 POP POP POP SWAP2 SWAP1 POP JUMP JUMPDEST PUSH1 0x2 PUSH0 SWAP1 SLOAD SWAP1 PUSH2 0x100 EXP SWAP1 DIV PUSH20 0xFFFFFFFFFFFFFFFFFFFFFFFFFFFFFFFFFFFFFFFF AND PUSH20 0xFFFFFFFFFFFFFFFFFFFFFFFFFFFFFFFFFFFFFFFF AND CALLER PUSH20 0xFFFFFFFFFFFFFFFFFFFFFFFFFFFFFFFFFFFFFFFF AND EQ PUSH2 0x5BA JUMPI PUSH1 0x40 MLOAD PUSH32 0x8C379A000000000000000000000000000000000000000000000000000000000 DUP2 MSTORE PUSH1 0x4 ADD PUSH2 0x5B1 SWAP1 PUSH2 0x1CE0 JUMP JUMPDEST PUSH1 0x40 MLOAD DUP1 SWAP2 SUB SWAP1 REVERT JUMPDEST PUSH0 PUSH20 0xFFFFFFFFFFFFFFFFFFFFFFFFFFFFFFFFFFFFFFFF AND DUP5 PUSH20 0xFFFFFFFFFFFFFFFFFFFFFFFFFFFFFFFFFFFFFFFF AND SUB PUSH2 0x628 JUMPI PUSH1 0x40 MLOAD PUSH32 0x8C379A000000000000000000000000000000000000000000000000000000000 DUP2 MSTORE PUSH1 0x4 ADD PUSH2 0x61F SWAP1 PUSH2 0x1D48 JUMP JUMPDEST PUSH1 0x40 MLOAD DUP1 SWAP2 SUB SWAP1 REVERT JUMPDEST PUSH0 DUP1 DUP6 PUSH20 0xFFFFFFFFFFFFFFFFFFFFFFFFFFFFFFFFFFFFFFFF AND PUSH20 0xFFFFFFFFFFFFFFFFFFFFFFFFFFFFFFFFFFFFFFFF AND DUP2 MSTORE PUSH1 0x20 ADD SWAP1 DUP2 MSTORE PUSH1 0x20 ADD PUSH0 KECCAK256 PUSH1 0x6 ADD PUSH0 SWAP1 SLOAD SWAP1 PUSH2 0x100 EXP SWAP1 DIV PUSH1 0xFF AND ISZERO PUSH2 0x6B4 JUMPI PUSH1 0x40 MLOAD PUSH32 0x8C379A000000000000000000000000000000000000000000000000000000000 DUP2 MSTORE PUSH1 0x4 ADD PUSH2 0x6AB SWAP1 PUSH2 0x1DB0 JUMP JUMPDEST PUSH1 0x40 MLOAD DUP1 SWAP2 SUB SWAP1 REVERT JUMPDEST PUSH0 DUP4 GT DUP1 ISZERO PUSH2 0x6C4 JUMPI POP PUSH1 0x64 DUP4 GT ISZERO JUMPDEST PUSH2 0x703 JUMPI PUSH1 0x40 MLOAD PUSH32 0x8C379A000000000000000000000000000000000000000000000000000000000 DUP2 MSTORE PUSH1 0x4 ADD PUSH2 0x6FA SWAP1 PUSH2 0x1E18 JUMP JUMPDEST PUSH1 0x40 MLOAD DUP1 SWAP2 SUB SWAP1 REVERT JUMPDEST PUSH0 DUP1 PUSH0 DUP7 PUSH20 0xFFFFFFFFFFFFFFFFFFFFFFFFFFFFFFFFFFFFFFFF AND PUSH20 0xFFFFFFFFFFFFFFFFFFFFFFFFFFFFFFFFFFFFFFFF AND DUP2 MSTORE PUSH1 0x20 ADD SWAP1 DUP2 MSTORE PUSH1 0x20 ADD PUSH0 KECCAK256 SWAP1 POP DUP5 DUP2 PUSH0 ADD PUSH0 PUSH2 0x100 EXP DUP2 SLOAD DUP2 PUSH20 0xFFFFFFFFFFFFFFFFFFFFFFFFFFFFFFFFFFFFFFFF MUL NOT AND SWAP1 DUP4 PUSH20 0xFFFFFFFFFFFFFFFFFFFFFFFFFFFFFFFFFFFFFFFF AND MUL OR SWAP1 SSTORE POP DUP4 DUP2 PUSH1 0x1 ADD DUP2 SWAP1 SSTORE POP DUP3 DUP2 PUSH1 0x2 ADD DUP2 SWAP1 SSTORE POP PUSH0 DUP2 PUSH1 0x3 ADD DUP2 SWAP1 SSTORE POP DUP2 DUP2 PUSH1 0x4 ADD DUP2 SWAP1 SSTORE POP PUSH1 0x1 DUP2 PUSH1 0x6 ADD PUSH0 PUSH2 0x100 EXP DUP2 SLOAD DUP2 PUSH1 0xFF MUL NOT AND SWAP1 DUP4 ISZERO ISZERO MUL OR SWAP1 SSTORE POP PUSH0 DUP2 PUSH1 0x7 ADD DUP2 SWAP1 SSTORE POP PUSH1 0x1 DUP6 SWAP1 DUP1 PUSH1 0x1 DUP2 SLOAD ADD DUP1 DUP3 SSTORE DUP1 SWAP2 POP POP PUSH1 0x1 SWAP1 SUB SWAP1 PUSH0 MSTORE PUSH1 0x20 PUSH0 KECCAK256 ADD PUSH0 SWAP1 SWAP2 SWAP1 SWAP2 SWAP1 SWAP2 PUSH2 0x100 EXP DUP2 SLOAD DUP2 PUSH20 0xFFFFFFFFFFFFFFFFFFFFFFFFFFFFFFFFFFFFFFFF MUL NOT AND SWAP1 DUP4 PUSH20 0xFFFFFFFFFFFFFFFFFFFFFFFFFFFFFFFFFFFFFFFF AND MUL OR SWAP1 SSTORE POP DUP5 PUSH20 0xFFFFFFFFFFFFFFFFFFFFFFFFFFFFFFFFFFFFFFFF AND PUSH32 0xD3F5388C2257F37D0083B7A1EDCC31B560EDA57385DCD90C8429A7FB80383910 DUP5 DUP5 PUSH1 0x40 MLOAD PUSH2 0x874 SWAP3 SWAP2 SWAP1 PUSH2 0x1E36 JUMP JUMPDEST PUSH1 0x40 MLOAD DUP1 SWAP2 SUB SWAP1 LOG2 POP POP POP POP POP JUMP JUMPDEST PUSH1 0x60 PUSH1 0x1 DUP1 SLOAD DUP1 PUSH1 0x20 MUL PUSH1 0x20 ADD PUSH1 0x40 MLOAD SWAP1 DUP2 ADD PUSH1 0x40 MSTORE DUP1 SWAP3 SWAP2 SWAP1 DUP2 DUP2 MSTORE PUSH1 0x20 ADD DUP3 DUP1 SLOAD DUP1 ISZERO PUSH2 0x904 JUMPI PUSH1 0x20 MUL DUP3 ADD SWAP2 SWAP1 PUSH0 MSTORE PUSH1 0x20 PUSH0 KECCAK256 SWAP1 JUMPDEST DUP2 PUSH0 SWAP1 SLOAD SWAP1 PUSH2 0x100 EXP SWAP1 DIV PUSH20 0xFFFFFFFFFFFFFFFFFFFFFFFFFFFFFFFFFFFFFFFF AND PUSH20 0xFFFFFFFFFFFFFFFFFFFFFFFFFFFFFFFFFFFFFFFF AND DUP2 MSTORE PUSH1 0x20 ADD SWAP1 PUSH1 0x1 ADD SWAP1 DUP1 DUP4 GT PUSH2 0x8BB JUMPI JUMPDEST POP POP POP POP POP SWAP1 POP SWAP1 JUMP JUMPDEST PUSH1 0x2 PUSH0 SWAP1 SLOAD SWAP1 PUSH2 0x100 EXP SWAP1 DIV PUSH20 0xFFFFFFFFFFFFFFFFFFFFFFFFFFFFFFFFFFFFFFFF AND PUSH20 0xFFFFFFFFFFFFFFFFFFFFFFFFFFFFFFFFFFFFFFFF AND CALLER PUSH20 0xFFFFFFFFFFFFFFFFFFFFFFFFFFFFFFFFFFFFFFFF AND EQ PUSH2 0x99D JUMPI PUSH1 0x40 MLOAD PUSH32 0x8C379A000000000000000000000000000000000000000000000000000000000 DUP2 MSTORE PUSH1 0x4 ADD PUSH2 0x994 SWAP1 PUSH2 0x1CE0 JUMP JUMPDEST PUSH1 0x40 MLOAD DUP1 SWAP2 SUB SWAP1 REVERT JUMPDEST DUP3 PUSH0 DUP1 DUP3 PUSH20 0xFFFFFFFFFFFFFFFFFFFFFFFFFFFFFFFFFFFFFFFF AND PUSH20 0xFFFFFFFFFFFFFFFFFFFFFFFFFFFFFFFFFFFFFFFF AND DUP2 MSTORE PUSH1 0x20 ADD SWAP1 DUP2 MSTORE PUSH1 0x20 ADD PUSH0 KECCAK256 PUSH1 0x6 ADD PUSH0 SWAP1 SLOAD SWAP1 PUSH2 0x100 EXP SWAP1 DIV PUSH1 0xFF AND PUSH2 0xA29 JUMPI PUSH1 0x40 MLOAD PUSH32 0x8C379A000000000000000000000000000000000000000000000000000000000 DUP2 MSTORE PUSH1 0x4 ADD PUSH2 0xA20 SWAP1 PUSH2 0x1AC2 JUMP JUMPDEST PUSH1 0x40 MLOAD DUP1 SWAP2 SUB SWAP1 REVERT JUMPDEST PUSH0 DUP4 GT PUSH2 0xA6B JUMPI PUSH1 0x40 MLOAD PUSH32 0x8C379A000000000000000000000000000000000000000000000000000000000 DUP2 MSTORE PUSH1 0x4 ADD PUSH2 0xA62 SWAP1 PUSH2 0x1EA7 JUMP JUMPDEST PUSH1 0x40 MLOAD DUP1 SWAP2 SUB SWAP1 REVERT JUMPDEST PUSH0 DUP1 PUSH0 DUP7 PUSH20 0xFFFFFFFFFFFFFFFFFFFFFFFFFFFFFFFFFFFFFFFF AND PUSH20 0xFFFFFFFFFFFFFFFFFFFFFFFFFFFFFFFFFFFFFFFF AND DUP2 MSTORE PUSH1 0x20 ADD SWAP1 DUP2 MSTORE PUSH1 0x20 ADD PUSH0 KECCAK256 SWAP1 POP PUSH0 PUSH32 0x26207B3D79CB8A2F4D7984D34034720F053ED770A9F512147F4EA54E18EDE2C3 DUP5 DUP1 MLOAD SWAP1 PUSH1 0x20 ADD KECCAK256 SUB PUSH2 0xAF8 JUMPI DUP5 DUP3 PUSH1 0x3 ADD PUSH0 DUP3 DUP3 SLOAD PUSH2 0xAEC SWAP2 SWAP1 PUSH2 0x1EC5 JUMP JUMPDEST SWAP3 POP POP DUP2 SWAP1 SSTORE POP PUSH2 0xBFE JUMP JUMPDEST PUSH32 0x67F2240DBDC5A5A1BBA6EF58DD6499D8BCF8DA14A71DFFEEDDDC7956475EBAC4 DUP5 DUP1 MLOAD SWAP1 PUSH1 0x20 ADD KECCAK256 SUB PUSH2 0xBC2 JUMPI PUSH1 0x64 PUSH1 0x3 SLOAD DUP7 PUSH2 0xB36 SWAP2 SWAP1 PUSH2 0x1BD2 JUMP JUMPDEST PUSH2 0xB40 SWAP2 SWAP1 PUSH2 0x1C40 JUMP JUMPDEST SWAP1 POP DUP1 DUP3 PUSH1 0x4 ADD SLOAD LT ISZERO PUSH2 0xB89 JUMPI PUSH1 0x40 MLOAD PUSH32 0x8C379A000000000000000000000000000000000000000000000000000000000 DUP2 MSTORE PUSH1 0x4 ADD PUSH2 0xB80 SWAP1 PUSH2 0x1F68 JUMP JUMPDEST PUSH1 0x40 MLOAD DUP1 SWAP2 SUB SWAP1 REVERT JUMPDEST DUP1 DUP3 PUSH1 0x4 ADD PUSH0 DUP3 DUP3 SLOAD PUSH2 0xB9C SWAP2 SWAP1 PUSH2 0x1F86 JUMP JUMPDEST SWAP3 POP POP DUP2 SWAP1 SSTORE POP DUP5 DUP3 PUSH1 0x3 ADD PUSH0 DUP3 DUP3 SLOAD PUSH2 0xBB6 SWAP2 SWAP1 PUSH2 0x1F86 JUMP JUMPDEST SWAP3 POP POP DUP2 SWAP1 SSTORE POP PUSH2 0xBFD JUMP JUMPDEST PUSH1 0x40 MLOAD PUSH32 0x8C379A000000000000000000000000000000000000000000000000000000000 DUP2 MSTORE PUSH1 0x4 ADD PUSH2 0xBF4 SWAP1 PUSH2 0x2029 JUMP JUMPDEST PUSH1 0x40 MLOAD DUP1 SWAP2 SUB SWAP1 REVERT JUMPDEST JUMPDEST DUP2 PUSH1 0x5 ADD PUSH1 0x40 MLOAD DUP1 PUSH1 0x80 ADD PUSH1 0x40 MSTORE DUP1 DUP8 DUP2 MSTORE PUSH1 0x20 ADD DUP7 DUP2 MSTORE PUSH1 0x20 ADD TIMESTAMP DUP2 MSTORE PUSH1 0x20 ADD DUP4 DUP2 MSTORE POP SWAP1 DUP1 PUSH1 0x1 DUP2 SLOAD ADD DUP1 DUP3 SSTORE DUP1 SWAP2 POP POP PUSH1 0x1 SWAP1 SUB SWAP1 PUSH0 MSTORE PUSH1 0x20 PUSH0 KECCAK256 SWAP1 PUSH1 0x4 MUL ADD PUSH0 SWAP1 SWAP2 SWAP1 SWAP2 SWAP1 SWAP2 POP PUSH0 DUP3 ADD MLOAD DUP2 PUSH0 ADD SSTORE PUSH1 0x20 DUP3 ADD MLOAD DUP2 PUSH1 0x1 ADD SWAP1 DUP2 PUSH2 0xC66 SWAP2 SWAP1 PUSH2 0x21EE JUMP JUMPDEST POP PUSH1 0x40 DUP3 ADD MLOAD DUP2 PUSH1 0x2 ADD SSTORE PUSH1 0x60 DUP3 ADD MLOAD DUP2 PUSH1 0x3 ADD SSTORE POP POP PUSH2 0xC86 DUP7 PUSH2 0x136D JUMP JUMPDEST DUP6 PUSH20 0xFFFFFFFFFFFFFFFFFFFFFFFFFFFFFFFFFFFFFFFF AND PUSH32 0x335D38FDB9FD6BF0D6A0AB22792F89A84A8F85F129736CCCFC37FC757BA27705 DUP7 DUP7 DUP5 PUSH1 0x40 MLOAD PUSH2 0xCD0 SWAP4 SWAP3 SWAP2 SWAP1 PUSH2 0x2303 JUMP JUMPDEST PUSH1 0x40 MLOAD DUP1 SWAP2 SUB SWAP1 LOG2 POP POP POP POP POP POP JUMP JUMPDEST PUSH1 0x2 PUSH0 SWAP1 SLOAD SWAP1 PUSH2 0x100 EXP SWAP1 DIV PUSH20 0xFFFFFFFFFFFFFFFFFFFFFFFFFFFFFFFFFFFFFFFF AND PUSH20 0xFFFFFFFFFFFFFFFFFFFFFFFFFFFFFFFFFFFFFFFF AND CALLER PUSH20 0xFFFFFFFFFFFFFFFFFFFFFFFFFFFFFFFFFFFFFFFF AND EQ PUSH2 0xD6F JUMPI PUSH1 0x40 MLOAD PUSH32 0x8C379A000000000000000000000000000000000000000000000000000000000 DUP2 MSTORE PUSH1 0x4 ADD PUSH2 0xD66 SWAP1 PUSH2 0x1CE0 JUMP JUMPDEST PUSH1 0x40 MLOAD DUP1 SWAP2 SUB SWAP1 REVERT JUMPDEST DUP2 PUSH0 DUP1 DUP3 PUSH20 0xFFFFFFFFFFFFFFFFFFFFFFFFFFFFFFFFFFFFFFFF AND PUSH20 0xFFFFFFFFFFFFFFFFFFFFFFFFFFFFFFFFFFFFFFFF AND DUP2 MSTORE PUSH1 0x20 ADD SWAP1 DUP2 MSTORE PUSH1 0x20 ADD PUSH0 KECCAK256 PUSH1 0x6 ADD PUSH0 SWAP1 SLOAD SWAP1 PUSH2 0x100 EXP SWAP1 DIV PUSH1 0xFF AND PUSH2 0xDFB JUMPI PUSH1 0x40 MLOAD PUSH32 0x8C379A000000000000000000000000000000000000000000000000000000000 DUP2 MSTORE PUSH1 0x4 ADD PUSH2 0xDF2 SWAP1 PUSH2 0x1AC2 JUMP JUMPDEST PUSH1 0x40 MLOAD DUP1 SWAP2 SUB SWAP1 REVERT JUMPDEST PUSH0 DUP3 GT PUSH2 0xE3D JUMPI PUSH1 0x40 MLOAD PUSH32 0x8C379A000000000000000000000000000000000000000000000000000000000 DUP2 MSTORE PUSH1 0x4 ADD PUSH2 0xE34 SWAP1 PUSH2 0x1EA7 JUMP JUMPDEST PUSH1 0x40 MLOAD DUP1 SWAP2 SUB SWAP1 REVERT JUMPDEST PUSH0 DUP1 PUSH0 DUP6 PUSH20 0xFFFFFFFFFFFFFFFFFFFFFFFFFFFFFFFFFFFFFFFF AND PUSH20 0xFFFFFFFFFFFFFFFFFFFFFFFFFFFFFFFFFFFFFFFF AND DUP2 MSTORE PUSH1 0x20 ADD SWAP1 DUP2 MSTORE PUSH1 0x20 ADD PUSH0 KECCAK256 SWAP1 POP DUP3 DUP2 PUSH1 0x4 ADD PUSH0 DUP3 DUP3 SLOAD PUSH2 0xE8F SWAP2 SWAP1 PUSH2 0x1EC5 JUMP JUMPDEST SWAP3 POP POP DUP2 SWAP1 SSTORE POP POP POP POP POP JUMP JUMPDEST PUSH1 0x1 DUP2 DUP2 SLOAD DUP2 LT PUSH2 0xEAB JUMPI PUSH0 DUP1 REVERT JUMPDEST SWAP1 PUSH0 MSTORE PUSH1 0x20 PUSH0 KECCAK256 ADD PUSH0 SWAP2 POP SLOAD SWAP1 PUSH2 0x100 EXP SWAP1 DIV PUSH20 0xFFFFFFFFFFFFFFFFFFFFFFFFFFFFFFFFFFFFFFFF AND DUP2 JUMP JUMPDEST PUSH0 PUSH1 0x20 MSTORE DUP1 PUSH0 MSTORE PUSH1 0x40 PUSH0 KECCAK256 PUSH0 SWAP2 POP SWAP1 POP DUP1 PUSH0 ADD PUSH0 SWAP1 SLOAD SWAP1 PUSH2 0x100 EXP SWAP1 DIV PUSH20 0xFFFFFFFFFFFFFFFFFFFFFFFFFFFFFFFFFFFFFFFF AND SWAP1 DUP1 PUSH1 0x1 ADD SLOAD SWAP1 DUP1 PUSH1 0x2 ADD SLOAD SWAP1 DUP1 PUSH1 0x3 ADD SLOAD SWAP1 DUP1 PUSH1 0x4 ADD SLOAD SWAP1 DUP1 PUSH1 0x6 ADD PUSH0 SWAP1 SLOAD SWAP1 PUSH2 0x100 EXP SWAP1 DIV PUSH1 0xFF AND SWAP1 DUP1 PUSH1 0x7 ADD SLOAD SWAP1 POP DUP8 JUMP JUMPDEST PUSH1 0x3 SLOAD DUP2 JUMP JUMPDEST PUSH0 DUP2 PUSH0 DUP1 DUP3 PUSH20 0xFFFFFFFFFFFFFFFFFFFFFFFFFFFFFFFFFFFFFFFF AND PUSH20 0xFFFFFFFFFFFFFFFFFFFFFFFFFFFFFFFFFFFFFFFF AND DUP2 MSTORE PUSH1 0x20 ADD SWAP1 DUP2 MSTORE PUSH1 0x20 ADD PUSH0 KECCAK256 PUSH1 0x6 ADD PUSH0 SWAP1 SLOAD SWAP1 PUSH2 0x100 EXP SWAP1 DIV PUSH1 0xFF AND PUSH2 0xFD2 JUMPI PUSH1 0x40 MLOAD PUSH32 0x8C379A000000000000000000000000000000000000000000000000000000000 DUP2 MSTORE PUSH1 0x4 ADD PUSH2 0xFC9 SWAP1 PUSH2 0x1AC2 JUMP JUMPDEST PUSH1 0x40 MLOAD DUP1 SWAP2 SUB SWAP1 REVERT JUMPDEST PUSH0 DUP1 PUSH0 DUP6 PUSH20 0xFFFFFFFFFFFFFFFFFFFFFFFFFFFFFFFFFFFFFFFF AND PUSH20 0xFFFFFFFFFFFFFFFFFFFFFFFFFFFFFFFFFFFFFFFF AND DUP2 MSTORE PUSH1 0x20 ADD SWAP1 DUP2 MSTORE PUSH1 0x20 ADD PUSH0 KECCAK256 PUSH1 0x40 MLOAD DUP1 PUSH2 0x100 ADD PUSH1 0x40 MSTORE SWAP1 DUP2 PUSH0 DUP3 ADD PUSH0 SWAP1 SLOAD SWAP1 PUSH2 0x100 EXP SWAP1 DIV PUSH20 0xFFFFFFFFFFFFFFFFFFFFFFFFFFFFFFFFFFFFFFFF AND PUSH20 0xFFFFFFFFFFFFFFFFFFFFFFFFFFFFFFFFFFFFFFFF AND PUSH20 0xFFFFFFFFFFFFFFFFFFFFFFFFFFFFFFFFFFFFFFFF AND DUP2 MSTORE PUSH1 0x20 ADD PUSH1 0x1 DUP3 ADD SLOAD DUP2 MSTORE PUSH1 0x20 ADD PUSH1 0x2 DUP3 ADD SLOAD DUP2 MSTORE PUSH1 0x20 ADD PUSH1 0x3 DUP3 ADD SLOAD DUP2 MSTORE PUSH1 0x20 ADD PUSH1 0x4 DUP3 ADD SLOAD DUP2 MSTORE PUSH1 0x20 ADD PUSH1 0x5 DUP3 ADD DUP1 SLOAD DUP1 PUSH1 0x20 MUL PUSH1 0x20 ADD PUSH1 0x40 MLOAD SWAP1 DUP2 ADD PUSH1 0x40 MSTORE DUP1 SWAP3 SWAP2 SWAP1 DUP2 DUP2 MSTORE PUSH1 0x20 ADD PUSH0 SWAP1 JUMPDEST DUP3 DUP3 LT ISZERO PUSH2 0x1198 JUMPI DUP4 DUP3 SWAP1 PUSH0 MSTORE PUSH1 0x20 PUSH0 KECCAK256 SWAP1 PUSH1 0x4 MUL ADD PUSH1 0x40 MLOAD DUP1 PUSH1 0x80 ADD PUSH1 0x40 MSTORE SWAP1 DUP2 PUSH0 DUP3 ADD SLOAD DUP2 MSTORE PUSH1 0x20 ADD PUSH1 0x1 DUP3 ADD DUP1 SLOAD PUSH2 0x10F5 SWAP1 PUSH2 0x1B0D JUMP JUMPDEST DUP1 PUSH1 0x1F ADD PUSH1 0x20 DUP1 SWAP2 DIV MUL PUSH1 0x20 ADD PUSH1 0x40 MLOAD SWAP1 DUP2 ADD PUSH1 0x40 MSTORE DUP1 SWAP3 SWAP2 SWAP1 DUP2 DUP2 MSTORE PUSH1 0x20 ADD DUP3 DUP1 SLOAD PUSH2 0x1121 SWAP1 PUSH2 0x1B0D JUMP JUMPDEST DUP1 ISZERO PUSH2 0x116C JUMPI DUP1 PUSH1 0x1F LT PUSH2 0x1143 JUMPI PUSH2 0x100 DUP1 DUP4 SLOAD DIV MUL DUP4 MSTORE SWAP2 PUSH1 0x20 ADD SWAP2 PUSH2 0x116C JUMP JUMPDEST DUP3 ADD SWAP2 SWAP1 PUSH0 MSTORE PUSH1 0x20 PUSH0 KECCAK256 SWAP1 JUMPDEST DUP2 SLOAD DUP2 MSTORE SWAP1 PUSH1 0x1 ADD SWAP1 PUSH1 0x20 ADD DUP1 DUP4 GT PUSH2 0x114F JUMPI DUP3 SWAP1 SUB PUSH1 0x1F AND DUP3 ADD SWAP2 JUMPDEST POP POP POP POP POP DUP2 MSTORE PUSH1 0x20 ADD PUSH1 0x2 DUP3 ADD SLOAD DUP2 MSTORE PUSH1 0x20 ADD PUSH1 0x3 DUP3 ADD SLOAD DUP2 MSTORE POP POP DUP2 MSTORE PUSH1 0x20 ADD SWAP1 PUSH1 0x1 ADD SWAP1 PUSH2 0x10BB JUMP JUMPDEST POP POP POP POP DUP2 MSTORE PUSH1 0x20 ADD PUSH1 0x6 DUP3 ADD PUSH0 SWAP1 SLOAD SWAP1 PUSH2 0x100 EXP SWAP1 DIV PUSH1 0xFF AND ISZERO ISZERO ISZERO ISZERO DUP2 MSTORE PUSH1 0x20 ADD PUSH1 0x7 DUP3 ADD SLOAD DUP2 MSTORE POP POP SWAP1 POP PUSH0 DUP1 JUMPDEST DUP3 PUSH1 0xA0 ADD MLOAD MLOAD DUP2 LT ISZERO PUSH2 0x1260 JUMPI PUSH0 DUP4 PUSH1 0xA0 ADD MLOAD DUP3 DUP2 MLOAD DUP2 LT PUSH2 0x11EE JUMPI PUSH2 0x11ED PUSH2 0x233F JUMP JUMPDEST JUMPDEST PUSH1 0x20 MUL PUSH1 0x20 ADD ADD MLOAD SWAP1 POP PUSH32 0x26207B3D79CB8A2F4D7984D34034720F053ED770A9F512147F4EA54E18EDE2C3 DUP2 PUSH1 0x20 ADD MLOAD DUP1 MLOAD SWAP1 PUSH1 0x20 ADD KECCAK256 SUB PUSH2 0x1240 JUMPI DUP1 PUSH0 ADD MLOAD DUP4 PUSH2 0x1239 SWAP2 SWAP1 PUSH2 0x236C JUMP JUMPDEST SWAP3 POP PUSH2 0x1252 JUMP JUMPDEST DUP1 PUSH0 ADD MLOAD DUP4 PUSH2 0x124F SWAP2 SWAP1 PUSH2 0x23AD JUMP JUMPDEST SWAP3 POP JUMPDEST POP DUP1 DUP1 PUSH1 0x1 ADD SWAP2 POP POP PUSH2 0x11C9 JUMP JUMPDEST POP DUP1 SWAP4 POP POP POP POP SWAP2 SWAP1 POP JUMP JUMPDEST PUSH1 0x2 PUSH0 SWAP1 SLOAD SWAP1 PUSH2 0x100 EXP SWAP1 DIV PUSH20 0xFFFFFFFFFFFFFFFFFFFFFFFFFFFFFFFFFFFFFFFF AND PUSH20 0xFFFFFFFFFFFFFFFFFFFFFFFFFFFFFFFFFFFFFFFF AND CALLER PUSH20 0xFFFFFFFFFFFFFFFFFFFFFFFFFFFFFFFFFFFFFFFF AND EQ PUSH2 0x12FB JUMPI PUSH1 0x40 MLOAD PUSH32 0x8C379A000000000000000000000000000000000000000000000000000000000 DUP2 MSTORE PUSH1 0x4 ADD PUSH2 0x12F2 SWAP1 PUSH2 0x1CE0 JUMP JUMPDEST PUSH1 0x40 MLOAD DUP1 SWAP2 SUB SWAP1 REVERT JUMPDEST PUSH1 0x64 DUP2 GT PUSH2 0x133E JUMPI PUSH1 0x40 MLOAD PUSH32 0x8C379A000000000000000000000000000000000000000000000000000000000 DUP2 MSTORE PUSH1 0x4 ADD PUSH2 0x1335 SWAP1 PUSH2 0x245D JUMP JUMPDEST PUSH1 0x40 MLOAD DUP1 SWAP2 SUB SWAP1 REVERT JUMPDEST DUP1 PUSH1 0x3 DUP2 SWAP1 SSTORE POP POP JUMP JUMPDEST PUSH1 0x2 PUSH0 SWAP1 SLOAD SWAP1 PUSH2 0x100 EXP SWAP1 DIV PUSH20 0xFFFFFFFFFFFFFFFFFFFFFFFFFFFFFFFFFFFFFFFF AND DUP2 JUMP JUMPDEST PUSH0 DUP1 PUSH0 DUP4 PUSH20 0xFFFFFFFFFFFFFFFFFFFFFFFFFFFFFFFFFFFFFFFF AND PUSH20 0xFFFFFFFFFFFFFFFFFFFFFFFFFFFFFFFFFFFFFFFF AND DUP2 MSTORE PUSH1 0x20 ADD SWAP1 DUP2 MSTORE PUSH1 0x20 ADD PUSH0 KECCAK256 SWAP1 POP DUP1 PUSH1 0x2 ADD SLOAD DUP2 PUSH1 0x3 ADD SLOAD GT ISZERO PUSH2 0x14BC JUMPI DUP2 PUSH20 0xFFFFFFFFFFFFFFFFFFFFFFFFFFFFFFFFFFFFFFFF AND PUSH32 0x9A2DD2B852C39CDC36EBFA2BC55459F64FD51881EBFDE683D37A31595C27DA48 DUP3 PUSH1 0x3 ADD SLOAD DUP4 PUSH1 0x2 ADD SLOAD PUSH1 0x40 MLOAD PUSH2 0x140C SWAP3 SWAP2 SWAP1 PUSH2 0x1E36 JUMP JUMPDEST PUSH1 0x40 MLOAD DUP1 SWAP2 SUB SWAP1 LOG2 PUSH0 PUSH1 0xA DUP3 PUSH1 0x2 ADD SLOAD DUP4 PUSH1 0x3 ADD SLOAD PUSH2 0x142B SWAP2 SWAP1 PUSH2 0x1F86 JUMP JUMPDEST PUSH2 0x1435 SWAP2 SWAP1 PUSH2 0x1BD2 JUMP JUMPDEST SWAP1 POP DUP1 DUP3 PUSH1 0x7 ADD PUSH0 DUP3 DUP3 SLOAD PUSH2 0x144A SWAP2 SWAP1 PUSH2 0x1EC5 JUMP JUMPDEST SWAP3 POP POP DUP2 SWAP1 SSTORE POP DUP3 PUSH20 0xFFFFFFFFFFFFFFFFFFFFFFFFFFFFFFFFFFFFFFFF AND PUSH32 0xA7EFD79F8B4F74475645BB98022D7135FEAB57D5B96CB33512477B288E3FF9C3 DUP3 PUSH1 0x40 MLOAD PUSH2 0x1497 SWAP2 SWAP1 PUSH2 0x15D3 JUMP JUMPDEST PUSH1 0x40 MLOAD DUP1 SWAP2 SUB SWAP1 LOG2 PUSH0 DUP3 PUSH1 0x6 ADD PUSH0 PUSH2 0x100 EXP DUP2 SLOAD DUP2 PUSH1 0xFF MUL NOT AND SWAP1 DUP4 ISZERO ISZERO MUL OR SWAP1 SSTORE POP POP JUMPDEST PUSH0 PUSH2 0x14C6 DUP4 PUSH2 0x23B JUMP JUMPDEST SWAP1 POP PUSH1 0x64 DUP2 LT ISZERO PUSH2 0x1520 JUMPI DUP3 PUSH20 0xFFFFFFFFFFFFFFFFFFFFFFFFFFFFFFFFFFFFFFFF AND PUSH32 0x674FC74C826DBEC5EDEAC8ECDFD4401967AF353CE41C4918C79EBEA80E27C367 DUP3 PUSH1 0x40 MLOAD PUSH2 0x1517 SWAP2 SWAP1 PUSH2 0x15D3 JUMP JUMPDEST PUSH1 0x40 MLOAD DUP1 SWAP2 SUB SWAP1 LOG2 JUMPDEST POP POP POP JUMP JUMPDEST PUSH0 PUSH1 0x40 MLOAD SWAP1 POP SWAP1 JUMP JUMPDEST PUSH0 DUP1 REVERT JUMPDEST PUSH0 DUP1 REVERT JUMPDEST PUSH0 PUSH20 0xFFFFFFFFFFFFFFFFFFFFFFFFFFFFFFFFFFFFFFFF DUP3 AND SWAP1 POP SWAP2 SWAP1 POP JUMP JUMPDEST PUSH0 PUSH2 0x155F DUP3 PUSH2 0x1536 JUMP JUMPDEST SWAP1 POP SWAP2 SWAP1 POP JUMP JUMPDEST PUSH2 0x156F DUP2 PUSH2 0x1555 JUMP JUMPDEST DUP2 EQ PUSH2 0x1579 JUMPI PUSH0 DUP1 REVERT JUMPDEST POP JUMP JUMPDEST PUSH0 DUP2 CALLDATALOAD SWAP1 POP PUSH2 0x158A DUP2 PUSH2 0x1566 JUMP JUMPDEST SWAP3 SWAP2 POP POP JUMP JUMPDEST PUSH0 PUSH1 0x20 DUP3 DUP5 SUB SLT ISZERO PUSH2 0x15A5 JUMPI PUSH2 0x15A4 PUSH2 0x152E JUMP JUMPDEST JUMPDEST PUSH0 PUSH2 0x15B2 DUP5 DUP3 DUP6 ADD PUSH2 0x157C JUMP JUMPDEST SWAP2 POP POP SWAP3 SWAP2 POP POP JUMP JUMPDEST PUSH0 DUP2 SWAP1 POP SWAP2 SWAP1 POP JUMP JUMPDEST PUSH2 0x15CD DUP2 PUSH2 0x15BB JUMP JUMPDEST DUP3 MSTORE POP POP JUMP JUMPDEST PUSH0 PUSH1 0x20 DUP3 ADD SWAP1 POP PUSH2 0x15E6 PUSH0 DUP4 ADD DUP5 PUSH2 0x15C4 JUMP JUMPDEST SWAP3 SWAP2 POP POP JUMP JUMPDEST PUSH2 0x15F5 DUP2 PUSH2 0x15BB JUMP JUMPDEST DUP2 EQ PUSH2 0x15FF JUMPI PUSH0 DUP1 REVERT JUMPDEST POP JUMP JUMPDEST PUSH0 DUP2 CALLDATALOAD SWAP1 POP PUSH2 0x1610 DUP2 PUSH2 0x15EC JUMP JUMPDEST SWAP3 SWAP2 POP POP JUMP JUMPDEST PUSH0 DUP1 PUSH0 DUP1 PUSH1 0x80 DUP6 DUP8 SUB SLT ISZERO PUSH2 0x162E JUMPI PUSH2 0x162D PUSH2 0x152E JUMP JUMPDEST JUMPDEST PUSH0 PUSH2 0x163B DUP8 DUP3 DUP9 ADD PUSH2 0x157C JUMP JUMPDEST SWAP5 POP POP PUSH1 0x20 PUSH2 0x164C DUP8 DUP3 DUP9 ADD PUSH2 0x1602 JUMP JUMPDEST SWAP4 POP POP PUSH1 0x40 PUSH2 0x165D DUP8 DUP3 DUP9 ADD PUSH2 0x1602 JUMP JUMPDEST SWAP3 POP POP PUSH1 0x60 PUSH2 0x166E DUP8 DUP3 DUP9 ADD PUSH2 0x1602 JUMP JUMPDEST SWAP2 POP POP SWAP3 SWAP6 SWAP2 SWAP5 POP SWAP3 POP JUMP JUMPDEST PUSH0 DUP2 MLOAD SWAP1 POP SWAP2 SWAP1 POP JUMP JUMPDEST PUSH0 DUP3 DUP3 MSTORE PUSH1 0x20 DUP3 ADD SWAP1 POP SWAP3 SWAP2 POP POP JUMP JUMPDEST PUSH0 DUP2 SWAP1 POP PUSH1 0x20 DUP3 ADD SWAP1 POP SWAP2 SWAP1 POP JUMP JUMPDEST PUSH2 0x16AC DUP2 PUSH2 0x1555 JUMP JUMPDEST DUP3 MSTORE POP POP JUMP JUMPDEST PUSH0 PUSH2 0x16BD DUP4 DUP4 PUSH2 0x16A3 JUMP JUMPDEST PUSH1 0x20 DUP4 ADD SWAP1 POP SWAP3 SWAP2 POP POP JUMP JUMPDEST PUSH0 PUSH1 0x20 DUP3 ADD SWAP1 POP SWAP2 SWAP1 POP JUMP JUMPDEST PUSH0 PUSH2 0x16DF DUP3 PUSH2 0x167A JUMP JUMPDEST PUSH2 0x16E9 DUP2 DUP6 PUSH2 0x1684 JUMP JUMPDEST SWAP4 POP PUSH2 0x16F4 DUP4 PUSH2 0x1694 JUMP JUMPDEST DUP1 PUSH0 JUMPDEST DUP4 DUP2 LT ISZERO PUSH2 0x1724 JUMPI DUP2 MLOAD PUSH2 0x170B DUP9 DUP3 PUSH2 0x16B2 JUMP JUMPDEST SWAP8 POP PUSH2 0x1716 DUP4 PUSH2 0x16C9 JUMP JUMPDEST SWAP3 POP POP PUSH1 0x1 DUP2 ADD SWAP1 POP PUSH2 0x16F7 JUMP JUMPDEST POP DUP6 SWAP4 POP POP POP POP SWAP3 SWAP2 POP POP JUMP JUMPDEST PUSH0 PUSH1 0x20 DUP3 ADD SWAP1 POP DUP2 DUP2 SUB PUSH0 DUP4 ADD MSTORE PUSH2 0x1749 DUP2 DUP5 PUSH2 0x16D5 JUMP JUMPDEST SWAP1 POP SWAP3 SWAP2 POP POP JUMP JUMPDEST PUSH0 DUP1 REVERT JUMPDEST PUSH0 DUP1 REVERT JUMPDEST PUSH0 PUSH1 0x1F NOT PUSH1 0x1F DUP4 ADD AND SWAP1 POP SWAP2 SWAP1 POP JUMP JUMPDEST PUSH32 0x4E487B7100000000000000000000000000000000000000000000000000000000 PUSH0 MSTORE PUSH1 0x41 PUSH1 0x4 MSTORE PUSH1 0x24 PUSH0 REVERT JUMPDEST PUSH2 0x179F DUP3 PUSH2 0x1759 JUMP JUMPDEST DUP2 ADD DUP2 DUP2 LT PUSH8 0xFFFFFFFFFFFFFFFF DUP3 GT OR ISZERO PUSH2 0x17BE JUMPI PUSH2 0x17BD PUSH2 0x1769 JUMP JUMPDEST JUMPDEST DUP1 PUSH1 0x40 MSTORE POP POP POP JUMP JUMPDEST PUSH0 PUSH2 0x17D0 PUSH2 0x1525 JUMP JUMPDEST SWAP1 POP PUSH2 0x17DC DUP3 DUP3 PUSH2 0x1796 JUMP JUMPDEST SWAP2 SWAP1 POP JUMP JUMPDEST PUSH0 PUSH8 0xFFFFFFFFFFFFFFFF DUP3 GT ISZERO PUSH2 0x17FB JUMPI PUSH2 0x17FA PUSH2 0x1769 JUMP JUMPDEST JUMPDEST PUSH2 0x1804 DUP3 PUSH2 0x1759 JUMP JUMPDEST SWAP1 POP PUSH1 0x20 DUP2 ADD SWAP1 POP SWAP2 SWAP1 POP JUMP JUMPDEST DUP3 DUP2 DUP4 CALLDATACOPY PUSH0 DUP4 DUP4 ADD MSTORE POP POP POP JUMP JUMPDEST PUSH0 PUSH2 0x1831 PUSH2 0x182C DUP5 PUSH2 0x17E1 JUMP JUMPDEST PUSH2 0x17C7 JUMP JUMPDEST SWAP1 POP DUP3 DUP2 MSTORE PUSH1 0x20 DUP2 ADD DUP5 DUP5 DUP5 ADD GT ISZERO PUSH2 0x184D JUMPI PUSH2 0x184C PUSH2 0x1755 JUMP JUMPDEST JUMPDEST PUSH2 0x1858 DUP5 DUP3 DUP6 PUSH2 0x1811 JUMP JUMPDEST POP SWAP4 SWAP3 POP POP POP JUMP JUMPDEST PUSH0 DUP3 PUSH1 0x1F DUP4 ADD SLT PUSH2 0x1874 JUMPI PUSH2 0x1873 PUSH2 0x1751 JUMP JUMPDEST JUMPDEST DUP2 CALLDATALOAD PUSH2 0x1884 DUP5 DUP3 PUSH1 0x20 DUP7 ADD PUSH2 0x181F JUMP JUMPDEST SWAP2 POP POP SWAP3 SWAP2 POP POP JUMP JUMPDEST PUSH0 DUP1 PUSH0 PUSH1 0x60 DUP5 DUP7 SUB SLT ISZERO PUSH2 0x18A4 JUMPI PUSH2 0x18A3 PUSH2 0x152E JUMP JUMPDEST JUMPDEST PUSH0 PUSH2 0x18B1 DUP7 DUP3 DUP8 ADD PUSH2 0x157C JUMP JUMPDEST SWAP4 POP POP PUSH1 0x20 PUSH2 0x18C2 DUP7 DUP3 DUP8 ADD PUSH2 0x1602 JUMP JUMPDEST SWAP3 POP POP PUSH1 0x40 DUP5 ADD CALLDATALOAD PUSH8 0xFFFFFFFFFFFFFFFF DUP2 GT ISZERO PUSH2 0x18E3 JUMPI PUSH2 0x18E2 PUSH2 0x1532 JUMP JUMPDEST JUMPDEST PUSH2 0x18EF DUP7 DUP3 DUP8 ADD PUSH2 0x1860 JUMP JUMPDEST SWAP2 POP POP SWAP3 POP SWAP3 POP SWAP3 JUMP JUMPDEST PUSH0 DUP1 PUSH1 0x40 DUP4 DUP6 SUB SLT ISZERO PUSH2 0x190F JUMPI PUSH2 0x190E PUSH2 0x152E JUMP JUMPDEST JUMPDEST PUSH0 PUSH2 0x191C DUP6 DUP3 DUP7 ADD PUSH2 0x157C JUMP JUMPDEST SWAP3 POP POP PUSH1 0x20 PUSH2 0x192D DUP6 DUP3 DUP7 ADD PUSH2 0x1602 JUMP JUMPDEST SWAP2 POP POP SWAP3 POP SWAP3 SWAP1 POP JUMP JUMPDEST PUSH0 PUSH1 0x20 DUP3 DUP5 SUB SLT ISZERO PUSH2 0x194C JUMPI PUSH2 0x194B PUSH2 0x152E JUMP JUMPDEST JUMPDEST PUSH0 PUSH2 0x1959 DUP5 DUP3 DUP6 ADD PUSH2 0x1602 JUMP JUMPDEST SWAP2 POP POP SWAP3 SWAP2 POP POP JUMP JUMPDEST PUSH2 0x196B DUP2 PUSH2 0x1555 JUMP JUMPDEST DUP3 MSTORE POP POP JUMP JUMPDEST PUSH0 PUSH1 0x20 DUP3 ADD SWAP1 POP PUSH2 0x1984 PUSH0 DUP4 ADD DUP5 PUSH2 0x1962 JUMP JUMPDEST SWAP3 SWAP2 POP POP JUMP JUMPDEST PUSH0 DUP2 ISZERO ISZERO SWAP1 POP SWAP2 SWAP1 POP JUMP JUMPDEST PUSH2 0x199E DUP2 PUSH2 0x198A JUMP JUMPDEST DUP3 MSTORE POP POP JUMP JUMPDEST PUSH0 PUSH1 0xE0 DUP3 ADD SWAP1 POP PUSH2 0x19B7 PUSH0 DUP4 ADD DUP11 PUSH2 0x1962 JUMP JUMPDEST PUSH2 0x19C4 PUSH1 0x20 DUP4 ADD DUP10 PUSH2 0x15C4 JUMP JUMPDEST PUSH2 0x19D1 PUSH1 0x40 DUP4 ADD DUP9 PUSH2 0x15C4 JUMP JUMPDEST PUSH2 0x19DE PUSH1 0x60 DUP4 ADD DUP8 PUSH2 0x15C4 JUMP JUMPDEST PUSH2 0x19EB PUSH1 0x80 DUP4 ADD DUP7 PUSH2 0x15C4 JUMP JUMPDEST PUSH2 0x19F8 PUSH1 0xA0 DUP4 ADD DUP6 PUSH2 0x1995 JUMP JUMPDEST PUSH2 0x1A05 PUSH1 0xC0 DUP4 ADD DUP5 PUSH2 0x15C4 JUMP JUMPDEST SWAP9 SWAP8 POP POP POP POP POP POP POP POP JUMP JUMPDEST PUSH0 DUP2 SWAP1 POP SWAP2 SWAP1 POP JUMP JUMPDEST PUSH2 0x1A23 DUP2 PUSH2 0x1A11 JUMP JUMPDEST DUP3 MSTORE POP POP JUMP JUMPDEST PUSH0 PUSH1 0x20 DUP3 ADD SWAP1 POP PUSH2 0x1A3C PUSH0 DUP4 ADD DUP5 PUSH2 0x1A1A JUMP JUMPDEST SWAP3 SWAP2 POP POP JUMP JUMPDEST PUSH0 DUP3 DUP3 MSTORE PUSH1 0x20 DUP3 ADD SWAP1 POP SWAP3 SWAP2 POP POP JUMP JUMPDEST PUSH32 0x436F6E74726570617274696520696E616374697665206F7520696E6578697374 PUSH0 DUP3 ADD MSTORE PUSH32 0x616E746500000000000000000000000000000000000000000000000000000000 PUSH1 0x20 DUP3 ADD MSTORE POP JUMP JUMPDEST PUSH0 PUSH2 0x1AAC PUSH1 0x24 DUP4 PUSH2 0x1A42 JUMP JUMPDEST SWAP2 POP PUSH2 0x1AB7 DUP3 PUSH2 0x1A52 JUMP JUMPDEST PUSH1 0x40 DUP3 ADD SWAP1 POP SWAP2 SWAP1 POP JUMP JUMPDEST PUSH0 PUSH1 0x20 DUP3 ADD SWAP1 POP DUP2 DUP2 SUB PUSH0 DUP4 ADD MSTORE PUSH2 0x1AD9 DUP2 PUSH2 0x1AA0 JUMP JUMPDEST SWAP1 POP SWAP2 SWAP1 POP JUMP JUMPDEST PUSH32 0x4E487B7100000000000000000000000000000000000000000000000000000000 PUSH0 MSTORE PUSH1 0x22 PUSH1 0x4 MSTORE PUSH1 0x24 PUSH0 REVERT JUMPDEST PUSH0 PUSH1 0x2 DUP3 DIV SWAP1 POP PUSH1 0x1 DUP3 AND DUP1 PUSH2 0x1B24 JUMPI PUSH1 0x7F DUP3 AND SWAP2 POP JUMPDEST PUSH1 0x20 DUP3 LT DUP2 SUB PUSH2 0x1B37 JUMPI PUSH2 0x1B36 PUSH2 0x1AE0 JUMP JUMPDEST JUMPDEST POP SWAP2 SWAP1 POP JUMP JUMPDEST PUSH32 0x4578706F736974696F6E20636F7572616E7465206E756C6C6500000000000000 PUSH0 DUP3 ADD MSTORE POP JUMP JUMPDEST PUSH0 PUSH2 0x1B71 PUSH1 0x19 DUP4 PUSH2 0x1A42 JUMP JUMPDEST SWAP2 POP PUSH2 0x1B7C DUP3 PUSH2 0x1B3D JUMP JUMPDEST PUSH1 0x20 DUP3 ADD SWAP1 POP SWAP2 SWAP1 POP JUMP JUMPDEST PUSH0 PUSH1 0x20 DUP3 ADD SWAP1 POP DUP2 DUP2 SUB PUSH0 DUP4 ADD MSTORE PUSH2 0x1B9E DUP2 PUSH2 0x1B65 JUMP JUMPDEST SWAP1 POP SWAP2 SWAP1 POP JUMP JUMPDEST PUSH32 0x4E487B7100000000000000000000000000000000000000000000000000000000 PUSH0 MSTORE PUSH1 0x11 PUSH1 0x4 MSTORE PUSH1 0x24 PUSH0 REVERT JUMPDEST PUSH0 PUSH2 0x1BDC DUP3 PUSH2 0x15BB JUMP JUMPDEST SWAP2 POP PUSH2 0x1BE7 DUP4 PUSH2 0x15BB JUMP JUMPDEST SWAP3 POP DUP3 DUP3 MUL PUSH2 0x1BF5 DUP2 PUSH2 0x15BB JUMP JUMPDEST SWAP2 POP DUP3 DUP3 DIV DUP5 EQ DUP4 ISZERO OR PUSH2 0x1C0C JUMPI PUSH2 0x1C0B PUSH2 0x1BA5 JUMP JUMPDEST JUMPDEST POP SWAP3 SWAP2 POP POP JUMP JUMPDEST PUSH32 0x4E487B7100000000000000000000000000000000000000000000000000000000 PUSH0 MSTORE PUSH1 0x12 PUSH1 0x4 MSTORE PUSH1 0x24 PUSH0 REVERT JUMPDEST PUSH0 PUSH2 0x1C4A DUP3 PUSH2 0x15BB JUMP JUMPDEST SWAP2 POP PUSH2 0x1C55 DUP4 PUSH2 0x15BB JUMP JUMPDEST SWAP3 POP DUP3 PUSH2 0x1C65 JUMPI PUSH2 0x1C64 PUSH2 0x1C13 JUMP JUMPDEST JUMPDEST DUP3 DUP3 DIV SWAP1 POP SWAP3 SWAP2 POP POP JUMP JUMPDEST PUSH32 0x416374696F6E2072657365727665652061206C2761646D696E69737472617465 PUSH0 DUP3 ADD MSTORE PUSH32 0x7572000000000000000000000000000000000000000000000000000000000000 PUSH1 0x20 DUP3 ADD MSTORE POP JUMP JUMPDEST PUSH0 PUSH2 0x1CCA PUSH1 0x22 DUP4 PUSH2 0x1A42 JUMP JUMPDEST SWAP2 POP PUSH2 0x1CD5 DUP3 PUSH2 0x1C70 JUMP JUMPDEST PUSH1 0x40 DUP3 ADD SWAP1 POP SWAP2 SWAP1 POP JUMP JUMPDEST PUSH0 PUSH1 0x20 DUP3 ADD SWAP1 POP DUP2 DUP2 SUB PUSH0 DUP4 ADD MSTORE PUSH2 0x1CF7 DUP2 PUSH2 0x1CBE JUMP JUMPDEST SWAP1 POP SWAP2 SWAP1 POP JUMP JUMPDEST PUSH32 0x4164726573736520696E76616C69646500000000000000000000000000000000 PUSH0 DUP3 ADD MSTORE POP JUMP JUMPDEST PUSH0 PUSH2 0x1D32 PUSH1 0x10 DUP4 PUSH2 0x1A42 JUMP JUMPDEST SWAP2 POP PUSH2 0x1D3D DUP3 PUSH2 0x1CFE JUMP JUMPDEST PUSH1 0x20 DUP3 ADD SWAP1 POP SWAP2 SWAP1 POP JUMP JUMPDEST PUSH0 PUSH1 0x20 DUP3 ADD SWAP1 POP DUP2 DUP2 SUB PUSH0 DUP4 ADD MSTORE PUSH2 0x1D5F DUP2 PUSH2 0x1D26 JUMP JUMPDEST SWAP1 POP SWAP2 SWAP1 POP JUMP JUMPDEST PUSH32 0x436F6E747265706172746965206578697374652064656A610000000000000000 PUSH0 DUP3 ADD MSTORE POP JUMP JUMPDEST PUSH0 PUSH2 0x1D9A PUSH1 0x18 DUP4 PUSH2 0x1A42 JUMP JUMPDEST SWAP2 POP PUSH2 0x1DA5 DUP3 PUSH2 0x1D66 JUMP JUMPDEST PUSH1 0x20 DUP3 ADD SWAP1 POP SWAP2 SWAP1 POP JUMP JUMPDEST PUSH0 PUSH1 0x20 DUP3 ADD SWAP1 POP DUP2 DUP2 SUB PUSH0 DUP4 ADD MSTORE PUSH2 0x1DC7 DUP2 PUSH2 0x1D8E JUMP JUMPDEST SWAP1 POP SWAP2 SWAP1 POP JUMP JUMPDEST PUSH32 0x53636F72652064652063726564697420696E76616C6964650000000000000000 PUSH0 DUP3 ADD MSTORE POP JUMP JUMPDEST PUSH0 PUSH2 0x1E02 PUSH1 0x18 DUP4 PUSH2 0x1A42 JUMP JUMPDEST SWAP2 POP PUSH2 0x1E0D DUP3 PUSH2 0x1DCE JUMP JUMPDEST PUSH1 0x20 DUP3 ADD SWAP1 POP SWAP2 SWAP1 POP JUMP JUMPDEST PUSH0 PUSH1 0x20 DUP3 ADD SWAP1 POP DUP2 DUP2 SUB PUSH0 DUP4 ADD MSTORE PUSH2 0x1E2F DUP2 PUSH2 0x1DF6 JUMP JUMPDEST SWAP1 POP SWAP2 SWAP1 POP JUMP JUMPDEST PUSH0 PUSH1 0x40 DUP3 ADD SWAP1 POP PUSH2 0x1E49 PUSH0 DUP4 ADD DUP6 PUSH2 0x15C4 JUMP JUMPDEST PUSH2 0x1E56 PUSH1 0x20 DUP4 ADD DUP5 PUSH2 0x15C4 JUMP JUMPDEST SWAP4 SWAP3 POP POP POP JUMP JUMPDEST PUSH32 0x4D6F6E74616E7420696E76616C69646500000000000000000000000000000000 PUSH0 DUP3 ADD MSTORE POP JUMP JUMPDEST PUSH0 PUSH2 0x1E91 PUSH1 0x10 DUP4 PUSH2 0x1A42 JUMP JUMPDEST SWAP2 POP PUSH2 0x1E9C DUP3 PUSH2 0x1E5D JUMP JUMPDEST PUSH1 0x20 DUP3 ADD SWAP1 POP SWAP2 SWAP1 POP JUMP JUMPDEST PUSH0 PUSH1 0x20 DUP3 ADD SWAP1 POP DUP2 DUP2 SUB PUSH0 DUP4 ADD MSTORE PUSH2 0x1EBE DUP2 PUSH2 0x1E85 JUMP JUMPDEST SWAP1 POP SWAP2 SWAP1 POP JUMP JUMPDEST PUSH0 PUSH2 0x1ECF DUP3 PUSH2 0x15BB JUMP JUMPDEST SWAP2 POP PUSH2 0x1EDA DUP4 PUSH2 0x15BB JUMP JUMPDEST SWAP3 POP DUP3 DUP3 ADD SWAP1 POP DUP1 DUP3 GT ISZERO PUSH2 0x1EF2 JUMPI PUSH2 0x1EF1 PUSH2 0x1BA5 JUMP JUMPDEST JUMPDEST SWAP3 SWAP2 POP POP JUMP JUMPDEST PUSH32 0x436F6C6C61746572616C20696E737566666973616E7420706F75722063657474 PUSH0 DUP3 ADD MSTORE PUSH32 0x6520706F736974696F6E00000000000000000000000000000000000000000000 PUSH1 0x20 DUP3 ADD MSTORE POP JUMP JUMPDEST PUSH0 PUSH2 0x1F52 PUSH1 0x2A DUP4 PUSH2 0x1A42 JUMP JUMPDEST SWAP2 POP PUSH2 0x1F5D DUP3 PUSH2 0x1EF8 JUMP JUMPDEST PUSH1 0x40 DUP3 ADD SWAP1 POP SWAP2 SWAP1 POP JUMP JUMPDEST PUSH0 PUSH1 0x20 DUP3 ADD SWAP1 POP DUP2 DUP2 SUB PUSH0 DUP4 ADD MSTORE PUSH2 0x1F7F DUP2 PUSH2 0x1F46 JUMP JUMPDEST SWAP1 POP SWAP2 SWAP1 POP JUMP JUMPDEST PUSH0 PUSH2 0x1F90 DUP3 PUSH2 0x15BB JUMP JUMPDEST SWAP2 POP PUSH2 0x1F9B DUP4 PUSH2 0x15BB JUMP JUMPDEST SWAP3 POP DUP3 DUP3 SUB SWAP1 POP DUP2 DUP2 GT ISZERO PUSH2 0x1FB3 JUMPI PUSH2 0x1FB2 PUSH2 0x1BA5 JUMP JUMPDEST JUMPDEST SWAP3 SWAP2 POP POP JUMP JUMPDEST PUSH32 0x5479706520646520706F736974696F6E20696E76616C6964652C207574696C69 PUSH0 DUP3 ADD MSTORE PUSH32 0x736572204C4F4E47206F752053484F5254000000000000000000000000000000 PUSH1 0x20 DUP3 ADD MSTORE POP JUMP JUMPDEST PUSH0 PUSH2 0x2013 PUSH1 0x31 DUP4 PUSH2 0x1A42 JUMP JUMPDEST SWAP2 POP PUSH2 0x201E DUP3 PUSH2 0x1FB9 JUMP JUMPDEST PUSH1 0x40 DUP3 ADD SWAP1 POP SWAP2 SWAP1 POP JUMP JUMPDEST PUSH0 PUSH1 0x20 DUP3 ADD SWAP1 POP DUP2 DUP2 SUB PUSH0 DUP4 ADD MSTORE PUSH2 0x2040 DUP2 PUSH2 0x2007 JUMP JUMPDEST SWAP1 POP SWAP2 SWAP1 POP JUMP JUMPDEST PUSH0 DUP2 MLOAD SWAP1 POP SWAP2 SWAP1 POP JUMP JUMPDEST PUSH0 DUP2 SWAP1 POP DUP2 PUSH0 MSTORE PUSH1 0x20 PUSH0 KECCAK256 SWAP1 POP SWAP2 SWAP1 POP JUMP JUMPDEST PUSH0 PUSH1 0x20 PUSH1 0x1F DUP4 ADD DIV SWAP1 POP SWAP2 SWAP1 POP JUMP JUMPDEST PUSH0 DUP3 DUP3 SHL SWAP1 POP SWAP3 SWAP2 POP POP JUMP JUMPDEST PUSH0 PUSH1 0x8 DUP4 MUL PUSH2 0x20AD PUSH32 0xFFFFFFFFFFFFFFFFFFFFFFFFFFFFFFFFFFFFFFFFFFFFFFFFFFFFFFFFFFFFFFFF DUP3 PUSH2 0x2072 JUMP JUMPDEST PUSH2 0x20B7 DUP7 DUP4 PUSH2 0x2072 JUMP JUMPDEST SWAP6 POP DUP1 NOT DUP5 AND SWAP4 POP DUP1 DUP7 AND DUP5 OR SWAP3 POP POP POP SWAP4 SWAP3 POP POP POP JUMP JUMPDEST PUSH0 DUP2 SWAP1 POP SWAP2 SWAP1 POP JUMP JUMPDEST PUSH0 PUSH2 0x20F2 PUSH2 0x20ED PUSH2 0x20E8 DUP5 PUSH2 0x15BB JUMP JUMPDEST PUSH2 0x20CF JUMP JUMPDEST PUSH2 0x15BB JUMP JUMPDEST SWAP1 POP SWAP2 SWAP1 POP JUMP JUMPDEST PUSH0 DUP2 SWAP1 POP SWAP2 SWAP1 POP JUMP JUMPDEST PUSH2 0x210B DUP4 PUSH2 0x20D8 JUMP JUMPDEST PUSH2 0x211F PUSH2 0x2117 DUP3 PUSH2 0x20F9 JUMP JUMPDEST DUP5 DUP5 SLOAD PUSH2 0x207E JUMP JUMPDEST DUP3 SSTORE POP POP POP POP JUMP JUMPDEST PUSH0 SWAP1 JUMP JUMPDEST PUSH2 0x2133 PUSH2 0x2127 JUMP JUMPDEST PUSH2 0x213E DUP2 DUP5 DUP5 PUSH2 0x2102 JUMP JUMPDEST POP POP POP JUMP JUMPDEST JUMPDEST DUP2 DUP2 LT ISZERO PUSH2 0x2161 JUMPI PUSH2 0x2156 PUSH0 DUP3 PUSH2 0x212B JUMP JUMPDEST PUSH1 0x1 DUP2 ADD SWAP1 POP PUSH2 0x2144 JUMP JUMPDEST POP POP JUMP JUMPDEST PUSH1 0x1F DUP3 GT ISZERO PUSH2 0x21A6 JUMPI PUSH2 0x2177 DUP2 PUSH2 0x2051 JUMP JUMPDEST PUSH2 0x2180 DUP5 PUSH2 0x2063 JUMP JUMPDEST DUP2 ADD PUSH1 0x20 DUP6 LT ISZERO PUSH2 0x218F JUMPI DUP2 SWAP1 POP JUMPDEST PUSH2 0x21A3 PUSH2 0x219B DUP6 PUSH2 0x2063 JUMP JUMPDEST DUP4 ADD DUP3 PUSH2 0x2143 JUMP JUMPDEST POP POP JUMPDEST POP POP POP JUMP JUMPDEST PUSH0 DUP3 DUP3 SHR SWAP1 POP SWAP3 SWAP2 POP POP JUMP JUMPDEST PUSH0 PUSH2 0x21C6 PUSH0 NOT DUP5 PUSH1 0x8 MUL PUSH2 0x21AB JUMP JUMPDEST NOT DUP1 DUP4 AND SWAP2 POP POP SWAP3 SWAP2 POP POP JUMP JUMPDEST PUSH0 PUSH2 0x21DE DUP4 DUP4 PUSH2 0x21B7 JUMP JUMPDEST SWAP2 POP DUP3 PUSH1 0x2 MUL DUP3 OR SWAP1 POP SWAP3 SWAP2 POP POP JUMP JUMPDEST PUSH2 0x21F7 DUP3 PUSH2 0x2047 JUMP JUMPDEST PUSH8 0xFFFFFFFFFFFFFFFF DUP2 GT ISZERO PUSH2 0x2210 JUMPI PUSH2 0x220F PUSH2 0x1769 JUMP JUMPDEST JUMPDEST PUSH2 0x221A DUP3 SLOAD PUSH2 0x1B0D JUMP JUMPDEST PUSH2 0x2225 DUP3 DUP3 DUP6 PUSH2 0x2165 JUMP JUMPDEST PUSH0 PUSH1 0x20 SWAP1 POP PUSH1 0x1F DUP4 GT PUSH1 0x1 DUP2 EQ PUSH2 0x2256 JUMPI PUSH0 DUP5 ISZERO PUSH2 0x2244 JUMPI DUP3 DUP8 ADD MLOAD SWAP1 POP JUMPDEST PUSH2 0x224E DUP6 DUP3 PUSH2 0x21D3 JUMP JUMPDEST DUP7 SSTORE POP PUSH2 0x22B5 JUMP JUMPDEST PUSH1 0x1F NOT DUP5 AND PUSH2 0x2264 DUP7 PUSH2 0x2051 JUMP JUMPDEST PUSH0 JUMPDEST DUP3 DUP2 LT ISZERO PUSH2 0x228B JUMPI DUP5 DUP10 ADD MLOAD DUP3 SSTORE PUSH1 0x1 DUP3 ADD SWAP2 POP PUSH1 0x20 DUP6 ADD SWAP5 POP PUSH1 0x20 DUP2 ADD SWAP1 POP PUSH2 0x2266 JUMP JUMPDEST DUP7 DUP4 LT ISZERO PUSH2 0x22A8 JUMPI DUP5 DUP10 ADD MLOAD PUSH2 0x22A4 PUSH1 0x1F DUP10 AND DUP3 PUSH2 0x21B7 JUMP JUMPDEST DUP4 SSTORE POP JUMPDEST PUSH1 0x1 PUSH1 0x2 DUP9 MUL ADD DUP9 SSTORE POP POP POP JUMPDEST POP POP POP POP POP POP JUMP JUMPDEST DUP3 DUP2 DUP4 MCOPY PUSH0 DUP4 DUP4 ADD MSTORE POP POP POP JUMP JUMPDEST PUSH0 PUSH2 0x22D5 DUP3 PUSH2 0x2047 JUMP JUMPDEST PUSH2 0x22DF DUP2 DUP6 PUSH2 0x1A42 JUMP JUMPDEST SWAP4 POP PUSH2 0x22EF DUP2 DUP6 PUSH1 0x20 DUP7 ADD PUSH2 0x22BD JUMP JUMPDEST PUSH2 0x22F8 DUP2 PUSH2 0x1759 JUMP JUMPDEST DUP5 ADD SWAP2 POP POP SWAP3 SWAP2 POP POP JUMP JUMPDEST PUSH0 PUSH1 0x60 DUP3 ADD SWAP1 POP PUSH2 0x2316 PUSH0 DUP4 ADD DUP7 PUSH2 0x15C4 JUMP JUMPDEST DUP2 DUP2 SUB PUSH1 0x20 DUP4 ADD MSTORE PUSH2 0x2328 DUP2 DUP6 PUSH2 0x22CB JUMP JUMPDEST SWAP1 POP PUSH2 0x2337 PUSH1 0x40 DUP4 ADD DUP5 PUSH2 0x15C4 JUMP JUMPDEST SWAP5 SWAP4 POP POP POP POP JUMP JUMPDEST PUSH32 0x4E487B7100000000000000000000000000000000000000000000000000000000 PUSH0 MSTORE PUSH1 0x32 PUSH1 0x4 MSTORE PUSH1 0x24 PUSH0 REVERT JUMPDEST PUSH0 PUSH2 0x2376 DUP3 PUSH2 0x1A11 JUMP JUMPDEST SWAP2 POP PUSH2 0x2381 DUP4 PUSH2 0x1A11 JUMP JUMPDEST SWAP3 POP DUP3 DUP3 ADD SWAP1 POP DUP3 DUP2 SLT ISZERO PUSH0 DUP4 SLT AND DUP4 DUP3 SLT PUSH0 DUP5 SLT ISZERO AND OR ISZERO PUSH2 0x23A7 JUMPI PUSH2 0x23A6 PUSH2 0x1BA5 JUMP JUMPDEST JUMPDEST SWAP3 SWAP2 POP POP JUMP JUMPDEST PUSH0 PUSH2 0x23B7 DUP3 PUSH2 0x1A11 JUMP JUMPDEST SWAP2 POP PUSH2 0x23C2 DUP4 PUSH2 0x1A11 JUMP JUMPDEST SWAP3 POP DUP3 DUP3 SUB SWAP1 POP DUP2 DUP2 SLT PUSH0 DUP5 SLT AND DUP3 DUP3 SGT PUSH0 DUP6 SLT ISZERO AND OR ISZERO PUSH2 0x23E7 JUMPI PUSH2 0x23E6 PUSH2 0x1BA5 JUMP JUMPDEST JUMPDEST SWAP3 SWAP2 POP POP JUMP JUMPDEST PUSH32 0x4C6520726174696F20646F697420657472652073757065726965757220612031 PUSH0 DUP3 ADD MSTORE PUSH32 0x3030250000000000000000000000000000000000000000000000000000000000 PUSH1 0x20 DUP3 ADD MSTORE POP JUMP JUMPDEST PUSH0 PUSH2 0x2447 PUSH1 0x23 DUP4 PUSH2 0x1A42 JUMP JUMPDEST SWAP2 POP PUSH2 0x2452 DUP3 PUSH2 0x23ED JUMP JUMPDEST PUSH1 0x40 DUP3 ADD SWAP1 POP SWAP2 SWAP1 POP JUMP JUMPDEST PUSH0 PUSH1 0x20 DUP3 ADD SWAP1 POP DUP2 DUP2 SUB PUSH0 DUP4 ADD MSTORE PUSH2 0x2474 DUP2 PUSH2 0x243B JUMP JUMPDEST SWAP1 POP SWAP2 SWAP1 POP JUMP INVALID LOG2 PUSH5 0x6970667358 0x22 SLT KECCAK256 MOD POP 0xB4 JUMP SELFDESTRUCT 0xE1 0xD3 0xEC 0x4B 0xAB PUSH20 0x1FDF8201919A952138A0DB5BA3C0EBA6D9A34413 MCOPY PUSH5 0x736F6C6343 STOP ADDMOD BYTE STOP CALLER "
		},
		"gasEstimates": {
			"creation": {
				"codeDepositCost": "1878600",
				"executionCost": "48352",
				"totalCost": "1926952"
			},
			"external": {
				"admin()": "2618",
				"ajouterCollateral(address,uint256)": "infinite",
				"ajouterContrepartie(address,uint256,uint256,uint256)": "infinite",
				"ajouterPosition(address,uint256,string)": "infinite",
				"calculerExpositionNette(address)": "infinite",
				"calculerRatioCouverture(address)": "infinite",
				"contreparties(address)": "infinite",
				"getListeContreparties()": "infinite",
				"listeContreparties(uint256)": "4944",
				"modifierRatioDeCouverture(uint256)": "24795",
				"ratioDeCouverture()": "2469"
			},
			"internal": {
				"verifierDepassements(address)": "infinite"
			}
		},
		"methodIdentifiers": {
			"admin()": "f851a440",
			"ajouterCollateral(address,uint256)": "52ea5692",
			"ajouterContrepartie(address,uint256,uint256,uint256)": "1411ae6f",
			"ajouterPosition(address,uint256,string)": "4dd54c2a",
			"calculerExpositionNette(address)": "b05a5cfb",
			"calculerRatioCouverture(address)": "0aae162e",
			"contreparties(address)": "760b1eee",
			"getListeContreparties()": "25836bc8",
			"listeContreparties(uint256)": "561a9927",
			"modifierRatioDeCouverture(uint256)": "e4d2d96e",
			"ratioDeCouverture()": "85381211"
		}
	},
	"abi": [
		{
			"inputs": [],
			"stateMutability": "nonpayable",
			"type": "constructor"
		},
		{
			"anonymous": false,
			"inputs": [
				{
					"indexed": true,
					"internalType": "address",
					"name": "portefeuille",
					"type": "address"
				},
				{
					"indexed": false,
					"internalType": "uint256",
					"name": "limiteExposition",
					"type": "uint256"
				},
				{
					"indexed": false,
					"internalType": "uint256",
					"name": "collateral",
					"type": "uint256"
				}
			],
			"name": "ContrepartieAjoutee",
			"type": "event"
		},
		{
			"anonymous": false,
			"inputs": [
				{
					"indexed": true,
					"internalType": "address",
					"name": "portefeuille",
					"type": "address"
				},
				{
					"indexed": false,
					"internalType": "uint256",
					"name": "expositionCourante",
					"type": "uint256"
				},
				{
					"indexed": false,
					"internalType": "uint256",
					"name": "limiteExposition",
					"type": "uint256"
				}
			],
			"name": "LimiteDepassee",
			"type": "event"
		},
		{
			"anonymous": false,
			"inputs": [
				{
					"indexed": true,
					"internalType": "address",
					"name": "portefeuille",
					"type": "address"
				},
				{
					"indexed": false,
					"internalType": "uint256",
					"name": "montantPenalite",
					"type": "uint256"
				}
			],
			"name": "PenaliteAppliquee",
			"type": "event"
		},
		{
			"anonymous": false,
			"inputs": [
				{
					"indexed": true,
					"internalType": "address",
					"name": "portefeuille",
					"type": "address"
				},
				{
					"indexed": false,
					"internalType": "uint256",
					"name": "montant",
					"type": "uint256"
				},
				{
					"indexed": false,
					"internalType": "string",
					"name": "typePosition",
					"type": "string"
				},
				{
					"indexed": false,
					"internalType": "uint256",
					"name": "collateralExige",
					"type": "uint256"
				}
			],
			"name": "PositionAjoutee",
			"type": "event"
		},
		{
			"anonymous": false,
			"inputs": [
				{
					"indexed": true,
					"internalType": "address",
					"name": "portefeuille",
					"type": "address"
				},
				{
					"indexed": false,
					"internalType": "uint256",
					"name": "ratioCouverture",
					"type": "uint256"
				}
			],
			"name": "RatioCouvertureInsuffisant",
			"type": "event"
		},
		{
			"inputs": [],
			"name": "admin",
			"outputs": [
				{
					"internalType": "address",
					"name": "",
					"type": "address"
				}
			],
			"stateMutability": "view",
			"type": "function"
		},
		{
			"inputs": [
				{
					"internalType": "address",
					"name": "_portefeuille",
					"type": "address"
				},
				{
					"internalType": "uint256",
					"name": "_montant",
					"type": "uint256"
				}
			],
			"name": "ajouterCollateral",
			"outputs": [],
			"stateMutability": "nonpayable",
			"type": "function"
		},
		{
			"inputs": [
				{
					"internalType": "address",
					"name": "_portefeuille",
					"type": "address"
				},
				{
					"internalType": "uint256",
					"name": "_scoreCredit",
					"type": "uint256"
				},
				{
					"internalType": "uint256",
					"name": "_limiteExposition",
					"type": "uint256"
				},
				{
					"internalType": "uint256",
					"name": "_collateral",
					"type": "uint256"
				}
			],
			"name": "ajouterContrepartie",
			"outputs": [],
			"stateMutability": "nonpayable",
			"type": "function"
		},
		{
			"inputs": [
				{
					"internalType": "address",
					"name": "_portefeuille",
					"type": "address"
				},
				{
					"internalType": "uint256",
					"name": "_montant",
					"type": "uint256"
				},
				{
					"internalType": "string",
					"name": "_typePosition",
					"type": "string"
				}
			],
			"name": "ajouterPosition",
			"outputs": [],
			"stateMutability": "nonpayable",
			"type": "function"
		},
		{
			"inputs": [
				{
					"internalType": "address",
					"name": "_portefeuille",
					"type": "address"
				}
			],
			"name": "calculerExpositionNette",
			"outputs": [
				{
					"internalType": "int256",
					"name": "",
					"type": "int256"
				}
			],
			"stateMutability": "view",
			"type": "function"
		},
		{
			"inputs": [
				{
					"internalType": "address",
					"name": "_portefeuille",
					"type": "address"
				}
			],
			"name": "calculerRatioCouverture",
			"outputs": [
				{
					"internalType": "uint256",
					"name": "",
					"type": "uint256"
				}
			],
			"stateMutability": "view",
			"type": "function"
		},
		{
			"inputs": [
				{
					"internalType": "address",
					"name": "",
					"type": "address"
				}
			],
			"name": "contreparties",
			"outputs": [
				{
					"internalType": "address",
					"name": "portefeuille",
					"type": "address"
				},
				{
					"internalType": "uint256",
					"name": "scoreCredit",
					"type": "uint256"
				},
				{
					"internalType": "uint256",
					"name": "limiteExposition",
					"type": "uint256"
				},
				{
					"internalType": "uint256",
					"name": "expositionCourante",
					"type": "uint256"
				},
				{
					"internalType": "uint256",
					"name": "collateral",
					"type": "uint256"
				},
				{
					"internalType": "bool",
					"name": "estActif",
					"type": "bool"
				},
				{
					"internalType": "uint256",
					"name": "penalites",
					"type": "uint256"
				}
			],
			"stateMutability": "view",
			"type": "function"
		},
		{
			"inputs": [],
			"name": "getListeContreparties",
			"outputs": [
				{
					"internalType": "address[]",
					"name": "",
					"type": "address[]"
				}
			],
			"stateMutability": "view",
			"type": "function"
		},
		{
			"inputs": [
				{
					"internalType": "uint256",
					"name": "",
					"type": "uint256"
				}
			],
			"name": "listeContreparties",
			"outputs": [
				{
					"internalType": "address",
					"name": "",
					"type": "address"
				}
			],
			"stateMutability": "view",
			"type": "function"
		},
		{
			"inputs": [
				{
					"internalType": "uint256",
					"name": "_nouveauRatio",
					"type": "uint256"
				}
			],
			"name": "modifierRatioDeCouverture",
			"outputs": [],
			"stateMutability": "nonpayable",
			"type": "function"
		},
		{
			"inputs": [],
			"name": "ratioDeCouverture",
			"outputs": [
				{
					"internalType": "uint256",
					"name": "",
					"type": "uint256"
				}
			],
			"stateMutability": "view",
			"type": "function"
		}
	]
}